{
  "abi": [
    {
      "inputs": [],
      "stateMutability": "nonpayable",
      "type": "constructor"
    },
    {
      "inputs": [],
      "name": "ERC20LINK_HASH",
      "outputs": [
        {
          "internalType": "bytes32",
          "name": "",
          "type": "bytes32"
        }
      ],
      "stateMutability": "view",
      "type": "function"
    },
    {
      "inputs": [
        {
          "internalType": "contract IMultiToken",
          "name": "token",
          "type": "address"
        },
        {
          "internalType": "uint256",
          "name": "tokenId",
          "type": "uint256"
        }
      ],
      "name": "create",
      "outputs": [
        {
          "internalType": "contract ERC20Forwarder",
          "name": "",
          "type": "address"
        }
      ],
      "stateMutability": "nonpayable",
      "type": "function"
    },
    {
      "inputs": [],
      "name": "getDeployDetails",
      "outputs": [
        {
          "internalType": "contract IMultiToken",
          "name": "",
          "type": "address"
        },
        {
          "internalType": "uint256",
          "name": "",
          "type": "uint256"
        }
      ],
      "stateMutability": "view",
      "type": "function"
    },
    {
      "inputs": [
        {
          "internalType": "contract IMultiToken",
          "name": "token",
          "type": "address"
        },
        {
          "internalType": "uint256",
          "name": "tokenId",
          "type": "uint256"
        }
      ],
      "name": "getForwarder",
      "outputs": [
        {
          "internalType": "address",
          "name": "",
          "type": "address"
        }
      ],
      "stateMutability": "view",
      "type": "function"
    }
  ],
  "bytecode": {
    "object": "0x6080604052600080546001600160a01b0319166001908117909155805534801561002857600080fd5b506115ff806100386000396000f3fe608060405234801561001057600080fd5b506004361061004c5760003560e01c80630710fd58146100515780630ecaea7314610081578063600eb4ba14610094578063d13053bb146100ca575b600080fd5b61006461005f3660046102b9565b6100e0565b6040516001600160a01b0390911681526020015b60405180910390f35b61006461008f3660046102b9565b6101b5565b6100ab6000546001546001600160a01b0390911691565b604080516001600160a01b039093168352602083019190915201610078565b6100d261027f565b604051908152602001610078565b604080516001600160a01b03841660208201529081018290526000908190606001604051602081830303815290604052805190602001209050600060ff60f81b308360405180602001610132906102ac565b6020820181038252601f19601f820116604052508051906020012060405160200161019494939291906001600160f81b031994909416845260609290921b6bffffffffffffffffffffffff191660018401526015830152603582015260550190565b60408051808303601f19018152919052805160209091012095945050505050565b6001819055600080546001600160a01b0319166001600160a01b038416908117825560408051602081019290925281018390528190606001604051602081830303815290604052805190602001209050600081604051610214906102ac565b8190604051809103906000f5905080158015610234573d6000803e3d6000fd5b50905061024185856100e0565b6001600160a01b0316816001600160a01b03161461025e57600080fd5b600080546001600160a01b0319166001908117909155805591505092915050565b60405161028e602082016102ac565b6020820181038252601f19601f820116604052508051906020012081565b6112d8806102f283390190565b600080604083850312156102cc57600080fd5b82356001600160a01b03811681146102e357600080fd5b94602093909301359350505056fe60e06040523480156200001157600080fd5b50604080516330075a5d60e11b815281513392839263600eb4ba926004808301939282900301816000875af11580156200004f573d6000803e3d6000fd5b505050506040513d601f19601f820116820180604052508101906200007591906200019c565b60a08190526001600160a01b039091166080819052604051622b600360e21b81527f8b73c3c69bb8fe3d512ecc4cf759cc79239f7b179b0ffacaa9a75d522b39400f9262ad800c91620000cf919060040190815260200190565b600060405180830381865afa158015620000ed573d6000803e3d6000fd5b505050506040513d6000823e601f3d908101601f19168201604052620001179190810190620001ee565b805160209182012060408051808201825260018152603160f81b90840152805192830193909352918101919091527fc89efdaa54c0f20c7adf612882df0950f5a951637e0307cdcb4c672f298b8bc660608201524660808201523060a082015260c00160408051601f19818403018152919052805160209091012060c05250620002c3565b60008060408385031215620001b057600080fd5b82516001600160a01b0381168114620001c857600080fd5b6020939093015192949293505050565b634e487b7160e01b600052604160045260246000fd5b600060208083850312156200020257600080fd5b82516001600160401b03808211156200021a57600080fd5b818501915085601f8301126200022f57600080fd5b815181811115620002445762000244620001d8565b604051601f8201601f19908116603f011681019083821181831017156200026f576200026f620001d8565b8160405282815288868487010111156200028857600080fd5b600093505b82841015620002ac57848401860151818501870152928501926200028d565b600086848301015280965050505050505092915050565b60805160a05160c051610f596200037f600039600081816101c601526108fc015260008181610140015281816102ab0152818161035f0152818161045d015281816105080152818161061a015281816106cf0152818161073e01528181610a0d0152610bb3015260008181610263015281816102d4015281816103a5015281816104860152818161055601528181610653015281816106f80152818161078e01528181610a4a01528181610b290152610bf10152610f596000f3fe608060405234801561001057600080fd5b50600436106100f55760003560e01c80633644e51511610097578063a9059cbb11610066578063a9059cbb14610223578063d505accf14610236578063dd62ed3e1461024b578063fc0c546a1461025e57600080fd5b80633644e515146101c157806370a08231146101e85780637ecebe00146101fb57806395d89b411461021b57600080fd5b806318160ddd116100d357806318160ddd1461017057806323b872dd1461017857806330adf81f1461018b578063313ce567146101b257600080fd5b806306fdde03146100fa578063095ea7b31461011857806317d70f7c1461013b575b600080fd5b61010261029d565b60405161010f9190610c87565b60405180910390f35b61012b610126366004610cd6565b610350565b604051901515815260200161010f565b6101627f000000000000000000000000000000000000000000000000000000000000000081565b60405190815260200161010f565b61016261044e565b61012b610186366004610d00565b6104f9565b6101627f6e71edae12b1b97f4d1f60370fef10105fa2faae0126114a169c64845d6126c981565b6040516012815260200161010f565b6101627f000000000000000000000000000000000000000000000000000000000000000081565b6101626101f6366004610d3c565b61060b565b610162610209366004610d3c565b60006020819052908152604090205481565b6101026106c0565b61012b610231366004610cd6565b61072f565b610249610244366004610d5e565b610829565b005b610162610259366004610dd1565b610aff565b6102857f000000000000000000000000000000000000000000000000000000000000000081565b6040516001600160a01b03909116815260200161010f565b604051622b600360e21b81527f000000000000000000000000000000000000000000000000000000000000000060048201526060907f00000000000000000000000000000000000000000000000000000000000000006001600160a01b03169062ad800c906024015b600060405180830381865afa158015610323573d6000803e3d6000fd5b505050506040513d6000823e601f3d908101601f1916820160405261034b9190810190610e1a565b905090565b6040516313b4b5ab60e21b81527f000000000000000000000000000000000000000000000000000000000000000060048201526001600160a01b038381166024830152604482018390523360648301526000917f000000000000000000000000000000000000000000000000000000000000000090911690634ed2d6ac90608401600060405180830381600087803b1580156103eb57600080fd5b505af11580156103ff573d6000803e3d6000fd5b50506040518481526001600160a01b03861692503391507f8c5be1e5ebec7d5bd14f71427d1e84f3dd0314c0f7b2291e5b200ac8c7c3b925906020015b60405180910390a35060015b92915050565b60405163bd85b03960e01b81527f000000000000000000000000000000000000000000000000000000000000000060048201526000907f00000000000000000000000000000000000000000000000000000000000000006001600160a01b03169063bd85b03990602401602060405180830381865afa1580156104d5573d6000803e3d6000fd5b505050506040513d601f19601f8201168201806040525081019061034b9190610ec7565b604051633912022f60e21b81527f000000000000000000000000000000000000000000000000000000000000000060048201526001600160a01b0384811660248301528381166044830152606482018390523360848301526000917f00000000000000000000000000000000000000000000000000000000000000009091169063e44808bc9060a401600060405180830381600087803b15801561059c57600080fd5b505af11580156105b0573d6000803e3d6000fd5b50505050826001600160a01b0316846001600160a01b03167fddf252ad1be2c89b69c2b068fc378daa952ba7f163c4a11628f55a4df523b3ef846040516105f991815260200190565b60405180910390a35060019392505050565b604051631b2b776160e11b81527f000000000000000000000000000000000000000000000000000000000000000060048201526001600160a01b0382811660248301526000917f000000000000000000000000000000000000000000000000000000000000000090911690633656eec290604401602060405180830381865afa15801561069c573d6000803e3d6000fd5b505050506040513d601f19601f820116820180604052508101906104489190610ec7565b604051634e41a1fb60e01b81527f000000000000000000000000000000000000000000000000000000000000000060048201526060907f00000000000000000000000000000000000000000000000000000000000000006001600160a01b031690634e41a1fb90602401610306565b604051633912022f60e21b81527f0000000000000000000000000000000000000000000000000000000000000000600482015233602482018190526001600160a01b0384811660448401526064830184905260848301919091526000917f00000000000000000000000000000000000000000000000000000000000000009091169063e44808bc9060a401600060405180830381600087803b1580156107d457600080fd5b505af11580156107e8573d6000803e3d6000fd5b50506040518481526001600160a01b03861692503391507fddf252ad1be2c89b69c2b068fc378daa952ba7f163c4a11628f55a4df523b3ef9060200161043c565b8342111561084a5760405163f87d927160e01b815260040160405180910390fd5b6001600160a01b0387166108715760405163f0dd15fd60e01b815260040160405180910390fd5b6001600160a01b038781166000818152602081815260408083205481517f6e71edae12b1b97f4d1f60370fef10105fa2faae0126114a169c64845d6126c98185015280830195909552948b166060850152608084018a905260a0840185905260c08085018a90528151808603909101815260e08501909152805191012061190160f01b6101008401527f0000000000000000000000000000000000000000000000000000000000000000610102840152610122830152906101420160408051601f198184030181528282528051602091820120600080855291840180845281905260ff89169284019290925260608301879052608083018690529092509060019060a0016020604051602081039080840390855afa158015610997573d6000803e3d6000fd5b505050602060405103519050896001600160a01b0316816001600160a01b0316146109d557604051638baa579f60e01b815260040160405180910390fd5b6109e0836001610ee0565b6001600160a01b03808c16600081815260208190526040908190209390935591516313b4b5ab60e21b81527f000000000000000000000000000000000000000000000000000000000000000060048201528b82166024820152604481018b905260648101929092527f00000000000000000000000000000000000000000000000000000000000000001690634ed2d6ac90608401600060405180830381600087803b158015610a8e57600080fd5b505af1158015610aa2573d6000803e3d6000fd5b50505050886001600160a01b03168a6001600160a01b03167f8c5be1e5ebec7d5bd14f71427d1e84f3dd0314c0f7b2291e5b200ac8c7c3b9258a604051610aeb91815260200190565b60405180910390a350505050505050505050565b60405163e985e9c560e01b81526001600160a01b03838116600483015282811660248301526000917f00000000000000000000000000000000000000000000000000000000000000009091169063e985e9c590604401602060405180830381865afa158015610b72573d6000803e3d6000fd5b505050506040513d601f19601f82011682018060405250810190610b969190610f01565b15610ba45750600019610448565b6040516321ff32a960e01b81527f000000000000000000000000000000000000000000000000000000000000000060048201526001600160a01b03848116602483015283811660448301527f000000000000000000000000000000000000000000000000000000000000000016906321ff32a990606401602060405180830381865afa158015610c38573d6000803e3d6000fd5b505050506040513d601f19601f82011682018060405250810190610c5c9190610ec7565b9050610448565b60005b83811015610c7e578181015183820152602001610c66565b50506000910152565b6020815260008251806020840152610ca6816040850160208701610c63565b601f01601f19169190910160400192915050565b80356001600160a01b0381168114610cd157600080fd5b919050565b60008060408385031215610ce957600080fd5b610cf283610cba565b946020939093013593505050565b600080600060608486031215610d1557600080fd5b610d1e84610cba565b9250610d2c60208501610cba565b9150604084013590509250925092565b600060208284031215610d4e57600080fd5b610d5782610cba565b9392505050565b600080600080600080600060e0888a031215610d7957600080fd5b610d8288610cba565b9650610d9060208901610cba565b95506040880135945060608801359350608088013560ff81168114610db457600080fd5b9699959850939692959460a0840135945060c09093013592915050565b60008060408385031215610de457600080fd5b610ded83610cba565b9150610dfb60208401610cba565b90509250929050565b634e487b7160e01b600052604160045260246000fd5b600060208284031215610e2c57600080fd5b815167ffffffffffffffff80821115610e4457600080fd5b818401915084601f830112610e5857600080fd5b815181811115610e6a57610e6a610e04565b604051601f8201601f19908116603f01168101908382118183101715610e9257610e92610e04565b81604052828152876020848701011115610eab57600080fd5b610ebc836020830160208801610c63565b979650505050505050565b600060208284031215610ed957600080fd5b5051919050565b8082018082111561044857634e487b7160e01b600052601160045260246000fd5b600060208284031215610f1357600080fd5b81518015158114610d5757600080fdfea264697066735822122012ee2ac1086e5771c9aacf86712396635aae5c13f1190c90e951ab193a4faf1964736f6c63430008130033a26469706673582212201e58c43e4f2eb0b573d6782218422960a22b9d7d3a07bcbb361897585f2bffc964736f6c63430008130033",
    "linkReferences": {}
  },
  "methodIdentifiers": {
    "ERC20LINK_HASH()": "d13053bb",
    "create(address,uint256)": "0ecaea73",
    "getDeployDetails()": "600eb4ba",
    "getForwarder(address,uint256)": "0710fd58"
  },
  "id": 37
}