{"abi":[{"type":"constructor","inputs":[{"name":"_name","type":"string","internalType":"string"}],"stateMutability":"nonpayable"},{"type":"function","name":"admin","inputs":[],"outputs":[{"name":"","type":"address","internalType":"address"}],"stateMutability":"view"},{"type":"function","name":"getFactoriesInRange","inputs":[{"name":"_startIndex","type":"uint256","internalType":"uint256"},{"name":"_endIndex","type":"uint256","internalType":"uint256"}],"outputs":[{"name":"factories","type":"address[]","internalType":"address[]"}],"stateMutability":"view"},{"type":"function","name":"getFactoryAtIndex","inputs":[{"name":"_index","type":"uint256","internalType":"uint256"}],"outputs":[{"name":"","type":"address","internalType":"address"}],"stateMutability":"view"},{"type":"function","name":"getFactoryInfo","inputs":[{"name":"__factories","type":"address[]","internalType":"address[]"}],"outputs":[{"name":"info","type":"tuple[]","internalType":"struct IHyperdriveRegistry.FactoryInfo[]","components":[{"name":"data","type":"uint256","internalType":"uint256"},{"name":"name","type":"string","internalType":"string"},{"name":"version","type":"string","internalType":"string"}]}],"stateMutability":"view"},{"type":"function","name":"getInstanceAtIndex","inputs":[{"name":"_index","type":"uint256","internalType":"uint256"}],"outputs":[{"name":"","type":"address","internalType":"address"}],"stateMutability":"view"},{"type":"function","name":"getInstanceInfo","inputs":[{"name":"__instances","type":"address[]","internalType":"address[]"}],"outputs":[{"name":"info","type":"tuple[]","internalType":"struct IHyperdriveRegistry.InstanceInfo[]","components":[{"name":"data","type":"uint256","internalType":"uint256"},{"name":"factory","type":"address","internalType":"address"},{"name":"name","type":"string","internalType":"string"},{"name":"version","type":"string","internalType":"string"}]}],"stateMutability":"view"},{"type":"function","name":"getInstancesInRange","inputs":[{"name":"_startIndex","type":"uint256","internalType":"uint256"},{"name":"_endIndex","type":"uint256","internalType":"uint256"}],"outputs":[{"name":"instances","type":"address[]","internalType":"address[]"}],"stateMutability":"view"},{"type":"function","name":"getNumberOfFactories","inputs":[],"outputs":[{"name":"","type":"uint256","internalType":"uint256"}],"stateMutability":"view"},{"type":"function","name":"getNumberOfInstances","inputs":[],"outputs":[{"name":"","type":"uint256","internalType":"uint256"}],"stateMutability":"view"},{"type":"function","name":"name","inputs":[],"outputs":[{"name":"","type":"string","internalType":"string"}],"stateMutability":"view"},{"type":"function","name":"setFactoryInfo","inputs":[{"name":"__factories","type":"address[]","internalType":"address[]"},{"name":"_data","type":"uint128[]","internalType":"uint128[]"}],"outputs":[],"stateMutability":"nonpayable"},{"type":"function","name":"setInstanceInfo","inputs":[{"name":"__instances","type":"address[]","internalType":"address[]"},{"name":"_data","type":"uint128[]","internalType":"uint128[]"},{"name":"__factories","type":"address[]","internalType":"address[]"}],"outputs":[],"stateMutability":"nonpayable"},{"type":"function","name":"updateAdmin","inputs":[{"name":"_admin","type":"address","internalType":"address"}],"outputs":[],"stateMutability":"nonpayable"},{"type":"function","name":"version","inputs":[],"outputs":[{"name":"","type":"string","internalType":"string"}],"stateMutability":"view"},{"type":"event","name":"AdminUpdated","inputs":[{"name":"admin","type":"address","indexed":true,"internalType":"address"}],"anonymous":false},{"type":"event","name":"FactoryInfoUpdated","inputs":[{"name":"factory","type":"address","indexed":true,"internalType":"address"},{"name":"data","type":"uint256","indexed":true,"internalType":"uint256"}],"anonymous":false},{"type":"event","name":"InstanceInfoUpdated","inputs":[{"name":"instance","type":"address","indexed":true,"internalType":"address"},{"name":"data","type":"uint256","indexed":true,"internalType":"uint256"},{"name":"factory","type":"address","indexed":true,"internalType":"address"}],"anonymous":false},{"type":"error","name":"EndIndexTooLarge","inputs":[]},{"type":"error","name":"InputLengthMismatch","inputs":[]},{"type":"error","name":"InvalidFactory","inputs":[]},{"type":"error","name":"InvalidIndexes","inputs":[]},{"type":"error","name":"Unauthorized","inputs":[]}],"bytecode":{"object":"0x60806040523480156200001157600080fd5b5060405162001f8e38038062001f8e833981016040819052620000349162000072565b600180546001600160a01b031916331790556000620000548282620001d6565b5050620002a2565b634e487b7160e01b600052604160045260246000fd5b600060208083850312156200008657600080fd5b82516001600160401b03808211156200009e57600080fd5b818501915085601f830112620000b357600080fd5b815181811115620000c857620000c86200005c565b604051601f8201601f19908116603f01168101908382118183101715620000f357620000f36200005c565b8160405282815288868487010111156200010c57600080fd5b600093505b8284101562000130578484018601518185018701529285019262000111565b600086848301015280965050505050505092915050565b600181811c908216806200015c57607f821691505b6020821081036200017d57634e487b7160e01b600052602260045260246000fd5b50919050565b601f821115620001d157600081815260208120601f850160051c81016020861015620001ac5750805b601f850160051c820191505b81811015620001cd57828155600101620001b8565b5050505b505050565b81516001600160401b03811115620001f257620001f26200005c565b6200020a8162000203845462000147565b8462000183565b602080601f831160018114620002425760008415620002295750858301515b600019600386901b1c1916600185901b178555620001cd565b600085815260208120601f198616915b82811015620002735788860151825594840194600190910190840162000252565b5085821015620002925787850151600019600388901b60f8161c191681555b5050505050600190811b01905550565b611cdc80620002b26000396000f3fe608060405234801561001057600080fd5b50600436106100ea5760003560e01c8063a587bbe11161008c578063e2f273bd11610066578063e2f273bd1461020b578063e967e3881461021e578063f59d00b914610231578063f851a4401461023957600080fd5b8063a587bbe1146101ba578063bc30e7a1146101e5578063daac24da146101f857600080fd5b806354fd4d50116100c857806354fd4d50146101425780636e95d67c14610168578063716ba5f61461017a5780638363edda1461019a57600080fd5b806306fdde03146100ef5780631ff30ad21461010d5780633dea3ce514610122575b600080fd5b6100f761024c565b6040516101049190611767565b60405180910390f35b61012061011b3660046117cd565b6102da565b005b610135610130366004611867565b6106af565b60405161010491906118a9565b6100f760405180604001604052806007815260200166076312e302e31360cc1b81525081565b6004545b604051908152602001610104565b61018d61018836600461193a565b6108e0565b604051610104919061195c565b6101ad6101a8366004611867565b6109ea565b60405161010491906119a9565b6101cd6101c8366004611a42565b610c78565b6040516001600160a01b039091168152602001610104565b61018d6101f336600461193a565b610ca8565b6101cd610206366004611a42565b610db2565b610120610219366004611a5b565b610dc7565b61012061022c366004611a84565b610e3b565b60025461016c565b6001546101cd906001600160a01b031681565b6000805461025990611af0565b80601f016020809104026020016040519081016040528092919081815260200182805461028590611af0565b80156102d25780601f106102a7576101008083540402835291602001916102d2565b820191906000526020600020905b8154815290600101906020018083116102b557829003601f168201915b505050505081565b6001546001600160a01b03163314610304576040516282b42960e81b815260040160405180910390fd5b84831415806103135750848114155b156103315760405163aaad13f760e01b815260040160405180910390fd5b60005b858110156106a65760006005600089898581811061035457610354611b2a565b90506020020160208101906103699190611a5b565b6001600160a01b031681526020810191909152604001600020546001600160801b031690508585838181106103a0576103a0611b2a565b90506020020160208101906103b59190611b40565b6001600160801b03161580156103ca57508015155b156104535760008484848181106103e3576103e3611b2a565b90506020020160208101906103f89190611a5b565b6001600160a01b03161461041f57604051637a44db9560e01b815260040160405180910390fd5b61044e88888481811061043457610434611b2a565b90506020020160208101906104499190611a5b565b6111f1565b6105d6565b85858381811061046557610465611b2a565b905060200201602081019061047a9190611b40565b6001600160801b03161580159061049057508015155b156105125761044e8888848181106104aa576104aa611b2a565b90506020020160208101906104bf9190611a5b565b8787858181106104d1576104d1611b2a565b90506020020160208101906104e69190611b40565b8686868181106104f8576104f8611b2a565b905060200201602081019061050d9190611a5b565b611347565b85858381811061052457610524611b2a565b90506020020160208101906105399190611b40565b6001600160801b03161580159061054e575080155b156105d05761044e88888481811061056857610568611b2a565b905060200201602081019061057d9190611a5b565b87878581811061058f5761058f611b2a565b90506020020160208101906105a49190611b40565b8686868181106105b6576105b6611b2a565b90506020020160208101906105cb9190611a5b565b61148e565b50610694565b8383838181106105e8576105e8611b2a565b90506020020160208101906105fd9190611a5b565b6001600160a01b031686868481811061061857610618611b2a565b905060200201602081019061062d9190611b40565b6001600160801b031689898581811061064857610648611b2a565b905060200201602081019061065d9190611a5b565b6001600160a01b03167fdcdda2b8267b8fe0ebfeb2cc8f266807b412bec096d16cbbe576d46d122553e060405160405180910390a4505b8061069e81611b7f565b915050610334565b50505050505050565b60608167ffffffffffffffff8111156106ca576106ca611b98565b60405190808252806020026020018201604052801561071f57816020015b61070c60405180606001604052806000815260200160608152602001606081525090565b8152602001906001900390816106e85790505b50905060005b828110156108d857600084848381811061074157610741611b2a565b90506020020160208101906107569190611a5b565b905060405180606001604052806003600088888781811061077957610779611b2a565b905060200201602081019061078e9190611a5b565b6001600160a01b03166001600160a01b0316815260200190815260200160002060000160009054906101000a90046001600160801b03166001600160801b03168152602001826001600160a01b03166306fdde036040518163ffffffff1660e01b8152600401600060405180830381865afa158015610811573d6000803e3d6000fd5b505050506040513d6000823e601f3d908101601f191682016040526108399190810190611bae565b8152602001826001600160a01b03166354fd4d506040518163ffffffff1660e01b8152600401600060405180830381865afa15801561087c573d6000803e3d6000fd5b505050506040513d6000823e601f3d908101601f191682016040526108a49190810190611bae565b8152508383815181106108b9576108b9611b2a565b60200260200101819052505080806108d090611b7f565b915050610725565b505b92915050565b606081831061090257604051633b2735ab60e11b815260040160405180910390fd5b6002548211156109255760405163e0f7becb60e01b815260040160405180910390fd5b61092f8383611c5b565b67ffffffffffffffff81111561094757610947611b98565b604051908082528060200260200182016040528015610970578160200160208202803683370190505b509050825b828110156108d8576002818154811061099057610990611b2a565b6000918252602090912001546001600160a01b0316826109b08684611c5b565b815181106109c0576109c0611b2a565b6001600160a01b0390921660209283029190910190910152806109e281611b7f565b915050610975565b60608167ffffffffffffffff811115610a0557610a05611b98565b604051908082528060200260200182016040528015610a6a57816020015b610a5760405180608001604052806000815260200160006001600160a01b0316815260200160608152602001606081525090565b815260200190600190039081610a235790505b50905060005b828110156108d8576000848483818110610a8c57610a8c611b2a565b9050602002016020810190610aa19190611a5b565b9050604051806080016040528060056000888887818110610ac457610ac4611b2a565b9050602002016020810190610ad99190611a5b565b6001600160a01b031681526020808201929092526040016000908120546001600160801b03168352910190600590888887818110610b1957610b19611b2a565b9050602002016020810190610b2e9190611a5b565b6001600160a01b03166001600160a01b0316815260200190815260200160002060010160009054906101000a90046001600160a01b03166001600160a01b03168152602001826001600160a01b03166306fdde036040518163ffffffff1660e01b8152600401600060405180830381865afa158015610bb1573d6000803e3d6000fd5b505050506040513d6000823e601f3d908101601f19168201604052610bd99190810190611bae565b8152602001826001600160a01b03166354fd4d506040518163ffffffff1660e01b8152600401600060405180830381865afa158015610c1c573d6000803e3d6000fd5b505050506040513d6000823e601f3d908101601f19168201604052610c449190810190611bae565b815250838381518110610c5957610c59611b2a565b6020026020010181905250508080610c7090611b7f565b915050610a70565b600060028281548110610c8d57610c8d611b2a565b6000918252602090912001546001600160a01b031692915050565b6060818310610cca57604051633b2735ab60e11b815260040160405180910390fd5b600454821115610ced5760405163e0f7becb60e01b815260040160405180910390fd5b610cf78383611c5b565b67ffffffffffffffff811115610d0f57610d0f611b98565b604051908082528060200260200182016040528015610d38578160200160208202803683370190505b509050825b828110156108d85760048181548110610d5857610d58611b2a565b6000918252602090912001546001600160a01b031682610d788684611c5b565b81518110610d8857610d88611b2a565b6001600160a01b039092166020928302919091019091015280610daa81611b7f565b915050610d3d565b600060048281548110610c8d57610c8d611b2a565b6001546001600160a01b03163314610df1576040516282b42960e81b815260040160405180910390fd5b600180546001600160a01b0319166001600160a01b0383169081179091556040517f54e4612788f90384e6843298d7854436f3a585b2c3831ab66abf1de63bfa6c2d90600090a250565b6001546001600160a01b03163314610e65576040516282b42960e81b815260040160405180910390fd5b828114610e855760405163aaad13f760e01b815260040160405180910390fd5b60005b838110156111ea57600060036000878785818110610ea857610ea8611b2a565b9050602002016020810190610ebd9190611a5b565b6001600160a01b031681526020810191909152604001600020546001600160801b03169050838383818110610ef457610ef4611b2a565b9050602002016020810190610f099190611b40565b6001600160801b0316158015610f1e57508015155b15610f5757610f52868684818110610f3857610f38611b2a565b9050602002016020810190610f4d9190611a5b565b6115d3565b61114a565b838383818110610f6957610f69611b2a565b9050602002016020810190610f7e9190611b40565b6001600160801b031615801590610f9457508015155b1561102357610f52868684818110610fae57610fae611b2a565b9050602002016020810190610fc39190611a5b565b858585818110610fd557610fd5611b2a565b9050602002016020810190610fea9190611b40565b6001600160a01b0391909116600090815260036020526040902080546001600160801b0319166001600160801b03909216919091179055565b83838381811061103557611035611b2a565b905060200201602081019061104a9190611b40565b6001600160801b03161580159061105f575080155b1561114457610f5286868481811061107957611079611b2a565b905060200201602081019061108e9190611a5b565b8585858181106110a0576110a0611b2a565b90506020020160208101906110b59190611b40565b60028054600181019091557f405787fa12a823e0f2b7631cc41b3ba8828b3321ca811111fa75cd3aa3bb5ace810180546001600160a01b039094166001600160a01b0319909416841790556040805180820182526001600160801b03938416815291831660208381019182526000958652600390529320905192518216600160801b0292909116919091179055565b506111d8565b83838381811061115c5761115c611b2a565b90506020020160208101906111719190611b40565b6001600160801b031686868481811061118c5761118c611b2a565b90506020020160208101906111a19190611a5b565b6001600160a01b03167fd840ea8cb042bc840d3e55a04618ab268434d3d0a218638360a30fdb80de63f660405160405180910390a3505b806111e281611b7f565b915050610e88565b5050505050565b6001600160a01b038116600090815260056020526040902054600454600160801b9091046001600160801b03169061122a600182611c5b565b826001600160801b0316146112e25760006004611248600184611c5b565b8154811061125857611258611b2a565b60009182526020808320909101546001600160a01b03168083526005909152604090912080546001600160801b03808716600160801b8102919092161790915560048054929350839290919081106112b2576112b2611b2a565b9060005260206000200160006101000a8154816001600160a01b0302191690836001600160a01b03160217905550505b60048054806112f3576112f3611c6e565b60008281526020808220830160001990810180546001600160a01b031990811690915593019093556001600160a01b0395909516855260059091526040842093845560019390930180549093169092555050565b6001600160a01b038084166000908152600560205260409020600101541680158015906113865750816001600160a01b0316816001600160a01b031614155b8061141e57506001600160a01b0381161580156113ab57506001600160a01b03821615155b801561141e57506040516335a2735f60e11b81526001600160a01b038581166004830152831690636b44e6be90602401602060405180830381865afa1580156113f8573d6000803e3d6000fd5b505050506040513d601f19601f8201168201806040525081019061141c9190611c84565b155b1561143c57604051637a44db9560e01b815260040160405180910390fd5b506001600160a01b03928316600090815260056020526040902080546001600160801b0319166001600160801b0393909316929092178255600190910180546001600160a01b03191691909216179055565b6001600160a01b0381161580159061150d57506040516335a2735f60e11b81526001600160a01b038481166004830152821690636b44e6be90602401602060405180830381865afa1580156114e7573d6000803e3d6000fd5b505050506040513d601f19601f8201168201806040525081019061150b9190611c84565b155b1561152b57604051637a44db9560e01b815260040160405180910390fd5b6004805460018082019092557f8a35acfbc15ff81a39ae7d344fd709f28e8600b4aa8c65c6b64bfe7fe36bd19b810180546001600160a01b039687166001600160a01b03199182168117909255604080516060810182526001600160801b0397881681529387166020858101918252968916858301908152600094855260059097529220925191518616600160801b0291909516178155915191018054919093169116179055565b6001600160a01b038116600090815260036020526040902054600254600160801b9091046001600160801b03169061160c600182611c5b565b826001600160801b0316146116c4576000600261162a600184611c5b565b8154811061163a5761163a611b2a565b60009182526020808320909101546001600160a01b03168083526003909152604090912080546001600160801b03808716600160801b81029190921617909155600280549293508392909190811061169457611694611b2a565b9060005260206000200160006101000a8154816001600160a01b0302191690836001600160a01b03160217905550505b60028054806116d5576116d5611c6e565b60008281526020808220830160001990810180546001600160a01b03191690559092019092556001600160a01b03949094168152600390935250506040812055565b60005b8381101561173257818101518382015260200161171a565b50506000910152565b60008151808452611753816020860160208601611717565b601f01601f19169290920160200192915050565b60208152600061177a602083018461173b565b9392505050565b60008083601f84011261179357600080fd5b50813567ffffffffffffffff8111156117ab57600080fd5b6020830191508360208260051b85010111156117c657600080fd5b9250929050565b600080600080600080606087890312156117e657600080fd5b863567ffffffffffffffff808211156117fe57600080fd5b61180a8a838b01611781565b9098509650602089013591508082111561182357600080fd5b61182f8a838b01611781565b9096509450604089013591508082111561184857600080fd5b5061185589828a01611781565b979a9699509497509295939492505050565b6000806020838503121561187a57600080fd5b823567ffffffffffffffff81111561189157600080fd5b61189d85828601611781565b90969095509350505050565b60006020808301818452808551808352604092508286019150828160051b87010184880160005b8381101561192c57603f19898403018552815160608151855288820151818a8701526118fe8287018261173b565b91505087820151915084810388860152611918818361173b565b9689019694505050908601906001016118d0565b509098975050505050505050565b6000806040838503121561194d57600080fd5b50508035926020909101359150565b6020808252825182820181905260009190848201906040850190845b8181101561199d5783516001600160a01b031683529284019291840191600101611978565b50909695505050505050565b60006020808301818452808551808352604092508286019150828160051b87010184880160005b8381101561192c57888303603f19018552815180518452878101516001600160a01b03168885015286810151608088860181905290611a118287018261173b565b91505060608083015192508582038187015250611a2e818361173b565b9689019694505050908601906001016119d0565b600060208284031215611a5457600080fd5b5035919050565b600060208284031215611a6d57600080fd5b81356001600160a01b038116811461177a57600080fd5b60008060008060408587031215611a9a57600080fd5b843567ffffffffffffffff80821115611ab257600080fd5b611abe88838901611781565b90965094506020870135915080821115611ad757600080fd5b50611ae487828801611781565b95989497509550505050565b600181811c90821680611b0457607f821691505b602082108103611b2457634e487b7160e01b600052602260045260246000fd5b50919050565b634e487b7160e01b600052603260045260246000fd5b600060208284031215611b5257600080fd5b81356001600160801b038116811461177a57600080fd5b634e487b7160e01b600052601160045260246000fd5b600060018201611b9157611b91611b69565b5060010190565b634e487b7160e01b600052604160045260246000fd5b600060208284031215611bc057600080fd5b815167ffffffffffffffff80821115611bd857600080fd5b818401915084601f830112611bec57600080fd5b815181811115611bfe57611bfe611b98565b604051601f8201601f19908116603f01168101908382118183101715611c2657611c26611b98565b81604052828152876020848701011115611c3f57600080fd5b611c50836020830160208801611717565b979650505050505050565b818103818111156108da576108da611b69565b634e487b7160e01b600052603160045260246000fd5b600060208284031215611c9657600080fd5b8151801515811461177a57600080fdfea264697066735822122073f4544db1a9631941e04a4dd73648176592ca6d457b0cda213b0e4bf1b01eea64736f6c63430008140033","linkReferences":{}},"methodIdentifiers":{"admin()":"f851a440","getFactoriesInRange(uint256,uint256)":"716ba5f6","getFactoryAtIndex(uint256)":"a587bbe1","getFactoryInfo(address[])":"3dea3ce5","getInstanceAtIndex(uint256)":"daac24da","getInstanceInfo(address[])":"8363edda","getInstancesInRange(uint256,uint256)":"bc30e7a1","getNumberOfFactories()":"f59d00b9","getNumberOfInstances()":"6e95d67c","name()":"06fdde03","setFactoryInfo(address[],uint128[])":"e967e388","setInstanceInfo(address[],uint128[],address[])":"1ff30ad2","updateAdmin(address)":"e2f273bd","version()":"54fd4d50"},"id":37}