{"abi":[{"type":"constructor","inputs":[{"name":"_name","type":"string","internalType":"string"}],"stateMutability":"nonpayable"},{"type":"function","name":"admin","inputs":[],"outputs":[{"name":"","type":"address","internalType":"address"}],"stateMutability":"view"},{"type":"function","name":"getFactoriesInRange","inputs":[{"name":"_startIndex","type":"uint256","internalType":"uint256"},{"name":"_endIndex","type":"uint256","internalType":"uint256"}],"outputs":[{"name":"factories","type":"address[]","internalType":"address[]"}],"stateMutability":"view"},{"type":"function","name":"getFactoryAtIndex","inputs":[{"name":"_index","type":"uint256","internalType":"uint256"}],"outputs":[{"name":"","type":"address","internalType":"address"}],"stateMutability":"view"},{"type":"function","name":"getFactoryInfo","inputs":[{"name":"_factory","type":"address","internalType":"address"}],"outputs":[{"name":"info","type":"tuple","internalType":"struct IHyperdriveRegistry.FactoryInfo","components":[{"name":"data","type":"uint256","internalType":"uint256"}]}],"stateMutability":"view"},{"type":"function","name":"getFactoryInfoWithMetadata","inputs":[{"name":"_factory","type":"address","internalType":"address"}],"outputs":[{"name":"info","type":"tuple","internalType":"struct IHyperdriveRegistry.FactoryInfoWithMetadata","components":[{"name":"data","type":"uint256","internalType":"uint256"},{"name":"name","type":"string","internalType":"string"},{"name":"kind","type":"string","internalType":"string"},{"name":"version","type":"string","internalType":"string"}]}],"stateMutability":"view"},{"type":"function","name":"getFactoryInfos","inputs":[{"name":"__factories","type":"address[]","internalType":"address[]"}],"outputs":[{"name":"info","type":"tuple[]","internalType":"struct IHyperdriveRegistry.FactoryInfo[]","components":[{"name":"data","type":"uint256","internalType":"uint256"}]}],"stateMutability":"view"},{"type":"function","name":"getFactoryInfosWithMetadata","inputs":[{"name":"__factories","type":"address[]","internalType":"address[]"}],"outputs":[{"name":"info","type":"tuple[]","internalType":"struct IHyperdriveRegistry.FactoryInfoWithMetadata[]","components":[{"name":"data","type":"uint256","internalType":"uint256"},{"name":"name","type":"string","internalType":"string"},{"name":"kind","type":"string","internalType":"string"},{"name":"version","type":"string","internalType":"string"}]}],"stateMutability":"view"},{"type":"function","name":"getInstanceAtIndex","inputs":[{"name":"_index","type":"uint256","internalType":"uint256"}],"outputs":[{"name":"","type":"address","internalType":"address"}],"stateMutability":"view"},{"type":"function","name":"getInstanceInfo","inputs":[{"name":"_instance","type":"address","internalType":"address"}],"outputs":[{"name":"info","type":"tuple","internalType":"struct IHyperdriveRegistry.InstanceInfo","components":[{"name":"data","type":"uint256","internalType":"uint256"},{"name":"factory","type":"address","internalType":"address"}]}],"stateMutability":"view"},{"type":"function","name":"getInstanceInfoWithMetadata","inputs":[{"name":"_instance","type":"address","internalType":"address"}],"outputs":[{"name":"info","type":"tuple","internalType":"struct IHyperdriveRegistry.InstanceInfoWithMetadata","components":[{"name":"data","type":"uint256","internalType":"uint256"},{"name":"factory","type":"address","internalType":"address"},{"name":"name","type":"string","internalType":"string"},{"name":"kind","type":"string","internalType":"string"},{"name":"version","type":"string","internalType":"string"}]}],"stateMutability":"view"},{"type":"function","name":"getInstanceInfos","inputs":[{"name":"__instances","type":"address[]","internalType":"address[]"}],"outputs":[{"name":"info","type":"tuple[]","internalType":"struct IHyperdriveRegistry.InstanceInfo[]","components":[{"name":"data","type":"uint256","internalType":"uint256"},{"name":"factory","type":"address","internalType":"address"}]}],"stateMutability":"view"},{"type":"function","name":"getInstanceInfosWithMetadata","inputs":[{"name":"__instances","type":"address[]","internalType":"address[]"}],"outputs":[{"name":"info","type":"tuple[]","internalType":"struct IHyperdriveRegistry.InstanceInfoWithMetadata[]","components":[{"name":"data","type":"uint256","internalType":"uint256"},{"name":"factory","type":"address","internalType":"address"},{"name":"name","type":"string","internalType":"string"},{"name":"kind","type":"string","internalType":"string"},{"name":"version","type":"string","internalType":"string"}]}],"stateMutability":"view"},{"type":"function","name":"getInstancesInRange","inputs":[{"name":"_startIndex","type":"uint256","internalType":"uint256"},{"name":"_endIndex","type":"uint256","internalType":"uint256"}],"outputs":[{"name":"instances","type":"address[]","internalType":"address[]"}],"stateMutability":"view"},{"type":"function","name":"getNumberOfFactories","inputs":[],"outputs":[{"name":"","type":"uint256","internalType":"uint256"}],"stateMutability":"view"},{"type":"function","name":"getNumberOfInstances","inputs":[],"outputs":[{"name":"","type":"uint256","internalType":"uint256"}],"stateMutability":"view"},{"type":"function","name":"kind","inputs":[],"outputs":[{"name":"","type":"string","internalType":"string"}],"stateMutability":"view"},{"type":"function","name":"name","inputs":[],"outputs":[{"name":"","type":"string","internalType":"string"}],"stateMutability":"view"},{"type":"function","name":"setFactoryInfo","inputs":[{"name":"__factories","type":"address[]","internalType":"address[]"},{"name":"_data","type":"uint128[]","internalType":"uint128[]"}],"outputs":[],"stateMutability":"nonpayable"},{"type":"function","name":"setInstanceInfo","inputs":[{"name":"__instances","type":"address[]","internalType":"address[]"},{"name":"_data","type":"uint128[]","internalType":"uint128[]"},{"name":"__factories","type":"address[]","internalType":"address[]"}],"outputs":[],"stateMutability":"nonpayable"},{"type":"function","name":"updateAdmin","inputs":[{"name":"_admin","type":"address","internalType":"address"}],"outputs":[],"stateMutability":"nonpayable"},{"type":"function","name":"version","inputs":[],"outputs":[{"name":"","type":"string","internalType":"string"}],"stateMutability":"view"},{"type":"event","name":"AdminUpdated","inputs":[{"name":"admin","type":"address","indexed":true,"internalType":"address"}],"anonymous":false},{"type":"event","name":"FactoryInfoUpdated","inputs":[{"name":"factory","type":"address","indexed":true,"internalType":"address"},{"name":"data","type":"uint256","indexed":true,"internalType":"uint256"}],"anonymous":false},{"type":"event","name":"InstanceInfoUpdated","inputs":[{"name":"instance","type":"address","indexed":true,"internalType":"address"},{"name":"data","type":"uint256","indexed":true,"internalType":"uint256"},{"name":"factory","type":"address","indexed":true,"internalType":"address"}],"anonymous":false},{"type":"error","name":"EndIndexTooLarge","inputs":[]},{"type":"error","name":"InputLengthMismatch","inputs":[]},{"type":"error","name":"InvalidFactory","inputs":[]},{"type":"error","name":"InvalidIndexes","inputs":[]},{"type":"error","name":"Unauthorized","inputs":[]}],"bytecode":{"object":"0x60806040523480156200001157600080fd5b50604051620027d2380380620027d2833981016040819052620000349162000072565b600180546001600160a01b031916331790556000620000548282620001d6565b5050620002a2565b634e487b7160e01b600052604160045260246000fd5b600060208083850312156200008657600080fd5b82516001600160401b03808211156200009e57600080fd5b818501915085601f830112620000b357600080fd5b815181811115620000c857620000c86200005c565b604051601f8201601f19908116603f01168101908382118183101715620000f357620000f36200005c565b8160405282815288868487010111156200010c57600080fd5b600093505b8284101562000130578484018601518185018701529285019262000111565b600086848301015280965050505050505092915050565b600181811c908216806200015c57607f821691505b6020821081036200017d57634e487b7160e01b600052602260045260246000fd5b50919050565b601f821115620001d157600081815260208120601f850160051c81016020861015620001ac5750805b601f850160051c820191505b81811015620001cd57828155600101620001b8565b5050505b505050565b81516001600160401b03811115620001f257620001f26200005c565b6200020a8162000203845462000147565b8462000183565b602080601f831160018114620002425760008415620002295750858301515b600019600386901b1c1916600185901b178555620001cd565b600085815260208120601f198616915b82811015620002735788860151825594840194600190910190840162000252565b5085821015620002925787850151600019600388901b60f8161c191681555b5050505050600190811b01905550565b61252080620002b26000396000f3fe608060405234801561001057600080fd5b50600436106101375760003560e01c8063a587bbe1116100b8578063e2f273bd1161007c578063e2f273bd14610394578063e967e388146103a7578063ea350321146103ba578063f32c9e34146103da578063f59d00b9146103fa578063f851a4401461040257600080fd5b8063a587bbe114610303578063b73e3fab1461032e578063bc30e7a11461034e578063d2f72d5214610361578063daac24da1461038157600080fd5b80634db6c0e0116100ff5780634db6c0e01461023457806354fd4d50146102545780636e95d67c1461027a578063716ba5f61461028c5780639b724ad4146102ac57600080fd5b806304baa00b1461013c57806306fdde031461018357806318bb3b541461018b5780631ff30ad2146101ff5780632ad19de814610214575b600080fd5b61016d6040518060400160405280601281526020017148797065726472697665526567697374727960701b81525081565b60405161017a9190611e80565b60405180910390f35b61016d610415565b6101f2610199366004611e9a565b6040805180820190915260008082526020820152506040805180820182526001600160a01b0392831660008181526005602081815294822080546001600160801b03168552929091528352600101549092169082015290565b60405161017a9190611ec3565b61021261020d366004611f2f565b6104a3565b005b610227610222366004611e9a565b610878565b60405161017a9190612036565b610247610242366004612049565b610a07565b60405161017a919061208b565b61016d604051806040016040528060078152602001663b18971817189b60c91b81525081565b6004545b60405190815260200161017a565b61029f61029a3660046120eb565b610b5c565b60405161017a919061210d565b6102f46102ba366004611e9a565b6040805160208082018352600091829052825180820184526001600160a01b039490941682526003905220546001600160801b0316815290565b6040519051815260200161017a565b61031661031136600461215a565b610c66565b6040516001600160a01b03909116815260200161017a565b61034161033c366004612049565b610c96565b60405161017a91906121c5565b61029f61035c3660046120eb565b610f31565b61037461036f366004612049565b61103b565b60405161017a9190612227565b61031661038f36600461215a565b611308565b6102126103a2366004611e9a565b61131d565b6102126103b536600461227c565b611391565b6103cd6103c8366004612049565b611747565b60405161017a91906122e8565b6103ed6103e8366004611e9a565b61183d565b60405161017a9190612321565b60025461027e565b600154610316906001600160a01b031681565b6000805461042290612334565b80601f016020809104026020016040519081016040528092919081815260200182805461044e90612334565b801561049b5780601f106104705761010080835404028352916020019161049b565b820191906000526020600020905b81548152906001019060200180831161047e57829003601f168201915b505050505081565b6001546001600160a01b031633146104cd576040516282b42960e81b815260040160405180910390fd5b84831415806104dc5750848114155b156104fa5760405163aaad13f760e01b815260040160405180910390fd5b60005b8581101561086f5760006005600089898581811061051d5761051d61236e565b90506020020160208101906105329190611e9a565b6001600160a01b031681526020810191909152604001600020546001600160801b031690508585838181106105695761056961236e565b905060200201602081019061057e9190612384565b6001600160801b031615801561059357508015155b1561061c5760008484848181106105ac576105ac61236e565b90506020020160208101906105c19190611e9a565b6001600160a01b0316146105e857604051637a44db9560e01b815260040160405180910390fd5b6106178888848181106105fd576105fd61236e565b90506020020160208101906106129190611e9a565b6118d2565b61079f565b85858381811061062e5761062e61236e565b90506020020160208101906106439190612384565b6001600160801b03161580159061065957508015155b156106db576106178888848181106106735761067361236e565b90506020020160208101906106889190611e9a565b87878581811061069a5761069a61236e565b90506020020160208101906106af9190612384565b8686868181106106c1576106c161236e565b90506020020160208101906106d69190611e9a565b611a28565b8585838181106106ed576106ed61236e565b90506020020160208101906107029190612384565b6001600160801b031615801590610717575080155b15610799576106178888848181106107315761073161236e565b90506020020160208101906107469190611e9a565b8787858181106107585761075861236e565b905060200201602081019061076d9190612384565b86868681811061077f5761077f61236e565b90506020020160208101906107949190611e9a565b611b6f565b5061085d565b8383838181106107b1576107b161236e565b90506020020160208101906107c69190611e9a565b6001600160a01b03168686848181106107e1576107e161236e565b90506020020160208101906107f69190612384565b6001600160801b03168989858181106108115761081161236e565b90506020020160208101906108269190611e9a565b6001600160a01b03167fdcdda2b8267b8fe0ebfeb2cc8f266807b412bec096d16cbbe576d46d122553e060405160405180910390a4505b80610867816123c3565b9150506104fd565b50505050505050565b610880611df8565b6040805160a0810182526001600160a01b0380851660008181526005602081815286832080546001600160801b031687528484529181526001909101549093169284019290925283516306fdde0360e01b8152845187958501936306fdde0392600480820193918290030181865afa158015610900573d6000803e3d6000fd5b505050506040513d6000823e601f3d908101601f1916820160405261092891908101906123f2565b8152602001826001600160a01b03166304baa00b6040518163ffffffff1660e01b8152600401600060405180830381865afa15801561096b573d6000803e3d6000fd5b505050506040513d6000823e601f3d908101601f1916820160405261099391908101906123f2565b8152602001826001600160a01b03166354fd4d506040518163ffffffff1660e01b8152600401600060405180830381865afa1580156109d6573d6000803e3d6000fd5b505050506040513d6000823e601f3d908101601f191682016040526109fe91908101906123f2565b90529392505050565b60608167ffffffffffffffff811115610a2257610a226123dc565b604051908082528060200260200182016040528015610a6757816020015b6040805180820190915260008082526020820152815260200190600190039081610a405790505b50905060005b82811015610b5457604051806040016040528060056000878786818110610a9657610a9661236e565b9050602002016020810190610aab9190611e9a565b6001600160a01b031681526020808201929092526040016000908120546001600160801b03168352910190600590878786818110610aeb57610aeb61236e565b9050602002016020810190610b009190611e9a565b6001600160a01b0390811682526020820192909252604001600020600101541690528251839083908110610b3657610b3661236e565b60200260200101819052508080610b4c906123c3565b915050610a6d565b505b92915050565b6060818310610b7e57604051633b2735ab60e11b815260040160405180910390fd5b600254821115610ba15760405163e0f7becb60e01b815260040160405180910390fd5b610bab838361249f565b67ffffffffffffffff811115610bc357610bc36123dc565b604051908082528060200260200182016040528015610bec578160200160208202803683370190505b509050825b82811015610b545760028181548110610c0c57610c0c61236e565b6000918252602090912001546001600160a01b031682610c2c868461249f565b81518110610c3c57610c3c61236e565b6001600160a01b039092166020928302919091019091015280610c5e816123c3565b915050610bf1565b600060028281548110610c7b57610c7b61236e565b6000918252602090912001546001600160a01b031692915050565b60608167ffffffffffffffff811115610cb157610cb16123dc565b604051908082528060200260200182016040528015610d0d57816020015b610cfa6040518060800160405280600081526020016060815260200160608152602001606081525090565b815260200190600190039081610ccf5790505b50905060005b82811015610b54576000848483818110610d2f57610d2f61236e565b9050602002016020810190610d449190611e9a565b9050604051806080016040528060036000888887818110610d6757610d6761236e565b9050602002016020810190610d7c9190611e9a565b6001600160a01b03166001600160a01b0316815260200190815260200160002060000160009054906101000a90046001600160801b03166001600160801b03168152602001826001600160a01b03166306fdde036040518163ffffffff1660e01b8152600401600060405180830381865afa158015610dff573d6000803e3d6000fd5b505050506040513d6000823e601f3d908101601f19168201604052610e2791908101906123f2565b8152602001826001600160a01b03166304baa00b6040518163ffffffff1660e01b8152600401600060405180830381865afa158015610e6a573d6000803e3d6000fd5b505050506040513d6000823e601f3d908101601f19168201604052610e9291908101906123f2565b8152602001826001600160a01b03166354fd4d506040518163ffffffff1660e01b8152600401600060405180830381865afa158015610ed5573d6000803e3d6000fd5b505050506040513d6000823e601f3d908101601f19168201604052610efd91908101906123f2565b815250838381518110610f1257610f1261236e565b6020026020010181905250508080610f29906123c3565b915050610d13565b6060818310610f5357604051633b2735ab60e11b815260040160405180910390fd5b600454821115610f765760405163e0f7becb60e01b815260040160405180910390fd5b610f80838361249f565b67ffffffffffffffff811115610f9857610f986123dc565b604051908082528060200260200182016040528015610fc1578160200160208202803683370190505b509050825b82811015610b545760048181548110610fe157610fe161236e565b6000918252602090912001546001600160a01b031682611001868461249f565b815181106110115761101161236e565b6001600160a01b039092166020928302919091019091015280611033816123c3565b915050610fc6565b60608167ffffffffffffffff811115611056576110566123dc565b60405190808252806020026020018201604052801561108f57816020015b61107c611df8565b8152602001906001900390816110745790505b50905060005b82811015610b545760008484838181106110b1576110b161236e565b90506020020160208101906110c69190611e9a565b90506040518060a00160405280600560008888878181106110e9576110e961236e565b90506020020160208101906110fe9190611e9a565b6001600160a01b031681526020808201929092526040016000908120546001600160801b0316835291019060059088888781811061113e5761113e61236e565b90506020020160208101906111539190611e9a565b6001600160a01b03166001600160a01b0316815260200190815260200160002060010160009054906101000a90046001600160a01b03166001600160a01b03168152602001826001600160a01b03166306fdde036040518163ffffffff1660e01b8152600401600060405180830381865afa1580156111d6573d6000803e3d6000fd5b505050506040513d6000823e601f3d908101601f191682016040526111fe91908101906123f2565b8152602001826001600160a01b03166304baa00b6040518163ffffffff1660e01b8152600401600060405180830381865afa158015611241573d6000803e3d6000fd5b505050506040513d6000823e601f3d908101601f1916820160405261126991908101906123f2565b8152602001826001600160a01b03166354fd4d506040518163ffffffff1660e01b8152600401600060405180830381865afa1580156112ac573d6000803e3d6000fd5b505050506040513d6000823e601f3d908101601f191682016040526112d491908101906123f2565b8152508383815181106112e9576112e961236e565b6020026020010181905250508080611300906123c3565b915050611095565b600060048281548110610c7b57610c7b61236e565b6001546001600160a01b03163314611347576040516282b42960e81b815260040160405180910390fd5b600180546001600160a01b0319166001600160a01b0383169081179091556040517f54e4612788f90384e6843298d7854436f3a585b2c3831ab66abf1de63bfa6c2d90600090a250565b6001546001600160a01b031633146113bb576040516282b42960e81b815260040160405180910390fd5b8281146113db5760405163aaad13f760e01b815260040160405180910390fd5b60005b83811015611740576000600360008787858181106113fe576113fe61236e565b90506020020160208101906114139190611e9a565b6001600160a01b031681526020810191909152604001600020546001600160801b0316905083838381811061144a5761144a61236e565b905060200201602081019061145f9190612384565b6001600160801b031615801561147457508015155b156114ad576114a886868481811061148e5761148e61236e565b90506020020160208101906114a39190611e9a565b611cb4565b6116a0565b8383838181106114bf576114bf61236e565b90506020020160208101906114d49190612384565b6001600160801b0316158015906114ea57508015155b15611579576114a88686848181106115045761150461236e565b90506020020160208101906115199190611e9a565b85858581811061152b5761152b61236e565b90506020020160208101906115409190612384565b6001600160a01b0391909116600090815260036020526040902080546001600160801b0319166001600160801b03909216919091179055565b83838381811061158b5761158b61236e565b90506020020160208101906115a09190612384565b6001600160801b0316158015906115b5575080155b1561169a576114a88686848181106115cf576115cf61236e565b90506020020160208101906115e49190611e9a565b8585858181106115f6576115f661236e565b905060200201602081019061160b9190612384565b60028054600181019091557f405787fa12a823e0f2b7631cc41b3ba8828b3321ca811111fa75cd3aa3bb5ace810180546001600160a01b039094166001600160a01b0319909416841790556040805180820182526001600160801b03938416815291831660208381019182526000958652600390529320905192518216600160801b0292909116919091179055565b5061172e565b8383838181106116b2576116b261236e565b90506020020160208101906116c79190612384565b6001600160801b03168686848181106116e2576116e261236e565b90506020020160208101906116f79190611e9a565b6001600160a01b03167fd840ea8cb042bc840d3e55a04618ab268434d3d0a218638360a30fdb80de63f660405160405180910390a3505b80611738816123c3565b9150506113de565b5050505050565b60608167ffffffffffffffff811115611762576117626123dc565b6040519080825280602002602001820160405280156117a257816020015b6040805160208101909152600081528152602001906001900390816117805790505b50905060005b82811015610b54576040518060200160405280600360008787868181106117d1576117d161236e565b90506020020160208101906117e69190611e9a565b6001600160a01b031681526020810191909152604001600020546001600160801b03169052825183908390811061181f5761181f61236e565b60200260200101819052508080611835906123c3565b9150506117a8565b6118686040518060800160405280600081526020016060815260200160608152602001606081525090565b604080516080810182526001600160a01b038416600081815260036020908152848220546001600160801b0316845284516306fdde0360e01b81529451879591850193926306fdde0392600480820193918290030181865afa158015610900573d6000803e3d6000fd5b6001600160a01b038116600090815260056020526040902054600454600160801b9091046001600160801b03169061190b60018261249f565b826001600160801b0316146119c3576000600461192960018461249f565b815481106119395761193961236e565b60009182526020808320909101546001600160a01b03168083526005909152604090912080546001600160801b03808716600160801b8102919092161790915560048054929350839290919081106119935761199361236e565b9060005260206000200160006101000a8154816001600160a01b0302191690836001600160a01b03160217905550505b60048054806119d4576119d46124b2565b60008281526020808220830160001990810180546001600160a01b031990811690915593019093556001600160a01b0395909516855260059091526040842093845560019390930180549093169092555050565b6001600160a01b03808416600090815260056020526040902060010154168015801590611a675750816001600160a01b0316816001600160a01b031614155b80611aff57506001600160a01b038116158015611a8c57506001600160a01b03821615155b8015611aff57506040516335a2735f60e11b81526001600160a01b038581166004830152831690636b44e6be90602401602060405180830381865afa158015611ad9573d6000803e3d6000fd5b505050506040513d601f19601f82011682018060405250810190611afd91906124c8565b155b15611b1d57604051637a44db9560e01b815260040160405180910390fd5b506001600160a01b03928316600090815260056020526040902080546001600160801b0319166001600160801b0393909316929092178255600190910180546001600160a01b03191691909216179055565b6001600160a01b03811615801590611bee57506040516335a2735f60e11b81526001600160a01b038481166004830152821690636b44e6be90602401602060405180830381865afa158015611bc8573d6000803e3d6000fd5b505050506040513d601f19601f82011682018060405250810190611bec91906124c8565b155b15611c0c57604051637a44db9560e01b815260040160405180910390fd5b6004805460018082019092557f8a35acfbc15ff81a39ae7d344fd709f28e8600b4aa8c65c6b64bfe7fe36bd19b810180546001600160a01b039687166001600160a01b03199182168117909255604080516060810182526001600160801b0397881681529387166020858101918252968916858301908152600094855260059097529220925191518616600160801b0291909516178155915191018054919093169116179055565b6001600160a01b038116600090815260036020526040902054600254600160801b9091046001600160801b031690611ced60018261249f565b826001600160801b031614611da55760006002611d0b60018461249f565b81548110611d1b57611d1b61236e565b60009182526020808320909101546001600160a01b03168083526003909152604090912080546001600160801b03808716600160801b810291909216179091556002805492935083929091908110611d7557611d7561236e565b9060005260206000200160006101000a8154816001600160a01b0302191690836001600160a01b03160217905550505b6002805480611db657611db66124b2565b60008281526020808220830160001990810180546001600160a01b03191690559092019092556001600160a01b03949094168152600390935250506040812055565b6040518060a001604052806000815260200160006001600160a01b031681526020016060815260200160608152602001606081525090565b60005b83811015611e4b578181015183820152602001611e33565b50506000910152565b60008151808452611e6c816020860160208601611e30565b601f01601f19169290920160200192915050565b602081526000611e936020830184611e54565b9392505050565b600060208284031215611eac57600080fd5b81356001600160a01b0381168114611e9357600080fd5b815181526020808301516001600160a01b03169082015260408101610b56565b60008083601f840112611ef557600080fd5b50813567ffffffffffffffff811115611f0d57600080fd5b6020830191508360208260051b8501011115611f2857600080fd5b9250929050565b60008060008060008060608789031215611f4857600080fd5b863567ffffffffffffffff80821115611f6057600080fd5b611f6c8a838b01611ee3565b90985096506020890135915080821115611f8557600080fd5b611f918a838b01611ee3565b90965094506040890135915080821115611faa57600080fd5b50611fb789828a01611ee3565b979a9699509497509295939492505050565b8051825260018060a01b0360208201511660208301526000604082015160a06040850152611ffa60a0850182611e54565b9050606083015184820360608601526120138282611e54565b9150506080830151848203608086015261202d8282611e54565b95945050505050565b602081526000611e936020830184611fc9565b6000806020838503121561205c57600080fd5b823567ffffffffffffffff81111561207357600080fd5b61207f85828601611ee3565b90969095509350505050565b602080825282518282018190526000919060409081850190868401855b828110156120de576120ce848351805182526020908101516001600160a01b0316910152565b92840192908501906001016120a8565b5091979650505050505050565b600080604083850312156120fe57600080fd5b50508035926020909101359150565b6020808252825182820181905260009190848201906040850190845b8181101561214e5783516001600160a01b031683529284019291840191600101612129565b50909695505050505050565b60006020828403121561216c57600080fd5b5035919050565b8051825260006020820151608060208501526121926080850182611e54565b9050604083015184820360408601526121ab8282611e54565b9150506060830151848203606086015261202d8282611e54565b6000602080830181845280855180835260408601915060408160051b870101925083870160005b8281101561221a57603f19888603018452612208858351612173565b945092850192908501906001016121ec565b5092979650505050505050565b6000602080830181845280855180835260408601915060408160051b870101925083870160005b8281101561221a57603f1988860301845261226a858351611fc9565b9450928501929085019060010161224e565b6000806000806040858703121561229257600080fd5b843567ffffffffffffffff808211156122aa57600080fd5b6122b688838901611ee3565b909650945060208701359150808211156122cf57600080fd5b506122dc87828801611ee3565b95989497509550505050565b6020808252825182820181905260009190848201906040850190845b8181101561214e5783515183529284019291840191600101612304565b602081526000611e936020830184612173565b600181811c9082168061234857607f821691505b60208210810361236857634e487b7160e01b600052602260045260246000fd5b50919050565b634e487b7160e01b600052603260045260246000fd5b60006020828403121561239657600080fd5b81356001600160801b0381168114611e9357600080fd5b634e487b7160e01b600052601160045260246000fd5b6000600182016123d5576123d56123ad565b5060010190565b634e487b7160e01b600052604160045260246000fd5b60006020828403121561240457600080fd5b815167ffffffffffffffff8082111561241c57600080fd5b818401915084601f83011261243057600080fd5b815181811115612442576124426123dc565b604051601f8201601f19908116603f0116810190838211818310171561246a5761246a6123dc565b8160405282815287602084870101111561248357600080fd5b612494836020830160208801611e30565b979650505050505050565b81810381811115610b5657610b566123ad565b634e487b7160e01b600052603160045260246000fd5b6000602082840312156124da57600080fd5b81518015158114611e9357600080fdfea264697066735822122037b744603de1e8ebbcccb180a8962d1ada1ad4bc2a74d72ec9d5e9ae42b1bc0864736f6c63430008140033","linkReferences":{}},"methodIdentifiers":{"admin()":"f851a440","getFactoriesInRange(uint256,uint256)":"716ba5f6","getFactoryAtIndex(uint256)":"a587bbe1","getFactoryInfo(address)":"9b724ad4","getFactoryInfoWithMetadata(address)":"f32c9e34","getFactoryInfos(address[])":"ea350321","getFactoryInfosWithMetadata(address[])":"b73e3fab","getInstanceAtIndex(uint256)":"daac24da","getInstanceInfo(address)":"18bb3b54","getInstanceInfoWithMetadata(address)":"2ad19de8","getInstanceInfos(address[])":"4db6c0e0","getInstanceInfosWithMetadata(address[])":"d2f72d52","getInstancesInRange(uint256,uint256)":"bc30e7a1","getNumberOfFactories()":"f59d00b9","getNumberOfInstances()":"6e95d67c","kind()":"04baa00b","name()":"06fdde03","setFactoryInfo(address[],uint128[])":"e967e388","setInstanceInfo(address[],uint128[],address[])":"1ff30ad2","updateAdmin(address)":"e2f273bd","version()":"54fd4d50"},"id":57}