{"abi":[{"type":"function","name":"deployTarget","inputs":[{"name":"_config","type":"tuple","internalType":"struct IHyperdrive.PoolConfig","components":[{"name":"baseToken","type":"address","internalType":"contract IERC20"},{"name":"vaultSharesToken","type":"address","internalType":"contract IERC20"},{"name":"linkerFactory","type":"address","internalType":"address"},{"name":"linkerCodeHash","type":"bytes32","internalType":"bytes32"},{"name":"initialVaultSharePrice","type":"uint256","internalType":"uint256"},{"name":"minimumShareReserves","type":"uint256","internalType":"uint256"},{"name":"minimumTransactionAmount","type":"uint256","internalType":"uint256"},{"name":"circuitBreakerDelta","type":"uint256","internalType":"uint256"},{"name":"positionDuration","type":"uint256","internalType":"uint256"},{"name":"checkpointDuration","type":"uint256","internalType":"uint256"},{"name":"timeStretch","type":"uint256","internalType":"uint256"},{"name":"governance","type":"address","internalType":"address"},{"name":"feeCollector","type":"address","internalType":"address"},{"name":"sweepCollector","type":"address","internalType":"address"},{"name":"checkpointRewarder","type":"address","internalType":"address"},{"name":"fees","type":"tuple","internalType":"struct IHyperdrive.Fees","components":[{"name":"curve","type":"uint256","internalType":"uint256"},{"name":"flat","type":"uint256","internalType":"uint256"},{"name":"governanceLP","type":"uint256","internalType":"uint256"},{"name":"governanceZombie","type":"uint256","internalType":"uint256"}]}]},{"name":"","type":"bytes","internalType":"bytes"},{"name":"_salt","type":"bytes32","internalType":"bytes32"}],"outputs":[{"name":"","type":"address","internalType":"address"}],"stateMutability":"nonpayable"}],"bytecode":{"object":"0x608060405234801561001057600080fd5b50613e36806100206000396000f3fe608060405234801561001057600080fd5b506004361061002b5760003560e01c80636b32370714610030575b600080fd5b61004361003e366004610227565b61005f565b6040516001600160a01b03909116815260200160405180910390f35b604080513360208201529081018290526000906060016040516020818303038152906040528051906020012084604051610098906100cb565b6100a2919061036f565b8190604051809103906000f59050801580156100c2573d6000803e3d6000fd5b50949350505050565b61396c8061049583390190565b634e487b7160e01b600052604160045260246000fd5b604051610200810167ffffffffffffffff81118282101715610112576101126100d8565b60405290565b80356001600160a01b038116811461012f57600080fd5b919050565b60006080828403121561014657600080fd5b6040516080810181811067ffffffffffffffff82111715610169576101696100d8565b8060405250809150823581526020830135602082015260408301356040820152606083013560608201525092915050565b600082601f8301126101ab57600080fd5b813567ffffffffffffffff808211156101c6576101c66100d8565b604051601f8301601f19908116603f011681019082821181831017156101ee576101ee6100d8565b8160405283815286602085880101111561020757600080fd5b836020870160208301376000602085830101528094505050505092915050565b60008060008385036102a081121561023e57600080fd5b6102608082121561024e57600080fd5b6102566100ee565b915061026186610118565b825261026f60208701610118565b602083015261028060408701610118565b6040830152606086013560608301526080860135608083015260a086013560a083015260c086013560c083015260e086013560e08301526101008087013581840152506101208087013581840152506101408087013581840152506101606102e9818801610118565b908301526101806102fb878201610118565b908301526101a061030d878201610118565b908301526101c061031f878201610118565b908301526101e061033288888301610134565b9083015290935084013567ffffffffffffffff81111561035157600080fd5b61035d8682870161019a565b92505061028084013590509250925092565b81516001600160a01b031681526102608101602083015161039b60208401826001600160a01b03169052565b5060408301516103b660408401826001600160a01b03169052565b50606083015160608301526080830151608083015260a083015160a083015260c083015160c083015260e083015160e083015261010080840151818401525061012080840151818401525061014080840151818401525061016080840151610428828501826001600160a01b03169052565b5050610180838101516001600160a01b03908116918401919091526101a0808501518216908401526101c080850151909116908301526101e09283015180519383019390935260208301516102008301526040830151610220830152606090920151610240909101529056fe6102606040523480156200001257600080fd5b506040516200396c3803806200396c833981016040819052620000359162000202565b600160005580516001600160a01b039081166080908152602080840151831660a0908152918401516101a0908152918401516101c090815260c0808601516101e090815260e0808801516102005261012080890151909352610100808901519091526101408089015190915290870180515190925281519093015190925281516040908101516101609081529251606090810151610180908152918701518616610220528601516102405291850151600980546001600160a01b031990811692871692909217905591850151600a8054841691861691909117905591840151600b80548316918516919091179055920151600c8054909316911617905562000315565b60405161020081016001600160401b03811182821017156200016a57634e487b7160e01b600052604160045260246000fd5b60405290565b80516001600160a01b03811681146200018857600080fd5b919050565b600060808284031215620001a057600080fd5b604051608081016001600160401b0381118282101715620001d157634e487b7160e01b600052604160045260246000fd5b8060405250809150825181526020830151602082015260408301516040820152606083015160608201525092915050565b600061026082840312156200021657600080fd5b6200022062000138565b6200022b8362000170565b81526200023b6020840162000170565b60208201526200024e6040840162000170565b6040820152606083015160608201526080830151608082015260a083015160a082015260c083015160c082015260e083015160e0820152610100808401518183015250610120808401518183015250610140808401518183015250610160620002b981850162000170565b90820152610180620002cd84820162000170565b908201526101a0620002e184820162000170565b908201526101c0620002f584820162000170565b908201526101e06200030a858583016200018d565b908201529392505050565b60805160a05160c05160e05161010051610120516101405161016051610180516101a0516101c0516101e05161020051610220516102405161353b6200043160003960008181610cd10152611ceb015260008181610caa0152611cae01526000610d71015260008181610d4b0152611ea3015260008181610d250152611e7d015260008181610cfb0152611e5701526000610ead01526000610e8801526000610e6301526000610e40015260008181610de50152611ec9015260008181610d970152818161102e0152612573015260008181610dbe015261278801526000818161060f01528181610c7e01528181612306015281816124b40152818161269b0152612713015260008181610c590152610fd5015261353b6000f3fe608060405234801561001057600080fd5b50600436106102265760003560e01c806360246c8811610130578063bd85b039116100b8578063d81657431161007c578063d8165743146104e1578063e44808bc146104f6578063e4af29d114610509578063e985e9c51461051c578063fba560081461052f57600080fd5b8063bd85b0391461048b578063becee9c31461049e578063c55dae63146104be578063c69e16ad146104c6578063cf210e65146104ce57600080fd5b8063a22cb465116100ff578063a22cb4651461042a578063a42dce801461043d578063a510762614610450578063ab033ea914610463578063b0d965801461047657600080fd5b806360246c88146103dc5780637180c8ca146103f15780637ecebe00146104045780639cd241af1461041757600080fd5b806320fc4881116101b35780633e691db9116101825780633e691db91461037857806346fbf68e1461038b5780634e41a1fb146103ae5780634ed2d6ac146103c157806354fd4d50146103d457600080fd5b806320fc4881146102e557806321ff32a91461032a578063313ce5671461034b5780633656eec21461036557600080fd5b806306fdde03116101fa57806306fdde03146102845780630a4e14931461028c57806314e5f07b146102ac57806317fad7fc146102bf5780631c0f12b6146102d257600080fd5b8062ad800c1461022b57806301681a621461025457806302329a291461026957806304baa00b1461027c575b600080fd5b61023e6102393660046129d9565b61055e565b60405161024b9190612a42565b60405180910390f35b610267610262366004612a6a565b610595565b005b610267610277366004612a95565b6105a1565b61023e6105aa565b61023e6105ea565b610294610601565b6040516001600160a01b03909116815260200161024b565b6102676102ba366004612ab2565b610641565b6102676102cd366004612b93565b61065d565b6102676102e0366004612c28565b610673565b6102f86102f33660046129d9565b610686565b6040805182516001600160801b039081168252602080850151821690830152928201519092169082015260600161024b565b61033d610338366004612c70565b6106f2565b60405190815260200161024b565b610353610738565b60405160ff909116815260200161024b565b61033d610373366004612cb2565b610750565b61033d610386366004612ce2565b610789565b61039e610399366004612a6a565b610794565b604051901515815260200161024b565b61023e6103bc3660046129d9565b6107ca565b6102676103cf366004612d1d565b6107d8565b61023e610826565b6103e461085b565b60405161024b9190612d67565b6102676103ff366004612e08565b610b6a565b61033d610412366004612a6a565b610b78565b610267610425366004612e36565b610ba4565b610267610438366004612e08565b610bb5565b61026761044b366004612a6a565b610c21565b61026761045e366004612a6a565b610c2a565b610267610471366004612a6a565b610c33565b61047e610c3c565b60405161024b9190612e6e565b61033d6104993660046129d9565b610eea565b6104b16104ac366004612f94565b610f0c565b60405161024b9190612fd6565b610294610fc7565b61033d611007565b61033d6104dc3660046129d9565b611021565b6104e961106a565b60405161024b919061301a565b61026761050436600461312b565b611176565b610267610517366004612a6a565b6111be565b61039e61052a36600461318a565b6111c7565b61053761120b565b6040805182516001600160801b03908116825260209384015116928101929092520161024b565b606061059061056c8361126a565b60405160200161057c9190612a42565b604051602081830303815290604052611392565b919050565b61059e816113b6565b50565b61059e8161152c565b60606105e76040518060400160405280600f81526020016e53744554484879706572647269766560881b81525060405160200161057c9190612a42565b90565b60606105e7600160405160200161057c91906131b8565b604080516001600160a01b037f00000000000000000000000000000000000000000000000000000000000000001660208201526000916105e7910161057c565b6106528989898989898989896115c8565b505050505050505050565b61066b8686868686866117bf565b505050505050565b6106808484848433611873565b50505050565b60408051606081018252600080825260208201819052918101919091526105906008600084815260200190815260200160002060405160200161057c919081546001600160801b03808216835260809190911c6020830152600190920154909116604082015260600190565b60008381526012602090815260408083206001600160a01b0386811685529083528184209085168452825280832054815192830152610731910161057c565b9392505050565b60408051601260208201526000916105e7910161057c565b6000828152600f602090815260408083206001600160a01b0385168452825280832054815192830152610783910161057c565b92915050565b600061078382611a34565b6001600160a01b0381166000908152600e602090815260408083205490516105909261057c9260ff169101901515815260200190565b606061059061056c83611b72565b836107e281611c70565b6001600160a01b0316336001600160a01b03161461081357604051632aab8bd360e01b815260040160405180910390fd5b61081f85858585611d2d565b5050505050565b60606105e7604051806040016040528060078152602001663b18971817189960c91b81525060405160200161057c9190612a42565b6108d4604051806101e001604052806000815260200160008152602001600081526020016000815260200160008152602001600081526020016000815260200160008152602001600081526020016000815260200160008152602001600081526020016000815260200160008152602001600081525090565b60006108de611d9a565b60075460106020527fd6f7110f7a6485ce27c724322bdc9b60c9b2518194eace178d55653f1be730215460008080527f6e0956cda88cad152e89927e53611735b61a5c762d1428573c6931b0a5efcb0154939450926001600160801b03909216916109499190613290565b61095391906132a3565b905060008215610a655773__$2b4fa6f02a36eedfe41c65e8dd342257d3$__635a1b419e61098085611db2565b6040805160e084811b6001600160e01b03191682528351600483015260208401516024830152918301516044820152606083015160648201526080830151608482015260a083015160a482015260c083015160c48201529082015160e482015261010082015161010482015261012082015161012482015261014082015161014482015261016090910151610164820152610184016040805180830381865af4158015610a31573d6000803e3d6000fd5b505050506040513d601f19601f82011682018060405250810190610a5591906132b6565b509050610a628184611f48565b90505b604080516101e0810182526002546001600160801b038082168352600454600f81900b60208501526006546001600160701b036201000082041695850195909552600160801b9485900482166060850152918490048116608084015260a0830186905260c08301879052600354849004811660e0840152600554808216610100850152918490048116610120840152908390048116610140830152600754808216610160840152929092049091166101808201526000906101a081018415610b3657610b318486611f5d565b610b39565b60005b81526003546001600160801b0316602091820152604051919250610b639161057c91849101612d67565b5050505090565b610b748282611f72565b5050565b6001600160a01b038116600090815260136020908152604080832054815192830152610590910161057c565b610bb083838333611d2d565b505050565b3360008181526011602090815260408083206001600160a01b03871680855290835292819020805460ff191686151590811790915590519081529192917f17307eab39ab6107e8899845ad3d59bd9653f200f220920489ca2b5937696c31910160405180910390a35050565b61059e81611ffb565b61059e8161206f565b61059e816120e3565b610c446128f2565b60408051610200810182526001600160a01b037f0000000000000000000000000000000000000000000000000000000000000000811682527f000000000000000000000000000000000000000000000000000000000000000081166020808401919091527f00000000000000000000000000000000000000000000000000000000000000008216838501527f00000000000000000000000000000000000000000000000000000000000000006060808501919091527f00000000000000000000000000000000000000000000000000000000000000006080808601919091527f000000000000000000000000000000000000000000000000000000000000000060a08601527f000000000000000000000000000000000000000000000000000000000000000060c08601527f000000000000000000000000000000000000000000000000000000000000000060e08601527f00000000000000000000000000000000000000000000000000000000000000006101008601527f00000000000000000000000000000000000000000000000000000000000000006101208601527f00000000000000000000000000000000000000000000000000000000000000006101408601526009548416610160860152600a548416610180860152600b5484166101a0860152600c549093166101c0850152845192830185527f000000000000000000000000000000000000000000000000000000000000000083527f0000000000000000000000000000000000000000000000000000000000000000838301527f0000000000000000000000000000000000000000000000000000000000000000838601527f0000000000000000000000000000000000000000000000000000000000000000908301526101e083019190915291516105e79261057c929101612e6e565b600081815260106020908152604080832054815192830152610590910161057c565b606060008267ffffffffffffffff811115610f2957610f296132db565b604051908082528060200260200182016040528015610f52578160200160208202803683370190505b50905060005b83811015610fab576000858583818110610f7457610f746132f1565b90506020020135905060008154905080848481518110610f9657610f966132f1565b60209081029190910101525050600101610f58565b50610fc08160405160200161057c9190612fd6565b5092915050565b604080516001600160a01b037f00000000000000000000000000000000000000000000000000000000000000001660208201526000916105e7910161057c565b60006105e7600d5460405160200161057c91815260200190565b60006105906110586110537f000000000000000000000000000000000000000000000000000000000000000085613290565b612157565b60405160200161057c91815260200190565b6040805161018081018252600080825260208201819052918101829052606081018290526080810182905260a0810182905260c0810182905260e081018290526101008101829052610120810182905261014081018290526101608101919091526105e7600260405160200161057c919081546001600160801b038082168352608091821c602084015260018401548082166040850152821c60608401526002840154600f81900b83850152821c60a0840152600384015490811660c0840152811c60e083015260049092015460ff8082161515610100840152600882901c1615156101208301526001600160701b03601082901c1661014083015290911c6101608201526101800190565b8461118081611c70565b6001600160a01b0316336001600160a01b0316146111b157604051632aab8bd360e01b815260040160405180910390fd5b61066b8686868686611873565b61059e8161219b565b6001600160a01b038281166000908152601160209081526040808320938516835292815282822054835160ff9091161515918101919091529091610783910161057c565b60408051808201909152600080825260208201526040805180820182526007546001600160801b03808216808452600160801b90920481166020938401908152845193840192909252905116918101919091526105e79060600161057c565b606060f882901c6001600160f81b03831660006112868261220f565b9050600083600381111561129c5761129c613264565b036112ce576040518060400160405280600d81526020016c048797065726472697665204c5609c1b815250935061138a565b60018360038111156112e2576112e2613264565b0361130e57806040516020016112f89190613307565b604051602081830303815290604052935061138a565b600283600381111561132257611322613264565b0361133857806040516020016112f89190613340565b600383600381111561134c5761134c613264565b0361138a576040518060400160405280601b81526020017f48797065726472697665205769746864726177616c205368617265000000000081525093505b505050919050565b80604051636e64089360e11b81526004016113ad9190612a42565b60405180910390fd5b6113be6122c4565b600b54336000908152600e60205260409020546001600160a01b039091169060ff161580156113f65750336001600160a01b03821614155b801561140d57506009546001600160a01b03163314155b1561142a576040516282b42960e81b815260040160405180910390fd5b60006114346122ee565b6040516370a0823160e01b81523060048201529091506000906001600160a01b038516906370a0823190602401602060405180830381865afa15801561147e573d6000803e3d6000fd5b505050506040513d601f19601f820116820180604052508101906114a2919061337a565b90506114b86001600160a01b0385168483612379565b816114c16122ee565b146114df576040516313dd85ff60e31b815260040160405180910390fd5b836001600160a01b0316836001600160a01b03167f951f51ee88c8e42633698bba90d1e53c0954470938036879e691c0232b47e09660405160405180910390a350505061059e6001600055565b336000908152600e602052604090205460ff1615801561155757506009546001600160a01b03163314155b15611574576040516282b42960e81b815260040160405180910390fd5b600680548215156101000261ff00199091161790556040517f7c4d1fe30fdbfda9e9c4c43e759ef32e4db5128d4cb58ff3ae9583b89b6242a5906115bd90831515815260200190565b60405180910390a150565b834211156115e95760405163f87d927160e01b815260040160405180910390fd5b6001600160a01b0387166116105760405163f0dd15fd60e01b815260040160405180910390fd5b6001600160a01b0387811660008181526013602090815260408083205481518084018f905280830195909552948b166060850152891515608085015260a084019490945260c08084018990528451808503909101815260e08401909452835193019290922061190160f01b61010083015261010282018c90526101228201526101420160408051601f198184030181528282528051602091820120600080855291840180845281905260ff88169284019290925260608301869052608083018590529092509060019060a0016020604051602081039080840390855afa1580156116fe573d6000803e3d6000fd5b505050602060405103519050886001600160a01b0316816001600160a01b03161461173c57604051638baa579f60e01b815260040160405180910390fd5b6001600160a01b0389811660008181526013602090815260408083208054600101905560118252808320948d1680845294825291829020805460ff19168c151590811790915591519182527f17307eab39ab6107e8899845ad3d59bd9653f200f220920489ca2b5937696c31910160405180910390a35050505050505050505050565b6001600160a01b03861615806117dc57506001600160a01b038516155b156117fa5760405163f0dd15fd60e01b815260040160405180910390fd5b82811461181a5760405163174861a760e31b815260040160405180910390fd5b60005b8381101561186a5761186285858381811061183a5761183a6132f1565b905060200201358888868686818110611855576118556132f1565b9050602002013533611873565b60010161181d565b50505050505050565b6001600160a01b038416158061189057506001600160a01b038316155b156118ae5760405163f0dd15fd60e01b815260040160405180910390fd5b836001600160a01b0316816001600160a01b031614611972576001600160a01b0380851660009081526011602090815260408083209385168352929052205460ff166119725760008581526012602090815260408083206001600160a01b038089168552908352818420908516845290915290205460001981146119705760008681526012602090815260408083206001600160a01b03808a16855290835281842090861684529091528120805485929061196a9084906132a3565b90915550505b505b6000858152600f602090815260408083206001600160a01b0388168452909152812080548492906119a49084906132a3565b90915550506000858152600f602090815260408083206001600160a01b0387168452909152812080548492906119db908490613290565b909155505060408051868152602081018490526001600160a01b038086169287821692918516917fc3d58168c5ae7397731d063d5bbf3d657854427343f4c083240f7aacaa2d0f62910160405180910390a45050505050565b6000611a3e6122c4565b611a47826123cb565b600a546001600160a01b031680611a616020850185612a6a565b6001600160a01b031614611a8857604051630ad13b3360e21b815260040160405180910390fd5b336000908152600e602052604090205460ff16158015611ab15750336001600160a01b03821614155b8015611ac857506009546001600160a01b03163314155b15611ae5576040516282b42960e81b815260040160405180910390fd5b6000611aef611d9a565b600d80546000909155909150611b06818387612401565b93506001600160a01b0383167f3e5eb8642141e29a1b4e5c28b467396f814c1698e1adfc3ff327ddb9a60383618584611b4560408a0160208b01612a95565b60408051938452602084019290925215159082015260600160405180910390a25050506105906001600055565b606060f882901c6001600160f81b0383166000611b8e8261220f565b90506000836003811115611ba457611ba4613264565b03611bd6576040518060400160405280600d81526020016c0485950455244524956452d4c5609c1b815250935061138a565b6001836003811115611bea57611bea613264565b03611c0057806040516020016112f89190613393565b6002836003811115611c1457611c14613264565b03611c2a57806040516020016112f891906133cb565b6003836003811115611c3e57611c3e613264565b0361138a57505060408051808201909152600d81526c485950455244524956452d575360981b60208201529392505050565b604080513060208083019190915281830193909352815180820383018152606080830184528151918501919091206001600160f81b031960808401527f000000000000000000000000000000000000000000000000000000000000000090911b6bffffffffffffffffffffffff1916608183015260958201527f000000000000000000000000000000000000000000000000000000000000000060b5808301919091528251808303909101815260d5909101909152805191012090565b60008481526012602090815260408083206001600160a01b0385811680865291845282852090881680865290845293829020869055905185815290917f8c5be1e5ebec7d5bd14f71427d1e84f3dd0314c0f7b2291e5b200ac8c7c3b925910160405180910390a350505050565b6000611dad670de0b6b3a764000061249b565b905090565b611e166040518061018001604052806000815260200160008152602001600081526020016000815260200160008152602001600081526020016000815260200160008152602001600081526020016000815260200160008152602001600081525090565b60408051610180810182526002546001600160801b038082168352600454600f0b6020840152600160801b91829004811693830193909352606082018590527f000000000000000000000000000000000000000000000000000000000000000060808301527f000000000000000000000000000000000000000000000000000000000000000060a08301527f000000000000000000000000000000000000000000000000000000000000000060c08301527f000000000000000000000000000000000000000000000000000000000000000060e08301526003540482166101008201526005549091610120830191611f0e9116612528565b81526004546001600160801b03600160801b9182900481166020840152600554604090930192611f4092900416612528565b905292915050565b60006107318383670de0b6b3a764000061259e565b600061073183670de0b6b3a76400008461259e565b6009546001600160a01b03163314611f9c576040516282b42960e81b815260040160405180910390fd5b6001600160a01b0382166000818152600e6020908152604091829020805460ff191685151590811790915591519182527f902923dcd4814f6cef7005a70e01d5cf2035ab02d4523ef3b865f1d7bab885af910160405180910390a25050565b6009546001600160a01b03163314612025576040516282b42960e81b815260040160405180910390fd5b600a80546001600160a01b0319166001600160a01b0383169081179091556040517fe5693914d19c789bdee50a362998c0bc8d035a835f9871da5d51152f0582c34f90600090a250565b6009546001600160a01b03163314612099576040516282b42960e81b815260040160405180910390fd5b600c80546001600160a01b0319166001600160a01b0383169081179091556040517fae062fb82c932c653cd44617343ecda1d13e375e0d6f20d969c944fbda1963d390600090a250565b6009546001600160a01b0316331461210d576040516282b42960e81b815260040160405180910390fd5b600980546001600160a01b0319166001600160a01b0383169081179091556040517f9d3e522e1e47a2f6009739342b9cc7b252a1888154e843ab55ee1c81745795ab90600090a250565b600061217f6010600061216b6002866125bc565b8152602001908152602001600020546125f1565b6121916010600061216b6001876125bc565b61078391906133f7565b6009546001600160a01b031633146121c5576040516282b42960e81b815260040160405180910390fd5b600b80546001600160a01b0319166001600160a01b0383169081179091556040517fc049058b1df2dd8902739ceb78992df12fa8369c06c450b3c6787137b452fdd290600090a250565b60408051604e80825260808201909252606091906000908260208201818036833701905050905060005b84156122b65761224a600a8661342d565b612255906030613290565b60f81b82600161226584876132a3565b61226f91906132a3565b8151811061227f5761227f6132f1565b60200101906001600160f81b031916908160001a905350806122a081613441565b91506122af9050600a8661345a565b9450612239565b918290030190815292915050565b6002600054036122e757604051633ee5aeb560e01b815260040160405180910390fd5b6002600055565b604051633d7ad0b760e21b81523060048201526000907f00000000000000000000000000000000000000000000000000000000000000006001600160a01b03169063f5eb42dc90602401602060405180830381865afa158015612355573d6000803e3d6000fd5b505050506040513d601f19601f82011682018060405250810190611dad919061337a565b604080516001600160a01b038416602482015260448082018490528251808303909101815260649091019091526020810180516001600160e01b031663a9059cbb60e01b179052610bb090849061261f565b60006123da6020830183612a6a565b6001600160a01b03160361059e5760405163f0dd15fd60e01b815260040160405180910390fd5b60008061240e8585611f48565b905061241981612682565b94508460000361242d576000915050610731565b61243d6040840160208501612a95565b1561246c57612465856124536020860186612a6a565b612460604087018761346e565b6126d2565b9150612493565b61248f8561247d6020860186612a6a565b61248a604087018761346e565b6126ed565b8491505b509392505050565b604051630f451f7160e31b8152600481018290526000907f00000000000000000000000000000000000000000000000000000000000000006001600160a01b031690637a28fb88906024015b602060405180830381865afa158015612504573d6000803e3d6000fd5b505050506040513d601f19601f82011682018060405250810190610783919061337a565b600080670de0b6b3a764000061253c612780565b61254691906134b5565b9050808311612556576000612560565b61256081846132a3565b9150610731612597670de0b6b3a76400007f00000000000000000000000000000000000000000000000000000000000000006134b5565b8390611f5d565b60008260001904841183021582026125b557600080fd5b5091020490565b60006001600160f81b038211156125e65760405163b7d0949760e01b815260040160405180910390fd5b5060f89190911b1790565b60006001600160ff1b0382111561261b5760405163396ea70160e11b815260040160405180910390fd5b5090565b60006126346001600160a01b038416836127ac565b9050805160001415801561265957508080602001905181019061265791906134cc565b155b15610bb057604051635274afe760e01b81526001600160a01b03841660048201526024016113ad565b604051631920845160e01b8152600481018290526000907f00000000000000000000000000000000000000000000000000000000000000006001600160a01b0316906319208451906024016124e7565b600060405163350b944160e11b815260040160405180910390fd5b604051638fcb4e5b60e01b81526001600160a01b038481166004830152602482018690527f00000000000000000000000000000000000000000000000000000000000000001690638fcb4e5b906044016020604051808303816000875af115801561275c573d6000803e3d6000fd5b505050506040513d601f19601f8201168201806040525081019061081f919061337a565b6000611dad427f00000000000000000000000000000000000000000000000000000000000000006127ba565b6060610731838360006127d0565b60006127c6828461342d565b61073190846132a3565b6060814710156127f55760405163cd78605960e01b81523060048201526024016113ad565b600080856001600160a01b0316848660405161281191906134e9565b60006040518083038185875af1925050503d806000811461284e576040519150601f19603f3d011682016040523d82523d6000602084013e612853565b606091505b509150915061286386838361286d565b9695505050505050565b6060826128825761287d826128c9565b610731565b815115801561289957506001600160a01b0384163b155b156128c257604051639996b31560e01b81526001600160a01b03851660048201526024016113ad565b5080610731565b8051156128d95780518082602001fd5b604051630a12f52160e11b815260040160405180910390fd5b60405180610200016040528060006001600160a01b0316815260200160006001600160a01b0316815260200160006001600160a01b03168152602001600080191681526020016000815260200160008152602001600081526020016000815260200160008152602001600081526020016000815260200160006001600160a01b0316815260200160006001600160a01b0316815260200160006001600160a01b0316815260200160006001600160a01b031681526020016129d46040518060800160405280600081526020016000815260200160008152602001600081525090565b905290565b6000602082840312156129eb57600080fd5b5035919050565b60005b83811015612a0d5781810151838201526020016129f5565b50506000910152565b60008151808452612a2e8160208601602086016129f2565b601f01601f19169290920160200192915050565b6020815260006107316020830184612a16565b6001600160a01b038116811461059e57600080fd5b600060208284031215612a7c57600080fd5b813561073181612a55565b801515811461059e57600080fd5b600060208284031215612aa757600080fd5b813561073181612a87565b60008060008060008060008060006101208a8c031215612ad157600080fd5b8935985060208a0135975060408a0135612aea81612a55565b965060608a0135612afa81612a55565b955060808a0135612b0a81612a87565b945060a08a0135935060c08a013560ff81168114612b2757600080fd5b8093505060e08a013591506101008a013590509295985092959850929598565b60008083601f840112612b5957600080fd5b50813567ffffffffffffffff811115612b7157600080fd5b6020830191508360208260051b8501011115612b8c57600080fd5b9250929050565b60008060008060008060808789031215612bac57600080fd5b8635612bb781612a55565b95506020870135612bc781612a55565b9450604087013567ffffffffffffffff80821115612be457600080fd5b612bf08a838b01612b47565b90965094506060890135915080821115612c0957600080fd5b50612c1689828a01612b47565b979a9699509497509295939492505050565b60008060008060808587031215612c3e57600080fd5b843593506020850135612c5081612a55565b92506040850135612c6081612a55565b9396929550929360600135925050565b600080600060608486031215612c8557600080fd5b833592506020840135612c9781612a55565b91506040840135612ca781612a55565b809150509250925092565b60008060408385031215612cc557600080fd5b823591506020830135612cd781612a55565b809150509250929050565b600060208284031215612cf457600080fd5b813567ffffffffffffffff811115612d0b57600080fd5b82016060818503121561073157600080fd5b60008060008060808587031215612d3357600080fd5b843593506020850135612d4581612a55565b9250604085013591506060850135612d5c81612a55565b939692955090935050565b815181526020808301519082015260408083015190820152606080830151908201526080808301519082015260a0808301519082015260c0808301519082015260e08083015190820152610100808301519082015261012080830151908201526101408083015190820152610160808301519082015261018080830151908201526101a080830151908201526101c091820151918101919091526101e00190565b60008060408385031215612e1b57600080fd5b8235612e2681612a55565b91506020830135612cd781612a87565b600080600060608486031215612e4b57600080fd5b833592506020840135612e5d81612a55565b929592945050506040919091013590565b81516001600160a01b0316815261026081016020830151612e9a60208401826001600160a01b03169052565b506040830151612eb560408401826001600160a01b03169052565b50606083015160608301526080830151608083015260a083015160a083015260c083015160c083015260e083015160e083015261010080840151818401525061012080840151818401525061014080840151818401525061016080840151612f27828501826001600160a01b03169052565b5050610180838101516001600160a01b03908116918401919091526101a0808501518216908401526101c080850151909116908301526101e0808401518051828501526020810151610200850152604081015161022085015260608101516102408501525b505092915050565b60008060208385031215612fa757600080fd5b823567ffffffffffffffff811115612fbe57600080fd5b612fca85828601612b47565b90969095509350505050565b6020808252825182820181905260009190848201906040850190845b8181101561300e57835183529284019291840191600101612ff2565b50909695505050505050565b81516001600160801b031681526101808101602083015161304660208401826001600160801b03169052565b50604083015161306160408401826001600160801b03169052565b50606083015161307c60608401826001600160801b03169052565b5060808301516130916080840182600f0b9052565b5060a08301516130ac60a08401826001600160801b03169052565b5060c08301516130c760c08401826001600160801b03169052565b5060e08301516130e260e08401826001600160801b03169052565b506101008381015115159083015261012080840151151590830152610140808401516001600160701b031690830152610160808401516001600160801b03811682850152612f8c565b600080600080600060a0868803121561314357600080fd5b85359450602086013561315581612a55565b9350604086013561316581612a55565b925060608601359150608086013561317c81612a55565b809150509295509295909350565b6000806040838503121561319d57600080fd5b82356131a881612a55565b91506020830135612cd781612a55565b600060208083526000845481600182811c9150808316806131da57607f831692505b85831081036131f757634e487b7160e01b85526022600452602485fd5b878601838152602001818015613214576001811461322a57613255565b60ff198616825284151560051b82019650613255565b60008b81526020902060005b8681101561324f57815484820152908501908901613236565b83019750505b50949998505050505050505050565b634e487b7160e01b600052602160045260246000fd5b634e487b7160e01b600052601160045260246000fd5b808201808211156107835761078361327a565b818103818111156107835761078361327a565b600080604083850312156132c957600080fd5b825191506020830151612cd781612a87565b634e487b7160e01b600052604160045260246000fd5b634e487b7160e01b600052603260045260246000fd5b700243cb832b9323934bb32902637b7339d1607d1b8152600082516133338160118501602087016129f2565b9190910160110192915050565b710243cb832b9323934bb329029b437b93a1d160751b81526000825161336d8160128501602087016129f2565b9190910160120192915050565b60006020828403121561338c57600080fd5b5051919050565b6f242ca822a9222924ab2296a627a7239d60811b8152600082516133be8160108501602087016129f2565b9190910160100192915050565b70242ca822a9222924ab2296a9a427a92a1d60791b8152600082516133338160118501602087016129f2565b8181036000831280158383131683831282161715610fc057610fc061327a565b634e487b7160e01b600052601260045260246000fd5b60008261343c5761343c613417565b500690565b6000600182016134535761345361327a565b5060010190565b60008261346957613469613417565b500490565b6000808335601e1984360301811261348557600080fd5b83018035915067ffffffffffffffff8211156134a057600080fd5b602001915036819003821315612b8c57600080fd5b80820281158282048414176107835761078361327a565b6000602082840312156134de57600080fd5b815161073181612a87565b600082516134fb8184602087016129f2565b919091019291505056fea26469706673582212207ba62910cabd0ec4ec8bec00b2938ef7fd08033da0e7698611500577ddd2f2a364736f6c63430008140033a2646970667358221220c15cfd908ef3b3290d9d2da7cb3d76ec635af2ed97b119431e22b71f406df33064736f6c63430008140033","linkReferences":{"contracts/src/libraries/LPMath.sol":{"LPMath":[{"start":4677,"length":20}]}}},"methodIdentifiers":{"deployTarget((address,address,address,bytes32,uint256,uint256,uint256,uint256,uint256,uint256,uint256,address,address,address,address,(uint256,uint256,uint256,uint256)),bytes,bytes32)":"6b323707"},"id":27}