{
  "abi": [
    {
      "inputs": [
        {
          "components": [
            {
              "internalType": "address",
              "name": "governance",
              "type": "address"
            },
            {
              "internalType": "address",
              "name": "hyperdriveGovernance",
              "type": "address"
            },
            {
              "internalType": "address",
              "name": "feeCollector",
              "type": "address"
            },
            {
              "components": [
                {
                  "internalType": "uint256",
                  "name": "curve",
                  "type": "uint256"
                },
                {
                  "internalType": "uint256",
                  "name": "flat",
                  "type": "uint256"
                },
                {
                  "internalType": "uint256",
                  "name": "governance",
                  "type": "uint256"
                }
              ],
              "internalType": "struct IHyperdrive.Fees",
              "name": "fees",
              "type": "tuple"
            },
            {
              "components": [
                {
                  "internalType": "uint256",
                  "name": "curve",
                  "type": "uint256"
                },
                {
                  "internalType": "uint256",
                  "name": "flat",
                  "type": "uint256"
                },
                {
                  "internalType": "uint256",
                  "name": "governance",
                  "type": "uint256"
                }
              ],
              "internalType": "struct IHyperdrive.Fees",
              "name": "maxFees",
              "type": "tuple"
            },
            {
              "internalType": "address[]",
              "name": "defaultPausers",
              "type": "address[]"
            }
          ],
          "internalType": "struct HyperdriveFactory.FactoryConfig",
          "name": "_factoryConfig",
          "type": "tuple"
        },
        {
          "internalType": "contract IHyperdriveDeployer",
          "name": "_deployer",
          "type": "address"
        },
        {
          "internalType": "address",
          "name": "_linkerFactory",
          "type": "address"
        },
        {
          "internalType": "bytes32",
          "name": "_linkerCodeHash",
          "type": "bytes32"
        },
        {
          "internalType": "contract IERC4626",
          "name": "_pool",
          "type": "address"
        },
        {
          "internalType": "address[]",
          "name": "_sweepTargets_",
          "type": "address[]"
        }
      ],
      "stateMutability": "nonpayable",
      "type": "constructor"
    },
    {
      "inputs": [],
      "name": "ApprovalFailed",
      "type": "error"
    },
    {
      "inputs": [],
      "name": "FeeTooHigh",
      "type": "error"
    },
    {
      "inputs": [],
      "name": "MaxFeeTooHigh",
      "type": "error"
    },
    {
      "inputs": [],
      "name": "NonPayableInitialization",
      "type": "error"
    },
    {
      "inputs": [],
      "name": "Unauthorized",
      "type": "error"
    },
    {
      "anonymous": false,
      "inputs": [
        {
          "indexed": true,
          "internalType": "uint256",
          "name": "version",
          "type": "uint256"
        },
        {
          "indexed": false,
          "internalType": "address",
          "name": "hyperdrive",
          "type": "address"
        },
        {
          "components": [
            {
              "internalType": "contract IERC20",
              "name": "baseToken",
              "type": "address"
            },
            {
              "internalType": "uint256",
              "name": "initialSharePrice",
              "type": "uint256"
            },
            {
              "internalType": "uint256",
              "name": "minimumShareReserves",
              "type": "uint256"
            },
            {
              "internalType": "uint256",
              "name": "minimumTransactionAmount",
              "type": "uint256"
            },
            {
              "internalType": "uint256",
              "name": "positionDuration",
              "type": "uint256"
            },
            {
              "internalType": "uint256",
              "name": "checkpointDuration",
              "type": "uint256"
            },
            {
              "internalType": "uint256",
              "name": "timeStretch",
              "type": "uint256"
            },
            {
              "internalType": "address",
              "name": "governance",
              "type": "address"
            },
            {
              "internalType": "address",
              "name": "feeCollector",
              "type": "address"
            },
            {
              "components": [
                {
                  "internalType": "uint256",
                  "name": "curve",
                  "type": "uint256"
                },
                {
                  "internalType": "uint256",
                  "name": "flat",
                  "type": "uint256"
                },
                {
                  "internalType": "uint256",
                  "name": "governance",
                  "type": "uint256"
                }
              ],
              "internalType": "struct IHyperdrive.Fees",
              "name": "fees",
              "type": "tuple"
            },
            {
              "internalType": "uint256",
              "name": "oracleSize",
              "type": "uint256"
            },
            {
              "internalType": "uint256",
              "name": "updateGap",
              "type": "uint256"
            }
          ],
          "indexed": false,
          "internalType": "struct IHyperdrive.PoolConfig",
          "name": "config",
          "type": "tuple"
        },
        {
          "indexed": false,
          "internalType": "address",
          "name": "linkerFactory",
          "type": "address"
        },
        {
          "indexed": false,
          "internalType": "bytes32",
          "name": "linkerCodeHash",
          "type": "bytes32"
        },
        {
          "indexed": false,
          "internalType": "bytes32[]",
          "name": "extraData",
          "type": "bytes32[]"
        }
      ],
      "name": "Deployed",
      "type": "event"
    },
    {
      "anonymous": false,
      "inputs": [
        {
          "indexed": true,
          "internalType": "address",
          "name": "newFeeCollector",
          "type": "address"
        }
      ],
      "name": "FeeCollectorUpdated",
      "type": "event"
    },
    {
      "anonymous": false,
      "inputs": [
        {
          "indexed": true,
          "internalType": "address",
          "name": "governance",
          "type": "address"
        }
      ],
      "name": "GovernanceUpdated",
      "type": "event"
    },
    {
      "anonymous": false,
      "inputs": [
        {
          "indexed": true,
          "internalType": "address",
          "name": "hyperdriveGovernance",
          "type": "address"
        }
      ],
      "name": "HyperdriveGovernanceUpdated",
      "type": "event"
    },
    {
      "anonymous": false,
      "inputs": [
        {
          "indexed": true,
          "internalType": "address",
          "name": "newDeployer",
          "type": "address"
        }
      ],
      "name": "ImplementationUpdated",
      "type": "event"
    },
    {
      "anonymous": false,
      "inputs": [
        {
          "indexed": true,
          "internalType": "bytes32",
          "name": "newCodeHash",
          "type": "bytes32"
        }
      ],
      "name": "LinkerCodeHashUpdated",
      "type": "event"
    },
    {
      "anonymous": false,
      "inputs": [
        {
          "indexed": true,
          "internalType": "address",
          "name": "newLinkerFactory",
          "type": "address"
        }
      ],
      "name": "LinkerFactoryUpdated",
      "type": "event"
    },
    {
      "inputs": [
        {
          "components": [
            {
              "internalType": "contract IERC20",
              "name": "baseToken",
              "type": "address"
            },
            {
              "internalType": "uint256",
              "name": "initialSharePrice",
              "type": "uint256"
            },
            {
              "internalType": "uint256",
              "name": "minimumShareReserves",
              "type": "uint256"
            },
            {
              "internalType": "uint256",
              "name": "minimumTransactionAmount",
              "type": "uint256"
            },
            {
              "internalType": "uint256",
              "name": "positionDuration",
              "type": "uint256"
            },
            {
              "internalType": "uint256",
              "name": "checkpointDuration",
              "type": "uint256"
            },
            {
              "internalType": "uint256",
              "name": "timeStretch",
              "type": "uint256"
            },
            {
              "internalType": "address",
              "name": "governance",
              "type": "address"
            },
            {
              "internalType": "address",
              "name": "feeCollector",
              "type": "address"
            },
            {
              "components": [
                {
                  "internalType": "uint256",
                  "name": "curve",
                  "type": "uint256"
                },
                {
                  "internalType": "uint256",
                  "name": "flat",
                  "type": "uint256"
                },
                {
                  "internalType": "uint256",
                  "name": "governance",
                  "type": "uint256"
                }
              ],
              "internalType": "struct IHyperdrive.Fees",
              "name": "fees",
              "type": "tuple"
            },
            {
              "internalType": "uint256",
              "name": "oracleSize",
              "type": "uint256"
            },
            {
              "internalType": "uint256",
              "name": "updateGap",
              "type": "uint256"
            }
          ],
          "internalType": "struct IHyperdrive.PoolConfig",
          "name": "_config",
          "type": "tuple"
        },
        {
          "internalType": "bytes32[]",
          "name": "",
          "type": "bytes32[]"
        },
        {
          "internalType": "uint256",
          "name": "_contribution",
          "type": "uint256"
        },
        {
          "internalType": "uint256",
          "name": "_apr",
          "type": "uint256"
        },
        {
          "internalType": "bytes",
          "name": "_initializeExtraData",
          "type": "bytes"
        }
      ],
      "name": "deployAndInitialize",
      "outputs": [
        {
          "internalType": "contract IHyperdrive",
          "name": "",
          "type": "address"
        }
      ],
      "stateMutability": "payable",
      "type": "function"
    },
    {
      "inputs": [],
      "name": "feeCollector",
      "outputs": [
        {
          "internalType": "address",
          "name": "",
          "type": "address"
        }
      ],
      "stateMutability": "view",
      "type": "function"
    },
    {
      "inputs": [],
      "name": "fees",
      "outputs": [
        {
          "internalType": "uint256",
          "name": "curve",
          "type": "uint256"
        },
        {
          "internalType": "uint256",
          "name": "flat",
          "type": "uint256"
        },
        {
          "internalType": "uint256",
          "name": "governance",
          "type": "uint256"
        }
      ],
      "stateMutability": "view",
      "type": "function"
    },
    {
      "inputs": [],
      "name": "getDefaultPausers",
      "outputs": [
        {
          "internalType": "address[]",
          "name": "",
          "type": "address[]"
        }
      ],
      "stateMutability": "view",
      "type": "function"
    },
    {
      "inputs": [],
      "name": "getSweepTargets",
      "outputs": [
        {
          "internalType": "address[]",
          "name": "",
          "type": "address[]"
        }
      ],
      "stateMutability": "view",
      "type": "function"
    },
    {
      "inputs": [],
      "name": "governance",
      "outputs": [
        {
          "internalType": "address",
          "name": "",
          "type": "address"
        }
      ],
      "stateMutability": "view",
      "type": "function"
    },
    {
      "inputs": [],
      "name": "hyperdriveDeployer",
      "outputs": [
        {
          "internalType": "contract IHyperdriveDeployer",
          "name": "",
          "type": "address"
        }
      ],
      "stateMutability": "view",
      "type": "function"
    },
    {
      "inputs": [],
      "name": "hyperdriveGovernance",
      "outputs": [
        {
          "internalType": "address",
          "name": "",
          "type": "address"
        }
      ],
      "stateMutability": "view",
      "type": "function"
    },
    {
      "inputs": [
        {
          "internalType": "address",
          "name": "instance",
          "type": "address"
        }
      ],
      "name": "isOfficial",
      "outputs": [
        {
          "internalType": "uint256",
          "name": "version",
          "type": "uint256"
        }
      ],
      "stateMutability": "view",
      "type": "function"
    },
    {
      "inputs": [],
      "name": "linkerCodeHash",
      "outputs": [
        {
          "internalType": "bytes32",
          "name": "",
          "type": "bytes32"
        }
      ],
      "stateMutability": "view",
      "type": "function"
    },
    {
      "inputs": [],
      "name": "linkerFactory",
      "outputs": [
        {
          "internalType": "address",
          "name": "",
          "type": "address"
        }
      ],
      "stateMutability": "view",
      "type": "function"
    },
    {
      "inputs": [
        {
          "internalType": "address[]",
          "name": "_defaultPausers_",
          "type": "address[]"
        }
      ],
      "name": "updateDefaultPausers",
      "outputs": [],
      "stateMutability": "nonpayable",
      "type": "function"
    },
    {
      "inputs": [
        {
          "internalType": "address",
          "name": "_feeCollector",
          "type": "address"
        }
      ],
      "name": "updateFeeCollector",
      "outputs": [],
      "stateMutability": "nonpayable",
      "type": "function"
    },
    {
      "inputs": [
        {
          "components": [
            {
              "internalType": "uint256",
              "name": "curve",
              "type": "uint256"
            },
            {
              "internalType": "uint256",
              "name": "flat",
              "type": "uint256"
            },
            {
              "internalType": "uint256",
              "name": "governance",
              "type": "uint256"
            }
          ],
          "internalType": "struct IHyperdrive.Fees",
          "name": "_fees",
          "type": "tuple"
        }
      ],
      "name": "updateFees",
      "outputs": [],
      "stateMutability": "nonpayable",
      "type": "function"
    },
    {
      "inputs": [
        {
          "internalType": "address",
          "name": "_governance",
          "type": "address"
        }
      ],
      "name": "updateGovernance",
      "outputs": [],
      "stateMutability": "nonpayable",
      "type": "function"
    },
    {
      "inputs": [
        {
          "internalType": "address",
          "name": "_hyperdriveGovernance",
          "type": "address"
        }
      ],
      "name": "updateHyperdriveGovernance",
      "outputs": [],
      "stateMutability": "nonpayable",
      "type": "function"
    },
    {
      "inputs": [
        {
          "internalType": "contract IHyperdriveDeployer",
          "name": "newDeployer",
          "type": "address"
        }
      ],
      "name": "updateImplementation",
      "outputs": [],
      "stateMutability": "nonpayable",
      "type": "function"
    },
    {
      "inputs": [
        {
          "internalType": "bytes32",
          "name": "_linkerCodeHash",
          "type": "bytes32"
        }
      ],
      "name": "updateLinkerCodeHash",
      "outputs": [],
      "stateMutability": "nonpayable",
      "type": "function"
    },
    {
      "inputs": [
        {
          "internalType": "address",
          "name": "_linkerFactory",
          "type": "address"
        }
      ],
      "name": "updateLinkerFactory",
      "outputs": [],
      "stateMutability": "nonpayable",
      "type": "function"
    },
    {
      "inputs": [
        {
          "internalType": "address[]",
          "name": "_sweepTargets_",
          "type": "address[]"
        }
      ],
      "name": "updateSweepTargets",
      "outputs": [],
      "stateMutability": "nonpayable",
      "type": "function"
    },
    {
      "inputs": [],
      "name": "versionCounter",
      "outputs": [
        {
          "internalType": "uint256",
          "name": "",
          "type": "uint256"
        }
      ],
      "stateMutability": "view",
      "type": "function"
    }
  ],
  "bytecode": {
    "object": "0x610100604052600180553480156200001657600080fd5b506040516200468a3803806200468a8339810160408190526200003991620003d3565b60808087018051519182905280516020015160a052516040015160c0528690869086908690670de0b6b3a764000010806200007d5750670de0b6b3a764000060a051115b80620000925750670de0b6b3a764000060c051115b15620000b15760405163a3932d2d60e01b815260040160405180910390fd5b6080516060850151511180620000d0575060a051846060015160200151115b80620000e5575060c051846060015160400151115b15620001045760405163cd4e616760e01b815260040160405180910390fd5b606084015180516007556020808201516008556040918201516009558551600080546001600160a01b03199081166001600160a01b03938416179091558288015160048054831691841691909117905592870151600a805490941691161790915560a085015180516200017c92600b920190620001d8565b50600380546001600160a01b03199081166001600160a01b03958616179091556005805490911692841692909217909155600655831660e052508051620001cb90600c906020840190620001d8565b5050505050505062000516565b82805482825590600052602060002090810192821562000230579160200282015b828111156200023057825182546001600160a01b0319166001600160a01b03909116178255602090920191600190910190620001f9565b506200023e92915062000242565b5090565b5b808211156200023e576000815560010162000243565b634e487b7160e01b600052604160045260246000fd5b60405160c081016001600160401b038111828210171562000294576200029462000259565b60405290565b6001600160a01b0381168114620002b057600080fd5b50565b8051620002c0816200029a565b919050565b600060608284031215620002d857600080fd5b604051606081016001600160401b0381118282101715620002fd57620002fd62000259565b80604052508091508251815260208301516020820152604083015160408201525092915050565b600082601f8301126200033657600080fd5b815160206001600160401b038083111562000355576200035562000259565b8260051b604051601f19603f830116810181811084821117156200037d576200037d62000259565b6040529384528581018301938381019250878511156200039c57600080fd5b83870191505b84821015620003c8578151620003b8816200029a565b83529183019190830190620003a2565b979650505050505050565b60008060008060008060c08789031215620003ed57600080fd5b86516001600160401b03808211156200040557600080fd5b90880190610140828b0312156200041b57600080fd5b620004256200026f565b825162000432816200029a565b8152602083015162000444816200029a565b60208201526200045760408401620002b3565b60408201526200046b8b60608501620002c5565b60608201526200047f8b60c08501620002c5565b6080820152610120830151828111156200049857600080fd5b620004a68c82860162000324565b60a0830152509750620004bc60208a01620002b3565b9650620004cc60408a01620002b3565b955060608901519450620004e360808a01620002b3565b935060a0890151915080821115620004fa57600080fd5b506200050989828a0162000324565b9150509295509295509295565b60805160a05160c05160e05161413a620005506000396000610e5d01526000610615015260006105e6015260006105bb015261413a6000f3fe608060405260043610620001435760003560e01c806394ad46d911620000b9578063c415b95c1162000078578063c415b95c14620003a3578063c905a4b514620003c5578063d2c35ce814620003dd578063dd2b8fbb1462000402578063dd6d30c11462000427578063e3331555146200043f57600080fd5b806394ad46d914620002e257806399623bb114620002fa5780639af1d35a146200031c5780639af252621462000359578063b2561263146200037e57600080fd5b80637613b08c11620001065780637613b08c146200021a57806377b81aac146200023f5780637f7c5a7d146200027f5780638522978514620002a65780638ea20ee614620002cb57600080fd5b8063025b22bc146200014857806303a5aa92146200016f57806309b9075f14620001ae5780634fbfee7714620001d35780635aa6e67514620001f8575b600080fd5b3480156200015557600080fd5b506200016d6200016736600462000f66565b62000461565b005b3480156200017c57600080fd5b5060035462000191906001600160a01b031681565b6040516001600160a01b0390911681526020015b60405180910390f35b348015620001bb57600080fd5b506200016d620001cd36600462000f8d565b620004f2565b348015620001e057600080fd5b506200016d620001f236600462001007565b62000530565b3480156200020557600080fd5b5060005462000191906001600160a01b031681565b3480156200022757600080fd5b506200016d6200023936600462001021565b6200058e565b3480156200024c57600080fd5b50620002706200025e36600462000f66565b60026020526000908152604090205481565b604051908152602001620001a5565b3480156200028c57600080fd5b506200029762000670565b604051620001a591906200104c565b348015620002b357600080fd5b506200016d620002c536600462000f66565b620006d4565b62000191620002dc36600462001272565b6200075d565b348015620002ef57600080fd5b5062000297620007e2565b3480156200030757600080fd5b5060055462000191906001600160a01b031681565b3480156200032957600080fd5b506007546008546009546200033d92919083565b60408051938452602084019290925290820152606001620001a5565b3480156200036657600080fd5b506200016d6200037836600462000f8d565b62000844565b3480156200038b57600080fd5b506200016d6200039d36600462000f66565b6200087d565b348015620003b057600080fd5b50600a5462000191906001600160a01b031681565b348015620003d257600080fd5b506200027060065481565b348015620003ea57600080fd5b506200016d620003fc36600462000f66565b620008f0565b3480156200040f57600080fd5b506200016d6200042136600462000f66565b62000965565b3480156200043457600080fd5b506200027060015481565b3480156200044c57600080fd5b5060045462000191906001600160a01b031681565b6000546001600160a01b031633146200048c576040516282b42960e81b815260040160405180910390fd5b6001600160a01b038116620004a057600080fd5b600380546001600160a01b0319166001600160a01b03831690811790915560018054810190556040517f310ba5f1d2ed074b51e2eccd052a47ae9ab7c6b800d1fca3db3999d6a592ca0390600090a250565b6000546001600160a01b031633146200051d576040516282b42960e81b815260040160405180910390fd5b6200052b600c838362000ec0565b505050565b6000546001600160a01b031633146200055b576040516282b42960e81b815260040160405180910390fd5b600681905560405181907f395a61259037298d1c4cd4bf177b64ad5995d38a9394573fcd9060d649314ad090600090a250565b6000546001600160a01b03163314620005b9576040516282b42960e81b815260040160405180910390fd5b7f0000000000000000000000000000000000000000000000000000000000000000813511806200060c57507f00000000000000000000000000000000000000000000000000000000000000008160200135115b806200063b57507f00000000000000000000000000000000000000000000000000000000000000008160400135115b156200065a5760405163cd4e616760e01b815260040160405180910390fd5b8035600755602081013560085560400135600955565b6060600b805480602002602001604051908101604052809291908181526020018280548015620006ca57602002820191906000526020600020905b81546001600160a01b03168152600190910190602001808311620006ab575b5050505050905090565b6000546001600160a01b03163314620006ff576040516282b42960e81b815260040160405180910390fd5b6001600160a01b0381166200071357600080fd5b600580546001600160a01b0319166001600160a01b0383169081179091556040517f03aa5b0fb65014eea89fda04a7bc11742014881f3c078f2c75b7226ce10d941890600090a250565b600080600c805480602002602001604051908101604052809291908181526020018280548015620007b857602002820191906000526020600020905b81546001600160a01b0316815260019091019060200180831162000799575b5050505050905060608190506000620007d58983898989620009da565b9998505050505050505050565b6060600c805480602002602001604051908101604052809291908181526020018280548015620006ca576020028201919060005260206000209081546001600160a01b03168152600190910190602001808311620006ab575050505050905090565b6000546001600160a01b031633146200086f576040516282b42960e81b815260040160405180910390fd5b6200052b600b838362000ec0565b6000546001600160a01b03163314620008a8576040516282b42960e81b815260040160405180910390fd5b600080546001600160a01b0319166001600160a01b038316908117825560405190917f9d3e522e1e47a2f6009739342b9cc7b252a1888154e843ab55ee1c81745795ab91a250565b6000546001600160a01b031633146200091b576040516282b42960e81b815260040160405180910390fd5b600a80546001600160a01b0319166001600160a01b0383169081179091556040517fe5693914d19c789bdee50a362998c0bc8d035a835f9871da5d51152f0582c34f90600090a250565b6000546001600160a01b0316331462000990576040516282b42960e81b815260040160405180910390fd5b600480546001600160a01b0319166001600160a01b0383169081179091556040517ff3e07b4bb4394f2ff320bd1dd151551dff304d5e948b401d8558b228482c97d890600090a250565b60003415620009fc57604051638fbc3bd960e01b815260040160405180910390fd5b600a546001600160a01b039081166101008801523060e0880152604080516060810182526007548152600854602082015260095491810191909152610120880152600654600554909116600062000a568989858562000e56565b90506000600360009054906101000a90046001600160a01b03166001600160a01b031663e3420f4f8b8487878e6040518663ffffffff1660e01b815260040162000aa5959493929190620014ae565b6020604051808303816000875af115801562000ac5573d6000803e3d6000fd5b505050506040513d601f19601f8201168201806040525081019062000aeb919062001502565b905060015460026000836001600160a01b03166001600160a01b0316815260200190815260200160002081905550600460009054906101000a90046001600160a01b03168a60e001906001600160a01b031690816001600160a01b0316815250506001547fc6f4867fb04085fae8d5bc8a6eb6bd83992441fe62b92acc3710f0cedf0e753a828c86888e60405162000b8895949392919062001522565b60405180910390a289516040516323b872dd60e01b8152336004820152306024820152604481018a90526001600160a01b03909116906323b872dd906064016020604051808303816000875af115801562000be7573d6000803e3d6000fd5b505050506040513d601f19601f8201168201806040525081019062000c0d91906200156b565b50895160405163095ea7b360e01b81526001600160a01b03838116600483015260001960248301529091169063095ea7b3906044016020604051808303816000875af115801562000c62573d6000803e3d6000fd5b505050506040513d601f19601f8201168201806040525081019062000c8891906200156b565b62000ca6576040516340b27c2160e11b815260040160405180910390fd5b60408051606081018252338152600160208201528082018890529051631df417fd60e21b81526001600160a01b038316916377d05ff49162000cf0918c918c91906004016200158f565b6020604051808303816000875af115801562000d10573d6000803e3d6000fd5b505050506040513d601f19601f8201168201806040525081019062000d36919062001615565b5060005b600b5481101562000de457816001600160a01b0316637180c8ca600b838154811062000d6a5762000d6a6200162f565b60009182526020909120015460405160e083901b6001600160e01b03191681526001600160a01b03909116600482015260016024820152604401600060405180830381600087803b15801562000dbf57600080fd5b505af115801562000dd4573d6000803e3d6000fd5b5050505080600101905062000d3a565b506004805460405163ab033ea960e01b81526001600160a01b039182169281019290925282169063ab033ea990602401600060405180830381600087803b15801562000e2f57600080fd5b505af115801562000e44573d6000803e3d6000fd5b50929c9b505050505050505050505050565b60008483837f000000000000000000000000000000000000000000000000000000000000000060405162000e8a9062000f28565b62000e99949392919062001645565b604051809103906000f08015801562000eb6573d6000803e3d6000fd5b5095945050505050565b82805482825590600052602060002090810192821562000f16579160200282015b8281111562000f165781546001600160a01b0319166001600160a01b0384351617825560209092019160019091019062000ee1565b5062000f2492915062000f36565b5090565b612a86806200167f83390190565b5b8082111562000f24576000815560010162000f37565b6001600160a01b038116811462000f6357600080fd5b50565b60006020828403121562000f7957600080fd5b813562000f868162000f4d565b9392505050565b6000806020838503121562000fa157600080fd5b823567ffffffffffffffff8082111562000fba57600080fd5b818501915085601f83011262000fcf57600080fd5b81358181111562000fdf57600080fd5b8660208260051b850101111562000ff557600080fd5b60209290920196919550909350505050565b6000602082840312156200101a57600080fd5b5035919050565b6000606082840312156200103457600080fd5b50919050565b8035620010478162000f4d565b919050565b6020808252825182820181905260009190848201906040850190845b818110156200108f5783516001600160a01b03168352928401929184019160010162001068565b50909695505050505050565b634e487b7160e01b600052604160045260246000fd5b604051610180810167ffffffffffffffff81118282101715620010d857620010d86200109b565b60405290565b604051601f8201601f1916810167ffffffffffffffff811182821017156200110a576200110a6200109b565b604052919050565b6000606082840312156200112557600080fd5b6040516060810181811067ffffffffffffffff821117156200114b576200114b6200109b565b80604052508091508235815260208301356020820152604083013560408201525092915050565b600082601f8301126200118457600080fd5b8135602067ffffffffffffffff821115620011a357620011a36200109b565b8160051b620011b4828201620010de565b9283528481018201928281019087851115620011cf57600080fd5b83870192505b84831015620011f057823582529183019190830190620011d5565b979650505050505050565b600082601f8301126200120d57600080fd5b813567ffffffffffffffff8111156200122a576200122a6200109b565b6200123f601f8201601f1916602001620010de565b8181528460208386010111156200125557600080fd5b816020850160208301376000918101602001919091529392505050565b60008060008060008587036102408112156200128d57600080fd5b6101c0808212156200129e57600080fd5b620012a8620010b1565b9150620012b5886200103a565b82526020880135602083015260408801356040830152606088013560608301526080880135608083015260a088013560a083015260c088013560c08301526200130160e089016200103a565b60e083015261010062001316818a016200103a565b908301526101206200132b8a8a830162001112565b908301526101808801356101408301526101a088013561016083015290955086013567ffffffffffffffff808211156200136457600080fd5b6200137289838a0162001172565b95506101e0880135945061020088013593506102208801359150808211156200139a57600080fd5b50620013a988828901620011fb565b9150509295509295909350565b80516001600160a01b031682526020810151602083015260408101516040830152606081015160608301526080810151608083015260a081015160a083015260c081015160c083015260e08101516200141a60e08401826001600160a01b03169052565b50610100818101516001600160a01b0381168483015250506101208181015180518483015260208101516101408501526040810151610160850152505061014081015161018083015261016001516101a090910152565b600081518084526020808501945080840160005b83811015620014a35781518752958201959082019060010162001485565b509495945050505050565b6000610240620014bf8389620013b6565b6001600160a01b038781166101c08501526101e0840187905285166102008401526102208301819052620014f68184018562001471565b98975050505050505050565b6000602082840312156200151557600080fd5b815162000f868162000f4d565b6001600160a01b03868116825260009061024090620015456020850189620013b6565b8087166101e0850152508461020084015280610220840152620014f68184018562001471565b6000602082840312156200157e57600080fd5b8151801515811462000f8657600080fd5b8381526000602084818401526060604084015260018060a01b03845116606084015280840151151560808401526040840151606060a085015280518060c086015260005b81811015620015f15782810184015186820160e001528301620015d3565b50600060e0828701015260e0601f19601f8301168601019350505050949350505050565b6000602082840312156200162857600080fd5b5051919050565b634e487b7160e01b600052603260045260246000fd5b6102208101620016568287620013b6565b6101c08201949094526001600160a01b039283166101e082015291166102009091015291905056fe61026060405260016000553480156200001757600080fd5b5060405162002a8638038062002a868339810160408190526200003a91620002bc565b6001600160a01b0380831660805260a084905284511660c052604084015184908490849083906103e8111562000083576040516349db44f560e01b815260040160405180910390fd5b60408101516101605260608101516101805260a0810151600003620000bb57604051635428734d60e01b815260040160405180910390fd5b60a08101805160e0525160808201511080620000eb57508060a001518160800151620000e89190620003c2565b15155b156200010a5760405163253fffcf60e11b815260040160405180910390fd5b608081015161010090815260c082015161012090815260208301516101405260e0830151601180546001600160a01b0319166001600160a01b03928316179055918301519091166102005281015151670de0b6b3a764000010806200017f5750670de0b6b3a764000081610120015160200151115b806200019b5750670de0b6b3a764000081610120015160400151115b15620001ba576040516322f72cc360e11b815260040160405180910390fd5b61012081018051516101a0528051602001516101c05251604001516101e0526101600151610220525050506001600160a01b03166102405250620003e5915050565b60405161018081016001600160401b03811182821017156200022e57634e487b7160e01b600052604160045260246000fd5b60405290565b80516001600160a01b03811681146200024c57600080fd5b919050565b6000606082840312156200026457600080fd5b604051606081016001600160401b03811182821017156200029557634e487b7160e01b600052604160045260246000fd5b80604052508091508251815260208301516020820152604083015160408201525092915050565b600080600080848603610220811215620002d557600080fd5b6101c080821215620002e657600080fd5b620002f0620001fc565b9150620002fd8762000234565b82526020870151602083015260408701516040830152606087015160608301526080870151608083015260a087015160a083015260c087015160c08301526200034960e0880162000234565b60e08301526101006200035e81890162000234565b90830152610120620003738989830162000251565b908301526101808701516101408301526101a08701516101608301528601519094509250620003a66101e0860162000234565b9150620003b7610200860162000234565b905092959194509250565b600082620003e057634e487b7160e01b600052601260045260246000fd5b500690565b60805160a05160c05160e05161010051610120516101405161016051610180516101a0516101c0516101e0516102005161022051610240516125bd620004c96000396000818161035c0152610feb01526000610a63015260006109b301526000610a2c01526000610a07015260006109e40152600061090d0152600081816108e801526111260152600081816108be0152611100015260008181610983015261114c01526000818161093701526115b901526000818161095d01526118450152600081816108990152610bc401526000610c1701526000610b8401526125bd6000f3fe608060405234801561001057600080fd5b506004361061012b5760003560e01c8063bd85b039116100ad578063c905a4b511610071578063c905a4b514610295578063cc962f8e1461029d578063d8165743146102c0578063e985e9c5146102d5578063fba56008146102e857600080fd5b8063bd85b0391461024a578063becee9c31461025d578063c45a01551461027d578063c55dae6314610285578063c69e16ad1461028d57600080fd5b80634e41a1fb116100f45780634e41a1fb146101e757806360246c88146101fa5780637ecebe001461020f578063afdac68d14610222578063b0d965801461023557600080fd5b8062ad800c1461013057806316f0115b1461015957806320fc48811461017957806321ff32a9146101b35780633656eec2146101d4575b600080fd5b61014361013e366004611e6d565b610317565b6040516101509190611ed6565b60405180910390f35b61016161034e565b6040516001600160a01b039091168152602001610150565b61018c610187366004611e6d565b610391565b6040805182516001600160801b03168152602092830151600f0b9281019290925201610150565b6101c66101c1366004611f00565b6103e3565b604051908152602001610150565b6101c66101e2366004611f3c565b610429565b6101436101f5366004611e6d565b610462565b610202610470565b6040516101509190611f68565b6101c661021d366004611ff3565b61066a565b6101c6610230366004611e6d565b610696565b61023d61087c565b604051610150919061200e565b6101c6610258366004611e6d565b610a99565b61027061026b3660046120d0565b610abb565b6040516101509190612145565b610161610b76565b610161610bb6565b6101c6610bf6565b6101c6610c10565b6102b06102ab366004611ff3565b610c48565b6040519015158152602001610150565b6102c8610c7e565b6040516101509190612189565b6102b06102e3366004612276565b610ce4565b6102f0610d28565b6040805182516001600160801b039081168252602093840151169281019290925201610150565b606061034961032583610d87565b6040516020016103359190611ed6565b604051602081830303815290604052610eb5565b919050565b604080516001600160a01b037f000000000000000000000000000000000000000000000000000000000000000016602082015260009161038e9101610335565b90565b6040805180820190915260008082526020820152610349600e600084815260200190815260200160002060405160200161033591546001600160801b038116825260801d600f0b602082015260400190565b60008381526004602090815260408083206001600160a01b03868116855290835281842090851684528252808320548151928301526104229101610335565b9392505050565b60008281526001602090815260408083206001600160a01b038516845282528083205481519283015261045c9101610335565b92915050565b606061034961032583610ed9565b6104db604051806101a00160405280600081526020016000815260200160008152602001600081526020016000815260200160008152602001600081526020016000815260200160008152602001600081526020016000815260200160008152602001600081525090565b60006104e5610fcb565b600d5460026020527f3ccfbaf375b4885450e3887dab0704e32e03acfeaf0442976372f6750e322c1f5460008080527fac33ff75c19e70fe83507db0d683fd3465c996598dc972688b7ace676c89077b54939450926001600160801b039092169161055091906122cc565b61055a91906122df565b9050600080831161056c576000610587565b6105878361058161057c86611063565b6111c9565b90611437565b604080516101a0810182526008546001600160801b038082168352600954600f0b6020840152600160801b918290048116938301939093526060820186905260808201879052600a5480841660a0840152600b5480851660c085015290829004841660e08401528190048316610100830152600d54808416610120840152049091166101408201529091506000906101608101841561062f5761062a848661144c565b610632565b60005b8152600954600160801b90046001600160801b03166020918201526040519192506106639161033591849101611f68565b5050505090565b6001600160a01b0381166000908152600760209081526040808320548151928301526103499101610335565b601354601280546000926001600160801b03600160801b8204811693911691849190839081106106c8576106c86122f2565b600091825260208083206040805180820190915292015463ffffffff8116835264010000000090046001600160e01b031690820152915061070986856122df565b9050600083156107235761071e6001856122df565b610732565b601254610732906001906122df565b60408051808201909152600080825260208201529091505b8482146107e157600060128381548110610766576107666122f2565b6000918252602090912001805490915063ffffffff1684106107b45760408051808201909152905463ffffffff8116825264010000000090046001600160e01b0316602082015290506107e1565b82156107ca576107c56001846122df565b6107d9565b6012546107d9906001906122df565b92505061074a565b805163ffffffff1660000361080957604051630a89817b60e41b815260040160405180910390fd5b600081602001516001600160e01b031685602001516001600160e01b031661083191906122df565b8251865191925060009161084e9163ffffffff90811691166122df565b905061086f61085d828461231e565b60405160200161033591815260200190565b5050505050505050919050565b610884611dcf565b60408051610180810182526001600160a01b037f0000000000000000000000000000000000000000000000000000000000000000811682527f00000000000000000000000000000000000000000000000000000000000000006020808401919091527f0000000000000000000000000000000000000000000000000000000000000000838501527f00000000000000000000000000000000000000000000000000000000000000006060808501919091527f000000000000000000000000000000000000000000000000000000000000000060808501527f000000000000000000000000000000000000000000000000000000000000000060a08501527f000000000000000000000000000000000000000000000000000000000000000060c0850152601154831660e08501527f0000000000000000000000000000000000000000000000000000000000000000909216610100840152835191820184527f000000000000000000000000000000000000000000000000000000000000000082527f0000000000000000000000000000000000000000000000000000000000000000828201527f0000000000000000000000000000000000000000000000000000000000000000828501526101208301919091526012546101408301527f0000000000000000000000000000000000000000000000000000000000000000610160830152915161038e9261033592910161200e565b6000818152600260209081526040808320548151928301526103499101610335565b606060008267ffffffffffffffff811115610ad857610ad8612332565b604051908082528060200260200182016040528015610b01578160200160208202803683370190505b50905060005b83811015610b5a576000858583818110610b2357610b236122f2565b90506020020135905060008154905080848481518110610b4557610b456122f2565b60209081029190910101525050600101610b07565b50610b6f816040516020016103359190612145565b5092915050565b604080516001600160a01b037f000000000000000000000000000000000000000000000000000000000000000016602082015260009161038e9101610335565b604080516001600160a01b037f000000000000000000000000000000000000000000000000000000000000000016602082015260009161038e9101610335565b600061038e60105460405160200161033591815260200190565b600061038e7f000000000000000000000000000000000000000000000000000000000000000060405160200161033591815260200190565b6001600160a01b0381166000908152601460209081526040808320549051610349926103359260ff169101901515815260200190565b6040805161014081018252600080825260208201819052918101829052606081018290526080810182905260a0810182905260c0810182905260e08101829052610100810182905261012081019190915261038e60086040516020016103359190612348565b6001600160a01b038281166000908152600360209081526040808320938516835292815282822054835160ff909116151591810191909152909161045c9101610335565b6040805180820190915260008082526020820152604080518082018252600d546001600160801b03808216808452600160801b909204811660209384019081528451938401929092529051169181019190915261038e90606001610335565b606060f882901c6001600160f81b0383166000610da382611461565b90506000836003811115610db957610db96122a0565b03610deb576040518060400160405280600d81526020016c048797065726472697665204c5609c1b8152509350610ead565b6001836003811115610dff57610dff6122a0565b03610e2b5780604051602001610e1591906123c9565b6040516020818303038152906040529350610ead565b6002836003811115610e3f57610e3f6122a0565b03610e555780604051602001610e159190612402565b6003836003811115610e6957610e696122a0565b03610ead576040517f48797065726472697665205769746864726177616c20536861726500000000006020820152603b015b60405160208183030381529060405293505b505050919050565b80604051636e64089360e11b8152600401610ed09190611ed6565b60405180910390fd5b606060f882901c6001600160f81b0383166000610ef582611461565b90506000836003811115610f0b57610f0b6122a0565b03610f3d576040518060400160405280600d81526020016c0485950455244524956452d4c5609c1b8152509350610ead565b6001836003811115610f5157610f516122a0565b03610f675780604051602001610e15919061243c565b6002836003811115610f7b57610f7b6122a0565b03610f915780604051602001610e159190612474565b6003836003811115610fa557610fa56122a0565b03610ead576040516c485950455244524956452d575360981b6020820152602d01610e9b565b6040516303d1689d60e11b8152670de0b6b3a764000060048201526000907f00000000000000000000000000000000000000000000000000000000000000006001600160a01b0316906307a2d13a90602401602060405180830381865afa15801561103a573d6000803e3d6000fd5b505050506040513d601f19601f8201168201806040525081019061105e91906124a0565b905090565b6110c060405180610160016040528060008152602001600081526020016000815260200160008152602001600081526020016000815260200160008152602001600081526020016000815260200160008152602001600081525090565b60408051610160810182526008546001600160801b038082168352600954600f0b6020840152600160801b909104811692820192909252606081018490527f000000000000000000000000000000000000000000000000000000000000000060808201527f000000000000000000000000000000000000000000000000000000000000000060a08201527f000000000000000000000000000000000000000000000000000000000000000060c0820152600a54821660e0820152600b54909161010083019161118f911661156e565b8152600a546001600160801b03600160801b9182900481166020840152600b546040909301926111c19290041661156e565b905292915050565b6000806111e983610140015184610120015161143790919063ffffffff16565b61010084015160e08501516111fd91611437565b61120791906124b9565b9050600061121d846000015185602001516115e4565b905060008213156112bd57600061125f8286604001518760a001518860c00151670de0b6b3a764000061125091906122df565b89606001518a60800151611601565b905061126b81846116a1565b905080156112b7576112a4828660400151838860c00151670de0b6b3a764000061129591906122df565b89606001518a608001516116b6565b855186906112b39083906122df565b9052505b50611379565b6000821215611379576112cf826124d9565b915060006113038286604001518760c00151670de0b6b3a76400006112f491906122df565b886060015189608001516116f5565b905061130f81846116a1565b9050801561135b57611348828660400151838860c00151670de0b6b3a764000061133991906122df565b89606001518a6080015161178b565b855186906113579083906122cc565b9052505b61136581846122df565b855186906113749083906122cc565b905250505b60006113a8856101000151670de0b6b3a764000061139791906122df565b606087015160e08801519190611820565b6113d6866101400151670de0b6b3a76400006113c491906122df565b60608801516101208901519190611820565b6113e091906124b9565b905060008186600001516113f491906124f5565b90508560a0015181121561141b5760405163aeeb825d60e01b815260040160405180910390fd5b80865260a086015161142d90826122df565b9695505050505050565b60006104228383670de0b6b3a7640000611820565b600061042283670de0b6b3a764000084611820565b60408051604d808252608082019092526060919060009082602082018180368337019050509050611493600a85612515565b61149e9060306122cc565b60f81b816114ad6001856122df565b815181106114bd576114bd6122f2565b60200101906001600160f81b031916908160001a9053506114df600a8561231e565b935060015b8415611560576114f5600a86612515565b6115009060306122cc565b60f81b82600161151084876122df565b61151a91906122df565b8151811061152a5761152a6122f2565b60200101906001600160f81b031916908160001a90535061154c600a8661231e565b94508061155881612529565b9150506114e4565b918290030190815292915050565b600080670de0b6b3a764000061158261183e565b61158c9190612542565b905080831161159c5760006115a6565b6115a681846122df565b91506104226115dd670de0b6b3a76400007f0000000000000000000000000000000000000000000000000000000000000000612542565b839061144c565b6000806115f183856124b9565b9050600081121561042257600080fd5b6000806116118888878787611874565b9050600061163461162c87611626878b6118a3565b906118b8565b86908661190f565b61163e90836122df565b9050670de0b6b3a764000081106116725761166b611664670de0b6b3a76400008861144c565b82906118b8565b905061168a565b611687611664670de0b6b3a764000088611935565b90505b61169488826122df565b9998505050505050505050565b60008183116116b05782610422565b50919050565b6000806116c788888888888861194a565b9092509050806116ea57604051637ac17d2560e01b815260040160405180910390fd5b509695505050505050565b6000806117058787878787611a0c565b90506000611730670de0b6b3a764000061171f878761144c565b61172991906122cc565b8390611935565b9050670de0b6b3a7640000811061175d57611756611664670de0b6b3a764000088611935565b9050611775565b611772611664670de0b6b3a76400008861144c565b90505b61177f81886122df565b98975050505050505050565b60008061179b8888878787611a0c565b90506117ab85611626888a6122df565b965060006117c584866117be8b866122df565b919061190f565b9050670de0b6b3a764000081106117f2576117eb611664670de0b6b3a764000088611935565b905061180a565b611807611664670de0b6b3a76400008861144c565b90505b6118148185611935565b905061169489826122df565b600082600019048411830215820261183757600080fd5b5091020490565b600061186a7f000000000000000000000000000000000000000000000000000000000000000042612515565b61105e90426122df565b600061188085856118b8565b61189961189186611626868b611437565b859085611820565b61142d91906122cc565b60006104228383670de0b6b3a764000061190f565b6000816000036118d15750670de0b6b3a764000061045c565b826000036118e15750600061045c565b8160006118ed85611a31565b9050818102611904670de0b6b3a764000082612559565b905061142d81611c44565b600082600019048411830215820261192657600080fd5b50910281810615159190040190565b600061042283670de0b6b3a76400008461190f565b600080600061195c8989888888611a0c565b905061196c86611626898b6122cc565b975087811015611983576000809250925050611a01565b600061199485876117be8c866122df565b9050670de0b6b3a764000081106119c1576119ba611664670de0b6b3a764000089611935565b90506119d9565b6119d6611664670de0b6b3a76400008961144c565b90505b6119e38186611935565b9050808a11156119fa576119f7818b6122df565b93505b6001925050505b965096945050505050565b6000611a1885856118b8565b611899611a2986611626868b6118a3565b85908561190f565b6000808213611a5357604051636838feed60e11b815260040160405180910390fd5b5060606001600160801b03821160071b82811c67ffffffffffffffff1060061b1782811c63ffffffff1060051b1782811c61ffff1060041b1782811c60ff10600390811b90911783811c600f1060021b1783811c909110600190811b90911783811c90911017609f81810383019390931b90921c6c465772b2bbbb5f824b15207a3081018102821d6d0388eaa27412d5aca026815d636e018102821d6d0df99ac502031bf953eff472fdcc018102821d6d13cdffb29d51d99322bdff5f2211018102821d6d0a0f742023def783a307a986912e018102821d6d01920d8043ca89b5239253284e42018102821d6c0b7a86d7375468fac667a0a527016c29508e458543d8aa4df2abee7882018202831d6d0139601a2efabe717e604cbb4894018202831d6d02247f7a7b6594320649aa03aba1018202831d6c8c3f38e95a6b1ff2ab1c3b343619018202831d6d02384773bdf1ac5676facced60901901820290921d6cb9a025d814b29c212b8b1a07cd190102780a09507084cc699bb0e71ea869ffffffffffffffffffffffff190105711340daa0d5f769dba1915cef59f0815a550602605f19919091017d0267a36c0c95b3975ab3ee5b203a7614a3f75373f047d803ae7b6687f2b302017d57115e47018c7177eebf7cd370a3356a1b7863008a5ae8028c72b88642840160ae1d90565b6000680248ce36a70cb26b3e198213611c5f57506000919050565b680755bf798b4a1bf1e58212611c885760405163df92cc9d60e01b815260040160405180910390fd5b6503782dace9d9604e83901b059150600060606bb17217f7d1cf79abc9e3b39884821b056001605f1b01901d6bb17217f7d1cf79abc9e3b39881029093036c240c330e9fb2d9cbaf0fd5aafb1981018102606090811d6d0277594991cfc85f6e2461837cd9018202811d6d1a521255e34f6a5061b25ef1c9c319018202811d6db1bbb201f443cf962f1a1d3db4a5018202811d6e02c72388d9f74f51a9331fed693f1419018202811d6e05180bb14799ab47a8a8cb2a527d57016d02d16720577bd19bf614176fe9ea6c10fe68e7fd37d0007b713f765084018402831d9081019084016d01d3967ed30fc4f89c02bab5708119010290911d6e0587f503bb6ea29d25fcb740196450019091026d360d7aeea093263ecc6e0ecb291760621b010574029d9dc38563c32e5c2f6dc192ee70ef65f9978af30260c3939093039290921c92915050565b60405180610180016040528060006001600160a01b0316815260200160008152602001600081526020016000815260200160008152602001600081526020016000815260200160006001600160a01b0316815260200160006001600160a01b03168152602001611e5960405180606001604052806000815260200160008152602001600081525090565b815260200160008152602001600081525090565b600060208284031215611e7f57600080fd5b5035919050565b60005b83811015611ea1578181015183820152602001611e89565b50506000910152565b60008151808452611ec2816020860160208601611e86565b601f01601f19169290920160200192915050565b6020815260006104226020830184611eaa565b80356001600160a01b038116811461034957600080fd5b600080600060608486031215611f1557600080fd5b83359250611f2560208501611ee9565b9150611f3360408501611ee9565b90509250925092565b60008060408385031215611f4f57600080fd5b82359150611f5f60208401611ee9565b90509250929050565b815181526020808301519082015260408083015190820152606080830151908201526080808301519082015260a0808301519082015260c0808301519082015260e08083015190820152610100808301519082015261012080830151908201526101408083015190820152610160808301519082015261018091820151918101919091526101a00190565b60006020828403121561200557600080fd5b61042282611ee9565b81516001600160a01b031681526101c081016020830151602083015260408301516040830152606083015160608301526080830151608083015260a083015160a083015260c083015160c083015260e083015161207660e08401826001600160a01b03169052565b50610100838101516001600160a01b03811684830152505061012083810151805184830152602081015161014085015260408101516101608501525050610140830151610180830152610160909201516101a09091015290565b600080602083850312156120e357600080fd5b823567ffffffffffffffff808211156120fb57600080fd5b818501915085601f83011261210f57600080fd5b81358181111561211e57600080fd5b8660208260051b850101111561213357600080fd5b60209290920196919550909350505050565b6020808252825182820181905260009190848201906040850190845b8181101561217d57835183529284019291840191600101612161565b50909695505050505050565b81516001600160801b03168152610140810160208301516121b560208401826001600160801b03169052565b5060408301516121ca6040840182600f0b9052565b5060608301516121e560608401826001600160801b03169052565b50608083015161220060808401826001600160801b03169052565b5060a083015161221b60a08401826001600160801b03169052565b5060c083015161223660c08401826001600160801b03169052565b5060e083015161225160e08401826001600160801b03169052565b506101008381015115159083015261012080840151801515828501525b505092915050565b6000806040838503121561228957600080fd5b61229283611ee9565b9150611f5f60208401611ee9565b634e487b7160e01b600052602160045260246000fd5b634e487b7160e01b600052601160045260246000fd5b8082018082111561045c5761045c6122b6565b8181038181111561045c5761045c6122b6565b634e487b7160e01b600052603260045260246000fd5b634e487b7160e01b600052601260045260246000fd5b60008261232d5761232d612308565b500490565b634e487b7160e01b600052604160045260246000fd5b81546001600160801b038082168352608091821c60208401526001840154600f81900b6040850152821c6060840152600284015480821683850152821c60a0840152600384015490811660c0840152901c60e0820152600482015460ff8082161515610100840152600882901c161515610120830152610140820190610b6f565b700243cb832b9323934bb32902637b7339d1607d1b8152600082516123f5816011850160208701611e86565b9190910160110192915050565b710243cb832b9323934bb329029b437b93a1d160751b81526000825161242f816012850160208701611e86565b9190910160120192915050565b6f242ca822a9222924ab2296a627a7239d60811b815260008251612467816010850160208701611e86565b9190910160100192915050565b70242ca822a9222924ab2296a9a427a92a1d60791b8152600082516123f5816011850160208701611e86565b6000602082840312156124b257600080fd5b5051919050565b8181036000831280158383131683831282161715610b6f57610b6f6122b6565b6000600160ff1b82016124ee576124ee6122b6565b5060000390565b808201828112600083128015821682158216171561226e5761226e6122b6565b60008261252457612524612308565b500690565b60006001820161253b5761253b6122b6565b5060010190565b808202811582820484141761045c5761045c6122b6565b60008261256857612568612308565b600160ff1b821460001984141615612582576125826122b6565b50059056fea26469706673582212202d03121fd1fa8d3412498643db31ee184a08e88abd268e3207bf7994bd5be89d64736f6c63430008130033a26469706673582212200bdc67876c45b80f03a8a59edd7c3a574fe883884defe17647742554cd07569e64736f6c63430008130033",
    "linkReferences": {}
  },
  "methodIdentifiers": {
    "deployAndInitialize((address,uint256,uint256,uint256,uint256,uint256,uint256,address,address,(uint256,uint256,uint256),uint256,uint256),bytes32[],uint256,uint256,bytes)": "8ea20ee6",
    "feeCollector()": "c415b95c",
    "fees()": "9af1d35a",
    "getDefaultPausers()": "7f7c5a7d",
    "getSweepTargets()": "94ad46d9",
    "governance()": "5aa6e675",
    "hyperdriveDeployer()": "03a5aa92",
    "hyperdriveGovernance()": "e3331555",
    "isOfficial(address)": "77b81aac",
    "linkerCodeHash()": "c905a4b5",
    "linkerFactory()": "99623bb1",
    "updateDefaultPausers(address[])": "9af25262",
    "updateFeeCollector(address)": "d2c35ce8",
    "updateFees((uint256,uint256,uint256))": "7613b08c",
    "updateGovernance(address)": "b2561263",
    "updateHyperdriveGovernance(address)": "dd2b8fbb",
    "updateImplementation(address)": "025b22bc",
    "updateLinkerCodeHash(bytes32)": "4fbfee77",
    "updateLinkerFactory(address)": "85229785",
    "updateSweepTargets(address[])": "09b9075f",
    "versionCounter()": "dd6d30c1"
  },
  "id": 10
}