{
  "abi": [
    {
      "inputs": [
        {
          "components": [
            {
              "internalType": "address",
              "name": "governance",
              "type": "address"
            },
            {
              "internalType": "address",
              "name": "hyperdriveGovernance",
              "type": "address"
            },
            {
              "internalType": "address",
              "name": "feeCollector",
              "type": "address"
            },
            {
              "components": [
                {
                  "internalType": "uint256",
                  "name": "curve",
                  "type": "uint256"
                },
                {
                  "internalType": "uint256",
                  "name": "flat",
                  "type": "uint256"
                },
                {
                  "internalType": "uint256",
                  "name": "governance",
                  "type": "uint256"
                }
              ],
              "internalType": "struct IHyperdrive.Fees",
              "name": "fees",
              "type": "tuple"
            },
            {
              "components": [
                {
                  "internalType": "uint256",
                  "name": "curve",
                  "type": "uint256"
                },
                {
                  "internalType": "uint256",
                  "name": "flat",
                  "type": "uint256"
                },
                {
                  "internalType": "uint256",
                  "name": "governance",
                  "type": "uint256"
                }
              ],
              "internalType": "struct IHyperdrive.Fees",
              "name": "maxFees",
              "type": "tuple"
            },
            {
              "internalType": "address[]",
              "name": "defaultPausers",
              "type": "address[]"
            }
          ],
          "internalType": "struct HyperdriveFactory.FactoryConfig",
          "name": "_factoryConfig",
          "type": "tuple"
        },
        {
          "internalType": "contract IHyperdriveDeployer",
          "name": "_deployer",
          "type": "address"
        },
        {
          "internalType": "address",
          "name": "_linkerFactory",
          "type": "address"
        },
        {
          "internalType": "bytes32",
          "name": "_linkerCodeHash",
          "type": "bytes32"
        },
        {
          "internalType": "contract IERC4626",
          "name": "_pool",
          "type": "address"
        },
        {
          "internalType": "address[]",
          "name": "_sweepTargets_",
          "type": "address[]"
        }
      ],
      "stateMutability": "nonpayable",
      "type": "constructor"
    },
    {
      "inputs": [],
      "name": "ApprovalFailed",
      "type": "error"
    },
    {
      "inputs": [],
      "name": "FeeTooHigh",
      "type": "error"
    },
    {
      "inputs": [],
      "name": "MaxFeeTooHigh",
      "type": "error"
    },
    {
      "inputs": [],
      "name": "NonPayableInitialization",
      "type": "error"
    },
    {
      "inputs": [],
      "name": "Unauthorized",
      "type": "error"
    },
    {
      "anonymous": false,
      "inputs": [
        {
          "indexed": true,
          "internalType": "uint256",
          "name": "version",
          "type": "uint256"
        },
        {
          "indexed": false,
          "internalType": "address",
          "name": "hyperdrive",
          "type": "address"
        },
        {
          "components": [
            {
              "internalType": "contract IERC20",
              "name": "baseToken",
              "type": "address"
            },
            {
              "internalType": "uint256",
              "name": "initialSharePrice",
              "type": "uint256"
            },
            {
              "internalType": "uint256",
              "name": "minimumShareReserves",
              "type": "uint256"
            },
            {
              "internalType": "uint256",
              "name": "positionDuration",
              "type": "uint256"
            },
            {
              "internalType": "uint256",
              "name": "checkpointDuration",
              "type": "uint256"
            },
            {
              "internalType": "uint256",
              "name": "timeStretch",
              "type": "uint256"
            },
            {
              "internalType": "address",
              "name": "governance",
              "type": "address"
            },
            {
              "internalType": "address",
              "name": "feeCollector",
              "type": "address"
            },
            {
              "components": [
                {
                  "internalType": "uint256",
                  "name": "curve",
                  "type": "uint256"
                },
                {
                  "internalType": "uint256",
                  "name": "flat",
                  "type": "uint256"
                },
                {
                  "internalType": "uint256",
                  "name": "governance",
                  "type": "uint256"
                }
              ],
              "internalType": "struct IHyperdrive.Fees",
              "name": "fees",
              "type": "tuple"
            },
            {
              "internalType": "uint256",
              "name": "oracleSize",
              "type": "uint256"
            },
            {
              "internalType": "uint256",
              "name": "updateGap",
              "type": "uint256"
            }
          ],
          "indexed": false,
          "internalType": "struct IHyperdrive.PoolConfig",
          "name": "config",
          "type": "tuple"
        },
        {
          "indexed": false,
          "internalType": "address",
          "name": "linkerFactory",
          "type": "address"
        },
        {
          "indexed": false,
          "internalType": "bytes32",
          "name": "linkerCodeHash",
          "type": "bytes32"
        },
        {
          "indexed": false,
          "internalType": "bytes32[]",
          "name": "extraData",
          "type": "bytes32[]"
        }
      ],
      "name": "Deployed",
      "type": "event"
    },
    {
      "anonymous": false,
      "inputs": [
        {
          "indexed": true,
          "internalType": "address",
          "name": "newFeeCollector",
          "type": "address"
        }
      ],
      "name": "FeeCollectorUpdated",
      "type": "event"
    },
    {
      "anonymous": false,
      "inputs": [
        {
          "indexed": true,
          "internalType": "address",
          "name": "governance",
          "type": "address"
        }
      ],
      "name": "GovernanceUpdated",
      "type": "event"
    },
    {
      "anonymous": false,
      "inputs": [
        {
          "indexed": true,
          "internalType": "address",
          "name": "hyperdriveGovernance",
          "type": "address"
        }
      ],
      "name": "HyperdriveGovernanceUpdated",
      "type": "event"
    },
    {
      "anonymous": false,
      "inputs": [
        {
          "indexed": true,
          "internalType": "address",
          "name": "newDeployer",
          "type": "address"
        }
      ],
      "name": "ImplementationUpdated",
      "type": "event"
    },
    {
      "anonymous": false,
      "inputs": [
        {
          "indexed": true,
          "internalType": "bytes32",
          "name": "newCodeHash",
          "type": "bytes32"
        }
      ],
      "name": "LinkerCodeHashUpdated",
      "type": "event"
    },
    {
      "anonymous": false,
      "inputs": [
        {
          "indexed": true,
          "internalType": "address",
          "name": "newLinkerFactory",
          "type": "address"
        }
      ],
      "name": "LinkerFactoryUpdated",
      "type": "event"
    },
    {
      "inputs": [
        {
          "components": [
            {
              "internalType": "contract IERC20",
              "name": "baseToken",
              "type": "address"
            },
            {
              "internalType": "uint256",
              "name": "initialSharePrice",
              "type": "uint256"
            },
            {
              "internalType": "uint256",
              "name": "minimumShareReserves",
              "type": "uint256"
            },
            {
              "internalType": "uint256",
              "name": "positionDuration",
              "type": "uint256"
            },
            {
              "internalType": "uint256",
              "name": "checkpointDuration",
              "type": "uint256"
            },
            {
              "internalType": "uint256",
              "name": "timeStretch",
              "type": "uint256"
            },
            {
              "internalType": "address",
              "name": "governance",
              "type": "address"
            },
            {
              "internalType": "address",
              "name": "feeCollector",
              "type": "address"
            },
            {
              "components": [
                {
                  "internalType": "uint256",
                  "name": "curve",
                  "type": "uint256"
                },
                {
                  "internalType": "uint256",
                  "name": "flat",
                  "type": "uint256"
                },
                {
                  "internalType": "uint256",
                  "name": "governance",
                  "type": "uint256"
                }
              ],
              "internalType": "struct IHyperdrive.Fees",
              "name": "fees",
              "type": "tuple"
            },
            {
              "internalType": "uint256",
              "name": "oracleSize",
              "type": "uint256"
            },
            {
              "internalType": "uint256",
              "name": "updateGap",
              "type": "uint256"
            }
          ],
          "internalType": "struct IHyperdrive.PoolConfig",
          "name": "_config",
          "type": "tuple"
        },
        {
          "internalType": "bytes32[]",
          "name": "",
          "type": "bytes32[]"
        },
        {
          "internalType": "uint256",
          "name": "_contribution",
          "type": "uint256"
        },
        {
          "internalType": "uint256",
          "name": "_apr",
          "type": "uint256"
        }
      ],
      "name": "deployAndInitialize",
      "outputs": [
        {
          "internalType": "contract IHyperdrive",
          "name": "",
          "type": "address"
        }
      ],
      "stateMutability": "payable",
      "type": "function"
    },
    {
      "inputs": [],
      "name": "feeCollector",
      "outputs": [
        {
          "internalType": "address",
          "name": "",
          "type": "address"
        }
      ],
      "stateMutability": "view",
      "type": "function"
    },
    {
      "inputs": [],
      "name": "fees",
      "outputs": [
        {
          "internalType": "uint256",
          "name": "curve",
          "type": "uint256"
        },
        {
          "internalType": "uint256",
          "name": "flat",
          "type": "uint256"
        },
        {
          "internalType": "uint256",
          "name": "governance",
          "type": "uint256"
        }
      ],
      "stateMutability": "view",
      "type": "function"
    },
    {
      "inputs": [],
      "name": "getDefaultPausers",
      "outputs": [
        {
          "internalType": "address[]",
          "name": "",
          "type": "address[]"
        }
      ],
      "stateMutability": "view",
      "type": "function"
    },
    {
      "inputs": [],
      "name": "getSweepTargets",
      "outputs": [
        {
          "internalType": "address[]",
          "name": "",
          "type": "address[]"
        }
      ],
      "stateMutability": "view",
      "type": "function"
    },
    {
      "inputs": [],
      "name": "governance",
      "outputs": [
        {
          "internalType": "address",
          "name": "",
          "type": "address"
        }
      ],
      "stateMutability": "view",
      "type": "function"
    },
    {
      "inputs": [],
      "name": "hyperdriveDeployer",
      "outputs": [
        {
          "internalType": "contract IHyperdriveDeployer",
          "name": "",
          "type": "address"
        }
      ],
      "stateMutability": "view",
      "type": "function"
    },
    {
      "inputs": [],
      "name": "hyperdriveGovernance",
      "outputs": [
        {
          "internalType": "address",
          "name": "",
          "type": "address"
        }
      ],
      "stateMutability": "view",
      "type": "function"
    },
    {
      "inputs": [
        {
          "internalType": "address",
          "name": "instance",
          "type": "address"
        }
      ],
      "name": "isOfficial",
      "outputs": [
        {
          "internalType": "uint256",
          "name": "version",
          "type": "uint256"
        }
      ],
      "stateMutability": "view",
      "type": "function"
    },
    {
      "inputs": [],
      "name": "linkerCodeHash",
      "outputs": [
        {
          "internalType": "bytes32",
          "name": "",
          "type": "bytes32"
        }
      ],
      "stateMutability": "view",
      "type": "function"
    },
    {
      "inputs": [],
      "name": "linkerFactory",
      "outputs": [
        {
          "internalType": "address",
          "name": "",
          "type": "address"
        }
      ],
      "stateMutability": "view",
      "type": "function"
    },
    {
      "inputs": [
        {
          "internalType": "address[]",
          "name": "_defaultPausers_",
          "type": "address[]"
        }
      ],
      "name": "updateDefaultPausers",
      "outputs": [],
      "stateMutability": "nonpayable",
      "type": "function"
    },
    {
      "inputs": [
        {
          "internalType": "address",
          "name": "_feeCollector",
          "type": "address"
        }
      ],
      "name": "updateFeeCollector",
      "outputs": [],
      "stateMutability": "nonpayable",
      "type": "function"
    },
    {
      "inputs": [
        {
          "components": [
            {
              "internalType": "uint256",
              "name": "curve",
              "type": "uint256"
            },
            {
              "internalType": "uint256",
              "name": "flat",
              "type": "uint256"
            },
            {
              "internalType": "uint256",
              "name": "governance",
              "type": "uint256"
            }
          ],
          "internalType": "struct IHyperdrive.Fees",
          "name": "_fees",
          "type": "tuple"
        }
      ],
      "name": "updateFees",
      "outputs": [],
      "stateMutability": "nonpayable",
      "type": "function"
    },
    {
      "inputs": [
        {
          "internalType": "address",
          "name": "_governance",
          "type": "address"
        }
      ],
      "name": "updateGovernance",
      "outputs": [],
      "stateMutability": "nonpayable",
      "type": "function"
    },
    {
      "inputs": [
        {
          "internalType": "address",
          "name": "_hyperdriveGovernance",
          "type": "address"
        }
      ],
      "name": "updateHyperdriveGovernance",
      "outputs": [],
      "stateMutability": "nonpayable",
      "type": "function"
    },
    {
      "inputs": [
        {
          "internalType": "contract IHyperdriveDeployer",
          "name": "newDeployer",
          "type": "address"
        }
      ],
      "name": "updateImplementation",
      "outputs": [],
      "stateMutability": "nonpayable",
      "type": "function"
    },
    {
      "inputs": [
        {
          "internalType": "bytes32",
          "name": "_linkerCodeHash",
          "type": "bytes32"
        }
      ],
      "name": "updateLinkerCodeHash",
      "outputs": [],
      "stateMutability": "nonpayable",
      "type": "function"
    },
    {
      "inputs": [
        {
          "internalType": "address",
          "name": "_linkerFactory",
          "type": "address"
        }
      ],
      "name": "updateLinkerFactory",
      "outputs": [],
      "stateMutability": "nonpayable",
      "type": "function"
    },
    {
      "inputs": [
        {
          "internalType": "address[]",
          "name": "_sweepTargets_",
          "type": "address[]"
        }
      ],
      "name": "updateSweepTargets",
      "outputs": [],
      "stateMutability": "nonpayable",
      "type": "function"
    },
    {
      "inputs": [],
      "name": "versionCounter",
      "outputs": [
        {
          "internalType": "uint256",
          "name": "",
          "type": "uint256"
        }
      ],
      "stateMutability": "view",
      "type": "function"
    }
  ],
  "bytecode": {
    "object": "0x6101006040523480156200001257600080fd5b5060405162003f4e38038062003f4e8339810160408190526200003591620003d3565b60808087018051519182905280516020015160a052516040015160c0528690869086908690670de0b6b3a76400001080620000795750670de0b6b3a764000060a051115b806200008e5750670de0b6b3a764000060c051115b15620000ad5760405163a3932d2d60e01b815260040160405180910390fd5b6080516060850151511180620000cc575060a051846060015160200151115b80620000e1575060c051846060015160400151115b15620001005760405163cd4e616760e01b815260040160405180910390fd5b606084015180516007556020808201516008556040918201516009558551600080546001600160a01b03199081166001600160a01b03938416179091558288015160048054831691841691909117905592870151600a805490941691161790915560a085015180516200017892600b920190620001d8565b5060018055600380546001600160a01b03199081166001600160a01b03958616179091556005805490911692841692909217909155600655831660e052508051620001cb90600c906020840190620001d8565b5050505050505062000516565b82805482825590600052602060002090810192821562000230579160200282015b828111156200023057825182546001600160a01b0319166001600160a01b03909116178255602090920191600190910190620001f9565b506200023e92915062000242565b5090565b5b808211156200023e576000815560010162000243565b634e487b7160e01b600052604160045260246000fd5b60405160c081016001600160401b038111828210171562000294576200029462000259565b60405290565b6001600160a01b0381168114620002b057600080fd5b50565b8051620002c0816200029a565b919050565b600060608284031215620002d857600080fd5b604051606081016001600160401b0381118282101715620002fd57620002fd62000259565b80604052508091508251815260208301516020820152604083015160408201525092915050565b600082601f8301126200033657600080fd5b815160206001600160401b038083111562000355576200035562000259565b8260051b604051601f19603f830116810181811084821117156200037d576200037d62000259565b6040529384528581018301938381019250878511156200039c57600080fd5b83870191505b84821015620003c8578151620003b8816200029a565b83529183019190830190620003a2565b979650505050505050565b60008060008060008060c08789031215620003ed57600080fd5b86516001600160401b03808211156200040557600080fd5b90880190610140828b0312156200041b57600080fd5b620004256200026f565b825162000432816200029a565b8152602083015162000444816200029a565b60208201526200045760408401620002b3565b60408201526200046b8b60608501620002c5565b60608201526200047f8b60c08501620002c5565b6080820152610120830151828111156200049857600080fd5b620004a68c82860162000324565b60a0830152509750620004bc60208a01620002b3565b9650620004cc60408a01620002b3565b955060608901519450620004e360808a01620002b3565b935060a0890151915080821115620004fa57600080fd5b506200050989828a0162000324565b9150509295509295509295565b60805160a05160c05160e0516139fe620005506000396000610e34015260006106af015260006106800152600061065501526139fe6000f3fe608060405260043610620001435760003560e01c806394ad46d911620000b9578063c415b95c1162000078578063c415b95c14620003a3578063c905a4b514620003c5578063d2c35ce814620003dd578063dd2b8fbb1462000402578063dd6d30c11462000427578063e3331555146200043f57600080fd5b806394ad46d914620002e257806399623bb114620002fa5780639af1d35a146200031c5780639af252621462000359578063b2561263146200037e57600080fd5b80635aa6e67511620001065780635aa6e675146200020f5780637613b08c146200023157806377b81aac14620002565780637f7c5a7d14620002965780638522978514620002bd57600080fd5b8063025b22bc146200014857806303a5aa92146200016f57806309b9075f14620001ae5780634fbfee7714620001d35780635834c76014620001f8575b600080fd5b3480156200015557600080fd5b506200016d6200016736600462000f3d565b62000461565b005b3480156200017c57600080fd5b5060035462000191906001600160a01b031681565b6040516001600160a01b0390911681526020015b60405180910390f35b348015620001bb57600080fd5b506200016d620001cd36600462000f64565b62000509565b348015620001e057600080fd5b506200016d620001f236600462000fde565b62000547565b620001916200020936600462001152565b620005a5565b3480156200021c57600080fd5b5060005462000191906001600160a01b031681565b3480156200023e57600080fd5b506200016d620002503660046200125d565b62000628565b3480156200026357600080fd5b50620002876200027536600462000f3d565b60026020526000908152604090205481565b604051908152602001620001a5565b348015620002a357600080fd5b50620002ae6200070a565b604051620001a5919062001276565b348015620002ca57600080fd5b506200016d620002dc36600462000f3d565b6200076e565b348015620002ef57600080fd5b50620002ae620007f7565b3480156200030757600080fd5b5060055462000191906001600160a01b031681565b3480156200032957600080fd5b506007546008546009546200033d92919083565b60408051938452602084019290925290820152606001620001a5565b3480156200036657600080fd5b506200016d6200037836600462000f64565b62000859565b3480156200038b57600080fd5b506200016d6200039d36600462000f3d565b62000892565b348015620003b057600080fd5b50600a5462000191906001600160a01b031681565b348015620003d257600080fd5b506200028760065481565b348015620003ea57600080fd5b506200016d620003fc36600462000f3d565b62000905565b3480156200040f57600080fd5b506200016d6200042136600462000f3d565b6200097a565b3480156200043457600080fd5b506200028760015481565b3480156200044c57600080fd5b5060045462000191906001600160a01b031681565b6000546001600160a01b031633146200048c576040516282b42960e81b815260040160405180910390fd5b6001600160a01b038116620004a057600080fd5b600380546001600160a01b0319166001600160a01b03831617905560018054906000620004cd83620012c5565b90915550506040516001600160a01b038216907f310ba5f1d2ed074b51e2eccd052a47ae9ab7c6b800d1fca3db3999d6a592ca0390600090a250565b6000546001600160a01b0316331462000534576040516282b42960e81b815260040160405180910390fd5b62000542600c838362000e97565b505050565b6000546001600160a01b0316331462000572576040516282b42960e81b815260040160405180910390fd5b600681905560405181907f395a61259037298d1c4cd4bf177b64ad5995d38a9394573fcd9060d649314ad090600090a250565b600080600c8054806020026020016040519081016040528092919081815260200182805480156200060057602002820191906000526020600020905b81546001600160a01b03168152600190910190602001808311620005e1575b50505050509050606081905060006200061c88838888620009ef565b98975050505050505050565b6000546001600160a01b0316331462000653576040516282b42960e81b815260040160405180910390fd5b7f000000000000000000000000000000000000000000000000000000000000000081351180620006a657507f00000000000000000000000000000000000000000000000000000000000000008160200135115b80620006d557507f00000000000000000000000000000000000000000000000000000000000000008160400135115b15620006f45760405163cd4e616760e01b815260040160405180910390fd5b8035600755602081013560085560400135600955565b6060600b8054806020026020016040519081016040528092919081815260200182805480156200076457602002820191906000526020600020905b81546001600160a01b0316815260019091019060200180831162000745575b5050505050905090565b6000546001600160a01b0316331462000799576040516282b42960e81b815260040160405180910390fd5b6001600160a01b038116620007ad57600080fd5b600580546001600160a01b0319166001600160a01b0383169081179091556040517f03aa5b0fb65014eea89fda04a7bc11742014881f3c078f2c75b7226ce10d941890600090a250565b6060600c80548060200260200160405190810160405280929190818152602001828054801562000764576020028201919060005260206000209081546001600160a01b0316815260019091019060200180831162000745575050505050905090565b6000546001600160a01b0316331462000884576040516282b42960e81b815260040160405180910390fd5b62000542600b838362000e97565b6000546001600160a01b03163314620008bd576040516282b42960e81b815260040160405180910390fd5b600080546001600160a01b0319166001600160a01b038316908117825560405190917f9d3e522e1e47a2f6009739342b9cc7b252a1888154e843ab55ee1c81745795ab91a250565b6000546001600160a01b0316331462000930576040516282b42960e81b815260040160405180910390fd5b600a80546001600160a01b0319166001600160a01b0383169081179091556040517fe5693914d19c789bdee50a362998c0bc8d035a835f9871da5d51152f0582c34f90600090a250565b6000546001600160a01b03163314620009a5576040516282b42960e81b815260040160405180910390fd5b600480546001600160a01b0319166001600160a01b0383169081179091556040517ff3e07b4bb4394f2ff320bd1dd151551dff304d5e948b401d8558b228482c97d890600090a250565b6000341562000a1157604051638fbc3bd960e01b815260040160405180910390fd5b600a546001600160a01b0390811660e08701523060c087015260408051606081018252600754815260085460208201526009549181019190915261010087015260065460055460009262000a6a92899289921662000e2d565b600354600654600554604051633b392fc360e11b81529394506000936001600160a01b03938416936376725f869362000ab0938d938993909116908d90600401620013e0565b6020604051808303816000875af115801562000ad0573d6000803e3d6000fd5b505050506040513d601f19601f8201168201806040525081019062000af6919062001428565b6001546001600160a01b0380831660009081526002602052604090819020839055600454821660c08c0152600554600654915194955092937fb2df24ce42d3714dd0c39e37e9f9d91fb9b479178d626458aeed80ffd39bd08b9362000b669387938e9392909116918d9062001448565b60405180910390a286516040516323b872dd60e01b8152336004820152306024820152604481018790526001600160a01b03909116906323b872dd906064016020604051808303816000875af115801562000bc5573d6000803e3d6000fd5b505050506040513d601f19601f8201168201806040525081019062000beb919062001491565b50865160405163095ea7b360e01b81526001600160a01b03838116600483015260001960248301529091169063095ea7b3906044016020604051808303816000875af115801562000c40573d6000803e3d6000fd5b505050506040513d601f19601f8201168201806040525081019062000c66919062001491565b62000c84576040516340b27c2160e11b815260040160405180910390fd5b604051632002b33360e01b81526004810186905260248101859052336044820152600160648201526001600160a01b03821690632002b333906084016020604051808303816000875af115801562000ce0573d6000803e3d6000fd5b505050506040513d601f19601f8201168201806040525081019062000d069190620014b5565b5060005b600b5481101562000dbe57816001600160a01b0316637180c8ca600b838154811062000d3a5762000d3a620014cf565b60009182526020909120015460405160e083901b6001600160e01b03191681526001600160a01b03909116600482015260016024820152604401600060405180830381600087803b15801562000d8f57600080fd5b505af115801562000da4573d6000803e3d6000fd5b50505050808062000db590620012c5565b91505062000d0a565b506004805460405163ab033ea960e01b81526001600160a01b039182169281019290925282169063ab033ea990602401600060405180830381600087803b15801562000e0957600080fd5b505af115801562000e1e573d6000803e3d6000fd5b50929998505050505050505050565b60008483837f000000000000000000000000000000000000000000000000000000000000000060405162000e619062000eff565b62000e709493929190620014e5565b604051809103906000f08015801562000e8d573d6000803e3d6000fd5b5095945050505050565b82805482825590600052602060002090810192821562000eed579160200282015b8281111562000eed5781546001600160a01b0319166001600160a01b0384351617825560209092019160019091019062000eb8565b5062000efb92915062000f0d565b5090565b6124aa806200151f83390190565b5b8082111562000efb576000815560010162000f0e565b6001600160a01b038116811462000f3a57600080fd5b50565b60006020828403121562000f5057600080fd5b813562000f5d8162000f24565b9392505050565b6000806020838503121562000f7857600080fd5b823567ffffffffffffffff8082111562000f9157600080fd5b818501915085601f83011262000fa657600080fd5b81358181111562000fb657600080fd5b8660208260051b850101111562000fcc57600080fd5b60209290920196919550909350505050565b60006020828403121562000ff157600080fd5b5035919050565b634e487b7160e01b600052604160045260246000fd5b604051610160810167ffffffffffffffff8111828210171562001035576200103562000ff8565b60405290565b8035620010488162000f24565b919050565b6000606082840312156200106057600080fd5b6040516060810181811067ffffffffffffffff8211171562001086576200108662000ff8565b80604052508091508235815260208301356020820152604083013560408201525092915050565b600082601f830112620010bf57600080fd5b8135602067ffffffffffffffff80831115620010df57620010df62000ff8565b8260051b604051601f19603f8301168101818110848211171562001107576200110762000ff8565b6040529384528581018301938381019250878511156200112657600080fd5b83870191505b8482101562001147578135835291830191908301906200112c565b979650505050505050565b6000806000808486036102008112156200116b57600080fd5b6101a0808212156200117c57600080fd5b620011866200100e565b915062001193876200103b565b82526020870135602083015260408701356040830152606087013560608301526080870135608083015260a087013560a0830152620011d560c088016200103b565b60c0830152620011e860e088016200103b565b60e0830152610100620011fe89828a016200104d565b9083015261016087013561012083015261018087013561014083015290945085013567ffffffffffffffff8111156200123657600080fd5b6200124487828801620010ad565b94979496505050506101c0830135926101e00135919050565b6000606082840312156200127057600080fd5b50919050565b6020808252825182820181905260009190848201906040850190845b81811015620012b95783516001600160a01b03168352928401929184019160010162001292565b50909695505050505050565b600060018201620012e657634e487b7160e01b600052601160045260246000fd5b5060010190565b80516001600160a01b031682526020810151602083015260408101516040830152606081015160608301526080810151608083015260a081015160a083015260c08101516200134760c08401826001600160a01b03169052565b5060e08101516200136360e08401826001600160a01b03169052565b5061010081810151805184830152602081015161012085015260408101516101408501525050610120810151610160830152610140015161018090910152565b600081518084526020808501945080840160005b83811015620013d557815187529582019590820190600101620013b7565b509495945050505050565b6000610220620013f18389620012ed565b6001600160a01b038781166101a08501526101c0840187905285166101e084015261020083018190526200061c81840185620013a3565b6000602082840312156200143b57600080fd5b815162000f5d8162000f24565b6001600160a01b038681168252600090610220906200146b6020850189620012ed565b8087166101c085015250846101e0840152806102008401526200061c81840185620013a3565b600060208284031215620014a457600080fd5b8151801515811462000f5d57600080fd5b600060208284031215620014c857600080fd5b5051919050565b634e487b7160e01b600052603260045260246000fd5b6102008101620014f68287620012ed565b6101a08201949094526001600160a01b039283166101c082015291166101e09091015291905056fe61024060405260016000553480156200001757600080fd5b50604051620024aa380380620024aa8339810160408190526200003a91620002b0565b6001600160a01b0380831660805260a084905284511660c052604084015184908490849083906103e8111562000083576040516349db44f560e01b815260040160405180910390fd5b6040810151610160526080810151600003620000b257604051635428734d60e01b815260040160405180910390fd5b60808101805160e0525160608201511080620000e2575080608001518160600151620000df9190620003ab565b15155b15620001015760405163253fffcf60e11b815260040160405180910390fd5b606081015161010090815260a08201516101205260208201516101405260c0820151601180546001600160a01b0319166001600160a01b0392831617905560e0830151166101e05281015151670de0b6b3a76400001080620001735750670de0b6b3a764000081610100015160200151115b806200018f5750670de0b6b3a764000081610100015160400151115b15620001ae576040516322f72cc360e11b815260040160405180910390fd5b6101008101805151610180528051602001516101a05251604001516101c0526101400151610200525050506001600160a01b03166102205250620003ce915050565b60405161016081016001600160401b03811182821017156200022257634e487b7160e01b600052604160045260246000fd5b60405290565b80516001600160a01b03811681146200024057600080fd5b919050565b6000606082840312156200025857600080fd5b604051606081016001600160401b03811182821017156200028957634e487b7160e01b600052604160045260246000fd5b80604052508091508251815260208301516020820152604083015160408201525092915050565b600080600080848603610200811215620002c957600080fd5b6101a080821215620002da57600080fd5b620002e4620001f0565b9150620002f18762000228565b82526020870151602083015260408701516040830152606087015160608301526080870151608083015260a087015160a08301526200033360c0880162000228565b60c08301526200034660e0880162000228565b60e08301526101006200035c89828a0162000245565b9083015261016087015161012083015261018087015161014083015286015190945092506200038f6101c0860162000228565b9150620003a06101e0860162000228565b905092959194509250565b600082620003c957634e487b7160e01b600052601260045260246000fd5b500690565b60805160a05160c05160e05161010051610120516101405161016051610180516101a0516101c0516101e0516102005161022051612003620004a7600039600081816103370152610d4001526000610a2b0152600061097c015260006109f4015260006109cf015260006109ac0152600081816108d70152610e6d0152600081816108ad0152610e4701526000818161094c0152610e930152600081816108fc01526111c901526000818161092601526113c10152600081816108880152610b9801526000610beb01526000610b5801526120036000f3fe608060405234801561001057600080fd5b50600436106101205760003560e01c8063b0d96580116100ad578063c69e16ad11610071578063c69e16ad1461028d578063c905a4b514610295578063cc962f8e1461029d578063d8165743146102c0578063e985e9c5146102d557600080fd5b8063b0d9658014610235578063bd85b0391461024a578063becee9c31461025d578063c45a01551461027d578063c55dae631461028557600080fd5b80633656eec2116100f45780633656eec2146101d45780634e41a1fb146101e757806360246c88146101fa5780637ecebe001461020f578063afdac68d1461022257600080fd5b8062ad800c1461012557806316f0115b1461014e57806320fc48811461016e57806321ff32a9146101b3575b600080fd5b61013861013336600461191f565b6102e8565b604051610145919061197e565b60405180910390f35b610156610329565b6040516001600160a01b039091168152602001610145565b61018161017c36600461191f565b61036c565b6040805182516001600160801b0390811682526020808501518216908301529282015190921690820152606001610145565b6101c66101c13660046119a8565b6103d8565b604051908152602001610145565b6101c66101e23660046119e4565b61041e565b6101386101f536600461191f565b610457565b61020261047f565b6040516101459190611a10565b6101c661021d366004611a90565b610647565b6101c661023036600461191f565b610673565b61023d61086b565b6040516101459190611aab565b6101c661025836600461191f565b610a61565b61027061026b366004611b67565b610a83565b6040516101459190611bdc565b610156610b4a565b610156610b8a565b6101c6610bca565b6101c6610be4565b6102b06102ab366004611a90565b610c1c565b6040519015158152602001610145565b6102c8610c52565b6040516101459190611c20565b6102b06102e3366004611d13565b610cb8565b6060610324600560008481526020019081526020016000206040516020016103109190611d3d565b604051602081830303815290604052610cfc565b919050565b604080516001600160a01b037f00000000000000000000000000000000000000000000000000000000000000001660208201526000916103699101610310565b90565b6040805160608101825260008082526020820181905291810191909152610324600e6000848152602001908152602001600020604051602001610310919081546001600160801b03808216835260809190911c6020830152600190920154909116604082015260600190565b60008381526004602090815260408083206001600160a01b03868116855290835281842090851684528252808320548151928301526104179101610310565b9392505050565b60008281526001602090815260408083206001600160a01b03851684528252808320548151928301526104519101610310565b92915050565b6060610324600660008481526020019081526020016000206040516020016103109190611d3d565b6104e36040518061018001604052806000815260200160008152602001600081526020016000815260200160008152602001600081526020016000815260200160008152602001600081526020016000815260200160008152602001600081525090565b60006104ed610d20565b600d5460026020527f3ccfbaf375b4885450e3887dab0704e32e03acfeaf0442976372f6750e322c1f5460008080527fac33ff75c19e70fe83507db0d683fd3465c996598dc972688b7ace676c89077b54939450926001600160801b03909216916105589190611dff565b6105629190611e12565b905060006105818361057b61057686610db8565b610f25565b90611154565b60408051610180810182526008546001600160801b038082168352600160801b9182900481166020840152928201869052606082018790526009548084166080840152600a54841660a0840152819004831660c0830152600b5480841660e08401528190048316610100830152600d5480841661012084015204909116610140820152909150600090610160810184156106245761061f8486611169565b610627565b60005b8152509050610640816040516020016103109190611a10565b5050505090565b6001600160a01b0381166000908152600760209081526040808320548151928301526103249101610310565b601354601280546000926001600160801b03600160801b8204811693911691849190839081106106a5576106a5611e25565b600091825260208083206040805180820190915292015463ffffffff8116835264010000000090046001600160e01b03169082015291506106e68685611e12565b905060008315610700576106fb600185611e12565b61070f565b60125461070f90600190611e12565b60408051808201909152600080825260208201529091505b8482146107be5760006012838154811061074357610743611e25565b6000918252602090912001805490915063ffffffff1684106107915760408051808201909152905463ffffffff8116825264010000000090046001600160e01b0316602082015290506107be565b82156107a7576107a2600184611e12565b6107b6565b6012546107b690600190611e12565b925050610727565b805163ffffffff166000036107e657604051630a89817b60e41b815260040160405180910390fd5b600081602001516001600160e01b031685602001516001600160e01b031661080e9190611e12565b8251865191925060009161082b9163ffffffff9081169116611e12565b905061085e61084c61084583670de0b6b3a7640000611e3b565b8490611169565b60405160200161031091815260200190565b5050505050505050919050565b610873611888565b60408051610160810182526001600160a01b037f0000000000000000000000000000000000000000000000000000000000000000811682527f00000000000000000000000000000000000000000000000000000000000000006020808401919091527f0000000000000000000000000000000000000000000000000000000000000000838501527f00000000000000000000000000000000000000000000000000000000000000006060808501919091527f000000000000000000000000000000000000000000000000000000000000000060808501527f000000000000000000000000000000000000000000000000000000000000000060a0850152601154831660c08501527f000000000000000000000000000000000000000000000000000000000000000090921660e0840152835191820184527f000000000000000000000000000000000000000000000000000000000000000082527f0000000000000000000000000000000000000000000000000000000000000000828201527f0000000000000000000000000000000000000000000000000000000000000000828501526101008301919091526012546101208301527f0000000000000000000000000000000000000000000000000000000000000000610140830152915161036992610310929101611aab565b6000818152600260209081526040808320548151928301526103249101610310565b606060008267ffffffffffffffff811115610aa057610aa0611e52565b604051908082528060200260200182016040528015610ac9578160200160208202803683370190505b50905060005b83811015610b2e576000858583818110610aeb57610aeb611e25565b90506020020135905060008154905080848481518110610b0d57610b0d611e25565b60200260200101818152505050508080610b2690611e68565b915050610acf565b50610b43816040516020016103109190611bdc565b5092915050565b604080516001600160a01b037f00000000000000000000000000000000000000000000000000000000000000001660208201526000916103699101610310565b604080516001600160a01b037f00000000000000000000000000000000000000000000000000000000000000001660208201526000916103699101610310565b600061036960105460405160200161031091815260200190565b60006103697f000000000000000000000000000000000000000000000000000000000000000060405160200161031091815260200190565b6001600160a01b0381166000908152601460209081526040808320549051610324926103109260ff169101901515815260200190565b6040805161014081018252600080825260208201819052918101829052606081018290526080810182905260a0810182905260c0810182905260e08101829052610100810182905261012081019190915261036960086040516020016103109190611e81565b6001600160a01b038281166000908152600360209081526040808320938516835292815282822054835160ff90911615159181019190915290916104519101610310565b80604051636e64089360e11b8152600401610d17919061197e565b60405180910390fd5b6040516303d1689d60e11b8152670de0b6b3a764000060048201526000907f00000000000000000000000000000000000000000000000000000000000000006001600160a01b0316906307a2d13a90602401602060405180830381865afa158015610d8f573d6000803e3d6000fd5b505050506040513d601f19601f82011682018060405250810190610db39190611f00565b905090565b610e1560405180610160016040528060008152602001600081526020016000815260200160008152602001600081526020016000815260200160008152602001600081526020016000815260200160008152602001600081525090565b60408051610160810182526008546001600160801b038082168352600160801b909104811660208301529181018490527f000000000000000000000000000000000000000000000000000000000000000060608201527f000000000000000000000000000000000000000000000000000000000000000060808201527f000000000000000000000000000000000000000000000000000000000000000060a0820152600954821660c0820152600a54909160e0830191610ed5911661117e565b81526009546001600160801b03600160801b90910481166020830152600b54604090920191610f04911661117e565b8152600b54600160801b90046001600160801b031660209091015292915050565b600080610f4583610120015184610100015161115490919063ffffffff16565b60e084015160c0850151610f5891611154565b610f629190611f19565b90506000811315610fc057610fa98360000151846020015183610f9a8760a00151670de0b6b3a76400006111f490919063ffffffff16565b87604001518860600151611222565b83518490610fb8908390611e12565b9052506110c5565b60008112156110c5576000610fff846000015185602001518660a00151670de0b6b3a7640000610ff09190611e12565b876040015188606001516112b3565b915050808261100d90611f39565b11156110195780611022565b61102282611f39565b905080156110795761106684600001518560200151836110578860a00151670de0b6b3a76400006111f490919063ffffffff16565b8860400151896060015161133d565b84518590611075908390611dff565b9052505b6110b18161108684611f39565b6110909190611e12565b60408601516101008701516110a491611154565b610140870151919061139c565b845185906110c0908390611dff565b905250505b60006110f38460e00151670de0b6b3a76400006110e29190611e12565b604086015160c0870151919061139c565b611121856101200151670de0b6b3a764000061110f9190611e12565b6040870151610100880151919061139c565b61112b9190611f19565b845190915061113b908290611f55565b808552608085015161114c91611e12565b949350505050565b60006104178383670de0b6b3a764000061139c565b600061041783670de0b6b3a76400008461139c565b600080670de0b6b3a76400006111926113ba565b61119c9190611e3b565b90508083116111ac5760006111b6565b6111b68184611e12565b91506104176111ed670de0b6b3a76400007f0000000000000000000000000000000000000000000000000000000000000000611e3b565b8390611169565b6000828211156112165760405162d6e85160e61b815260040160405180910390fd5b600061114c8385611e12565b60008061122f8484611169565b9050600061124082858b898c6113f0565b9050611256866112508a8a611427565b90611457565b9750600061128361126f670de0b6b3a7640000896114ae565b6112508561127d868e6111f4565b90611169565b905061128f8186611169565b9050808a11156112a6576112a3818b611e12565b93505b5050509695505050505050565b600080806112c18585611169565b905060006112d282868b8a8c6113f0565b905060006113076112eb670de0b6b3a76400008a611169565b611250611300670de0b6b3a764000087611dff565b8590611169565b905060006113158288611169565b90506113218b82611e12565b61132b838c611e12565b95509550505050509550959350505050565b60008061134a8484611169565b9050600061135b82858b898c6113f0565b905061136b866112508a8a6111f4565b9750600061138461126f670de0b6b3a7640000896114ae565b90506113908186611169565b90506112a3818b6111f4565b60008260001904841183021582026113b357600080fd5b5091020490565b60006113e67f000000000000000000000000000000000000000000000000000000000000000042611f8b565b610db39042611e12565b600061141d6113ff8385611457565b611417611410866112508a8a611154565b8990611154565b90611427565b9695505050505050565b6000806114348385611dff565b90508381101561041757604051632d59cfbd60e01b815260040160405180910390fd5b6000816000036114705750670de0b6b3a7640000610451565b8260000361148057506000610451565b81600061148c856114c3565b90508181026114a3670de0b6b3a764000082611f9f565b905061141d816116d7565b600061041783670de0b6b3a764000084611862565b6000808212156114e657604051632c7949f560e01b815260040160405180910390fd5b5060606001600160801b03821160071b82811c67ffffffffffffffff1060061b1782811c63ffffffff1060051b1782811c61ffff1060041b1782811c60ff10600390811b90911783811c600f1060021b1783811c909110600190811b90911783811c90911017609f81810383019390931b90921c6c465772b2bbbb5f824b15207a3081018102821d6d0388eaa27412d5aca026815d636e018102821d6d0df99ac502031bf953eff472fdcc018102821d6d13cdffb29d51d99322bdff5f2211018102821d6d0a0f742023def783a307a986912e018102821d6d01920d8043ca89b5239253284e42018102821d6c0b7a86d7375468fac667a0a527016c29508e458543d8aa4df2abee7882018202831d6d0139601a2efabe717e604cbb4894018202831d6d02247f7a7b6594320649aa03aba1018202831d6c8c3f38e95a6b1ff2ab1c3b343619018202831d6d02384773bdf1ac5676facced60901901820290921d6cb9a025d814b29c212b8b1a07cd190102780a09507084cc699bb0e71ea869ffffffffffffffffffffffff190105711340daa0d5f769dba1915cef59f0815a550602605f19919091017d0267a36c0c95b3975ab3ee5b203a7614a3f75373f047d803ae7b6687f2b302017d57115e47018c7177eebf7cd370a3356a1b7863008a5ae8028c72b88642840160ae1d90565b6000680248ce36a70cb26b3e1982136116f257506000919050565b680755bf798b4a1bf1e5821261171b5760405163df92cc9d60e01b815260040160405180910390fd5b6503782dace9d9604e83901b059150600060606bb17217f7d1cf79abc9e3b39884821b056001605f1b01901d6bb17217f7d1cf79abc9e3b39881029093036c240c330e9fb2d9cbaf0fd5aafb1981018102606090811d6d0277594991cfc85f6e2461837cd9018202811d6d1a521255e34f6a5061b25ef1c9c319018202811d6db1bbb201f443cf962f1a1d3db4a5018202811d6e02c72388d9f74f51a9331fed693f1419018202811d6e05180bb14799ab47a8a8cb2a527d57016d02d16720577bd19bf614176fe9ea6c10fe68e7fd37d0007b713f765084018402831d9081019084016d01d3967ed30fc4f89c02bab5708119010290911d6e0587f503bb6ea29d25fcb740196450019091026d360d7aeea093263ecc6e0ecb291760621b010574029d9dc38563c32e5c2f6dc192ee70ef65f9978af30260c3939093039290921c92915050565b600082600019048411830215820261187957600080fd5b50910281810615159190040190565b60405180610160016040528060006001600160a01b03168152602001600081526020016000815260200160008152602001600081526020016000815260200160006001600160a01b0316815260200160006001600160a01b0316815260200161190b60405180606001604052806000815260200160008152602001600081525090565b815260200160008152602001600081525090565b60006020828403121561193157600080fd5b5035919050565b6000815180845260005b8181101561195e57602081850181015186830182015201611942565b506000602082860101526020601f19601f83011685010191505092915050565b6020815260006104176020830184611938565b80356001600160a01b038116811461032457600080fd5b6000806000606084860312156119bd57600080fd5b833592506119cd60208501611991565b91506119db60408501611991565b90509250925092565b600080604083850312156119f757600080fd5b82359150611a0760208401611991565b90509250929050565b815181526020808301519082015260408083015190820152606080830151908201526080808301519082015260a0808301519082015260c0808301519082015260e0808301519082015261010080830151908201526101208083015190820152610140808301519082015261016091820151918101919091526101800190565b600060208284031215611aa257600080fd5b61041782611991565b81516001600160a01b031681526101a081016020830151602083015260408301516040830152606083015160608301526080830151608083015260a083015160a083015260c0830151611b0960c08401826001600160a01b03169052565b5060e0830151611b2460e08401826001600160a01b03169052565b5061010083810151805184830152602081015161012085015260408101516101408501525050610120830151610160830152610140909201516101809091015290565b60008060208385031215611b7a57600080fd5b823567ffffffffffffffff80821115611b9257600080fd5b818501915085601f830112611ba657600080fd5b813581811115611bb557600080fd5b8660208260051b8501011115611bca57600080fd5b60209290920196919550909350505050565b6020808252825182820181905260009190848201906040850190845b81811015611c1457835183529284019291840191600101611bf8565b50909695505050505050565b81516001600160801b0316815261014081016020830151611c4c60208401826001600160801b03169052565b506040830151611c6760408401826001600160801b03169052565b506060830151611c8260608401826001600160801b03169052565b506080830151611c9d60808401826001600160801b03169052565b5060a0830151611cb860a08401826001600160801b03169052565b5060c0830151611cd360c08401826001600160801b03169052565b5060e0830151611cee60e08401826001600160801b03169052565b506101008381015115159083015261012080840151801515828501525b505092915050565b60008060408385031215611d2657600080fd5b611d2f83611991565b9150611a0760208401611991565b600060208083526000845481600182811c915080831680611d5f57607f831692505b8583108103611d7c57634e487b7160e01b85526022600452602485fd5b878601838152602001818015611d995760018114611daf57611dda565b60ff198616825284151560051b82019650611dda565b60008b81526020902060005b86811015611dd457815484820152908501908901611dbb565b83019750505b50949998505050505050505050565b634e487b7160e01b600052601160045260246000fd5b8082018082111561045157610451611de9565b8181038181111561045157610451611de9565b634e487b7160e01b600052603260045260246000fd5b808202811582820484141761045157610451611de9565b634e487b7160e01b600052604160045260246000fd5b600060018201611e7a57611e7a611de9565b5060010190565b81546001600160801b038082168352608091821c602084015260018401548082166040850152821c6060840152600284015480821683850152821c60a0840152600384015490811660c0840152901c60e0820152600482015460ff8082161515610100840152600882901c161515610120830152610140820190610b43565b600060208284031215611f1257600080fd5b5051919050565b8181036000831280158383131683831282161715610b4357610b43611de9565b6000600160ff1b8201611f4e57611f4e611de9565b5060000390565b8082018281126000831280158216821582161715611d0b57611d0b611de9565b634e487b7160e01b600052601260045260246000fd5b600082611f9a57611f9a611f75565b500690565b600082611fae57611fae611f75565b600160ff1b821460001984141615611fc857611fc8611de9565b50059056fea2646970667358221220095af892fb19cb2e90f09dfae2f69f9fd449a73c6263ae6116508236a3ebb47764736f6c63430008130033a2646970667358221220f38fa8fcdb7017acef10d9f8c792c60a2d02b9b8d6f6d9ee73ade3d3880428d964736f6c63430008130033",
    "linkReferences": {}
  },
  "methodIdentifiers": {
    "deployAndInitialize((address,uint256,uint256,uint256,uint256,uint256,address,address,(uint256,uint256,uint256),uint256,uint256),bytes32[],uint256,uint256)": "5834c760",
    "feeCollector()": "c415b95c",
    "fees()": "9af1d35a",
    "getDefaultPausers()": "7f7c5a7d",
    "getSweepTargets()": "94ad46d9",
    "governance()": "5aa6e675",
    "hyperdriveDeployer()": "03a5aa92",
    "hyperdriveGovernance()": "e3331555",
    "isOfficial(address)": "77b81aac",
    "linkerCodeHash()": "c905a4b5",
    "linkerFactory()": "99623bb1",
    "updateDefaultPausers(address[])": "9af25262",
    "updateFeeCollector(address)": "d2c35ce8",
    "updateFees((uint256,uint256,uint256))": "7613b08c",
    "updateGovernance(address)": "b2561263",
    "updateHyperdriveGovernance(address)": "dd2b8fbb",
    "updateImplementation(address)": "025b22bc",
    "updateLinkerCodeHash(bytes32)": "4fbfee77",
    "updateLinkerFactory(address)": "85229785",
    "updateSweepTargets(address[])": "09b9075f",
    "versionCounter()": "dd6d30c1"
  },
  "id": 10
}