{
  "abi": [
    {
      "inputs": [
        {
          "components": [
            {
              "internalType": "address",
              "name": "governance",
              "type": "address"
            },
            {
              "internalType": "address",
              "name": "hyperdriveGovernance",
              "type": "address"
            },
            {
              "internalType": "address",
              "name": "feeCollector",
              "type": "address"
            },
            {
              "components": [
                {
                  "internalType": "uint256",
                  "name": "curve",
                  "type": "uint256"
                },
                {
                  "internalType": "uint256",
                  "name": "flat",
                  "type": "uint256"
                },
                {
                  "internalType": "uint256",
                  "name": "governance",
                  "type": "uint256"
                }
              ],
              "internalType": "struct IHyperdrive.Fees",
              "name": "fees",
              "type": "tuple"
            },
            {
              "components": [
                {
                  "internalType": "uint256",
                  "name": "curve",
                  "type": "uint256"
                },
                {
                  "internalType": "uint256",
                  "name": "flat",
                  "type": "uint256"
                },
                {
                  "internalType": "uint256",
                  "name": "governance",
                  "type": "uint256"
                }
              ],
              "internalType": "struct IHyperdrive.Fees",
              "name": "maxFees",
              "type": "tuple"
            },
            {
              "internalType": "address[]",
              "name": "defaultPausers",
              "type": "address[]"
            }
          ],
          "internalType": "struct HyperdriveFactory.FactoryConfig",
          "name": "_factoryConfig",
          "type": "tuple"
        },
        {
          "internalType": "contract IHyperdriveDeployer",
          "name": "_deployer",
          "type": "address"
        },
        {
          "internalType": "address",
          "name": "_linkerFactory",
          "type": "address"
        },
        {
          "internalType": "bytes32",
          "name": "_linkerCodeHash",
          "type": "bytes32"
        },
        {
          "internalType": "contract IERC4626",
          "name": "_pool",
          "type": "address"
        },
        {
          "internalType": "address[]",
          "name": "_sweepTargets_",
          "type": "address[]"
        }
      ],
      "stateMutability": "nonpayable",
      "type": "constructor"
    },
    {
      "inputs": [],
      "name": "ApprovalFailed",
      "type": "error"
    },
    {
      "inputs": [],
      "name": "FeeTooHigh",
      "type": "error"
    },
    {
      "inputs": [],
      "name": "MaxFeeTooHigh",
      "type": "error"
    },
    {
      "inputs": [],
      "name": "NonPayableInitialization",
      "type": "error"
    },
    {
      "inputs": [],
      "name": "Unauthorized",
      "type": "error"
    },
    {
      "anonymous": false,
      "inputs": [
        {
          "indexed": true,
          "internalType": "uint256",
          "name": "version",
          "type": "uint256"
        },
        {
          "indexed": false,
          "internalType": "address",
          "name": "hyperdrive",
          "type": "address"
        },
        {
          "components": [
            {
              "internalType": "contract IERC20",
              "name": "baseToken",
              "type": "address"
            },
            {
              "internalType": "uint256",
              "name": "initialSharePrice",
              "type": "uint256"
            },
            {
              "internalType": "uint256",
              "name": "minimumShareReserves",
              "type": "uint256"
            },
            {
              "internalType": "uint256",
              "name": "minimumTransactionAmount",
              "type": "uint256"
            },
            {
              "internalType": "uint256",
              "name": "positionDuration",
              "type": "uint256"
            },
            {
              "internalType": "uint256",
              "name": "checkpointDuration",
              "type": "uint256"
            },
            {
              "internalType": "uint256",
              "name": "timeStretch",
              "type": "uint256"
            },
            {
              "internalType": "address",
              "name": "governance",
              "type": "address"
            },
            {
              "internalType": "address",
              "name": "feeCollector",
              "type": "address"
            },
            {
              "components": [
                {
                  "internalType": "uint256",
                  "name": "curve",
                  "type": "uint256"
                },
                {
                  "internalType": "uint256",
                  "name": "flat",
                  "type": "uint256"
                },
                {
                  "internalType": "uint256",
                  "name": "governance",
                  "type": "uint256"
                }
              ],
              "internalType": "struct IHyperdrive.Fees",
              "name": "fees",
              "type": "tuple"
            },
            {
              "internalType": "uint256",
              "name": "oracleSize",
              "type": "uint256"
            },
            {
              "internalType": "uint256",
              "name": "updateGap",
              "type": "uint256"
            }
          ],
          "indexed": false,
          "internalType": "struct IHyperdrive.PoolConfig",
          "name": "config",
          "type": "tuple"
        },
        {
          "indexed": false,
          "internalType": "address",
          "name": "linkerFactory",
          "type": "address"
        },
        {
          "indexed": false,
          "internalType": "bytes32",
          "name": "linkerCodeHash",
          "type": "bytes32"
        },
        {
          "indexed": false,
          "internalType": "bytes32[]",
          "name": "extraData",
          "type": "bytes32[]"
        }
      ],
      "name": "Deployed",
      "type": "event"
    },
    {
      "anonymous": false,
      "inputs": [
        {
          "indexed": true,
          "internalType": "address",
          "name": "newFeeCollector",
          "type": "address"
        }
      ],
      "name": "FeeCollectorUpdated",
      "type": "event"
    },
    {
      "anonymous": false,
      "inputs": [
        {
          "indexed": true,
          "internalType": "address",
          "name": "governance",
          "type": "address"
        }
      ],
      "name": "GovernanceUpdated",
      "type": "event"
    },
    {
      "anonymous": false,
      "inputs": [
        {
          "indexed": true,
          "internalType": "address",
          "name": "hyperdriveGovernance",
          "type": "address"
        }
      ],
      "name": "HyperdriveGovernanceUpdated",
      "type": "event"
    },
    {
      "anonymous": false,
      "inputs": [
        {
          "indexed": true,
          "internalType": "address",
          "name": "newDeployer",
          "type": "address"
        }
      ],
      "name": "ImplementationUpdated",
      "type": "event"
    },
    {
      "anonymous": false,
      "inputs": [
        {
          "indexed": true,
          "internalType": "bytes32",
          "name": "newCodeHash",
          "type": "bytes32"
        }
      ],
      "name": "LinkerCodeHashUpdated",
      "type": "event"
    },
    {
      "anonymous": false,
      "inputs": [
        {
          "indexed": true,
          "internalType": "address",
          "name": "newLinkerFactory",
          "type": "address"
        }
      ],
      "name": "LinkerFactoryUpdated",
      "type": "event"
    },
    {
      "inputs": [
        {
          "components": [
            {
              "internalType": "contract IERC20",
              "name": "baseToken",
              "type": "address"
            },
            {
              "internalType": "uint256",
              "name": "initialSharePrice",
              "type": "uint256"
            },
            {
              "internalType": "uint256",
              "name": "minimumShareReserves",
              "type": "uint256"
            },
            {
              "internalType": "uint256",
              "name": "minimumTransactionAmount",
              "type": "uint256"
            },
            {
              "internalType": "uint256",
              "name": "positionDuration",
              "type": "uint256"
            },
            {
              "internalType": "uint256",
              "name": "checkpointDuration",
              "type": "uint256"
            },
            {
              "internalType": "uint256",
              "name": "timeStretch",
              "type": "uint256"
            },
            {
              "internalType": "address",
              "name": "governance",
              "type": "address"
            },
            {
              "internalType": "address",
              "name": "feeCollector",
              "type": "address"
            },
            {
              "components": [
                {
                  "internalType": "uint256",
                  "name": "curve",
                  "type": "uint256"
                },
                {
                  "internalType": "uint256",
                  "name": "flat",
                  "type": "uint256"
                },
                {
                  "internalType": "uint256",
                  "name": "governance",
                  "type": "uint256"
                }
              ],
              "internalType": "struct IHyperdrive.Fees",
              "name": "fees",
              "type": "tuple"
            },
            {
              "internalType": "uint256",
              "name": "oracleSize",
              "type": "uint256"
            },
            {
              "internalType": "uint256",
              "name": "updateGap",
              "type": "uint256"
            }
          ],
          "internalType": "struct IHyperdrive.PoolConfig",
          "name": "_config",
          "type": "tuple"
        },
        {
          "internalType": "bytes32[]",
          "name": "",
          "type": "bytes32[]"
        },
        {
          "internalType": "uint256",
          "name": "_contribution",
          "type": "uint256"
        },
        {
          "internalType": "uint256",
          "name": "_apr",
          "type": "uint256"
        }
      ],
      "name": "deployAndInitialize",
      "outputs": [
        {
          "internalType": "contract IHyperdrive",
          "name": "",
          "type": "address"
        }
      ],
      "stateMutability": "payable",
      "type": "function"
    },
    {
      "inputs": [],
      "name": "feeCollector",
      "outputs": [
        {
          "internalType": "address",
          "name": "",
          "type": "address"
        }
      ],
      "stateMutability": "view",
      "type": "function"
    },
    {
      "inputs": [],
      "name": "fees",
      "outputs": [
        {
          "internalType": "uint256",
          "name": "curve",
          "type": "uint256"
        },
        {
          "internalType": "uint256",
          "name": "flat",
          "type": "uint256"
        },
        {
          "internalType": "uint256",
          "name": "governance",
          "type": "uint256"
        }
      ],
      "stateMutability": "view",
      "type": "function"
    },
    {
      "inputs": [],
      "name": "getDefaultPausers",
      "outputs": [
        {
          "internalType": "address[]",
          "name": "",
          "type": "address[]"
        }
      ],
      "stateMutability": "view",
      "type": "function"
    },
    {
      "inputs": [],
      "name": "getSweepTargets",
      "outputs": [
        {
          "internalType": "address[]",
          "name": "",
          "type": "address[]"
        }
      ],
      "stateMutability": "view",
      "type": "function"
    },
    {
      "inputs": [],
      "name": "governance",
      "outputs": [
        {
          "internalType": "address",
          "name": "",
          "type": "address"
        }
      ],
      "stateMutability": "view",
      "type": "function"
    },
    {
      "inputs": [],
      "name": "hyperdriveDeployer",
      "outputs": [
        {
          "internalType": "contract IHyperdriveDeployer",
          "name": "",
          "type": "address"
        }
      ],
      "stateMutability": "view",
      "type": "function"
    },
    {
      "inputs": [],
      "name": "hyperdriveGovernance",
      "outputs": [
        {
          "internalType": "address",
          "name": "",
          "type": "address"
        }
      ],
      "stateMutability": "view",
      "type": "function"
    },
    {
      "inputs": [
        {
          "internalType": "address",
          "name": "instance",
          "type": "address"
        }
      ],
      "name": "isOfficial",
      "outputs": [
        {
          "internalType": "uint256",
          "name": "version",
          "type": "uint256"
        }
      ],
      "stateMutability": "view",
      "type": "function"
    },
    {
      "inputs": [],
      "name": "linkerCodeHash",
      "outputs": [
        {
          "internalType": "bytes32",
          "name": "",
          "type": "bytes32"
        }
      ],
      "stateMutability": "view",
      "type": "function"
    },
    {
      "inputs": [],
      "name": "linkerFactory",
      "outputs": [
        {
          "internalType": "address",
          "name": "",
          "type": "address"
        }
      ],
      "stateMutability": "view",
      "type": "function"
    },
    {
      "inputs": [
        {
          "internalType": "address[]",
          "name": "_defaultPausers_",
          "type": "address[]"
        }
      ],
      "name": "updateDefaultPausers",
      "outputs": [],
      "stateMutability": "nonpayable",
      "type": "function"
    },
    {
      "inputs": [
        {
          "internalType": "address",
          "name": "_feeCollector",
          "type": "address"
        }
      ],
      "name": "updateFeeCollector",
      "outputs": [],
      "stateMutability": "nonpayable",
      "type": "function"
    },
    {
      "inputs": [
        {
          "components": [
            {
              "internalType": "uint256",
              "name": "curve",
              "type": "uint256"
            },
            {
              "internalType": "uint256",
              "name": "flat",
              "type": "uint256"
            },
            {
              "internalType": "uint256",
              "name": "governance",
              "type": "uint256"
            }
          ],
          "internalType": "struct IHyperdrive.Fees",
          "name": "_fees",
          "type": "tuple"
        }
      ],
      "name": "updateFees",
      "outputs": [],
      "stateMutability": "nonpayable",
      "type": "function"
    },
    {
      "inputs": [
        {
          "internalType": "address",
          "name": "_governance",
          "type": "address"
        }
      ],
      "name": "updateGovernance",
      "outputs": [],
      "stateMutability": "nonpayable",
      "type": "function"
    },
    {
      "inputs": [
        {
          "internalType": "address",
          "name": "_hyperdriveGovernance",
          "type": "address"
        }
      ],
      "name": "updateHyperdriveGovernance",
      "outputs": [],
      "stateMutability": "nonpayable",
      "type": "function"
    },
    {
      "inputs": [
        {
          "internalType": "contract IHyperdriveDeployer",
          "name": "newDeployer",
          "type": "address"
        }
      ],
      "name": "updateImplementation",
      "outputs": [],
      "stateMutability": "nonpayable",
      "type": "function"
    },
    {
      "inputs": [
        {
          "internalType": "bytes32",
          "name": "_linkerCodeHash",
          "type": "bytes32"
        }
      ],
      "name": "updateLinkerCodeHash",
      "outputs": [],
      "stateMutability": "nonpayable",
      "type": "function"
    },
    {
      "inputs": [
        {
          "internalType": "address",
          "name": "_linkerFactory",
          "type": "address"
        }
      ],
      "name": "updateLinkerFactory",
      "outputs": [],
      "stateMutability": "nonpayable",
      "type": "function"
    },
    {
      "inputs": [
        {
          "internalType": "address[]",
          "name": "_sweepTargets_",
          "type": "address[]"
        }
      ],
      "name": "updateSweepTargets",
      "outputs": [],
      "stateMutability": "nonpayable",
      "type": "function"
    },
    {
      "inputs": [],
      "name": "versionCounter",
      "outputs": [
        {
          "internalType": "uint256",
          "name": "",
          "type": "uint256"
        }
      ],
      "stateMutability": "view",
      "type": "function"
    }
  ],
  "bytecode": {
    "object": "0x610100604052600180553480156200001657600080fd5b50604051620040ea380380620040ea8339810160408190526200003991620003d3565b60808087018051519182905280516020015160a052516040015160c0528690869086908690670de0b6b3a764000010806200007d5750670de0b6b3a764000060a051115b80620000925750670de0b6b3a764000060c051115b15620000b15760405163a3932d2d60e01b815260040160405180910390fd5b6080516060850151511180620000d0575060a051846060015160200151115b80620000e5575060c051846060015160400151115b15620001045760405163cd4e616760e01b815260040160405180910390fd5b606084015180516007556020808201516008556040918201516009558551600080546001600160a01b03199081166001600160a01b03938416179091558288015160048054831691841691909117905592870151600a805490941691161790915560a085015180516200017c92600b920190620001d8565b50600380546001600160a01b03199081166001600160a01b03958616179091556005805490911692841692909217909155600655831660e052508051620001cb90600c906020840190620001d8565b5050505050505062000516565b82805482825590600052602060002090810192821562000230579160200282015b828111156200023057825182546001600160a01b0319166001600160a01b03909116178255602090920191600190910190620001f9565b506200023e92915062000242565b5090565b5b808211156200023e576000815560010162000243565b634e487b7160e01b600052604160045260246000fd5b60405160c081016001600160401b038111828210171562000294576200029462000259565b60405290565b6001600160a01b0381168114620002b057600080fd5b50565b8051620002c0816200029a565b919050565b600060608284031215620002d857600080fd5b604051606081016001600160401b0381118282101715620002fd57620002fd62000259565b80604052508091508251815260208301516020820152604083015160408201525092915050565b600082601f8301126200033657600080fd5b815160206001600160401b038083111562000355576200035562000259565b8260051b604051601f19603f830116810181811084821117156200037d576200037d62000259565b6040529384528581018301938381019250878511156200039c57600080fd5b83870191505b84821015620003c8578151620003b8816200029a565b83529183019190830190620003a2565b979650505050505050565b60008060008060008060c08789031215620003ed57600080fd5b86516001600160401b03808211156200040557600080fd5b90880190610140828b0312156200041b57600080fd5b620004256200026f565b825162000432816200029a565b8152602083015162000444816200029a565b60208201526200045760408401620002b3565b60408201526200046b8b60608501620002c5565b60608201526200047f8b60c08501620002c5565b6080820152610120830151828111156200049857600080fd5b620004a68c82860162000324565b60a0830152509750620004bc60208a01620002b3565b9650620004cc60408a01620002b3565b955060608901519450620004e360808a01620002b3565b935060a0890151915080821115620004fa57600080fd5b506200050989828a0162000324565b9150509295509295509295565b60805160a05160c05160e051613b9a620005506000396000610e0801526000610615015260006105e6015260006105bb0152613b9a6000f3fe608060405260043610620001435760003560e01c806394ad46d911620000b9578063c415b95c1162000078578063c415b95c14620003a3578063c905a4b514620003c5578063d2c35ce814620003dd578063dd2b8fbb1462000402578063dd6d30c11462000427578063e3331555146200043f57600080fd5b806394ad46d914620002e257806399623bb114620002fa5780639af1d35a146200031c5780639af252621462000359578063b2561263146200037e57600080fd5b80637613b08c11620001065780637613b08c146200021a57806377b81aac146200023f5780637f7c5a7d146200027f5780638522978514620002a65780638927f4e914620002cb57600080fd5b8063025b22bc146200014857806303a5aa92146200016f57806309b9075f14620001ae5780634fbfee7714620001d35780635aa6e67514620001f8575b600080fd5b3480156200015557600080fd5b506200016d6200016736600462000f11565b62000461565b005b3480156200017c57600080fd5b5060035462000191906001600160a01b031681565b6040516001600160a01b0390911681526020015b60405180910390f35b348015620001bb57600080fd5b506200016d620001cd36600462000f38565b620004f2565b348015620001e057600080fd5b506200016d620001f236600462000fb2565b62000530565b3480156200020557600080fd5b5060005462000191906001600160a01b031681565b3480156200022757600080fd5b506200016d6200023936600462000fcc565b6200058e565b3480156200024c57600080fd5b50620002706200025e36600462000f11565b60026020526000908152604090205481565b604051908152602001620001a5565b3480156200028c57600080fd5b506200029762000670565b604051620001a5919062000ff7565b348015620002b357600080fd5b506200016d620002c536600462000f11565b620006d4565b62000191620002dc3660046200118e565b6200075d565b348015620002ef57600080fd5b5062000297620007e0565b3480156200030757600080fd5b5060055462000191906001600160a01b031681565b3480156200032957600080fd5b506007546008546009546200033d92919083565b60408051938452602084019290925290820152606001620001a5565b3480156200036657600080fd5b506200016d6200037836600462000f38565b62000842565b3480156200038b57600080fd5b506200016d6200039d36600462000f11565b6200087b565b348015620003b057600080fd5b50600a5462000191906001600160a01b031681565b348015620003d257600080fd5b506200027060065481565b348015620003ea57600080fd5b506200016d620003fc36600462000f11565b620008ee565b3480156200040f57600080fd5b506200016d6200042136600462000f11565b62000963565b3480156200043457600080fd5b506200027060015481565b3480156200044c57600080fd5b5060045462000191906001600160a01b031681565b6000546001600160a01b031633146200048c576040516282b42960e81b815260040160405180910390fd5b6001600160a01b038116620004a057600080fd5b600380546001600160a01b0319166001600160a01b03831690811790915560018054810190556040517f310ba5f1d2ed074b51e2eccd052a47ae9ab7c6b800d1fca3db3999d6a592ca0390600090a250565b6000546001600160a01b031633146200051d576040516282b42960e81b815260040160405180910390fd5b6200052b600c838362000e6b565b505050565b6000546001600160a01b031633146200055b576040516282b42960e81b815260040160405180910390fd5b600681905560405181907f395a61259037298d1c4cd4bf177b64ad5995d38a9394573fcd9060d649314ad090600090a250565b6000546001600160a01b03163314620005b9576040516282b42960e81b815260040160405180910390fd5b7f0000000000000000000000000000000000000000000000000000000000000000813511806200060c57507f00000000000000000000000000000000000000000000000000000000000000008160200135115b806200063b57507f00000000000000000000000000000000000000000000000000000000000000008160400135115b156200065a5760405163cd4e616760e01b815260040160405180910390fd5b8035600755602081013560085560400135600955565b6060600b805480602002602001604051908101604052809291908181526020018280548015620006ca57602002820191906000526020600020905b81546001600160a01b03168152600190910190602001808311620006ab575b5050505050905090565b6000546001600160a01b03163314620006ff576040516282b42960e81b815260040160405180910390fd5b6001600160a01b0381166200071357600080fd5b600580546001600160a01b0319166001600160a01b0383169081179091556040517f03aa5b0fb65014eea89fda04a7bc11742014881f3c078f2c75b7226ce10d941890600090a250565b600080600c805480602002602001604051908101604052809291908181526020018280548015620007b857602002820191906000526020600020905b81546001600160a01b0316815260019091019060200180831162000799575b5050505050905060608190506000620007d488838888620009d8565b98975050505050505050565b6060600c805480602002602001604051908101604052809291908181526020018280548015620006ca576020028201919060005260206000209081546001600160a01b03168152600190910190602001808311620006ab575050505050905090565b6000546001600160a01b031633146200086d576040516282b42960e81b815260040160405180910390fd5b6200052b600b838362000e6b565b6000546001600160a01b03163314620008a6576040516282b42960e81b815260040160405180910390fd5b600080546001600160a01b0319166001600160a01b038316908117825560405190917f9d3e522e1e47a2f6009739342b9cc7b252a1888154e843ab55ee1c81745795ab91a250565b6000546001600160a01b0316331462000919576040516282b42960e81b815260040160405180910390fd5b600a80546001600160a01b0319166001600160a01b0383169081179091556040517fe5693914d19c789bdee50a362998c0bc8d035a835f9871da5d51152f0582c34f90600090a250565b6000546001600160a01b031633146200098e576040516282b42960e81b815260040160405180910390fd5b600480546001600160a01b0319166001600160a01b0383169081179091556040517ff3e07b4bb4394f2ff320bd1dd151551dff304d5e948b401d8558b228482c97d890600090a250565b60003415620009fa57604051638fbc3bd960e01b815260040160405180910390fd5b600a546001600160a01b039081166101008701523060e0870152604080516060810182526007548152600854602082015260095491810191909152610120870152600654600554909116600062000a548888858562000e01565b60035460405163e3420f4f60e01b81529192506000916001600160a01b039091169063e3420f4f9062000a94908c908690899089908f906004016200139c565b6020604051808303816000875af115801562000ab4573d6000803e3d6000fd5b505050506040513d601f19601f8201168201806040525081019062000ada9190620013e4565b6001546001600160a01b038083166000908152600260205260409081902083905560045490911660e08d015251919250907fc6f4867fb04085fae8d5bc8a6eb6bd83992441fe62b92acc3710f0cedf0e753a9062000b429084908d9088908a908f9062001404565b60405180910390a288516040516323b872dd60e01b8152336004820152306024820152604481018990526001600160a01b03909116906323b872dd906064016020604051808303816000875af115801562000ba1573d6000803e3d6000fd5b505050506040513d601f19601f8201168201806040525081019062000bc791906200144d565b50885160405163095ea7b360e01b81526001600160a01b03838116600483015260001960248301529091169063095ea7b3906044016020604051808303816000875af115801562000c1c573d6000803e3d6000fd5b505050506040513d601f19601f8201168201806040525081019062000c4291906200144d565b62000c60576040516340b27c2160e11b815260040160405180910390fd5b604051632002b33360e01b81526004810188905260248101879052336044820152600160648201526001600160a01b03821690632002b333906084016020604051808303816000875af115801562000cbc573d6000803e3d6000fd5b505050506040513d601f19601f8201168201806040525081019062000ce2919062001471565b5060005b600b5481101562000d9057816001600160a01b0316637180c8ca600b838154811062000d165762000d166200148b565b60009182526020909120015460405160e083901b6001600160e01b03191681526001600160a01b03909116600482015260016024820152604401600060405180830381600087803b15801562000d6b57600080fd5b505af115801562000d80573d6000803e3d6000fd5b5050505080600101905062000ce6565b506004805460405163ab033ea960e01b81526001600160a01b039182169281019290925282169063ab033ea990602401600060405180830381600087803b15801562000ddb57600080fd5b505af115801562000df0573d6000803e3d6000fd5b50929b9a5050505050505050505050565b60008483837f000000000000000000000000000000000000000000000000000000000000000060405162000e359062000ed3565b62000e449493929190620014a1565b604051809103906000f08015801562000e61573d6000803e3d6000fd5b5095945050505050565b82805482825590600052602060002090810192821562000ec1579160200282015b8281111562000ec15781546001600160a01b0319166001600160a01b0384351617825560209092019160019091019062000e8c565b5062000ecf92915062000ee1565b5090565b61268a80620014db83390190565b5b8082111562000ecf576000815560010162000ee2565b6001600160a01b038116811462000f0e57600080fd5b50565b60006020828403121562000f2457600080fd5b813562000f318162000ef8565b9392505050565b6000806020838503121562000f4c57600080fd5b823567ffffffffffffffff8082111562000f6557600080fd5b818501915085601f83011262000f7a57600080fd5b81358181111562000f8a57600080fd5b8660208260051b850101111562000fa057600080fd5b60209290920196919550909350505050565b60006020828403121562000fc557600080fd5b5035919050565b60006060828403121562000fdf57600080fd5b50919050565b803562000ff28162000ef8565b919050565b6020808252825182820181905260009190848201906040850190845b818110156200103a5783516001600160a01b03168352928401929184019160010162001013565b50909695505050505050565b634e487b7160e01b600052604160045260246000fd5b604051610180810167ffffffffffffffff8111828210171562001083576200108362001046565b60405290565b6000606082840312156200109c57600080fd5b6040516060810181811067ffffffffffffffff82111715620010c257620010c262001046565b80604052508091508235815260208301356020820152604083013560408201525092915050565b600082601f830112620010fb57600080fd5b8135602067ffffffffffffffff808311156200111b576200111b62001046565b8260051b604051601f19603f8301168101818110848211171562001143576200114362001046565b6040529384528581018301938381019250878511156200116257600080fd5b83870191505b84821015620011835781358352918301919083019062001168565b979650505050505050565b600080600080848603610220811215620011a757600080fd5b6101c080821215620011b857600080fd5b620011c26200105c565b9150620011cf8762000fe5565b82526020870135602083015260408701356040830152606087013560608301526080870135608083015260a087013560a083015260c087013560c08301526200121b60e0880162000fe5565b60e08301526101006200123081890162000fe5565b90830152610120620012458989830162001089565b908301526101808701356101408301526101a087013561016083015290945085013567ffffffffffffffff8111156200127d57600080fd5b6200128b87828801620010e9565b94979496505050506101e0830135926102000135919050565b80516001600160a01b031682526020810151602083015260408101516040830152606081015160608301526080810151608083015260a081015160a083015260c081015160c083015260e08101516200130860e08401826001600160a01b03169052565b50610100818101516001600160a01b0381168483015250506101208181015180518483015260208101516101408501526040810151610160850152505061014081015161018083015261016001516101a090910152565b600081518084526020808501945080840160005b83811015620013915781518752958201959082019060010162001373565b509495945050505050565b6000610240620013ad8389620012a4565b6001600160a01b038781166101c08501526101e0840187905285166102008401526102208301819052620007d4818401856200135f565b600060208284031215620013f757600080fd5b815162000f318162000ef8565b6001600160a01b03868116825260009061024090620014276020850189620012a4565b8087166101e0850152508461020084015280610220840152620007d4818401856200135f565b6000602082840312156200146057600080fd5b8151801515811462000f3157600080fd5b6000602082840312156200148457600080fd5b5051919050565b634e487b7160e01b600052603260045260246000fd5b6102208101620014b28287620012a4565b6101c08201949094526001600160a01b039283166101e082015291166102009091015291905056fe61026060405260016000553480156200001757600080fd5b506040516200268a3803806200268a8339810160408190526200003a91620002bc565b6001600160a01b0380831660805260a084905284511660c052604084015184908490849083906103e8111562000083576040516349db44f560e01b815260040160405180910390fd5b60408101516101605260608101516101805260a0810151600003620000bb57604051635428734d60e01b815260040160405180910390fd5b60a08101805160e0525160808201511080620000eb57508060a001518160800151620000e89190620003c2565b15155b156200010a5760405163253fffcf60e11b815260040160405180910390fd5b608081015161010090815260c082015161012090815260208301516101405260e0830151601180546001600160a01b0319166001600160a01b03928316179055918301519091166102005281015151670de0b6b3a764000010806200017f5750670de0b6b3a764000081610120015160200151115b806200019b5750670de0b6b3a764000081610120015160400151115b15620001ba576040516322f72cc360e11b815260040160405180910390fd5b61012081018051516101a0528051602001516101c05251604001516101e0526101600151610220525050506001600160a01b03166102405250620003e5915050565b60405161018081016001600160401b03811182821017156200022e57634e487b7160e01b600052604160045260246000fd5b60405290565b80516001600160a01b03811681146200024c57600080fd5b919050565b6000606082840312156200026457600080fd5b604051606081016001600160401b03811182821017156200029557634e487b7160e01b600052604160045260246000fd5b80604052508091508251815260208301516020820152604083015160408201525092915050565b600080600080848603610220811215620002d557600080fd5b6101c080821215620002e657600080fd5b620002f0620001fc565b9150620002fd8762000234565b82526020870151602083015260408701516040830152606087015160608301526080870151608083015260a087015160a083015260c087015160c08301526200034960e0880162000234565b60e08301526101006200035e81890162000234565b90830152610120620003738989830162000251565b908301526101808701516101408301526101a08701516101608301528601519094509250620003a66101e0860162000234565b9150620003b7610200860162000234565b905092959194509250565b600082620003e057634e487b7160e01b600052601260045260246000fd5b500690565b60805160a05160c05160e05161010051610120516101405161016051610180516101a0516101c0516101e0516102005161022051610240516121c1620004c9600039600081816103660152610def01526000610a87015260006109d701526000610a5001526000610a2b01526000610a080152600061093101526000818161090c0152610f2a0152600081816108e20152610f040152600081816109a70152610f5001526000818161095b01526112b401526000818161098101526115090152600081816108bd0152610be801526000610c3b01526000610ba801526121c16000f3fe608060405234801561001057600080fd5b506004361061012b5760003560e01c8063bd85b039116100ad578063c905a4b511610071578063c905a4b514610295578063cc962f8e1461029d578063d8165743146102c0578063e985e9c5146102d5578063fba56008146102e857600080fd5b8063bd85b0391461024a578063becee9c31461025d578063c45a01551461027d578063c55dae6314610285578063c69e16ad1461028d57600080fd5b80634e41a1fb116100f45780634e41a1fb146101e757806360246c88146101fa5780637ecebe001461020f578063afdac68d14610222578063b0d965801461023557600080fd5b8062ad800c1461013057806316f0115b1461015957806320fc48811461017957806321ff32a9146101b35780633656eec2146101d4575b600080fd5b61014361013e366004611ad5565b610317565b6040516101509190611b34565b60405180910390f35b610161610358565b6040516001600160a01b039091168152602001610150565b61018c610187366004611ad5565b61039b565b6040805182516001600160801b03168152602092830151600f0b9281019290925201610150565b6101c66101c1366004611b5e565b6103ed565b604051908152602001610150565b6101c66101e2366004611b9a565b610433565b6101436101f5366004611ad5565b61046c565b610202610494565b6040516101509190611bc6565b6101c661021d366004611c51565b61068e565b6101c6610230366004611ad5565b6106ba565b61023d6108a0565b6040516101509190611c6c565b6101c6610258366004611ad5565b610abd565b61027061026b366004611d2e565b610adf565b6040516101509190611da3565b610161610b9a565b610161610bda565b6101c6610c1a565b6101c6610c34565b6102b06102ab366004611c51565b610c6c565b6040519015158152602001610150565b6102c8610ca2565b6040516101509190611de7565b6102b06102e3366004611ed4565b610d08565b6102f0610d4c565b6040805182516001600160801b039081168252602093840151169281019290925201610150565b60606103536005600084815260200190815260200160002060405160200161033f9190611efe565b604051602081830303815290604052610dab565b919050565b604080516001600160a01b037f0000000000000000000000000000000000000000000000000000000000000000166020820152600091610398910161033f565b90565b6040805180820190915260008082526020820152610353600e600084815260200190815260200160002060405160200161033f91546001600160801b038116825260801d600f0b602082015260400190565b60008381526004602090815260408083206001600160a01b038681168552908352818420908516845282528083205481519283015261042c910161033f565b9392505050565b60008281526001602090815260408083206001600160a01b0385168452825280832054815192830152610466910161033f565b92915050565b60606103536006600084815260200190815260200160002060405160200161033f9190611efe565b6104ff604051806101a00160405280600081526020016000815260200160008152602001600081526020016000815260200160008152602001600081526020016000815260200160008152602001600081526020016000815260200160008152602001600081525090565b6000610509610dcf565b600d5460026020527f3ccfbaf375b4885450e3887dab0704e32e03acfeaf0442976372f6750e322c1f5460008080527fac33ff75c19e70fe83507db0d683fd3465c996598dc972688b7ace676c89077b54939450926001600160801b03909216916105749190611fc0565b61057e9190611fd3565b905060008083116105905760006105ab565b6105ab836105a56105a086610e67565b610fcd565b9061123f565b604080516101a0810182526008546001600160801b038082168352600954600f0b6020840152600160801b918290048116938301939093526060820186905260808201879052600a5480841660a0840152600b5480851660c085015290829004841660e08401528190048316610100830152600d5480841661012084015204909116610140820152909150600090610160810184156106535761064e8486611254565b610656565b60005b8152600954600160801b90046001600160801b03166020918201526040519192506106879161033f91849101611bc6565b5050505090565b6001600160a01b038116600090815260076020908152604080832054815192830152610353910161033f565b601354601280546000926001600160801b03600160801b8204811693911691849190839081106106ec576106ec611fe6565b600091825260208083206040805180820190915292015463ffffffff8116835264010000000090046001600160e01b031690820152915061072d8685611fd3565b90506000831561074757610742600185611fd3565b610756565b60125461075690600190611fd3565b60408051808201909152600080825260208201529091505b8482146108055760006012838154811061078a5761078a611fe6565b6000918252602090912001805490915063ffffffff1684106107d85760408051808201909152905463ffffffff8116825264010000000090046001600160e01b031660208201529050610805565b82156107ee576107e9600184611fd3565b6107fd565b6012546107fd90600190611fd3565b92505061076e565b805163ffffffff1660000361082d57604051630a89817b60e41b815260040160405180910390fd5b600081602001516001600160e01b031685602001516001600160e01b03166108559190611fd3565b825186519192506000916108729163ffffffff9081169116611fd3565b90506108936108818284612012565b60405160200161033f91815260200190565b5050505050505050919050565b6108a8611a37565b60408051610180810182526001600160a01b037f0000000000000000000000000000000000000000000000000000000000000000811682527f00000000000000000000000000000000000000000000000000000000000000006020808401919091527f0000000000000000000000000000000000000000000000000000000000000000838501527f00000000000000000000000000000000000000000000000000000000000000006060808501919091527f000000000000000000000000000000000000000000000000000000000000000060808501527f000000000000000000000000000000000000000000000000000000000000000060a08501527f000000000000000000000000000000000000000000000000000000000000000060c0850152601154831660e08501527f0000000000000000000000000000000000000000000000000000000000000000909216610100840152835191820184527f000000000000000000000000000000000000000000000000000000000000000082527f0000000000000000000000000000000000000000000000000000000000000000828201527f0000000000000000000000000000000000000000000000000000000000000000828501526101208301919091526012546101408301527f000000000000000000000000000000000000000000000000000000000000000061016083015291516103989261033f929101611c6c565b600081815260026020908152604080832054815192830152610353910161033f565b606060008267ffffffffffffffff811115610afc57610afc612026565b604051908082528060200260200182016040528015610b25578160200160208202803683370190505b50905060005b83811015610b7e576000858583818110610b4757610b47611fe6565b90506020020135905060008154905080848481518110610b6957610b69611fe6565b60209081029190910101525050600101610b2b565b50610b938160405160200161033f9190611da3565b5092915050565b604080516001600160a01b037f0000000000000000000000000000000000000000000000000000000000000000166020820152600091610398910161033f565b604080516001600160a01b037f0000000000000000000000000000000000000000000000000000000000000000166020820152600091610398910161033f565b600061039860105460405160200161033f91815260200190565b60006103987f000000000000000000000000000000000000000000000000000000000000000060405160200161033f91815260200190565b6001600160a01b03811660009081526014602090815260408083205490516103539261033f9260ff169101901515815260200190565b6040805161014081018252600080825260208201819052918101829052606081018290526080810182905260a0810182905260c0810182905260e081018290526101008101829052610120810191909152610398600860405160200161033f919061203c565b6001600160a01b038281166000908152600360209081526040808320938516835292815282822054835160ff9091161515918101919091529091610466910161033f565b6040805180820190915260008082526020820152604080518082018252600d546001600160801b03808216808452600160801b90920481166020938401908152845193840192909252905116918101919091526103989060600161033f565b80604051636e64089360e11b8152600401610dc69190611b34565b60405180910390fd5b6040516303d1689d60e11b8152670de0b6b3a764000060048201526000907f00000000000000000000000000000000000000000000000000000000000000006001600160a01b0316906307a2d13a90602401602060405180830381865afa158015610e3e573d6000803e3d6000fd5b505050506040513d601f19601f82011682018060405250810190610e6291906120bd565b905090565b610ec460405180610160016040528060008152602001600081526020016000815260200160008152602001600081526020016000815260200160008152602001600081526020016000815260200160008152602001600081525090565b60408051610160810182526008546001600160801b038082168352600954600f0b6020840152600160801b909104811692820192909252606081018490527f000000000000000000000000000000000000000000000000000000000000000060808201527f000000000000000000000000000000000000000000000000000000000000000060a08201527f000000000000000000000000000000000000000000000000000000000000000060c0820152600a54821660e0820152600b549091610100830191610f939116611269565b8152600a546001600160801b03600160801b9182900481166020840152600b54604090930192610fc592900416611269565b905292915050565b600080610fed83610140015184610120015161123f90919063ffffffff16565b61010084015160e08501516110019161123f565b61100b91906120d6565b90506000611021846000015185602001516112df565b905060008213156110c35760006110638286604001518760a001518860c00151670de0b6b3a76400006110549190611fd3565b89606001518a608001516112fc565b915061107190508184611385565b905080156110bd576110aa828660400151838860c00151670de0b6b3a764000061109b9190611fd3565b89606001518a6080015161139a565b855186906110b9908390611fd3565b9052505b50611181565b6000821215611181576110d5826120f6565b915060006111098286604001518760c00151670de0b6b3a76400006110fa9190611fd3565b886060015189608001516113d9565b915061111790508184611385565b9050801561116357611150828660400151838860c00151670de0b6b3a76400006111419190611fd3565b89606001518a60800151611463565b8551869061115f908390611fc0565b9052505b61116d8184611fd3565b8551869061117c908390611fc0565b905250505b60006111b0856101000151670de0b6b3a764000061119f9190611fd3565b606087015160e088015191906114e4565b6111de866101400151670de0b6b3a76400006111cc9190611fd3565b606088015161012089015191906114e4565b6111e891906120d6565b905060008186600001516111fc9190612112565b90508560a001518112156112235760405163aeeb825d60e01b815260040160405180910390fd5b80865260a08601516112359082611fd3565b9695505050505050565b600061042c8383670de0b6b3a76400006114e4565b600061042c83670de0b6b3a7640000846114e4565b600080670de0b6b3a764000061127d611502565b6112879190612132565b90508083116112975760006112a1565b6112a18184611fd3565b915061042c6112d8670de0b6b3a76400007f0000000000000000000000000000000000000000000000000000000000000000612132565b8390611254565b6000806112ec83856120d6565b9050600081121561042c57600080fd5b6000808061130a8585611254565b9050600061131b82868c8a8d611538565b9050600061135c611334670de0b6b3a76400008a611254565b61135261134b8b6113458b8f61123f565b90611566565b869061123f565b6113459085611fd3565b9050611368898c611fd3565b6113728b83611fd3565b945094505050505b965096945050505050565b6000818311611394578261042c565b50919050565b6000806113ab8888888888886115bd565b9092509050806113ce57604051637ac17d2560e01b815260040160405180910390fd5b509695505050505050565b600080806113e78585611254565b905060006113f882868b8a8c611538565b9050600061142d611411670de0b6b3a76400008a611254565b611345611426670de0b6b3a764000087611fc0565b8590611254565b9050600061143b8288611254565b90506114478b82611fd3565b611451838c611fd3565b95509550505050509550959350505050565b6000806114708484611254565b9050600061148182858b898c611538565b905061149186611345898b611fd3565b975060006114be6114aa670de0b6b3a76400008961165e565b611345856114b88d87611fd3565b90611254565b90506114ca8186611254565b90506114d68a82611fd3565b9a9950505050505050505050565b60008260001904841183021582026114fb57600080fd5b5091020490565b600061152e7f000000000000000000000000000000000000000000000000000000000000000042612149565b610e629042611fd3565b60006115448284611566565b61155c61155585611345898961123f565b889061123f565b6112359190611fc0565b60008160000361157f5750670de0b6b3a7640000610466565b8260000361158f57506000610466565b81600061159b85611673565b90508181026115b2670de0b6b3a76400008261215d565b905061123581611886565b600080806115cb8585611254565b905060006115dc82868c8a8d611538565b90506115ec876113458a8c611fc0565b9850888110156116045760008093509350505061137a565b600061162961161b670de0b6b3a76400008a61165e565b611345856114b88e87611fd3565b90506116358187611254565b9050808b111561164c57611649818c611fd3565b94505b60019350505050965096945050505050565b600061042c83670de0b6b3a764000084611a11565b600080821361169557604051636838feed60e11b815260040160405180910390fd5b5060606001600160801b03821160071b82811c67ffffffffffffffff1060061b1782811c63ffffffff1060051b1782811c61ffff1060041b1782811c60ff10600390811b90911783811c600f1060021b1783811c909110600190811b90911783811c90911017609f81810383019390931b90921c6c465772b2bbbb5f824b15207a3081018102821d6d0388eaa27412d5aca026815d636e018102821d6d0df99ac502031bf953eff472fdcc018102821d6d13cdffb29d51d99322bdff5f2211018102821d6d0a0f742023def783a307a986912e018102821d6d01920d8043ca89b5239253284e42018102821d6c0b7a86d7375468fac667a0a527016c29508e458543d8aa4df2abee7882018202831d6d0139601a2efabe717e604cbb4894018202831d6d02247f7a7b6594320649aa03aba1018202831d6c8c3f38e95a6b1ff2ab1c3b343619018202831d6d02384773bdf1ac5676facced60901901820290921d6cb9a025d814b29c212b8b1a07cd190102780a09507084cc699bb0e71ea869ffffffffffffffffffffffff190105711340daa0d5f769dba1915cef59f0815a550602605f19919091017d0267a36c0c95b3975ab3ee5b203a7614a3f75373f047d803ae7b6687f2b302017d57115e47018c7177eebf7cd370a3356a1b7863008a5ae8028c72b88642840160ae1d90565b6000680248ce36a70cb26b3e1982136118a157506000919050565b680755bf798b4a1bf1e582126118ca5760405163df92cc9d60e01b815260040160405180910390fd5b6503782dace9d9604e83901b059150600060606bb17217f7d1cf79abc9e3b39884821b056001605f1b01901d6bb17217f7d1cf79abc9e3b39881029093036c240c330e9fb2d9cbaf0fd5aafb1981018102606090811d6d0277594991cfc85f6e2461837cd9018202811d6d1a521255e34f6a5061b25ef1c9c319018202811d6db1bbb201f443cf962f1a1d3db4a5018202811d6e02c72388d9f74f51a9331fed693f1419018202811d6e05180bb14799ab47a8a8cb2a527d57016d02d16720577bd19bf614176fe9ea6c10fe68e7fd37d0007b713f765084018402831d9081019084016d01d3967ed30fc4f89c02bab5708119010290911d6e0587f503bb6ea29d25fcb740196450019091026d360d7aeea093263ecc6e0ecb291760621b010574029d9dc38563c32e5c2f6dc192ee70ef65f9978af30260c3939093039290921c92915050565b6000826000190484118302158202611a2857600080fd5b50910281810615159190040190565b60405180610180016040528060006001600160a01b0316815260200160008152602001600081526020016000815260200160008152602001600081526020016000815260200160006001600160a01b0316815260200160006001600160a01b03168152602001611ac160405180606001604052806000815260200160008152602001600081525090565b815260200160008152602001600081525090565b600060208284031215611ae757600080fd5b5035919050565b6000815180845260005b81811015611b1457602081850181015186830182015201611af8565b506000602082860101526020601f19601f83011685010191505092915050565b60208152600061042c6020830184611aee565b80356001600160a01b038116811461035357600080fd5b600080600060608486031215611b7357600080fd5b83359250611b8360208501611b47565b9150611b9160408501611b47565b90509250925092565b60008060408385031215611bad57600080fd5b82359150611bbd60208401611b47565b90509250929050565b815181526020808301519082015260408083015190820152606080830151908201526080808301519082015260a0808301519082015260c0808301519082015260e08083015190820152610100808301519082015261012080830151908201526101408083015190820152610160808301519082015261018091820151918101919091526101a00190565b600060208284031215611c6357600080fd5b61042c82611b47565b81516001600160a01b031681526101c081016020830151602083015260408301516040830152606083015160608301526080830151608083015260a083015160a083015260c083015160c083015260e0830151611cd460e08401826001600160a01b03169052565b50610100838101516001600160a01b03811684830152505061012083810151805184830152602081015161014085015260408101516101608501525050610140830151610180830152610160909201516101a09091015290565b60008060208385031215611d4157600080fd5b823567ffffffffffffffff80821115611d5957600080fd5b818501915085601f830112611d6d57600080fd5b813581811115611d7c57600080fd5b8660208260051b8501011115611d9157600080fd5b60209290920196919550909350505050565b6020808252825182820181905260009190848201906040850190845b81811015611ddb57835183529284019291840191600101611dbf565b50909695505050505050565b81516001600160801b0316815261014081016020830151611e1360208401826001600160801b03169052565b506040830151611e286040840182600f0b9052565b506060830151611e4360608401826001600160801b03169052565b506080830151611e5e60808401826001600160801b03169052565b5060a0830151611e7960a08401826001600160801b03169052565b5060c0830151611e9460c08401826001600160801b03169052565b5060e0830151611eaf60e08401826001600160801b03169052565b506101008381015115159083015261012080840151801515828501525b505092915050565b60008060408385031215611ee757600080fd5b611ef083611b47565b9150611bbd60208401611b47565b600060208083526000845481600182811c915080831680611f2057607f831692505b8583108103611f3d57634e487b7160e01b85526022600452602485fd5b878601838152602001818015611f5a5760018114611f7057611f9b565b60ff198616825284151560051b82019650611f9b565b60008b81526020902060005b86811015611f9557815484820152908501908901611f7c565b83019750505b50949998505050505050505050565b634e487b7160e01b600052601160045260246000fd5b8082018082111561046657610466611faa565b8181038181111561046657610466611faa565b634e487b7160e01b600052603260045260246000fd5b634e487b7160e01b600052601260045260246000fd5b60008261202157612021611ffc565b500490565b634e487b7160e01b600052604160045260246000fd5b81546001600160801b038082168352608091821c60208401526001840154600f81900b6040850152821c6060840152600284015480821683850152821c60a0840152600384015490811660c0840152901c60e0820152600482015460ff8082161515610100840152600882901c161515610120830152610140820190610b93565b6000602082840312156120cf57600080fd5b5051919050565b8181036000831280158383131683831282161715610b9357610b93611faa565b6000600160ff1b820161210b5761210b611faa565b5060000390565b8082018281126000831280158216821582161715611ecc57611ecc611faa565b808202811582820484141761046657610466611faa565b60008261215857612158611ffc565b500690565b60008261216c5761216c611ffc565b600160ff1b82146000198414161561218657612186611faa565b50059056fea26469706673582212203dd3a41b6e8e98243ae13770c29f488bc3b96cd1e3d87bf93f08b21cf697e3ce64736f6c63430008130033a264697066735822122067304e6ff12c5ed9ba773930b6d776cfbd0750c49c74278ed86512186272ab4964736f6c63430008130033",
    "linkReferences": {}
  },
  "methodIdentifiers": {
    "deployAndInitialize((address,uint256,uint256,uint256,uint256,uint256,uint256,address,address,(uint256,uint256,uint256),uint256,uint256),bytes32[],uint256,uint256)": "8927f4e9",
    "feeCollector()": "c415b95c",
    "fees()": "9af1d35a",
    "getDefaultPausers()": "7f7c5a7d",
    "getSweepTargets()": "94ad46d9",
    "governance()": "5aa6e675",
    "hyperdriveDeployer()": "03a5aa92",
    "hyperdriveGovernance()": "e3331555",
    "isOfficial(address)": "77b81aac",
    "linkerCodeHash()": "c905a4b5",
    "linkerFactory()": "99623bb1",
    "updateDefaultPausers(address[])": "9af25262",
    "updateFeeCollector(address)": "d2c35ce8",
    "updateFees((uint256,uint256,uint256))": "7613b08c",
    "updateGovernance(address)": "b2561263",
    "updateHyperdriveGovernance(address)": "dd2b8fbb",
    "updateImplementation(address)": "025b22bc",
    "updateLinkerCodeHash(bytes32)": "4fbfee77",
    "updateLinkerFactory(address)": "85229785",
    "updateSweepTargets(address[])": "09b9075f",
    "versionCounter()": "dd6d30c1"
  },
  "id": 10
}