{
  "abi": [
    {
      "inputs": [
        {
          "components": [
            {
              "internalType": "address",
              "name": "governance",
              "type": "address"
            },
            {
              "internalType": "address",
              "name": "hyperdriveGovernance",
              "type": "address"
            },
            {
              "internalType": "address[]",
              "name": "defaultPausers",
              "type": "address[]"
            },
            {
              "internalType": "address",
              "name": "feeCollector",
              "type": "address"
            },
            {
              "components": [
                {
                  "internalType": "uint256",
                  "name": "curve",
                  "type": "uint256"
                },
                {
                  "internalType": "uint256",
                  "name": "flat",
                  "type": "uint256"
                },
                {
                  "internalType": "uint256",
                  "name": "governance",
                  "type": "uint256"
                }
              ],
              "internalType": "struct IHyperdrive.Fees",
              "name": "fees",
              "type": "tuple"
            },
            {
              "components": [
                {
                  "internalType": "uint256",
                  "name": "curve",
                  "type": "uint256"
                },
                {
                  "internalType": "uint256",
                  "name": "flat",
                  "type": "uint256"
                },
                {
                  "internalType": "uint256",
                  "name": "governance",
                  "type": "uint256"
                }
              ],
              "internalType": "struct IHyperdrive.Fees",
              "name": "maxFees",
              "type": "tuple"
            },
            {
              "internalType": "contract IHyperdriveDeployer",
              "name": "hyperdriveDeployer",
              "type": "address"
            },
            {
              "internalType": "contract IHyperdriveTargetDeployer",
              "name": "target0Deployer",
              "type": "address"
            },
            {
              "internalType": "contract IHyperdriveTargetDeployer",
              "name": "target1Deployer",
              "type": "address"
            },
            {
              "internalType": "address",
              "name": "linkerFactory",
              "type": "address"
            },
            {
              "internalType": "bytes32",
              "name": "linkerCodeHash",
              "type": "bytes32"
            }
          ],
          "internalType": "struct HyperdriveFactory.FactoryConfig",
          "name": "_factoryConfig",
          "type": "tuple"
        },
        {
          "internalType": "address[]",
          "name": "__sweepTargets",
          "type": "address[]"
        }
      ],
      "stateMutability": "nonpayable",
      "type": "constructor"
    },
    {
      "inputs": [],
      "name": "ApprovalFailed",
      "type": "error"
    },
    {
      "inputs": [],
      "name": "EndIndexTooLarge",
      "type": "error"
    },
    {
      "inputs": [],
      "name": "FeeTooHigh",
      "type": "error"
    },
    {
      "inputs": [],
      "name": "InvalidIndexes",
      "type": "error"
    },
    {
      "inputs": [],
      "name": "MaxFeeTooHigh",
      "type": "error"
    },
    {
      "inputs": [],
      "name": "NonPayableInitialization",
      "type": "error"
    },
    {
      "inputs": [],
      "name": "Unauthorized",
      "type": "error"
    },
    {
      "anonymous": false,
      "inputs": [
        {
          "indexed": true,
          "internalType": "uint256",
          "name": "version",
          "type": "uint256"
        },
        {
          "indexed": false,
          "internalType": "address",
          "name": "hyperdrive",
          "type": "address"
        },
        {
          "components": [
            {
              "internalType": "contract IERC20",
              "name": "baseToken",
              "type": "address"
            },
            {
              "internalType": "address",
              "name": "linkerFactory",
              "type": "address"
            },
            {
              "internalType": "bytes32",
              "name": "linkerCodeHash",
              "type": "bytes32"
            },
            {
              "internalType": "uint256",
              "name": "initialSharePrice",
              "type": "uint256"
            },
            {
              "internalType": "uint256",
              "name": "minimumShareReserves",
              "type": "uint256"
            },
            {
              "internalType": "uint256",
              "name": "minimumTransactionAmount",
              "type": "uint256"
            },
            {
              "internalType": "uint256",
              "name": "precisionThreshold",
              "type": "uint256"
            },
            {
              "internalType": "uint256",
              "name": "positionDuration",
              "type": "uint256"
            },
            {
              "internalType": "uint256",
              "name": "checkpointDuration",
              "type": "uint256"
            },
            {
              "internalType": "uint256",
              "name": "timeStretch",
              "type": "uint256"
            },
            {
              "internalType": "address",
              "name": "governance",
              "type": "address"
            },
            {
              "internalType": "address",
              "name": "feeCollector",
              "type": "address"
            },
            {
              "components": [
                {
                  "internalType": "uint256",
                  "name": "curve",
                  "type": "uint256"
                },
                {
                  "internalType": "uint256",
                  "name": "flat",
                  "type": "uint256"
                },
                {
                  "internalType": "uint256",
                  "name": "governance",
                  "type": "uint256"
                }
              ],
              "internalType": "struct IHyperdrive.Fees",
              "name": "fees",
              "type": "tuple"
            }
          ],
          "indexed": false,
          "internalType": "struct IHyperdrive.PoolConfig",
          "name": "config",
          "type": "tuple"
        },
        {
          "indexed": false,
          "internalType": "bytes32[]",
          "name": "extraData",
          "type": "bytes32[]"
        }
      ],
      "name": "Deployed",
      "type": "event"
    },
    {
      "anonymous": false,
      "inputs": [
        {
          "indexed": true,
          "internalType": "address",
          "name": "newFeeCollector",
          "type": "address"
        }
      ],
      "name": "FeeCollectorUpdated",
      "type": "event"
    },
    {
      "anonymous": false,
      "inputs": [
        {
          "indexed": true,
          "internalType": "address",
          "name": "governance",
          "type": "address"
        }
      ],
      "name": "GovernanceUpdated",
      "type": "event"
    },
    {
      "anonymous": false,
      "inputs": [
        {
          "indexed": true,
          "internalType": "address",
          "name": "hyperdriveGovernance",
          "type": "address"
        }
      ],
      "name": "HyperdriveGovernanceUpdated",
      "type": "event"
    },
    {
      "anonymous": false,
      "inputs": [
        {
          "indexed": true,
          "internalType": "address",
          "name": "newDeployer",
          "type": "address"
        }
      ],
      "name": "ImplementationUpdated",
      "type": "event"
    },
    {
      "anonymous": false,
      "inputs": [
        {
          "indexed": true,
          "internalType": "bytes32",
          "name": "newLinkerCodeHash",
          "type": "bytes32"
        }
      ],
      "name": "LinkerCodeHashUpdated",
      "type": "event"
    },
    {
      "anonymous": false,
      "inputs": [
        {
          "indexed": true,
          "internalType": "address",
          "name": "newLinkerFactory",
          "type": "address"
        }
      ],
      "name": "LinkerFactoryUpdated",
      "type": "event"
    },
    {
      "inputs": [
        {
          "components": [
            {
              "internalType": "contract IERC20",
              "name": "baseToken",
              "type": "address"
            },
            {
              "internalType": "address",
              "name": "linkerFactory",
              "type": "address"
            },
            {
              "internalType": "bytes32",
              "name": "linkerCodeHash",
              "type": "bytes32"
            },
            {
              "internalType": "uint256",
              "name": "initialSharePrice",
              "type": "uint256"
            },
            {
              "internalType": "uint256",
              "name": "minimumShareReserves",
              "type": "uint256"
            },
            {
              "internalType": "uint256",
              "name": "minimumTransactionAmount",
              "type": "uint256"
            },
            {
              "internalType": "uint256",
              "name": "precisionThreshold",
              "type": "uint256"
            },
            {
              "internalType": "uint256",
              "name": "positionDuration",
              "type": "uint256"
            },
            {
              "internalType": "uint256",
              "name": "checkpointDuration",
              "type": "uint256"
            },
            {
              "internalType": "uint256",
              "name": "timeStretch",
              "type": "uint256"
            },
            {
              "internalType": "address",
              "name": "governance",
              "type": "address"
            },
            {
              "internalType": "address",
              "name": "feeCollector",
              "type": "address"
            },
            {
              "components": [
                {
                  "internalType": "uint256",
                  "name": "curve",
                  "type": "uint256"
                },
                {
                  "internalType": "uint256",
                  "name": "flat",
                  "type": "uint256"
                },
                {
                  "internalType": "uint256",
                  "name": "governance",
                  "type": "uint256"
                }
              ],
              "internalType": "struct IHyperdrive.Fees",
              "name": "fees",
              "type": "tuple"
            }
          ],
          "internalType": "struct IHyperdrive.PoolConfig",
          "name": "_config",
          "type": "tuple"
        },
        {
          "internalType": "uint256",
          "name": "_contribution",
          "type": "uint256"
        },
        {
          "internalType": "uint256",
          "name": "_apr",
          "type": "uint256"
        },
        {
          "internalType": "bytes",
          "name": "_initializeExtraData",
          "type": "bytes"
        },
        {
          "internalType": "bytes32[]",
          "name": "",
          "type": "bytes32[]"
        },
        {
          "internalType": "address",
          "name": "_pool",
          "type": "address"
        }
      ],
      "name": "deployAndInitialize",
      "outputs": [
        {
          "internalType": "contract IHyperdrive",
          "name": "",
          "type": "address"
        }
      ],
      "stateMutability": "payable",
      "type": "function"
    },
    {
      "inputs": [],
      "name": "feeCollector",
      "outputs": [
        {
          "internalType": "address",
          "name": "",
          "type": "address"
        }
      ],
      "stateMutability": "view",
      "type": "function"
    },
    {
      "inputs": [],
      "name": "fees",
      "outputs": [
        {
          "internalType": "uint256",
          "name": "curve",
          "type": "uint256"
        },
        {
          "internalType": "uint256",
          "name": "flat",
          "type": "uint256"
        },
        {
          "internalType": "uint256",
          "name": "governance",
          "type": "uint256"
        }
      ],
      "stateMutability": "view",
      "type": "function"
    },
    {
      "inputs": [],
      "name": "getDefaultPausers",
      "outputs": [
        {
          "internalType": "address[]",
          "name": "",
          "type": "address[]"
        }
      ],
      "stateMutability": "view",
      "type": "function"
    },
    {
      "inputs": [
        {
          "internalType": "uint256",
          "name": "index",
          "type": "uint256"
        }
      ],
      "name": "getInstanceAtIndex",
      "outputs": [
        {
          "internalType": "address",
          "name": "",
          "type": "address"
        }
      ],
      "stateMutability": "view",
      "type": "function"
    },
    {
      "inputs": [
        {
          "internalType": "uint256",
          "name": "startIndex",
          "type": "uint256"
        },
        {
          "internalType": "uint256",
          "name": "endIndex",
          "type": "uint256"
        }
      ],
      "name": "getInstancesInRange",
      "outputs": [
        {
          "internalType": "address[]",
          "name": "range",
          "type": "address[]"
        }
      ],
      "stateMutability": "view",
      "type": "function"
    },
    {
      "inputs": [],
      "name": "getNumberOfInstances",
      "outputs": [
        {
          "internalType": "uint256",
          "name": "",
          "type": "uint256"
        }
      ],
      "stateMutability": "view",
      "type": "function"
    },
    {
      "inputs": [],
      "name": "getSweepTargets",
      "outputs": [
        {
          "internalType": "address[]",
          "name": "",
          "type": "address[]"
        }
      ],
      "stateMutability": "view",
      "type": "function"
    },
    {
      "inputs": [],
      "name": "governance",
      "outputs": [
        {
          "internalType": "address",
          "name": "",
          "type": "address"
        }
      ],
      "stateMutability": "view",
      "type": "function"
    },
    {
      "inputs": [],
      "name": "hyperdriveDeployer",
      "outputs": [
        {
          "internalType": "contract IHyperdriveDeployer",
          "name": "",
          "type": "address"
        }
      ],
      "stateMutability": "view",
      "type": "function"
    },
    {
      "inputs": [],
      "name": "hyperdriveGovernance",
      "outputs": [
        {
          "internalType": "address",
          "name": "",
          "type": "address"
        }
      ],
      "stateMutability": "view",
      "type": "function"
    },
    {
      "inputs": [
        {
          "internalType": "address",
          "name": "",
          "type": "address"
        }
      ],
      "name": "isInstance",
      "outputs": [
        {
          "internalType": "bool",
          "name": "",
          "type": "bool"
        }
      ],
      "stateMutability": "view",
      "type": "function"
    },
    {
      "inputs": [
        {
          "internalType": "address",
          "name": "instance",
          "type": "address"
        }
      ],
      "name": "isOfficial",
      "outputs": [
        {
          "internalType": "uint256",
          "name": "version",
          "type": "uint256"
        }
      ],
      "stateMutability": "view",
      "type": "function"
    },
    {
      "inputs": [],
      "name": "linkerCodeHash",
      "outputs": [
        {
          "internalType": "bytes32",
          "name": "",
          "type": "bytes32"
        }
      ],
      "stateMutability": "view",
      "type": "function"
    },
    {
      "inputs": [],
      "name": "linkerFactory",
      "outputs": [
        {
          "internalType": "address",
          "name": "",
          "type": "address"
        }
      ],
      "stateMutability": "view",
      "type": "function"
    },
    {
      "inputs": [],
      "name": "target0Deployer",
      "outputs": [
        {
          "internalType": "contract IHyperdriveTargetDeployer",
          "name": "",
          "type": "address"
        }
      ],
      "stateMutability": "view",
      "type": "function"
    },
    {
      "inputs": [],
      "name": "target1Deployer",
      "outputs": [
        {
          "internalType": "contract IHyperdriveTargetDeployer",
          "name": "",
          "type": "address"
        }
      ],
      "stateMutability": "view",
      "type": "function"
    },
    {
      "inputs": [
        {
          "internalType": "address[]",
          "name": "_defaultPausers_",
          "type": "address[]"
        }
      ],
      "name": "updateDefaultPausers",
      "outputs": [],
      "stateMutability": "nonpayable",
      "type": "function"
    },
    {
      "inputs": [
        {
          "internalType": "address",
          "name": "_feeCollector",
          "type": "address"
        }
      ],
      "name": "updateFeeCollector",
      "outputs": [],
      "stateMutability": "nonpayable",
      "type": "function"
    },
    {
      "inputs": [
        {
          "components": [
            {
              "internalType": "uint256",
              "name": "curve",
              "type": "uint256"
            },
            {
              "internalType": "uint256",
              "name": "flat",
              "type": "uint256"
            },
            {
              "internalType": "uint256",
              "name": "governance",
              "type": "uint256"
            }
          ],
          "internalType": "struct IHyperdrive.Fees",
          "name": "_fees",
          "type": "tuple"
        }
      ],
      "name": "updateFees",
      "outputs": [],
      "stateMutability": "nonpayable",
      "type": "function"
    },
    {
      "inputs": [
        {
          "internalType": "address",
          "name": "_governance",
          "type": "address"
        }
      ],
      "name": "updateGovernance",
      "outputs": [],
      "stateMutability": "nonpayable",
      "type": "function"
    },
    {
      "inputs": [
        {
          "internalType": "address",
          "name": "_hyperdriveGovernance",
          "type": "address"
        }
      ],
      "name": "updateHyperdriveGovernance",
      "outputs": [],
      "stateMutability": "nonpayable",
      "type": "function"
    },
    {
      "inputs": [
        {
          "internalType": "contract IHyperdriveDeployer",
          "name": "newDeployer",
          "type": "address"
        }
      ],
      "name": "updateImplementation",
      "outputs": [],
      "stateMutability": "nonpayable",
      "type": "function"
    },
    {
      "inputs": [
        {
          "internalType": "bytes32",
          "name": "_linkerCodeHash",
          "type": "bytes32"
        }
      ],
      "name": "updateLinkerCodeHash",
      "outputs": [],
      "stateMutability": "nonpayable",
      "type": "function"
    },
    {
      "inputs": [
        {
          "internalType": "address",
          "name": "_linkerFactory",
          "type": "address"
        }
      ],
      "name": "updateLinkerFactory",
      "outputs": [],
      "stateMutability": "nonpayable",
      "type": "function"
    },
    {
      "inputs": [
        {
          "internalType": "address[]",
          "name": "__sweepTargets",
          "type": "address[]"
        }
      ],
      "name": "updateSweepTargets",
      "outputs": [],
      "stateMutability": "nonpayable",
      "type": "function"
    },
    {
      "inputs": [],
      "name": "versionCounter",
      "outputs": [
        {
          "internalType": "uint256",
          "name": "",
          "type": "uint256"
        }
      ],
      "stateMutability": "view",
      "type": "function"
    }
  ],
  "bytecode": {
    "object": "0x60e0604052600180553480156200001557600080fd5b5060405162001f0538038062001f058339810160408190526200003891620003fc565b60a08083018051516080819052815160200151909252516040015160c0528290670de0b6b3a76400001080620000775750670de0b6b3a764000060a051115b806200008c5750670de0b6b3a764000060c051115b15620000ab5760405163a3932d2d60e01b815260040160405180910390fd5b6080805190820151511180620000ca575060a051816080015160200151115b80620000df575060c051816080015160400151115b15620000fe5760405163cd4e616760e01b815260040160405180910390fd5b60808101518051600955602080820151600a55604091820151600b558251600080546001600160a01b039283166001600160a01b03199182161790915582850151600680549184169183169190911790556060850151600c80549190931691161790559082015180516200017792600d92019062000200565b5060c0810151600380546001600160a01b039283166001600160a01b03199182161790915560e083015160048054918416918316919091179055610100830151600580549184169183169190911790556101208301516007805491909316911617905561014001516008558051620001f790601090602084019062000200565b5050506200055a565b82805482825590600052602060002090810192821562000258579160200282015b828111156200025857825182546001600160a01b0319166001600160a01b0390911617825560209092019160019091019062000221565b50620002669291506200026a565b5090565b5b808211156200026657600081556001016200026b565b634e487b7160e01b600052604160045260246000fd5b60405161016081016001600160401b0381118282101715620002bd57620002bd62000281565b60405290565b6001600160a01b0381168114620002d957600080fd5b50565b8051620002e981620002c3565b919050565b600082601f8301126200030057600080fd5b815160206001600160401b03808311156200031f576200031f62000281565b8260051b604051601f19603f8301168101818110848211171562000347576200034762000281565b6040529384528581018301938381019250878511156200036657600080fd5b83870191505b84821015620003925781516200038281620002c3565b835291830191908301906200036c565b979650505050505050565b600060608284031215620003b057600080fd5b604051606081016001600160401b0381118282101715620003d557620003d562000281565b80604052508091508251815260208301516020820152604083015160408201525092915050565b600080604083850312156200041057600080fd5b82516001600160401b03808211156200042857600080fd5b908401906101e082870312156200043e57600080fd5b6200044862000297565b6200045383620002dc565b81526200046360208401620002dc565b60208201526040830151828111156200047b57600080fd5b6200048988828601620002ee565b6040830152506200049d60608401620002dc565b6060820152620004b187608085016200039d565b6080820152620004c58760e085016200039d565b60a0820152610140620004da818501620002dc565b60c0830152620004ee6101608501620002dc565b60e0830152620005026101808501620002dc565b610100830152620005176101a08501620002dc565b6101208301526101c084015181830152508094505060208501519150808211156200054157600080fd5b506200055085828601620002ee565b9150509250929050565b60805160a05160c05161197b6200058a600039600061076a0152600061073c01526000610712015261197b6000f3fe60806040526004361061019c5760003560e01c806399623bb1116100ec578063c415b95c1161008a578063daac24da11610064578063daac24da146104c6578063dd2b8fbb146104e6578063dd6d30c114610506578063e33315551461051c57600080fd5b8063c415b95c14610470578063c905a4b514610490578063d2c35ce8146104a657600080fd5b8063a085fa30116100c6578063a085fa30146103f0578063ab71905f14610410578063b256126314610430578063bc30e7a11461045057600080fd5b806399623bb1146103765780639af1d35a146103965780639af25262146103d057600080fd5b80636b44e6be1161015957806377b81aac1161013357806377b81aac146102f25780637f7c5a7d1461031f578063852297851461034157806394ad46d91461036157600080fd5b80636b44e6be146102735780636e95d67c146102b35780637613b08c146102d257600080fd5b8063025b22bc146101a157806303a5aa92146101c357806309b9075f146102005780630a4bc38d146102205780634fbfee77146102335780635aa6e67514610253575b600080fd5b3480156101ad57600080fd5b506101c16101bc3660046111c3565b61053c565b005b3480156101cf57600080fd5b506003546101e3906001600160a01b031681565b6040516001600160a01b0390911681526020015b60405180910390f35b34801561020c57600080fd5b506101c161021b3660046111e7565b6105cb565b6101e361022e366004611429565b610606565b34801561023f57600080fd5b506101c161024e36600461157d565b610689565b34801561025f57600080fd5b506000546101e3906001600160a01b031681565b34801561027f57600080fd5b506102a361028e3660046111c3565b600f6020526000908152604090205460ff1681565b60405190151581526020016101f7565b3480156102bf57600080fd5b50600e545b6040519081526020016101f7565b3480156102de57600080fd5b506101c16102ed366004611596565b6106e6565b3480156102fe57600080fd5b506102c461030d3660046111c3565b60026020526000908152604090205481565b34801561032b57600080fd5b506103346107c4565b6040516101f791906115ae565b34801561034d57600080fd5b506101c161035c3660046111c3565b610826565b34801561036d57600080fd5b506103346108ad565b34801561038257600080fd5b506007546101e3906001600160a01b031681565b3480156103a257600080fd5b50600954600a54600b546103b592919083565b604080519384526020840192909252908201526060016101f7565b3480156103dc57600080fd5b506101c16103eb3660046111e7565b61090d565b3480156103fc57600080fd5b506005546101e3906001600160a01b031681565b34801561041c57600080fd5b506004546101e3906001600160a01b031681565b34801561043c57600080fd5b506101c161044b3660046111c3565b610943565b34801561045c57600080fd5b5061033461046b3660046115fb565b6109b5565b34801561047c57600080fd5b50600c546101e3906001600160a01b031681565b34801561049c57600080fd5b506102c460085481565b3480156104b257600080fd5b506101c16104c13660046111c3565b610ad1565b3480156104d257600080fd5b506101e36104e136600461157d565b610b45565b3480156104f257600080fd5b506101c16105013660046111c3565b610b75565b34801561051257600080fd5b506102c460015481565b34801561052857600080fd5b506006546101e3906001600160a01b031681565b6000546001600160a01b03163314610566576040516282b42960e81b815260040160405180910390fd5b6001600160a01b03811661057957600080fd5b600380546001600160a01b0319166001600160a01b03831690811790915560018054810190556040517f310ba5f1d2ed074b51e2eccd052a47ae9ab7c6b800d1fca3db3999d6a592ca0390600090a250565b6000546001600160a01b031633146105f5576040516282b42960e81b815260040160405180910390fd5b61060160108383611133565b505050565b600080601080548060200260200160405190810160405280929190818152602001828054801561065f57602002820191906000526020600020905b81546001600160a01b03168152600190910190602001808311610641575b505050505090506060819050600061067b8a8a8a8a868a610be9565b9a9950505050505050505050565b6000546001600160a01b031633146106b3576040516282b42960e81b815260040160405180910390fd5b600881905560405181907f395a61259037298d1c4cd4bf177b64ad5995d38a9394573fcd9060d649314ad090600090a250565b6000546001600160a01b03163314610710576040516282b42960e81b815260040160405180910390fd5b7f00000000000000000000000000000000000000000000000000000000000000008135118061076257507f00000000000000000000000000000000000000000000000000000000000000008160200135115b8061079057507f00000000000000000000000000000000000000000000000000000000000000008160400135115b156107ae5760405163cd4e616760e01b815260040160405180910390fd5b80356009556020810135600a5560400135600b55565b6060600d80548060200260200160405190810160405280929190818152602001828054801561081c57602002820191906000526020600020905b81546001600160a01b031681526001909101906020018083116107fe575b5050505050905090565b6000546001600160a01b03163314610850576040516282b42960e81b815260040160405180910390fd5b6001600160a01b03811661086357600080fd5b600780546001600160a01b0319166001600160a01b0383169081179091556040517f03aa5b0fb65014eea89fda04a7bc11742014881f3c078f2c75b7226ce10d941890600090a250565b6060601080548060200260200160405190810160405280929190818152602001828054801561081c576020028201919060005260206000209081546001600160a01b031681526001909101906020018083116107fe575050505050905090565b6000546001600160a01b03163314610937576040516282b42960e81b815260040160405180910390fd5b610601600d8383611133565b6000546001600160a01b0316331461096d576040516282b42960e81b815260040160405180910390fd5b600080546001600160a01b0319166001600160a01b038316908117825560405190917f9d3e522e1e47a2f6009739342b9cc7b252a1888154e843ab55ee1c81745795ab91a250565b6060818311156109d857604051633b2735ab60e11b815260040160405180910390fd5b600e548211156109fb5760405163e0f7becb60e01b815260040160405180910390fd5b610a058383611633565b610a1090600161164c565b67ffffffffffffffff811115610a2857610a2861125c565b604051908082528060200260200182016040528015610a51578160200160208202803683370190505b509050825b828111610aca57600e8181548110610a7057610a7061165f565b6000918252602090912001546001600160a01b031682610a908684611633565b81518110610aa057610aa061165f565b6001600160a01b039092166020928302919091019091015280610ac281611675565b915050610a56565b5092915050565b6000546001600160a01b03163314610afb576040516282b42960e81b815260040160405180910390fd5b600c80546001600160a01b0319166001600160a01b0383169081179091556040517fe5693914d19c789bdee50a362998c0bc8d035a835f9871da5d51152f0582c34f90600090a250565b6000600e8281548110610b5a57610b5a61165f565b6000918252602090912001546001600160a01b031692915050565b6000546001600160a01b03163314610b9f576040516282b42960e81b815260040160405180910390fd5b600680546001600160a01b0319166001600160a01b0383169081179091556040517ff3e07b4bb4394f2ff320bd1dd151551dff304d5e948b401d8558b228482c97d890600090a250565b60003415610c0a57604051638fbc3bd960e01b815260040160405180910390fd5b6007546001600160a01b039081166020808a01919091526008546040808b0191909152600c5483166101608b0152306101408b015280516060810182526009548152600a5492810192909252600b54828201526101808a01919091526003546004805492516228eec760e61b815260009492831693637a77fb8f938d93911691630a3bb1c091610ca09185918c918c910161179e565b6020604051808303816000875af1158015610cbf573d6000803e3d6000fd5b505050506040513d601f19601f82011682018060405250810190610ce391906117da565b6005546040516228eec760e61b81526001600160a01b0390911690630a3bb1c090610d16908f908c908c9060040161179e565b6020604051808303816000875af1158015610d35573d6000803e3d6000fd5b505050506040513d601f19601f82011682018060405250810190610d5991906117da565b88886040518663ffffffff1660e01b8152600401610d7b9594939291906117f7565b6020604051808303816000875af1158015610d9a573d6000803e3d6000fd5b505050506040513d601f19601f82011682018060405250810190610dbe91906117da565b6001546001600160a01b03808316600090815260026020526040908190208390556006549091166101408c015251919250907f182eef5a11a432f42fc4cfb3fc11289cdb0179382ff5f41dc9ec327c4a2d364490610e219084908c90899061184b565b60405180910390a2600e805460018082019092557fbb7b4a454dc3493923482f07822329ed19e8244eff582cc204f8554c3620c3fd0180546001600160a01b0319166001600160a01b038481169182179092556000908152600f602052604090819020805460ff1916909317909255895191516323b872dd60e01b8152336004820152306024820152604481018a90529116906323b872dd906064016020604051808303816000875af1158015610edc573d6000803e3d6000fd5b505050506040513d601f19601f82011682018060405250810190610f009190611886565b50875160405163095ea7b360e01b81526001600160a01b03838116600483015260001960248301529091169063095ea7b3906044016020604051808303816000875af1158015610f54573d6000803e3d6000fd5b505050506040513d601f19601f82011682018060405250810190610f789190611886565b610f95576040516340b27c2160e11b815260040160405180910390fd5b60408051606081018252338152600160208201528082018790529051631df417fd60e21b81526001600160a01b038316916377d05ff491610fdd918b918b91906004016118a8565b6020604051808303816000875af1158015610ffc573d6000803e3d6000fd5b505050506040513d601f19601f82011682018060405250810190611020919061192c565b5060005b600d548110156110c757816001600160a01b0316637180c8ca600d83815481106110505761105061165f565b60009182526020909120015460405160e083901b6001600160e01b03191681526001600160a01b03909116600482015260016024820152604401600060405180830381600087803b1580156110a457600080fd5b505af11580156110b8573d6000803e3d6000fd5b50505050806001019050611024565b5060065460405163ab033ea960e01b81526001600160a01b0391821660048201529082169063ab033ea990602401600060405180830381600087803b15801561110f57600080fd5b505af1158015611123573d6000803e3d6000fd5b50929a9950505050505050505050565b828054828255906000526020600020908101928215611186579160200282015b828111156111865781546001600160a01b0319166001600160a01b03843516178255602090920191600190910190611153565b50611192929150611196565b5090565b5b808211156111925760008155600101611197565b6001600160a01b03811681146111c057600080fd5b50565b6000602082840312156111d557600080fd5b81356111e0816111ab565b9392505050565b600080602083850312156111fa57600080fd5b823567ffffffffffffffff8082111561121257600080fd5b818501915085601f83011261122657600080fd5b81358181111561123557600080fd5b8660208260051b850101111561124a57600080fd5b60209290920196919550909350505050565b634e487b7160e01b600052604160045260246000fd5b6040516101a0810167ffffffffffffffff811182821017156112965761129661125c565b60405290565b604051601f8201601f1916810167ffffffffffffffff811182821017156112c5576112c561125c565b604052919050565b80356112d8816111ab565b919050565b6000606082840312156112ef57600080fd5b6040516060810181811067ffffffffffffffff821117156113125761131261125c565b80604052508091508235815260208301356020820152604083013560408201525092915050565b600082601f83011261134a57600080fd5b813567ffffffffffffffff8111156113645761136461125c565b611377601f8201601f191660200161129c565b81815284602083860101111561138c57600080fd5b816020850160208301376000918101602001919091529392505050565b600082601f8301126113ba57600080fd5b8135602067ffffffffffffffff8211156113d6576113d661125c565b8160051b6113e582820161129c565b92835284810182019282810190878511156113ff57600080fd5b83870192505b8483101561141e57823582529183019190830190611405565b979650505050505050565b60008060008060008086880361028081121561144457600080fd5b6101e08082121561145457600080fd5b61145c611272565b9150611467896112cd565b825261147560208a016112cd565b602083015260408901356040830152606089013560608301526080890135608083015260a089013560a083015260c089013560c083015260e089013560e0830152610100808a01358184015250610120808a013581840152506101406114dc818b016112cd565b908301526101606114ee8a82016112cd565b908301526101806115018b8b83016112dd565b908301529096508701359450610200870135935061022087013567ffffffffffffffff8082111561153157600080fd5b61153d8a838b01611339565b945061024089013591508082111561155457600080fd5b5061156189828a016113a9565b92505061157161026088016112cd565b90509295509295509295565b60006020828403121561158f57600080fd5b5035919050565b6000606082840312156115a857600080fd5b50919050565b6020808252825182820181905260009190848201906040850190845b818110156115ef5783516001600160a01b0316835292840192918401916001016115ca565b50909695505050505050565b6000806040838503121561160e57600080fd5b50508035926020909101359150565b634e487b7160e01b600052601160045260246000fd5b818103818111156116465761164661161d565b92915050565b808201808211156116465761164661161d565b634e487b7160e01b600052603260045260246000fd5b6000600182016116875761168761161d565b5060010190565b80516001600160a01b0316825260208101516116b560208401826001600160a01b03169052565b5060408101516040830152606081015160608301526080810151608083015260a081015160a083015260c081015160c083015260e081015160e083015261010080820151818401525061012080820151818401525061014080820151611725828501826001600160a01b03169052565b5050610160818101516001600160a01b0316908301526101809081015180519183019190915260208101516101a0830152604001516101c090910152565b600081518084526020808501945080840160005b8381101561179357815187529582019590820190600101611777565b509495945050505050565b60006102206117ad838761168e565b806101e08401526117c081840186611763565b91505060018060a01b038316610200830152949350505050565b6000602082840312156117ec57600080fd5b81516111e0816111ab565b6000610260611806838961168e565b6001600160a01b038781166101e0850152868116610200850152610220840182905261183482850187611763565b925080851661024085015250509695505050505050565b6001600160a01b03841681526000610220611869602084018661168e565b8061020084015261187c81840185611763565b9695505050505050565b60006020828403121561189857600080fd5b815180151581146111e057600080fd5b8381526000602084818401526060604084015260018060a01b03845116606084015280840151151560808401526040840151606060a085015280518060c086015260005b818110156119085782810184015186820160e0015283016118ec565b50600060e0828701015260e0601f19601f8301168601019350505050949350505050565b60006020828403121561193e57600080fd5b505191905056fea264697066735822122035905b3ee113527e119859b41def9d5e3fc2e9294a605f2b1e41046a200f9bff64736f6c63430008130033",
    "linkReferences": {}
  },
  "methodIdentifiers": {
    "deployAndInitialize((address,address,bytes32,uint256,uint256,uint256,uint256,uint256,uint256,uint256,address,address,(uint256,uint256,uint256)),uint256,uint256,bytes,bytes32[],address)": "0a4bc38d",
    "feeCollector()": "c415b95c",
    "fees()": "9af1d35a",
    "getDefaultPausers()": "7f7c5a7d",
    "getInstanceAtIndex(uint256)": "daac24da",
    "getInstancesInRange(uint256,uint256)": "bc30e7a1",
    "getNumberOfInstances()": "6e95d67c",
    "getSweepTargets()": "94ad46d9",
    "governance()": "5aa6e675",
    "hyperdriveDeployer()": "03a5aa92",
    "hyperdriveGovernance()": "e3331555",
    "isInstance(address)": "6b44e6be",
    "isOfficial(address)": "77b81aac",
    "linkerCodeHash()": "c905a4b5",
    "linkerFactory()": "99623bb1",
    "target0Deployer()": "ab71905f",
    "target1Deployer()": "a085fa30",
    "updateDefaultPausers(address[])": "9af25262",
    "updateFeeCollector(address)": "d2c35ce8",
    "updateFees((uint256,uint256,uint256))": "7613b08c",
    "updateGovernance(address)": "b2561263",
    "updateHyperdriveGovernance(address)": "dd2b8fbb",
    "updateImplementation(address)": "025b22bc",
    "updateLinkerCodeHash(bytes32)": "4fbfee77",
    "updateLinkerFactory(address)": "85229785",
    "updateSweepTargets(address[])": "09b9075f",
    "versionCounter()": "dd6d30c1"
  },
  "id": 3
}