{
  "abi": [
    {
      "inputs": [
        {
          "internalType": "contract IERC4626",
          "name": "_pool",
          "type": "address"
        }
      ],
      "stateMutability": "nonpayable",
      "type": "constructor"
    },
    {
      "inputs": [
        {
          "components": [
            {
              "internalType": "contract IERC20",
              "name": "baseToken",
              "type": "address"
            },
            {
              "internalType": "uint256",
              "name": "initialSharePrice",
              "type": "uint256"
            },
            {
              "internalType": "uint256",
              "name": "minimumShareReserves",
              "type": "uint256"
            },
            {
              "internalType": "uint256",
              "name": "minimumTransactionAmount",
              "type": "uint256"
            },
            {
              "internalType": "uint256",
              "name": "positionDuration",
              "type": "uint256"
            },
            {
              "internalType": "uint256",
              "name": "checkpointDuration",
              "type": "uint256"
            },
            {
              "internalType": "uint256",
              "name": "timeStretch",
              "type": "uint256"
            },
            {
              "internalType": "address",
              "name": "governance",
              "type": "address"
            },
            {
              "internalType": "address",
              "name": "feeCollector",
              "type": "address"
            },
            {
              "components": [
                {
                  "internalType": "uint256",
                  "name": "curve",
                  "type": "uint256"
                },
                {
                  "internalType": "uint256",
                  "name": "flat",
                  "type": "uint256"
                },
                {
                  "internalType": "uint256",
                  "name": "governance",
                  "type": "uint256"
                }
              ],
              "internalType": "struct IHyperdrive.Fees",
              "name": "fees",
              "type": "tuple"
            },
            {
              "internalType": "uint256",
              "name": "oracleSize",
              "type": "uint256"
            },
            {
              "internalType": "uint256",
              "name": "updateGap",
              "type": "uint256"
            }
          ],
          "internalType": "struct IHyperdrive.PoolConfig",
          "name": "_config",
          "type": "tuple"
        },
        {
          "internalType": "address",
          "name": "_dataProvider",
          "type": "address"
        },
        {
          "internalType": "bytes32",
          "name": "_linkerCodeHash",
          "type": "bytes32"
        },
        {
          "internalType": "address",
          "name": "_linkerFactory",
          "type": "address"
        },
        {
          "internalType": "bytes32[]",
          "name": "_extraData",
          "type": "bytes32[]"
        }
      ],
      "name": "deploy",
      "outputs": [
        {
          "internalType": "address",
          "name": "",
          "type": "address"
        }
      ],
      "stateMutability": "nonpayable",
      "type": "function"
    }
  ],
  "bytecode": {
    "object": "0x60a060405234801561001057600080fd5b506040516170b53803806170b583398101604081905261002f91610040565b6001600160a01b0316608052610070565b60006020828403121561005257600080fd5b81516001600160a01b038116811461006957600080fd5b9392505050565b60805161702b61008a60003960006073015261702b6000f3fe60806040523480156200001157600080fd5b50600436106200002e5760003560e01c8063e3420f4f1462000033575b600080fd5b6200004a620000443660046200024e565b62000066565b6040516001600160a01b03909116815260200160405180910390f35b60006060829050868686867f000000000000000000000000000000000000000000000000000000000000000085604051620000a190620000db565b620000b296959493929190620003ce565b604051809103906000f080158015620000cf573d6000803e3d6000fd5b50979650505050505050565b616b0980620004ed83390190565b634e487b7160e01b600052604160045260246000fd5b604051610180810167ffffffffffffffff81118282101715620001265762000126620000e9565b60405290565b80356001600160a01b03811681146200014457600080fd5b919050565b6000606082840312156200015c57600080fd5b6040516060810181811067ffffffffffffffff82111715620001825762000182620000e9565b80604052508091508235815260208301356020820152604083013560408201525092915050565b600082601f830112620001bb57600080fd5b8135602067ffffffffffffffff80831115620001db57620001db620000e9565b8260051b604051601f19603f83011681018181108482111715620002035762000203620000e9565b6040529384528581018301938381019250878511156200022257600080fd5b83870191505b84821015620002435781358352918301919083019062000228565b979650505050505050565b60008060008060008587036102408112156200026957600080fd5b6101c0808212156200027a57600080fd5b62000284620000ff565b915062000291886200012c565b82526020880135602083015260408801356040830152606088013560608301526080880135608083015260a088013560a083015260c088013560c0830152620002dd60e089016200012c565b60e0830152610100620002f2818a016200012c565b90830152610120620003078a8a830162000149565b81840152506101808801356101408301526101a0880135610160830152819650620003348189016200012c565b955050506101e086013592506200034f61020087016200012c565b915061022086013567ffffffffffffffff8111156200036d57600080fd5b6200037b88828901620001a9565b9150509295509295909350565b600081518084526020808501945080840160005b83811015620003c35781516001600160a01b0316875295820195908201906001016200039c565b509495945050505050565b86516001600160a01b0316815260006102606020890151602084015260408901516040840152606089015160608401526080890151608084015260a089015160a084015260c089015160c084015260e08901516200043760e08501826001600160a01b03169052565b50610100898101516001600160a01b038116858301525050610120898101518051858301526020810151610140860152604081015161016086015250506101408901516101808401526101608901516101a08401526001600160a01b0388166101c0840152866101e0840152620004ba6102008401876001600160a01b03169052565b6001600160a01b03851661022084015280610240840152620004df8184018562000388565b999850505050505050505056fe6102a060405260016000553480156200001757600080fd5b5060405162006b0938038062006b098339810160408190526200003a916200076f565b6001600160a01b03808616608052831660a05260c084905260408051808201825260018152603160f81b6020918201529051879187918791879185918591859185918591859185918591620000f6917f2aef22f9d7df5f9d21c56d14029233f3fdaa91917727e1eb68e504d27072d6cd917fc89efdaa54c0f20c7adf612882df0950f5a951637e0307cdcb4c672f298b8bc6914691309101938452602084019290925260408301526001600160a01b0316606082015260800190565b60408051601f19818403018152918152815160209092019190912060e05284516001600160a01b0316610100528401516103e8111592506200014e915050576040516349db44f560e01b815260040160405180910390fd5b60408101516101a05260608101516101c05260a08101516000036200018657604051635428734d60e01b815260040160405180910390fd5b60a081018051610120525160808201511080620001b757508060a001518160800151620001b49190620008bb565b15155b15620001d65760405163253fffcf60e11b815260040160405180910390fd5b60808101516101405260c08101516101605260208101516101805260e0810151601180546001600160a01b0319166001600160a01b03928316179055610100820151166102405261012081015151670de0b6b3a764000010806200024a5750670de0b6b3a764000081610120015160200151115b80620002665750670de0b6b3a764000081610120015160400151115b1562000285576040516322f72cc360e11b815260040160405180910390fd5b61012081018051516101e0528051602001516102005251604001516102205261016001516102605260005b84610140015181101562000330576040805180820190915263ffffffff4281168252600060208301818152601280546001818101835591909352935190516001600160e01b0316640100000000029216919091177fbb8a6a4669ba250d26cd7a459eca9d215f8307e33aebe50379bc5a3617ec34449091015501620002b0565b5050506001600160a01b0388166102805250620003539450506200057692505050565b86602001511462000377576040516355f2a42f60e01b815260040160405180910390fd5b816001600160a01b03166338d52e0f6040518163ffffffff1660e01b8152600401602060405180830381865afa158015620003b6573d6000803e3d6000fd5b505050506040513d601f19601f82011682018060405250810190620003dc9190620008de565b6001600160a01b031686600001516001600160a01b0316146200041257604051630722152560e11b815260040160405180910390fd5b85516102805160405163095ea7b360e01b81526001600160a01b039182166004820152600019602482015291169063095ea7b3906044016020604051808303816000875af115801562000469573d6000803e3d6000fd5b505050506040513d601f19601f820116820180604052508101906200048f919062000905565b620004ad576040516340b27c2160e11b815260040160405180910390fd5b60005b815181101562000569576000828281518110620004d157620004d162000929565b60200260200101519050610280516001600160a01b0316816001600160a01b03161480620005135750610100516001600160a01b0316816001600160a01b0316145b15620005325760405163350b944160e11b815260040160405180910390fd5b6001600160a01b03166000908152601460205260409020805460ff191660011790558062000560816200093f565b915050620004b0565b5050505050505062000981565b610280516040516303d1689d60e11b8152670de0b6b3a764000060048201526000916001600160a01b0316906307a2d13a90602401602060405180830381865afa158015620005c9573d6000803e3d6000fd5b505050506040513d601f19601f82011682018060405250810190620005ef919062000967565b905090565b634e487b7160e01b600052604160045260246000fd5b60405161018081016001600160401b0381118282101715620006305762000630620005f4565b60405290565b6001600160a01b03811681146200064c57600080fd5b50565b80516200065c8162000636565b919050565b6000606082840312156200067457600080fd5b604051606081016001600160401b0381118282101715620006995762000699620005f4565b80604052508091508251815260208301516020820152604083015160408201525092915050565b600082601f830112620006d257600080fd5b815160206001600160401b0380831115620006f157620006f1620005f4565b8260051b604051601f19603f83011681018181108482111715620007195762000719620005f4565b6040529384528581018301938381019250878511156200073857600080fd5b83870191505b8482101562000764578151620007548162000636565b835291830191908301906200073e565b979650505050505050565b6000806000806000808688036102608112156200078b57600080fd5b6101c0808212156200079c57600080fd5b620007a66200060a565b9150620007b3896200064f565b82526020890151602083015260408901516040830152606089015160608301526080890151608083015260a089015160a083015260c089015160c0830152620007ff60e08a016200064f565b60e083015261010062000814818b016200064f565b90830152610120620008298b8b830162000661565b81840152506101808901516101408301526101a089015161016083015281975062000856818a016200064f565b965050506101e087015193506200087161020088016200064f565b92506200088261022088016200064f565b6102408801519092506001600160401b03811115620008a057600080fd5b620008ae89828a01620006c0565b9150509295509295509295565b600082620008d957634e487b7160e01b600052601260045260246000fd5b500690565b600060208284031215620008f157600080fd5b8151620008fe8162000636565b9392505050565b6000602082840312156200091857600080fd5b81518015158114620008fe57600080fd5b634e487b7160e01b600052603260045260246000fd5b6000600182016200096057634e487b7160e01b600052601160045260246000fd5b5060010190565b6000602082840312156200097a57600080fd5b5051919050565b60805160a05160c05160e05161010051610120516101405161016051610180516101a0516101c0516101e0516102005161022051610240516102605161028051615eff62000c0a60003960008181612055015281816120f40152818161217601528181612acc01528181612b4d01528181612b8d0152612c20015260006144e60152600081816105590152818161066901528181610cc90152610d2f0152600081816144020152818161467601528181614ad801528181614b5101528181614d280152614d990152600081816130d10152818161366c015281816143d601528181614b250152614d6d01526000818161463201528181614aac0152614cfc01526000818161074101528181610fa801528181611521015281816117c9015281816119af0152611d96015260008181610a9201528181610add01528181610bf101528181613ad701528181613e0501528181613e54015281816142510152818161474201528181614857015261489301526000818161081a01528181610b6001528181611a10015281816124460152818161248e01528181612faf015281816135ba01528181613ab10152613fc8015260008181610ba301528181611a5201528181612424015281816124af01528181612f8d0152818161359801528181613afd0152613fa601526000818161089c01528181610b82015281816110b6015281816115ac01528181611a3101528181611e53015281816122580152818161237d01528181613057015281816132aa01528181614060015281816149f00152614e8b015260008181611c9701528181611d4001526121bb01526000612011015260008181610386015261133e01526000612ea601526000612e69015260006101570152615eff6000f3fe6080604052600436106101405760003560e01c80636f8c3a5b116100b6578063ab033ea91161006f578063ab033ea91461049b578063c23632a7146104bb578063c326a903146104db578063e44808bc146104ee578063ed64bab21461050e578063fa3fcea71461052e57610140565b80636f8c3a5b146103e85780637180c8ca146104085780639032c726146104285780639cd241af14610448578063a179403b14610468578063a22cb4651461047b57610140565b80632002b333116101085780632002b333146102ff5780632787d5951461032057806330adf81f146103405780633644e515146103745780634536ee2f146103a85780634ed2d6ac146103c857610140565b806301681a621461025057806302329a291461027257806306dae82a1461029257806317fad7fc146102bf5780631c0f12b6146102df575b34801561014c57600080fd5b5060003660606000807f00000000000000000000000000000000000000000000000000000000000000006001600160a01b0316858560405161018f929190615742565b600060405180830381855af49150503d80600081146101ca576040519150601f19603f3d011682016040523d82523d6000602084013e6101cf565b606091505b509150915081156101f357604051638bb0a34b60e01b815260040160405180910390fd5b60006101fe82615752565b90506001600160e01b03198116636e64089360e11b1461022057815160208301fd5b815160031981016004840190815292610241918101602001906024016157c3565b80519650602001945050505050f35b34801561025c57600080fd5b5061027061026b36600461587d565b61054e565b005b34801561027e57600080fd5b5061027061028d3660046158a8565b610692565b6102a56102a03660046158c5565b6106db565b604080519283526020830191909152015b60405180910390f35b3480156102cb57600080fd5b506102706102da366004615960565b610960565b3480156102eb57600080fd5b506102706102fa3660046159f5565b610a14565b61031261030d366004615a3d565b610a27565b6040519081526020016102b6565b34801561032c57600080fd5b5061031261033b3660046158a8565b610c7c565b34801561034c57600080fd5b506103127f65619c8664d6db8aae8c236ad19598696159942a4245b23b45565cc18e97367381565b34801561038057600080fd5b506103127f000000000000000000000000000000000000000000000000000000000000000081565b3480156103b457600080fd5b506102a56103c3366004615a3d565b610d60565b3480156103d457600080fd5b506102706103e3366004615a87565b610f30565b3480156103f457600080fd5b506103126104033660046158c5565b610f7e565b34801561041457600080fd5b50610270610423366004615ac6565b6111ec565b34801561043457600080fd5b50610270610443366004615aff565b611264565b34801561045457600080fd5b50610270610463366004615b7f565b6114b3565b6102a56104763660046158c5565b6114c4565b34801561048757600080fd5b50610270610496366004615ac6565b6116bd565b3480156104a757600080fd5b506102706104b636600461587d565b611729565b3480156104c757600080fd5b506102a56104d6366004615a3d565b61179d565b6103126104e93660046158c5565b611954565b3480156104fa57600080fd5b50610270610509366004615bb7565b611c16565b34801561051a57600080fd5b50610270610529366004615c08565b611c66565b34801561053a57600080fd5b506103126105493660046158c5565b611d6c565b336001600160a01b037f000000000000000000000000000000000000000000000000000000000000000016148015906105975750336000908152600f602052604090205460ff16155b156105b4576040516282b42960e81b815260040160405180910390fd5b6001600160a01b03811660009081526014602052604090205460ff166105ed5760405163350b944160e11b815260040160405180910390fd5b6040516370a0823160e01b81523060048201526000906001600160a01b038316906370a0823190602401602060405180830381865afa158015610634573d6000803e3d6000fd5b505050506040513d601f19601f820116820180604052508101906106589190615c21565b905061068e6001600160a01b0383167f000000000000000000000000000000000000000000000000000000000000000083611f77565b5050565b336000908152600f602052604090205460ff166106c1576040516282b42960e81b815260040160405180910390fd5b600c80549115156101000261ff0019909216919091179055565b6000806000546001146107095760405162461bcd60e51b815260040161070090615c3a565b60405180910390fd5b6002600055600c54610100900460ff1615610737576040516313d0ff5960e31b815260040160405180910390fd5b61073f611fda565b7f00000000000000000000000000000000000000000000000000000000000000008710156107805760405163211ddda360e11b815260040160405180910390fd5b60008061078d8986611ffb565b91509150868110156107b2576040516342af972b60e01b815260040160405180910390fd5b60006107bc6121b4565b90506107c881836121ef565b5060008060006107d886866123fd565b600854919a50929550909350909150610802908390600160801b90046001600160801b0316615c74565b61083f8461080e61252e565b6108189190615c87565b7f00000000000000000000000000000000000000000000000000000000000000009061254f565b111561085e5760405163512095c760e01b815260040160405180910390fd5b868c111561087f5760405163c972651760e01b815260040160405180910390fd5b80601060008282546108919190615c87565b909155506108c190507f000000000000000000000000000000000000000000000000000000000000000085615c87565b97506108d183888488888d61256b565b60006108de60018a612765565b90506108eb818c8a61279a565b60008e9050818c6001600160a01b03167f7b7d51ee23746cf6ef2078de2a5b53073226b516a1c892a1e882c581026bf4b38c848d60405161093f939291909283526020830191909152604082015260600190565b60405180910390a35050505050505050600160005590969095509350505050565b6001600160a01b038616158061097d57506001600160a01b038516155b1561099b5760405163f0dd15fd60e01b815260040160405180910390fd5b8281146109bb5760405163174861a760e31b815260040160405180910390fd5b60005b83811015610a0b57610a038585838181106109db576109db615c9a565b9050602002013588888686868181106109f6576109f6615c9a565b9050602002013533612843565b6001016109be565b50505050505050565b610a218484848433612843565b50505050565b60008054600114610a4a5760405162461bcd60e51b815260040161070090615c3a565b6002600055610a57611fda565b600c5460ff1615610a7b57604051637983c05160e01b815260040160405180910390fd5b600080610a888785611ffb565b9092509050610ab87f00000000000000000000000000000000000000000000000000000000000000006002615cb0565b821015610ad857604051632afb507160e21b815260040160405180910390fd5b610b037f00000000000000000000000000000000000000000000000000000000000000006002615cb0565b610b0d9083615c74565b9250610b20610b1a6121b4565b826121ef565b50600c805460ff19166001179055610b3782612a04565b600880546001600160801b0319166001600160801b0392909216919091179055610bcc610bc7837f0000000000000000000000000000000000000000000000000000000000000000897f00000000000000000000000000000000000000000000000000000000000000007f0000000000000000000000000000000000000000000000000000000000000000612a2e565b612a04565b600880546001600160801b03928316600160801b029216919091179055610c156000807f000000000000000000000000000000000000000000000000000000000000000061279a565b610c216000868561279a565b60408051848152602081018990529081018790526001600160a01b038616907f60c26087830ee0ee6d86bdb3a10e19f3fd49af366c77421d7fe4596811d6274e9060600160405180910390a250506001600055949350505050565b60008054600114610c9f5760405162461bcd60e51b815260040161070090615c3a565b60026000908155338152600f602052604090205460ff16158015610cec5750336001600160a01b037f00000000000000000000000000000000000000000000000000000000000000001614155b8015610d0357506011546001600160a01b03163314155b15610d20576040516282b42960e81b815260040160405180910390fd5b601080546000909155610d54817f000000000000000000000000000000000000000000000000000000000000000085612a98565b60016000559392505050565b600080600054600114610d855760405162461bcd60e51b815260040161070090615c3a565b60026000908155610d94612c00565b9050610da1610b1a6121b4565b50610dab81612c93565b600d548792506001600160801b031680831115610dcf57806001600160801b031692505b82600003610de557600080935093505050610f20565b610df4600360f81b3385612d6d565b600d546001600160801b03600160801b909104811690600090610e1c90869084908616612e0d565b9050610e2785612a04565b610e319084615cc7565b600d80546001600160801b0319166001600160801b0392909216919091179055610e5a81612a04565b600d8054601090610e7c908490600160801b90046001600160801b0316615cc7565b92506101000a8154816001600160801b0302191690836001600160801b03160217905550610eab818989612a98565b955085610eb88a8761254f565b1115610ed75760405163c972651760e01b815260040160405180910390fd5b60408051868152602081018890526001600160a01b038a16917f07cd0949bbc0d60ad35053a0459db413c148f758b7781aaf6b258018d18ad0ac910160405180910390a2505050505b6001600055909590945092505050565b83610f3a81612e2b565b6001600160a01b0316336001600160a01b031614610f6b57604051632aab8bd360e01b815260040160405180910390fd5b610f7785858585612ee8565b5050505050565b60008054600114610fa15760405162461bcd60e51b815260040161070090615c3a565b60026000557f0000000000000000000000000000000000000000000000000000000000000000851015610fe75760405163211ddda360e11b815260040160405180910390fd5b6000610ff1612c00565b9050610ffd87826121ef565b5061101361100c600289612765565b3388612d6d565b6000806000806000806110278c888f612f55565b600854959b50939950919750955093509150611054908790600160801b90046001600160801b0316615c74565b6110608461080e61252e565b111561107f5760405163512095c760e01b815260040160405180910390fd5b8b8d884282111561114157836010600082825461109c9190615c87565b909155506110af9050838a898886613129565b60006110db7f000000000000000000000000000000000000000000000000000000000000000084615c74565b6000818152600e6020526040812054919250600160801b909104600f0b9061110e9086908a908e908d90899089906132a3565b6000828152600e602052604090205461113590600f83810b91600160801b9004900b61344b565b61113e8c612c93565b50505b600061114e898f8f612a98565b90508e8110156111715760405163c972651760e01b815260040160405180910390fd5b61117c600284612765565b8e6001600160a01b03167f39d1403e56c69205ef368007a55ee1304b0f388631dca237a1710d04e3e8950f8584886040516111ca939291909283526020830191909152604082015260600190565b60405180910390a39a5050505050505050505050600160005595945050505050565b6011546001600160a01b03163314611216576040516282b42960e81b815260040160405180910390fd5b6001600160a01b0382166000818152600f6020526040808220805460ff1916851515179055517fa4336c0cb1e245b95ad204faed7e940d6dc999684fd8b5e1ff597a0c4efca8ab9190a25050565b834211156112855760405163f87d927160e01b815260040160405180910390fd5b6001600160a01b0387166112ac5760405163f0dd15fd60e01b815260040160405180910390fd5b6001600160a01b0387811660008181526007602090815260408083205481517f65619c8664d6db8aae8c236ad19598696159942a4245b23b45565cc18e9736738185015280830195909552948b166060850152891515608085015260a084019490945260c08084018990528451808503909101815260e08401909452835193019290922061190160f01b6101008301527f00000000000000000000000000000000000000000000000000000000000000006101028301526101228201526101420160408051601f198184030181528282528051602091820120600080855291840180845281905260ff88169284019290925260608301869052608083018590529092509060019060a0016020604051602081039080840390855afa1580156113d8573d6000803e3d6000fd5b505050602060405103519050886001600160a01b0316816001600160a01b03161461141657604051638baa579f60e01b815260040160405180910390fd5b6001600160a01b0389166000908152600760205260408120805490919061143c90615cee565b909155506001600160a01b038981166000818152600360209081526040808320948d1680845294825291829020805460ff19168c151590811790915591519182527f17307eab39ab6107e8899845ad3d59bd9653f200f220920489ca2b5937696c31910160405180910390a3505050505050505050565b6114bf83838333612ee8565b505050565b6000806000546001146114e95760405162461bcd60e51b815260040161070090615c3a565b6002600055600c54610100900460ff1615611517576040516313d0ff5960e31b815260040160405180910390fd5b61151f611fda565b7f00000000000000000000000000000000000000000000000000000000000000008710156115605760405163211ddda360e11b815260040160405180910390fd5b600061156a612c00565b90508581101561158d576040516342af972b60e01b815260040160405180910390fd5b60006115976121b4565b905060006115a582846121ef565b90506115d17f000000000000000000000000000000000000000000000000000000000000000083615c87565b94506000806115e18c8685613572565b60108054939950919450925082916000906115fd908490615c87565b909155505050848a10156116245760405163c972651760e01b815260040160405180910390fd5b61162e8588611ffb565b505061163c8b82868961369d565b6000611649600288612765565b9050611656818a8e61279a565b60408051888152602081018890529081018d90528c9082906001600160a01b038c16907f851bac68873b7adb346bcf4bff36324c6f322b58f9f0f50c1d3a8568242ca66b9060600160405180910390a3505050505050600160005590969095509350505050565b3360008181526003602090815260408083206001600160a01b03871680855290835292819020805460ff191686151590811790915590519081529192917f17307eab39ab6107e8899845ad3d59bd9653f200f220920489ca2b5937696c31910160405180910390a35050565b6011546001600160a01b03163314611753576040516282b42960e81b815260040160405180910390fd5b601180546001600160a01b0319166001600160a01b0383169081179091556040517f9d3e522e1e47a2f6009739342b9cc7b252a1888154e843ab55ee1c81745795ab90600090a250565b6000806000546001146117c25760405162461bcd60e51b815260040161070090615c3a565b60026000557f00000000000000000000000000000000000000000000000000000000000000008610156118085760405163211ddda360e11b815260040160405180910390fd5b6000611812612c00565b905061181f610b1a6121b4565b5061182981612c93565b6002602052600080516020615eaa83398151915254600d54600360f81b60009081527f3ccfbaf375b4885450e3887dab0704e32e03acfeaf0442976372f6750e322c1f549091611884916001600160801b0390911690615c74565b905060006118928284615c87565b90506118a06000338c612d6d565b60006118af8b868487876138db565b965090506118c2600360f81b8a8861279a565b6118cd818a8a612a98565b9650868a11156118f05760405163c972651760e01b815260040160405180910390fd5b604080518c8152602081018990529081018790528b906001600160a01b038b16907f59c3a0b60c6ab7deb62e1440c9e72441db6db7dfe514dba8cb18e60c0d896efa9060600160405180910390a25050505050506001600055909590945092505050565b600080546001146119775760405162461bcd60e51b815260040161070090615c3a565b6002600055600c54610100900460ff16156119a5576040516313d0ff5960e31b815260040160405180910390fd5b6119ad611fda565b7f00000000000000000000000000000000000000000000000000000000000000008610156119ee5760405163211ddda360e11b815260040160405180910390fd5b6000611a766119fb61252e565b600854600160801b90046001600160801b03167f00000000000000000000000000000000000000000000000000000000000000007f00000000000000000000000000000000000000000000000000000000000000007f00000000000000000000000000000000000000000000000000000000000000006139d9565b905085811080611a8557508481115b15611aa357604051633b61151160e11b815260040160405180910390fd5b600080611ab08986611ffb565b91509150611abf610b1a6121b4565b50600d54600360f81b600090815260026020527f3ccfbaf375b4885450e3887dab0704e32e03acfeaf0442976372f6750e322c1f549091611b0b916001600160801b0390911690615c74565b60008080526002602052600080516020615eaa8339815191525491925090611b34908390615c87565b9050600080611b4285613a14565b90506000611b4f82613b7a565b9050611b5a87613dec565b6008546001600160801b038082168452600954600f0b6020850152600160801b909104166040830152611b8c82613b7a565b9250611ba48482611b9d8187615c74565b9190612e0d565b98505050611bb460008a8961279a565b611bbd84612c93565b60408051888152602081018e90526001600160a01b038b16917f06239653922ac7bea6aa2b19dc486b9361821d37712eb796adfd38d81de278ca910160405180910390a250506001600055509298975050505050505050565b84611c2081612e2b565b6001600160a01b0316336001600160a01b031614611c5157604051632aab8bd360e01b815260040160405180910390fd5b611c5e8686868686612843565b505050505050565b6000818152600e60205260409020546001600160801b031615611c865750565b6000611c906121b4565b9050611cbc7f000000000000000000000000000000000000000000000000000000000000000083615d1d565b151580611cc857508181105b15611ce65760405163ecd29e8160e01b815260040160405180910390fd5b808203611cfe576114bf81611cf9612c00565b6121ef565b815b6000818152600e60205260409020546001600160801b0316828203611d2a57611d27612c00565b90505b8015611d3a57610f7784826121ef565b50611d657f000000000000000000000000000000000000000000000000000000000000000082615c87565b9050611d00565b60008054600114611d8f5760405162461bcd60e51b815260040161070090615c3a565b60026000557f0000000000000000000000000000000000000000000000000000000000000000851015611dd55760405163211ddda360e11b815260040160405180910390fd5b6000611ddf612c00565b9050611deb87826121ef565b50611dfa61100c600189612765565b600080600080600080611e0e8c888f613f6e565b95509550955095509550955060008d90508d421015611ed7578160106000828254611e399190615c87565b90915550611e4c90508d888786856140e5565b6000611e787f000000000000000000000000000000000000000000000000000000000000000083615c74565b6000818152600e6020526040902054909150600160801b9004600f0b611ea48f878b8a878f60016132a3565b6000828152600e6020526040902054611ecb90600f83810b91600160801b9004900b61344b565b611ed48a612c93565b50505b6000611ee4878d8d612a98565b9050808d1115611f075760405163c972651760e01b815260040160405180910390fd5b8d611f13600184612765565b60408051858152602081018590529081018390526001600160a01b038f16907fe8c2c201cc00307ad7ec0d92d7ee5f89a796b4b1134d1672b08939eaf504d68c9060600160405180910390a35060016000559e9d5050505050505050505050505050565b6040516001600160a01b0383166024820152604481018290526114bf90849063a9059cbb60e01b906064015b60408051601f198184030181529190526020810180516001600160e01b03166001600160e01b0319909316929092179091526142b2565b3415611ff957604051631574f9f360e01b815260040160405180910390fd5b565b60008082156120db576120396001600160a01b037f000000000000000000000000000000000000000000000000000000000000000016333087614387565b604051636e553f6560e01b8152600481018590523060248201527f00000000000000000000000000000000000000000000000000000000000000006001600160a01b031690636e553f65906044016020604051808303816000875af11580156120a6573d6000803e3d6000fd5b505050506040513d601f19601f820116820180604052508101906120ca9190615c21565b91506120d4612c00565b90506121ad565b6040516363737ac960e11b8152600481018590526000907f00000000000000000000000000000000000000000000000000000000000000006001600160a01b03169063c6e6f59290602401602060405180830381865afa158015612143573d6000803e3d6000fd5b505050506040513d601f19601f820116820180604052508101906121679190615c21565b905061219e6001600160a01b037f000000000000000000000000000000000000000000000000000000000000000016333084614387565b8092506121a9612c00565b9150505b9250929050565b60006121e07f000000000000000000000000000000000000000000000000000000000000000042615d1d565b6121ea9042615c74565b905090565b6000828152600e6020526040812080546001600160801b031615158061221457504284115b1561222a57546001600160801b031690506123f7565b61223383612a04565b81546001600160801b0319166001600160801b03919091161781556000600e8161227d7f000000000000000000000000000000000000000000000000000000000000000088615c74565b815260208101919091526040016000908120546001600160801b031691506002816122a88289612765565b8152602001908152602001600020549050600080821115612304576000806122d384898760006143bf565b9150915080601060008282546122e99190615c87565b909155506122fd905084600084808d613129565b6001925050505b60006002600061231560018b612765565b815260200190815260200160002054905060008111156123705760008061233f838a8860016143bf565b9150915080601060008282546123559190615c87565b90915550612369905083600084808e6140e5565b6001935050505b81156123ee5760006123a27f00000000000000000000000000000000000000000000000000000000000000008a615c74565b6000818152600e6020526040902080546001600160801b03811691829055919250600160801b91829004600f90810b926123e2928492919004900b61344b565b6123eb89612c93565b50505b86955050505050505b92915050565b60008060008061246a61240e61252e565b600854600160801b90046001600160801b0316887f0000000000000000000000000000000000000000000000000000000000000000897f000000000000000000000000000000000000000000000000000000000000000061448d565b925060006124d361247961252e565b600854600160801b90046001600160801b03167f00000000000000000000000000000000000000000000000000000000000000007f00000000000000000000000000000000000000000000000000000000000000006144b9565b90506124de816144ca565b6000806124ec89848a614624565b90925090506124fb8287615c74565b94506125078186615c87565b955061251481848a612e0d565b9350612520848a615c74565b965050505092959194509250565b6008546009546000916121ea916001600160801b0390911690600f0b6146a4565b60006125648383670de0b6b3a7640000612e0d565b9392505050565b600a546001600160801b03166125a6610bc78261259085670de0b6b3a7640000615cb0565b600b546001600160801b031691908a60016146c1565b600b80546001600160801b0319166001600160801b03929092169190911790556125cf87612a04565b600880546000906125ea9084906001600160801b0316615d31565b92506101000a8154816001600160801b0302191690836001600160801b0316021790555061261785612a04565b60088054601090612639908490600160801b90046001600160801b0316615cc7565b92506101000a8154816001600160801b0302191690836001600160801b0316021790555061266686612a04565b6126709082615d31565b600a80546001600160801b0319166001600160801b0383161790556000848152600e60205260408120805492935091600160801b9004600f0b906126cc6126b78b8961254f565b6126c28b6002615cb0565b610bc79190615c74565b8354909150819084906010906126ed908490600160801b9004600f0b615d51565b82546001600160801b039182166101009390930a928302919092021990911617905550825461272a90600f84810b91600160801b9004900b61344b565b6127338761473b565b612750576040516318846de960e01b815260040160405180910390fd5b61275987612c93565b50505050505050505050565b60006001600160f81b0382111561278f5760405163b7d0949760e01b815260040160405180910390fd5b5060f89190911b1790565b60008381526001602090815260408083206001600160a01b0386168452909152812080548392906127cc908490615c87565b9091555050600083815260026020526040812080548392906127ef908490615c87565b909155505060408051848152602081018390526001600160a01b0384169160009133917fc3d58168c5ae7397731d063d5bbf3d657854427343f4c083240f7aacaa2d0f6291015b60405180910390a4505050565b6001600160a01b038416158061286057506001600160a01b038316155b1561287e5760405163f0dd15fd60e01b815260040160405180910390fd5b836001600160a01b0316816001600160a01b031614612942576001600160a01b0380851660009081526003602090815260408083209385168352929052205460ff166129425760008581526004602090815260408083206001600160a01b038089168552908352818420908516845290915290205460001981146129405760008681526004602090815260408083206001600160a01b03808a16855290835281842090861684529091528120805485929061293a908490615c74565b90915550505b505b60008581526001602090815260408083206001600160a01b038816845290915281208054849290612974908490615c74565b909155505060008581526001602090815260408083206001600160a01b0387168452909152812080548492906129ab908490615c87565b909155505060408051868152602081018490526001600160a01b038086169287821692918516917fc3d58168c5ae7397731d063d5bbf3d657854427343f4c083240f7aacaa2d0f62910160405180910390a45050505050565b6000600160801b8210612a2a57604051630f0af95160e11b815260040160405180910390fd5b5090565b600080612a3f846301e133806147ad565b9050612a8b612a7b612a59670de0b6b3a7640000866147c2565b612a63888561254f565b612a7590670de0b6b3a7640000615c87565b906147d7565b612a85888a61254f565b9061254f565b9150505b95945050505050565b60008115612b4057604051635d043b2960e11b8152600481018590526001600160a01b0384811660248301523060448301527f0000000000000000000000000000000000000000000000000000000000000000169063ba087652906064016020604051808303816000875af1158015612b15573d6000803e3d6000fd5b505050506040513d601f19601f82011682018060405250810190612b399190615c21565b9050612564565b612b746001600160a01b037f0000000000000000000000000000000000000000000000000000000000000000168486611f77565b6040516303d1689d60e11b8152600481018590526000907f00000000000000000000000000000000000000000000000000000000000000006001600160a01b0316906307a2d13a90602401602060405180830381865afa158015612bdc573d6000803e3d6000fd5b505050506040513d601f19601f82011682018060405250810190612a8f9190615c21565b6040516303d1689d60e11b8152670de0b6b3a764000060048201526000907f00000000000000000000000000000000000000000000000000000000000000006001600160a01b0316906307a2d13a90602401602060405180830381865afa158015612c6f573d6000803e3d6000fd5b505050506040513d601f19601f820116820180604052508101906121ea9190615c21565b6002602052600080516020615eaa83398151915254600d54600360f81b60009081527f3ccfbaf375b4885450e3887dab0704e32e03acfeaf0442976372f6750e322c1f549091612cee916001600160801b0390911690615c74565b90506000612cfc8284615c87565b90506000612d11612d0c86613a14565b613b7a565b90506000612d20858385612e0d565b9050600080612d2e8861482e565b905082811115612d4557612d428382615c74565b91505b6000821180612d52575083155b15612d6357612d63828587896148da565b5050505050505050565b60008381526001602090815260408083206001600160a01b038616845290915281208054839290612d9f908490615c74565b909155505060008381526002602052604081208054839290612dc2908490615c74565b909155505060408051848152602081018390526000916001600160a01b0385169133917fc3d58168c5ae7397731d063d5bbf3d657854427343f4c083240f7aacaa2d0f629101612836565b6000826000190484118302158202612e2457600080fd5b5091020490565b604080513060208083019190915281830193909352815180820383018152606080830184528151918501919091206001600160f81b031960808401527f000000000000000000000000000000000000000000000000000000000000000090911b6bffffffffffffffffffffffff1916608183015260958201527f000000000000000000000000000000000000000000000000000000000000000060b5808301919091528251808303909101815260d5909101909152805191012090565b60008481526004602090815260408083206001600160a01b0385811680865291845282852090881680865290845293829020869055905185815290917f8c5be1e5ebec7d5bd14f71427d1e84f3dd0314c0f7b2291e5b200ac8c7c3b925910160405180910390a350505050565b6000806000806000806000612f69886149c3565b9050612fd3612f7661252e565b600854600160801b90046001600160801b03168c847f00000000000000000000000000000000000000000000000000000000000000008e7f0000000000000000000000000000000000000000000000000000000000000000614a14565b909850955093506000612fe761247961252e565b9050612ff2816144ca565b8a8a600080808061300586898988614a84565b935093509350935080826130199190615c87565b98506130258285615c74565b61302f908c615c87565b9a5061303b8385615c87565b613045908d615c87565b9b5050505050505050506000600e60007f00000000000000000000000000000000000000000000000000000000000000008a6130819190615c74565b815260208101919091526040016000908120546001600160801b031691504289116130c3576000898152600e60205260409020546001600160801b03166130c5565b895b90506130f58b8784848e7f0000000000000000000000000000000000000000000000000000000000000000614b83565b96506131018387615c74565b95506131138787878686866000614bd5565b9b9f939e50919c509a5098975095505050505050565b600a54600160801b90046001600160801b0316613172610bc78261315585670de0b6b3a7640000615cb0565b600b54600160801b90046001600160801b031691908a60006146c1565b600b80546001600160801b03928316600160801b02921691909117905561319886612a04565b6131a29082615cc7565b600a80546001600160801b03928316600160801b029216919091179055506131c983612a04565b600880546000906131e49084906001600160801b0316615d31565b92506101000a8154816001600160801b0302191690836001600160801b0316021790555061321182614c50565b60098054600090613226908490600f0b615d51565b92506101000a8154816001600160801b030219169083600f0b6001600160801b0316021790555061325684612a04565b60088054601090613278908490600160801b90046001600160801b0316615cc7565b92506101000a8154816001600160801b0302191690836001600160801b031602179055505050505050565b60006132cf7f000000000000000000000000000000000000000000000000000000000000000085615c74565b90506000600260006132e2600188612765565b8152602001908152602001600020549050600060026000613304600289612765565b8152602001908152602001600020549050816000148015613323575080155b15613348576000838152600e6020526040902080546001600160801b03169055612759565b600061338c8b6133588c8961254f565b613363906002615cb0565b8b61336e8c8b61254f565b6133789190615c87565b6133829190615c74565b610bc79190615c87565b905084156133eb576000848152600e6020526040902080548291906010906133bf908490600160801b9004600f0b615d7e565b92506101000a8154816001600160801b030219169083600f0b6001600160801b0316021790555061343e565b6000848152600e602052604090208054829190601090613416908490600160801b9004600f0b615d51565b92506101000a8154816001600160801b030219169083600f0b6001600160801b031602179055505b5050505050505050505050565b808213801561345b575060008212155b156134ee57600061346c8282614c8e565b6134769084615dab565b6009549091506134a39061349e908390600160801b90046001600160801b0316600f0b614ca4565b614c50565b600980546010906134c5908490600160801b90046001600160801b0316615cc7565b92506101000a8154816001600160801b0302191690836001600160801b03160217905550505050565b8181131561068e57600082126135645761350782614c50565b61351082614c50565b61351a9190615d7e565b6009805460109061353c908490600160801b90046001600160801b0316615d31565b92506101000a8154816001600160801b0302191690836001600160801b031602179055505050565b61351a61349e826000614c8e565b60008060006135de61358261252e565b600854600160801b90046001600160801b0316887f0000000000000000000000000000000000000000000000000000000000000000897f0000000000000000000000000000000000000000000000000000000000000000614cb3565b9150856135eb838761254f565b111561360a5760405163512095c760e01b815260040160405180910390fd5b600061361761247961252e565b9050613622816144ca565b600061363888670de0b6b3a7640000848a614cd4565b945090915061364990508382615c74565b6136539085615c74565b935061369087612a858a6136678789615c74565b8a8c8d7f0000000000000000000000000000000000000000000000000000000000000000614b83565b9450505093509350939050565b600a546136e790610bc790600160801b90046001600160801b03166136ca84670de0b6b3a7640000615cb0565b600b54600160801b90046001600160801b031691908860016146c1565b600b80546001600160801b03928316600160801b029216919091179055600061370f84612a04565b60085461372591906001600160801b0316615cc7565b600880546001600160801b0319166001600160801b038316179055905061374b85612a04565b6008805460109061376d908490600160801b90046001600160801b0316615d31565b92506101000a8154816001600160801b0302191690836001600160801b0316021790555061379a85612a04565b600a80546010906137bc908490600160801b90046001600160801b0316615d31565b82546101009290920a6001600160801b03818102199093169183160217909155600954600854600f9190910b91161215905061380b5760405163585fe6df60e11b815260040160405180910390fd5b60006138156121b4565b6000818152600e6020526040902054909150600160801b9004600f0b61383a87612a04565b6000838152600e602052604090208054601090613862908490600160801b9004600f0b615d7e565b82546001600160801b039182166101009390930a9283029190920219909116179055506000828152600e60205260409020546138ac90600f83810b91600160801b9004900b61344b565b6138b58561473b565b6138d2576040516318846de960e01b815260040160405180910390fd5b610a0b85612c93565b60008060006138e987613a14565b905060006138f682613b7a565b9050613908613903612c00565b61482e565b9350613915848a88612e0d565b935061392861392385615dcb565b613dec565b6008546001600160801b038082168452600954600f0b6020850152600160801b909104166040830152600061395c83613b7a565b9050600061396b898385612e0d565b90506139778b8a615dab565b6139819082615dab565b905060008112156139ca5760006139a261399a83615dcb565b85908c612e0d565b90506139ae8188615c74565b96506139b981613dec565b6139c481898d614dd5565b60009150505b93505050509550959350505050565b6000806139e8878787866144b9565b9050612a8b6139fc82866301e13380614e1a565b613a0e83670de0b6b3a7640000615c74565b906147ad565b613a7160405180610160016040528060008152602001600081526020016000815260200160008152602001600081526020016000815260200160008152602001600081526020016000815260200160008152602001600081525090565b60408051610160810182526008546001600160801b038082168352600954600f0b6020840152600160801b909104811692820192909252606081018490527f000000000000000000000000000000000000000000000000000000000000000060808201527f000000000000000000000000000000000000000000000000000000000000000060a08201527f000000000000000000000000000000000000000000000000000000000000000060c0820152600a54821660e0820152600b549091610100830191613b409116614e40565b8152600a546001600160801b03600160801b9182900481166020840152600b54604090930192613b7292900416614e40565b905292915050565b600080613b9a83610140015184610120015161254f90919063ffffffff16565b61010084015160e0850151613bae9161254f565b613bb89190615dab565b90506000613bce846000015185602001516146a4565b90506000821315613c70576000613c108286604001518760a001518860c00151670de0b6b3a7640000613c019190615c74565b89606001518a60800151614eb6565b9150613c1e90508184614f39565b90508015613c6a57613c57828660400151838860c00151670de0b6b3a7640000613c489190615c74565b89606001518a60800151614f48565b85518690613c66908390615c74565b9052505b50613d2e565b6000821215613d2e57613c8282615dcb565b91506000613cb68286604001518760c00151670de0b6b3a7640000613ca79190615c74565b88606001518960800151614f7c565b9150613cc490508184614f39565b90508015613d1057613cfd828660400151838860c00151670de0b6b3a7640000613cee9190615c74565b89606001518a60800151615006565b85518690613d0c908390615c87565b9052505b613d1a8184615c74565b85518690613d29908390615c87565b905250505b6000613d5d856101000151670de0b6b3a7640000613d4c9190615c74565b606087015160e08801519190612e0d565b613d8b866101400151670de0b6b3a7640000613d799190615c74565b60608801516101208901519190612e0d565b613d959190615dab565b90506000818660000151613da99190615de7565b90508560a00151811215613dd05760405163aeeb825d60e01b815260040160405180910390fd5b80865260a0860151613de29082615c74565b9695505050505050565b80600003613df75750565b6008546001600160801b03167f0000000000000000000000000000000000000000000000000000000000000000811015613e445760405163585fe6df60e11b815260040160405180910390fd5b6000613e508383615de7565b90507f0000000000000000000000000000000000000000000000000000000000000000811215613e935760405163585fe6df60e11b815260040160405180910390fd5b613e9c81612a04565b600880546001600160801b0319166001600160801b0392909216919091179055600954600090600f0b818112613ede57613ed7838286612e0d565b9150613efe565b613ef2613eea82615dcb565b849086612e0d565b613efb90615dcb565b91505b613f0782614c50565b600980546001600160801b0319166001600160801b03928316179055600854613f4a91610bc791600160801b900416613f4087856146a4565b611b9d87876146a4565b600880546001600160801b03928316600160801b0292169190911790555050505050565b6000806000806000806000613f82886149c3565b9050613fec613f8f61252e565b600854600160801b90046001600160801b03168c847f00000000000000000000000000000000000000000000000000000000000000008e7f0000000000000000000000000000000000000000000000000000000000000000615081565b90985096509350600061400061247961252e565b905061400b816144ca565b60008061401a8d85858f614cd4565b9650909250905061402b8288615c74565b96506140378183615c87565b614041908a615c74565b985061404d858a615c87565b9750505050506140d185858584600e60007f00000000000000000000000000000000000000000000000000000000000000008e61408a9190615c74565b81526020810191909152604001600020546001600160801b0316428d116140c85760008d8152600e60205260409020546001600160801b03166140ca565b8d5b6001614bd5565b999d939c50919a5098509695509350505050565b600a546001600160801b0316614120610bc78261410a85670de0b6b3a7640000615cb0565b600b546001600160801b031691908a60006146c1565b600b80546001600160801b0319166001600160801b039290921691909117905561414986612a04565b6141539082615cc7565b600a80546001600160801b0319166001600160801b03929092169190911790555061417d83612a04565b600880546000906141989084906001600160801b0316615cc7565b92506101000a8154816001600160801b0302191690836001600160801b031602179055506141c582614c50565b600980546000906141da908490600f0b615d7e565b92506101000a8154816001600160801b030219169083600f0b6001600160801b0316021790555061420a84612a04565b6008805460109061422c908490600160801b90046001600160801b0316615d31565b82546101009290920a6001600160801b038181021990931691831602179091556008547f00000000000000000000000000000000000000000000000000000000000000009116109050806142945750600954600854600f9190910b6001600160801b03909116125b15610f775760405163585fe6df60e11b815260040160405180910390fd5b6000614307826040518060400160405280602081526020017f5361666545524332303a206c6f772d6c6576656c2063616c6c206661696c6564815250856001600160a01b03166150cd9092919063ffffffff16565b90508051600014806143285750808060200190518101906143289190615e0f565b6114bf5760405162461bcd60e51b815260206004820152602a60248201527f5361666545524332303a204552433230206f7065726174696f6e20646964206e6044820152691bdd081cdd58d8d9595960b21b6064820152608401610700565b6040516001600160a01b0380851660248301528316604482015260648101829052610a219085906323b872dd60e01b90608401611fa3565b6000806143cc86866147ad565b915060006143fa837f000000000000000000000000000000000000000000000000000000000000000061254f565b9050614426817f000000000000000000000000000000000000000000000000000000000000000061254f565b91508315614449576144388282615c74565b6144429084615c74565b9250614460565b6144538282615c74565b61445d9084615c87565b92505b8486101561448357614473838787612e0d565b9250614480828787612e0d565b91505b5094509492505050565b60006144ae8787876144a788670de0b6b3a7640000615c74565b87876150e4565b979650505050505050565b6000612a8f82612a75858888612e0d565b6013546001600160801b03600160801b8204811691164261450b7f000000000000000000000000000000000000000000000000000000000000000084615c87565b111561451657505050565b60006012828154811061452b5761452b615c9a565b60009182526020822001805490925063ffffffff8116916401000000009091046001600160e01b03169061455f8342615c74565b601254909150878202830190600090614579886001615c87565b6145839190615d1d565b905060405180604001604052804263ffffffff168152602001836001600160e01b0316815250601282815481106145bc576145bc615c9a565b60009182526020918290208351938301516001600160e01b03166401000000000263ffffffff90941693909317920191909155604080518082019091526001600160801b03928316808252429093169101819052600160801b02176013555050505050505050565b60008061466e85612a8585817f0000000000000000000000000000000000000000000000000000000000000000670de0b6b3a7640000614664818c6147ad565b612a859190615c74565b915061469a827f000000000000000000000000000000000000000000000000000000000000000061254f565b9050935093915050565b6000806146b18385615dab565b9050600081121561256457600080fd5b60008115614701576146fa6146d68487615c87565b6146e0858761254f565b6146ea888a61254f565b6146f49190615c87565b906147c2565b9050612a8f565b82850361471057506000612a8f565b613de261471d8487615c74565b614727858761254f565b614731888a61254f565b6146f49190615c74565b60006147677f00000000000000000000000000000000000000000000000000000000000000008361254f565b6009546008546147a5916000916001600160801b03600160801b9092048216600f0b9161479591168761254f565b61479f9190615dab565b90614c8e565b121592915050565b600061256483670de0b6b3a764000084612e0d565b600061256483670de0b6b3a764000084614e1a565b6000816000036147f05750670de0b6b3a76400006123f7565b82600003614800575060006123f7565b81600061480c85615157565b9050818102614823670de0b6b3a764000082615e2c565b9050613de28161536a565b600954600090819061485090600160801b90046001600160801b0316846147ad565b905061487c7f000000000000000000000000000000000000000000000000000000000000000082615c87565b6008546001600160801b031611156148d4576008547f0000000000000000000000000000000000000000000000000000000000000000906148c79083906001600160801b0316615c74565b6148d19190615c74565b91505b50919050565b60008084116148e957826148f4565b6148f4838686612e0d565b9050806000036149045750610a21565b80858382111561491f5783915061491c878385612e0d565b90505b61492882612a04565b600d80546000906149439084906001600160801b0316615d31565b92506101000a8154816001600160801b0302191690836001600160801b0316021790555061497081612a04565b600d8054601090614992908490600160801b90046001600160801b0316615d31565b92506101000a8154816001600160801b0302191690836001600160801b03160217905550610a0b8161392390615dcb565b6000806149ce6121b4565b90508083116149de5760006149e8565b6149e88184615c74565b91506148d1827f00000000000000000000000000000000000000000000000000000000000000006147ad565b60008080614a35614a2d88670de0b6b3a7640000615c74565b899087612e0d565b9050614a41888861254f565b91508115614a7757614a688a8a84614a618a670de0b6b3a7640000615c74565b8989615006565b9250614a748382615c87565b90505b9750975097945050505050565b6000808080614a9b86670de0b6b3a7640000615c74565b9350614ad08786611b9d8b612a85897f000000000000000000000000000000000000000000000000000000000000000061254f565b9350614afc847f000000000000000000000000000000000000000000000000000000000000000061254f565b91506000614b1d614b1589670de0b6b3a7640000615c74565b8a9088612e0d565b9050614b49817f000000000000000000000000000000000000000000000000000000000000000061254f565b9350614b75847f000000000000000000000000000000000000000000000000000000000000000061254f565b915050945094509450949050565b600080614b9c85614b9488876154f5565b8a9190612e0d565b9050614ba9888486612e0d565b614bb39082615c87565b905086811115614bca57614bc78782615c74565b91505b509695505050505050565b60008060008060008088881015614c32578615614bfa57614bf78d898b612e0d565b9c505b614c058c898b612e0d565b9b50614c118b8d615dab565b9050614c1e8b898b612e0d565b9a50614c2b8a898b612e0d565b9950614c3f565b614c3c8b8d615dab565b90505b9b9c9a9b999a975050505050505050565b600060016001607f1b03198212801590614c71575060016001607f1b038213155b612a2a5760405163a5353be560e01b815260040160405180910390fd5b6000818313614c9d5781612564565b5090919050565b60008183136148d45782612564565b60006144ae878787614ccd88670de0b6b3a7640000615c74565b8787614f48565b6000808080614ceb86670de0b6b3a7640000615c74565b9050614d208786611b9d8b612a85867f000000000000000000000000000000000000000000000000000000000000000061254f565b9350614d4c847f000000000000000000000000000000000000000000000000000000000000000061254f565b91506000614d65614b1589670de0b6b3a7640000615c74565b9050614d91817f000000000000000000000000000000000000000000000000000000000000000061254f565b9350614dbd847f000000000000000000000000000000000000000000000000000000000000000061254f565b614dc79084615c87565b925050509450945094915050565b6000614de3612d0c83613a14565b60008080526002602052600080516020615eaa8339815191525491925090614e0c908590615c87565b9050610f77858383876148da565b6000826000190484118302158202614e3157600080fd5b50910281810615159190040190565b600080670de0b6b3a7640000614e546121b4565b614e5e9190615cb0565b9050808311614e6e576000614e78565b614e788184615c74565b91506148d1614eaf670de0b6b3a76400007f0000000000000000000000000000000000000000000000000000000000000000615cb0565b83906147ad565b60008080614ec485856147ad565b90506000614ed582868c8a8d61550a565b90506000614f10614eee670de0b6b3a76400008a6147ad565b614f06614eff8b612a758b8f61254f565b869061254f565b612a759085615c74565b9050614f1c898c615c74565b614f268b83615c74565b945094505050505b965096945050505050565b60008183116148d45782612564565b600080614f59888888888888615538565b909250905080614bca57604051637ac17d2560e01b815260040160405180910390fd5b60008080614f8a85856147ad565b90506000614f9b82868b8a8c61550a565b90506000614fd0614fb4670de0b6b3a76400008a6147ad565b612a75614fc9670de0b6b3a764000087615c87565b85906147ad565b90506000614fde82886147ad565b9050614fea8b82615c74565b614ff4838c615c74565b95509550505050509550959350505050565b60008061501384846147ad565b9050600061502482858b898c61550a565b905061503486612a75898b615c74565b9750600061505b61504d670de0b6b3a7640000896147c2565b612a7585613a0e8d87615c74565b905061506781866147ad565b90506150738a82615c74565b9a9950505050505050505050565b6000808061509a614a2d88670de0b6b3a7640000615c74565b90508615614a77576150ac888861254f565b9150614a688a8a846150c68a670de0b6b3a7640000615c74565b8989614f48565b60606150dc84846000856155d9565b949350505050565b6000806150f184846147ad565b9050600061510282858b898c61550a565b905061511c86612a756151158a8d615c87565b879061254f565b9850615128828a61254f565b9850600061514b615141670de0b6b3a7640000896147c2565b612a758c85615c74565b9050615073818a615c74565b600080821361517957604051636838feed60e11b815260040160405180910390fd5b5060606001600160801b03821160071b82811c67ffffffffffffffff1060061b1782811c63ffffffff1060051b1782811c61ffff1060041b1782811c60ff10600390811b90911783811c600f1060021b1783811c909110600190811b90911783811c90911017609f81810383019390931b90921c6c465772b2bbbb5f824b15207a3081018102821d6d0388eaa27412d5aca026815d636e018102821d6d0df99ac502031bf953eff472fdcc018102821d6d13cdffb29d51d99322bdff5f2211018102821d6d0a0f742023def783a307a986912e018102821d6d01920d8043ca89b5239253284e42018102821d6c0b7a86d7375468fac667a0a527016c29508e458543d8aa4df2abee7882018202831d6d0139601a2efabe717e604cbb4894018202831d6d02247f7a7b6594320649aa03aba1018202831d6c8c3f38e95a6b1ff2ab1c3b343619018202831d6d02384773bdf1ac5676facced60901901820290921d6cb9a025d814b29c212b8b1a07cd190102780a09507084cc699bb0e71ea869ffffffffffffffffffffffff190105711340daa0d5f769dba1915cef59f0815a550602605f19919091017d0267a36c0c95b3975ab3ee5b203a7614a3f75373f047d803ae7b6687f2b302017d57115e47018c7177eebf7cd370a3356a1b7863008a5ae8028c72b88642840160ae1d90565b6000680248ce36a70cb26b3e19821361538557506000919050565b680755bf798b4a1bf1e582126153ae5760405163df92cc9d60e01b815260040160405180910390fd5b6503782dace9d9604e83901b059150600060606bb17217f7d1cf79abc9e3b39884821b056001605f1b01901d6bb17217f7d1cf79abc9e3b39881029093036c240c330e9fb2d9cbaf0fd5aafb1981018102606090811d6d0277594991cfc85f6e2461837cd9018202811d6d1a521255e34f6a5061b25ef1c9c319018202811d6db1bbb201f443cf962f1a1d3db4a5018202811d6e02c72388d9f74f51a9331fed693f1419018202811d6e05180bb14799ab47a8a8cb2a527d57016d02d16720577bd19bf614176fe9ea6c10fe68e7fd37d0007b713f765084018402831d9081019084016d01d3967ed30fc4f89c02bab5708119010290911d6e0587f503bb6ea29d25fcb740196450019091026d360d7aeea093263ecc6e0ecb291760621b010574029d9dc38563c32e5c2f6dc192ee70ef65f9978af30260c3939093039290921c92915050565b60006125648383670de0b6b3a7640000614e1a565b600061551682846147d7565b61552e61552785612a75898961254f565b889061254f565b613de29190615c87565b6000808061554685856147ad565b9050600061555782868c8a8d61550a565b905061556787612a758a8c615c87565b98508881101561557f57600080935093505050614f2e565b60006155a4615596670de0b6b3a76400008a6147c2565b612a7585613a0e8e87615c74565b90506155b081876147ad565b9050808b11156155c7576155c4818c615c74565b94505b60019350505050965096945050505050565b60608247101561563a5760405162461bcd60e51b815260206004820152602660248201527f416464726573733a20696e73756666696369656e742062616c616e636520666f6044820152651c8818d85b1b60d21b6064820152608401610700565b600080866001600160a01b031685876040516156569190615e5a565b60006040518083038185875af1925050503d8060008114615693576040519150601f19603f3d011682016040523d82523d6000602084013e615698565b606091505b50915091506144ae878383876060831561571357825160000361570c576001600160a01b0385163b61570c5760405162461bcd60e51b815260206004820152601d60248201527f416464726573733a2063616c6c20746f206e6f6e2d636f6e74726163740000006044820152606401610700565b50816150dc565b6150dc83838151156157285781518083602001fd5b8060405162461bcd60e51b81526004016107009190615e76565b8183823760009101908152919050565b805160208201516001600160e01b031980821692919060048310156157815780818460040360031b1b83161693505b505050919050565b634e487b7160e01b600052604160045260246000fd5b60005b838110156157ba5781810151838201526020016157a2565b50506000910152565b6000602082840312156157d557600080fd5b815167ffffffffffffffff808211156157ed57600080fd5b818401915084601f83011261580157600080fd5b81518181111561581357615813615789565b604051601f8201601f19908116603f0116810190838211818310171561583b5761583b615789565b8160405282815287602084870101111561585457600080fd5b6144ae83602083016020880161579f565b6001600160a01b038116811461587a57600080fd5b50565b60006020828403121561588f57600080fd5b813561256481615865565b801515811461587a57600080fd5b6000602082840312156158ba57600080fd5b81356125648161589a565b600080600080600060a086880312156158dd57600080fd5b85359450602086013593506040860135925060608601356158fd81615865565b9150608086013561590d8161589a565b809150509295509295909350565b60008083601f84011261592d57600080fd5b50813567ffffffffffffffff81111561594557600080fd5b6020830191508360208260051b85010111156121ad57600080fd5b6000806000806000806080878903121561597957600080fd5b863561598481615865565b9550602087013561599481615865565b9450604087013567ffffffffffffffff808211156159b157600080fd5b6159bd8a838b0161591b565b909650945060608901359150808211156159d657600080fd5b506159e389828a0161591b565b979a9699509497509295939492505050565b60008060008060808587031215615a0b57600080fd5b843593506020850135615a1d81615865565b92506040850135615a2d81615865565b9396929550929360600135925050565b60008060008060808587031215615a5357600080fd5b84359350602085013592506040850135615a6c81615865565b91506060850135615a7c8161589a565b939692955090935050565b60008060008060808587031215615a9d57600080fd5b843593506020850135615aaf81615865565b9250604085013591506060850135615a7c81615865565b60008060408385031215615ad957600080fd5b8235615ae481615865565b91506020830135615af48161589a565b809150509250929050565b600080600080600080600060e0888a031215615b1a57600080fd5b8735615b2581615865565b96506020880135615b3581615865565b95506040880135615b458161589a565b945060608801359350608088013560ff81168114615b6257600080fd5b9699959850939692959460a0840135945060c09093013592915050565b600080600060608486031215615b9457600080fd5b833592506020840135615ba681615865565b929592945050506040919091013590565b600080600080600060a08688031215615bcf57600080fd5b853594506020860135615be181615865565b93506040860135615bf181615865565b925060608601359150608086013561590d81615865565b600060208284031215615c1a57600080fd5b5035919050565b600060208284031215615c3357600080fd5b5051919050565b6020808252600a90820152695245454e5452414e435960b01b604082015260600190565b634e487b7160e01b600052601160045260246000fd5b818103818111156123f7576123f7615c5e565b808201808211156123f7576123f7615c5e565b634e487b7160e01b600052603260045260246000fd5b80820281158282048414176123f7576123f7615c5e565b6001600160801b03828116828216039080821115615ce757615ce7615c5e565b5092915050565b600060018201615d0057615d00615c5e565b5060010190565b634e487b7160e01b600052601260045260246000fd5b600082615d2c57615d2c615d07565b500690565b6001600160801b03818116838216019080821115615ce757615ce7615c5e565b600f81810b9083900b0160016001607f1b03811360016001607f1b0319821217156123f7576123f7615c5e565b600f82810b9082900b0360016001607f1b0319811260016001607f1b03821317156123f7576123f7615c5e565b8181036000831280158383131683831282161715615ce757615ce7615c5e565b6000600160ff1b8201615de057615de0615c5e565b5060000390565b8082018281126000831280158216821582161715615e0757615e07615c5e565b505092915050565b600060208284031215615e2157600080fd5b81516125648161589a565b600082615e3b57615e3b615d07565b600160ff1b821460001984141615615e5557615e55615c5e565b500590565b60008251615e6c81846020870161579f565b9190910192915050565b6020815260008251806020840152615e9581604085016020870161579f565b601f01601f1916919091016040019291505056feac33ff75c19e70fe83507db0d683fd3465c996598dc972688b7ace676c89077ba2646970667358221220949045d4a6c763245e0b0067f6b8383c2eab88c7f59a4ad67e4a80149bc7412e64736f6c63430008130033a264697066735822122022c4de84d5431ccf50665b997b41e1fd9ef4f8fc3fc3295053ff18a91e9fcb5664736f6c63430008130033",
    "linkReferences": {}
  },
  "methodIdentifiers": {
    "deploy((address,uint256,uint256,uint256,uint256,uint256,uint256,address,address,(uint256,uint256,uint256),uint256,uint256),address,bytes32,address,bytes32[])": "e3420f4f"
  },
  "id": 9
}