{"abi":[{"type":"constructor","inputs":[{"name":"_hyperdriveCoreDeployer","type":"address","internalType":"address"},{"name":"_target0Deployer","type":"address","internalType":"address"},{"name":"_target1Deployer","type":"address","internalType":"address"}],"stateMutability":"nonpayable"},{"type":"function","name":"deploy","inputs":[{"name":"_config","type":"tuple","internalType":"struct IHyperdrive.PoolConfig","components":[{"name":"baseToken","type":"address","internalType":"contract IERC20"},{"name":"linkerFactory","type":"address","internalType":"address"},{"name":"linkerCodeHash","type":"bytes32","internalType":"bytes32"},{"name":"initialSharePrice","type":"uint256","internalType":"uint256"},{"name":"minimumShareReserves","type":"uint256","internalType":"uint256"},{"name":"minimumTransactionAmount","type":"uint256","internalType":"uint256"},{"name":"positionDuration","type":"uint256","internalType":"uint256"},{"name":"checkpointDuration","type":"uint256","internalType":"uint256"},{"name":"timeStretch","type":"uint256","internalType":"uint256"},{"name":"governance","type":"address","internalType":"address"},{"name":"feeCollector","type":"address","internalType":"address"},{"name":"fees","type":"tuple","internalType":"struct IHyperdrive.Fees","components":[{"name":"curve","type":"uint256","internalType":"uint256"},{"name":"flat","type":"uint256","internalType":"uint256"},{"name":"governance","type":"uint256","internalType":"uint256"}]}]},{"name":"_extraData","type":"bytes","internalType":"bytes"}],"outputs":[{"name":"","type":"address","internalType":"address"}],"stateMutability":"nonpayable"},{"type":"function","name":"hyperdriveCoreDeployer","inputs":[],"outputs":[{"name":"","type":"address","internalType":"address"}],"stateMutability":"view"},{"type":"function","name":"target0Deployer","inputs":[],"outputs":[{"name":"","type":"address","internalType":"address"}],"stateMutability":"view"},{"type":"function","name":"target1Deployer","inputs":[],"outputs":[{"name":"","type":"address","internalType":"address"}],"stateMutability":"view"}],"bytecode":{"object":"0x60e060405234801561001057600080fd5b506040516107c53803806107c583398101604081905261002f91610068565b6001600160a01b0392831660805290821660a0521660c0526100ab565b80516001600160a01b038116811461006357600080fd5b919050565b60008060006060848603121561007d57600080fd5b6100868461004c565b92506100946020850161004c565b91506100a26040850161004c565b90509250925092565b60805160a05160c0516106da6100eb600039600081816099015261018a01526000818160c0015260f50152600081816056015261023301526106da6000f3fe608060405234801561001057600080fd5b506004361061004c5760003560e01c80639d61bd3c14610051578063a085fa3014610094578063ab71905f146100bb578063d09b3b96146100e2575b600080fd5b6100787f000000000000000000000000000000000000000000000000000000000000000081565b6040516001600160a01b03909116815260200160405180910390f35b6100787f000000000000000000000000000000000000000000000000000000000000000081565b6100787f000000000000000000000000000000000000000000000000000000000000000081565b6100786100f036600461040b565b6000807f00000000000000000000000000000000000000000000000000000000000000006001600160a01b031663d09b3b9685856040518363ffffffff1660e01b8152600401610141929190610615565b6020604051808303816000875af1158015610160573d6000803e3d6000fd5b505050506040513d601f19601f820116820180604052508101906101849190610637565b905060007f00000000000000000000000000000000000000000000000000000000000000006001600160a01b031663d09b3b9686866040518363ffffffff1660e01b81526004016101d6929190610615565b6020604051808303816000875af11580156101f5573d6000803e3d6000fd5b505050506040513d601f19601f820116820180604052508101906102199190610637565b6040516399bb2e7b60e01b81529091506001600160a01b037f000000000000000000000000000000000000000000000000000000000000000016906399bb2e7b9061026e90889088908790879060040161065b565b6020604051808303816000875af115801561028d573d6000803e3d6000fd5b505050506040513d601f19601f820116820180604052508101906102b19190610637565b95945050505050565b634e487b7160e01b600052604160045260246000fd5b604051610180810167ffffffffffffffff811182821017156102f4576102f46102ba565b60405290565b6001600160a01b038116811461030f57600080fd5b50565b803561031d816102fa565b919050565b60006060828403121561033457600080fd5b6040516060810181811067ffffffffffffffff82111715610357576103576102ba565b80604052508091508235815260208301356020820152604083013560408201525092915050565b600082601f83011261038f57600080fd5b813567ffffffffffffffff808211156103aa576103aa6102ba565b604051601f8301601f19908116603f011681019082821181831017156103d2576103d26102ba565b816040528381528660208588010111156103eb57600080fd5b836020870160208301376000602085830101528094505050505092915050565b6000808284036101e081121561042057600080fd5b6101c08082121561043057600080fd5b6104386102d0565b915061044385610312565b825261045160208601610312565b602083015260408501356040830152606085013560608301526080850135608083015260a085013560a083015260c085013560c083015260e085013560e08301526101008086013581840152506101206104ac818701610312565b908301526101406104be868201610312565b908301526101606104d187878301610322565b9083015290925083013567ffffffffffffffff8111156104f057600080fd5b6104fc8582860161037e565b9150509250929050565b80516001600160a01b03168252602081015161052d60208401826001600160a01b03169052565b5060408101516040830152606081015160608301526080810151608083015260a081015160a083015260c081015160c083015260e081015160e083015261010080820151818401525061012080820151610591828501826001600160a01b03169052565b5050610140818101516001600160a01b031690830152610160908101518051918301919091526020810151610180830152604001516101a090910152565b6000815180845260005b818110156105f5576020818501810151868301820152016105d9565b506000602082860101526020601f19601f83011685010191505092915050565b60006101e06106248386610506565b806101c08401526102b1818401856105cf565b60006020828403121561064957600080fd5b8151610654816102fa565b9392505050565b600061022061066a8388610506565b806101c084015261067d818401876105cf565b6001600160a01b039586166101e0850152939094166102009092019190915250939250505056fea2646970667358221220c63b566a7fbb83da5c9e4f9c543ff292b59783a3d1c778dec0cd31e8d6eeddd964736f6c63430008130033","linkReferences":{}},"methodIdentifiers":{"deploy((address,address,bytes32,uint256,uint256,uint256,uint256,uint256,uint256,address,address,(uint256,uint256,uint256)),bytes)":"d09b3b96","hyperdriveCoreDeployer()":"9d61bd3c","target0Deployer()":"ab71905f","target1Deployer()":"a085fa30"},"id":7}