{
  "abi": [
    {
      "inputs": [
        {
          "components": [
            {
              "internalType": "contract IERC20",
              "name": "baseToken",
              "type": "address"
            },
            {
              "internalType": "address",
              "name": "linkerFactory",
              "type": "address"
            },
            {
              "internalType": "bytes32",
              "name": "linkerCodeHash",
              "type": "bytes32"
            },
            {
              "internalType": "uint256",
              "name": "initialSharePrice",
              "type": "uint256"
            },
            {
              "internalType": "uint256",
              "name": "minimumShareReserves",
              "type": "uint256"
            },
            {
              "internalType": "uint256",
              "name": "minimumTransactionAmount",
              "type": "uint256"
            },
            {
              "internalType": "uint256",
              "name": "precisionThreshold",
              "type": "uint256"
            },
            {
              "internalType": "uint256",
              "name": "positionDuration",
              "type": "uint256"
            },
            {
              "internalType": "uint256",
              "name": "checkpointDuration",
              "type": "uint256"
            },
            {
              "internalType": "uint256",
              "name": "timeStretch",
              "type": "uint256"
            },
            {
              "internalType": "address",
              "name": "governance",
              "type": "address"
            },
            {
              "internalType": "address",
              "name": "feeCollector",
              "type": "address"
            },
            {
              "components": [
                {
                  "internalType": "uint256",
                  "name": "curve",
                  "type": "uint256"
                },
                {
                  "internalType": "uint256",
                  "name": "flat",
                  "type": "uint256"
                },
                {
                  "internalType": "uint256",
                  "name": "governance",
                  "type": "uint256"
                }
              ],
              "internalType": "struct IHyperdrive.Fees",
              "name": "fees",
              "type": "tuple"
            }
          ],
          "internalType": "struct IHyperdrive.PoolConfig",
          "name": "_config",
          "type": "tuple"
        },
        {
          "internalType": "address",
          "name": "_target0",
          "type": "address"
        },
        {
          "internalType": "address",
          "name": "_target1",
          "type": "address"
        },
        {
          "internalType": "bytes32[]",
          "name": "_extraData",
          "type": "bytes32[]"
        },
        {
          "internalType": "address",
          "name": "_pool",
          "type": "address"
        }
      ],
      "name": "deploy",
      "outputs": [
        {
          "internalType": "address",
          "name": "",
          "type": "address"
        }
      ],
      "stateMutability": "nonpayable",
      "type": "function"
    }
  ],
  "bytecode": {
    "object": "0x608060405234801561001057600080fd5b50614f61806100206000396000f3fe60806040523480156200001157600080fd5b50600436106200002e5760003560e01c80637a77fb8f1462000033575b600080fd5b6200004a620000443660046200022c565b62000066565b6040516001600160a01b03909116815260200160405180910390f35b6000606083905086868685846040516200008090620000b9565b62000090959493929190620003c9565b604051809103906000f080158015620000ad573d6000803e3d6000fd5b50979650505050505050565b614a3580620004f783390190565b634e487b7160e01b600052604160045260246000fd5b6040516101a0810167ffffffffffffffff81118282101715620001045762000104620000c7565b60405290565b80356001600160a01b03811681146200012257600080fd5b919050565b6000606082840312156200013a57600080fd5b6040516060810181811067ffffffffffffffff82111715620001605762000160620000c7565b80604052508091508235815260208301356020820152604083013560408201525092915050565b600082601f8301126200019957600080fd5b8135602067ffffffffffffffff80831115620001b957620001b9620000c7565b8260051b604051601f19603f83011681018181108482111715620001e157620001e1620000c7565b6040529384528581018301938381019250878511156200020057600080fd5b83870191505b84821015620002215781358352918301919083019062000206565b979650505050505050565b60008060008060008587036102608112156200024757600080fd5b6101e0808212156200025857600080fd5b62000262620000dd565b91506200026f886200010a565b82526200027f602089016200010a565b602083015260408801356040830152606088013560608301526080880135608083015260a088013560a083015260c088013560c083015260e088013560e0830152610100808901358184015250610120808901358184015250610140620002e8818a016200010a565b90830152610160620002fc8982016200010a565b90830152610180620003118a8a830162000127565b8184015250819650620003268189016200010a565b955050506200033961020087016200010a565b925061022086013567ffffffffffffffff8111156200035757600080fd5b620003658882890162000187565b9250506200037761024087016200010a565b90509295509295909350565b600081518084526020808501945080840160005b83811015620003be5781516001600160a01b03168752958201959082019060010162000397565b509495945050505050565b85516001600160a01b0316815260006102606020880151620003f660208501826001600160a01b03169052565b5060408801516040840152606088015160608401526080880151608084015260a088015160a084015260c088015160c084015260e088015160e08401526101008089015181850152506101208089015181850152506101408089015162000467828601826001600160a01b03169052565b5050610160888101516001600160a01b0381168583015250506101808881015180518583015260208101516101a086015260408101516101c086015250506001600160a01b0387166101e08401526001600160a01b0386166102008401526001600160a01b03851661022084015280610240840152620004ea8184018562000383565b9897505050505050505056fe6102c060405260016000553480156200001757600080fd5b5060405162004a3538038062004a358339810160408190526200003a91620006c3565b84516001600160a01b03166080908152850151829086908690869083906103e811156200007a576040516349db44f560e01b815260040160405180910390fd5b60808101516101805260a08101516101a05260c08101516101c052610100810151600003620000bc57604051635428734d60e01b815260040160405180910390fd5b6101008101805160a0525160e08201511080620000ee57508061010001518160e00151620000eb91906200081a565b15155b156200010d5760405163253fffcf60e11b815260040160405180910390fd5b60e08181015160c05261012082015190526060810151610160908152610140820151600880546001600160a01b0319166001600160a01b0392831617905590820151166101e05261018081015151670de0b6b3a76400001080620001815750670de0b6b3a764000081610180015160200151115b806200019d5750670de0b6b3a764000081610180015160400151115b15620001bc576040516322f72cc360e11b815260040160405180910390fd5b610180810180515161010052805160209081015161012052905160409081015161014052818301516001600160a01b039081166102005292810151610220528051808201825260018152603160f81b9083015280517f2aef22f9d7df5f9d21c56d14029233f3fdaa91917727e1eb68e504d27072d6cd818401527fc89efdaa54c0f20c7adf612882df0950f5a951637e0307cdcb4c672f298b8bc681830152466060820152306080828101919091528251808303909101815260a090910190915280519101206102405291821661026052811661028052919091166102a05250620002a6620004ca565b856060015114620002ca576040516355f2a42f60e01b815260040160405180910390fd5b6102a0516001600160a01b03166338d52e0f6040518163ffffffff1660e01b8152600401602060405180830381865afa1580156200030c573d6000803e3d6000fd5b505050506040513d601f19601f820116820180604052508101906200033291906200083d565b6001600160a01b031685600001516001600160a01b0316146200036857604051630722152560e11b815260040160405180910390fd5b84516102a05160405163095ea7b360e01b81526001600160a01b039182166004820152600019602482015291169063095ea7b3906044016020604051808303816000875af1158015620003bf573d6000803e3d6000fd5b505050506040513d601f19601f82011682018060405250810190620003e5919062000864565b62000403576040516340b27c2160e11b815260040160405180910390fd5b60005b8151811015620004be57600082828151811062000427576200042762000888565b602002602001015190506102a0516001600160a01b0316816001600160a01b031614806200046857506080516001600160a01b0316816001600160a01b0316145b15620004875760405163350b944160e11b815260040160405180910390fd5b6001600160a01b03166000908152601060205260409020805460ff1916600117905580620004b5816200089e565b91505062000406565b505050505050620008e0565b6102a0516040516303d1689d60e11b8152670de0b6b3a764000060048201526000916001600160a01b0316906307a2d13a90602401602060405180830381865afa1580156200051d573d6000803e3d6000fd5b505050506040513d601f19601f82011682018060405250810190620005439190620008c6565b905090565b634e487b7160e01b600052604160045260246000fd5b6040516101a081016001600160401b038111828210171562000584576200058462000548565b60405290565b6001600160a01b0381168114620005a057600080fd5b50565b8051620005b0816200058a565b919050565b600060608284031215620005c857600080fd5b604051606081016001600160401b0381118282101715620005ed57620005ed62000548565b80604052508091508251815260208301516020820152604083015160408201525092915050565b600082601f8301126200062657600080fd5b815160206001600160401b038083111562000645576200064562000548565b8260051b604051601f19603f830116810181811084821117156200066d576200066d62000548565b6040529384528581018301938381019250878511156200068c57600080fd5b83870191505b84821015620006b8578151620006a8816200058a565b8352918301919083019062000692565b979650505050505050565b6000806000806000858703610260811215620006de57600080fd5b6101e080821215620006ef57600080fd5b620006f96200055e565b91506200070688620005a3565b82526200071660208901620005a3565b602083015260408801516040830152606088015160608301526080880151608083015260a088015160a083015260c088015160c083015260e088015160e08301526101008089015181840152506101208089015181840152506101406200077f818a01620005a3565b9083015261016062000793898201620005a3565b90830152610180620007a88a8a8301620005b5565b8184015250819650620007bd818901620005a3565b95505050620007d06102008701620005a3565b9250620007e16102208701620005a3565b6102408701519092506001600160401b03811115620007ff57600080fd5b6200080d8882890162000614565b9150509295509295909350565b6000826200083857634e487b7160e01b600052601260045260246000fd5b500690565b6000602082840312156200085057600080fd5b81516200085d816200058a565b9392505050565b6000602082840312156200087757600080fd5b815180151581146200085d57600080fd5b634e487b7160e01b600052603260045260246000fd5b600060018201620008bf57634e487b7160e01b600052601160045260246000fd5b5060010190565b600060208284031215620008d957600080fd5b5051919050565b60805160a05160c05160e05161010051610120516101405161016051610180516101a0516101c0516101e05161020051610220516102405161026051610280516102a051613f6b62000aca60003960008181610fc10152818161105701526118a201526000818161054301528181610585015281816105de01528181610674015261070701526000818161017d01528181610344015281816105b20152818161061001528181610642015281816106a8015281816106d70152818161074701526107a10152600081816103f2015261092101526000505060005050600050506000611c08015260008181610b350152610d6101526000818161217b015281816124ad01528181612a1701528181612c9401528181612cd0015281816131c501526132140152600081816114430152818161148b0152818161195d0152818161248701526128c6015260008181611e0a0152818161296801528181612af00152612b69015260008181611a1301528181611dde0152612b3d0152600081816114dd015281816129240152612abc015260008181611421015281816114ac0152818161193b015281816124d301526128e7015260008181610c0301528181610dee015281816111530152818161126f0152612e47015260006110b601526000610f7d0152613f6b6000f3fe6080604052600436106101665760003560e01c806377d05ff4116100d1578063cba2e58d1161008a578063ded0623111610064578063ded062311461037e578063e44808bc14610511578063eac3e79914610531578063ed64bab21461056557610166565b8063cba2e58d146104eb578063cbc13434146102b8578063dbbe8070146104fe57610166565b806377d05ff41461046f5780639032c726146104825780639aa68462146104a25780639cd241af146104b0578063a22cb4651461044f578063ab033ea9146104d057610166565b806329b23fc11161012357806329b23fc11461037e57806330adf81f146103ac5780633644e515146103e05780633e691db9146104145780634ed2d6ac146104345780637180c8ca1461044f57610166565b806301681a621461027657806302329a2914610298578063074a6de9146102b857806317fad7fc146102f25780631c0f12b61461031257806321b57d5314610332575b34801561017257600080fd5b5060003660606000807f00000000000000000000000000000000000000000000000000000000000000006001600160a01b031685856040516101b5929190613808565b600060405180830381855af49150503d80600081146101f0576040519150601f19603f3d011682016040523d82523d6000602084013e6101f5565b606091505b5091509150811561021957604051638bb0a34b60e01b815260040160405180910390fd5b600061022482613818565b90506001600160e01b03198116636e64089360e11b1461024657815160208301fd5b81516003198101600484019081529261026791810160200190602401613865565b80519650602001945050505050f35b34801561028257600080fd5b50610296610291366004613947565b610580565b005b3480156102a457600080fd5b506102966102b3366004613979565b6105ad565b3480156102c457600080fd5b506102d86102d33660046139a6565b6105d6565b604080519283526020830191909152015b60405180910390f35b3480156102fe57600080fd5b5061029661030d366004613a3b565b61060b565b34801561031e57600080fd5b5061029661032d366004613ad0565b61063d565b34801561033e57600080fd5b506103667f000000000000000000000000000000000000000000000000000000000000000081565b6040516001600160a01b0390911681526020016102e9565b34801561038a57600080fd5b5061039e610399366004613b18565b61066d565b6040519081526020016102e9565b3480156103b857600080fd5b5061039e7f65619c8664d6db8aae8c236ad19598696159942a4245b23b45565cc18e97367381565b3480156103ec57600080fd5b5061039e7f000000000000000000000000000000000000000000000000000000000000000081565b34801561042057600080fd5b5061039e61042f366004613b72565b6106a1565b34801561044057600080fd5b5061029661032d366004613baf565b34801561045b57600080fd5b5061029661046a366004613bf9565b6106d2565b61039e61047d3660046139a6565b610700565b34801561048e57600080fd5b5061029661049d366004613c25565b610733565b61039e610399366004613b18565b3480156104bc57600080fd5b506102966104cb366004613ca3565b610742565b3480156104dc57600080fd5b506102966102b3366004613947565b6102d86104f9366004613b18565b610771565b6102d861050c366004613b18565b61078d565b34801561051d57600080fd5b5061029661052c366004613cdb565b61079c565b34801561053d57600080fd5b506103667f000000000000000000000000000000000000000000000000000000000000000081565b34801561057157600080fd5b50610296610291366004613d3a565b6105a97f00000000000000000000000000000000000000000000000000000000000000006107cd565b5050565b6105a97f00000000000000000000000000000000000000000000000000000000000000006107cd565b6000806106027f00000000000000000000000000000000000000000000000000000000000000006107cd565b50935093915050565b6106347f00000000000000000000000000000000000000000000000000000000000000006107cd565b50505050505050565b6106667f00000000000000000000000000000000000000000000000000000000000000006107cd565b5050505050565b60006106987f00000000000000000000000000000000000000000000000000000000000000006107cd565b50949350505050565b60006106cc7f00000000000000000000000000000000000000000000000000000000000000006107cd565b50919050565b6106fb7f00000000000000000000000000000000000000000000000000000000000000006107cd565b505050565b600061072b7f00000000000000000000000000000000000000000000000000000000000000006107cd565b509392505050565b61063487878787878787610847565b61076b7f00000000000000000000000000000000000000000000000000000000000000006107cd565b50505050565b60008061078086868686610a96565b9150915094509492505050565b60008061078086868686610ce7565b6107c57f00000000000000000000000000000000000000000000000000000000000000006107cd565b505050505050565b6060600080836001600160a01b03166000366040516107ed929190613808565b600060405180830381855af49150503d8060008114610828576040519150601f19603f3d011682016040523d82523d6000602084013e61082d565b606091505b50915091508161083f57805160208201fd5b805160208201f35b834211156108685760405163f87d927160e01b815260040160405180910390fd5b6001600160a01b03871661088f5760405163f0dd15fd60e01b815260040160405180910390fd5b6001600160a01b038781166000818152600f602090815260408083205481517f65619c8664d6db8aae8c236ad19598696159942a4245b23b45565cc18e9736738185015280830195909552948b166060850152891515608085015260a084019490945260c08084018990528451808503909101815260e08401909452835193019290922061190160f01b6101008301527f00000000000000000000000000000000000000000000000000000000000000006101028301526101228201526101420160408051601f198184030181528282528051602091820120600080855291840180845281905260ff88169284019290925260608301869052608083018590529092509060019060a0016020604051602081039080840390855afa1580156109bb573d6000803e3d6000fd5b505050602060405103519050886001600160a01b0316816001600160a01b0316146109f957604051638baa579f60e01b815260040160405180910390fd5b6001600160a01b0389166000908152600f602052604081208054909190610a1f90613d69565b909155506001600160a01b038981166000818152600d60209081526040808320948d1680845294825291829020805460ff19168c151590811790915591519182527f17307eab39ab6107e8899845ad3d59bd9653f200f220920489ca2b5937696c31910160405180910390a3505050505050505050565b600080600054600114610add5760405162461bcd60e51b815260206004820152600a6024820152695245454e5452414e435960b01b60448201526064015b60405180910390fd5b6002600055600554610100900460ff1615610b0b576040516313d0ff5960e31b815260040160405180910390fd5b610b13610f37565b600080610b208886610f58565b90925090506000610b318383611091565b90507f0000000000000000000000000000000000000000000000000000000000000000811015610b745760405163211ddda360e11b815260040160405180910390fd5b86821015610b95576040516342af972b60e01b815260040160405180910390fd5b6000610b9f6110af565b9050610bab81846110ea565b506000806000610bbb87876113fa565b909a5091945092509050878c1115610be65760405163c972651760e01b815260040160405180910390fd5b8060096000828254610bf89190613d82565b90915550610c2890507f000000000000000000000000000000000000000000000000000000000000000085613d82565b9850610c3883898489888e611574565b6000610c4560018b611773565b9050610c5e81610c5860208e018e613947565b8b6117a8565b8d8b8a83610c6f6020840184613947565b6001600160a01b03167f8daa42046d321d073674dbdf323d82d84f6020561cd24ffb2c3dd3e263cda6868f610ca5878f88611850565b60408051928352602083019190915281018e90526060810185905260800160405180910390a39a50505050505050505050506001600055909590945092505050565b600080600054600114610d295760405162461bcd60e51b815260206004820152600a6024820152695245454e5452414e435960b01b6044820152606401610ad4565b6002600055600554610100900460ff1615610d57576040516313d0ff5960e31b815260040160405180910390fd5b610d5f610f37565b7f0000000000000000000000000000000000000000000000000000000000000000861015610da05760405163211ddda360e11b815260040160405180910390fd5b6000610daa611882565b905084811015610dcd576040516342af972b60e01b815260040160405180910390fd5b6000610dd76110af565b90506000610de582846110ea565b90506000610e137f000000000000000000000000000000000000000000000000000000000000000084613d82565b90506000806000610e258d8887611915565b600980549296509294509250829190600090610e42908490613d82565b92505081905550506000610e5782888c611a47565b9050808c1015610e7a5760405163c972651760e01b815260040160405180910390fd5b610e84818b610f58565b5050610e938d83858a88611a6f565b6000610ea0600286611773565b90508d610eba82610eb460208f018f613947565b836117a8565b81610ec860208e018e613947565b60408051898152602081018890529081018c9052606081018490526001600160a01b0391909116907f80aa5907299c704704d0d55e06e3c04e3b331a7c40d5a6b2b3031b0ea12fef959060800160405180910390a350506001600055929c929b50919950505050505050505050565b3415610f5657604051631574f9f360e01b815260040160405180910390fd5b565b600080610f6b6040840160208501613979565b1561104757610fa56001600160a01b037f000000000000000000000000000000000000000000000000000000000000000016333087611cfc565b604051636e553f6560e01b8152600481018590523060248201527f00000000000000000000000000000000000000000000000000000000000000006001600160a01b031690636e553f65906044016020604051808303816000875af1158015611012573d6000803e3d6000fd5b505050506040513d601f19601f820116820180604052508101906110369190613d95565b9150611040611882565b905061108a565b83915061107f6001600160a01b037f000000000000000000000000000000000000000000000000000000000000000016333085611cfc565b611087611882565b90505b9250929050565b60006110a68383670de0b6b3a7640000611d7f565b90505b92915050565b60006110db7f000000000000000000000000000000000000000000000000000000000000000042613dc4565b6110e59042613dd8565b905090565b600082815260076020526040812080546001600160801b031615158061110f57504284115b1561112557546001600160801b031690506110a9565b61112e83611d9d565b81546001600160801b0319166001600160801b039190911617815560006007816111787f000000000000000000000000000000000000000000000000000000000000000088613dd8565b815260208101919091526040016000908120546001600160801b031691506111a1600287611773565b6000818152600c602052604081205491925081156111fa576000806111c9848a886000611dc7565b9150915080600960008282546111df9190613d82565b909155506111f3905084600084808e611e95565b6001925050505b600061120760018a611773565b6000818152600c602052604090205490915080156112625760008061122f838c8a6001611dc7565b9150915080600960008282546112459190613d82565b909155508c905061125a84600085808561200f565b600195505050505b82156112e05760006112947f00000000000000000000000000000000000000000000000000000000000000008c613dd8565b600081815260076020526040902080546001600160801b03811691829055919250600160801b91829004600f90810b926112d4928492919004900b6121dc565b6112dd8b612303565b50505b6000808a116112f057600061130b565b61130b8a6113056113008d6123ea565b612550565b90611091565b600654600c6020527fe33c7a20958276ce9529c827d1e1b38c61245a6a2cb39f13852cf96fd6f7333d5460008080527f13649b2456f1b42fef0f0040b3aaeabcd21a76a0f3f5defd4f583839455116e854939450926001600160801b03909216916113769190613d82565b6113809190613dd8565b9050600081156113995761139483836127be565b61139c565b60005b604080518e8152602081018a9052908101869052606081018290529091508d907f5012836090f6cac0f5b321be3188c3cd9c82c8252a23afea128ea014a6fd15519060800160405180910390a250999b9a5050505050505050505050565b60008060008061146761140b6127d3565b600154600160801b90046001600160801b0316887f0000000000000000000000000000000000000000000000000000000000000000897f00000000000000000000000000000000000000000000000000000000000000006127f4565b925060006114d06114766127d3565b600154600160801b90046001600160801b03167f00000000000000000000000000000000000000000000000000000000000000007f0000000000000000000000000000000000000000000000000000000000000000612820565b90506115068785611501847f0000000000000000000000000000000000000000000000000000000000000000612840565b61288d565b156115245760405163512095c760e01b815260040160405180910390fd5b60008061153289848a612916565b90925090506115418287613dd8565b945061154d8186613d82565b955061155a81848a611d7f565b9350611566848a613dd8565b965050505092959194509250565b6003546001600160801b03166115b46115af8261159985670de0b6b3a7640000613deb565b6004546001600160801b031691908a6001612996565b611d9d565b600480546001600160801b0319166001600160801b03929092169190911790556115dd87611d9d565b600180546000906115f89084906001600160801b0316613e02565b92506101000a8154816001600160801b0302191690836001600160801b0316021790555061162585611d9d565b60018054601090611647908490600160801b90046001600160801b0316613e29565b92506101000a8154816001600160801b0302191690836001600160801b0316021790555061167486611d9d565b61167e9082613e02565b600380546001600160801b0319166001600160801b0383161790556000848152600760205260408120805492935091600160801b9004600f0b906116da6116c58b89611091565b6116d08b6002613deb565b6115af9190613dd8565b8354909150819084906010906116fb908490600160801b9004600f0b613e49565b82546001600160801b039182166101009390930a928302919092021990911617905550825461173890600f84810b91600160801b9004900b6121dc565b61174187612a10565b61175e576040516318846de960e01b815260040160405180910390fd5b61176787612303565b50505050505050505050565b60006001600160f81b0382111561179d5760405163b7d0949760e01b815260040160405180910390fd5b5060f89190911b1790565b6000838152600b602090815260408083206001600160a01b0386168452909152812080548392906117da908490613d82565b90915550506000838152600c6020526040812080548392906117fd908490613d82565b909155505060408051848152602081018390526001600160a01b0384169160009133917fc3d58168c5ae7397731d063d5bbf3d657854427343f4c083240f7aacaa2d0f62910160405180910390a4505050565b60006118626040830160208401613979565b1561186e57508261187b565b6118788484611091565b90505b9392505050565b6040516303d1689d60e11b8152670de0b6b3a764000060048201526000907f00000000000000000000000000000000000000000000000000000000000000006001600160a01b0316906307a2d13a90602401602060405180830381865afa1580156118f1573d6000803e3d6000fd5b505050506040513d601f19601f820116820180604052508101906110e59190613d95565b60008060006119816119256127d3565b600154600160801b90046001600160801b0316887f0000000000000000000000000000000000000000000000000000000000000000897f0000000000000000000000000000000000000000000000000000000000000000612a75565b91508561198e8387611091565b11156119ad5760405163512095c760e01b815260040160405180910390fd5b60008060006119bd6114766127d3565b90506119d389670de0b6b3a7640000838b612a96565b5092955093506119e7915083905084613dd8565b6119f19086613dd8565b9450611a37886113058b611a05868a613dd8565b8b611a108e82612ba7565b8e7f0000000000000000000000000000000000000000000000000000000000000000612bbd565b9550909250505093509350939050565b6000611a596040830160208401613979565b15611a6557508261187b565b61187884846127be565b600354611ab9906115af90600160801b90046001600160801b0316611a9c84670de0b6b3a7640000613deb565b600454600160801b90046001600160801b03169190896001612996565b600480546001600160801b03928316600160801b0292169190911790556000611ae184611d9d565b600154611af791906001600160801b0316613e29565b600180546001600160801b0319166001600160801b0383161790559050611b1d86611d9d565b60018054601090611b3f908490600160801b90046001600160801b0316613e02565b92506101000a8154816001600160801b0302191690836001600160801b03160217905550611b6c86611d9d565b60038054601090611b8e908490600160801b90046001600160801b0316613e02565b82546101009290920a6001600160801b03818102199093169183160217909155600254600154600f9190910b911612159050611bdd5760405163585fe6df60e11b815260040160405180910390fd5b6000611be76110af565b600081815260076020526040902054909150600160801b9004600f0b611c2d7f000000000000000000000000000000000000000000000000000000000000000088613dc4565b611c379088613dd8565b96506000611c458989613d82565b9050611c5081611d9d565b60008481526007602052604090208054601090611c78908490600160801b9004600f0b613e76565b82546001600160801b039182166101009390930a928302919092021990911617905550600083815260076020526040902054611cc290600f84810b91600160801b9004900b6121dc565b611ccb86612a10565b611ce8576040516318846de960e01b815260040160405180910390fd5b611cf186612303565b505050505050505050565b60006040516323b872dd60e01b81528460048201528360248201528260448201526020600060648360008a5af13d15601f3d11600160005114161716915050806106665760405162461bcd60e51b81526020600482015260146024820152731514905394d1915497d19493d357d1905253115160621b6044820152606401610ad4565b6000826000190484118302158202611d9657600080fd5b5091020490565b6000600160801b8210611dc357604051630f0af95160e11b815260040160405180910390fd5b5090565b600080611dd486866127be565b91506000611e02837f0000000000000000000000000000000000000000000000000000000000000000611091565b9050611e2e817f0000000000000000000000000000000000000000000000000000000000000000611091565b91508315611e5157611e408282613dd8565b611e4a9084613dd8565b9250611e68565b611e5b8282613dd8565b611e659084613d82565b92505b84861015611e8b57611e7b838787611d7f565b9250611e88828787611d7f565b91505b5094509492505050565b600354600160801b90046001600160801b0316611ede6115af82611ec185670de0b6b3a7640000613deb565b600454600160801b90046001600160801b031691908a6000612996565b600480546001600160801b03928316600160801b029216919091179055611f0486611d9d565b611f0e9082613e29565b600380546001600160801b03928316600160801b029216919091179055611f3484611d9d565b60018054600090611f4f9084906001600160801b0316613e02565b92506101000a8154816001600160801b0302191690836001600160801b03160217905550611f7c83612c0f565b60028054600090611f91908490600f0b613e49565b92506101000a8154816001600160801b030219169083600f0b6001600160801b03160217905550611fc185611d9d565b60018054601090611fe3908490600160801b90046001600160801b0316613e29565b92506101000a8154816001600160801b0302191690836001600160801b03160217905550505050505050565b6003546001600160801b031661204a6115af8261203485670de0b6b3a7640000613deb565b6004546001600160801b031691908a6000612996565b600480546001600160801b0319166001600160801b039290921691909117905561207386611d9d565b61207d9082613e29565b600380546001600160801b0319166001600160801b0392909216919091179055506120a783611d9d565b600180546000906120c29084906001600160801b0316613e29565b92506101000a8154816001600160801b0302191690836001600160801b031602179055506120ef82612c0f565b60028054600090612104908490600f0b613e76565b92506101000a8154816001600160801b030219169083600f0b6001600160801b0316021790555061213484611d9d565b60018054601090612156908490600160801b90046001600160801b0316613e02565b82546101009290920a6001600160801b038181021990931691831602179091556001547f00000000000000000000000000000000000000000000000000000000000000009116109050806121be5750600254600154600f9190910b6001600160801b03909116125b156106665760405163585fe6df60e11b815260040160405180910390fd5b80821380156121ec575060008212155b1561227f5760006121fd8282612c4d565b6122079084613ea3565b6002549091506122349061222f908390600160801b90046001600160801b0316600f0b612c5c565b612c0f565b60028054601090612256908490600160801b90046001600160801b0316613e29565b92506101000a8154816001600160801b0302191690836001600160801b03160217905550505050565b818113156105a957600082126122f55761229882612c0f565b6122a182612c0f565b6122ab9190613e76565b600280546010906122cd908490600160801b90046001600160801b0316613e02565b92506101000a8154816001600160801b0302191690836001600160801b031602179055505050565b6122ab61222f826000612c4d565b600c6020527f13649b2456f1b42fef0f0040b3aaeabcd21a76a0f3f5defd4f583839455116e854600654600360f81b60009081527fe33c7a20958276ce9529c827d1e1b38c61245a6a2cb39f13852cf96fd6f7333d549091612370916001600160801b0390911690613dd8565b9050600061237e8284613d82565b9050600061238e611300866123ea565b9050600061239d858385611d7f565b90506000806123ab88612c6b565b9050828111156123c2576123bf8382613dd8565b91505b60008211806123cf575083155b156123e0576123e082858789612d0e565b5050505050505050565b61244760405180610160016040528060008152602001600081526020016000815260200160008152602001600081526020016000815260200160008152602001600081526020016000815260200160008152602001600081525090565b60408051610160810182526001546001600160801b038082168352600254600f0b6020840152600160801b909104811692820192909252606081018490527f000000000000000000000000000000000000000000000000000000000000000060808201527f000000000000000000000000000000000000000000000000000000000000000060a08201527f000000000000000000000000000000000000000000000000000000000000000060c0820152600354821660e082015260045490916101008301916125169116612dfc565b81526003546001600160801b03600160801b918290048116602084015260045460409093019261254892900416612dfc565b905292915050565b60008061257083610140015184610120015161109190919063ffffffff16565b61010084015160e085015161258491611091565b61258e9190613ea3565b905060006125a484600001518560200151612e72565b905060008213156126445760006125e68286604001518760a001518860c00151670de0b6b3a76400006125d79190613dd8565b89606001518a60800151612e8f565b90506125f28184612f29565b9050801561263e5761262b828660400151838860c00151670de0b6b3a764000061261c9190613dd8565b89606001518a60800151612f38565b8551869061263a908390613dd8565b9052505b50612700565b60008212156127005761265682613ec3565b9150600061268a8286604001518760c00151670de0b6b3a764000061267b9190613dd8565b88606001518960800151612f6c565b90506126968184612f29565b905080156126e2576126cf828660400151838860c00151670de0b6b3a76400006126c09190613dd8565b89606001518a60800151613002565b855186906126de908390613d82565b9052505b6126ec8184613dd8565b855186906126fb908390613d82565b905250505b600061272f856101000151670de0b6b3a764000061271e9190613dd8565b606087015160e08801519190611d7f565b61275d866101400151670de0b6b3a764000061274b9190613dd8565b60608801516101208901519190611d7f565b6127679190613ea3565b9050600081866000015161277b9190613edf565b90508560a001518112156127a25760405163aeeb825d60e01b815260040160405180910390fd5b80865260a08601516127b49082613dd8565b9695505050505050565b60006110a683670de0b6b3a764000084611d7f565b6001546002546000916110e5916001600160801b0390911690600f0b612e72565b600061281587878761280e88670de0b6b3a7640000613dd8565b8787613097565b979650505050505050565b600061283782612831858888611d7f565b9061312b565b95945050505050565b60006110a661286c670de0b6b3a764000061285b8187613182565b6128659190613dd8565b8490613197565b61287e90670de0b6b3a7640000613d82565b670de0b6b3a7640000906127be565b60008061290b8561289c6127d3565b6128a69190613d82565b6001546128c4908790600160801b90046001600160801b0316613dd8565b7f00000000000000000000000000000000000000000000000000000000000000007f0000000000000000000000000000000000000000000000000000000000000000612820565b909210949350505050565b6000806129608561130585817f0000000000000000000000000000000000000000000000000000000000000000670de0b6b3a7640000612956818c6127be565b6113059190613dd8565b915061298c827f0000000000000000000000000000000000000000000000000000000000000000611091565b9050935093915050565b600081156129d6576129cf6129ab8487613d82565b6129b58587611091565b6129bf888a611091565b6129c99190613d82565b90613182565b9050612837565b8285036129e557506000612837565b6127b46129f28487613dd8565b6129fc8587611091565b612a06888a611091565b6129c99190613dd8565b6000612a3c7f000000000000000000000000000000000000000000000000000000000000000083611091565b6002546001546001600160801b03600160801b9092048216600f0b91612a63911685611091565b612a6d9190613ea3565b121592915050565b6000612815878787612a8f88670de0b6b3a7640000613dd8565b8787612f38565b600080808080612ae88887612ae18c611305612aba8d670de0b6b3a7640000613dd8565b7f000000000000000000000000000000000000000000000000000000000000000090611091565b9190611d7f565b9450612b14857f0000000000000000000000000000000000000000000000000000000000000000611091565b92506000612b35612b2d8a670de0b6b3a7640000613dd8565b8b9089611d7f565b9050612b61817f0000000000000000000000000000000000000000000000000000000000000000611091565b9450612b8d857f0000000000000000000000000000000000000000000000000000000000000000611091565b9250612b998385613d82565b915050945094509450945094565b6000818311612bb657816110a6565b5090919050565b600080612bd685612bce8887613197565b8a9190611d7f565b9050612be3888486611d7f565b612bed9082613d82565b905086811115612c0457612c018782613dd8565b91505b509695505050505050565b600060016001607f1b03198212801590612c30575060016001607f1b038213155b611dc35760405163a5353be560e01b815260040160405180910390fd5b6000818313612bb657816110a6565b60008183136106cc57826110a6565b6002546000908190612c8d90600160801b90046001600160801b0316846127be565b9050612cb97f000000000000000000000000000000000000000000000000000000000000000082613d82565b6001546001600160801b031611156106cc576001547f000000000000000000000000000000000000000000000000000000000000000090612d049083906001600160801b0316613dd8565b61187b9190613dd8565b6000808411612d1d5782612d28565b612d28838686611d7f565b905080600003612d38575061076b565b808583821115612d5357839150612d50878385611d7f565b90505b612d5c82611d9d565b60068054600090612d779084906001600160801b0316613e02565b92506101000a8154816001600160801b0302191690836001600160801b03160217905550612da481611d9d565b60068054601090612dc6908490600160801b90046001600160801b0316613e02565b92506101000a8154816001600160801b0302191690836001600160801b0316021790555061063481612df790613ec3565b6131ac565b600080670de0b6b3a7640000612e106110af565b612e1a9190613deb565b9050808311612e2a576000612e34565b612e348184613dd8565b915061187b612e6b670de0b6b3a76400007f0000000000000000000000000000000000000000000000000000000000000000613deb565b83906127be565b600080612e7f8385613ea3565b905060008112156110a657600080fd5b600080612e9f888887878761332e565b90506000612ebc612eb487612831878b613197565b86908661335d565b612ec69083613dd8565b9050670de0b6b3a76400008110612efa57612ef3612eec670de0b6b3a7640000886127be565b829061312b565b9050612f12565b612f0f612eec670de0b6b3a764000088613182565b90505b612f1c8882613dd8565b9998505050505050505050565b60008183116106cc57826110a6565b600080612f49888888888888613383565b909250905080612c0457604051637ac17d2560e01b815260040160405180910390fd5b600080612f7c8787878787613445565b90506000612fa7670de0b6b3a7640000612f9687876127be565b612fa09190613d82565b8390613182565b9050670de0b6b3a76400008110612fd457612fcd612eec670de0b6b3a764000088613182565b9050612fec565b612fe9612eec670de0b6b3a7640000886127be565b90505b612ff68188613dd8565b98975050505050505050565b6000806130128888878787613445565b905061302285612831888a613dd8565b9650600061303c84866130358b86613dd8565b919061335d565b9050670de0b6b3a7640000811061306957613062612eec670de0b6b3a764000088613182565b9050613081565b61307e612eec670de0b6b3a7640000886127be565b90505b61308b8185613182565b9050612f1c8982613dd8565b6000806130a78888878787613445565b90506130c1856128316130ba898c613d82565b8690611091565b97506130ce848985611d7f565b975060006130dc8983613dd8565b9050670de0b6b3a7640000811061310957613102612eec670de0b6b3a764000088613182565b9050613121565b61311e612eec670de0b6b3a7640000886127be565b90505b612f1c8189613dd8565b6000816000036131445750670de0b6b3a76400006110a9565b82600003613154575060006110a9565b8160006131608561346a565b9050818102613177670de0b6b3a764000082613f07565b90506127b48161367d565b60006110a683670de0b6b3a76400008461335d565b60006110a68383670de0b6b3a764000061335d565b806000036131b75750565b6001546001600160801b03167f00000000000000000000000000000000000000000000000000000000000000008110156132045760405163585fe6df60e11b815260040160405180910390fd5b60006132108383613edf565b90507f00000000000000000000000000000000000000000000000000000000000000008112156132535760405163585fe6df60e11b815260040160405180910390fd5b61325c81611d9d565b600180546001600160801b0319166001600160801b0392909216919091179055600254600090600f0b81811261329e57613297838286611d7f565b91506132be565b6132b26132aa82613ec3565b849086611d7f565b6132bb90613ec3565b91505b6132c782612c0f565b600280546001600160801b0319166001600160801b0392831617905560015461330a916115af91600160801b9004166133008785612e72565b612ae18787612e72565b600180546001600160801b03928316600160801b0292169190911790555050505050565b600061333a858561312b565b61335361334b86612831868b611091565b859085611d7f565b6127b49190613d82565b600082600019048411830215820261337457600080fd5b50910281810615159190040190565b60008060006133958989888888613445565b90506133a586612831898b613d82565b9750878110156133bc57600080925092505061343a565b60006133cd85876130358c86613dd8565b9050670de0b6b3a764000081106133fa576133f3612eec670de0b6b3a764000089613182565b9050613412565b61340f612eec670de0b6b3a7640000896127be565b90505b61341c8186613182565b9050808a111561343357613430818b613dd8565b93505b6001925050505b965096945050505050565b6000613451858561312b565b61335361346286612831868b613197565b85908561335d565b600080821361348c57604051636838feed60e11b815260040160405180910390fd5b5060606001600160801b03821160071b82811c67ffffffffffffffff1060061b1782811c63ffffffff1060051b1782811c61ffff1060041b1782811c60ff10600390811b90911783811c600f1060021b1783811c909110600190811b90911783811c90911017609f81810383019390931b90921c6c465772b2bbbb5f824b15207a3081018102821d6d0388eaa27412d5aca026815d636e018102821d6d0df99ac502031bf953eff472fdcc018102821d6d13cdffb29d51d99322bdff5f2211018102821d6d0a0f742023def783a307a986912e018102821d6d01920d8043ca89b5239253284e42018102821d6c0b7a86d7375468fac667a0a527016c29508e458543d8aa4df2abee7882018202831d6d0139601a2efabe717e604cbb4894018202831d6d02247f7a7b6594320649aa03aba1018202831d6c8c3f38e95a6b1ff2ab1c3b343619018202831d6d02384773bdf1ac5676facced60901901820290921d6cb9a025d814b29c212b8b1a07cd190102780a09507084cc699bb0e71ea869ffffffffffffffffffffffff190105711340daa0d5f769dba1915cef59f0815a550602605f19919091017d0267a36c0c95b3975ab3ee5b203a7614a3f75373f047d803ae7b6687f2b302017d57115e47018c7177eebf7cd370a3356a1b7863008a5ae8028c72b88642840160ae1d90565b6000680248ce36a70cb26b3e19821361369857506000919050565b680755bf798b4a1bf1e582126136c15760405163df92cc9d60e01b815260040160405180910390fd5b6503782dace9d9604e83901b059150600060606bb17217f7d1cf79abc9e3b39884821b056001605f1b01901d6bb17217f7d1cf79abc9e3b39881029093036c240c330e9fb2d9cbaf0fd5aafb1981018102606090811d6d0277594991cfc85f6e2461837cd9018202811d6d1a521255e34f6a5061b25ef1c9c319018202811d6db1bbb201f443cf962f1a1d3db4a5018202811d6e02c72388d9f74f51a9331fed693f1419018202811d6e05180bb14799ab47a8a8cb2a527d57016d02d16720577bd19bf614176fe9ea6c10fe68e7fd37d0007b713f765084018402831d9081019084016d01d3967ed30fc4f89c02bab5708119010290911d6e0587f503bb6ea29d25fcb740196450019091026d360d7aeea093263ecc6e0ecb291760621b010574029d9dc38563c32e5c2f6dc192ee70ef65f9978af30260c3939093039290921c92915050565b8183823760009101908152919050565b805160208201516001600160e01b031980821692919060048310156138475780818460040360031b1b83161693505b505050919050565b634e487b7160e01b600052604160045260246000fd5b6000602080838503121561387857600080fd5b825167ffffffffffffffff8082111561389057600080fd5b818501915085601f8301126138a457600080fd5b8151818111156138b6576138b661384f565b604051601f8201601f19908116603f011681019083821181831017156138de576138de61384f565b8160405282815288868487010111156138f657600080fd5b600093505b8284101561391857848401860151818501870152928501926138fb565b600086848301015280965050505050505092915050565b6001600160a01b038116811461394457600080fd5b50565b60006020828403121561395957600080fd5b81356110a68161392f565b8035801515811461397457600080fd5b919050565b60006020828403121561398b57600080fd5b6110a682613964565b6000606082840312156106cc57600080fd5b6000806000606084860312156139bb57600080fd5b8335925060208401359150604084013567ffffffffffffffff8111156139e057600080fd5b6139ec86828701613994565b9150509250925092565b60008083601f840112613a0857600080fd5b50813567ffffffffffffffff811115613a2057600080fd5b6020830191508360208260051b850101111561108a57600080fd5b60008060008060008060808789031215613a5457600080fd5b8635613a5f8161392f565b95506020870135613a6f8161392f565b9450604087013567ffffffffffffffff80821115613a8c57600080fd5b613a988a838b016139f6565b90965094506060890135915080821115613ab157600080fd5b50613abe89828a016139f6565b979a9699509497509295939492505050565b60008060008060808587031215613ae657600080fd5b843593506020850135613af88161392f565b92506040850135613b088161392f565b9396929550929360600135925050565b60008060008060808587031215613b2e57600080fd5b843593506020850135925060408501359150606085013567ffffffffffffffff811115613b5a57600080fd5b613b6687828801613994565b91505092959194509250565b600060208284031215613b8457600080fd5b813567ffffffffffffffff811115613b9b57600080fd5b613ba784828501613994565b949350505050565b60008060008060808587031215613bc557600080fd5b843593506020850135613bd78161392f565b9250604085013591506060850135613bee8161392f565b939692955090935050565b60008060408385031215613c0c57600080fd5b8235613c178161392f565b915061108760208401613964565b600080600080600080600060e0888a031215613c4057600080fd5b8735613c4b8161392f565b96506020880135613c5b8161392f565b9550613c6960408901613964565b945060608801359350608088013560ff81168114613c8657600080fd5b9699959850939692959460a0840135945060c09093013592915050565b600080600060608486031215613cb857600080fd5b833592506020840135613cca8161392f565b929592945050506040919091013590565b600080600080600060a08688031215613cf357600080fd5b853594506020860135613d058161392f565b93506040860135613d158161392f565b9250606086013591506080860135613d2c8161392f565b809150509295509295909350565b600060208284031215613d4c57600080fd5b5035919050565b634e487b7160e01b600052601160045260246000fd5b600060018201613d7b57613d7b613d53565b5060010190565b808201808211156110a9576110a9613d53565b600060208284031215613da757600080fd5b5051919050565b634e487b7160e01b600052601260045260246000fd5b600082613dd357613dd3613dae565b500690565b818103818111156110a9576110a9613d53565b80820281158282048414176110a9576110a9613d53565b6001600160801b03818116838216019080821115613e2257613e22613d53565b5092915050565b6001600160801b03828116828216039080821115613e2257613e22613d53565b600f81810b9083900b0160016001607f1b03811360016001607f1b0319821217156110a9576110a9613d53565b600f82810b9082900b0360016001607f1b0319811260016001607f1b03821317156110a9576110a9613d53565b8181036000831280158383131683831282161715613e2257613e22613d53565b6000600160ff1b8201613ed857613ed8613d53565b5060000390565b8082018281126000831280158216821582161715613eff57613eff613d53565b505092915050565b600082613f1657613f16613dae565b600160ff1b821460001984141615613f3057613f30613d53565b50059056fea2646970667358221220a635c9ab84acb0e8ed6dd4a0264777b75d22a7efd0a17ec2ff76cf13528983ad64736f6c63430008130033a2646970667358221220c82fd1e26d67ad9a9839170a33799950691b4e44441412021c6db32139702eba64736f6c63430008130033",
    "linkReferences": {}
  },
  "methodIdentifiers": {
    "deploy((address,address,bytes32,uint256,uint256,uint256,uint256,uint256,uint256,uint256,address,address,(uint256,uint256,uint256)),address,address,bytes32[],address)": "7a77fb8f"
  },
  "id": 7
}