{"abi":[{"type":"function","name":"deploy","inputs":[{"name":"_config","type":"tuple","internalType":"struct IHyperdrive.PoolConfig","components":[{"name":"baseToken","type":"address","internalType":"contract IERC20"},{"name":"vaultSharesToken","type":"address","internalType":"contract IERC20"},{"name":"linkerFactory","type":"address","internalType":"address"},{"name":"linkerCodeHash","type":"bytes32","internalType":"bytes32"},{"name":"initialVaultSharePrice","type":"uint256","internalType":"uint256"},{"name":"minimumShareReserves","type":"uint256","internalType":"uint256"},{"name":"minimumTransactionAmount","type":"uint256","internalType":"uint256"},{"name":"positionDuration","type":"uint256","internalType":"uint256"},{"name":"checkpointDuration","type":"uint256","internalType":"uint256"},{"name":"timeStretch","type":"uint256","internalType":"uint256"},{"name":"governance","type":"address","internalType":"address"},{"name":"feeCollector","type":"address","internalType":"address"},{"name":"sweepCollector","type":"address","internalType":"address"},{"name":"fees","type":"tuple","internalType":"struct IHyperdrive.Fees","components":[{"name":"curve","type":"uint256","internalType":"uint256"},{"name":"flat","type":"uint256","internalType":"uint256"},{"name":"governanceLP","type":"uint256","internalType":"uint256"},{"name":"governanceZombie","type":"uint256","internalType":"uint256"}]}]},{"name":"","type":"bytes","internalType":"bytes"},{"name":"_salt","type":"bytes32","internalType":"bytes32"}],"outputs":[{"name":"","type":"address","internalType":"address"}],"stateMutability":"nonpayable"}],"bytecode":{"object":"0x608060405234801561001057600080fd5b50615262806100206000396000f3fe608060405234801561001057600080fd5b506004361061002b5760003560e01c8063195d4bfc14610030575b600080fd5b61004361003e366004610227565b61005f565b6040516001600160a01b03909116815260200160405180910390f35b604080513360208201529081018290526000906060016040516020818303038152906040528051906020012084604051610098906100cb565b6100a29190610351565b8190604051809103906000f59050801580156100c2573d6000803e3d6000fd5b50949350505050565b614dc88061046583390190565b634e487b7160e01b600052604160045260246000fd5b6040516101c0810167ffffffffffffffff81118282101715610112576101126100d8565b60405290565b80356001600160a01b038116811461012f57600080fd5b919050565b60006080828403121561014657600080fd5b6040516080810181811067ffffffffffffffff82111715610169576101696100d8565b8060405250809150823581526020830135602082015260408301356040820152606083013560608201525092915050565b600082601f8301126101ab57600080fd5b813567ffffffffffffffff808211156101c6576101c66100d8565b604051601f8301601f19908116603f011681019082821181831017156101ee576101ee6100d8565b8160405283815286602085880101111561020757600080fd5b836020870160208301376000602085830101528094505050505092915050565b600080600083850361026081121561023e57600080fd5b6102208082121561024e57600080fd5b6102566100ee565b915061026186610118565b825261026f60208701610118565b602083015261028060408701610118565b6040830152606086013560608301526080860135608083015260a086013560a083015260c086013560c083015260e086013560e08301526101008087013581840152506101208087013581840152506101406102dd818801610118565b908301526101606102ef878201610118565b90830152610180610301878201610118565b908301526101a061031488888301610134565b9083015290935084013567ffffffffffffffff81111561033357600080fd5b61033f8682870161019a565b92505061024084013590509250925092565b81516001600160a01b031681526102208101602083015161037d60208401826001600160a01b03169052565b50604083015161039860408401826001600160a01b03169052565b50606083015160608301526080830151608083015260a083015160a083015260c083015160c083015260e083015160e0830152610100808401518184015250610120808401518184015250610140808401516103fe828501826001600160a01b03169052565b5050610160838101516001600160a01b038116848301525050610180838101516001600160a01b0381168483015250506101a08381015180518483015260208101516101c085015260408101516101e0850152606081015161020085015250509291505056fe6102406040523480156200001257600080fd5b5060405162004dc838038062004dc88339810160408190526200003591620001e1565b600160005580516001600160a01b039081166080908152602080840151831660a0908152918401516101a0908152918401516101c05260c0808501516101e0526101008086015190915260e0808601519052610120808601519091529184018051519092528151015161014090815281516040908101516101609081529251606090810151610180908152918601518516610200528501516102205290840151600a80546001600160a01b03199081169286169290921790559184015160088054841691851691909117905590920151600980549093169116179055620002d4565b6040516101c081016001600160401b03811182821017156200014957634e487b7160e01b600052604160045260246000fd5b60405290565b80516001600160a01b03811681146200016757600080fd5b919050565b6000608082840312156200017f57600080fd5b604051608081016001600160401b0381118282101715620001b057634e487b7160e01b600052604160045260246000fd5b8060405250809150825181526020830151602082015260408301516040820152606083015160608201525092915050565b60006102208284031215620001f557600080fd5b620001ff62000117565b6200020a836200014f565b81526200021a602084016200014f565b60208201526200022d604084016200014f565b6040820152606083015160608201526080830151608082015260a083015160a082015260c083015160c082015260e083015160e08201526101008084015181830152506101208084015181830152506101406200028c8185016200014f565b90820152610160620002a08482016200014f565b90820152610180620002b48482016200014f565b908201526101a0620002c9858583016200016c565b908201529392505050565b60805160a05160c05160e05161010051610120516101405161016051610180516101a0516101c0516101e05161020051610220516149726200045660003960005050600050506000818161048401526125eb0152600081816101fd015281816102540152818161033b01528181611486015281816114c20152818161175d01528181611cb501528181611d18015281816124f001526125c50152600081816102aa0152818161101c0152818161106401528181611184015261259f015260006118fe015260008181611a2401526123d9015260008181610a45015281816110d701526119f80152600081816110b601526123950152600081816102ed01528181610ffa01528181611085015281816111a501526126110152600081816102cc0152818161055001528181610980015261360401526000818161013f01528181610826015281816108b301526109180152600081816113f10152818161206f015281816120e9015261217801526000818161204201526120a301526149726000f3fe6080604052600436106100345760003560e01c8063414f826d1461003957806377d05ff41461005b578063cba2e58d14610081575b600080fd5b34801561004557600080fd5b5061005961005436600461459c565b6100a9565b005b61006e6100693660046145d0565b6100b7565b6040519081526020015b60405180910390f35b61009461008f366004614620565b6100ce565b60408051928352602083019190915201610078565b6100b382826100eb565b5050565b60006100c48484846101a7565b90505b9392505050565b6000806100dd8686868661041d565b915091505b94509492505050565b6100f3610651565b60006100fd61067b565b6000848152600760205260409020549091506001600160801b03161561012e576101278183610693565b505061019d565b600061013861081f565b90506101647f000000000000000000000000000000000000000000000000000000000000000085614690565b15158061017057508381105b1561018e5760405163ecd29e8160e01b815260040160405180910390fd5b610199848385610855565b5050505b6100b36001600055565b60006101b1610651565b6101b9610ce8565b6101c282610d09565b60055460ff16156101e657604051637983c05160e01b815260040160405180910390fd5b6000806101f38685610d42565b90925090506102237f000000000000000000000000000000000000000000000000000000000000000060026146ba565b82101561024357604051632afb507160e21b815260040160405180910390fd5b6005805460ff1916600117905560027f0000000000000000000000000000000000000000000000000000000000000000028203925061028182610e1b565b600180546001600160801b0319166001600160801b0392909216919091179055610316610311837f0000000000000000000000000000000000000000000000000000000000000000887f00000000000000000000000000000000000000000000000000000000000000007f0000000000000000000000000000000000000000000000000000000000000000610e49565b610e1b565b600180546001600160801b03928316600160801b02921691909117905561035f6000807f0000000000000000000000000000000000000000000000000000000000000000610ee8565b610377600061037160208701876146d1565b85610ee8565b61038a61038261081f565b826004610855565b506000610398878387610f90565b90506103a760208601866146d1565b6001600160a01b03167fdfe2bf9f580df5ec15438120ffa6f0603237c4e6b65d07140a4695317da4f9528583866103e460408b0160208c01614708565b60408051948552602085019390935291830152151560608201526080810189905260a00160405180910390a25050506100c76001600055565b600080610428610651565b600554610100900460ff1615610451576040516321081abf60e01b815260040160405180910390fd5b610459610ce8565b61046283610d09565b60008061046f8886610d42565b909250905060006104808383610fbf565b90507f00000000000000000000000000000000000000000000000000000000000000008110156104c35760405163211ddda360e11b815260040160405180910390fd5b868210156104e4576040516342af972b60e01b815260040160405180910390fd5b60006104ee61081f565b90506104fc81846004610855565b5060008061050a8686610fd4565b90985090925090508a8710156105335760405163c972651760e01b815260040160405180910390fd5b80600b60008282546105459190614725565b9091555061057590507f000000000000000000000000000000000000000000000000000000000000000084614725565b97506105838288878b6111e1565b600061059060018a61137b565b90506105a9816105a360208d018d6146d1565b8a610ee8565b8c8989888d856105bc60208301836146d1565b6001600160a01b03167f88087800d03445c97e2009f3f90906bf6ede79bbd194e275c66224e977a5b84c866105f2898787610f90565b6105fd8a88886113b0565b61060d6040880160208901614708565b60408051948552602085019390935291830152151560608201526080810187905260a00160405180910390a350909a50505050505050505050506100e26001600055565b60026000540361067457604051633ee5aeb560e01b815260040160405180910390fd5b6002600055565b600061068e670de0b6b3a76400006113d8565b905090565b600654600360f81b6000908152600e6020527fd2d06a3478833ecfcc0864e3afb188a7ff21caef68ea336a6e4f79f78f6fb3e954909182916106de916001600160801b031690614738565b9050806000036106f2576001915050610819565b60006106fd85611464565b90508060000361071257600192505050610819565b600080610720838589611509565b9150915080610736576000945050505050610819565b6000806107438489611616565b9150915061076161075382611706565b61075c9061474b565b611730565b9250826107775760009650505050505050610819565b61078082610e1b565b6006805460009061079b9084906001600160801b0316614767565b92506101000a8154816001600160801b0302191690836001600160801b031602179055506107c881610e1b565b600680546010906107ea908490600160801b90046001600160801b0316614767565b92506101000a8154816001600160801b0302191690836001600160801b03160217905550600196505050505050505b92915050565b600061084b7f000000000000000000000000000000000000000000000000000000000000000042614690565b61068e9042614738565b600083815260076020526040812080546001600160801b031615158061087a57504285115b1561089057546001600160801b031690506100c7565b60008061089b61081f565b90508087036108ac57859150610946565b60006108d87f000000000000000000000000000000000000000000000000000000000000000089614725565b90505b6000818152600760205260409020546001600160801b031692508181148015610902575082155b1561090b578692505b826000036109445761093d7f000000000000000000000000000000000000000000000000000000000000000082614725565b90506108db565b505b61094f82610e1b565b83546001600160801b0319166001600160801b03919091161783556109738661183d565b50600090506007816109a57f00000000000000000000000000000000000000000000000000000000000000008b614738565b815260208101919091526040016000908120546001600160801b031691506109ce60028a61137b565b6000818152600e60205260408120549192508a8a8315610b1457600192506000806109fd86898c8660006119e1565b9150915080600b6000828254610a139190614725565b90915550610a2f905086600084610a2981611706565b88611ab0565b610a398183614725565b9150610a6986838a8d877f0000000000000000000000000000000000000000000000000000000000000000611c2a565b9150610a7d610a788385610fbf565b611c74565b60058054600290610a9e9084906201000090046001600160701b0316614787565b92506101000a8154816001600160701b0302191690836001600160701b03160217905550610acb82610e1b565b60058054601090610aed908490600160801b90046001600160801b0316614767565b92506101000a8154816001600160801b0302191690836001600160801b0316021790555050505b6000610b2160018461137b565b6000818152600e60205260409020549091508015610c305760019450600080610b4e838b8e8860016119e1565b9150915080600b6000828254610b649190614725565b90915550610b80905083600084610b7a81611706565b8a611c9e565b610b8a8183614738565b9150610b99610a788387610fbf565b60058054600290610bba9084906201000090046001600160701b0316614787565b92506101000a8154816001600160701b0302191690836001600160701b03160217905550610be782610e1b565b60058054601090610c09908490600160801b90046001600160801b0316614767565b92506101000a8154816001600160801b0302191690836001600160801b0316021790555050505b8415610c6857610c5c610c4287611706565b610c4b83611706565b610c5591906147a7565b6000611e8f565b610c668e8e610693565b505b6000610c738f611f42565b5090508f7fff888cf98d2696e95c8c39aa98c9ad55a5378008f7a56614c9353b7137a57ab78c868a8686604051610ccc959493929190948552602085019390935260408401919091526060830152608082015260a00190565b60405180910390a250989e9d5050505050505050505050505050565b3415610d0757604051631574f9f360e01b815260040160405180910390fd5b565b6000610d1860208301836146d1565b6001600160a01b031603610d3f5760405163f0dd15fd60e01b815260040160405180910390fd5b50565b60008080610d566040850160208601614708565b15610d7b57610d7185610d6c60408701876147c7565b612032565b9093509050610d97565b5034610d9385610d8e60408701876147c7565b61216b565b8492505b610d9f61067b565b91508015610e1257604051600090339083908381818185875af1925050503d8060008114610de9576040519150601f19603f3d011682016040523d82523d6000602084013e610dee565b606091505b5050905080610e10576040516312171d8360e31b815260040160405180910390fd5b505b505b9250929050565b60006001600160801b03821115610e4557604051630f0af95160e11b815260040160405180910390fd5b5090565b600080610e5a846301e133806121a0565b90506000610e688683610fbf565b610e7a90670de0b6b3a7640000614725565b9050670de0b6b3a76400008110610eae57610ea7610ea0670de0b6b3a7640000866121a0565b82906121b5565b9050610ec6565b610ec3610ea0670de0b6b3a76400008661222a565b90505b610eda81610ed4898b610fbf565b90610fbf565b925050505b95945050505050565b6000838152600d602090815260408083206001600160a01b038616845290915281208054839290610f1a908490614725565b90915550506000838152600e602052604081208054839290610f3d908490614725565b909155505060408051848152602081018390526001600160a01b0384169160009133917fc3d58168c5ae7397731d063d5bbf3d657854427343f4c083240f7aacaa2d0f62910160405180910390a4505050565b6000610fa26040830160208401614708565b15610fae5750826100c7565b610fb88484610fbf565b90506100c7565b60006100c78383670de0b6b3a764000061223f565b6000806000611040610fe461225d565b600154600160801b90046001600160801b0316877f0000000000000000000000000000000000000000000000000000000000000000887f000000000000000000000000000000000000000000000000000000000000000061227e565b915060006110a961104f61225d565b600154600160801b90046001600160801b03167f00000000000000000000000000000000000000000000000000000000000000007f00000000000000000000000000000000000000000000000000000000000000006122aa565b905061110086846110fb847f00000000000000000000000000000000000000000000000000000000000000007f00000000000000000000000000000000000000000000000000000000000000006122c1565b61232c565b1561110d5761110d61236e565b60008061111b888489612387565b909250905061112a8286614738565b945061113781848961223f565b93506111438489614738565b9550670de0b6b3a76400006111c98761115a61225d565b6111649190614725565b600154611182908990600160801b90046001600160801b0316614738565b7f00000000000000000000000000000000000000000000000000000000000000007f00000000000000000000000000000000000000000000000000000000000000006122aa565b11156111d7576111d761236e565b5050509250925092565b600254600160801b90046001600160801b03166112236103118261120d670de0b6b3a7640000866146ba565b6004546001600160801b03169190886001612407565b600480546001600160801b0319166001600160801b039290921691909117905561124c85610e1b565b600180546000906112679084906001600160801b0316614767565b92506101000a8154816001600160801b0302191690836001600160801b0316021790555061129484610e1b565b600180546010906112b6908490600160801b90046001600160801b031661480e565b92506101000a8154816001600160801b0302191690836001600160801b031602179055506112e384610e1b565b6112ed9082614767565b600280546001600160801b03808416600160801b02911617905590506000611314836124a5565b90506113328161132387611706565b61132d908461482e565b611e8f565b61133b846124e9565b6113475761134761236e565b600061135285612549565b90508061137257604051638bdf918d60e01b815260040160405180910390fd5b50505050505050565b60006001600160f81b038211156113a55760405163b7d0949760e01b815260040160405180910390fd5b5060f89190911b1790565b60006113c26040830160208401614708565b156113d157610fb884846121a0565b50826100c7565b6040516303d1689d60e11b8152600481018290526000907f00000000000000000000000000000000000000000000000000000000000000006001600160a01b0316906307a2d13a90602401602060405180830381865afa158015611440573d6000803e3d6000fd5b505050506040513d601f19601f820116820180604052508101906108199190614856565b600254600090819061147f906001600160801b03168461222a565b90506114ab7f000000000000000000000000000000000000000000000000000000000000000082614725565b6001546001600160801b03161115611503576001547f0000000000000000000000000000000000000000000000000000000000000000906114f69083906001600160801b0316614738565b6115009190614738565b91505b50919050565b6115116144e9565b60008061151d84612556565b9050600061152a82612690565b935090508261153f57506000915061160e9050565b6000611566611561846101600151856101400151610fbf90919063ffffffff16565b611706565b61158661156185610120015186610100015161271d90919063ffffffff16565b61159091906147a7565b604080516101208101825285815260208082019590955260008052600e85527fe710864318d4a32f37d6ce54cb3fadbef648dd12d8dbdf53973564d56b7f881c5481830152606081018a9052608081018b905260a0810192909252845160c08301529284015160e08201529290910151610100830152509150600190505b935093915050565b60008060008061162e8660c001518760e00151612732565b915091508061164557600080935093505050610e14565b6000611651878461276e565b92509050811580611660575080155b156116745760008094509450505050610e14565b6000611680888361287d565b90508060000361169a576000809550955050505050610e14565b876060015181116116b15794509250610e14915050565b50606087015160006116c58986858b61294e565b9050806000036116e057600080965096505050505050610e14565b8281106116f857600080965096505050505050610e14565b909890975095505050505050565b60006001600160ff1b03821115610e455760405163396ea70160e11b815260040160405180910390fd5b6001546003546000916001600160801b0380821692600f0b91600160801b900416838080806117828787877f00000000000000000000000000000000000000000000000000000000000000008d612e65565b93509350935093508061179e5750600098975050505050505050565b8684146117cf576117ae84610e1b565b600180546001600160801b0319166001600160801b03929092169190911790555b858314611800576117df83612f7d565b600380546001600160801b0319166001600160801b03929092169190911790555b84821461182e5761181082610e1b565b600180546001600160801b03928316600160801b0292169190911790555b50600198975050505050505050565b6005546000908190611860908490600160801b90046001600160801b0316610fbf565b6005546201000090046001600160701b031692509050818111156119dc57600061188a8383614738565b9050611899610311828661222a565b600580546010906118bb908490600160801b90046001600160801b031661480e565b92506101000a8154816001600160801b0302191690836001600160801b0316021790555060006118f485836121a090919063ffffffff16565b90506000611922827f0000000000000000000000000000000000000000000000000000000000000000610fbf565b905080600b60008282546119369190614725565b9091555061194690508183614738565b915061195182610e1b565b6001805460009061196c9084906001600160801b0316614767565b92506101000a8154816001600160801b0302191690836001600160801b0316021790555061199982612fb9565b600380546000906119ae908490600f0b61486f565b92506101000a8154816001600160801b030219169083600f0b6001600160801b031602179055508493505050505b915091565b6000806119ee87856121a0565b91506000611a1c837f0000000000000000000000000000000000000000000000000000000000000000610fbf565b9050611a48817f0000000000000000000000000000000000000000000000000000000000000000610fbf565b91508315611a6b57611a5a8282614738565b611a649084614738565b9250611a82565b611a758282614738565b611a7f9084614725565b92505b86861015611aa557611a9583878961223f565b9250611aa282878961223f565b91505b509550959350505050565b600354600160801b90046001600160801b0316611af961031182611adc670de0b6b3a7640000866146ba565b600454600160801b90046001600160801b031691908a6000612407565b600480546001600160801b03928316600160801b029216919091179055611b1f86610e1b565b611b29908261480e565b600380546001600160801b03928316600160801b029216919091179055611b4f84610e1b565b60018054600090611b6a9084906001600160801b0316614767565b92506101000a8154816001600160801b0302191690836001600160801b03160217905550611b9783612f7d565b60038054600090611bac908490600f0b61486f565b92506101000a8154816001600160801b030219169083600f0b6001600160801b03160217905550611bdc85610e1b565b60018054601090611bfe908490600160801b90046001600160801b031661480e565b92506101000a8154816001600160801b0302191690836001600160801b03160217905550505050505050565b600080611c4284611c3c8a888a61223f565b906121a0565b9050611c4f88848661223f565b611c599082614725565b905086811115611c695786810391505b509695505050505050565b60006001600160701b03821115610e455760405163086b151760e11b815260040160405180910390fd5b6001546001600160801b031683811080611ce057507f0000000000000000000000000000000000000000000000000000000000000000611cde8583614738565b105b15611ced57611ced61236e565b6003549084900390600f0b611d0284826147a7565b905083611d0e86611706565b138015611d4357507f0000000000000000000000000000000000000000000000000000000000000000611d418383612fe3565b105b15611d5057611d5061236e565b600254600160801b90046001600160801b0316611d9261031182611d7c670de0b6b3a7640000886146ba565b6004546001600160801b031691908c6000612407565b600480546001600160801b0319166001600160801b0392909216919091179055611dbc8882614738565b9050611dc781610e1b565b600280546001600160801b03928316600160801b029216919091179055611ded83610e1b565b600180546001600160801b0319166001600160801b0392909216919091179055611e1682612f7d565b600380546001600160801b0319166001600160801b0392909216919091179055611e3f87610e1b565b60018054601090611e61908490600160801b90046001600160801b0316614767565b92506101000a8154816001600160801b0302191690836001600160801b031602179055505050505050505050565b6000611eb8611e9e8483613009565b611ea9846000613009565b611eb391906147a7565b612f7d565b9050600081600f0b1315611f0d5760028054829190600090611ee49084906001600160801b0316614767565b92506101000a8154816001600160801b0302191690836001600160801b03160217905550505050565b600081600f0b1215611f3d57611f228161489c565b60028054600090611ee49084906001600160801b031661480e565b505050565b600080600080611f59611f5486612556565b612690565b9150915080611f6f575060009485945092505050565b6000808611611f7f576000611f89565b611f898387610fbf565b600654600e6020527fd2d06a3478833ecfcc0864e3afb188a7ff21caef68ea336a6e4f79f78f6fb3e95460008080527fe710864318d4a32f37d6ce54cb3fadbef648dd12d8dbdf53973564d56b7f881c54939450926001600160801b0390921691611ff49190614725565b611ffe9190614738565b9050806000036120175750600096879650945050505050565b600061202383836121a0565b98600198509650505050505050565b60008061206a6001600160a01b037f00000000000000000000000000000000000000000000000000000000000000001633308861301f565b6120ca7f0000000000000000000000000000000000000000000000000000000000000000612099876001614725565b6001600160a01b037f000000000000000000000000000000000000000000000000000000000000000016919061308c565b604051636e553f6560e01b8152600481018690523060248201526000907f00000000000000000000000000000000000000000000000000000000000000006001600160a01b031690636e553f65906044016020604051808303816000875af115801561213a573d6000803e3d6000fd5b505050506040513d601f19601f8201168201806040525081019061215e9190614856565b9660009650945050505050565b611f3d6001600160a01b037f00000000000000000000000000000000000000000000000000000000000000001633308661301f565b60006100c783670de0b6b3a76400008461223f565b6000816000036121ce5750670de0b6b3a7640000610819565b826000036121de57506000610819565b60006121e983611706565b905060006121fe6121f986611706565b61311c565b9050818102612215670de0b6b3a7640000826148c2565b905061222081613342565b9695505050505050565b60006100c783670de0b6b3a7640000846134d7565b600082600019048411830215820261225657600080fd5b5091020490565b60015460035460009161068e916001600160801b0390911690600f0b612fe3565b600061229f87878761229888670de0b6b3a7640000614738565b87876134fd565b979650505050505050565b6000610edf826122bb85888861223f565b906121b5565b60006100c46123086122db84670de0b6b3a7640000614738565b612302670de0b6b3a76400006122f1818a61222a565b6122fb9190614738565b879061271d565b9061271d565b61231a90670de0b6b3a7640000614725565b611c3c84670de0b6b3a7640000614738565b6000806123638561233b61225d565b6123459190614725565b600154611182908790600160801b90046001600160801b0316614738565b909210949350505050565b60405163bb55fd2760e01b815260040160405180910390fd5b6000806123d18561230285817f0000000000000000000000000000000000000000000000000000000000000000670de0b6b3a76400006123c7818c61222a565b6123029190614738565b91506123fd827f0000000000000000000000000000000000000000000000000000000000000000610fbf565b9050935093915050565b600082600003612418575084610edf565b811561246b5761244961242b8487614725565b6124358587610fbf565b61243f888a610fbf565b611c3c9190614725565b9050600061245785886135aa565b905080821015612465578091505b50610edf565b82850361247a57506000610edf565b6122206124878487614738565b612491858761271d565b61249b888a610fbf565b611c3c9190614738565b60006124cd600e60006124b960028661137b565b815260200190815260200160002054611706565b6124df600e60006124b960018761137b565b61081991906147a7565b60006125157f00000000000000000000000000000000000000000000000000000000000000008361271d565b60025461252b91906001600160801b0316614725565b600154612541906001600160801b031684610fbf565b101592915050565b6000610819826004610693565b61255e61453b565b60408051610180810182526001546001600160801b038082168352600354600f0b6020840152600160801b91829004811693830193909352606082018590527f000000000000000000000000000000000000000000000000000000000000000060808301527f000000000000000000000000000000000000000000000000000000000000000060a08301527f000000000000000000000000000000000000000000000000000000000000000060c08301527f000000000000000000000000000000000000000000000000000000000000000060e0830152600254048216610100820152600454909161012083019161265691166135b9565b81526003546001600160801b03600160801b9182900481166020840152600454604090930192612688929004166135b9565b905292915050565b60008060008060006126a18661362f565b91509150806126b857506000958695509350505050565b6126c58660a00151611706565b6126ce8761394f565b836126dc8960000151611706565b6126e6919061482e565b6126f0919061482e565b6126fa91906147a7565b9250505060008112156127135750600093849350915050565b9360019350915050565b60006100c78383670de0b6b3a76400006134d7565b60008060008361274186611706565b61274b91906147a7565b90506000811215612763576000809250925050610e14565b946001945092505050565b60008060008460a001511261278b57505060808201516001610e14565b60008460a0015161279b9061474b565b905060006127d785876101000151886000015160e00151670de0b6b3a76400006127c59190614738565b895160608101516080909101516139b3565b935090508215806127e6575080155b156127f957600080935093505050610e14565b6000612805838361222a565b9050670de0b6b3a764000081116128415780670de0b6b3a764000003945061283a8760c0015186610fbf90919063ffffffff16565b9450612850565b60008094509450505050610e14565b866080015185111561286f578660800151600194509450505050610e14565b506001925050509250929050565b6000806128b38460c001518560e00151866101000151876000015160a001516128a588611706565b6128ae9061474b565b612e65565b875160408101929092526020820192909252919091529050806128da576000915050610819565b60006128e98560000151612690565b92509050816128fd57600092505050610819565b8460200151811061291357600092505050610819565b6000856060015186604001516129299190614725565b90506129448287602001518361223f9092919063ffffffff16565b6122209082614738565b600080856060015186604001516129659190614725565b6020870151606088015191925060009161297f918461223f565b90508660a00151600003612996579150612e5d9050565b600080808960048810156129a957600497505b60005b88811015612d05576129be868b6135aa565b955060006129e78360c001518460e00151856101000151866000015160a001516128a58c611706565b86516040810192909252602082019290925291909152905080612a1557600098505050505050505050612e5d565b6000612a248e60000151612690565b9250905081612a3f5760009950505050505050505050612e5d565b612a4a84828b613a5f565b15612a6057879950505050505050505050612e5d565b60008460a001511315612bc957835180516020820151604083015160a084015160e090940151600094612ab494939291612aa290670de0b6b3a7640000614738565b8a516060810151608090910151613acb565b9350905082612ad05760009a5050505050505050505050612e5d565b808560a0015110612bc757612ae485613bd0565b909950925082612b015760009a5050505050505050505050612e5d565b612b268560c001518660e00151876101000151886000015160a001516128a58e611706565b88516040810192909252602082019290925291909152925082612b565760009a5050505050505050505050612e5d565b845180516020820151604083015160a084015160e090940151612b869490612aa290670de0b6b3a7640000614738565b9350905082612ba25760009a5050505050505050505050612e5d565b8e60a001518111612bbf57889a5050505050505050505050612e5d565b5050506129ac565b505b6000612bda858f8760a00151613ca6565b93509050821580612bf35750670de0b6b3a76400008110155b15612c0b5760009a5050505050505050505050612e5d565b80670de0b6b3a76400000390506000612c386115618760400151886020015161271d90919063ffffffff16565b612c45611561858e610fbf565b612c4f91906147a7565b9050881580612c6d5750612c6289614001565b612c6b82614001565b125b15612c7c578098508997508296505b6000811315612ca457612c938b611c3c83856121a0565b612c9d908b614725565b9950612cf6565b6000811215612ced576000612cbe8c611c3c85818661474b565b90508a811015612cd257808b039a50612ce7565b60009c50505050505050505050505050612e5d565b50612cf6565b50505050612d05565b846001019450505050506129ac565b506000612d2d8260c001518360e00151846101000151856000015160a001516128a58b611706565b85516040810192909252602082019290925291909152905080612d5a576000975050505050505050612e5d565b6000612d698360000151614019565b90506000612d8b6115618560400151866020015161271d90919063ffffffff16565b612d98611561848c610fbf565b612da291906147a7565b9050612dad87614001565b612db682614001565b1215612dc3578795508194505b612dea612dde655af3107a4000670de0b6b3a7640000614738565b6020860151908b6134d7565b6040850151612dfa9087906121a0565b1080612e3a5750612e28612e1c655af3107a4000670de0b6b3a7640000614725565b6020860151908b61223f565b6040850151612e3890879061222a565b115b15612e515760009950505050505050505050612e5d565b50939750505050505050505b949350505050565b60008060008084600003612e8457508792508691508590506001612f71565b600085612e908b611706565b612e9a919061482e565b9050612ea587611706565b811215612ec057600080600080945094509450945050612f71565b80945060008912612ee057612ed9611561868b8d61223f565b9350612f03565b612ef7611561612eef8b61474b565b87908d6134d7565b612f009061474b565b93505b600080612f108c8c612732565b9150915080612f2f576000806000809650965096509650505050612f71565b6000612f3b8888612732565b9250905081612f5b57600080600080975097509750975050505050612f71565b612f668b828561223f565b955060019450505050505b95509550955095915050565b600060016001607f1b0319821280612f9b575060016001607f1b0382135b15610e455760405163a5353be560e01b815260040160405180910390fd5b600060016001607f1b03821115610e455760405163a5353be560e01b815260040160405180910390fd5b600080612ff08484612732565b9092509050806130025761300261236e565b5092915050565b600081831361301857816100c7565b5090919050565b6040516001600160a01b0384811660248301528381166044830152606482018390526130869186918216906323b872dd906084015b604051602081830303815290604052915060e01b6020820180516001600160e01b038381831617835250505050614049565b50505050565b604080516001600160a01b038416602482015260448082018490528251808303909101815260649091019091526020810180516001600160e01b031663095ea7b360e01b1790526130dd84826140b1565b613086576040516001600160a01b0384811660248301526000604483015261311291869182169063095ea7b390606401613054565b6130868482614049565b600080821361313e5760405163e61b497560e01b815260040160405180910390fd5b506001600160801b03811160071b81811c67ffffffffffffffff1060061b1781811c63ffffffff1060051b1781811c61ffff1060041b1781811c60ff10600390811b90911782811c600f1060021b1782811c909110600190811b90911782811c90911017609f8181036060019290921b91605f198201906131c19084901c611706565b6c465772b2bbbb5f824b15207a3081018102606090811d6d0388eaa27412d5aca026815d636e018202811d6d0df99ac502031bf953eff472fdcc018202811d6d13cdffb29d51d99322bdff5f2211018202811d6d0a0f742023def783a307a986912e018202811d6d01920d8043ca89b5239253284e42018202811d6c0b7a86d7375468fac667a0a527016c29508e458543d8aa4df2abee7883018302821d6d0139601a2efabe717e604cbb4894018302821d6d02247f7a7b6594320649aa03aba1018302821d6c8c3f38e95a6b1ff2ab1c3b343619018302821d6d02384773bdf1ac5676facced60901901830290911d6cb9a025d814b29c212b8b1a07cd1901909102780a09507084cc699bb0e71ea869ffffffffffffffffffffffff190105711340daa0d5f769dba1915cef59f0815a5506027d0267a36c0c95b3975ab3ee5b203a7614a3f75373f047d803ae7b6687f2b391909102017d57115e47018c7177eebf7cd370a3356a1b7863008a5ae8028c72b88642840160ae1d92915050565b6000680248ce36a70cb26b3e19821361335d57506000919050565b680755bf798b4a1bf1e58212613386576040516373a2d6b160e01b815260040160405180910390fd5b6503782dace9d9604e83901b059150600060606bb17217f7d1cf79abc9e3b39884821b056001605f1b01901d6bb17217f7d1cf79abc9e3b3988102909303926c240c330e9fb2d9cbaf0fd5aafb1984018402606090811d6d0277594991cfc85f6e2461837cd9018502811d6d1a521255e34f6a5061b25ef1c9c319018502811d6db1bbb201f443cf962f1a1d3db4a5018502811d6e02c72388d9f74f51a9331fed693f1419018502811d6e05180bb14799ab47a8a8cb2a527d57016d02d16720577bd19bf614176fe9ea6c10fe68e7fd37d0007b713f765087018702831d9081019087016d01d3967ed30fc4f89c02bab570811901810290921d6e0587f503bb6ea29d25fcb7401964500186026d360d7aeea093263ecc6e0ecb291760621b01818105955092935090919061222074029d9dc38563c32e5c2f6dc192ee70ef65f9978af3860260c38690031c611706565b60008260001904841183021582026134ee57600080fd5b50910281810615159190040190565b60008061350d8888878787614154565b9050613527856122bb613520898c614725565b8690610fbf565b975061353484898561223f565b9750878110156135465761354661236e565b878103670de0b6b3a764000081106135745761356d610ea0670de0b6b3a76400008861222a565b905061358c565b613589610ea0670de0b6b3a7640000886121a0565b90505b8088101561359c5761359c61236e565b909603979650505050505050565b600081831161150357826100c7565b600080670de0b6b3a76400006135cd61081f565b6135d791906146ba565b90508083116135e75760006135f1565b6135f18184614738565b9150611500613628670de0b6b3a76400007f00000000000000000000000000000000000000000000000000000000000000006146ba565b83906121a0565b6000806000613654611561856101600151866101400151610fbf90919063ffffffff16565b61367461156186610120015187610100015161271d90919063ffffffff16565b61367e91906147a7565b905060008061369586600001518760200151612732565b91509150806136ac57506000958695509350505050565b60008313156137ed57600083905060006136fa886000015189602001518a604001518b60a001518c60e00151670de0b6b3a76400006136eb9190614738565b8d606001518e60800151613acb565b9350905082613713575060009788975095505050505050565b8181106137b157600061374d858a60400151858c60e00151670de0b6b3a764000061373e9190614738565b8d606001518e60800151614183565b945090508315801561376257508860c0015183105b156137795750600098600198509650505050505050565b8361378f57506000988998509650505050505050565b61379881611706565b6137a19061474b565b9960019950975050505050505050565b60008860200151126137d9576137d08860a00151856115619190614738565b6120239061474b565b60a088015188516137d09161156191614738565b60008312156139405760006138018461474b565b905060006138358489604001518a60e00151670de0b6b3a76400006138269190614738565b8b606001518c608001516139b3565b935090508261384e575060009788975095505050505050565b8181106138d3576000613888858a60400151858c60e00151670de0b6b3a76400006138799190614738565b8d606001518e60800151614246565b945090508315801561389d57508860c0015183105b156138b45750600098600198509650505050505050565b836138ca57506000988998509650505050505050565b6137a181611706565b6000613905858a604001518b60e00151670de0b6b3a76400006138f69190614738565b8c606001518d6080015161431d565b945090508361391f57506000988998509650505050505050565b6137a16139368a606001518486611c3c9190614738565b6115619083614725565b50600095600195509350505050565b6000613982611561836101200151670de0b6b3a76400006139709190614738565b606085015161010086015191906134d7565b6124df611561846101600151670de0b6b3a76400006139a19190614738565b6060860151610140870151919061223f565b60008060006139c58888888888614154565b905060006139f0670de0b6b3a76400006139df88886121a0565b6139e99190614725565b839061222a565b9050670de0b6b3a76400008110613a1d57613a16610ea0670de0b6b3a76400008961222a565b9050613a35565b613a32610ea0670de0b6b3a7640000896121a0565b90505b80881015613a4b57600080935093505050613a55565b8703925060019150505b9550959350505050565b6020830151600090613a71908461222a565b6040850151613a819084906121a0565b101580156100c457506020840151613ab19084613aaa633b9aca00670de0b6b3a7640000614725565b919061223f565b6040850151613ac190849061222a565b1115949350505050565b6000806000881215613aed57613ae08861474b565b613aea9087614725565b95505b600080613afa8b8b612732565b9150915080613b1157600080935093505050613bc4565b6000613b20838b8a8a8a6143cc565b90506000613b3d613b358a6122bb8a8e61271d565b8990896134d7565b905080821015613b57576000809550955050505050613bc4565b808203670de0b6b3a76400008110613b8557613b7e610ea0670de0b6b3a76400008c6121a0565b9050613b9d565b613b9a610ea0670de0b6b3a76400008c61222a565b90505b8b811015613bb657600080965096505050505050613bc4565b8b9003955060019450505050505b97509795505050505050565b60008060008360e0015113613bea57506000928392509050565b6000613bf9846000015161394f565b90506000613c25856040015186606001518760400151613c199190614725565b602088015191906134d7565b905060008212613c4c5780821015613c3f57819003613c62565b5060009485945092505050565b613c558261474b565b613c5f9082614725565b90505b60e085015160c0860151613c779183906134d7565b9050808560c001511015613c92575060009485945092505050565b808560c00151036001935093505050915091565b6000806000808412613cca57855160400151613cc3908590614725565b9050613d05565b6000613cd58561474b565b875160400151909150811015613cf5578651604001518190039150613d03565b60008093509350505061160e565b505b855180516020909101516000918291613d1e9190612732565b9150915080613d36576000809450945050505061160e565b875160e0810151604090910151600091613d6b91613d5f91613d5891906121b5565b8a90610fbf565b6101008b01519061222a565b895160e0810151608090910151613d9691613d8a916122bb9088610fbf565b8b51606001519061222a565b613da09190614725565b90506000613dd8613dcc613dc58c6000015160e00151886121b590919063ffffffff16565b8b9061271d565b6101008c0151906121a0565b905080821015613df35760008096509650505050505061160e565b80820391506000613e35858c60000151604001518d6000015160e00151670de0b6b3a7640000613e239190614738565b8e516060810151608090910151614154565b90506000613e5f8c6000015160e00151670de0b6b3a7640000613e589190614738565b88906121b5565b905080821015613e7c57600080985098505050505050505061160e565b8b51608081015160609091015191830391613e989183916134d7565b9050670de0b6b3a76400008110613edc578b5160e00151613ed590610ea090613ec990670de0b6b3a7640000614738565b8e5160e001519061222a565b9050613f0b565b8b5160e00151613f0890610ea090613efc90670de0b6b3a7640000614738565b8e5160e00151906121a0565b90505b8b5160600151613f1e90859083906134d7565b935083670de0b6b3a76400001115613f425783670de0b6b3a7640000039350613f56565b60006001985098505050505050505061160e565b60008c60e0015112613fb95760c08c015160e08d0151613f759161222a565b9250670de0b6b3a7640000831115613f9a57600080985098505050505050505061160e565b670de0b6b3a76400009290920391613fb28484610fbf565b9350613fee565b613feb613fd28d60c001518e60e00151611c3c9061474b565b613fe490670de0b6b3a7640000614725565b8590610fbf565b93505b50919a60019a5098505050505050505050565b60008082126140105781610819565b6108198261474b565b600080600061402784612690565b915091508061300257604051635516328b60e11b815260040160405180910390fd5b600061405e6001600160a01b038416836143f1565b9050805160001415801561408357508080602001905181019061408191906148f0565b155b15611f3d57604051635274afe760e01b81526001600160a01b03841660048201526024015b60405180910390fd5b6000806000846001600160a01b0316846040516140ce919061490d565b6000604051808303816000865af19150503d806000811461410b576040519150601f19603f3d011682016040523d82523d6000602084013e614110565b606091505b509150915081801561413a57508051158061413a57508080602001905181019061413a91906148f0565b8015610edf5750505050506001600160a01b03163b151590565b600061416085856121b5565b614179614171866122bb868b61271d565b8590856134d7565b6122209190614725565b60008060006141958989888888614154565b90506141a5866122bb898b614725565b9750878110156141bc57600080925092505061423b565b8781036141ca8186886134d7565b9050670de0b6b3a764000081106141f7576141f0610ea0670de0b6b3a76400008961222a565b905061420f565b61420c610ea0670de0b6b3a7640000896121a0565b90505b614219818661222a565b9050808a10156142315760008093509350505061423b565b8903925060019150505b965096945050505050565b60008060006142588989888888614154565b90508688101561426f57600080925092505061423b565b968690039661427e88876121b5565b97508781101561429557600080925092505061423b565b8781036142a38186886134d7565b9050670de0b6b3a764000081106142d0576142c9610ea0670de0b6b3a76400008961222a565b90506142e8565b6142e5610ea0670de0b6b3a7640000896121a0565b90505b6142f2818661222a565b90508981101561430a5760008093509350505061423b565b9890980398600198509650505050505050565b600080600061432f88888888886143cc565b90506000614353670de0b6b3a7640000614349888861222a565b6136289190614725565b9050670de0b6b3a7640000811061438057614379610ea0670de0b6b3a7640000896121a0565b9050614398565b614395610ea0670de0b6b3a76400008961222a565b90505b6143a281866121a0565b9050888110156143ba57600080935093505050613a55565b97909703976001975095505050505050565b60006143d885856121b5565b6141796143e9866122bb868b610fbf565b85908561223f565b60606100c78383600084600080856001600160a01b03168486604051614417919061490d565b60006040518083038185875af1925050503d8060008114614454576040519150601f19603f3d011682016040523d82523d6000602084013e614459565b606091505b509150915061222086838360608261447957614474826144c0565b6100c7565b815115801561449057506001600160a01b0384163b155b156144b957604051639996b31560e01b81526001600160a01b03851660048201526024016140a8565b50806100c7565b8051156144d05780518082602001fd5b604051630a12f52160e11b815260040160405180910390fd5b6040518061012001604052806144fd61453b565b815260200160008152602001600081526020016000815260200160008152602001600081526020016000815260200160008152602001600081525090565b6040518061018001604052806000815260200160008152602001600081526020016000815260200160008152602001600081526020016000815260200160008152602001600081526020016000815260200160008152602001600081525090565b600080604083850312156145af57600080fd5b50508035926020909101359150565b60006060828403121561150357600080fd5b6000806000606084860312156145e557600080fd5b8335925060208401359150604084013567ffffffffffffffff81111561460a57600080fd5b614616868287016145be565b9150509250925092565b6000806000806080858703121561463657600080fd5b843593506020850135925060408501359150606085013567ffffffffffffffff81111561466257600080fd5b61466e878288016145be565b91505092959194509250565b634e487b7160e01b600052601260045260246000fd5b60008261469f5761469f61467a565b500690565b634e487b7160e01b600052601160045260246000fd5b8082028115828204841417610819576108196146a4565b6000602082840312156146e357600080fd5b81356001600160a01b03811681146100c757600080fd5b8015158114610d3f57600080fd5b60006020828403121561471a57600080fd5b81356100c7816146fa565b80820180821115610819576108196146a4565b81810381811115610819576108196146a4565b6000600160ff1b8201614760576147606146a4565b5060000390565b6001600160801b03818116838216019080821115613002576130026146a4565b6001600160701b03818116838216019080821115613002576130026146a4565b8181036000831280158383131683831282161715613002576130026146a4565b6000808335601e198436030181126147de57600080fd5b83018035915067ffffffffffffffff8211156147f957600080fd5b602001915036819003821315610e1457600080fd5b6001600160801b03828116828216039080821115613002576130026146a4565b808201828112600083128015821682158216171561484e5761484e6146a4565b505092915050565b60006020828403121561486857600080fd5b5051919050565b600f81810b9083900b0160016001607f1b03811360016001607f1b031982121715610819576108196146a4565b600081600f0b60016001607f1b031981036148b9576148b96146a4565b60000392915050565b6000826148d1576148d161467a565b600160ff1b8214600019841416156148eb576148eb6146a4565b500590565b60006020828403121561490257600080fd5b81516100c7816146fa565b6000825160005b8181101561492e5760208186018101518583015201614914565b50600092019182525091905056fea2646970667358221220e08de9651ff4057507af8ceff6145ea7d60f30e802590db98c1f33ab6238b46c64736f6c63430008140033a2646970667358221220e450fe8c26d20c0ae3c2edaf39a25875ea6c1e42cae9d20141899b79ce537f8264736f6c63430008140033","linkReferences":{}},"methodIdentifiers":{"deploy((address,address,address,bytes32,uint256,uint256,uint256,uint256,uint256,uint256,address,address,address,(uint256,uint256,uint256,uint256)),bytes,bytes32)":"195d4bfc"},"id":6}