{
  "abi": [
    {
      "inputs": [
        {
          "internalType": "string",
          "name": "name",
          "type": "string"
        },
        {
          "internalType": "string",
          "name": "symbol",
          "type": "string"
        },
        {
          "internalType": "uint8",
          "name": "decimals",
          "type": "uint8"
        },
        {
          "internalType": "address",
          "name": "admin",
          "type": "address"
        },
        {
          "internalType": "bool",
          "name": "isCompetitionMode",
          "type": "bool"
        }
      ],
      "stateMutability": "nonpayable",
      "type": "constructor"
    },
    {
      "anonymous": false,
      "inputs": [
        {
          "indexed": true,
          "internalType": "address",
          "name": "owner",
          "type": "address"
        },
        {
          "indexed": true,
          "internalType": "address",
          "name": "spender",
          "type": "address"
        },
        {
          "indexed": false,
          "internalType": "uint256",
          "name": "amount",
          "type": "uint256"
        }
      ],
      "name": "Approval",
      "type": "event"
    },
    {
      "anonymous": false,
      "inputs": [
        {
          "indexed": true,
          "internalType": "address",
          "name": "user",
          "type": "address"
        },
        {
          "indexed": true,
          "internalType": "contract Authority",
          "name": "newAuthority",
          "type": "address"
        }
      ],
      "name": "AuthorityUpdated",
      "type": "event"
    },
    {
      "anonymous": false,
      "inputs": [
        {
          "indexed": true,
          "internalType": "address",
          "name": "user",
          "type": "address"
        },
        {
          "indexed": true,
          "internalType": "address",
          "name": "newOwner",
          "type": "address"
        }
      ],
      "name": "OwnershipTransferred",
      "type": "event"
    },
    {
      "anonymous": false,
      "inputs": [
        {
          "indexed": true,
          "internalType": "bytes4",
          "name": "functionSig",
          "type": "bytes4"
        },
        {
          "indexed": false,
          "internalType": "bool",
          "name": "enabled",
          "type": "bool"
        }
      ],
      "name": "PublicCapabilityUpdated",
      "type": "event"
    },
    {
      "anonymous": false,
      "inputs": [
        {
          "indexed": true,
          "internalType": "uint8",
          "name": "role",
          "type": "uint8"
        },
        {
          "indexed": true,
          "internalType": "bytes4",
          "name": "functionSig",
          "type": "bytes4"
        },
        {
          "indexed": false,
          "internalType": "bool",
          "name": "enabled",
          "type": "bool"
        }
      ],
      "name": "RoleCapabilityUpdated",
      "type": "event"
    },
    {
      "anonymous": false,
      "inputs": [
        {
          "indexed": true,
          "internalType": "address",
          "name": "target",
          "type": "address"
        },
        {
          "indexed": true,
          "internalType": "contract Authority",
          "name": "authority",
          "type": "address"
        }
      ],
      "name": "TargetCustomAuthorityUpdated",
      "type": "event"
    },
    {
      "anonymous": false,
      "inputs": [
        {
          "indexed": true,
          "internalType": "address",
          "name": "from",
          "type": "address"
        },
        {
          "indexed": true,
          "internalType": "address",
          "name": "to",
          "type": "address"
        },
        {
          "indexed": false,
          "internalType": "uint256",
          "name": "amount",
          "type": "uint256"
        }
      ],
      "name": "Transfer",
      "type": "event"
    },
    {
      "anonymous": false,
      "inputs": [
        {
          "indexed": true,
          "internalType": "address",
          "name": "user",
          "type": "address"
        },
        {
          "indexed": true,
          "internalType": "uint8",
          "name": "role",
          "type": "uint8"
        },
        {
          "indexed": false,
          "internalType": "bool",
          "name": "enabled",
          "type": "bool"
        }
      ],
      "name": "UserRoleUpdated",
      "type": "event"
    },
    {
      "inputs": [],
      "name": "DOMAIN_SEPARATOR",
      "outputs": [
        {
          "internalType": "bytes32",
          "name": "",
          "type": "bytes32"
        }
      ],
      "stateMutability": "view",
      "type": "function"
    },
    {
      "inputs": [
        {
          "internalType": "address",
          "name": "",
          "type": "address"
        },
        {
          "internalType": "address",
          "name": "",
          "type": "address"
        }
      ],
      "name": "allowance",
      "outputs": [
        {
          "internalType": "uint256",
          "name": "",
          "type": "uint256"
        }
      ],
      "stateMutability": "view",
      "type": "function"
    },
    {
      "inputs": [
        {
          "internalType": "address",
          "name": "spender",
          "type": "address"
        },
        {
          "internalType": "uint256",
          "name": "amount",
          "type": "uint256"
        }
      ],
      "name": "approve",
      "outputs": [
        {
          "internalType": "bool",
          "name": "",
          "type": "bool"
        }
      ],
      "stateMutability": "nonpayable",
      "type": "function"
    },
    {
      "inputs": [],
      "name": "authority",
      "outputs": [
        {
          "internalType": "contract Authority",
          "name": "",
          "type": "address"
        }
      ],
      "stateMutability": "view",
      "type": "function"
    },
    {
      "inputs": [
        {
          "internalType": "address",
          "name": "",
          "type": "address"
        }
      ],
      "name": "balanceOf",
      "outputs": [
        {
          "internalType": "uint256",
          "name": "",
          "type": "uint256"
        }
      ],
      "stateMutability": "view",
      "type": "function"
    },
    {
      "inputs": [
        {
          "internalType": "uint256",
          "name": "amount",
          "type": "uint256"
        }
      ],
      "name": "burn",
      "outputs": [],
      "stateMutability": "nonpayable",
      "type": "function"
    },
    {
      "inputs": [
        {
          "internalType": "address",
          "name": "destination",
          "type": "address"
        },
        {
          "internalType": "uint256",
          "name": "amount",
          "type": "uint256"
        }
      ],
      "name": "burn",
      "outputs": [],
      "stateMutability": "nonpayable",
      "type": "function"
    },
    {
      "inputs": [
        {
          "internalType": "address",
          "name": "user",
          "type": "address"
        },
        {
          "internalType": "address",
          "name": "target",
          "type": "address"
        },
        {
          "internalType": "bytes4",
          "name": "functionSig",
          "type": "bytes4"
        }
      ],
      "name": "canCall",
      "outputs": [
        {
          "internalType": "bool",
          "name": "",
          "type": "bool"
        }
      ],
      "stateMutability": "view",
      "type": "function"
    },
    {
      "inputs": [],
      "name": "decimals",
      "outputs": [
        {
          "internalType": "uint8",
          "name": "",
          "type": "uint8"
        }
      ],
      "stateMutability": "view",
      "type": "function"
    },
    {
      "inputs": [
        {
          "internalType": "uint8",
          "name": "role",
          "type": "uint8"
        },
        {
          "internalType": "bytes4",
          "name": "functionSig",
          "type": "bytes4"
        }
      ],
      "name": "doesRoleHaveCapability",
      "outputs": [
        {
          "internalType": "bool",
          "name": "",
          "type": "bool"
        }
      ],
      "stateMutability": "view",
      "type": "function"
    },
    {
      "inputs": [
        {
          "internalType": "address",
          "name": "user",
          "type": "address"
        },
        {
          "internalType": "uint8",
          "name": "role",
          "type": "uint8"
        }
      ],
      "name": "doesUserHaveRole",
      "outputs": [
        {
          "internalType": "bool",
          "name": "",
          "type": "bool"
        }
      ],
      "stateMutability": "view",
      "type": "function"
    },
    {
      "inputs": [
        {
          "internalType": "bytes4",
          "name": "",
          "type": "bytes4"
        }
      ],
      "name": "getRolesWithCapability",
      "outputs": [
        {
          "internalType": "bytes32",
          "name": "",
          "type": "bytes32"
        }
      ],
      "stateMutability": "view",
      "type": "function"
    },
    {
      "inputs": [
        {
          "internalType": "address",
          "name": "",
          "type": "address"
        }
      ],
      "name": "getTargetCustomAuthority",
      "outputs": [
        {
          "internalType": "contract Authority",
          "name": "",
          "type": "address"
        }
      ],
      "stateMutability": "view",
      "type": "function"
    },
    {
      "inputs": [
        {
          "internalType": "address",
          "name": "",
          "type": "address"
        }
      ],
      "name": "getUserRoles",
      "outputs": [
        {
          "internalType": "bytes32",
          "name": "",
          "type": "bytes32"
        }
      ],
      "stateMutability": "view",
      "type": "function"
    },
    {
      "inputs": [
        {
          "internalType": "bytes4",
          "name": "",
          "type": "bytes4"
        }
      ],
      "name": "isCapabilityPublic",
      "outputs": [
        {
          "internalType": "bool",
          "name": "",
          "type": "bool"
        }
      ],
      "stateMutability": "view",
      "type": "function"
    },
    {
      "inputs": [
        {
          "internalType": "address",
          "name": "destination",
          "type": "address"
        },
        {
          "internalType": "uint256",
          "name": "amount",
          "type": "uint256"
        }
      ],
      "name": "mint",
      "outputs": [],
      "stateMutability": "nonpayable",
      "type": "function"
    },
    {
      "inputs": [
        {
          "internalType": "uint256",
          "name": "amount",
          "type": "uint256"
        }
      ],
      "name": "mint",
      "outputs": [],
      "stateMutability": "nonpayable",
      "type": "function"
    },
    {
      "inputs": [],
      "name": "name",
      "outputs": [
        {
          "internalType": "string",
          "name": "",
          "type": "string"
        }
      ],
      "stateMutability": "view",
      "type": "function"
    },
    {
      "inputs": [
        {
          "internalType": "address",
          "name": "",
          "type": "address"
        }
      ],
      "name": "nonces",
      "outputs": [
        {
          "internalType": "uint256",
          "name": "",
          "type": "uint256"
        }
      ],
      "stateMutability": "view",
      "type": "function"
    },
    {
      "inputs": [],
      "name": "owner",
      "outputs": [
        {
          "internalType": "address",
          "name": "",
          "type": "address"
        }
      ],
      "stateMutability": "view",
      "type": "function"
    },
    {
      "inputs": [
        {
          "internalType": "address",
          "name": "owner",
          "type": "address"
        },
        {
          "internalType": "address",
          "name": "spender",
          "type": "address"
        },
        {
          "internalType": "uint256",
          "name": "value",
          "type": "uint256"
        },
        {
          "internalType": "uint256",
          "name": "deadline",
          "type": "uint256"
        },
        {
          "internalType": "uint8",
          "name": "v",
          "type": "uint8"
        },
        {
          "internalType": "bytes32",
          "name": "r",
          "type": "bytes32"
        },
        {
          "internalType": "bytes32",
          "name": "s",
          "type": "bytes32"
        }
      ],
      "name": "permit",
      "outputs": [],
      "stateMutability": "nonpayable",
      "type": "function"
    },
    {
      "inputs": [
        {
          "internalType": "contract Authority",
          "name": "newAuthority",
          "type": "address"
        }
      ],
      "name": "setAuthority",
      "outputs": [],
      "stateMutability": "nonpayable",
      "type": "function"
    },
    {
      "inputs": [
        {
          "internalType": "bytes4",
          "name": "functionSig",
          "type": "bytes4"
        },
        {
          "internalType": "bool",
          "name": "enabled",
          "type": "bool"
        }
      ],
      "name": "setPublicCapability",
      "outputs": [],
      "stateMutability": "nonpayable",
      "type": "function"
    },
    {
      "inputs": [
        {
          "internalType": "uint8",
          "name": "role",
          "type": "uint8"
        },
        {
          "internalType": "bytes4",
          "name": "functionSig",
          "type": "bytes4"
        },
        {
          "internalType": "bool",
          "name": "enabled",
          "type": "bool"
        }
      ],
      "name": "setRoleCapability",
      "outputs": [],
      "stateMutability": "nonpayable",
      "type": "function"
    },
    {
      "inputs": [
        {
          "internalType": "address",
          "name": "target",
          "type": "address"
        },
        {
          "internalType": "contract Authority",
          "name": "customAuthority",
          "type": "address"
        }
      ],
      "name": "setTargetCustomAuthority",
      "outputs": [],
      "stateMutability": "nonpayable",
      "type": "function"
    },
    {
      "inputs": [
        {
          "internalType": "address",
          "name": "user",
          "type": "address"
        },
        {
          "internalType": "uint8",
          "name": "role",
          "type": "uint8"
        },
        {
          "internalType": "bool",
          "name": "enabled",
          "type": "bool"
        }
      ],
      "name": "setUserRole",
      "outputs": [],
      "stateMutability": "nonpayable",
      "type": "function"
    },
    {
      "inputs": [],
      "name": "symbol",
      "outputs": [
        {
          "internalType": "string",
          "name": "",
          "type": "string"
        }
      ],
      "stateMutability": "view",
      "type": "function"
    },
    {
      "inputs": [],
      "name": "totalSupply",
      "outputs": [
        {
          "internalType": "uint256",
          "name": "",
          "type": "uint256"
        }
      ],
      "stateMutability": "view",
      "type": "function"
    },
    {
      "inputs": [
        {
          "internalType": "address",
          "name": "to",
          "type": "address"
        },
        {
          "internalType": "uint256",
          "name": "amount",
          "type": "uint256"
        }
      ],
      "name": "transfer",
      "outputs": [
        {
          "internalType": "bool",
          "name": "",
          "type": "bool"
        }
      ],
      "stateMutability": "nonpayable",
      "type": "function"
    },
    {
      "inputs": [
        {
          "internalType": "address",
          "name": "from",
          "type": "address"
        },
        {
          "internalType": "address",
          "name": "to",
          "type": "address"
        },
        {
          "internalType": "uint256",
          "name": "amount",
          "type": "uint256"
        }
      ],
      "name": "transferFrom",
      "outputs": [
        {
          "internalType": "bool",
          "name": "",
          "type": "bool"
        }
      ],
      "stateMutability": "nonpayable",
      "type": "function"
    },
    {
      "inputs": [
        {
          "internalType": "address",
          "name": "newOwner",
          "type": "address"
        }
      ],
      "name": "transferOwnership",
      "outputs": [],
      "stateMutability": "nonpayable",
      "type": "function"
    }
  ],
  "bytecode": {
    "object": "0x6101006040523480156200001257600080fd5b5060405162001daa38038062001daa833981016040819052620000359162000291565b8130818188888860006200004a8482620003d7565b506001620000598382620003d7565b5060ff81166080524660a0526200006f6200011a565b60c0525050600680546001600160a01b038086166001600160a01b03199283168117909355600780549186169190921617905560405190915033907f8be0079c531659141344cd1fd0a4f28419497f9722a3daafe3b4186f6b6457e090600090a36040516001600160a01b0382169033907fa3396fd7f6e0a21b50e5089d2da70d5ac0a3bbbd1f617a93f134b7638998019890600090a350505050151560e052506200052192505050565b60007f8b73c3c69bb8fe3d512ecc4cf759cc79239f7b179b0ffacaa9a75d522b39400f60006040516200014e9190620004a3565b6040805191829003822060208301939093528101919091527fc89efdaa54c0f20c7adf612882df0950f5a951637e0307cdcb4c672f298b8bc660608201524660808201523060a082015260c00160405160208183030381529060405280519060200120905090565b634e487b7160e01b600052604160045260246000fd5b600082601f830112620001de57600080fd5b81516001600160401b0380821115620001fb57620001fb620001b6565b604051601f8301601f19908116603f01168101908282118183101715620002265762000226620001b6565b816040528381526020925086838588010111156200024357600080fd5b600091505b8382101562000267578582018301518183018401529082019062000248565b600093810190920192909252949350505050565b805180151581146200028c57600080fd5b919050565b600080600080600060a08688031215620002aa57600080fd5b85516001600160401b0380821115620002c257600080fd5b620002d089838a01620001cc565b96506020880151915080821115620002e757600080fd5b50620002f688828901620001cc565b945050604086015160ff811681146200030e57600080fd5b60608701519093506001600160a01b03811681146200032c57600080fd5b91506200033c608087016200027b565b90509295509295909350565b600181811c908216806200035d57607f821691505b6020821081036200037e57634e487b7160e01b600052602260045260246000fd5b50919050565b601f821115620003d257600081815260208120601f850160051c81016020861015620003ad5750805b601f850160051c820191505b81811015620003ce57828155600101620003b9565b5050505b505050565b81516001600160401b03811115620003f357620003f3620001b6565b6200040b8162000404845462000348565b8462000384565b602080601f8311600181146200044357600084156200042a5750858301515b600019600386901b1c1916600185901b178555620003ce565b600085815260208120601f198616915b82811015620004745788860151825594840194600190910190840162000453565b5085821015620004935787850151600019600388901b60f8161c191681555b5050505050600190811b01905550565b6000808354620004b38162000348565b60018281168015620004ce5760018114620004e45762000515565b60ff198416875282151583028701945062000515565b8760005260208060002060005b858110156200050c5781548a820152908401908201620004f1565b50505082870194505b50929695505050505050565b60805160a05160c05160e05161183a6200057060003960008181610850015281816108b601528181610bf50152610c570152600061082c015260006107f7015260006102ae015261183a6000f3fe608060405234801561001057600080fd5b50600436106101e55760003560e01c80637a9e5e4b1161010f578063bf7e214f116100a2578063e688747b11610071578063e688747b14610495578063ea7ca276146104cb578063ed0d0efb14610502578063f2fde38b1461052257600080fd5b8063bf7e214f1461041b578063c53a39851461042e578063d505accf14610457578063dd62ed3e1461046a57600080fd5b80639dc29fac116100de5780639dc29fac146103cf578063a0712d68146103e2578063a9059cbb146103f5578063b70096131461040857600080fd5b80637a9e5e4b146103695780637ecebe001461037c5780638da5cb5b1461039c57806395d89b41146103c757600080fd5b8063313ce567116101875780634b5159da116101565780634b5159da1461031057806367aff4841461032357806370a0823114610336578063728b952b1461035657600080fd5b8063313ce567146102a95780633644e515146102e257806340c10f19146102ea57806342966c68146102fd57600080fd5b80630bade8a4116101c35780630bade8a4146102555780630ea9b75b1461027857806318160ddd1461028d57806323b872dd1461029657600080fd5b806306a36aee146101ea57806306fdde031461021d578063095ea7b314610232575b600080fd5b61020a6101f83660046112f2565b60096020526000908152604090205481565b6040519081526020015b60405180910390f35b610225610535565b604051610214919061130f565b61024561024036600461135d565b6105c3565b6040519015158152602001610214565b6102456102633660046113a6565b600a6020526000908152604090205460ff1681565b61028b6102863660046113e0565b610630565b005b61020a60025481565b6102456102a4366004611427565b610711565b6102d07f000000000000000000000000000000000000000000000000000000000000000081565b60405160ff9091168152602001610214565b61020a6107f3565b61028b6102f836600461135d565b61084e565b61028b61030b366004611468565b6108b4565b61028b61031e366004611481565b610919565b61028b6103313660046114b8565b6109ab565b61020a6103443660046112f2565b60036020526000908152604090205481565b61028b6103643660046114e6565b610a73565b61028b6103773660046112f2565b610afc565b61020a61038a3660046112f2565b60056020526000908152604090205481565b6006546103af906001600160a01b031681565b6040516001600160a01b039091168152602001610214565b610225610be6565b61028b6103dd36600461135d565b610bf3565b61028b6103f0366004611468565b610c55565b61024561040336600461135d565b610cb7565b610245610416366004611514565b610d1d565b6007546103af906001600160a01b031681565b6103af61043c3660046112f2565b6008602052600090815260409020546001600160a01b031681565b61028b61046536600461155b565b610e1b565b61020a6104783660046114e6565b600460209081526000928352604080842090915290825290205481565b6102456104a33660046115c9565b6001600160e01b0319166000908152600b602052604090205460ff919091161c600116151590565b6102456104d93660046115fc565b6001600160a01b0391909116600090815260096020526040902054600160ff9092161c16151590565b61020a6105103660046113a6565b600b6020526000908152604090205481565b61028b6105303660046112f2565b61105f565b6000805461054290611628565b80601f016020809104026020016040519081016040528092919081815260200182805461056e90611628565b80156105bb5780601f10610590576101008083540402835291602001916105bb565b820191906000526020600020905b81548152906001019060200180831161059e57829003601f168201915b505050505081565b3360008181526004602090815260408083206001600160a01b038716808552925280832085905551919290917f8c5be1e5ebec7d5bd14f71427d1e84f3dd0314c0f7b2291e5b200ac8c7c3b9259061061e9086815260200190565b60405180910390a35060015b92915050565b610646336000356001600160e01b0319166110dd565b61066b5760405162461bcd60e51b815260040161066290611662565b60405180910390fd5b801561069b576001600160e01b031982166000908152600b602052604090208054600160ff86161b1790556106c2565b6001600160e01b031982166000908152600b602052604090208054600160ff86161b191690555b816001600160e01b0319168360ff167fbfe16b2c35ce23dfd1ab0e7b5d086a10060c9b52d1574e1680c881b3b3a2b15183604051610704911515815260200190565b60405180910390a3505050565b6001600160a01b0383166000908152600460209081526040808320338452909152812054600019811461076d57610748838261169e565b6001600160a01b03861660009081526004602090815260408083203384529091529020555b6001600160a01b0385166000908152600360205260408120805485929061079590849061169e565b90915550506001600160a01b03808516600081815260036020526040908190208054870190555190918716906000805160206117e5833981519152906107de9087815260200190565b60405180910390a360019150505b9392505050565b60007f0000000000000000000000000000000000000000000000000000000000000000461461082957610824611187565b905090565b507f000000000000000000000000000000000000000000000000000000000000000090565b7f0000000000000000000000000000000000000000000000000000000000000000156108a65761088a336000356001600160e01b0319166110dd565b6108a65760405162461bcd60e51b8152600401610662906116b1565b6108b08282611221565b5050565b7f00000000000000000000000000000000000000000000000000000000000000001561090c576108f0336000356001600160e01b0319166110dd565b61090c5760405162461bcd60e51b8152600401610662906116b1565b610916338261127b565b50565b61092f336000356001600160e01b0319166110dd565b61094b5760405162461bcd60e51b815260040161066290611662565b6001600160e01b031982166000818152600a6020908152604091829020805460ff191685151590811790915591519182527f36d28126bef21a4f3765d7fcb7c45cead463ae4c41094ef3b771ede598544103910160405180910390a25050565b6109c1336000356001600160e01b0319166110dd565b6109dd5760405162461bcd60e51b815260040161066290611662565b8015610a0c576001600160a01b03831660009081526009602052604090208054600160ff85161b179055610a32565b6001600160a01b03831660009081526009602052604090208054600160ff85161b191690555b8160ff16836001600160a01b03167f4c9bdd0c8e073eb5eda2250b18d8e5121ff27b62064fbeeeed4869bb99bc5bf283604051610704911515815260200190565b610a89336000356001600160e01b0319166110dd565b610aa55760405162461bcd60e51b815260040161066290611662565b6001600160a01b0382811660008181526008602052604080822080546001600160a01b0319169486169485179055517fa4908e11a5f895b13d51526c331ac93cdd30e59772361c5d07874eb36bff20659190a35050565b6006546001600160a01b0316331480610b91575060075460405163b700961360e01b81526001600160a01b039091169063b700961390610b5090339030906001600160e01b031960003516906004016116e8565b602060405180830381865afa158015610b6d573d6000803e3d6000fd5b505050506040513d601f19601f82011682018060405250810190610b919190611715565b610b9a57600080fd5b600780546001600160a01b0319166001600160a01b03831690811790915560405133907fa3396fd7f6e0a21b50e5089d2da70d5ac0a3bbbd1f617a93f134b7638998019890600090a350565b6001805461054290611628565b7f000000000000000000000000000000000000000000000000000000000000000015610c4b57610c2f336000356001600160e01b0319166110dd565b610c4b5760405162461bcd60e51b8152600401610662906116b1565b6108b0828261127b565b7f000000000000000000000000000000000000000000000000000000000000000015610cad57610c91336000356001600160e01b0319166110dd565b610cad5760405162461bcd60e51b8152600401610662906116b1565b6109163382611221565b33600090815260036020526040812080548391908390610cd890849061169e565b90915550506001600160a01b038316600081815260036020526040908190208054850190555133906000805160206117e58339815191529061061e9086815260200190565b6001600160a01b038083166000908152600860205260408120549091168015610db95760405163b700961360e01b81526001600160a01b0382169063b700961390610d70908890889088906004016116e8565b602060405180830381865afa158015610d8d573d6000803e3d6000fd5b505050506040513d601f19601f82011682018060405250810190610db19190611715565b9150506107ec565b6001600160e01b031983166000908152600a602052604090205460ff1680610e1257506001600160e01b031983166000908152600b60209081526040808320546001600160a01b03891684526009909252909120541615155b95945050505050565b42841015610e6b5760405162461bcd60e51b815260206004820152601760248201527f5045524d49545f444541444c494e455f455850495245440000000000000000006044820152606401610662565b60006001610e776107f3565b6001600160a01b038a811660008181526005602090815260409182902080546001810190915582517f6e71edae12b1b97f4d1f60370fef10105fa2faae0126114a169c64845d6126c98184015280840194909452938d166060840152608083018c905260a083019390935260c08083018b90528151808403909101815260e08301909152805192019190912061190160f01b6101008301526101028201929092526101228101919091526101420160408051601f198184030181528282528051602091820120600084529083018083525260ff871690820152606081018590526080810184905260a0016020604051602081039080840390855afa158015610f83573d6000803e3d6000fd5b5050604051601f1901519150506001600160a01b03811615801590610fb95750876001600160a01b0316816001600160a01b0316145b610ff65760405162461bcd60e51b815260206004820152600e60248201526d24a72b20a624a22fa9a4a3a722a960911b6044820152606401610662565b6001600160a01b0390811660009081526004602090815260408083208a8516808552908352928190208990555188815291928a16917f8c5be1e5ebec7d5bd14f71427d1e84f3dd0314c0f7b2291e5b200ac8c7c3b925910160405180910390a350505050505050565b611075336000356001600160e01b0319166110dd565b6110915760405162461bcd60e51b815260040161066290611662565b600680546001600160a01b0319166001600160a01b03831690811790915560405133907f8be0079c531659141344cd1fd0a4f28419497f9722a3daafe3b4186f6b6457e090600090a350565b6007546000906001600160a01b03168015801590611167575060405163b700961360e01b81526001600160a01b0382169063b700961390611126908790309088906004016116e8565b602060405180830381865afa158015611143573d6000803e3d6000fd5b505050506040513d601f19601f820116820180604052508101906111679190611715565b8061117f57506006546001600160a01b038581169116145b949350505050565b60007f8b73c3c69bb8fe3d512ecc4cf759cc79239f7b179b0ffacaa9a75d522b39400f60006040516111b99190611732565b6040805191829003822060208301939093528101919091527fc89efdaa54c0f20c7adf612882df0950f5a951637e0307cdcb4c672f298b8bc660608201524660808201523060a082015260c00160405160208183030381529060405280519060200120905090565b806002600082825461123391906117d1565b90915550506001600160a01b0382166000818152600360209081526040808320805486019055518481526000805160206117e583398151915291015b60405180910390a35050565b6001600160a01b038216600090815260036020526040812080548392906112a390849061169e565b90915550506002805482900390556040518181526000906001600160a01b038416906000805160206117e58339815191529060200161126f565b6001600160a01b038116811461091657600080fd5b60006020828403121561130457600080fd5b81356107ec816112dd565b600060208083528351808285015260005b8181101561133c57858101830151858201604001528201611320565b506000604082860101526040601f19601f8301168501019250505092915050565b6000806040838503121561137057600080fd5b823561137b816112dd565b946020939093013593505050565b80356001600160e01b0319811681146113a157600080fd5b919050565b6000602082840312156113b857600080fd5b6107ec82611389565b803560ff811681146113a157600080fd5b801515811461091657600080fd5b6000806000606084860312156113f557600080fd5b6113fe846113c1565b925061140c60208501611389565b9150604084013561141c816113d2565b809150509250925092565b60008060006060848603121561143c57600080fd5b8335611447816112dd565b92506020840135611457816112dd565b929592945050506040919091013590565b60006020828403121561147a57600080fd5b5035919050565b6000806040838503121561149457600080fd5b61149d83611389565b915060208301356114ad816113d2565b809150509250929050565b6000806000606084860312156114cd57600080fd5b83356114d8816112dd565b925061140c602085016113c1565b600080604083850312156114f957600080fd5b8235611504816112dd565b915060208301356114ad816112dd565b60008060006060848603121561152957600080fd5b8335611534816112dd565b92506020840135611544816112dd565b915061155260408501611389565b90509250925092565b600080600080600080600060e0888a03121561157657600080fd5b8735611581816112dd565b96506020880135611591816112dd565b955060408801359450606088013593506115ad608089016113c1565b925060a0880135915060c0880135905092959891949750929550565b600080604083850312156115dc57600080fd5b6115e5836113c1565b91506115f360208401611389565b90509250929050565b6000806040838503121561160f57600080fd5b823561161a816112dd565b91506115f3602084016113c1565b600181811c9082168061163c57607f821691505b60208210810361165c57634e487b7160e01b600052602260045260246000fd5b50919050565b6020808252600c908201526b15539055551213d49256915160a21b604082015260600190565b634e487b7160e01b600052601160045260246000fd5b8181038181111561062a5761062a611688565b6020808252601d908201527f45524332304d696e7461626c653a206e6f7420617574686f72697a6564000000604082015260600190565b6001600160a01b0393841681529190921660208201526001600160e01b0319909116604082015260600190565b60006020828403121561172757600080fd5b81516107ec816113d2565b600080835481600182811c91508083168061174e57607f831692505b6020808410820361176d57634e487b7160e01b86526022600452602486fd5b8180156117815760018114611796576117c3565b60ff19861689528415158502890196506117c3565b60008a81526020902060005b868110156117bb5781548b8201529085019083016117a2565b505084890196505b509498975050505050505050565b8082018082111561062a5761062a61168856feddf252ad1be2c89b69c2b068fc378daa952ba7f163c4a11628f55a4df523b3efa26469706673582212200fb93212c30cec26541b947d6a2a8c4de830fd7d3797c3cc21d1860aaaa658bc64736f6c63430008130033",
    "linkReferences": {}
  },
  "methodIdentifiers": {
    "DOMAIN_SEPARATOR()": "3644e515",
    "allowance(address,address)": "dd62ed3e",
    "approve(address,uint256)": "095ea7b3",
    "authority()": "bf7e214f",
    "balanceOf(address)": "70a08231",
    "burn(address,uint256)": "9dc29fac",
    "burn(uint256)": "42966c68",
    "canCall(address,address,bytes4)": "b7009613",
    "decimals()": "313ce567",
    "doesRoleHaveCapability(uint8,bytes4)": "e688747b",
    "doesUserHaveRole(address,uint8)": "ea7ca276",
    "getRolesWithCapability(bytes4)": "ed0d0efb",
    "getTargetCustomAuthority(address)": "c53a3985",
    "getUserRoles(address)": "06a36aee",
    "isCapabilityPublic(bytes4)": "0bade8a4",
    "mint(address,uint256)": "40c10f19",
    "mint(uint256)": "a0712d68",
    "name()": "06fdde03",
    "nonces(address)": "7ecebe00",
    "owner()": "8da5cb5b",
    "permit(address,address,uint256,uint256,uint8,bytes32,bytes32)": "d505accf",
    "setAuthority(address)": "7a9e5e4b",
    "setPublicCapability(bytes4,bool)": "4b5159da",
    "setRoleCapability(uint8,bytes4,bool)": "0ea9b75b",
    "setTargetCustomAuthority(address,address)": "728b952b",
    "setUserRole(address,uint8,bool)": "67aff484",
    "symbol()": "95d89b41",
    "totalSupply()": "18160ddd",
    "transfer(address,uint256)": "a9059cbb",
    "transferFrom(address,address,uint256)": "23b872dd",
    "transferOwnership(address)": "f2fde38b"
  },
  "id": 38
}