{"abi":[{"type":"constructor","inputs":[{"name":"name","type":"string","internalType":"string"},{"name":"symbol","type":"string","internalType":"string"},{"name":"decimals","type":"uint8","internalType":"uint8"},{"name":"admin","type":"address","internalType":"address"},{"name":"isCompetitionMode_","type":"bool","internalType":"bool"},{"name":"maxMintAmount_","type":"uint256","internalType":"uint256"}],"stateMutability":"nonpayable"},{"type":"function","name":"DOMAIN_SEPARATOR","inputs":[],"outputs":[{"name":"","type":"bytes32","internalType":"bytes32"}],"stateMutability":"view"},{"type":"function","name":"allowance","inputs":[{"name":"","type":"address","internalType":"address"},{"name":"","type":"address","internalType":"address"}],"outputs":[{"name":"","type":"uint256","internalType":"uint256"}],"stateMutability":"view"},{"type":"function","name":"approve","inputs":[{"name":"spender","type":"address","internalType":"address"},{"name":"amount","type":"uint256","internalType":"uint256"}],"outputs":[{"name":"","type":"bool","internalType":"bool"}],"stateMutability":"nonpayable"},{"type":"function","name":"authority","inputs":[],"outputs":[{"name":"","type":"address","internalType":"contract Authority"}],"stateMutability":"view"},{"type":"function","name":"balanceOf","inputs":[{"name":"","type":"address","internalType":"address"}],"outputs":[{"name":"","type":"uint256","internalType":"uint256"}],"stateMutability":"view"},{"type":"function","name":"burn","inputs":[{"name":"amount","type":"uint256","internalType":"uint256"}],"outputs":[],"stateMutability":"nonpayable"},{"type":"function","name":"burn","inputs":[{"name":"destination","type":"address","internalType":"address"},{"name":"amount","type":"uint256","internalType":"uint256"}],"outputs":[],"stateMutability":"nonpayable"},{"type":"function","name":"canCall","inputs":[{"name":"user","type":"address","internalType":"address"},{"name":"target","type":"address","internalType":"address"},{"name":"functionSig","type":"bytes4","internalType":"bytes4"}],"outputs":[{"name":"","type":"bool","internalType":"bool"}],"stateMutability":"view"},{"type":"function","name":"decimals","inputs":[],"outputs":[{"name":"","type":"uint8","internalType":"uint8"}],"stateMutability":"view"},{"type":"function","name":"doesRoleHaveCapability","inputs":[{"name":"role","type":"uint8","internalType":"uint8"},{"name":"functionSig","type":"bytes4","internalType":"bytes4"}],"outputs":[{"name":"","type":"bool","internalType":"bool"}],"stateMutability":"view"},{"type":"function","name":"doesUserHaveRole","inputs":[{"name":"user","type":"address","internalType":"address"},{"name":"role","type":"uint8","internalType":"uint8"}],"outputs":[{"name":"","type":"bool","internalType":"bool"}],"stateMutability":"view"},{"type":"function","name":"getRolesWithCapability","inputs":[{"name":"","type":"bytes4","internalType":"bytes4"}],"outputs":[{"name":"","type":"bytes32","internalType":"bytes32"}],"stateMutability":"view"},{"type":"function","name":"getTargetCustomAuthority","inputs":[{"name":"","type":"address","internalType":"address"}],"outputs":[{"name":"","type":"address","internalType":"contract Authority"}],"stateMutability":"view"},{"type":"function","name":"getUserRoles","inputs":[{"name":"","type":"address","internalType":"address"}],"outputs":[{"name":"","type":"bytes32","internalType":"bytes32"}],"stateMutability":"view"},{"type":"function","name":"isCapabilityPublic","inputs":[{"name":"","type":"bytes4","internalType":"bytes4"}],"outputs":[{"name":"","type":"bool","internalType":"bool"}],"stateMutability":"view"},{"type":"function","name":"isCompetitionMode","inputs":[],"outputs":[{"name":"","type":"bool","internalType":"bool"}],"stateMutability":"view"},{"type":"function","name":"isUnrestricted","inputs":[{"name":"","type":"address","internalType":"address"}],"outputs":[{"name":"","type":"bool","internalType":"bool"}],"stateMutability":"view"},{"type":"function","name":"maxMintAmount","inputs":[],"outputs":[{"name":"","type":"uint256","internalType":"uint256"}],"stateMutability":"view"},{"type":"function","name":"mint","inputs":[{"name":"destination","type":"address","internalType":"address"},{"name":"amount","type":"uint256","internalType":"uint256"}],"outputs":[],"stateMutability":"nonpayable"},{"type":"function","name":"mint","inputs":[{"name":"amount","type":"uint256","internalType":"uint256"}],"outputs":[],"stateMutability":"nonpayable"},{"type":"function","name":"name","inputs":[],"outputs":[{"name":"","type":"string","internalType":"string"}],"stateMutability":"view"},{"type":"function","name":"nonces","inputs":[{"name":"","type":"address","internalType":"address"}],"outputs":[{"name":"","type":"uint256","internalType":"uint256"}],"stateMutability":"view"},{"type":"function","name":"owner","inputs":[],"outputs":[{"name":"","type":"address","internalType":"address"}],"stateMutability":"view"},{"type":"function","name":"permit","inputs":[{"name":"owner","type":"address","internalType":"address"},{"name":"spender","type":"address","internalType":"address"},{"name":"value","type":"uint256","internalType":"uint256"},{"name":"deadline","type":"uint256","internalType":"uint256"},{"name":"v","type":"uint8","internalType":"uint8"},{"name":"r","type":"bytes32","internalType":"bytes32"},{"name":"s","type":"bytes32","internalType":"bytes32"}],"outputs":[],"stateMutability":"nonpayable"},{"type":"function","name":"setAuthority","inputs":[{"name":"newAuthority","type":"address","internalType":"contract Authority"}],"outputs":[],"stateMutability":"nonpayable"},{"type":"function","name":"setMaxMintAmount","inputs":[{"name":"_maxMintAmount","type":"uint256","internalType":"uint256"}],"outputs":[],"stateMutability":"nonpayable"},{"type":"function","name":"setPublicCapability","inputs":[{"name":"functionSig","type":"bytes4","internalType":"bytes4"},{"name":"enabled","type":"bool","internalType":"bool"}],"outputs":[],"stateMutability":"nonpayable"},{"type":"function","name":"setRoleCapability","inputs":[{"name":"role","type":"uint8","internalType":"uint8"},{"name":"functionSig","type":"bytes4","internalType":"bytes4"},{"name":"enabled","type":"bool","internalType":"bool"}],"outputs":[],"stateMutability":"nonpayable"},{"type":"function","name":"setTargetCustomAuthority","inputs":[{"name":"target","type":"address","internalType":"address"},{"name":"customAuthority","type":"address","internalType":"contract Authority"}],"outputs":[],"stateMutability":"nonpayable"},{"type":"function","name":"setUnrestrictedMintStatus","inputs":[{"name":"_target","type":"address","internalType":"address"},{"name":"_status","type":"bool","internalType":"bool"}],"outputs":[],"stateMutability":"nonpayable"},{"type":"function","name":"setUserRole","inputs":[{"name":"user","type":"address","internalType":"address"},{"name":"role","type":"uint8","internalType":"uint8"},{"name":"enabled","type":"bool","internalType":"bool"}],"outputs":[],"stateMutability":"nonpayable"},{"type":"function","name":"symbol","inputs":[],"outputs":[{"name":"","type":"string","internalType":"string"}],"stateMutability":"view"},{"type":"function","name":"totalSupply","inputs":[],"outputs":[{"name":"","type":"uint256","internalType":"uint256"}],"stateMutability":"view"},{"type":"function","name":"transfer","inputs":[{"name":"to","type":"address","internalType":"address"},{"name":"amount","type":"uint256","internalType":"uint256"}],"outputs":[{"name":"","type":"bool","internalType":"bool"}],"stateMutability":"nonpayable"},{"type":"function","name":"transferFrom","inputs":[{"name":"from","type":"address","internalType":"address"},{"name":"to","type":"address","internalType":"address"},{"name":"amount","type":"uint256","internalType":"uint256"}],"outputs":[{"name":"","type":"bool","internalType":"bool"}],"stateMutability":"nonpayable"},{"type":"function","name":"transferOwnership","inputs":[{"name":"newOwner","type":"address","internalType":"address"}],"outputs":[],"stateMutability":"nonpayable"},{"type":"event","name":"Approval","inputs":[{"name":"owner","type":"address","indexed":true,"internalType":"address"},{"name":"spender","type":"address","indexed":true,"internalType":"address"},{"name":"amount","type":"uint256","indexed":false,"internalType":"uint256"}],"anonymous":false},{"type":"event","name":"AuthorityUpdated","inputs":[{"name":"user","type":"address","indexed":true,"internalType":"address"},{"name":"newAuthority","type":"address","indexed":true,"internalType":"contract Authority"}],"anonymous":false},{"type":"event","name":"OwnershipTransferred","inputs":[{"name":"user","type":"address","indexed":true,"internalType":"address"},{"name":"newOwner","type":"address","indexed":true,"internalType":"address"}],"anonymous":false},{"type":"event","name":"PublicCapabilityUpdated","inputs":[{"name":"functionSig","type":"bytes4","indexed":true,"internalType":"bytes4"},{"name":"enabled","type":"bool","indexed":false,"internalType":"bool"}],"anonymous":false},{"type":"event","name":"RoleCapabilityUpdated","inputs":[{"name":"role","type":"uint8","indexed":true,"internalType":"uint8"},{"name":"functionSig","type":"bytes4","indexed":true,"internalType":"bytes4"},{"name":"enabled","type":"bool","indexed":false,"internalType":"bool"}],"anonymous":false},{"type":"event","name":"TargetCustomAuthorityUpdated","inputs":[{"name":"target","type":"address","indexed":true,"internalType":"address"},{"name":"authority","type":"address","indexed":true,"internalType":"contract Authority"}],"anonymous":false},{"type":"event","name":"Transfer","inputs":[{"name":"from","type":"address","indexed":true,"internalType":"address"},{"name":"to","type":"address","indexed":true,"internalType":"address"},{"name":"amount","type":"uint256","indexed":false,"internalType":"uint256"}],"anonymous":false},{"type":"event","name":"UserRoleUpdated","inputs":[{"name":"user","type":"address","indexed":true,"internalType":"address"},{"name":"role","type":"uint8","indexed":true,"internalType":"uint8"},{"name":"enabled","type":"bool","indexed":false,"internalType":"bool"}],"anonymous":false}],"bytecode":{"object":"0x6101006040523480156200001257600080fd5b506040516200202d3803806200202d833981016040819052620000359162000295565b8230818189898960006200004a8482620003e3565b506001620000598382620003e3565b5060ff81166080524660a0526200006f6200011e565b60c0525050600680546001600160a01b038086166001600160a01b03199283168117909355600780549186169190921617905560405190915033907f8be0079c531659141344cd1fd0a4f28419497f9722a3daafe3b4186f6b6457e090600090a36040516001600160a01b0382169033907fa3396fd7f6e0a21b50e5089d2da70d5ac0a3bbbd1f617a93f134b7638998019890600090a35050505090151560e052600c55506200052d92505050565b60007f8b73c3c69bb8fe3d512ecc4cf759cc79239f7b179b0ffacaa9a75d522b39400f6000604051620001529190620004af565b6040805191829003822060208301939093528101919091527fc89efdaa54c0f20c7adf612882df0950f5a951637e0307cdcb4c672f298b8bc660608201524660808201523060a082015260c00160405160208183030381529060405280519060200120905090565b634e487b7160e01b600052604160045260246000fd5b600082601f830112620001e257600080fd5b81516001600160401b0380821115620001ff57620001ff620001ba565b604051601f8301601f19908116603f011681019082821181831017156200022a576200022a620001ba565b816040528381526020925086838588010111156200024757600080fd5b600091505b838210156200026b57858201830151818301840152908201906200024c565b600093810190920192909252949350505050565b805180151581146200029057600080fd5b919050565b60008060008060008060c08789031215620002af57600080fd5b86516001600160401b0380821115620002c757600080fd5b620002d58a838b01620001d0565b97506020890151915080821115620002ec57600080fd5b50620002fb89828a01620001d0565b955050604087015160ff811681146200031357600080fd5b60608801519094506001600160a01b03811681146200033157600080fd5b925062000341608088016200027f565b915060a087015190509295509295509295565b600181811c908216806200036957607f821691505b6020821081036200038a57634e487b7160e01b600052602260045260246000fd5b50919050565b601f821115620003de57600081815260208120601f850160051c81016020861015620003b95750805b601f850160051c820191505b81811015620003da57828155600101620003c5565b5050505b505050565b81516001600160401b03811115620003ff57620003ff620001ba565b620004178162000410845462000354565b8462000390565b602080601f8311600181146200044f5760008415620004365750858301515b600019600386901b1c1916600185901b178555620003da565b600085815260208120601f198616915b8281101562000480578886015182559484019460019091019084016200045f565b50858210156200049f5787850151600019600388901b60f8161c191681555b5050505050600190811b01905550565b6000808354620004bf8162000354565b60018281168015620004da5760018114620004f05762000521565b60ff198416875282151583028701945062000521565b8760005260208060002060005b85811015620005185781548a820152908401908201620004fd565b50505082870194505b50929695505050505050565b60805160a05160c05160e051611a9c62000591600039600081816103d4015281816105e701528181610701015281816109e001528181610a7f01528181610dbe0152610e20015260006109bc01526000610987015260006103140152611a9c6000f3fe608060405234801561001057600080fd5b506004361061021c5760003560e01c80637a8c63b511610125578063b7009613116100ad578063dd62ed3e1161007c578063dd62ed3e1461051a578063e688747b14610545578063ea7ca2761461057b578063ed0d0efb146105b2578063f2fde38b146105d257600080fd5b8063b7009613146104b8578063bf7e214f146104cb578063c53a3985146104de578063d505accf1461050757600080fd5b806395d89b41116100f457806395d89b41146104545780639dc29fac1461045c578063a0712d681461046f578063a9059cbb14610482578063aed307771461049557600080fd5b80637a8c63b5146103cf5780637a9e5e4b146103f65780637ecebe00146104095780638da5cb5b1461042957600080fd5b806323b872dd116101a857806342966c681161017757806342966c68146103635780634b5159da1461037657806367aff4841461038957806370a082311461039c578063728b952b146103bc57600080fd5b806323b872dd146102fc578063313ce5671461030f5780633644e5151461034857806340c10f191461035057600080fd5b8063095ea7b3116101ef578063095ea7b3146102915780630bade8a4146102b45780630ea9b75b146102d757806318160ddd146102ea578063239c70ae146102f357600080fd5b806305f05a941461022157806306a36aee1461023657806306fdde0314610269578063088a4ed01461027e575b600080fd5b61023461022f366004611502565b6105e5565b005b61025661024436600461153b565b60096020526000908152604090205481565b6040519081526020015b60405180910390f35b610271610671565b6040516102609190611558565b61023461028c3660046115a6565b6106ff565b6102a461029f3660046115bf565b61075c565b6040519015158152602001610260565b6102a46102c2366004611608565b600a6020526000908152604090205460ff1681565b6102346102e5366004611634565b6107c9565b61025660025481565b610256600c5481565b6102a461030a36600461167b565b6108a1565b6103367f000000000000000000000000000000000000000000000000000000000000000081565b60405160ff9091168152602001610260565b610256610983565b61023461035e3660046115bf565b6109de565b6102346103713660046115a6565b610a7d565b6102346103843660046116bc565b610ae2565b6102346103973660046116d8565b610b74565b6102566103aa36600461153b565b60036020526000908152604090205481565b6102346103ca366004611706565b610c3c565b6102a47f000000000000000000000000000000000000000000000000000000000000000081565b61023461040436600461153b565b610cc5565b61025661041736600461153b565b60056020526000908152604090205481565b60065461043c906001600160a01b031681565b6040516001600160a01b039091168152602001610260565b610271610daf565b61023461046a3660046115bf565b610dbc565b61023461047d3660046115a6565b610e1e565b6102a46104903660046115bf565b610eb9565b6102a46104a336600461153b565b600d6020526000908152604090205460ff1681565b6102a46104c6366004611734565b610f1f565b60075461043c906001600160a01b031681565b61043c6104ec36600461153b565b6008602052600090815260409020546001600160a01b031681565b61023461051536600461177b565b61101d565b610256610528366004611706565b600460209081526000928352604080842090915290825290205481565b6102a46105533660046117e9565b6001600160e01b0319166000908152600b602052604090205460ff919091161c600116151590565b6102a461058936600461181c565b6001600160a01b0391909116600090815260096020526040902054600160ff9092161c16151590565b6102566105c0366004611608565b600b6020526000908152604090205481565b6102346105e036600461153b565b611261565b7f00000000000000000000000000000000000000000000000000000000000000001561064657610621336000356001600160e01b0319166112df565b6106465760405162461bcd60e51b815260040161063d90611848565b60405180910390fd5b6001600160a01b03919091166000908152600d60205260409020805460ff1916911515919091179055565b6000805461067e9061187f565b80601f01602080910402602001604051908101604052809291908181526020018280546106aa9061187f565b80156106f75780601f106106cc576101008083540402835291602001916106f7565b820191906000526020600020905b8154815290600101906020018083116106da57829003601f168201915b505050505081565b7f0000000000000000000000000000000000000000000000000000000000000000156107575761073b336000356001600160e01b0319166112df565b6107575760405162461bcd60e51b815260040161063d90611848565b600c55565b3360008181526004602090815260408083206001600160a01b038716808552925280832085905551919290917f8c5be1e5ebec7d5bd14f71427d1e84f3dd0314c0f7b2291e5b200ac8c7c3b925906107b79086815260200190565b60405180910390a35060015b92915050565b6107df336000356001600160e01b0319166112df565b6107fb5760405162461bcd60e51b815260040161063d906118b9565b801561082b576001600160e01b031982166000908152600b602052604090208054600160ff86161b179055610852565b6001600160e01b031982166000908152600b602052604090208054600160ff86161b191690555b816001600160e01b0319168360ff167fbfe16b2c35ce23dfd1ab0e7b5d086a10060c9b52d1574e1680c881b3b3a2b15183604051610894911515815260200190565b60405180910390a3505050565b6001600160a01b038316600090815260046020908152604080832033845290915281205460001981146108fd576108d883826118f5565b6001600160a01b03861660009081526004602090815260408083203384529091529020555b6001600160a01b038516600090815260036020526040812080548592906109259084906118f5565b90915550506001600160a01b0380851660008181526003602052604090819020805487019055519091871690600080516020611a478339815191529061096e9087815260200190565b60405180910390a360019150505b9392505050565b60007f000000000000000000000000000000000000000000000000000000000000000046146109b9576109b4611389565b905090565b507f000000000000000000000000000000000000000000000000000000000000000090565b7f000000000000000000000000000000000000000000000000000000000000000015610a3657610a1a336000356001600160e01b0319166112df565b610a365760405162461bcd60e51b815260040161063d90611848565b336000908152600d602052604090205460ff16610a6f57600c54811115610a6f5760405162461bcd60e51b815260040161063d90611908565b610a798282611423565b5050565b7f000000000000000000000000000000000000000000000000000000000000000015610ad557610ab9336000356001600160e01b0319166112df565b610ad55760405162461bcd60e51b815260040161063d90611848565b610adf338261147d565b50565b610af8336000356001600160e01b0319166112df565b610b145760405162461bcd60e51b815260040161063d906118b9565b6001600160e01b031982166000818152600a6020908152604091829020805460ff191685151590811790915591519182527f36d28126bef21a4f3765d7fcb7c45cead463ae4c41094ef3b771ede598544103910160405180910390a25050565b610b8a336000356001600160e01b0319166112df565b610ba65760405162461bcd60e51b815260040161063d906118b9565b8015610bd5576001600160a01b03831660009081526009602052604090208054600160ff85161b179055610bfb565b6001600160a01b03831660009081526009602052604090208054600160ff85161b191690555b8160ff16836001600160a01b03167f4c9bdd0c8e073eb5eda2250b18d8e5121ff27b62064fbeeeed4869bb99bc5bf283604051610894911515815260200190565b610c52336000356001600160e01b0319166112df565b610c6e5760405162461bcd60e51b815260040161063d906118b9565b6001600160a01b0382811660008181526008602052604080822080546001600160a01b0319169486169485179055517fa4908e11a5f895b13d51526c331ac93cdd30e59772361c5d07874eb36bff20659190a35050565b6006546001600160a01b0316331480610d5a575060075460405163b700961360e01b81526001600160a01b039091169063b700961390610d1990339030906001600160e01b0319600035169060040161194a565b602060405180830381865afa158015610d36573d6000803e3d6000fd5b505050506040513d601f19601f82011682018060405250810190610d5a9190611977565b610d6357600080fd5b600780546001600160a01b0319166001600160a01b03831690811790915560405133907fa3396fd7f6e0a21b50e5089d2da70d5ac0a3bbbd1f617a93f134b7638998019890600090a350565b6001805461067e9061187f565b7f000000000000000000000000000000000000000000000000000000000000000015610e1457610df8336000356001600160e01b0319166112df565b610e145760405162461bcd60e51b815260040161063d90611848565b610a79828261147d565b7f000000000000000000000000000000000000000000000000000000000000000015610e7657610e5a336000356001600160e01b0319166112df565b610e765760405162461bcd60e51b815260040161063d90611848565b336000908152600d602052604090205460ff16610eaf57600c54811115610eaf5760405162461bcd60e51b815260040161063d90611908565b610adf3382611423565b33600090815260036020526040812080548391908390610eda9084906118f5565b90915550506001600160a01b03831660008181526003602052604090819020805485019055513390600080516020611a47833981519152906107b79086815260200190565b6001600160a01b038083166000908152600860205260408120549091168015610fbb5760405163b700961360e01b81526001600160a01b0382169063b700961390610f729088908890889060040161194a565b602060405180830381865afa158015610f8f573d6000803e3d6000fd5b505050506040513d601f19601f82011682018060405250810190610fb39190611977565b91505061097c565b6001600160e01b031983166000908152600a602052604090205460ff168061101457506001600160e01b031983166000908152600b60209081526040808320546001600160a01b03891684526009909252909120541615155b95945050505050565b4284101561106d5760405162461bcd60e51b815260206004820152601760248201527f5045524d49545f444541444c494e455f45585049524544000000000000000000604482015260640161063d565b60006001611079610983565b6001600160a01b038a811660008181526005602090815260409182902080546001810190915582517f6e71edae12b1b97f4d1f60370fef10105fa2faae0126114a169c64845d6126c98184015280840194909452938d166060840152608083018c905260a083019390935260c08083018b90528151808403909101815260e08301909152805192019190912061190160f01b6101008301526101028201929092526101228101919091526101420160408051601f198184030181528282528051602091820120600084529083018083525260ff871690820152606081018590526080810184905260a0016020604051602081039080840390855afa158015611185573d6000803e3d6000fd5b5050604051601f1901519150506001600160a01b038116158015906111bb5750876001600160a01b0316816001600160a01b0316145b6111f85760405162461bcd60e51b815260206004820152600e60248201526d24a72b20a624a22fa9a4a3a722a960911b604482015260640161063d565b6001600160a01b0390811660009081526004602090815260408083208a8516808552908352928190208990555188815291928a16917f8c5be1e5ebec7d5bd14f71427d1e84f3dd0314c0f7b2291e5b200ac8c7c3b925910160405180910390a350505050505050565b611277336000356001600160e01b0319166112df565b6112935760405162461bcd60e51b815260040161063d906118b9565b600680546001600160a01b0319166001600160a01b03831690811790915560405133907f8be0079c531659141344cd1fd0a4f28419497f9722a3daafe3b4186f6b6457e090600090a350565b6007546000906001600160a01b03168015801590611369575060405163b700961360e01b81526001600160a01b0382169063b7009613906113289087903090889060040161194a565b602060405180830381865afa158015611345573d6000803e3d6000fd5b505050506040513d601f19601f820116820180604052508101906113699190611977565b8061138157506006546001600160a01b038581169116145b949350505050565b60007f8b73c3c69bb8fe3d512ecc4cf759cc79239f7b179b0ffacaa9a75d522b39400f60006040516113bb9190611994565b6040805191829003822060208301939093528101919091527fc89efdaa54c0f20c7adf612882df0950f5a951637e0307cdcb4c672f298b8bc660608201524660808201523060a082015260c00160405160208183030381529060405280519060200120905090565b80600260008282546114359190611a33565b90915550506001600160a01b038216600081815260036020908152604080832080548601905551848152600080516020611a4783398151915291015b60405180910390a35050565b6001600160a01b038216600090815260036020526040812080548392906114a59084906118f5565b90915550506002805482900390556040518181526000906001600160a01b03841690600080516020611a4783398151915290602001611471565b6001600160a01b0381168114610adf57600080fd5b8015158114610adf57600080fd5b6000806040838503121561151557600080fd5b8235611520816114df565b91506020830135611530816114f4565b809150509250929050565b60006020828403121561154d57600080fd5b813561097c816114df565b600060208083528351808285015260005b8181101561158557858101830151858201604001528201611569565b506000604082860101526040601f19601f8301168501019250505092915050565b6000602082840312156115b857600080fd5b5035919050565b600080604083850312156115d257600080fd5b82356115dd816114df565b946020939093013593505050565b80356001600160e01b03198116811461160357600080fd5b919050565b60006020828403121561161a57600080fd5b61097c826115eb565b803560ff8116811461160357600080fd5b60008060006060848603121561164957600080fd5b61165284611623565b9250611660602085016115eb565b91506040840135611670816114f4565b809150509250925092565b60008060006060848603121561169057600080fd5b833561169b816114df565b925060208401356116ab816114df565b929592945050506040919091013590565b600080604083850312156116cf57600080fd5b611520836115eb565b6000806000606084860312156116ed57600080fd5b83356116f8816114df565b925061166060208501611623565b6000806040838503121561171957600080fd5b8235611724816114df565b91506020830135611530816114df565b60008060006060848603121561174957600080fd5b8335611754816114df565b92506020840135611764816114df565b9150611772604085016115eb565b90509250925092565b600080600080600080600060e0888a03121561179657600080fd5b87356117a1816114df565b965060208801356117b1816114df565b955060408801359450606088013593506117cd60808901611623565b925060a0880135915060c0880135905092959891949750929550565b600080604083850312156117fc57600080fd5b61180583611623565b9150611813602084016115eb565b90509250929050565b6000806040838503121561182f57600080fd5b823561183a816114df565b915061181360208401611623565b6020808252601d908201527f45524332304d696e7461626c653a206e6f7420617574686f72697a6564000000604082015260600190565b600181811c9082168061189357607f821691505b6020821081036118b357634e487b7160e01b600052602260045260246000fd5b50919050565b6020808252600c908201526b15539055551213d49256915160a21b604082015260600190565b634e487b7160e01b600052601160045260246000fd5b818103818111156107c3576107c36118df565b60208082526022908201527f45524332304d696e7461626c653a20496e76616c6964206d696e7420616d6f756040820152611b9d60f21b606082015260800190565b6001600160a01b0393841681529190921660208201526001600160e01b0319909116604082015260600190565b60006020828403121561198957600080fd5b815161097c816114f4565b600080835481600182811c9150808316806119b057607f831692505b602080841082036119cf57634e487b7160e01b86526022600452602486fd5b8180156119e357600181146119f857611a25565b60ff1986168952841515850289019650611a25565b60008a81526020902060005b86811015611a1d5781548b820152908501908301611a04565b505084890196505b509498975050505050505050565b808201808211156107c3576107c36118df56feddf252ad1be2c89b69c2b068fc378daa952ba7f163c4a11628f55a4df523b3efa2646970667358221220143a6fa0ddee98915aa91eb4a123ac77f5e6de1f89dfe0a8f7b631a33c59103164736f6c63430008140033","linkReferences":{}},"methodIdentifiers":{"DOMAIN_SEPARATOR()":"3644e515","allowance(address,address)":"dd62ed3e","approve(address,uint256)":"095ea7b3","authority()":"bf7e214f","balanceOf(address)":"70a08231","burn(address,uint256)":"9dc29fac","burn(uint256)":"42966c68","canCall(address,address,bytes4)":"b7009613","decimals()":"313ce567","doesRoleHaveCapability(uint8,bytes4)":"e688747b","doesUserHaveRole(address,uint8)":"ea7ca276","getRolesWithCapability(bytes4)":"ed0d0efb","getTargetCustomAuthority(address)":"c53a3985","getUserRoles(address)":"06a36aee","isCapabilityPublic(bytes4)":"0bade8a4","isCompetitionMode()":"7a8c63b5","isUnrestricted(address)":"aed30777","maxMintAmount()":"239c70ae","mint(address,uint256)":"40c10f19","mint(uint256)":"a0712d68","name()":"06fdde03","nonces(address)":"7ecebe00","owner()":"8da5cb5b","permit(address,address,uint256,uint256,uint8,bytes32,bytes32)":"d505accf","setAuthority(address)":"7a9e5e4b","setMaxMintAmount(uint256)":"088a4ed0","setPublicCapability(bytes4,bool)":"4b5159da","setRoleCapability(uint8,bytes4,bool)":"0ea9b75b","setTargetCustomAuthority(address,address)":"728b952b","setUnrestrictedMintStatus(address,bool)":"05f05a94","setUserRole(address,uint8,bool)":"67aff484","symbol()":"95d89b41","totalSupply()":"18160ddd","transfer(address,uint256)":"a9059cbb","transferFrom(address,address,uint256)":"23b872dd","transferOwnership(address)":"f2fde38b"},"id":122}