{"abi":[{"type":"constructor","inputs":[{"name":"_config","type":"tuple","internalType":"struct IHyperdrive.PoolConfig","components":[{"name":"baseToken","type":"address","internalType":"contract IERC20"},{"name":"linkerFactory","type":"address","internalType":"address"},{"name":"linkerCodeHash","type":"bytes32","internalType":"bytes32"},{"name":"initialVaultSharePrice","type":"uint256","internalType":"uint256"},{"name":"minimumShareReserves","type":"uint256","internalType":"uint256"},{"name":"minimumTransactionAmount","type":"uint256","internalType":"uint256"},{"name":"positionDuration","type":"uint256","internalType":"uint256"},{"name":"checkpointDuration","type":"uint256","internalType":"uint256"},{"name":"timeStretch","type":"uint256","internalType":"uint256"},{"name":"governance","type":"address","internalType":"address"},{"name":"feeCollector","type":"address","internalType":"address"},{"name":"fees","type":"tuple","internalType":"struct IHyperdrive.Fees","components":[{"name":"curve","type":"uint256","internalType":"uint256"},{"name":"flat","type":"uint256","internalType":"uint256"},{"name":"governanceLP","type":"uint256","internalType":"uint256"},{"name":"governanceZombie","type":"uint256","internalType":"uint256"}]}]},{"name":"_target0","type":"address","internalType":"address"},{"name":"_target1","type":"address","internalType":"address"},{"name":"_target2","type":"address","internalType":"address"},{"name":"_target3","type":"address","internalType":"address"},{"name":"_target4","type":"address","internalType":"address"},{"name":"__vault","type":"address","internalType":"contract IERC4626"}],"stateMutability":"nonpayable"},{"type":"fallback","stateMutability":"nonpayable"},{"type":"function","name":"DOMAIN_SEPARATOR","inputs":[],"outputs":[{"name":"","type":"bytes32","internalType":"bytes32"}],"stateMutability":"view"},{"type":"function","name":"PERMIT_TYPEHASH","inputs":[],"outputs":[{"name":"","type":"bytes32","internalType":"bytes32"}],"stateMutability":"view"},{"type":"function","name":"addLiquidity","inputs":[{"name":"","type":"uint256","internalType":"uint256"},{"name":"","type":"uint256","internalType":"uint256"},{"name":"","type":"uint256","internalType":"uint256"},{"name":"","type":"uint256","internalType":"uint256"},{"name":"","type":"tuple","internalType":"struct IHyperdrive.Options","components":[{"name":"destination","type":"address","internalType":"address"},{"name":"asBase","type":"bool","internalType":"bool"},{"name":"extraData","type":"bytes","internalType":"bytes"}]}],"outputs":[{"name":"","type":"uint256","internalType":"uint256"}],"stateMutability":"payable"},{"type":"function","name":"batchTransferFrom","inputs":[{"name":"","type":"address","internalType":"address"},{"name":"","type":"address","internalType":"address"},{"name":"","type":"uint256[]","internalType":"uint256[]"},{"name":"","type":"uint256[]","internalType":"uint256[]"}],"outputs":[],"stateMutability":"nonpayable"},{"type":"function","name":"checkpoint","inputs":[{"name":"","type":"uint256","internalType":"uint256"}],"outputs":[],"stateMutability":"nonpayable"},{"type":"function","name":"closeLong","inputs":[{"name":"","type":"uint256","internalType":"uint256"},{"name":"","type":"uint256","internalType":"uint256"},{"name":"","type":"uint256","internalType":"uint256"},{"name":"","type":"tuple","internalType":"struct IHyperdrive.Options","components":[{"name":"destination","type":"address","internalType":"address"},{"name":"asBase","type":"bool","internalType":"bool"},{"name":"extraData","type":"bytes","internalType":"bytes"}]}],"outputs":[{"name":"","type":"uint256","internalType":"uint256"}],"stateMutability":"nonpayable"},{"type":"function","name":"closeShort","inputs":[{"name":"","type":"uint256","internalType":"uint256"},{"name":"","type":"uint256","internalType":"uint256"},{"name":"","type":"uint256","internalType":"uint256"},{"name":"","type":"tuple","internalType":"struct IHyperdrive.Options","components":[{"name":"destination","type":"address","internalType":"address"},{"name":"asBase","type":"bool","internalType":"bool"},{"name":"extraData","type":"bytes","internalType":"bytes"}]}],"outputs":[{"name":"","type":"uint256","internalType":"uint256"}],"stateMutability":"nonpayable"},{"type":"function","name":"collectGovernanceFee","inputs":[{"name":"","type":"tuple","internalType":"struct IHyperdrive.Options","components":[{"name":"destination","type":"address","internalType":"address"},{"name":"asBase","type":"bool","internalType":"bool"},{"name":"extraData","type":"bytes","internalType":"bytes"}]}],"outputs":[{"name":"","type":"uint256","internalType":"uint256"}],"stateMutability":"nonpayable"},{"type":"function","name":"initialize","inputs":[{"name":"","type":"uint256","internalType":"uint256"},{"name":"","type":"uint256","internalType":"uint256"},{"name":"","type":"tuple","internalType":"struct IHyperdrive.Options","components":[{"name":"destination","type":"address","internalType":"address"},{"name":"asBase","type":"bool","internalType":"bool"},{"name":"extraData","type":"bytes","internalType":"bytes"}]}],"outputs":[{"name":"","type":"uint256","internalType":"uint256"}],"stateMutability":"payable"},{"type":"function","name":"openLong","inputs":[{"name":"","type":"uint256","internalType":"uint256"},{"name":"","type":"uint256","internalType":"uint256"},{"name":"","type":"uint256","internalType":"uint256"},{"name":"","type":"tuple","internalType":"struct IHyperdrive.Options","components":[{"name":"destination","type":"address","internalType":"address"},{"name":"asBase","type":"bool","internalType":"bool"},{"name":"extraData","type":"bytes","internalType":"bytes"}]}],"outputs":[{"name":"","type":"uint256","internalType":"uint256"},{"name":"","type":"uint256","internalType":"uint256"}],"stateMutability":"payable"},{"type":"function","name":"openShort","inputs":[{"name":"","type":"uint256","internalType":"uint256"},{"name":"","type":"uint256","internalType":"uint256"},{"name":"","type":"uint256","internalType":"uint256"},{"name":"","type":"tuple","internalType":"struct IHyperdrive.Options","components":[{"name":"destination","type":"address","internalType":"address"},{"name":"asBase","type":"bool","internalType":"bool"},{"name":"extraData","type":"bytes","internalType":"bytes"}]}],"outputs":[{"name":"","type":"uint256","internalType":"uint256"},{"name":"","type":"uint256","internalType":"uint256"}],"stateMutability":"payable"},{"type":"function","name":"pause","inputs":[{"name":"","type":"bool","internalType":"bool"}],"outputs":[],"stateMutability":"nonpayable"},{"type":"function","name":"permitForAll","inputs":[{"name":"owner","type":"address","internalType":"address"},{"name":"spender","type":"address","internalType":"address"},{"name":"_approved","type":"bool","internalType":"bool"},{"name":"deadline","type":"uint256","internalType":"uint256"},{"name":"v","type":"uint8","internalType":"uint8"},{"name":"r","type":"bytes32","internalType":"bytes32"},{"name":"s","type":"bytes32","internalType":"bytes32"}],"outputs":[],"stateMutability":"nonpayable"},{"type":"function","name":"redeemWithdrawalShares","inputs":[{"name":"","type":"uint256","internalType":"uint256"},{"name":"","type":"uint256","internalType":"uint256"},{"name":"","type":"tuple","internalType":"struct IHyperdrive.Options","components":[{"name":"destination","type":"address","internalType":"address"},{"name":"asBase","type":"bool","internalType":"bool"},{"name":"extraData","type":"bytes","internalType":"bytes"}]}],"outputs":[{"name":"","type":"uint256","internalType":"uint256"},{"name":"","type":"uint256","internalType":"uint256"}],"stateMutability":"nonpayable"},{"type":"function","name":"removeLiquidity","inputs":[{"name":"","type":"uint256","internalType":"uint256"},{"name":"","type":"uint256","internalType":"uint256"},{"name":"","type":"tuple","internalType":"struct IHyperdrive.Options","components":[{"name":"destination","type":"address","internalType":"address"},{"name":"asBase","type":"bool","internalType":"bool"},{"name":"extraData","type":"bytes","internalType":"bytes"}]}],"outputs":[{"name":"","type":"uint256","internalType":"uint256"},{"name":"","type":"uint256","internalType":"uint256"}],"stateMutability":"nonpayable"},{"type":"function","name":"setApproval","inputs":[{"name":"","type":"uint256","internalType":"uint256"},{"name":"","type":"address","internalType":"address"},{"name":"","type":"uint256","internalType":"uint256"}],"outputs":[],"stateMutability":"nonpayable"},{"type":"function","name":"setApprovalBridge","inputs":[{"name":"","type":"uint256","internalType":"uint256"},{"name":"","type":"address","internalType":"address"},{"name":"","type":"uint256","internalType":"uint256"},{"name":"","type":"address","internalType":"address"}],"outputs":[],"stateMutability":"nonpayable"},{"type":"function","name":"setApprovalForAll","inputs":[{"name":"","type":"address","internalType":"address"},{"name":"","type":"bool","internalType":"bool"}],"outputs":[],"stateMutability":"nonpayable"},{"type":"function","name":"setGovernance","inputs":[{"name":"","type":"address","internalType":"address"}],"outputs":[],"stateMutability":"nonpayable"},{"type":"function","name":"setPauser","inputs":[{"name":"","type":"address","internalType":"address"},{"name":"","type":"bool","internalType":"bool"}],"outputs":[],"stateMutability":"nonpayable"},{"type":"function","name":"sweep","inputs":[{"name":"","type":"address","internalType":"contract IERC20"}],"outputs":[],"stateMutability":"nonpayable"},{"type":"function","name":"target0","inputs":[],"outputs":[{"name":"","type":"address","internalType":"address"}],"stateMutability":"view"},{"type":"function","name":"target1","inputs":[],"outputs":[{"name":"","type":"address","internalType":"address"}],"stateMutability":"view"},{"type":"function","name":"target2","inputs":[],"outputs":[{"name":"","type":"address","internalType":"address"}],"stateMutability":"view"},{"type":"function","name":"target3","inputs":[],"outputs":[{"name":"","type":"address","internalType":"address"}],"stateMutability":"view"},{"type":"function","name":"target4","inputs":[],"outputs":[{"name":"","type":"address","internalType":"address"}],"stateMutability":"view"},{"type":"function","name":"transferFrom","inputs":[{"name":"","type":"uint256","internalType":"uint256"},{"name":"","type":"address","internalType":"address"},{"name":"","type":"address","internalType":"address"},{"name":"","type":"uint256","internalType":"uint256"}],"outputs":[],"stateMutability":"nonpayable"},{"type":"function","name":"transferFromBridge","inputs":[{"name":"","type":"uint256","internalType":"uint256"},{"name":"","type":"address","internalType":"address"},{"name":"","type":"address","internalType":"address"},{"name":"","type":"uint256","internalType":"uint256"},{"name":"","type":"address","internalType":"address"}],"outputs":[],"stateMutability":"nonpayable"},{"type":"event","name":"AddLiquidity","inputs":[{"name":"provider","type":"address","indexed":true,"internalType":"address"},{"name":"lpAmount","type":"uint256","indexed":false,"internalType":"uint256"},{"name":"baseAmount","type":"uint256","indexed":false,"internalType":"uint256"},{"name":"vaultSharePrice","type":"uint256","indexed":false,"internalType":"uint256"},{"name":"lpSharePrice","type":"uint256","indexed":false,"internalType":"uint256"}],"anonymous":false},{"type":"event","name":"Approval","inputs":[{"name":"owner","type":"address","indexed":true,"internalType":"address"},{"name":"spender","type":"address","indexed":true,"internalType":"address"},{"name":"value","type":"uint256","indexed":false,"internalType":"uint256"}],"anonymous":false},{"type":"event","name":"ApprovalForAll","inputs":[{"name":"account","type":"address","indexed":true,"internalType":"address"},{"name":"operator","type":"address","indexed":true,"internalType":"address"},{"name":"approved","type":"bool","indexed":false,"internalType":"bool"}],"anonymous":false},{"type":"event","name":"CloseLong","inputs":[{"name":"trader","type":"address","indexed":true,"internalType":"address"},{"name":"assetId","type":"uint256","indexed":true,"internalType":"uint256"},{"name":"maturityTime","type":"uint256","indexed":false,"internalType":"uint256"},{"name":"baseAmount","type":"uint256","indexed":false,"internalType":"uint256"},{"name":"vaultSharePrice","type":"uint256","indexed":false,"internalType":"uint256"},{"name":"bondAmount","type":"uint256","indexed":false,"internalType":"uint256"}],"anonymous":false},{"type":"event","name":"CloseShort","inputs":[{"name":"trader","type":"address","indexed":true,"internalType":"address"},{"name":"assetId","type":"uint256","indexed":true,"internalType":"uint256"},{"name":"maturityTime","type":"uint256","indexed":false,"internalType":"uint256"},{"name":"baseAmount","type":"uint256","indexed":false,"internalType":"uint256"},{"name":"vaultSharePrice","type":"uint256","indexed":false,"internalType":"uint256"},{"name":"bondAmount","type":"uint256","indexed":false,"internalType":"uint256"}],"anonymous":false},{"type":"event","name":"CollectGovernanceFee","inputs":[{"name":"collector","type":"address","indexed":true,"internalType":"address"},{"name":"fees","type":"uint256","indexed":false,"internalType":"uint256"}],"anonymous":false},{"type":"event","name":"CreateCheckpoint","inputs":[{"name":"checkpointTime","type":"uint256","indexed":true,"internalType":"uint256"},{"name":"vaultSharePrice","type":"uint256","indexed":false,"internalType":"uint256"},{"name":"maturedShorts","type":"uint256","indexed":false,"internalType":"uint256"},{"name":"maturedLongs","type":"uint256","indexed":false,"internalType":"uint256"},{"name":"lpSharePrice","type":"uint256","indexed":false,"internalType":"uint256"}],"anonymous":false},{"type":"event","name":"GovernanceUpdated","inputs":[{"name":"newGovernance","type":"address","indexed":true,"internalType":"address"}],"anonymous":false},{"type":"event","name":"Initialize","inputs":[{"name":"provider","type":"address","indexed":true,"internalType":"address"},{"name":"lpAmount","type":"uint256","indexed":false,"internalType":"uint256"},{"name":"baseAmount","type":"uint256","indexed":false,"internalType":"uint256"},{"name":"vaultSharePrice","type":"uint256","indexed":false,"internalType":"uint256"},{"name":"apr","type":"uint256","indexed":false,"internalType":"uint256"}],"anonymous":false},{"type":"event","name":"OpenLong","inputs":[{"name":"trader","type":"address","indexed":true,"internalType":"address"},{"name":"assetId","type":"uint256","indexed":true,"internalType":"uint256"},{"name":"maturityTime","type":"uint256","indexed":false,"internalType":"uint256"},{"name":"baseAmount","type":"uint256","indexed":false,"internalType":"uint256"},{"name":"vaultSharePrice","type":"uint256","indexed":false,"internalType":"uint256"},{"name":"bondAmount","type":"uint256","indexed":false,"internalType":"uint256"}],"anonymous":false},{"type":"event","name":"OpenShort","inputs":[{"name":"trader","type":"address","indexed":true,"internalType":"address"},{"name":"assetId","type":"uint256","indexed":true,"internalType":"uint256"},{"name":"maturityTime","type":"uint256","indexed":false,"internalType":"uint256"},{"name":"baseAmount","type":"uint256","indexed":false,"internalType":"uint256"},{"name":"vaultSharePrice","type":"uint256","indexed":false,"internalType":"uint256"},{"name":"bondAmount","type":"uint256","indexed":false,"internalType":"uint256"}],"anonymous":false},{"type":"event","name":"PauseStatusUpdated","inputs":[{"name":"isPaused","type":"bool","indexed":false,"internalType":"bool"}],"anonymous":false},{"type":"event","name":"PauserUpdated","inputs":[{"name":"newPauser","type":"address","indexed":true,"internalType":"address"}],"anonymous":false},{"type":"event","name":"RedeemWithdrawalShares","inputs":[{"name":"provider","type":"address","indexed":true,"internalType":"address"},{"name":"withdrawalShareAmount","type":"uint256","indexed":false,"internalType":"uint256"},{"name":"baseAmount","type":"uint256","indexed":false,"internalType":"uint256"},{"name":"vaultSharePrice","type":"uint256","indexed":false,"internalType":"uint256"}],"anonymous":false},{"type":"event","name":"RemoveLiquidity","inputs":[{"name":"provider","type":"address","indexed":true,"internalType":"address"},{"name":"lpAmount","type":"uint256","indexed":false,"internalType":"uint256"},{"name":"baseAmount","type":"uint256","indexed":false,"internalType":"uint256"},{"name":"vaultSharePrice","type":"uint256","indexed":false,"internalType":"uint256"},{"name":"withdrawalShareAmount","type":"uint256","indexed":false,"internalType":"uint256"},{"name":"lpSharePrice","type":"uint256","indexed":false,"internalType":"uint256"}],"anonymous":false},{"type":"event","name":"TransferSingle","inputs":[{"name":"operator","type":"address","indexed":true,"internalType":"address"},{"name":"from","type":"address","indexed":true,"internalType":"address"},{"name":"to","type":"address","indexed":true,"internalType":"address"},{"name":"id","type":"uint256","indexed":false,"internalType":"uint256"},{"name":"value","type":"uint256","indexed":false,"internalType":"uint256"}],"anonymous":false},{"type":"error","name":"AddressEmptyCode","inputs":[{"name":"target","type":"address","internalType":"address"}]},{"type":"error","name":"AddressInsufficientBalance","inputs":[{"name":"account","type":"address","internalType":"address"}]},{"type":"error","name":"FailedInnerCall","inputs":[]},{"type":"error","name":"InvalidBaseToken","inputs":[]},{"type":"error","name":"ReentrancyGuardReentrantCall","inputs":[]},{"type":"error","name":"SafeERC20FailedOperation","inputs":[{"name":"token","type":"address","internalType":"address"}]},{"type":"error","name":"UnexpectedSuccess","inputs":[]}],"bytecode":{"object":"0x6103206040523480156200001257600080fd5b5060405162001a3f38038062001a3f8339810160408190526200003591620006b3565b6001600081905587516001600160a01b0390811660809081526060808b015161018052908a01516101a05260a0808b01516101c05260e0808c015190915260c0808c01519052610100808c0151909152610160808c0180515190925281516020908101516101209081528351604090810151610140908152945190950151909252808d0151851661020052838d015161022052908c0151600880549186166001600160a01b0319909216919091179055908b015183166101e052828a166102405282891661026052828816610280528287166102a0529185166102c05280518082018252928352603160f81b9282019290925290518291899189918991899189918991620001aa917f2aef22f9d7df5f9d21c56d14029233f3fdaa91917727e1eb68e504d27072d6cd917fc89efdaa54c0f20c7adf612882df0950f5a951637e0307cdcb4c672f298b8bc6914691309101938452602084019290925260408301526001600160a01b0316606082015260800190565b60408051601f1981840301815282825280516020918201206102e0526001600160a01b039099166103008190526338d52e0f60e01b8352905190986338d52e0f98506004808401985090965090945090849003019150829050865afa15801562000218573d6000803e3d6000fd5b505050506040513d601f19601f820116820180604052508101906200023e919062000809565b6001600160a01b031687600001516001600160a01b0316146200027457604051630722152560e11b815260040160405180910390fd5b61030051875162000293916001600160a01b03909116906001620002a0565b505050505050506200087e565b604080516001600160a01b038416602482015260448082018490528251808303909101815260649091019091526020810180516001600160e01b0390811663095ea7b360e01b17909152620002fa90859083906200036c16565b6200036657604080516001600160a01b038516602482015260006044808301919091528251808303909101815260649091019091526020810180516001600160e01b0390811663095ea7b360e01b179091526200035a9186916200041d16565b6200036684826200041d565b50505050565b6000806000846001600160a01b0316846040516200038b919062000829565b6000604051808303816000865af19150503d8060008114620003ca576040519150601f19603f3d011682016040523d82523d6000602084013e620003cf565b606091505b5091509150818015620003fd575080511580620003fd575080806020019051810190620003fd91906200085a565b80156200041457506000856001600160a01b03163b115b95945050505050565b6000620004346001600160a01b0384168362000490565b905080516000141580156200045c5750808060200190518101906200045a91906200085a565b155b156200048b57604051635274afe760e01b81526001600160a01b03841660048201526024015b60405180910390fd5b505050565b6060620004a083836000620004a7565b9392505050565b606081471015620004ce5760405163cd78605960e01b815230600482015260240162000482565b600080856001600160a01b03168486604051620004ec919062000829565b60006040518083038185875af1925050503d80600081146200052b576040519150601f19603f3d011682016040523d82523d6000602084013e62000530565b606091505b509092509050620005438683836200054d565b9695505050505050565b60608262000566576200056082620005b1565b620004a0565b81511580156200057e57506001600160a01b0384163b155b15620005a957604051639996b31560e01b81526001600160a01b038516600482015260240162000482565b5080620004a0565b805115620005c25780518082602001fd5b604051630a12f52160e11b815260040160405180910390fd5b50565b60405161018081016001600160401b03811182821017156200061057634e487b7160e01b600052604160045260246000fd5b60405290565b6001600160a01b0381168114620005db57600080fd5b8051620006398162000616565b919050565b6000608082840312156200065157600080fd5b604051608081016001600160401b03811182821017156200068257634e487b7160e01b600052604160045260246000fd5b8060405250809150825181526020830151602082015260408301516040820152606083015160608201525092915050565b60008060008060008060008789036102a0811215620006d157600080fd5b6101e080821215620006e257600080fd5b620006ec620005de565b9150620006f98a6200062c565b82526200070960208b016200062c565b602083015260408a0151604083015260608a0151606083015260808a0151608083015260a08a015160a083015260c08a015160c083015260e08a015160e0830152610100808b0151818401525061012062000766818c016200062c565b908301526101406200077a8b82016200062c565b908301526101606200078f8c8c83016200063e565b8184015250819850620007a4818b016200062c565b97505050620007b761020089016200062c565b9450620007c861022089016200062c565b9350620007d961024089016200062c565b9250620007ea61026089016200062c565b9150620007fb61028089016200062c565b905092959891949750929550565b6000602082840312156200081c57600080fd5b8151620004a08162000616565b6000825160005b818110156200084c576020818601810151858301520162000830565b506000920191825250919050565b6000602082840312156200086d57600080fd5b81518015158114620004a057600080fd5b60805160a05160c05160e05161010051610120516101405161016051610180516101a0516101c0516101e05161020051610220516102405161026051610280516102a0516102c0516102e05161030051611082620009bd600039600050506000818161043e015261081b01526000818161063501526109cd01526000818161057a0152610997015260008181610533015281816107220152610a270152600081816105e10152818161068c0152818161078701526107ea0152600081816101ce015281816103900152818161065c015281816106be015281816106f001528181610756015281816107ba015281816108ac0152818161096501526109f6015260005050600050506000505060005050600050506000505060005050600050506000505060005050600050506000505060005050600050506110826000f3fe6080604052600436106101b75760003560e01c80639032c726116100ec578063d899e1121161008a578063e44808bc11610064578063e44808bc146105af578063eac3e799146105cf578063ed64bab214610603578063f3f7070714610623576101b7565b8063d899e11214610568578063dbbe80701461059c578063ded06231146103ca576101b7565b8063a6e8a859116100c6578063a6e8a85914610521578063ab033ea9146102c7578063cba2e58d14610555578063cbc1343414610304576101b7565b80639032c726146104e15780639cd241af14610501578063a22cb465146104ae576101b7565b806330adf81f116101595780634c2ac1d9116101335780634c2ac1d9146104805780634ed2d6ac146104935780637180c8ca146104ae57806377d05ff4146104ce576101b7565b806330adf81f146103f85780633644e5151461042c5780633e691db914610460576101b7565b806317fad7fc1161019557806317fad7fc1461033e5780631c0f12b61461035e57806321b57d531461037e57806329b23fc1146103ca576101b7565b806301681a62146102c757806302329a29146102e9578063074a6de914610304575b3480156101c357600080fd5b5060003660606000807f00000000000000000000000000000000000000000000000000000000000000006001600160a01b03168585604051610206929190610a63565b600060405180830381855af49150503d8060008114610241576040519150601f19603f3d011682016040523d82523d6000602084013e610246565b606091505b5091509150811561026a57604051638bb0a34b60e01b815260040160405180910390fd5b600061027582610a73565b90506001600160e01b03198116636e64089360e11b1461029757815160208301fd5b8151600319810160048401908152926102b891810160200190602401610ae4565b80519650602001945050505050f35b3480156102d357600080fd5b506102e76102e2366004610ba9565b610657565b005b3480156102f557600080fd5b506102e76102e2366004610be2565b34801561031057600080fd5b5061032461031f366004610c0f565b610684565b604080519283526020830191909152015b60405180910390f35b34801561034a57600080fd5b506102e7610359366004610cab565b6106b9565b34801561036a57600080fd5b506102e7610379366004610d40565b6106eb565b34801561038a57600080fd5b506103b27f000000000000000000000000000000000000000000000000000000000000000081565b6040516001600160a01b039091168152602001610335565b3480156103d657600080fd5b506103ea6103e5366004610d88565b61071b565b604051908152602001610335565b34801561040457600080fd5b506103ea7f65619c8664d6db8aae8c236ad19598696159942a4245b23b45565cc18e97367381565b34801561043857600080fd5b506103ea7f000000000000000000000000000000000000000000000000000000000000000081565b34801561046c57600080fd5b506103ea61047b366004610de2565b61074f565b6103ea61048e366004610e1f565b610780565b34801561049f57600080fd5b506102e7610379366004610e83565b3480156104ba57600080fd5b506102e76104c9366004610ecd565b6107b5565b6103ea6104dc366004610c0f565b6107e3565b3480156104ed57600080fd5b506102e76104fc366004610f02565b610816565b34801561050d57600080fd5b506102e761051c366004610f80565b610960565b34801561052d57600080fd5b506103b27f000000000000000000000000000000000000000000000000000000000000000081565b610324610563366004610d88565b61098f565b34801561057457600080fd5b506103b27f000000000000000000000000000000000000000000000000000000000000000081565b6103246105aa366004610d88565b6109c5565b3480156105bb57600080fd5b506102e76105ca366004610fb8565b6109f1565b3480156105db57600080fd5b506103b27f000000000000000000000000000000000000000000000000000000000000000081565b34801561060f57600080fd5b506102e761061e366004611017565b610a22565b34801561062f57600080fd5b506103b27f000000000000000000000000000000000000000000000000000000000000000081565b6106807f0000000000000000000000000000000000000000000000000000000000000000610a47565b5050565b6000806106b07f0000000000000000000000000000000000000000000000000000000000000000610a47565b50935093915050565b6106e27f0000000000000000000000000000000000000000000000000000000000000000610a47565b50505050505050565b6107147f0000000000000000000000000000000000000000000000000000000000000000610a47565b5050505050565b60006107467f0000000000000000000000000000000000000000000000000000000000000000610a47565b50949350505050565b600061077a7f0000000000000000000000000000000000000000000000000000000000000000610a47565b50919050565b60006107ab7f0000000000000000000000000000000000000000000000000000000000000000610a47565b5095945050505050565b6107de7f0000000000000000000000000000000000000000000000000000000000000000610a47565b505050565b600061080e7f0000000000000000000000000000000000000000000000000000000000000000610a47565b509392505050565b6040517f000000000000000000000000000000000000000000000000000000000000000060248201527f65619c8664d6db8aae8c236ad19598696159942a4245b23b45565cc18e97367360448201526001600160a01b038881166064830152878116608483015286151560a483015260c4820186905260ff851660e48301526101048201849052610124820183905260009182917f000000000000000000000000000000000000000000000000000000000000000016906101440160408051601f198184030181529181526020820180516001600160e01b03166314e5f07b60e01b179052516109069190611030565b600060405180830381855af49150503d8060008114610941576040519150601f19603f3d011682016040523d82523d6000602084013e610946565b606091505b50915091508161095857805160208201fd5b805160208201f35b6109897f0000000000000000000000000000000000000000000000000000000000000000610a47565b50505050565b6000806109bb7f0000000000000000000000000000000000000000000000000000000000000000610a47565b5094509492505050565b6000806109bb7f0000000000000000000000000000000000000000000000000000000000000000610a47565b610a1a7f0000000000000000000000000000000000000000000000000000000000000000610a47565b505050505050565b6106807f00000000000000000000000000000000000000000000000000000000000000005b6060600080836001600160a01b03166000366040516109069291905b8183823760009101908152919050565b805160208201516001600160e01b03198082169291906004831015610aa25780818460040360031b1b83161693505b505050919050565b634e487b7160e01b600052604160045260246000fd5b60005b83811015610adb578181015183820152602001610ac3565b50506000910152565b600060208284031215610af657600080fd5b815167ffffffffffffffff80821115610b0e57600080fd5b818401915084601f830112610b2257600080fd5b815181811115610b3457610b34610aaa565b604051601f8201601f19908116603f01168101908382118183101715610b5c57610b5c610aaa565b81604052828152876020848701011115610b7557600080fd5b610b86836020830160208801610ac0565b979650505050505050565b6001600160a01b0381168114610ba657600080fd5b50565b600060208284031215610bbb57600080fd5b8135610bc681610b91565b9392505050565b80358015158114610bdd57600080fd5b919050565b600060208284031215610bf457600080fd5b610bc682610bcd565b60006060828403121561077a57600080fd5b600080600060608486031215610c2457600080fd5b8335925060208401359150604084013567ffffffffffffffff811115610c4957600080fd5b610c5586828701610bfd565b9150509250925092565b60008083601f840112610c7157600080fd5b50813567ffffffffffffffff811115610c8957600080fd5b6020830191508360208260051b8501011115610ca457600080fd5b9250929050565b60008060008060008060808789031215610cc457600080fd5b8635610ccf81610b91565b95506020870135610cdf81610b91565b9450604087013567ffffffffffffffff80821115610cfc57600080fd5b610d088a838b01610c5f565b90965094506060890135915080821115610d2157600080fd5b50610d2e89828a01610c5f565b979a9699509497509295939492505050565b60008060008060808587031215610d5657600080fd5b843593506020850135610d6881610b91565b92506040850135610d7881610b91565b9396929550929360600135925050565b60008060008060808587031215610d9e57600080fd5b843593506020850135925060408501359150606085013567ffffffffffffffff811115610dca57600080fd5b610dd687828801610bfd565b91505092959194509250565b600060208284031215610df457600080fd5b813567ffffffffffffffff811115610e0b57600080fd5b610e1784828501610bfd565b949350505050565b600080600080600060a08688031215610e3757600080fd5b85359450602086013593506040860135925060608601359150608086013567ffffffffffffffff811115610e6a57600080fd5b610e7688828901610bfd565b9150509295509295909350565b60008060008060808587031215610e9957600080fd5b843593506020850135610eab81610b91565b9250604085013591506060850135610ec281610b91565b939692955090935050565b60008060408385031215610ee057600080fd5b8235610eeb81610b91565b9150610ef960208401610bcd565b90509250929050565b600080600080600080600060e0888a031215610f1d57600080fd5b8735610f2881610b91565b96506020880135610f3881610b91565b9550610f4660408901610bcd565b945060608801359350608088013560ff81168114610f6357600080fd5b9699959850939692959460a0840135945060c09093013592915050565b600080600060608486031215610f9557600080fd5b833592506020840135610fa781610b91565b929592945050506040919091013590565b600080600080600060a08688031215610fd057600080fd5b853594506020860135610fe281610b91565b93506040860135610ff281610b91565b925060608601359150608086013561100981610b91565b809150509295509295909350565b60006020828403121561102957600080fd5b5035919050565b60008251611042818460208701610ac0565b919091019291505056fea26469706673582212206ac9ce75bf4ddf305384946e82b4437bb7fb85984cc1fa2652b9e7ac12720ede64736f6c63430008140033","linkReferences":{}},"methodIdentifiers":{"DOMAIN_SEPARATOR()":"3644e515","PERMIT_TYPEHASH()":"30adf81f","addLiquidity(uint256,uint256,uint256,uint256,(address,bool,bytes))":"4c2ac1d9","batchTransferFrom(address,address,uint256[],uint256[])":"17fad7fc","checkpoint(uint256)":"ed64bab2","closeLong(uint256,uint256,uint256,(address,bool,bytes))":"ded06231","closeShort(uint256,uint256,uint256,(address,bool,bytes))":"29b23fc1","collectGovernanceFee((address,bool,bytes))":"3e691db9","initialize(uint256,uint256,(address,bool,bytes))":"77d05ff4","openLong(uint256,uint256,uint256,(address,bool,bytes))":"cba2e58d","openShort(uint256,uint256,uint256,(address,bool,bytes))":"dbbe8070","pause(bool)":"02329a29","permitForAll(address,address,bool,uint256,uint8,bytes32,bytes32)":"9032c726","redeemWithdrawalShares(uint256,uint256,(address,bool,bytes))":"074a6de9","removeLiquidity(uint256,uint256,(address,bool,bytes))":"cbc13434","setApproval(uint256,address,uint256)":"9cd241af","setApprovalBridge(uint256,address,uint256,address)":"4ed2d6ac","setApprovalForAll(address,bool)":"a22cb465","setGovernance(address)":"ab033ea9","setPauser(address,bool)":"7180c8ca","sweep(address)":"01681a62","target0()":"21b57d53","target1()":"eac3e799","target2()":"a6e8a859","target3()":"d899e112","target4()":"f3f70707","transferFrom(uint256,address,address,uint256)":"1c0f12b6","transferFromBridge(uint256,address,address,uint256,address)":"e44808bc"},"id":24}