{"abi":[{"type":"constructor","inputs":[{"name":"_config","type":"tuple","internalType":"struct IHyperdrive.PoolConfig","components":[{"name":"baseToken","type":"address","internalType":"contract IERC20"},{"name":"linkerFactory","type":"address","internalType":"address"},{"name":"linkerCodeHash","type":"bytes32","internalType":"bytes32"},{"name":"initialVaultSharePrice","type":"uint256","internalType":"uint256"},{"name":"minimumShareReserves","type":"uint256","internalType":"uint256"},{"name":"minimumTransactionAmount","type":"uint256","internalType":"uint256"},{"name":"positionDuration","type":"uint256","internalType":"uint256"},{"name":"checkpointDuration","type":"uint256","internalType":"uint256"},{"name":"timeStretch","type":"uint256","internalType":"uint256"},{"name":"governance","type":"address","internalType":"address"},{"name":"feeCollector","type":"address","internalType":"address"},{"name":"sweepCollector","type":"address","internalType":"address"},{"name":"fees","type":"tuple","internalType":"struct IHyperdrive.Fees","components":[{"name":"curve","type":"uint256","internalType":"uint256"},{"name":"flat","type":"uint256","internalType":"uint256"},{"name":"governanceLP","type":"uint256","internalType":"uint256"},{"name":"governanceZombie","type":"uint256","internalType":"uint256"}]}]},{"name":"_target0","type":"address","internalType":"address"},{"name":"_target1","type":"address","internalType":"address"},{"name":"_target2","type":"address","internalType":"address"},{"name":"_target3","type":"address","internalType":"address"},{"name":"_target4","type":"address","internalType":"address"},{"name":"__vault","type":"address","internalType":"contract IERC4626"}],"stateMutability":"nonpayable"},{"type":"fallback","stateMutability":"nonpayable"},{"type":"function","name":"PERMIT_TYPEHASH","inputs":[],"outputs":[{"name":"","type":"bytes32","internalType":"bytes32"}],"stateMutability":"view"},{"type":"function","name":"addLiquidity","inputs":[{"name":"","type":"uint256","internalType":"uint256"},{"name":"","type":"uint256","internalType":"uint256"},{"name":"","type":"uint256","internalType":"uint256"},{"name":"","type":"uint256","internalType":"uint256"},{"name":"","type":"tuple","internalType":"struct IHyperdrive.Options","components":[{"name":"destination","type":"address","internalType":"address"},{"name":"asBase","type":"bool","internalType":"bool"},{"name":"extraData","type":"bytes","internalType":"bytes"}]}],"outputs":[{"name":"","type":"uint256","internalType":"uint256"}],"stateMutability":"payable"},{"type":"function","name":"batchTransferFrom","inputs":[{"name":"","type":"address","internalType":"address"},{"name":"","type":"address","internalType":"address"},{"name":"","type":"uint256[]","internalType":"uint256[]"},{"name":"","type":"uint256[]","internalType":"uint256[]"}],"outputs":[],"stateMutability":"nonpayable"},{"type":"function","name":"checkpoint","inputs":[{"name":"","type":"uint256","internalType":"uint256"}],"outputs":[],"stateMutability":"nonpayable"},{"type":"function","name":"closeLong","inputs":[{"name":"","type":"uint256","internalType":"uint256"},{"name":"","type":"uint256","internalType":"uint256"},{"name":"","type":"uint256","internalType":"uint256"},{"name":"","type":"tuple","internalType":"struct IHyperdrive.Options","components":[{"name":"destination","type":"address","internalType":"address"},{"name":"asBase","type":"bool","internalType":"bool"},{"name":"extraData","type":"bytes","internalType":"bytes"}]}],"outputs":[{"name":"","type":"uint256","internalType":"uint256"}],"stateMutability":"nonpayable"},{"type":"function","name":"closeShort","inputs":[{"name":"","type":"uint256","internalType":"uint256"},{"name":"","type":"uint256","internalType":"uint256"},{"name":"","type":"uint256","internalType":"uint256"},{"name":"","type":"tuple","internalType":"struct IHyperdrive.Options","components":[{"name":"destination","type":"address","internalType":"address"},{"name":"asBase","type":"bool","internalType":"bool"},{"name":"extraData","type":"bytes","internalType":"bytes"}]}],"outputs":[{"name":"","type":"uint256","internalType":"uint256"}],"stateMutability":"nonpayable"},{"type":"function","name":"collectGovernanceFee","inputs":[{"name":"","type":"tuple","internalType":"struct IHyperdrive.Options","components":[{"name":"destination","type":"address","internalType":"address"},{"name":"asBase","type":"bool","internalType":"bool"},{"name":"extraData","type":"bytes","internalType":"bytes"}]}],"outputs":[{"name":"","type":"uint256","internalType":"uint256"}],"stateMutability":"nonpayable"},{"type":"function","name":"domainSeparator","inputs":[],"outputs":[{"name":"","type":"bytes32","internalType":"bytes32"}],"stateMutability":"view"},{"type":"function","name":"initialize","inputs":[{"name":"","type":"uint256","internalType":"uint256"},{"name":"","type":"uint256","internalType":"uint256"},{"name":"","type":"tuple","internalType":"struct IHyperdrive.Options","components":[{"name":"destination","type":"address","internalType":"address"},{"name":"asBase","type":"bool","internalType":"bool"},{"name":"extraData","type":"bytes","internalType":"bytes"}]}],"outputs":[{"name":"","type":"uint256","internalType":"uint256"}],"stateMutability":"payable"},{"type":"function","name":"openLong","inputs":[{"name":"","type":"uint256","internalType":"uint256"},{"name":"","type":"uint256","internalType":"uint256"},{"name":"","type":"uint256","internalType":"uint256"},{"name":"","type":"tuple","internalType":"struct IHyperdrive.Options","components":[{"name":"destination","type":"address","internalType":"address"},{"name":"asBase","type":"bool","internalType":"bool"},{"name":"extraData","type":"bytes","internalType":"bytes"}]}],"outputs":[{"name":"","type":"uint256","internalType":"uint256"},{"name":"","type":"uint256","internalType":"uint256"}],"stateMutability":"payable"},{"type":"function","name":"openShort","inputs":[{"name":"","type":"uint256","internalType":"uint256"},{"name":"","type":"uint256","internalType":"uint256"},{"name":"","type":"uint256","internalType":"uint256"},{"name":"","type":"tuple","internalType":"struct IHyperdrive.Options","components":[{"name":"destination","type":"address","internalType":"address"},{"name":"asBase","type":"bool","internalType":"bool"},{"name":"extraData","type":"bytes","internalType":"bytes"}]}],"outputs":[{"name":"","type":"uint256","internalType":"uint256"},{"name":"","type":"uint256","internalType":"uint256"}],"stateMutability":"payable"},{"type":"function","name":"pause","inputs":[{"name":"","type":"bool","internalType":"bool"}],"outputs":[],"stateMutability":"nonpayable"},{"type":"function","name":"permitForAll","inputs":[{"name":"owner","type":"address","internalType":"address"},{"name":"spender","type":"address","internalType":"address"},{"name":"_approved","type":"bool","internalType":"bool"},{"name":"deadline","type":"uint256","internalType":"uint256"},{"name":"v","type":"uint8","internalType":"uint8"},{"name":"r","type":"bytes32","internalType":"bytes32"},{"name":"s","type":"bytes32","internalType":"bytes32"}],"outputs":[],"stateMutability":"nonpayable"},{"type":"function","name":"redeemWithdrawalShares","inputs":[{"name":"","type":"uint256","internalType":"uint256"},{"name":"","type":"uint256","internalType":"uint256"},{"name":"","type":"tuple","internalType":"struct IHyperdrive.Options","components":[{"name":"destination","type":"address","internalType":"address"},{"name":"asBase","type":"bool","internalType":"bool"},{"name":"extraData","type":"bytes","internalType":"bytes"}]}],"outputs":[{"name":"","type":"uint256","internalType":"uint256"},{"name":"","type":"uint256","internalType":"uint256"}],"stateMutability":"nonpayable"},{"type":"function","name":"removeLiquidity","inputs":[{"name":"","type":"uint256","internalType":"uint256"},{"name":"","type":"uint256","internalType":"uint256"},{"name":"","type":"tuple","internalType":"struct IHyperdrive.Options","components":[{"name":"destination","type":"address","internalType":"address"},{"name":"asBase","type":"bool","internalType":"bool"},{"name":"extraData","type":"bytes","internalType":"bytes"}]}],"outputs":[{"name":"","type":"uint256","internalType":"uint256"},{"name":"","type":"uint256","internalType":"uint256"}],"stateMutability":"nonpayable"},{"type":"function","name":"setApproval","inputs":[{"name":"","type":"uint256","internalType":"uint256"},{"name":"","type":"address","internalType":"address"},{"name":"","type":"uint256","internalType":"uint256"}],"outputs":[],"stateMutability":"nonpayable"},{"type":"function","name":"setApprovalBridge","inputs":[{"name":"","type":"uint256","internalType":"uint256"},{"name":"","type":"address","internalType":"address"},{"name":"","type":"uint256","internalType":"uint256"},{"name":"","type":"address","internalType":"address"}],"outputs":[],"stateMutability":"nonpayable"},{"type":"function","name":"setApprovalForAll","inputs":[{"name":"","type":"address","internalType":"address"},{"name":"","type":"bool","internalType":"bool"}],"outputs":[],"stateMutability":"nonpayable"},{"type":"function","name":"setFeeCollector","inputs":[{"name":"","type":"address","internalType":"address"}],"outputs":[],"stateMutability":"nonpayable"},{"type":"function","name":"setGovernance","inputs":[{"name":"","type":"address","internalType":"address"}],"outputs":[],"stateMutability":"nonpayable"},{"type":"function","name":"setPauser","inputs":[{"name":"","type":"address","internalType":"address"},{"name":"","type":"bool","internalType":"bool"}],"outputs":[],"stateMutability":"nonpayable"},{"type":"function","name":"setSweepCollector","inputs":[{"name":"","type":"address","internalType":"address"}],"outputs":[],"stateMutability":"nonpayable"},{"type":"function","name":"sweep","inputs":[{"name":"","type":"address","internalType":"contract IERC20"}],"outputs":[],"stateMutability":"nonpayable"},{"type":"function","name":"target0","inputs":[],"outputs":[{"name":"","type":"address","internalType":"address"}],"stateMutability":"view"},{"type":"function","name":"target1","inputs":[],"outputs":[{"name":"","type":"address","internalType":"address"}],"stateMutability":"view"},{"type":"function","name":"target2","inputs":[],"outputs":[{"name":"","type":"address","internalType":"address"}],"stateMutability":"view"},{"type":"function","name":"target3","inputs":[],"outputs":[{"name":"","type":"address","internalType":"address"}],"stateMutability":"view"},{"type":"function","name":"target4","inputs":[],"outputs":[{"name":"","type":"address","internalType":"address"}],"stateMutability":"view"},{"type":"function","name":"transferFrom","inputs":[{"name":"","type":"uint256","internalType":"uint256"},{"name":"","type":"address","internalType":"address"},{"name":"","type":"address","internalType":"address"},{"name":"","type":"uint256","internalType":"uint256"}],"outputs":[],"stateMutability":"nonpayable"},{"type":"function","name":"transferFromBridge","inputs":[{"name":"","type":"uint256","internalType":"uint256"},{"name":"","type":"address","internalType":"address"},{"name":"","type":"address","internalType":"address"},{"name":"","type":"uint256","internalType":"uint256"},{"name":"","type":"address","internalType":"address"}],"outputs":[],"stateMutability":"nonpayable"},{"type":"event","name":"AddLiquidity","inputs":[{"name":"provider","type":"address","indexed":true,"internalType":"address"},{"name":"lpAmount","type":"uint256","indexed":false,"internalType":"uint256"},{"name":"baseAmount","type":"uint256","indexed":false,"internalType":"uint256"},{"name":"vaultShareAmount","type":"uint256","indexed":false,"internalType":"uint256"},{"name":"asBase","type":"bool","indexed":false,"internalType":"bool"},{"name":"lpSharePrice","type":"uint256","indexed":false,"internalType":"uint256"}],"anonymous":false},{"type":"event","name":"Approval","inputs":[{"name":"owner","type":"address","indexed":true,"internalType":"address"},{"name":"spender","type":"address","indexed":true,"internalType":"address"},{"name":"value","type":"uint256","indexed":false,"internalType":"uint256"}],"anonymous":false},{"type":"event","name":"ApprovalForAll","inputs":[{"name":"account","type":"address","indexed":true,"internalType":"address"},{"name":"operator","type":"address","indexed":true,"internalType":"address"},{"name":"approved","type":"bool","indexed":false,"internalType":"bool"}],"anonymous":false},{"type":"event","name":"CloseLong","inputs":[{"name":"trader","type":"address","indexed":true,"internalType":"address"},{"name":"destination","type":"address","indexed":true,"internalType":"address"},{"name":"assetId","type":"uint256","indexed":true,"internalType":"uint256"},{"name":"maturityTime","type":"uint256","indexed":false,"internalType":"uint256"},{"name":"baseAmount","type":"uint256","indexed":false,"internalType":"uint256"},{"name":"vaultShareAmount","type":"uint256","indexed":false,"internalType":"uint256"},{"name":"asBase","type":"bool","indexed":false,"internalType":"bool"},{"name":"bondAmount","type":"uint256","indexed":false,"internalType":"uint256"}],"anonymous":false},{"type":"event","name":"CloseShort","inputs":[{"name":"trader","type":"address","indexed":true,"internalType":"address"},{"name":"destination","type":"address","indexed":true,"internalType":"address"},{"name":"assetId","type":"uint256","indexed":true,"internalType":"uint256"},{"name":"maturityTime","type":"uint256","indexed":false,"internalType":"uint256"},{"name":"baseAmount","type":"uint256","indexed":false,"internalType":"uint256"},{"name":"vaultShareAmount","type":"uint256","indexed":false,"internalType":"uint256"},{"name":"asBase","type":"bool","indexed":false,"internalType":"bool"},{"name":"basePayment","type":"uint256","indexed":false,"internalType":"uint256"},{"name":"bondAmount","type":"uint256","indexed":false,"internalType":"uint256"}],"anonymous":false},{"type":"event","name":"CollectGovernanceFee","inputs":[{"name":"collector","type":"address","indexed":true,"internalType":"address"},{"name":"fees","type":"uint256","indexed":false,"internalType":"uint256"}],"anonymous":false},{"type":"event","name":"CreateCheckpoint","inputs":[{"name":"checkpointTime","type":"uint256","indexed":true,"internalType":"uint256"},{"name":"vaultSharePrice","type":"uint256","indexed":false,"internalType":"uint256"},{"name":"maturedShorts","type":"uint256","indexed":false,"internalType":"uint256"},{"name":"maturedLongs","type":"uint256","indexed":false,"internalType":"uint256"},{"name":"lpSharePrice","type":"uint256","indexed":false,"internalType":"uint256"}],"anonymous":false},{"type":"event","name":"FeeCollectorUpdated","inputs":[{"name":"newFeeCollector","type":"address","indexed":true,"internalType":"address"}],"anonymous":false},{"type":"event","name":"GovernanceUpdated","inputs":[{"name":"newGovernance","type":"address","indexed":true,"internalType":"address"}],"anonymous":false},{"type":"event","name":"Initialize","inputs":[{"name":"provider","type":"address","indexed":true,"internalType":"address"},{"name":"lpAmount","type":"uint256","indexed":false,"internalType":"uint256"},{"name":"baseAmount","type":"uint256","indexed":false,"internalType":"uint256"},{"name":"vaultShareAmount","type":"uint256","indexed":false,"internalType":"uint256"},{"name":"asBase","type":"bool","indexed":false,"internalType":"bool"},{"name":"apr","type":"uint256","indexed":false,"internalType":"uint256"}],"anonymous":false},{"type":"event","name":"OpenLong","inputs":[{"name":"trader","type":"address","indexed":true,"internalType":"address"},{"name":"assetId","type":"uint256","indexed":true,"internalType":"uint256"},{"name":"maturityTime","type":"uint256","indexed":false,"internalType":"uint256"},{"name":"baseAmount","type":"uint256","indexed":false,"internalType":"uint256"},{"name":"vaultShareAmount","type":"uint256","indexed":false,"internalType":"uint256"},{"name":"asBase","type":"bool","indexed":false,"internalType":"bool"},{"name":"bondAmount","type":"uint256","indexed":false,"internalType":"uint256"}],"anonymous":false},{"type":"event","name":"OpenShort","inputs":[{"name":"trader","type":"address","indexed":true,"internalType":"address"},{"name":"assetId","type":"uint256","indexed":true,"internalType":"uint256"},{"name":"maturityTime","type":"uint256","indexed":false,"internalType":"uint256"},{"name":"baseAmount","type":"uint256","indexed":false,"internalType":"uint256"},{"name":"vaultShareAmount","type":"uint256","indexed":false,"internalType":"uint256"},{"name":"asBase","type":"bool","indexed":false,"internalType":"bool"},{"name":"baseProceeds","type":"uint256","indexed":false,"internalType":"uint256"},{"name":"bondAmount","type":"uint256","indexed":false,"internalType":"uint256"}],"anonymous":false},{"type":"event","name":"PauseStatusUpdated","inputs":[{"name":"isPaused","type":"bool","indexed":false,"internalType":"bool"}],"anonymous":false},{"type":"event","name":"PauserUpdated","inputs":[{"name":"newPauser","type":"address","indexed":true,"internalType":"address"},{"name":"status","type":"bool","indexed":false,"internalType":"bool"}],"anonymous":false},{"type":"event","name":"RedeemWithdrawalShares","inputs":[{"name":"provider","type":"address","indexed":true,"internalType":"address"},{"name":"destination","type":"address","indexed":true,"internalType":"address"},{"name":"withdrawalShareAmount","type":"uint256","indexed":false,"internalType":"uint256"},{"name":"baseAmount","type":"uint256","indexed":false,"internalType":"uint256"},{"name":"vaultShareAmount","type":"uint256","indexed":false,"internalType":"uint256"},{"name":"asBase","type":"bool","indexed":false,"internalType":"bool"}],"anonymous":false},{"type":"event","name":"RemoveLiquidity","inputs":[{"name":"provider","type":"address","indexed":true,"internalType":"address"},{"name":"destination","type":"address","indexed":true,"internalType":"address"},{"name":"lpAmount","type":"uint256","indexed":false,"internalType":"uint256"},{"name":"baseAmount","type":"uint256","indexed":false,"internalType":"uint256"},{"name":"vaultShareAmount","type":"uint256","indexed":false,"internalType":"uint256"},{"name":"asBase","type":"bool","indexed":false,"internalType":"bool"},{"name":"withdrawalShareAmount","type":"uint256","indexed":false,"internalType":"uint256"},{"name":"lpSharePrice","type":"uint256","indexed":false,"internalType":"uint256"}],"anonymous":false},{"type":"event","name":"Sweep","inputs":[{"name":"collector","type":"address","indexed":true,"internalType":"address"},{"name":"target","type":"address","indexed":true,"internalType":"address"}],"anonymous":false},{"type":"event","name":"SweepCollectorUpdated","inputs":[{"name":"newSweepCollector","type":"address","indexed":true,"internalType":"address"}],"anonymous":false},{"type":"event","name":"TransferSingle","inputs":[{"name":"operator","type":"address","indexed":true,"internalType":"address"},{"name":"from","type":"address","indexed":true,"internalType":"address"},{"name":"to","type":"address","indexed":true,"internalType":"address"},{"name":"id","type":"uint256","indexed":false,"internalType":"uint256"},{"name":"value","type":"uint256","indexed":false,"internalType":"uint256"}],"anonymous":false},{"type":"error","name":"AddressEmptyCode","inputs":[{"name":"target","type":"address","internalType":"address"}]},{"type":"error","name":"AddressInsufficientBalance","inputs":[{"name":"account","type":"address","internalType":"address"}]},{"type":"error","name":"FailedInnerCall","inputs":[]},{"type":"error","name":"InvalidBaseToken","inputs":[]},{"type":"error","name":"ReentrancyGuardReentrantCall","inputs":[]},{"type":"error","name":"SafeERC20FailedOperation","inputs":[{"name":"token","type":"address","internalType":"address"}]},{"type":"error","name":"UnexpectedSuccess","inputs":[]}],"bytecode":{"object":"0x6102e06040523480156200001257600080fd5b5060405162001a0438038062001a04833981016040819052620000359162000607565b600160005586516001600160a01b0390811660809081526060808a0151610180908152918a01516101a05260a0808b01516101c05260e0808c015190915260c0808c01519052610100808c0151909152918a0180515190925281516020908101516101209081528351604090810151610140908152945190930151610160908152828d015186166101e052838d015161020052908c0151600a80549187166001600160a01b0319928316179055938c0151600880549187169186169190911790558b0151600980549186169190941617909255828916610220528288166102405282871661026052828616610280528285166102a0529183166102c081905282516338d52e0f60e01b8152925190926338d52e0f9260048083019391928290030181865afa1580156200016c573d6000803e3d6000fd5b505050506040513d601f19601f8201168201806040525081019062000192919062000771565b6001600160a01b031687600001516001600160a01b031614620001c857604051630722152560e11b815260040160405180910390fd5b6102c0518751620001e7916001600160a01b03909116906001620001f4565b50505050505050620007e6565b604080516001600160a01b038416602482015260448082018490528251808303909101815260649091019091526020810180516001600160e01b0390811663095ea7b360e01b179091526200024e9085908390620002c016565b620002ba57604080516001600160a01b038516602482015260006044808301919091528251808303909101815260649091019091526020810180516001600160e01b0390811663095ea7b360e01b17909152620002ae9186916200037116565b620002ba848262000371565b50505050565b6000806000846001600160a01b031684604051620002df919062000791565b6000604051808303816000865af19150503d80600081146200031e576040519150601f19603f3d011682016040523d82523d6000602084013e62000323565b606091505b50915091508180156200035157508051158062000351575080806020019051810190620003519190620007c2565b80156200036857506000856001600160a01b03163b115b95945050505050565b6000620003886001600160a01b03841683620003e4565b90508051600014158015620003b0575080806020019051810190620003ae9190620007c2565b155b15620003df57604051635274afe760e01b81526001600160a01b03841660048201526024015b60405180910390fd5b505050565b6060620003f483836000620003fb565b9392505050565b606081471015620004225760405163cd78605960e01b8152306004820152602401620003d6565b600080856001600160a01b0316848660405162000440919062000791565b60006040518083038185875af1925050503d80600081146200047f576040519150601f19603f3d011682016040523d82523d6000602084013e62000484565b606091505b50909250905062000497868383620004a1565b9695505050505050565b606082620004ba57620004b48262000505565b620003f4565b8151158015620004d257506001600160a01b0384163b155b15620004fd57604051639996b31560e01b81526001600160a01b0385166004820152602401620003d6565b5080620003f4565b805115620005165780518082602001fd5b604051630a12f52160e11b815260040160405180910390fd5b50565b6040516101a081016001600160401b03811182821017156200056457634e487b7160e01b600052604160045260246000fd5b60405290565b6001600160a01b03811681146200052f57600080fd5b80516200058d816200056a565b919050565b600060808284031215620005a557600080fd5b604051608081016001600160401b0381118282101715620005d657634e487b7160e01b600052604160045260246000fd5b8060405250809150825181526020830151602082015260408301516040820152606083015160608201525092915050565b60008060008060008060008789036102c08112156200062557600080fd5b610200808212156200063657600080fd5b6200064062000532565b91506200064d8a62000580565b82526200065d60208b0162000580565b602083015260408a0151604083015260608a0151606083015260808a0151608083015260a08a015160a083015260c08a015160c083015260e08a015160e0830152610100808b01518184015250610120620006ba818c0162000580565b90830152610140620006ce8b820162000580565b90830152610160620006e28b820162000580565b90830152610180620006f78c8c830162000592565b81840152508198506200070c818b0162000580565b975050506200071f610220890162000580565b945062000730610240890162000580565b935062000741610260890162000580565b925062000752610280890162000580565b9150620007636102a0890162000580565b905092959891949750929550565b6000602082840312156200078457600080fd5b8151620003f4816200056a565b6000825160005b81811015620007b4576020818601810151858301520162000798565b506000920191825250919050565b600060208284031215620007d557600080fd5b81518015158114620003f457600080fd5b60805160a05160c05160e05161010051610120516101405161016051610180516101a0516101c0516101e05161020051610220516102405161026051610280516102a0516102c0516110f96200090b6000396000505060008181610617015281816109b20152610a0c01526000818161055c015281816107e1015261097c01526000818161051501526107190152600081816105c301528181610683015261077e0152600081816101e4015281816103a601528181610653015281816106b5015281816106e70152818161074d015281816107b1015281816108120152818161094a01526109db0152600050506000505060005050600050506000505060005050600050506000505060005050600050506000505060005050600050506110f96000f3fe6080604052600436106101cd5760003560e01c8063a22cb465116100f7578063dbbe807011610095578063eac3e79911610064578063eac3e799146105b1578063ed64bab2146105e5578063f3f7070714610605578063f698da2514610639576101cd565b8063dbbe80701461057e578063ded06231146103e0578063e44808bc14610591578063e4af29d1146102dd576101cd565b8063ab033ea9116100d1578063ab033ea9146102dd578063cba2e58d14610537578063cbc134341461031a578063d899e1121461054a576101cd565b8063a22cb46514610490578063a42dce80146102dd578063a6e8a85914610503576101cd565b806330adf81f1161016f5780637180c8ca1161013e5780637180c8ca1461049057806377d05ff4146104b05780639032c726146104c35780639cd241af146104e3576101cd565b806330adf81f1461040e5780633e691db9146104425780634c2ac1d9146104625780634ed2d6ac14610475576101cd565b806317fad7fc116101ab57806317fad7fc146103545780631c0f12b61461037457806321b57d531461039457806329b23fc1146103e0576101cd565b806301681a62146102dd57806302329a29146102ff578063074a6de91461031a575b3480156101d957600080fd5b5060003660606000807f00000000000000000000000000000000000000000000000000000000000000006001600160a01b0316858560405161021c929190610ada565b600060405180830381855af49150503d8060008114610257576040519150601f19603f3d011682016040523d82523d6000602084013e61025c565b606091505b5091509150811561028057604051638bb0a34b60e01b815260040160405180910390fd5b600061028b82610aea565b90506001600160e01b03198116636e64089360e11b146102ad57815160208301fd5b8151600319810160048401908152926102ce91810160200190602401610b5b565b80519650602001945050505050f35b3480156102e957600080fd5b506102fd6102f8366004610c20565b61064e565b005b34801561030b57600080fd5b506102fd6102f8366004610c59565b34801561032657600080fd5b5061033a610335366004610c86565b61067b565b604080519283526020830191909152015b60405180910390f35b34801561036057600080fd5b506102fd61036f366004610d22565b6106b0565b34801561038057600080fd5b506102fd61038f366004610db7565b6106e2565b3480156103a057600080fd5b506103c87f000000000000000000000000000000000000000000000000000000000000000081565b6040516001600160a01b03909116815260200161034b565b3480156103ec57600080fd5b506104006103fb366004610dff565b610712565b60405190815260200161034b565b34801561041a57600080fd5b506104007f65619c8664d6db8aae8c236ad19598696159942a4245b23b45565cc18e97367381565b34801561044e57600080fd5b5061040061045d366004610e59565b610746565b610400610470366004610e96565b610777565b34801561048157600080fd5b506102fd61038f366004610efa565b34801561049c57600080fd5b506102fd6104ab366004610f44565b6107ac565b6104006104be366004610c86565b6107da565b3480156104cf57600080fd5b506102fd6104de366004610f79565b61080d565b3480156104ef57600080fd5b506102fd6104fe366004610ff7565b610945565b34801561050f57600080fd5b506103c87f000000000000000000000000000000000000000000000000000000000000000081565b61033a610545366004610dff565b610974565b34801561055657600080fd5b506103c87f000000000000000000000000000000000000000000000000000000000000000081565b61033a61058c366004610dff565b6109aa565b34801561059d57600080fd5b506102fd6105ac36600461102f565b6109d6565b3480156105bd57600080fd5b506103c87f000000000000000000000000000000000000000000000000000000000000000081565b3480156105f157600080fd5b506102fd61060036600461108e565b610a07565b34801561061157600080fd5b506103c87f000000000000000000000000000000000000000000000000000000000000000081565b34801561064557600080fd5b50610400610a30565b6106777f0000000000000000000000000000000000000000000000000000000000000000610abe565b5050565b6000806106a77f0000000000000000000000000000000000000000000000000000000000000000610abe565b50935093915050565b6106d97f0000000000000000000000000000000000000000000000000000000000000000610abe565b50505050505050565b61070b7f0000000000000000000000000000000000000000000000000000000000000000610abe565b5050505050565b600061073d7f0000000000000000000000000000000000000000000000000000000000000000610abe565b50949350505050565b60006107717f0000000000000000000000000000000000000000000000000000000000000000610abe565b50919050565b60006107a27f0000000000000000000000000000000000000000000000000000000000000000610abe565b5095945050505050565b6107d57f0000000000000000000000000000000000000000000000000000000000000000610abe565b505050565b60006108057f0000000000000000000000000000000000000000000000000000000000000000610abe565b509392505050565b6000807f00000000000000000000000000000000000000000000000000000000000000006001600160a01b0316610842610a30565b60405160248101919091527f65619c8664d6db8aae8c236ad19598696159942a4245b23b45565cc18e97367360448201526001600160a01b03808c1660648301528a16608482015288151560a482015260c4810188905260ff871660e4820152610104810186905261012481018590526101440160408051601f198184030181529181526020820180516001600160e01b03166314e5f07b60e01b179052516108eb91906110a7565b600060405180830381855af49150503d8060008114610926576040519150601f19603f3d011682016040523d82523d6000602084013e61092b565b606091505b50915091508161093d57805160208201fd5b805160208201f35b61096e7f0000000000000000000000000000000000000000000000000000000000000000610abe565b50505050565b6000806109a07f0000000000000000000000000000000000000000000000000000000000000000610abe565b5094509492505050565b6000806109a07f0000000000000000000000000000000000000000000000000000000000000000610abe565b6109ff7f0000000000000000000000000000000000000000000000000000000000000000610abe565b505050505050565b6106777f0000000000000000000000000000000000000000000000000000000000000000610abe565b60408051808201825260018152603160f81b60209182015281517f2aef22f9d7df5f9d21c56d14029233f3fdaa91917727e1eb68e504d27072d6cd818301527fc89efdaa54c0f20c7adf612882df0950f5a951637e0307cdcb4c672f298b8bc681840152466060820152306080808301919091528351808303909101815260a0909101909252815191012090565b6060600080836001600160a01b03166000366040516108eb9291905b8183823760009101908152919050565b805160208201516001600160e01b03198082169291906004831015610b195780818460040360031b1b83161693505b505050919050565b634e487b7160e01b600052604160045260246000fd5b60005b83811015610b52578181015183820152602001610b3a565b50506000910152565b600060208284031215610b6d57600080fd5b815167ffffffffffffffff80821115610b8557600080fd5b818401915084601f830112610b9957600080fd5b815181811115610bab57610bab610b21565b604051601f8201601f19908116603f01168101908382118183101715610bd357610bd3610b21565b81604052828152876020848701011115610bec57600080fd5b610bfd836020830160208801610b37565b979650505050505050565b6001600160a01b0381168114610c1d57600080fd5b50565b600060208284031215610c3257600080fd5b8135610c3d81610c08565b9392505050565b80358015158114610c5457600080fd5b919050565b600060208284031215610c6b57600080fd5b610c3d82610c44565b60006060828403121561077157600080fd5b600080600060608486031215610c9b57600080fd5b8335925060208401359150604084013567ffffffffffffffff811115610cc057600080fd5b610ccc86828701610c74565b9150509250925092565b60008083601f840112610ce857600080fd5b50813567ffffffffffffffff811115610d0057600080fd5b6020830191508360208260051b8501011115610d1b57600080fd5b9250929050565b60008060008060008060808789031215610d3b57600080fd5b8635610d4681610c08565b95506020870135610d5681610c08565b9450604087013567ffffffffffffffff80821115610d7357600080fd5b610d7f8a838b01610cd6565b90965094506060890135915080821115610d9857600080fd5b50610da589828a01610cd6565b979a9699509497509295939492505050565b60008060008060808587031215610dcd57600080fd5b843593506020850135610ddf81610c08565b92506040850135610def81610c08565b9396929550929360600135925050565b60008060008060808587031215610e1557600080fd5b843593506020850135925060408501359150606085013567ffffffffffffffff811115610e4157600080fd5b610e4d87828801610c74565b91505092959194509250565b600060208284031215610e6b57600080fd5b813567ffffffffffffffff811115610e8257600080fd5b610e8e84828501610c74565b949350505050565b600080600080600060a08688031215610eae57600080fd5b85359450602086013593506040860135925060608601359150608086013567ffffffffffffffff811115610ee157600080fd5b610eed88828901610c74565b9150509295509295909350565b60008060008060808587031215610f1057600080fd5b843593506020850135610f2281610c08565b9250604085013591506060850135610f3981610c08565b939692955090935050565b60008060408385031215610f5757600080fd5b8235610f6281610c08565b9150610f7060208401610c44565b90509250929050565b600080600080600080600060e0888a031215610f9457600080fd5b8735610f9f81610c08565b96506020880135610faf81610c08565b9550610fbd60408901610c44565b945060608801359350608088013560ff81168114610fda57600080fd5b9699959850939692959460a0840135945060c09093013592915050565b60008060006060848603121561100c57600080fd5b83359250602084013561101e81610c08565b929592945050506040919091013590565b600080600080600060a0868803121561104757600080fd5b85359450602086013561105981610c08565b9350604086013561106981610c08565b925060608601359150608086013561108081610c08565b809150509295509295909350565b6000602082840312156110a057600080fd5b5035919050565b600082516110b9818460208701610b37565b919091019291505056fea26469706673582212203e55a01772be0de187ee72ea0e0094f9318a8f90540978733d10681611f6c02964736f6c63430008140033","linkReferences":{}},"methodIdentifiers":{"PERMIT_TYPEHASH()":"30adf81f","addLiquidity(uint256,uint256,uint256,uint256,(address,bool,bytes))":"4c2ac1d9","batchTransferFrom(address,address,uint256[],uint256[])":"17fad7fc","checkpoint(uint256)":"ed64bab2","closeLong(uint256,uint256,uint256,(address,bool,bytes))":"ded06231","closeShort(uint256,uint256,uint256,(address,bool,bytes))":"29b23fc1","collectGovernanceFee((address,bool,bytes))":"3e691db9","domainSeparator()":"f698da25","initialize(uint256,uint256,(address,bool,bytes))":"77d05ff4","openLong(uint256,uint256,uint256,(address,bool,bytes))":"cba2e58d","openShort(uint256,uint256,uint256,(address,bool,bytes))":"dbbe8070","pause(bool)":"02329a29","permitForAll(address,address,bool,uint256,uint8,bytes32,bytes32)":"9032c726","redeemWithdrawalShares(uint256,uint256,(address,bool,bytes))":"074a6de9","removeLiquidity(uint256,uint256,(address,bool,bytes))":"cbc13434","setApproval(uint256,address,uint256)":"9cd241af","setApprovalBridge(uint256,address,uint256,address)":"4ed2d6ac","setApprovalForAll(address,bool)":"a22cb465","setFeeCollector(address)":"a42dce80","setGovernance(address)":"ab033ea9","setPauser(address,bool)":"7180c8ca","setSweepCollector(address)":"e4af29d1","sweep(address)":"01681a62","target0()":"21b57d53","target1()":"eac3e799","target2()":"a6e8a859","target3()":"d899e112","target4()":"f3f70707","transferFrom(uint256,address,address,uint256)":"1c0f12b6","transferFromBridge(uint256,address,address,uint256,address)":"e44808bc"},"id":45}