{"abi":[{"type":"constructor","inputs":[{"name":"_config","type":"tuple","internalType":"struct IHyperdrive.PoolConfig","components":[{"name":"baseToken","type":"address","internalType":"contract IERC20"},{"name":"linkerFactory","type":"address","internalType":"address"},{"name":"linkerCodeHash","type":"bytes32","internalType":"bytes32"},{"name":"initialVaultSharePrice","type":"uint256","internalType":"uint256"},{"name":"minimumShareReserves","type":"uint256","internalType":"uint256"},{"name":"minimumTransactionAmount","type":"uint256","internalType":"uint256"},{"name":"positionDuration","type":"uint256","internalType":"uint256"},{"name":"checkpointDuration","type":"uint256","internalType":"uint256"},{"name":"timeStretch","type":"uint256","internalType":"uint256"},{"name":"governance","type":"address","internalType":"address"},{"name":"feeCollector","type":"address","internalType":"address"},{"name":"fees","type":"tuple","internalType":"struct IHyperdrive.Fees","components":[{"name":"curve","type":"uint256","internalType":"uint256"},{"name":"flat","type":"uint256","internalType":"uint256"},{"name":"governanceLP","type":"uint256","internalType":"uint256"},{"name":"governanceZombie","type":"uint256","internalType":"uint256"}]}]},{"name":"_target0","type":"address","internalType":"address"},{"name":"_target1","type":"address","internalType":"address"},{"name":"_target2","type":"address","internalType":"address"},{"name":"_target3","type":"address","internalType":"address"},{"name":"_target4","type":"address","internalType":"address"},{"name":"__vault","type":"address","internalType":"contract IERC4626"}],"stateMutability":"nonpayable"},{"type":"fallback","stateMutability":"nonpayable"},{"type":"function","name":"PERMIT_TYPEHASH","inputs":[],"outputs":[{"name":"","type":"bytes32","internalType":"bytes32"}],"stateMutability":"view"},{"type":"function","name":"addLiquidity","inputs":[{"name":"","type":"uint256","internalType":"uint256"},{"name":"","type":"uint256","internalType":"uint256"},{"name":"","type":"uint256","internalType":"uint256"},{"name":"","type":"uint256","internalType":"uint256"},{"name":"","type":"tuple","internalType":"struct IHyperdrive.Options","components":[{"name":"destination","type":"address","internalType":"address"},{"name":"asBase","type":"bool","internalType":"bool"},{"name":"extraData","type":"bytes","internalType":"bytes"}]}],"outputs":[{"name":"","type":"uint256","internalType":"uint256"}],"stateMutability":"payable"},{"type":"function","name":"batchTransferFrom","inputs":[{"name":"","type":"address","internalType":"address"},{"name":"","type":"address","internalType":"address"},{"name":"","type":"uint256[]","internalType":"uint256[]"},{"name":"","type":"uint256[]","internalType":"uint256[]"}],"outputs":[],"stateMutability":"nonpayable"},{"type":"function","name":"checkpoint","inputs":[{"name":"","type":"uint256","internalType":"uint256"}],"outputs":[],"stateMutability":"nonpayable"},{"type":"function","name":"closeLong","inputs":[{"name":"","type":"uint256","internalType":"uint256"},{"name":"","type":"uint256","internalType":"uint256"},{"name":"","type":"uint256","internalType":"uint256"},{"name":"","type":"tuple","internalType":"struct IHyperdrive.Options","components":[{"name":"destination","type":"address","internalType":"address"},{"name":"asBase","type":"bool","internalType":"bool"},{"name":"extraData","type":"bytes","internalType":"bytes"}]}],"outputs":[{"name":"","type":"uint256","internalType":"uint256"}],"stateMutability":"nonpayable"},{"type":"function","name":"closeShort","inputs":[{"name":"","type":"uint256","internalType":"uint256"},{"name":"","type":"uint256","internalType":"uint256"},{"name":"","type":"uint256","internalType":"uint256"},{"name":"","type":"tuple","internalType":"struct IHyperdrive.Options","components":[{"name":"destination","type":"address","internalType":"address"},{"name":"asBase","type":"bool","internalType":"bool"},{"name":"extraData","type":"bytes","internalType":"bytes"}]}],"outputs":[{"name":"","type":"uint256","internalType":"uint256"}],"stateMutability":"nonpayable"},{"type":"function","name":"collectGovernanceFee","inputs":[{"name":"","type":"tuple","internalType":"struct IHyperdrive.Options","components":[{"name":"destination","type":"address","internalType":"address"},{"name":"asBase","type":"bool","internalType":"bool"},{"name":"extraData","type":"bytes","internalType":"bytes"}]}],"outputs":[{"name":"","type":"uint256","internalType":"uint256"}],"stateMutability":"nonpayable"},{"type":"function","name":"domainSeparator","inputs":[],"outputs":[{"name":"","type":"bytes32","internalType":"bytes32"}],"stateMutability":"view"},{"type":"function","name":"initialize","inputs":[{"name":"","type":"uint256","internalType":"uint256"},{"name":"","type":"uint256","internalType":"uint256"},{"name":"","type":"tuple","internalType":"struct IHyperdrive.Options","components":[{"name":"destination","type":"address","internalType":"address"},{"name":"asBase","type":"bool","internalType":"bool"},{"name":"extraData","type":"bytes","internalType":"bytes"}]}],"outputs":[{"name":"","type":"uint256","internalType":"uint256"}],"stateMutability":"payable"},{"type":"function","name":"openLong","inputs":[{"name":"","type":"uint256","internalType":"uint256"},{"name":"","type":"uint256","internalType":"uint256"},{"name":"","type":"uint256","internalType":"uint256"},{"name":"","type":"tuple","internalType":"struct IHyperdrive.Options","components":[{"name":"destination","type":"address","internalType":"address"},{"name":"asBase","type":"bool","internalType":"bool"},{"name":"extraData","type":"bytes","internalType":"bytes"}]}],"outputs":[{"name":"","type":"uint256","internalType":"uint256"},{"name":"","type":"uint256","internalType":"uint256"}],"stateMutability":"payable"},{"type":"function","name":"openShort","inputs":[{"name":"","type":"uint256","internalType":"uint256"},{"name":"","type":"uint256","internalType":"uint256"},{"name":"","type":"uint256","internalType":"uint256"},{"name":"","type":"tuple","internalType":"struct IHyperdrive.Options","components":[{"name":"destination","type":"address","internalType":"address"},{"name":"asBase","type":"bool","internalType":"bool"},{"name":"extraData","type":"bytes","internalType":"bytes"}]}],"outputs":[{"name":"","type":"uint256","internalType":"uint256"},{"name":"","type":"uint256","internalType":"uint256"}],"stateMutability":"payable"},{"type":"function","name":"pause","inputs":[{"name":"","type":"bool","internalType":"bool"}],"outputs":[],"stateMutability":"nonpayable"},{"type":"function","name":"permitForAll","inputs":[{"name":"owner","type":"address","internalType":"address"},{"name":"spender","type":"address","internalType":"address"},{"name":"_approved","type":"bool","internalType":"bool"},{"name":"deadline","type":"uint256","internalType":"uint256"},{"name":"v","type":"uint8","internalType":"uint8"},{"name":"r","type":"bytes32","internalType":"bytes32"},{"name":"s","type":"bytes32","internalType":"bytes32"}],"outputs":[],"stateMutability":"nonpayable"},{"type":"function","name":"redeemWithdrawalShares","inputs":[{"name":"","type":"uint256","internalType":"uint256"},{"name":"","type":"uint256","internalType":"uint256"},{"name":"","type":"tuple","internalType":"struct IHyperdrive.Options","components":[{"name":"destination","type":"address","internalType":"address"},{"name":"asBase","type":"bool","internalType":"bool"},{"name":"extraData","type":"bytes","internalType":"bytes"}]}],"outputs":[{"name":"","type":"uint256","internalType":"uint256"},{"name":"","type":"uint256","internalType":"uint256"}],"stateMutability":"nonpayable"},{"type":"function","name":"removeLiquidity","inputs":[{"name":"","type":"uint256","internalType":"uint256"},{"name":"","type":"uint256","internalType":"uint256"},{"name":"","type":"tuple","internalType":"struct IHyperdrive.Options","components":[{"name":"destination","type":"address","internalType":"address"},{"name":"asBase","type":"bool","internalType":"bool"},{"name":"extraData","type":"bytes","internalType":"bytes"}]}],"outputs":[{"name":"","type":"uint256","internalType":"uint256"},{"name":"","type":"uint256","internalType":"uint256"}],"stateMutability":"nonpayable"},{"type":"function","name":"setApproval","inputs":[{"name":"","type":"uint256","internalType":"uint256"},{"name":"","type":"address","internalType":"address"},{"name":"","type":"uint256","internalType":"uint256"}],"outputs":[],"stateMutability":"nonpayable"},{"type":"function","name":"setApprovalBridge","inputs":[{"name":"","type":"uint256","internalType":"uint256"},{"name":"","type":"address","internalType":"address"},{"name":"","type":"uint256","internalType":"uint256"},{"name":"","type":"address","internalType":"address"}],"outputs":[],"stateMutability":"nonpayable"},{"type":"function","name":"setApprovalForAll","inputs":[{"name":"","type":"address","internalType":"address"},{"name":"","type":"bool","internalType":"bool"}],"outputs":[],"stateMutability":"nonpayable"},{"type":"function","name":"setGovernance","inputs":[{"name":"","type":"address","internalType":"address"}],"outputs":[],"stateMutability":"nonpayable"},{"type":"function","name":"setPauser","inputs":[{"name":"","type":"address","internalType":"address"},{"name":"","type":"bool","internalType":"bool"}],"outputs":[],"stateMutability":"nonpayable"},{"type":"function","name":"sweep","inputs":[{"name":"","type":"address","internalType":"contract IERC20"}],"outputs":[],"stateMutability":"nonpayable"},{"type":"function","name":"target0","inputs":[],"outputs":[{"name":"","type":"address","internalType":"address"}],"stateMutability":"view"},{"type":"function","name":"target1","inputs":[],"outputs":[{"name":"","type":"address","internalType":"address"}],"stateMutability":"view"},{"type":"function","name":"target2","inputs":[],"outputs":[{"name":"","type":"address","internalType":"address"}],"stateMutability":"view"},{"type":"function","name":"target3","inputs":[],"outputs":[{"name":"","type":"address","internalType":"address"}],"stateMutability":"view"},{"type":"function","name":"target4","inputs":[],"outputs":[{"name":"","type":"address","internalType":"address"}],"stateMutability":"view"},{"type":"function","name":"transferFrom","inputs":[{"name":"","type":"uint256","internalType":"uint256"},{"name":"","type":"address","internalType":"address"},{"name":"","type":"address","internalType":"address"},{"name":"","type":"uint256","internalType":"uint256"}],"outputs":[],"stateMutability":"nonpayable"},{"type":"function","name":"transferFromBridge","inputs":[{"name":"","type":"uint256","internalType":"uint256"},{"name":"","type":"address","internalType":"address"},{"name":"","type":"address","internalType":"address"},{"name":"","type":"uint256","internalType":"uint256"},{"name":"","type":"address","internalType":"address"}],"outputs":[],"stateMutability":"nonpayable"},{"type":"event","name":"AddLiquidity","inputs":[{"name":"provider","type":"address","indexed":true,"internalType":"address"},{"name":"lpAmount","type":"uint256","indexed":false,"internalType":"uint256"},{"name":"baseAmount","type":"uint256","indexed":false,"internalType":"uint256"},{"name":"vaultShareAmount","type":"uint256","indexed":false,"internalType":"uint256"},{"name":"asBase","type":"bool","indexed":false,"internalType":"bool"},{"name":"lpSharePrice","type":"uint256","indexed":false,"internalType":"uint256"}],"anonymous":false},{"type":"event","name":"Approval","inputs":[{"name":"owner","type":"address","indexed":true,"internalType":"address"},{"name":"spender","type":"address","indexed":true,"internalType":"address"},{"name":"value","type":"uint256","indexed":false,"internalType":"uint256"}],"anonymous":false},{"type":"event","name":"ApprovalForAll","inputs":[{"name":"account","type":"address","indexed":true,"internalType":"address"},{"name":"operator","type":"address","indexed":true,"internalType":"address"},{"name":"approved","type":"bool","indexed":false,"internalType":"bool"}],"anonymous":false},{"type":"event","name":"CloseLong","inputs":[{"name":"trader","type":"address","indexed":true,"internalType":"address"},{"name":"assetId","type":"uint256","indexed":true,"internalType":"uint256"},{"name":"maturityTime","type":"uint256","indexed":false,"internalType":"uint256"},{"name":"baseAmount","type":"uint256","indexed":false,"internalType":"uint256"},{"name":"vaultShareAmount","type":"uint256","indexed":false,"internalType":"uint256"},{"name":"asBase","type":"bool","indexed":false,"internalType":"bool"},{"name":"bondAmount","type":"uint256","indexed":false,"internalType":"uint256"}],"anonymous":false},{"type":"event","name":"CloseShort","inputs":[{"name":"trader","type":"address","indexed":true,"internalType":"address"},{"name":"assetId","type":"uint256","indexed":true,"internalType":"uint256"},{"name":"maturityTime","type":"uint256","indexed":false,"internalType":"uint256"},{"name":"baseAmount","type":"uint256","indexed":false,"internalType":"uint256"},{"name":"vaultShareAmount","type":"uint256","indexed":false,"internalType":"uint256"},{"name":"asBase","type":"bool","indexed":false,"internalType":"bool"},{"name":"bondAmount","type":"uint256","indexed":false,"internalType":"uint256"}],"anonymous":false},{"type":"event","name":"CollectGovernanceFee","inputs":[{"name":"collector","type":"address","indexed":true,"internalType":"address"},{"name":"fees","type":"uint256","indexed":false,"internalType":"uint256"}],"anonymous":false},{"type":"event","name":"CreateCheckpoint","inputs":[{"name":"checkpointTime","type":"uint256","indexed":true,"internalType":"uint256"},{"name":"vaultSharePrice","type":"uint256","indexed":false,"internalType":"uint256"},{"name":"maturedShorts","type":"uint256","indexed":false,"internalType":"uint256"},{"name":"maturedLongs","type":"uint256","indexed":false,"internalType":"uint256"},{"name":"lpSharePrice","type":"uint256","indexed":false,"internalType":"uint256"}],"anonymous":false},{"type":"event","name":"GovernanceUpdated","inputs":[{"name":"newGovernance","type":"address","indexed":true,"internalType":"address"}],"anonymous":false},{"type":"event","name":"Initialize","inputs":[{"name":"provider","type":"address","indexed":true,"internalType":"address"},{"name":"lpAmount","type":"uint256","indexed":false,"internalType":"uint256"},{"name":"baseAmount","type":"uint256","indexed":false,"internalType":"uint256"},{"name":"vaultShareAmount","type":"uint256","indexed":false,"internalType":"uint256"},{"name":"asBase","type":"bool","indexed":false,"internalType":"bool"},{"name":"apr","type":"uint256","indexed":false,"internalType":"uint256"}],"anonymous":false},{"type":"event","name":"OpenLong","inputs":[{"name":"trader","type":"address","indexed":true,"internalType":"address"},{"name":"assetId","type":"uint256","indexed":true,"internalType":"uint256"},{"name":"maturityTime","type":"uint256","indexed":false,"internalType":"uint256"},{"name":"baseAmount","type":"uint256","indexed":false,"internalType":"uint256"},{"name":"vaultShareAmount","type":"uint256","indexed":false,"internalType":"uint256"},{"name":"asBase","type":"bool","indexed":false,"internalType":"bool"},{"name":"bondAmount","type":"uint256","indexed":false,"internalType":"uint256"}],"anonymous":false},{"type":"event","name":"OpenShort","inputs":[{"name":"trader","type":"address","indexed":true,"internalType":"address"},{"name":"assetId","type":"uint256","indexed":true,"internalType":"uint256"},{"name":"maturityTime","type":"uint256","indexed":false,"internalType":"uint256"},{"name":"baseAmount","type":"uint256","indexed":false,"internalType":"uint256"},{"name":"vaultShareAmount","type":"uint256","indexed":false,"internalType":"uint256"},{"name":"asBase","type":"bool","indexed":false,"internalType":"bool"},{"name":"baseProceeds","type":"uint256","indexed":false,"internalType":"uint256"},{"name":"bondAmount","type":"uint256","indexed":false,"internalType":"uint256"}],"anonymous":false},{"type":"event","name":"PauseStatusUpdated","inputs":[{"name":"isPaused","type":"bool","indexed":false,"internalType":"bool"}],"anonymous":false},{"type":"event","name":"PauserUpdated","inputs":[{"name":"newPauser","type":"address","indexed":true,"internalType":"address"},{"name":"status","type":"bool","indexed":false,"internalType":"bool"}],"anonymous":false},{"type":"event","name":"RedeemWithdrawalShares","inputs":[{"name":"provider","type":"address","indexed":true,"internalType":"address"},{"name":"withdrawalShareAmount","type":"uint256","indexed":false,"internalType":"uint256"},{"name":"baseAmount","type":"uint256","indexed":false,"internalType":"uint256"},{"name":"vaultShareAmount","type":"uint256","indexed":false,"internalType":"uint256"},{"name":"asBase","type":"bool","indexed":false,"internalType":"bool"}],"anonymous":false},{"type":"event","name":"RemoveLiquidity","inputs":[{"name":"provider","type":"address","indexed":true,"internalType":"address"},{"name":"lpAmount","type":"uint256","indexed":false,"internalType":"uint256"},{"name":"baseAmount","type":"uint256","indexed":false,"internalType":"uint256"},{"name":"vaultShareAmount","type":"uint256","indexed":false,"internalType":"uint256"},{"name":"asBase","type":"bool","indexed":false,"internalType":"bool"},{"name":"withdrawalShareAmount","type":"uint256","indexed":false,"internalType":"uint256"},{"name":"lpSharePrice","type":"uint256","indexed":false,"internalType":"uint256"}],"anonymous":false},{"type":"event","name":"TransferSingle","inputs":[{"name":"operator","type":"address","indexed":true,"internalType":"address"},{"name":"from","type":"address","indexed":true,"internalType":"address"},{"name":"to","type":"address","indexed":true,"internalType":"address"},{"name":"id","type":"uint256","indexed":false,"internalType":"uint256"},{"name":"value","type":"uint256","indexed":false,"internalType":"uint256"}],"anonymous":false},{"type":"error","name":"AddressEmptyCode","inputs":[{"name":"target","type":"address","internalType":"address"}]},{"type":"error","name":"AddressInsufficientBalance","inputs":[{"name":"account","type":"address","internalType":"address"}]},{"type":"error","name":"FailedInnerCall","inputs":[]},{"type":"error","name":"InvalidBaseToken","inputs":[]},{"type":"error","name":"ReentrancyGuardReentrantCall","inputs":[]},{"type":"error","name":"SafeERC20FailedOperation","inputs":[{"name":"token","type":"address","internalType":"address"}]},{"type":"error","name":"UnexpectedSuccess","inputs":[]}],"bytecode":{"object":"0x6103006040523480156200001257600080fd5b50604051620019c4380380620019c48339810160408190526200003591620005e9565b600160005586516001600160a01b0390811660809081526060808a015161018052908901516101a05260a0808a01516101c05260e0808b015190915260c0808b01519052610100808b0151909152610160808b0180515190925281516020908101516101209081528351604090810151610140908152945190950151909252808c0151851661020052838c015161022052908b0151600880546001600160a01b031916918616919091179055908a015183166101e0528883166102405287831661026052868316610280528583166102a0528483166102c0529183166102e081905281516338d52e0f60e01b8152915190926338d52e0f92600480820193918290030181865afa1580156200014e573d6000803e3d6000fd5b505050506040513d601f19601f820116820180604052508101906200017491906200073f565b6001600160a01b031687600001516001600160a01b031614620001aa57604051630722152560e11b815260040160405180910390fd5b6102e0518751620001c9916001600160a01b03909116906001620001d6565b50505050505050620007b4565b604080516001600160a01b038416602482015260448082018490528251808303909101815260649091019091526020810180516001600160e01b0390811663095ea7b360e01b17909152620002309085908390620002a216565b6200029c57604080516001600160a01b038516602482015260006044808301919091528251808303909101815260649091019091526020810180516001600160e01b0390811663095ea7b360e01b17909152620002909186916200035316565b6200029c848262000353565b50505050565b6000806000846001600160a01b031684604051620002c191906200075f565b6000604051808303816000865af19150503d806000811462000300576040519150601f19603f3d011682016040523d82523d6000602084013e62000305565b606091505b5091509150818015620003335750805115806200033357508080602001905181019062000333919062000790565b80156200034a57506000856001600160a01b03163b115b95945050505050565b60006200036a6001600160a01b03841683620003c6565b905080516000141580156200039257508080602001905181019062000390919062000790565b155b15620003c157604051635274afe760e01b81526001600160a01b03841660048201526024015b60405180910390fd5b505050565b6060620003d683836000620003dd565b9392505050565b606081471015620004045760405163cd78605960e01b8152306004820152602401620003b8565b600080856001600160a01b031684866040516200042291906200075f565b60006040518083038185875af1925050503d806000811462000461576040519150601f19603f3d011682016040523d82523d6000602084013e62000466565b606091505b5090925090506200047986838362000483565b9695505050505050565b6060826200049c576200049682620004e7565b620003d6565b8151158015620004b457506001600160a01b0384163b155b15620004df57604051639996b31560e01b81526001600160a01b0385166004820152602401620003b8565b5080620003d6565b805115620004f85780518082602001fd5b604051630a12f52160e11b815260040160405180910390fd5b50565b60405161018081016001600160401b03811182821017156200054657634e487b7160e01b600052604160045260246000fd5b60405290565b6001600160a01b03811681146200051157600080fd5b80516200056f816200054c565b919050565b6000608082840312156200058757600080fd5b604051608081016001600160401b0381118282101715620005b857634e487b7160e01b600052604160045260246000fd5b8060405250809150825181526020830151602082015260408301516040820152606083015160608201525092915050565b60008060008060008060008789036102a08112156200060757600080fd5b6101e0808212156200061857600080fd5b6200062262000514565b91506200062f8a62000562565b82526200063f60208b0162000562565b602083015260408a0151604083015260608a0151606083015260808a0151608083015260a08a015160a083015260c08a015160c083015260e08a015160e0830152610100808b015181840152506101206200069c818c0162000562565b90830152610140620006b08b820162000562565b90830152610160620006c58c8c830162000574565b8184015250819850620006da818b0162000562565b97505050620006ed610200890162000562565b9450620006fe610220890162000562565b93506200070f610240890162000562565b925062000720610260890162000562565b915062000731610280890162000562565b905092959891949750929550565b6000602082840312156200075257600080fd5b8151620003d6816200054c565b6000825160005b8181101562000782576020818601810151858301520162000766565b506000920191825250919050565b600060208284031215620007a357600080fd5b81518015158114620003d657600080fd5b60805160a05160c05160e05161010051610120516101405161016051610180516101a0516101c0516101e05161020051610220516102405161026051610280516102a0516102c0516102e0516110e3620008e16000396000505060008181610601015261099c015260008181610546015281816107cb01526109660152600081816104ff0152818161070301526109f60152600081816105ad0152818161066d01526107680152600081816101ce015281816103900152818161063d0152818161069f015281816106d1015281816107370152818161079b015281816107fc0152818161093401526109c5015260005050600050506000505060005050600050506000505060005050600050506000505060005050600050506000505060005050600050506110e36000f3fe6080604052600436106101b75760003560e01c80639cd241af116100ec578063dbbe80701161008a578063eac3e79911610064578063eac3e7991461059b578063ed64bab2146105cf578063f3f70707146105ef578063f698da2514610623576101b7565b8063dbbe807014610568578063ded06231146103ca578063e44808bc1461057b576101b7565b8063ab033ea9116100c6578063ab033ea9146102c7578063cba2e58d14610521578063cbc1343414610304578063d899e11214610534576101b7565b80639cd241af146104cd578063a22cb4651461047a578063a6e8a859146104ed576101b7565b806330adf81f116101595780634ed2d6ac116101335780634ed2d6ac1461045f5780637180c8ca1461047a57806377d05ff41461049a5780639032c726146104ad576101b7565b806330adf81f146103f85780633e691db91461042c5780634c2ac1d91461044c576101b7565b806317fad7fc1161019557806317fad7fc1461033e5780631c0f12b61461035e57806321b57d531461037e57806329b23fc1146103ca576101b7565b806301681a62146102c757806302329a29146102e9578063074a6de914610304575b3480156101c357600080fd5b5060003660606000807f00000000000000000000000000000000000000000000000000000000000000006001600160a01b03168585604051610206929190610ac4565b600060405180830381855af49150503d8060008114610241576040519150601f19603f3d011682016040523d82523d6000602084013e610246565b606091505b5091509150811561026a57604051638bb0a34b60e01b815260040160405180910390fd5b600061027582610ad4565b90506001600160e01b03198116636e64089360e11b1461029757815160208301fd5b8151600319810160048401908152926102b891810160200190602401610b45565b80519650602001945050505050f35b3480156102d357600080fd5b506102e76102e2366004610c0a565b610638565b005b3480156102f557600080fd5b506102e76102e2366004610c43565b34801561031057600080fd5b5061032461031f366004610c70565b610665565b604080519283526020830191909152015b60405180910390f35b34801561034a57600080fd5b506102e7610359366004610d0c565b61069a565b34801561036a57600080fd5b506102e7610379366004610da1565b6106cc565b34801561038a57600080fd5b506103b27f000000000000000000000000000000000000000000000000000000000000000081565b6040516001600160a01b039091168152602001610335565b3480156103d657600080fd5b506103ea6103e5366004610de9565b6106fc565b604051908152602001610335565b34801561040457600080fd5b506103ea7f65619c8664d6db8aae8c236ad19598696159942a4245b23b45565cc18e97367381565b34801561043857600080fd5b506103ea610447366004610e43565b610730565b6103ea61045a366004610e80565b610761565b34801561046b57600080fd5b506102e7610379366004610ee4565b34801561048657600080fd5b506102e7610495366004610f2e565b610796565b6103ea6104a8366004610c70565b6107c4565b3480156104b957600080fd5b506102e76104c8366004610f63565b6107f7565b3480156104d957600080fd5b506102e76104e8366004610fe1565b61092f565b3480156104f957600080fd5b506103b27f000000000000000000000000000000000000000000000000000000000000000081565b61032461052f366004610de9565b61095e565b34801561054057600080fd5b506103b27f000000000000000000000000000000000000000000000000000000000000000081565b610324610576366004610de9565b610994565b34801561058757600080fd5b506102e7610596366004611019565b6109c0565b3480156105a757600080fd5b506103b27f000000000000000000000000000000000000000000000000000000000000000081565b3480156105db57600080fd5b506102e76105ea366004611078565b6109f1565b3480156105fb57600080fd5b506103b27f000000000000000000000000000000000000000000000000000000000000000081565b34801561062f57600080fd5b506103ea610a1a565b6106617f0000000000000000000000000000000000000000000000000000000000000000610aa8565b5050565b6000806106917f0000000000000000000000000000000000000000000000000000000000000000610aa8565b50935093915050565b6106c37f0000000000000000000000000000000000000000000000000000000000000000610aa8565b50505050505050565b6106f57f0000000000000000000000000000000000000000000000000000000000000000610aa8565b5050505050565b60006107277f0000000000000000000000000000000000000000000000000000000000000000610aa8565b50949350505050565b600061075b7f0000000000000000000000000000000000000000000000000000000000000000610aa8565b50919050565b600061078c7f0000000000000000000000000000000000000000000000000000000000000000610aa8565b5095945050505050565b6107bf7f0000000000000000000000000000000000000000000000000000000000000000610aa8565b505050565b60006107ef7f0000000000000000000000000000000000000000000000000000000000000000610aa8565b509392505050565b6000807f00000000000000000000000000000000000000000000000000000000000000006001600160a01b031661082c610a1a565b60405160248101919091527f65619c8664d6db8aae8c236ad19598696159942a4245b23b45565cc18e97367360448201526001600160a01b03808c1660648301528a16608482015288151560a482015260c4810188905260ff871660e4820152610104810186905261012481018590526101440160408051601f198184030181529181526020820180516001600160e01b03166314e5f07b60e01b179052516108d59190611091565b600060405180830381855af49150503d8060008114610910576040519150601f19603f3d011682016040523d82523d6000602084013e610915565b606091505b50915091508161092757805160208201fd5b805160208201f35b6109587f0000000000000000000000000000000000000000000000000000000000000000610aa8565b50505050565b60008061098a7f0000000000000000000000000000000000000000000000000000000000000000610aa8565b5094509492505050565b60008061098a7f0000000000000000000000000000000000000000000000000000000000000000610aa8565b6109e97f0000000000000000000000000000000000000000000000000000000000000000610aa8565b505050505050565b6106617f0000000000000000000000000000000000000000000000000000000000000000610aa8565b60408051808201825260018152603160f81b60209182015281517f2aef22f9d7df5f9d21c56d14029233f3fdaa91917727e1eb68e504d27072d6cd818301527fc89efdaa54c0f20c7adf612882df0950f5a951637e0307cdcb4c672f298b8bc681840152466060820152306080808301919091528351808303909101815260a0909101909252815191012090565b6060600080836001600160a01b03166000366040516108d59291905b8183823760009101908152919050565b805160208201516001600160e01b03198082169291906004831015610b035780818460040360031b1b83161693505b505050919050565b634e487b7160e01b600052604160045260246000fd5b60005b83811015610b3c578181015183820152602001610b24565b50506000910152565b600060208284031215610b5757600080fd5b815167ffffffffffffffff80821115610b6f57600080fd5b818401915084601f830112610b8357600080fd5b815181811115610b9557610b95610b0b565b604051601f8201601f19908116603f01168101908382118183101715610bbd57610bbd610b0b565b81604052828152876020848701011115610bd657600080fd5b610be7836020830160208801610b21565b979650505050505050565b6001600160a01b0381168114610c0757600080fd5b50565b600060208284031215610c1c57600080fd5b8135610c2781610bf2565b9392505050565b80358015158114610c3e57600080fd5b919050565b600060208284031215610c5557600080fd5b610c2782610c2e565b60006060828403121561075b57600080fd5b600080600060608486031215610c8557600080fd5b8335925060208401359150604084013567ffffffffffffffff811115610caa57600080fd5b610cb686828701610c5e565b9150509250925092565b60008083601f840112610cd257600080fd5b50813567ffffffffffffffff811115610cea57600080fd5b6020830191508360208260051b8501011115610d0557600080fd5b9250929050565b60008060008060008060808789031215610d2557600080fd5b8635610d3081610bf2565b95506020870135610d4081610bf2565b9450604087013567ffffffffffffffff80821115610d5d57600080fd5b610d698a838b01610cc0565b90965094506060890135915080821115610d8257600080fd5b50610d8f89828a01610cc0565b979a9699509497509295939492505050565b60008060008060808587031215610db757600080fd5b843593506020850135610dc981610bf2565b92506040850135610dd981610bf2565b9396929550929360600135925050565b60008060008060808587031215610dff57600080fd5b843593506020850135925060408501359150606085013567ffffffffffffffff811115610e2b57600080fd5b610e3787828801610c5e565b91505092959194509250565b600060208284031215610e5557600080fd5b813567ffffffffffffffff811115610e6c57600080fd5b610e7884828501610c5e565b949350505050565b600080600080600060a08688031215610e9857600080fd5b85359450602086013593506040860135925060608601359150608086013567ffffffffffffffff811115610ecb57600080fd5b610ed788828901610c5e565b9150509295509295909350565b60008060008060808587031215610efa57600080fd5b843593506020850135610f0c81610bf2565b9250604085013591506060850135610f2381610bf2565b939692955090935050565b60008060408385031215610f4157600080fd5b8235610f4c81610bf2565b9150610f5a60208401610c2e565b90509250929050565b600080600080600080600060e0888a031215610f7e57600080fd5b8735610f8981610bf2565b96506020880135610f9981610bf2565b9550610fa760408901610c2e565b945060608801359350608088013560ff81168114610fc457600080fd5b9699959850939692959460a0840135945060c09093013592915050565b600080600060608486031215610ff657600080fd5b83359250602084013561100881610bf2565b929592945050506040919091013590565b600080600080600060a0868803121561103157600080fd5b85359450602086013561104381610bf2565b9350604086013561105381610bf2565b925060608601359150608086013561106a81610bf2565b809150509295509295909350565b60006020828403121561108a57600080fd5b5035919050565b600082516110a3818460208701610b21565b919091019291505056fea2646970667358221220529e00d0de540250fcd6bb1bc6c82445fd99d40d4cad89360e16c2f05de008a464736f6c63430008140033","linkReferences":{}},"methodIdentifiers":{"PERMIT_TYPEHASH()":"30adf81f","addLiquidity(uint256,uint256,uint256,uint256,(address,bool,bytes))":"4c2ac1d9","batchTransferFrom(address,address,uint256[],uint256[])":"17fad7fc","checkpoint(uint256)":"ed64bab2","closeLong(uint256,uint256,uint256,(address,bool,bytes))":"ded06231","closeShort(uint256,uint256,uint256,(address,bool,bytes))":"29b23fc1","collectGovernanceFee((address,bool,bytes))":"3e691db9","domainSeparator()":"f698da25","initialize(uint256,uint256,(address,bool,bytes))":"77d05ff4","openLong(uint256,uint256,uint256,(address,bool,bytes))":"cba2e58d","openShort(uint256,uint256,uint256,(address,bool,bytes))":"dbbe8070","pause(bool)":"02329a29","permitForAll(address,address,bool,uint256,uint8,bytes32,bytes32)":"9032c726","redeemWithdrawalShares(uint256,uint256,(address,bool,bytes))":"074a6de9","removeLiquidity(uint256,uint256,(address,bool,bytes))":"cbc13434","setApproval(uint256,address,uint256)":"9cd241af","setApprovalBridge(uint256,address,uint256,address)":"4ed2d6ac","setApprovalForAll(address,bool)":"a22cb465","setGovernance(address)":"ab033ea9","setPauser(address,bool)":"7180c8ca","sweep(address)":"01681a62","target0()":"21b57d53","target1()":"eac3e799","target2()":"a6e8a859","target3()":"d899e112","target4()":"f3f70707","transferFrom(uint256,address,address,uint256)":"1c0f12b6","transferFromBridge(uint256,address,address,uint256,address)":"e44808bc"},"id":24}