{"abi":[{"type":"function","name":"deployTarget","inputs":[{"name":"_config","type":"tuple","internalType":"struct IHyperdrive.PoolConfig","components":[{"name":"baseToken","type":"address","internalType":"contract IERC20"},{"name":"vaultSharesToken","type":"address","internalType":"contract IERC20"},{"name":"linkerFactory","type":"address","internalType":"address"},{"name":"linkerCodeHash","type":"bytes32","internalType":"bytes32"},{"name":"initialVaultSharePrice","type":"uint256","internalType":"uint256"},{"name":"minimumShareReserves","type":"uint256","internalType":"uint256"},{"name":"minimumTransactionAmount","type":"uint256","internalType":"uint256"},{"name":"circuitBreakerDelta","type":"uint256","internalType":"uint256"},{"name":"positionDuration","type":"uint256","internalType":"uint256"},{"name":"checkpointDuration","type":"uint256","internalType":"uint256"},{"name":"timeStretch","type":"uint256","internalType":"uint256"},{"name":"governance","type":"address","internalType":"address"},{"name":"feeCollector","type":"address","internalType":"address"},{"name":"sweepCollector","type":"address","internalType":"address"},{"name":"checkpointRewarder","type":"address","internalType":"address"},{"name":"fees","type":"tuple","internalType":"struct IHyperdrive.Fees","components":[{"name":"curve","type":"uint256","internalType":"uint256"},{"name":"flat","type":"uint256","internalType":"uint256"},{"name":"governanceLP","type":"uint256","internalType":"uint256"},{"name":"governanceZombie","type":"uint256","internalType":"uint256"}]}]},{"name":"","type":"bytes","internalType":"bytes"},{"name":"_salt","type":"bytes32","internalType":"bytes32"}],"outputs":[{"name":"","type":"address","internalType":"address"}],"stateMutability":"nonpayable"}],"bytecode":{"object":"0x608060405234801561001057600080fd5b506144e4806100206000396000f3fe608060405234801561001057600080fd5b506004361061002b5760003560e01c80636b32370714610030575b600080fd5b61004361003e366004610227565b61005f565b6040516001600160a01b03909116815260200160405180910390f35b604080513360208201529081018290526000906060016040516020818303038152906040528051906020012084604051610098906100cb565b6100a2919061036f565b8190604051809103906000f59050801580156100c2573d6000803e3d6000fd5b50949350505050565b61401a8061049583390190565b634e487b7160e01b600052604160045260246000fd5b604051610200810167ffffffffffffffff81118282101715610112576101126100d8565b60405290565b80356001600160a01b038116811461012f57600080fd5b919050565b60006080828403121561014657600080fd5b6040516080810181811067ffffffffffffffff82111715610169576101696100d8565b8060405250809150823581526020830135602082015260408301356040820152606083013560608201525092915050565b600082601f8301126101ab57600080fd5b813567ffffffffffffffff808211156101c6576101c66100d8565b604051601f8301601f19908116603f011681019082821181831017156101ee576101ee6100d8565b8160405283815286602085880101111561020757600080fd5b836020870160208301376000602085830101528094505050505092915050565b60008060008385036102a081121561023e57600080fd5b6102608082121561024e57600080fd5b6102566100ee565b915061026186610118565b825261026f60208701610118565b602083015261028060408701610118565b6040830152606086013560608301526080860135608083015260a086013560a083015260c086013560c083015260e086013560e08301526101008087013581840152506101208087013581840152506101408087013581840152506101606102e9818801610118565b908301526101806102fb878201610118565b908301526101a061030d878201610118565b908301526101c061031f878201610118565b908301526101e061033288888301610134565b9083015290935084013567ffffffffffffffff81111561035157600080fd5b61035d8682870161019a565b92505061028084013590509250925092565b81516001600160a01b031681526102608101602083015161039b60208401826001600160a01b03169052565b5060408301516103b660408401826001600160a01b03169052565b50606083015160608301526080830151608083015260a083015160a083015260c083015160c083015260e083015160e083015261010080840151818401525061012080840151818401525061014080840151818401525061016080840151610428828501826001600160a01b03169052565b5050610180838101516001600160a01b03908116918401919091526101a0808501518216908401526101c080850151909116908301526101e09283015180519383019390935260208301516102008301526040830151610220830152606090920151610240909101529056fe6102606040523480156200001257600080fd5b506040516200401a3803806200401a833981016040819052620000359162000202565b600160005580516001600160a01b039081166080908152602080840151831660a0908152918401516101a0908152918401516101c090815260c0808601516101e090815260e0808801516102005261012080890151909352610100808901519091526101408089015190915290870180515190925281519093015190925281516040908101516101609081529251606090810151610180908152918701518616610220528601516102405291850151600980546001600160a01b031990811692871692909217905591850151600a8054841691861691909117905591840151600b80548316918516919091179055920151600c8054909316911617905562000315565b60405161020081016001600160401b03811182821017156200016a57634e487b7160e01b600052604160045260246000fd5b60405290565b80516001600160a01b03811681146200018857600080fd5b919050565b600060808284031215620001a057600080fd5b604051608081016001600160401b0381118282101715620001d157634e487b7160e01b600052604160045260246000fd5b8060405250809150825181526020830151602082015260408301516040820152606083015160608201525092915050565b600061026082840312156200021657600080fd5b6200022062000138565b6200022b8362000170565b81526200023b6020840162000170565b60208201526200024e6040840162000170565b6040820152606083015160608201526080830151608082015260a083015160a082015260c083015160c082015260e083015160e0820152610100808401518183015250610120808401518183015250610140808401518183015250610160620002b981850162000170565b90820152610180620002cd84820162000170565b908201526101a0620002e184820162000170565b908201526101c0620002f584820162000170565b908201526101e06200030a858583016200018d565b908201529392505050565b60805160a05160c05160e05161010051610120516101405161016051610180516101a0516101c0516101e051610200516102205161024051613b69620004b16000396000505060005050600081816104c5015281816104f4015261052101526000818161032c0152818161076b01528181610c3d015261193201526000818161090d015281816109f801528181610a8b01528181610b530152818161190c01528181612498015281816124fb01528181612881015281816128bd0152612ab501526000818161038d0152818161097d01528181610f3901526118e60152600061209d015260006121f80152600081816110fd01526121cc015260005050600081816103cf015281816109d001528181610f5a01526119580152600081816103ae0152818161049a015281816109aa015281816110350152612dda0152600081816102840152818161045901528181610df801528181610e7301528181610ee901528181610fb50152610fed015260008181611de801528181612c5301528181612cee01528181612fdb0152613053015260005050613b696000f3fe60806040526004361061004a5760003560e01c8063074a6de91461004f578063414f826d146100895780634c2ac1d9146100ab57806377d05ff4146100cc578063cbc13434146100df575b600080fd5b34801561005b57600080fd5b5061006f61006a366004613547565b6100ff565b604080519283526020830191909152015b60405180910390f35b34801561009557600080fd5b506100a96100a4366004613597565b61011a565b005b6100be6100b93660046135b9565b610128565b604051908152602001610080565b6100be6100da366004613547565b610143565b3480156100eb57600080fd5b5061006f6100fa366004613547565b61015a565b60008061010d858585610168565b915091505b935093915050565b610124828261022d565b5050565b600061013786868686866102ee565b90505b95945050505050565b60006101508484846108bf565b90505b9392505050565b60008061010d858585610c27565b600080610173610d75565b61017c83610d9f565b6000610186610dd8565b905061019d610193610df0565b8260046001610e1c565b506101ab3387838888611413565b90935091506101bd602085018561361d565b6001600160a01b0316337f07210cf9a89fae8012341fdc131255728787856379269f07c2e41c23b3c09b588486856101fb60408b0160208c01613654565b61020860408c018c613671565b60405161021a969594939291906136e1565b60405180910390a3506101126001600055565b610235610d75565b600061023f610dd8565b6000848152600860205260409020600101549091506001600160801b0316156102735761026c8183611556565b50506102e4565b600061027d610df0565b90506102a97f000000000000000000000000000000000000000000000000000000000000000085613731565b1515806102b557508381105b156102d35760405163ecd29e8160e01b815260040160405180910390fd5b6102e08483856000610e1c565b5050505b6101246001600055565b60006102f8610d75565b600654610100900460ff1615610321576040516321081abf60e01b815260040160405180910390fd5b61032a82610d9f565b7f000000000000000000000000000000000000000000000000000000000000000086101561036b5760405163211ddda360e11b815260040160405180910390fd5b60006103f3610378611751565b600254600160801b90046001600160801b03167f00000000000000000000000000000000000000000000000000000000000000007f00000000000000000000000000000000000000000000000000000000000000007f0000000000000000000000000000000000000000000000000000000000000000611772565b90508481108061040257508381115b1561042057604051633b61151160e11b815260040160405180910390fd5b60008061042d8986611798565b91509150600061043b610df0565b905061044b818360046001610e1c565b5060006104be60088261047e7f00000000000000000000000000000000000000000000000000000000000000008661375b565b81526020810191909152604001600020546001600160801b03167f0000000000000000000000000000000000000000000000000000000000000000611871565b90506104ea7f00000000000000000000000000000000000000000000000000000000000000008261376e565b85118061054957507f00000000000000000000000000000000000000000000000000000000000000008111801561054957506105467f00000000000000000000000000000000000000000000000000000000000000008261375b565b85105b1561056757604051630552b01360e31b815260040160405180910390fd5b50600754600360f81b600090815260106020527fd6f7110f7a6485ce27c724322bdc9b60c9b2518194eace178d55653f1be730215490916105b3916001600160801b039091169061375b565b600080805260106020527f6e0956cda88cad152e89927e53611735b61a5c762d1428573c6931b0a5efcb0154919250906105ee90839061376e565b905060008060006105fe8761189d565b604051635f9d50ab60e11b815290915073__$2b4fa6f02a36eedfe41c65e8dd342257d3$__9063bf3aa156906106389084906004016137ff565b602060405180830381865af4158015610655573d6000803e3d6000fd5b505050506040513d601f19601f82011682018060405250810190610679919061380e565b915061068c610687896119d7565b611a05565b6002546001600160801b03808216835260048054600f0b6020850152600160801b9092041660408084019190915251635f9d50ab60e11b815273__$2b4fa6f02a36eedfe41c65e8dd342257d3$__9163bf3aa156916106ed918591016137ff565b602060405180830381865af415801561070a573d6000803e3d6000fd5b505050506040513d601f19601f8201168201806040525081019061072e919061380e565b9250818310156107515760405163184d952160e11b815260040160405180910390fd5b6107678483610760818761375b565b9190611a2b565b99507f00000000000000000000000000000000000000000000000000000000000000008a10156107aa5760405163211ddda360e11b815260040160405180910390fd5b508d8d6107b7828c611a49565b10156107d65760405163c972651760e01b815260040160405180910390fd5b6107ee60006107e860208e018e61361d565b8c611a5e565b60006107f988611b07565b90508061081957604051638bdf918d60e01b815260040160405180910390fd5b600085156108305761082b8487611a49565b610833565b60005b90508c610843602082018261361d565b6001600160a01b03167fdcc4a01cea4510bd52201cebc8cd2d47d60429b35d68329abc591a70aa2efabf8e868d6108806040870160208801613654565b8761088e6040890189613671565b6040516108a19796959493929190613827565b60405180910390a250505050505050505050505061013a6001600055565b60006108c9610d75565b6108d282610d9f565b60065460ff16156108f657604051637983c05160e01b815260040160405180910390fd5b6000806109038685611798565b90925090506109337f00000000000000000000000000000000000000000000000000000000000000006002613868565b82101561095357604051632afb507160e21b815260040160405180910390fd5b6006805460ff1916600117905560405163594f0e8f60e11b815260048101839052602481018290527f00000000000000000000000000000000000000000000000000000000000000006044820152606481018690527f000000000000000000000000000000000000000000000000000000000000000060848201527f000000000000000000000000000000000000000000000000000000000000000060a482015260027f000000000000000000000000000000000000000000000000000000000000000002830393506000908190819073__$2b4fa6f02a36eedfe41c65e8dd342257d3$__9063b29e1d1e9060c401606060405180830381865af4158015610a5f573d6000803e3d6000fd5b505050506040513d601f19601f82011682018060405250810190610a83919061387f565b9250925092507f0000000000000000000000000000000000000000000000000000000000000000610ab48484611b14565b1015610ad35760405163216f4ab160e21b815260040160405180910390fd5b610adc83611b3a565b600280546001600160801b0319166001600160801b0392909216919091179055610b0582611b64565b600480546001600160801b0319166001600160801b0392909216919091179055610b2e81611b3a565b600280546001600160801b03928316600160801b029216919091179055610b776000807f0000000000000000000000000000000000000000000000000000000000000000611a5e565b610b8f6000610b8960208a018a61361d565b88611a5e565b610ba4610b9a610df0565b8560046001610e1c565b50610bb2602088018861361d565b6001600160a01b03167f4931b9953a65531203c17d9abe77870a3e49d8b13af522ec3321c18b5abb8af3878b87610bef60408d0160208e01613654565b8d610bfd60408f018f613671565b604051610c109796959493929190613827565b60405180910390a250505050506101536001600055565b600080610c32610d75565b610c3b83610d9f565b7f0000000000000000000000000000000000000000000000000000000000000000851015610c7c5760405163211ddda360e11b815260040160405180910390fd5b6000610c86610dd8565b9050610c93610193610df0565b50610ca060003388611ba0565b610cb5600360f81b610b89602087018761361d565b6000610cd0610cc7602087018761361d565b88848989611413565b9094509050610cdf818861375b565b92506000610cec83611c71565b509050610cfc602087018761361d565b6001600160a01b0316337f1c7999deb68182de77ce89d32f82d0e13eb042921b2bfa9f35aa1c43f62f261e8a8887610d3a60408d0160208e01613654565b8a888e8060400190610d4c9190613671565b604051610d609897969594939291906138ad565b60405180910390a35050506101126001600055565b600260005403610d9857604051633ee5aeb560e01b815260040160405180910390fd5b6002600055565b6000610dae602083018361361d565b6001600160a01b031603610dd55760405163f0dd15fd60e01b815260040160405180910390fd5b50565b6000610deb670de0b6b3a7640000611dcf565b905090565b6000610deb427f0000000000000000000000000000000000000000000000000000000000000000611e5c565b600084815260086020526040812060018101546001600160801b0316151580610e4457504286115b15610e5d57600101546001600160801b0316905061140b565b6000806000610e6a610df0565b90506000610e987f00000000000000000000000000000000000000000000000000000000000000008b61376e565b90505b81811015610f0e576000818152600860205260409020600101546001600160801b03168015610ee6576000828152600860205260409020549094506001600160801b03169250610f0e565b507f000000000000000000000000000000000000000000000000000000000000000001610e9b565b83600003610f8157889350610f7e610f24611751565b600254600160801b90046001600160801b03167f00000000000000000000000000000000000000000000000000000000000000007f0000000000000000000000000000000000000000000000000000000000000000611e72565b92505b50610f8b83611b3a565b6001850180546001600160801b0319166001600160801b0392909216919091179055610fe1610fda7f00000000000000000000000000000000000000000000000000000000000000008b61375b565b8a84611e89565b61101f896110196110127f00000000000000000000000000000000000000000000000000000000000000008361376e565b4290611fc7565b84611e89565b61102888611fdc565b506000905060088161105a7f00000000000000000000000000000000000000000000000000000000000000008d61375b565b815260208101919091526040016000908120600101546001600160801b0316915061108660028c612180565b6000818152601060205260408120549192508c8c83156111cc57600192506000806110b586898d8660006121b5565b9150915080600d60008282546110cb919061376e565b909155506110e79050866000846110e1816119d7565b88612284565b6110f1818361376e565b915061112186838a8e877f00000000000000000000000000000000000000000000000000000000000000006123fe565b91506111356111308385612442565b612457565b600680546002906111569084906201000090046001600160701b03166138f5565b92506101000a8154816001600160701b0302191690836001600160701b0316021790555061118382611b3a565b600680546010906111a5908490600160801b90046001600160801b0316613915565b92506101000a8154816001600160801b0302191690836001600160801b0316021790555050505b60006111d9600184612180565b60008181526010602052604090205490915080156112e85760019450600080611206838b8f8860016121b5565b9150915080600d600082825461121c919061376e565b90915550611238905083600084611232816119d7565b8a612481565b611242818361375b565b91506112516111308387612442565b600680546002906112729084906201000090046001600160701b03166138f5565b92506101000a8154816001600160701b0302191690836001600160701b0316021790555061129f82611b3a565b600680546010906112c1908490600160801b90046001600160801b0316613915565b92506101000a8154816001600160801b0302191690836001600160801b0316021790555050505b8415611322576113146112fa876119d7565b611303836119d7565b61130d9190613935565b6000612672565b8e61131f8482611556565b50505b600061132d84611c71565b50604080518e815260208101879052908101899052606081018490526080810182905290915085907fff888cf98d2696e95c8c39aa98c9ad55a5378008f7a56614c9353b7137a57ab79060a00160405180910390a2600c546001600160a01b0316156113fb578e6113f75a604051336024820152604481018990528315156064820152600090819060840160408051601f198184030181529190526020810180516001600160e01b0316633488a6a760e11b179052600c546001600160a01b031693929190612725565b5050505b50999b5050505050505050505050505b949350505050565b60008061141f85611b07565b505060075485906001600160801b03168082111561144457806001600160801b031691505b8160000361145957600080925092505061154c565b611468600360f81b8984611ba0565b60075460009061148e9084906001600160801b03600160801b9091048116908516611a2b565b905061149983611b3a565b6114a39083613955565b600780546001600160801b0319166001600160801b03929092169190911790556114cc81611b3a565b600780546010906114ee908490600160801b90046001600160801b0316613955565b92506101000a8154816001600160801b0302191690836001600160801b0316021790555061151d8188876127b0565b9350611529868461284a565b8410156115495760405163c972651760e01b815260040160405180910390fd5b50505b9550959350505050565b600754600360f81b600090815260106020527fd6f7110f7a6485ce27c724322bdc9b60c9b2518194eace178d55653f1be7302154909182916115a1916001600160801b03169061375b565b9050806000036115b557600191505061174b565b60006115c08561285f565b9050806000036115d55760019250505061174b565b6000806115e38385896128fb565b91509150806115f957600094505050505061174b565b60008073__$2b4fa6f02a36eedfe41c65e8dd342257d3$__632c03ef68858a6040518363ffffffff1660e01b8152600401611635929190613975565b6040805180830381865af4158015611651573d6000803e3d6000fd5b505050506040513d601f19601f8201168201806040525081019061167591906139eb565b91509150611693611685826119d7565b61168e90613a0f565b612a6f565b9250826116a9576000965050505050505061174b565b6116b282611b3a565b600780546000906116cd9084906001600160801b0316613915565b92506101000a8154816001600160801b0302191690836001600160801b031602179055506116fa81611b3a565b6007805460109061171c908490600160801b90046001600160801b0316613915565b92506101000a8154816001600160801b0302191690836001600160801b03160217905550600196505050505050505b92915050565b600254600454600091610deb916001600160801b0390911690600f0b611b14565b60008061178187878786611e72565b905061178d8185611871565b979650505050505050565b600080806117ac6040850160208601613654565b156117d1576117c7856117c26040870187613671565b612c07565b90935090506117ed565b50346117e9856117e46040870187613671565b612ccc565b8492505b6117f5610dd8565b9150801561186857604051600090339083908381818185875af1925050503d806000811461183f576040519150601f19603f3d011682016040523d82523d6000602084013e611844565b606091505b5050905080611866576040516312171d8360e31b815260040160405180910390fd5b505b505b9250929050565b600061015361188584846301e13380612d69565b61189785670de0b6b3a764000061375b565b90611a49565b6118a5613482565b60408051610180810182526002546001600160801b038082168352600454600f0b6020840152600160801b91829004811693830193909352606082018590527f000000000000000000000000000000000000000000000000000000000000000060808301527f000000000000000000000000000000000000000000000000000000000000000060a08301527f000000000000000000000000000000000000000000000000000000000000000060c08301527f000000000000000000000000000000000000000000000000000000000000000060e0830152600354048216610100820152600554909161012083019161199d9116612d8f565b81526004546001600160801b03600160801b91829004811660208401526005546040909301926119cf92900416612d8f565b905292915050565b60006001600160ff1b03821115611a015760405163396ea70160e11b815260040160405180910390fd5b5090565b611a0e81612a6f565b610dd557604051635044b7f560e01b815260040160405180910390fd5b6000826000190484118302158202611a4257600080fd5b5091020490565b600061015383670de0b6b3a764000084611a2b565b6000838152600f602090815260408083206001600160a01b038616845290915281208054839290611a9090849061376e565b909155505060008381526010602052604081208054839290611ab390849061376e565b909155505060408051848152602081018390526001600160a01b0384169160009133917fc3d58168c5ae7397731d063d5bbf3d657854427343f4c083240f7aacaa2d0f6291015b60405180910390a4505050565b600061174b826004611556565b600080611b218484612e05565b909250905080611b3357611b33612e41565b5092915050565b60006001600160801b03821115611a0157604051630f0af95160e11b815260040160405180910390fd5b600060016001607f1b0319821280611b82575060016001607f1b0382135b15611a015760405163a5353be560e01b815260040160405180910390fd5b6000838152600f602090815260408083206001600160a01b0386168452909152902054811115611be357604051631e9acf1760e31b815260040160405180910390fd5b6000838152600f602090815260408083206001600160a01b0386168452825280832080548590039055858352601090915281208054839290611c2690849061375b565b909155505060408051848152602081018390526000916001600160a01b0385169133917fc3d58168c5ae7397731d063d5bbf3d657854427343f4c083240f7aacaa2d0f629101611afa565b60008060008073__$2b4fa6f02a36eedfe41c65e8dd342257d3$__635a1b419e611c9a8761189d565b6040518263ffffffff1660e01b8152600401611cb691906137ff565b6040805180830381865af4158015611cd2573d6000803e3d6000fd5b505050506040513d601f19601f82011682018060405250810190611cf69190613a2b565b9150915080611d0c575060009485945092505050565b6000808611611d1c576000611d26565b611d268387612442565b60075460106020527fd6f7110f7a6485ce27c724322bdc9b60c9b2518194eace178d55653f1be730215460008080527f6e0956cda88cad152e89927e53611735b61a5c762d1428573c6931b0a5efcb0154939450926001600160801b0390921691611d91919061376e565b611d9b919061375b565b905080600003611db45750600096879650945050505050565b6000611dc08383611a49565b98600198509650505050505050565b604051630f451f7160e31b8152600481018290526000907f00000000000000000000000000000000000000000000000000000000000000006001600160a01b031690637a28fb88906024015b602060405180830381865afa158015611e38573d6000803e3d6000fd5b505050506040513d601f19601f8201168201806040525081019061174b919061380e565b6000611e688284613731565b610153908461375b565b600061013a82611e83858888611a2b565b90612e5a565b600083815260086020526040902054600160801b90046001600160801b0316808303611eb55750505050565b6000848152600860205260408120546001600160801b031690819003611f0f57611ede83611b3a565b600086815260086020526040902080546001600160801b0319166001600160801b0392909216919091179055611f8d565b611f60611f5b670de0b6b3a7640000611f28888661375b565b611f329190613868565b85670de0b6b3a7640000611f46878a61375b565b611f509190613868565b859291906001612ecf565b611b3a565b600086815260086020526040902080546001600160801b0319166001600160801b03929092169190911790555b611f9684611b3a565b60009586526008602052604090952080546001600160801b03968716600160801b0296169590951790945550505050565b6000818311611fd65782610153565b50919050565b6006546000908190611fff908490600160801b90046001600160801b0316612442565b6006546201000090046001600160701b0316925090508181111561217b576000612029838361375b565b9050612038611f5b8286612f6d565b6006805460109061205a908490600160801b90046001600160801b0316613955565b92506101000a8154816001600160801b0302191690836001600160801b0316021790555060006120938583611a4990919063ffffffff16565b905060006120c1827f0000000000000000000000000000000000000000000000000000000000000000612442565b905080600d60008282546120d5919061376e565b909155506120e59050818361375b565b91506120f082611b3a565b6002805460009061210b9084906001600160801b0316613915565b92506101000a8154816001600160801b0302191690836001600160801b0316021790555061213882612f82565b6004805460009061214d908490600f0b613a5b565b92506101000a8154816001600160801b030219169083600f0b6001600160801b031602179055508493505050505b915091565b60006001600160f81b038211156121aa5760405163b7d0949760e01b815260040160405180910390fd5b5060f89190911b1790565b6000806121c28785611a49565b915060006121f0837f0000000000000000000000000000000000000000000000000000000000000000612442565b905061221c817f0000000000000000000000000000000000000000000000000000000000000000612442565b9150831561223f5761222e828261375b565b612238908461375b565b9250612256565b612249828261375b565b612253908461376e565b92505b8686101561227957612269838789611a2b565b9250612276828789611a2b565b91505b509550959350505050565b600454600160801b90046001600160801b03166122cd611f5b826122b0670de0b6b3a764000086613868565b600554600160801b90046001600160801b031691908a6000612ecf565b600580546001600160801b03928316600160801b0292169190911790556122f386611b3a565b6122fd9082613955565b600480546001600160801b03928316600160801b02921691909117905561232384611b3a565b6002805460009061233e9084906001600160801b0316613915565b92506101000a8154816001600160801b0302191690836001600160801b0316021790555061236b83611b64565b60048054600090612380908490600f0b613a5b565b92506101000a8154816001600160801b030219169083600f0b6001600160801b031602179055506123b085611b3a565b600280546010906123d2908490600160801b90046001600160801b0316613955565b92506101000a8154816001600160801b0302191690836001600160801b03160217905550505050505050565b600080612410846118978a888a611a2b565b905061241d888486611a2b565b612427908261376e565b9050868111156124375786810391505b509695505050505050565b60006101538383670de0b6b3a7640000611a2b565b60006001600160701b03821115611a015760405163086b151760e11b815260040160405180910390fd5b6002546001600160801b0316838110806124c357507f00000000000000000000000000000000000000000000000000000000000000006124c1858361375b565b105b156124d0576124d0612e41565b6004549084900390600f0b6124e58482613935565b9050836124f1866119d7565b13801561252657507f00000000000000000000000000000000000000000000000000000000000000006125248383611b14565b105b1561253357612533612e41565b600354600160801b90046001600160801b0316612575611f5b8261255f670de0b6b3a764000088613868565b6005546001600160801b031691908c6000612ecf565b600580546001600160801b0319166001600160801b039290921691909117905561259f888261375b565b90506125aa81611b3a565b600380546001600160801b03928316600160801b0292169190911790556125d083611b3a565b600280546001600160801b0319166001600160801b03929092169190911790556125f982611b64565b600480546001600160801b0319166001600160801b039290921691909117905561262287611b3a565b60028054601090612644908490600160801b90046001600160801b0316613915565b92506101000a8154816001600160801b0302191690836001600160801b031602179055505050505050505050565b600061269b6126818483612fac565b61268c846000612fac565b6126969190613935565b611b64565b9050600081600f0b13156126f057600380548291906000906126c79084906001600160801b0316613915565b92506101000a8154816001600160801b0302191690836001600160801b03160217905550505050565b600081600f0b12156127205761270581613a88565b600380546000906126c79084906001600160801b0316613955565b505050565b6000606060008060008661ffff1667ffffffffffffffff81111561274b5761274b613aae565b6040519080825280601f01601f191660200182016040528015612775576020820181803683370190505b5090506000808751602089018b8e8ef191503d925086831115612796578692505b828152826000602083013e90999098509650505050505050565b6000806127bd8585612442565b90506127c881612fc2565b9450846000036127dc576000915050610153565b6127ec6040840160208501613654565b1561281b5761281485612802602086018661361d565b61280f6040870187613671565b613012565b9150612842565b61283e8561282c602086018661361d565b6128396040870187613671565b61302d565b8491505b509392505050565b60006101538383670de0b6b3a7640000612d69565b600354600090819061287a906001600160801b031684612f6d565b90506128a67f00000000000000000000000000000000000000000000000000000000000000008261376e565b6002546001600160801b03161115611fd6576002547f0000000000000000000000000000000000000000000000000000000000000000906128f19083906001600160801b031661375b565b610153919061375b565b6129036134e3565b60008061290f8461189d565b9050600073__$2b4fa6f02a36eedfe41c65e8dd342257d3$__635a1b419e836040518263ffffffff1660e01b815260040161294a91906137ff565b6040805180830381865af4158015612966573d6000803e3d6000fd5b505050506040513d601f19601f8201168201806040525081019061298a9190613a2b565b935090508261299f5750600091506101129050565b60006129c66129c184610160015185610140015161244290919063ffffffff16565b6119d7565b6129e66129c185610120015186610100015161284a90919063ffffffff16565b6129f09190613935565b604080516101208101825285815260208082019590955260008052601085527f6e0956cda88cad152e89927e53611735b61a5c762d1428573c6931b0a5efcb0154818301526060810199909952608089019990995260a088015250815160c087015281015160e086015290940151610100840152509092600192509050565b6002546004805460405163685a2be760e11b81526001600160801b03808516938201849052600f9290920b60248201819052600160801b909404909116604482018190527f000000000000000000000000000000000000000000000000000000000000000060648301526084820185905260009391849081908190819073__$2b4fa6f02a36eedfe41c65e8dd342257d3$__9063d0b457ce9060a401608060405180830381865af4158015612b28573d6000803e3d6000fd5b505050506040513d601f19601f82011682018060405250810190612b4c9190613ac4565b935093509350935080612b685750600098975050505050505050565b868414612b9957612b7884611b3a565b600280546001600160801b0319166001600160801b03929092169190911790555b858314612bca57612ba983611b64565b600480546001600160801b0319166001600160801b03929092169190911790555b848214612bf857612bda82611b3a565b600280546001600160801b03928316600160801b0292169190911790555b50600198975050505050505050565b60008084341015612c2b576040516312171d8360e31b815260040160405180910390fd5b50600a5460405163a1903eab60e01b81526001600160a01b03918216600482015234869003917f0000000000000000000000000000000000000000000000000000000000000000169063a1903eab90879060240160206040518083038185885af1158015612c9d573d6000803e3d6000fd5b50505050506040513d601f19601f82011682018060405250810190612cc2919061380e565b9150935093915050565b604051636d78045960e01b8152336004820152306024820152604481018490527f00000000000000000000000000000000000000000000000000000000000000006001600160a01b031690636d780459906064016020604051808303816000875af1158015612d3f573d6000803e3d6000fd5b505050506040513d601f19601f82011682018060405250810190612d63919061380e565b50505050565b6000826000190484118302158202612d8057600080fd5b50910281810615159190040190565b600080670de0b6b3a7640000612da3610df0565b612dad9190613868565b9050808311612dbd576000612dc7565b612dc7818461375b565b9150610153612dfe670de0b6b3a76400007f0000000000000000000000000000000000000000000000000000000000000000613868565b8390611a49565b600080600083612e14866119d7565b612e1e9190613935565b90506000811215612e3657600080925092505061186a565b946001945092505050565b60405163bb55fd2760e01b815260040160405180910390fd5b600081600003612e735750670de0b6b3a764000061174b565b82600003612e835750600061174b565b6000612e8e836119d7565b90506000612ea3612e9e866119d7565b6130c7565b9050818102612eba670de0b6b3a764000082613b05565b9050612ec5816132ed565b9695505050505050565b600082600003612ee057508461013a565b8115612f3357612f11612ef3848761376e565b612efd8587612442565b612f07888a612442565b611897919061376e565b90506000612f1f8588611fc7565b905080821015612f2d578091505b5061013a565b828503612f425750600061013a565b610137612f4f848761375b565b612f59858761284a565b612f63888a612442565b611897919061375b565b600061015383670de0b6b3a764000084612d69565b600060016001607f1b03821115611a015760405163a5353be560e01b815260040160405180910390fd5b6000818313612fbb5781610153565b5090919050565b604051631920845160e01b8152600481018290526000907f00000000000000000000000000000000000000000000000000000000000000006001600160a01b031690631920845190602401611e1b565b600060405163350b944160e11b815260040160405180910390fd5b604051638fcb4e5b60e01b81526001600160a01b038481166004830152602482018690527f00000000000000000000000000000000000000000000000000000000000000001690638fcb4e5b906044016020604051808303816000875af115801561309c573d6000803e3d6000fd5b505050506040513d601f19601f820116820180604052508101906130c0919061380e565b5050505050565b60008082136130e95760405163e61b497560e01b815260040160405180910390fd5b506001600160801b03811160071b81811c67ffffffffffffffff1060061b1781811c63ffffffff1060051b1781811c61ffff1060041b1781811c60ff10600390811b90911782811c600f1060021b1782811c909110600190811b90911782811c90911017609f8181036060019290921b91605f1982019061316c9084901c6119d7565b6c465772b2bbbb5f824b15207a3081018102606090811d6d0388eaa27412d5aca026815d636e018202811d6d0df99ac502031bf953eff472fdcc018202811d6d13cdffb29d51d99322bdff5f2211018202811d6d0a0f742023def783a307a986912e018202811d6d01920d8043ca89b5239253284e42018202811d6c0b7a86d7375468fac667a0a527016c29508e458543d8aa4df2abee7883018302821d6d0139601a2efabe717e604cbb4894018302821d6d02247f7a7b6594320649aa03aba1018302821d6c8c3f38e95a6b1ff2ab1c3b343619018302821d6d02384773bdf1ac5676facced60901901830290911d6cb9a025d814b29c212b8b1a07cd1901909102780a09507084cc699bb0e71ea869ffffffffffffffffffffffff190105711340daa0d5f769dba1915cef59f0815a5506027d0267a36c0c95b3975ab3ee5b203a7614a3f75373f047d803ae7b6687f2b391909102017d57115e47018c7177eebf7cd370a3356a1b7863008a5ae8028c72b88642840160ae1d92915050565b6000680248ce36a70cb26b3e19821361330857506000919050565b680755bf798b4a1bf1e58212613331576040516373a2d6b160e01b815260040160405180910390fd5b6503782dace9d9604e83901b059150600060606bb17217f7d1cf79abc9e3b39884821b056001605f1b01901d6bb17217f7d1cf79abc9e3b3988102909303926c240c330e9fb2d9cbaf0fd5aafb1984018402606090811d6d0277594991cfc85f6e2461837cd9018502811d6d1a521255e34f6a5061b25ef1c9c319018502811d6db1bbb201f443cf962f1a1d3db4a5018502811d6e02c72388d9f74f51a9331fed693f1419018502811d6e05180bb14799ab47a8a8cb2a527d57016d02d16720577bd19bf614176fe9ea6c10fe68e7fd37d0007b713f765087018702831d9081019087016d01d3967ed30fc4f89c02bab570811901810290921d6e0587f503bb6ea29d25fcb7401964500186026d360d7aeea093263ecc6e0ecb291760621b018181059550929350909190612ec574029d9dc38563c32e5c2f6dc192ee70ef65f9978af3860260c38690031c6119d7565b6040518061018001604052806000815260200160008152602001600081526020016000815260200160008152602001600081526020016000815260200160008152602001600081526020016000815260200160008152602001600081525090565b6040518061012001604052806134f7613482565b815260200160008152602001600081526020016000815260200160008152602001600081526020016000815260200160008152602001600081525090565b600060608284031215611fd657600080fd5b60008060006060848603121561355c57600080fd5b8335925060208401359150604084013567ffffffffffffffff81111561358157600080fd5b61358d86828701613535565b9150509250925092565b600080604083850312156135aa57600080fd5b50508035926020909101359150565b600080600080600060a086880312156135d157600080fd5b85359450602086013593506040860135925060608601359150608086013567ffffffffffffffff81111561360457600080fd5b61361088828901613535565b9150509295509295909350565b60006020828403121561362f57600080fd5b81356001600160a01b038116811461015357600080fd5b8015158114610dd557600080fd5b60006020828403121561366657600080fd5b813561015381613646565b6000808335601e1984360301811261368857600080fd5b83018035915067ffffffffffffffff8211156136a357600080fd5b60200191503681900382131561186a57600080fd5b81835281816020850137506000828201602090810191909152601f909101601f19169091010190565b868152856020820152846040820152831515606082015260a06080820152600061370f60a0830184866136b8565b98975050505050505050565b634e487b7160e01b600052601260045260246000fd5b6000826137405761374061371b565b500690565b634e487b7160e01b600052601160045260246000fd5b8181038181111561174b5761174b613745565b8082018082111561174b5761174b613745565b805182526020810151602083015260408101516040830152606081015160608301526080810151608083015260a081015160a083015260c081015160c083015260e081015160e08301526101008082015181840152506101208082015181840152506101408082015181840152506101608082015181840152505050565b610180810161174b8284613781565b60006020828403121561382057600080fd5b5051919050565b878152866020820152856040820152841515606082015283608082015260c060a0820152600061385b60c0830184866136b8565b9998505050505050505050565b808202811582820484141761174b5761174b613745565b60008060006060848603121561389457600080fd5b8351925060208401519150604084015190509250925092565b88815287602082015286604082015285151560608201528460808201528360a082015260e060c082015260006138e760e0830184866136b8565b9a9950505050505050505050565b6001600160701b03818116838216019080821115611b3357611b33613745565b6001600160801b03818116838216019080821115611b3357611b33613745565b8181036000831280158383131683831282161715611b3357611b33613745565b6001600160801b03828116828216039080821115611b3357611b33613745565b60006102a082019050613989828551613781565b602084015161018083015260408401516101a083015260608401516101c083015260808401516101e083015260a084015161020083015260c084015161022083015260e084015161024083015261010090930151610260820152610280015290565b600080604083850312156139fe57600080fd5b505080516020909101519092909150565b6000600160ff1b8201613a2457613a24613745565b5060000390565b60008060408385031215613a3e57600080fd5b825191506020830151613a5081613646565b809150509250929050565b600f81810b9083900b0160016001607f1b03811360016001607f1b03198212171561174b5761174b613745565b600081600f0b60016001607f1b03198103613aa557613aa5613745565b60000392915050565b634e487b7160e01b600052604160045260246000fd5b60008060008060808587031215613ada57600080fd5b8451935060208501519250604085015191506060850151613afa81613646565b939692955090935050565b600082613b1457613b1461371b565b600160ff1b821460001984141615613b2e57613b2e613745565b50059056fea264697066735822122057a4512e88871361b69e7f247c7c874b7e14372524dcf5e7fd70038ffc6cf9ae64736f6c63430008140033a26469706673582212205af0454679a0ceae9bc15a735e4f614be5776047e9e6fcfb65debe5164f156d264736f6c63430008140033","linkReferences":{"contracts/src/libraries/LPMath.sol":{"LPMath":[{"start":3958,"length":20},{"start":4141,"length":20},{"start":5003,"length":20},{"start":8036,"length":20},{"start":9695,"length":20},{"start":12923,"length":20},{"start":13396,"length":20}]}}},"methodIdentifiers":{"deployTarget((address,address,address,bytes32,uint256,uint256,uint256,uint256,uint256,uint256,uint256,address,address,address,address,(uint256,uint256,uint256,uint256)),bytes,bytes32)":"6b323707"},"id":30}