{
  "abi": [
    {
      "inputs": [
        {
          "components": [
            {
              "internalType": "contract IERC20",
              "name": "baseToken",
              "type": "address"
            },
            {
              "internalType": "address",
              "name": "linkerFactory",
              "type": "address"
            },
            {
              "internalType": "bytes32",
              "name": "linkerCodeHash",
              "type": "bytes32"
            },
            {
              "internalType": "uint256",
              "name": "initialSharePrice",
              "type": "uint256"
            },
            {
              "internalType": "uint256",
              "name": "minimumShareReserves",
              "type": "uint256"
            },
            {
              "internalType": "uint256",
              "name": "minimumTransactionAmount",
              "type": "uint256"
            },
            {
              "internalType": "uint256",
              "name": "precisionThreshold",
              "type": "uint256"
            },
            {
              "internalType": "uint256",
              "name": "positionDuration",
              "type": "uint256"
            },
            {
              "internalType": "uint256",
              "name": "checkpointDuration",
              "type": "uint256"
            },
            {
              "internalType": "uint256",
              "name": "timeStretch",
              "type": "uint256"
            },
            {
              "internalType": "address",
              "name": "governance",
              "type": "address"
            },
            {
              "internalType": "address",
              "name": "feeCollector",
              "type": "address"
            },
            {
              "components": [
                {
                  "internalType": "uint256",
                  "name": "curve",
                  "type": "uint256"
                },
                {
                  "internalType": "uint256",
                  "name": "flat",
                  "type": "uint256"
                },
                {
                  "internalType": "uint256",
                  "name": "governance",
                  "type": "uint256"
                }
              ],
              "internalType": "struct IHyperdrive.Fees",
              "name": "fees",
              "type": "tuple"
            }
          ],
          "internalType": "struct IHyperdrive.PoolConfig",
          "name": "_config",
          "type": "tuple"
        },
        {
          "internalType": "bytes32[]",
          "name": "",
          "type": "bytes32[]"
        },
        {
          "internalType": "address",
          "name": "_pool",
          "type": "address"
        }
      ],
      "name": "deploy",
      "outputs": [
        {
          "internalType": "address",
          "name": "",
          "type": "address"
        }
      ],
      "stateMutability": "nonpayable",
      "type": "function"
    }
  ],
  "bytecode": {
    "object": "0x608060405234801561001057600080fd5b50614a7c806100206000396000f3fe608060405234801561001057600080fd5b506004361061002b5760003560e01c80630a3bb1c014610030575b600080fd5b61004361003e366004610202565b61005f565b6040516001600160a01b03909116815260200160405180910390f35b6000838260405161006f906100a1565b61007a92919061031a565b604051809103906000f080158015610096573d6000803e3d6000fd5b5090505b9392505050565b61463d806200040a83390190565b634e487b7160e01b600052604160045260246000fd5b6040516101a0810167ffffffffffffffff811182821017156100e9576100e96100af565b60405290565b80356001600160a01b038116811461010657600080fd5b919050565b60006060828403121561011d57600080fd5b6040516060810181811067ffffffffffffffff82111715610140576101406100af565b80604052508091508235815260208301356020820152604083013560408201525092915050565b600082601f83011261017857600080fd5b8135602067ffffffffffffffff80831115610195576101956100af565b8260051b604051601f19603f830116810181811084821117156101ba576101ba6100af565b6040529384528581018301938381019250878511156101d857600080fd5b83870191505b848210156101f7578135835291830191908301906101de565b979650505050505050565b600080600083850361022081121561021957600080fd5b6101e08082121561022957600080fd5b6102316100c5565b915061023c866100ef565b825261024a602087016100ef565b602083015260408601356040830152606086013560608301526080860135608083015260a086013560a083015260c086013560c083015260e086013560e08301526101008087013581840152506101208087013581840152506101406102b18188016100ef565b908301526101606102c38782016100ef565b908301526101806102d68888830161010b565b9083015290935084013567ffffffffffffffff8111156102f557600080fd5b61030186828701610167565b92505061031161020085016100ef565b90509250925092565b82516001600160a01b031681526102008101602084015161034660208401826001600160a01b03169052565b5060408401516040830152606084015160608301526080840151608083015260a084015160a083015260c084015160c083015260e084015160e0830152610100808501518184015250610120808501518184015250610140808501516103b6828501826001600160a01b03169052565b5050610160848101516001600160a01b0381168483015250506101808481015180518483015260208101516101a085015260408101516101c085015250506001600160a01b0383166101e083015261009a56fe61026060405260016000553480156200001757600080fd5b506040516200463d3803806200463d8339810160408190526200003a91620002c8565b81516001600160a01b031660809081528201518190839081906103e8111562000076576040516349db44f560e01b815260040160405180910390fd5b60808101516101805260a08101516101a05260c08101516101c052610100810151600003620000b857604051635428734d60e01b815260040160405180910390fd5b6101008101805160a0525160e08201511080620000ea57508061010001518160e00151620000e79190620003c8565b15155b15620001095760405163253fffcf60e11b815260040160405180910390fd5b60e08181015160c05261012082015190526060810151610160908152610140820151600880546001600160a01b0319166001600160a01b0392831617905590820151166101e05261018081015151670de0b6b3a764000010806200017d5750670de0b6b3a764000081610180015160200151115b80620001995750670de0b6b3a764000081610180015160400151115b15620001b8576040516322f72cc360e11b815260040160405180910390fd5b610180810180515161010052805160209081015161012052905160409081015161014052908201516001600160a01b039081166102005291015161022052919091166102405250620003eb915050565b6040516101a081016001600160401b03811182821017156200023a57634e487b7160e01b600052604160045260246000fd5b60405290565b80516001600160a01b03811681146200025857600080fd5b919050565b6000606082840312156200027057600080fd5b604051606081016001600160401b0381118282101715620002a157634e487b7160e01b600052604160045260246000fd5b80604052508091508251815260208301516020820152604083015160408201525092915050565b600080828403610200811215620002de57600080fd5b6101e080821215620002ef57600080fd5b620002f962000208565b9150620003068562000240565b8252620003166020860162000240565b602083015260408501516040830152606085015160608301526080850151608083015260a085015160a083015260c085015160c083015260e085015160e08301526101008086015181840152506101208086015181840152506101406200037f81870162000240565b908301526101606200039386820162000240565b90830152610180620003a8878783016200025d565b8184015250819350620003bd81860162000240565b925050509250929050565b600082620003e657634e487b7160e01b600052601260045260246000fd5b500690565b60805160a05160c05160e05161010051610120516101405161016051610180516101a0516101c0516101e051610200516102205161024051614066620005d760003960008181611330015281816118a20152818161196c0152818161215201526121e8015260005050600050506000818161019b01526102ab015260005050600081816105f001528181610ae701528181610cce01528181610dff0152610ff9015260008181610877015281816108c2015281816109c4015281816124430152818161276d015281816127bc01528181612ccb01528181612e230152612e5f01526000818161093301528181610b4801528181611a3e01528181611a8b0152818161241d01528181612a4701526130d3015260008181612d6f0152818161317601526131ef015260008181611bf701528181612d4301526131c3015260008181611add015261314901526000818161097601528181610b8a01528181611a1c01528181611aac0152818161246901528181612a2501526130f40152600081816106b50152818161095501528181610b69015281816110b6015281816114470152818161156301528181611b7d01528181611dd001528181612ada01528181612fc5015261354d01526000818161122f015281816112e401526113af0152600061210e01526140666000f3fe60806040526004361061007b5760003560e01c80639aa684621161004e5780639aa684621461011d578063cbc1343414610130578063ded0623114610150578063ed64bab21461017057600080fd5b806301681a6214610080578063074a6de9146100a257806329b23fc1146100dc57806377d05ff41461010a575b600080fd5b34801561008c57600080fd5b506100a061009b366004613cef565b610190565b005b3480156100ae57600080fd5b506100c26100bd366004613d1e565b6102d4565b604080519283526020830191909152015b60405180910390f35b3480156100e857600080fd5b506100fc6100f7366004613d6e565b6102ee565b6040519081526020016100d3565b6100fc610118366004613d1e565b610305565b6100fc61012b366004613d6e565b61031c565b34801561013c57600080fd5b506100c261014b366004613d1e565b61032a565b34801561015c57600080fd5b506100fc61016b366004613d6e565b610338565b34801561017c57600080fd5b506100a061018b366004613dc8565b610346565b336001600160a01b037f000000000000000000000000000000000000000000000000000000000000000016148015906101d95750336000908152600a602052604090205460ff16155b156101f6576040516282b42960e81b815260040160405180910390fd5b6001600160a01b03811660009081526010602052604090205460ff1661022f5760405163350b944160e11b815260040160405180910390fd5b6040516370a0823160e01b81523060048201526000906001600160a01b038316906370a0823190602401602060405180830381865afa158015610276573d6000803e3d6000fd5b505050506040513d601f19601f8201168201806040525081019061029a9190613de1565b90506102d06001600160a01b0383167f000000000000000000000000000000000000000000000000000000000000000083610352565b5050565b6000806102e28585856103d5565b91509150935093915050565b60006102fc858585856105c6565b95945050505050565b600061031284848461080c565b90505b9392505050565b60006102fc85858585610a8c565b6000806102e2858585610dd3565b60006102fc85858585610fcf565b61034f816111fe565b50565b600060405163a9059cbb60e01b8152836004820152826024820152602060006044836000895af13d15601f3d11600160005114161716915050806103cf5760405162461bcd60e51b815260206004820152600f60248201526e1514905394d1915497d19052531151608a1b60448201526064015b60405180910390fd5b50505050565b6000806000546001146103fa5760405162461bcd60e51b81526004016103c690613dfa565b60026000908155610409611310565b905061041c6104166113a8565b826113de565b50610426816116cd565b6006548692506001600160801b03168083111561044a57806001600160801b031692505b82600003610460576000809350935050506105b7565b61046f600360f81b3385611790565b6006546001600160801b03600160801b90910481169060009061049790869084908616611839565b90506104a285611857565b6104ac9084613e34565b600680546001600160801b0319166001600160801b03929092169190911790556104d581611857565b600680546010906104f7908490600160801b90046001600160801b0316613e34565b92506101000a8154816001600160801b0302191690836001600160801b031602179055506105258188611881565b955085610532898761199a565b11156105515760405163c972651760e01b815260040160405180910390fd5b61055e6020880188613cef565b6001600160a01b03167f7986a4c20efd1390450c45fb0b11e794754bdce25f47ab5488efc8104169f75486610593848861199a565b604080519283526020830191909152810187905260600160405180910390a2505050505b60016000559094909350915050565b600080546001146105e95760405162461bcd60e51b81526004016103c690613dfa565b60026000557f000000000000000000000000000000000000000000000000000000000000000084101561062f5760405163211ddda360e11b815260040160405180910390fd5b6000610639611310565b905061064586826113de565b5061065b6106546002886119af565b3387611790565b60008060008060008061066f8b888e6119e4565b949a509298509096509450925090508a8c884282111561074057836009600082825461069b9190613e5b565b909155506106ae9050838a898886611c4f565b60006106da7f000000000000000000000000000000000000000000000000000000000000000084613e6e565b600081815260076020526040812054919250600160801b909104600f0b9061070d9086908a908e908d9089908990611dc9565b60008281526007602052604090205461073490600f83810b91600160801b9004900b611f72565b61073d836116cd565b50505b600061074c898e611881565b90508c600061075c838e84612099565b90508f81101561077f5760405163c972651760e01b815260040160405180910390fd5b61078a6002866119af565b8f600001602081019061079d9190613cef565b6040805188815260208101859052908101879052606081018990526001600160a01b0391909116907f32f37298489a8da0fde394937191ad6035015dd8a04bc97c304d59858e3bfd679060800160405180910390a3505060016000559f9e505050505050505050505050505050565b6000805460011461082f5760405162461bcd60e51b81526004016103c690613dfa565b600260005561083c6120c8565b60055460ff161561086057604051637983c05160e01b815260040160405180910390fd5b60008061086d86856120e9565b909250905061089d7f00000000000000000000000000000000000000000000000000000000000000006002613e81565b8210156108bd57604051632afb507160e21b815260040160405180910390fd5b6108e87f00000000000000000000000000000000000000000000000000000000000000006002613e81565b6108f29083613e6e565b6005805460ff19166001179055925061090a82611857565b600180546001600160801b0319166001600160801b039290921691909117905561099f61099a837f0000000000000000000000000000000000000000000000000000000000000000887f00000000000000000000000000000000000000000000000000000000000000007f0000000000000000000000000000000000000000000000000000000000000000612222565b611857565b600180546001600160801b03928316600160801b0292169190911790556109e86000807f0000000000000000000000000000000000000000000000000000000000000000612284565b610a0060006109fa6020870187613cef565b85612284565b610a0b6104166113a8565b506000610a19878387612099565b9050610a286020860186613cef565b6040805186815260208101849052908101849052606081018890526001600160a01b0391909116907fd93ddcd36a9d44373680f40bd3bcafe3c7e738748e10c90213e70453cff442319060800160405180910390a250505060016000559392505050565b60008054600114610aaf5760405162461bcd60e51b81526004016103c690613dfa565b6002600055600554610100900460ff1615610add576040516313d0ff5960e31b815260040160405180910390fd5b610ae56120c8565b7f0000000000000000000000000000000000000000000000000000000000000000851015610b265760405163211ddda360e11b815260040160405180910390fd5b6000610bae610b33612324565b600154600160801b90046001600160801b03167f00000000000000000000000000000000000000000000000000000000000000007f00000000000000000000000000000000000000000000000000000000000000007f0000000000000000000000000000000000000000000000000000000000000000612345565b905084811080610bbd57508381115b15610bdb57604051633b61151160e11b815260040160405180910390fd5b600080610be888866120e9565b91509150610bf76104166113a8565b50600654600360f81b6000908152600c602052600080516020614011833981519152549091610c31916001600160801b0390911690613e6e565b6000808052600c602052600080516020613ff18339815191525491925090610c5a908390613e5b565b90506000806000610c6a86612380565b9050610c75816124e6565b9150610c8087612754565b6001546001600160801b038082168352600254600f0b6020840152600160801b909104166040820152610cb2816124e6565b9250610cca8483610cc38187613e6e565b9190611839565b98507f0000000000000000000000000000000000000000000000000000000000000000891015610d0d5760405163211ddda360e11b815260040160405180910390fd5b50610d266000610d2060208c018c613cef565b8a612284565b610d2f856116cd565b60008315610d4657610d4182856128d6565b610d49565b60005b90506000610d588e888d612099565b9050610d6760208c018c613cef565b604080518c815260208101849052908101899052606081018490526001600160a01b0391909116907fd92dda7384b5f0fa573be9bbf63d63ac81a5bbb08ebc31f00c0f066e502396099060800160405180910390a25050600160005550959a9950505050505050505050565b600080600054600114610df85760405162461bcd60e51b81526004016103c690613dfa565b60026000557f0000000000000000000000000000000000000000000000000000000000000000851015610e3e5760405163211ddda360e11b815260040160405180910390fd5b6000610e48611310565b9050610e556104166113a8565b50610e5f816116cd565b600c602052600080516020613ff183398151915254600654600360f81b6000908152600080516020614011833981519152549091610ea8916001600160801b0390911690613e6e565b90506000610eb68284613e5b565b9050610ec46000338b611790565b600080610ed48b878588886128eb565b9098509092509050610ef7600360f81b610ef160208c018c613cef565b89612284565b610f01828a611881565b97506000610f1089888c612099565b9050888b1115610f335760405163c972651760e01b815260040160405180910390fd5b60008415610f4a57610f4583866128d6565b610f4d565b60005b9050610f5c60208c018c613cef565b604080518f8152602081018590529081018a9052606081018b9052608081018390526001600160a01b0391909116907fae97bda5fb1ee457c0490e5804bc10c54ab31a1fd9b01e2f85a1855072150be89060a00160405180910390a2505050505050505060016000559094909350915050565b60008054600114610ff25760405162461bcd60e51b81526004016103c690613dfa565b60026000557f00000000000000000000000000000000000000000000000000000000000000008410156110385760405163211ddda360e11b815260040160405180910390fd5b6000611042611310565b905061104e86826113de565b5061105d6106546001886119af565b6000806000806000806110718b888e6129ed565b95509550955095509550955060008c90508c42101561113a57816009600082825461109c9190613e5b565b909155506110af90508c88878685612b5f565b60006110db7f000000000000000000000000000000000000000000000000000000000000000083613e6e565b600081815260076020526040902054909150600160801b9004600f0b6111078e878b8a878f6001611dc9565b60008281526007602052604090205461112e90600f83810b91600160801b9004900b611f72565b6111378a6116cd565b50505b6000611146878c611881565b90506000611155828b8e612099565b9050808d11156111785760405163c972651760e01b815260040160405180910390fd5b8d6111846001856119af565b61119160208f018f613cef565b60408051878152602081018690529081018e9052606081018490526001600160a01b0391909116907f4c68e40241b8ae371bc7dae7035400158b60d0b7d69b35477b693759bb2c0ca09060800160405180910390a3505060016000559d9c50505050505050505050505050565b6000818152600760205260409020546001600160801b03161561121e5750565b60006112286113a8565b90506112547f000000000000000000000000000000000000000000000000000000000000000083613eae565b15158061126057508181105b1561127e5760405163ecd29e8160e01b815260040160405180910390fd5b80820361129b5761129681611291611310565b6113de565b505050565b815b6000818152600760205260409020546001600160801b03168282036112c7576112c4611310565b90505b80156112de576112d784826113de565b5050505050565b506113097f000000000000000000000000000000000000000000000000000000000000000082613e5b565b905061129d565b6040516303d1689d60e11b8152670de0b6b3a764000060048201526000907f00000000000000000000000000000000000000000000000000000000000000006001600160a01b0316906307a2d13a90602401602060405180830381865afa15801561137f573d6000803e3d6000fd5b505050506040513d601f19601f820116820180604052508101906113a39190613de1565b905090565b60006113d47f000000000000000000000000000000000000000000000000000000000000000042613eae565b6113a39042613e6e565b600082815260076020526040812080546001600160801b031615158061140357504284115b1561141957546001600160801b031690506116c7565b61142283611857565b81546001600160801b0319166001600160801b0391909116178155600060078161146c7f000000000000000000000000000000000000000000000000000000000000000088613e6e565b815260208101919091526040016000908120546001600160801b031691506114956002876119af565b6000818152600c602052604081205491925081156114ee576000806114bd848a886000612d2c565b9150915080600960008282546114d39190613e5b565b909155506114e7905084600084808e611c4f565b6001925050505b60006114fb60018a6119af565b6000818152600c6020526040902054909150801561155657600080611523838c8a6001612d2c565b9150915080600960008282546115399190613e5b565b909155508c905061154e846000858085612b5f565b600195505050505b82156115d45760006115887f00000000000000000000000000000000000000000000000000000000000000008c613e6e565b600081815260076020526040902080546001600160801b03811691829055919250600160801b91829004600f90810b926115c8928492919004900b611f72565b6115d18b6116cd565b50505b6000808a116115e45760006115ff565b6115ff8a6115f96115f48d612380565b6124e6565b9061199a565b600654600c602052600080516020614011833981519152546000808052600080516020613ff183398151915254939450926001600160801b03909216916116469190613e5b565b6116509190613e6e565b9050600081156116695761166483836128d6565b61166c565b60005b604080518e8152602081018a9052908101869052606081018290529091508d907f5012836090f6cac0f5b321be3188c3cd9c82c8252a23afea128ea014a6fd15519060800160405180910390a28b9a50505050505050505050505b92915050565b600c602052600080516020613ff183398151915254600654600360f81b6000908152600080516020614011833981519152549091611716916001600160801b0390911690613e6e565b905060006117248284613e5b565b905060006117346115f486612380565b90506000611743858385611839565b905060008061175188612dfa565b905082811115611768576117658382613e6e565b91505b6000821180611775575083155b156117865761178682858789612ea6565b5050505050505050565b6000838152600b602090815260408083206001600160a01b0386168452909152812080548392906117c2908490613e6e565b90915550506000838152600c6020526040812080548392906117e5908490613e6e565b909155505060408051848152602081018390526000916001600160a01b0385169133917fc3d58168c5ae7397731d063d5bbf3d657854427343f4c083240f7aacaa2d0f6291015b60405180910390a4505050565b600082600019048411830215820261185057600080fd5b5091020490565b6000600160801b821061187d57604051630f0af95160e11b815260040160405180910390fd5b5090565b60006118936040830160208401613ec2565b15611952576001600160a01b037f00000000000000000000000000000000000000000000000000000000000000001663ba087652846118d56020860186613cef565b6040516001600160e01b031960e085901b16815260048101929092526001600160a01b031660248201523060448201526064016020604051808303816000875af1158015611927573d6000803e3d6000fd5b505050506040513d601f19601f8201168201806040525081019061194b9190613de1565b90506116c7565b6119936119626020840184613cef565b6001600160a01b037f0000000000000000000000000000000000000000000000000000000000000000169085610352565b5090919050565b60006103158383670de0b6b3a7640000611839565b60006001600160f81b038211156119d95760405163b7d0949760e01b815260040160405180910390fd5b5060f89190911b1790565b60008060008060008060006119f888612f98565b9050611a62611a05612324565b600154600160801b90046001600160801b03168c847f00000000000000000000000000000000000000000000000000000000000000008e7f0000000000000000000000000000000000000000000000000000000000000000612fe9565b909850955093506000611ad0611a76612324565b600154600160801b90046001600160801b03167f00000000000000000000000000000000000000000000000000000000000000007f0000000000000000000000000000000000000000000000000000000000000000613059565b9050611b068589611b01847f000000000000000000000000000000000000000000000000000000000000000061306a565b61309a565b15611b245760405163512095c760e01b815260040160405180910390fd5b8a8a60008080611b3685888887613123565b9b509295509093509150611b4c90508184613e6e565b611b56908b613e5b565b9950611b628284613e5b565b611b6c908c613e5b565b9a50505050505050506000600760007f00000000000000000000000000000000000000000000000000000000000000008a611ba79190613e6e565b815260208101919091526040016000908120546001600160801b03169150428911611be9576000898152600760205260409020546001600160801b0316611beb565b895b9050611c1b8b8784848e7f000000000000000000000000000000000000000000000000000000000000000061322d565b9650611c278387613e6e565b9550611c39878787868686600061327f565b9b9f939e50919c509a5098975095505050505050565b600354600160801b90046001600160801b0316611c9861099a82611c7b85670de0b6b3a7640000613e81565b600454600160801b90046001600160801b031691908a60006132fa565b600480546001600160801b03928316600160801b029216919091179055611cbe86611857565b611cc89082613e34565b600380546001600160801b03928316600160801b029216919091179055611cee84611857565b60018054600090611d099084906001600160801b0316613ee4565b92506101000a8154816001600160801b0302191690836001600160801b03160217905550611d3683613374565b60028054600090611d4b908490600f0b613f04565b92506101000a8154816001600160801b030219169083600f0b6001600160801b03160217905550611d7b85611857565b60018054601090611d9d908490600160801b90046001600160801b0316613e34565b92506101000a8154816001600160801b0302191690836001600160801b03160217905550505050505050565b6000611df57f000000000000000000000000000000000000000000000000000000000000000085613e6e565b90506000600c6000611e086001886119af565b81526020019081526020016000205490506000600c6000611e2a6002896119af565b8152602001908152602001600020549050816000148015611e49575080155b15611e6e57600083815260076020526040902080546001600160801b03169055611f66565b6000611eb28b611e7e8c8961199a565b611e89906002613e81565b8b611e948c8b61199a565b611e9e9190613e5b565b611ea89190613e6e565b61099a9190613e5b565b90508415611f115760008481526007602052604090208054829190601090611ee5908490600160801b9004600f0b613f31565b92506101000a8154816001600160801b030219169083600f0b6001600160801b03160217905550611f64565b60008481526007602052604090208054829190601090611f3c908490600160801b9004600f0b613f04565b92506101000a8154816001600160801b030219169083600f0b6001600160801b031602179055505b505b50505050505050505050565b8082138015611f82575060008212155b15612015576000611f9382826133b2565b611f9d9084613f5e565b600254909150611fca90611fc5908390600160801b90046001600160801b0316600f0b6133c1565b613374565b60028054601090611fec908490600160801b90046001600160801b0316613e34565b92506101000a8154816001600160801b0302191690836001600160801b03160217905550505050565b818113156102d0576000821261208b5761202e82613374565b61203782613374565b6120419190613f31565b60028054601090612063908490600160801b90046001600160801b0316613ee4565b92506101000a8154816001600160801b0302191690836001600160801b031602179055505050565b612041611fc58260006133b2565b60006120ab6040830160208401613ec2565b156120b7575082610315565b6120c1848461199a565b9050610315565b34156120e757604051631574f9f360e01b815260040160405180910390fd5b565b6000806120fc6040840160208501613ec2565b156121d8576121366001600160a01b037f0000000000000000000000000000000000000000000000000000000000000000163330876133d0565b604051636e553f6560e01b8152600481018590523060248201527f00000000000000000000000000000000000000000000000000000000000000006001600160a01b031690636e553f65906044016020604051808303816000875af11580156121a3573d6000803e3d6000fd5b505050506040513d601f19601f820116820180604052508101906121c79190613de1565b91506121d1611310565b905061221b565b8391506122106001600160a01b037f0000000000000000000000000000000000000000000000000000000000000000163330856133d0565b612218611310565b90505b9250929050565b600080612233846301e133806128d6565b905061227961226f61224d670de0b6b3a764000086613453565b612257888561199a565b61226990670de0b6b3a7640000613e5b565b90613468565b6115f9888a61199a565b979650505050505050565b6000838152600b602090815260408083206001600160a01b0386168452909152812080548392906122b6908490613e5b565b90915550506000838152600c6020526040812080548392906122d9908490613e5b565b909155505060408051848152602081018390526001600160a01b0384169160009133917fc3d58168c5ae7397731d063d5bbf3d657854427343f4c083240f7aacaa2d0f62910161182c565b6001546002546000916113a3916001600160801b0390911690600f0b6134bf565b60008061235487878786613059565b905061227961236882866301e133806134dc565b61237a83670de0b6b3a7640000613e6e565b906128d6565b6123dd60405180610160016040528060008152602001600081526020016000815260200160008152602001600081526020016000815260200160008152602001600081526020016000815260200160008152602001600081525090565b60408051610160810182526001546001600160801b038082168352600254600f0b6020840152600160801b909104811692820192909252606081018490527f000000000000000000000000000000000000000000000000000000000000000060808201527f000000000000000000000000000000000000000000000000000000000000000060a08201527f000000000000000000000000000000000000000000000000000000000000000060c0820152600354821660e082015260045490916101008301916124ac9116613502565b81526003546001600160801b03600160801b91829004811660208401526004546040909301926124de92900416613502565b905292915050565b60008061250683610140015184610120015161199a90919063ffffffff16565b61010084015160e085015161251a9161199a565b6125249190613f5e565b9050600061253a846000015185602001516134bf565b905060008213156125da57600061257c8286604001518760a001518860c00151670de0b6b3a764000061256d9190613e6e565b89606001518a60800151613578565b90506125888184613612565b905080156125d4576125c1828660400151838860c00151670de0b6b3a76400006125b29190613e6e565b89606001518a60800151613621565b855186906125d0908390613e6e565b9052505b50612696565b6000821215612696576125ec82613f7e565b915060006126208286604001518760c00151670de0b6b3a76400006126119190613e6e565b88606001518960800151613655565b905061262c8184613612565b9050801561267857612665828660400151838860c00151670de0b6b3a76400006126569190613e6e565b89606001518a608001516136eb565b85518690612674908390613e5b565b9052505b6126828184613e6e565b85518690612691908390613e5b565b905250505b60006126c5856101000151670de0b6b3a76400006126b49190613e6e565b606087015160e08801519190611839565b6126f3866101400151670de0b6b3a76400006126e19190613e6e565b60608801516101208901519190611839565b6126fd9190613f5e565b905060008186600001516127119190613f9a565b90508560a001518112156127385760405163aeeb825d60e01b815260040160405180910390fd5b80865260a086015161274a9082613e6e565b9695505050505050565b8060000361275f5750565b6001546001600160801b03167f00000000000000000000000000000000000000000000000000000000000000008110156127ac5760405163585fe6df60e11b815260040160405180910390fd5b60006127b88383613f9a565b90507f00000000000000000000000000000000000000000000000000000000000000008112156127fb5760405163585fe6df60e11b815260040160405180910390fd5b61280481611857565b600180546001600160801b0319166001600160801b0392909216919091179055600254600090600f0b8181126128465761283f838286611839565b9150612866565b61285a61285282613f7e565b849086611839565b61286390613f7e565b91505b61286f82613374565b600280546001600160801b0319166001600160801b039283161790556001546128b29161099a91600160801b9004166128a887856134bf565b610cc387876134bf565b600180546001600160801b03928316600160801b0292169190911790555050505050565b600061031583670de0b6b3a764000084611839565b6000806000806128fa88612380565b90506000612907826124e6565b9050612919612914611310565b612dfa565b9450612926858b89611839565b945061293961293486613f7e565b612754565b6001546001600160801b038082168452600254600f0b6020850152600160801b909104166040830152600061296d836124e6565b9050600061297c8a8385611839565b90506129888c8b613f5e565b6129929082613f5e565b905060008112156129db5760006129b36129ab83613f7e565b85908d611839565b90506129bf8189613e6e565b97506129ca81612754565b6129d5818a8e613780565b60009150505b94509092505050955095509592505050565b6000806000806000806000612a0188612f98565b9050612a6b612a0e612324565b600154600160801b90046001600160801b03168c847f00000000000000000000000000000000000000000000000000000000000000008e7f00000000000000000000000000000000000000000000000000000000000000006137c5565b9098509650935060008080612a81611a76612324565b9050612a8f8d85838f613123565b9850929550909350612aa5915084905088613e6e565b9650612ab18284613e5b565b612abb908a613e6e565b9850612ac7858a613e5b565b975050505050612b4b85858584600760007f00000000000000000000000000000000000000000000000000000000000000008e612b049190613e6e565b81526020810191909152604001600020546001600160801b0316428d11612b425760008d8152600760205260409020546001600160801b0316612b44565b8d5b600161327f565b999d939c50919a5098509695509350505050565b6003546001600160801b0316612b9a61099a82612b8485670de0b6b3a7640000613e81565b6004546001600160801b031691908a60006132fa565b600480546001600160801b0319166001600160801b0392909216919091179055612bc386611857565b612bcd9082613e34565b600380546001600160801b0319166001600160801b039290921691909117905550612bf783611857565b60018054600090612c129084906001600160801b0316613e34565b92506101000a8154816001600160801b0302191690836001600160801b03160217905550612c3f82613374565b60028054600090612c54908490600f0b613f31565b92506101000a8154816001600160801b030219169083600f0b6001600160801b03160217905550612c8484611857565b60018054601090612ca6908490600160801b90046001600160801b0316613ee4565b82546101009290920a6001600160801b038181021990931691831602179091556001547f0000000000000000000000000000000000000000000000000000000000000000911610905080612d0e5750600254600154600f9190910b6001600160801b03909116125b156112d75760405163585fe6df60e11b815260040160405180910390fd5b600080612d3986866128d6565b91506000612d67837f000000000000000000000000000000000000000000000000000000000000000061199a565b9050612d93817f000000000000000000000000000000000000000000000000000000000000000061199a565b91508315612db657612da58282613e6e565b612daf9084613e6e565b9250612dcd565b612dc08282613e6e565b612dca9084613e5b565b92505b84861015612df057612de0838787611839565b9250612ded828787611839565b91505b5094509492505050565b6002546000908190612e1c90600160801b90046001600160801b0316846128d6565b9050612e487f000000000000000000000000000000000000000000000000000000000000000082613e5b565b6001546001600160801b03161115612ea0576001547f000000000000000000000000000000000000000000000000000000000000000090612e939083906001600160801b0316613e6e565b612e9d9190613e6e565b91505b50919050565b6000808411612eb55782612ec0565b612ec0838686611839565b905080600003612ed057506103cf565b808583821115612eeb57839150612ee8878385611839565b90505b612ef482611857565b60068054600090612f0f9084906001600160801b0316613ee4565b92506101000a8154816001600160801b0302191690836001600160801b03160217905550612f3c81611857565b60068054601090612f5e908490600160801b90046001600160801b0316613ee4565b92506101000a8154816001600160801b0302191690836001600160801b03160217905550612f8f8161293490613f7e565b50505050505050565b600080612fa36113a8565b9050808311612fb3576000612fbd565b612fbd8184613e6e565b9150612e9d827f00000000000000000000000000000000000000000000000000000000000000006128d6565b6000808061300a61300288670de0b6b3a7640000613e6e565b899087611839565b9050613016888861199a565b9150811561304c5761303d8a8a846130368a670de0b6b3a7640000613e6e565b89896136eb565b92506130498382613e5b565b90505b9750975097945050505050565b60006102fc82612269858888611839565b600061308861308184670de0b6b3a7640000613e6e565b8390613811565b61031590670de0b6b3a7640000613e6e565b600080613118856130a9612324565b6130b39190613e5b565b6001546130d1908790600160801b90046001600160801b0316613e6e565b7f00000000000000000000000000000000000000000000000000000000000000007f0000000000000000000000000000000000000000000000000000000000000000613059565b909210949350505050565b60008080808061316e8887610cc38c6115f96131478d670de0b6b3a7640000613e6e565b7f00000000000000000000000000000000000000000000000000000000000000009061199a565b945061319a857f000000000000000000000000000000000000000000000000000000000000000061199a565b925060006131bb6131b38a670de0b6b3a7640000613e6e565b8b9089611839565b90506131e7817f000000000000000000000000000000000000000000000000000000000000000061199a565b9450613213857f000000000000000000000000000000000000000000000000000000000000000061199a565b925061321f8385613e5b565b915050945094509450945094565b6000806132468561323e8887613811565b8a9190611839565b9050613253888486611839565b61325d9082613e5b565b905086811115613274576132718782613e6e565b91505b509695505050505050565b600080600080600080888810156132dc5786156132a4576132a18d898b611839565b9c505b6132af8c898b611839565b9b506132bb8b8d613f5e565b90506132c88b898b611839565b9a506132d58a898b611839565b99506132e9565b6132e68b8d613f5e565b90505b9b9c9a9b999a975050505050505050565b6000811561333a5761333361330f8487613e5b565b613319858761199a565b613323888a61199a565b61332d9190613e5b565b90613453565b90506102fc565b828503613349575060006102fc565b61274a6133568487613e6e565b613360858761199a565b61336a888a61199a565b61332d9190613e6e565b600060016001607f1b03198212801590613395575060016001607f1b038213155b61187d5760405163a5353be560e01b815260040160405180910390fd5b60008183136119935781610315565b6000818313612ea05782610315565b60006040516323b872dd60e01b81528460048201528360248201528260448201526020600060648360008a5af13d15601f3d11600160005114161716915050806112d75760405162461bcd60e51b81526020600482015260146024820152731514905394d1915497d19493d357d1905253115160621b60448201526064016103c6565b600061031583670de0b6b3a7640000846134dc565b6000816000036134815750670de0b6b3a76400006116c7565b82600003613491575060006116c7565b81600061349d85613826565b90508181026134b4670de0b6b3a764000082613fc2565b905061274a81613a39565b6000806134cc8385613f5e565b9050600081121561031557600080fd5b60008260001904841183021582026134f357600080fd5b50910281810615159190040190565b600080670de0b6b3a76400006135166113a8565b6135209190613e81565b905080831161353057600061353a565b61353a8184613e6e565b9150612e9d613571670de0b6b3a76400007f0000000000000000000000000000000000000000000000000000000000000000613e81565b83906128d6565b6000806135888888878787613bc4565b905060006135a561359d87612269878b613811565b8690866134dc565b6135af9083613e6e565b9050670de0b6b3a764000081106135e3576135dc6135d5670de0b6b3a7640000886128d6565b8290613468565b90506135fb565b6135f86135d5670de0b6b3a764000088613453565b90505b6136058882613e6e565b9998505050505050505050565b6000818311612ea05782610315565b600080613632888888888888613bf3565b90925090508061327457604051637ac17d2560e01b815260040160405180910390fd5b6000806136658787878787613cb5565b90506000613690670de0b6b3a764000061367f87876128d6565b6136899190613e5b565b8390613453565b9050670de0b6b3a764000081106136bd576136b66135d5670de0b6b3a764000088613453565b90506136d5565b6136d26135d5670de0b6b3a7640000886128d6565b90505b6136df8188613e6e565b98975050505050505050565b6000806136fb8888878787613cb5565b905061370b85612269888a613e6e565b96506000613725848661371e8b86613e6e565b91906134dc565b9050670de0b6b3a764000081106137525761374b6135d5670de0b6b3a764000088613453565b905061376a565b6137676135d5670de0b6b3a7640000886128d6565b90505b6137748185613453565b90506136058982613e6e565b600061378e6115f483612380565b6000808052600c602052600080516020613ff183398151915254919250906137b7908590613e5b565b90506112d785838387612ea6565b600080806137de61300288670de0b6b3a7640000613e6e565b9050861561304c576137f0888861199a565b915061303d8a8a8461380a8a670de0b6b3a7640000613e6e565b8989613621565b60006103158383670de0b6b3a76400006134dc565b600080821361384857604051636838feed60e11b815260040160405180910390fd5b5060606001600160801b03821160071b82811c67ffffffffffffffff1060061b1782811c63ffffffff1060051b1782811c61ffff1060041b1782811c60ff10600390811b90911783811c600f1060021b1783811c909110600190811b90911783811c90911017609f81810383019390931b90921c6c465772b2bbbb5f824b15207a3081018102821d6d0388eaa27412d5aca026815d636e018102821d6d0df99ac502031bf953eff472fdcc018102821d6d13cdffb29d51d99322bdff5f2211018102821d6d0a0f742023def783a307a986912e018102821d6d01920d8043ca89b5239253284e42018102821d6c0b7a86d7375468fac667a0a527016c29508e458543d8aa4df2abee7882018202831d6d0139601a2efabe717e604cbb4894018202831d6d02247f7a7b6594320649aa03aba1018202831d6c8c3f38e95a6b1ff2ab1c3b343619018202831d6d02384773bdf1ac5676facced60901901820290921d6cb9a025d814b29c212b8b1a07cd190102780a09507084cc699bb0e71ea869ffffffffffffffffffffffff190105711340daa0d5f769dba1915cef59f0815a550602605f19919091017d0267a36c0c95b3975ab3ee5b203a7614a3f75373f047d803ae7b6687f2b302017d57115e47018c7177eebf7cd370a3356a1b7863008a5ae8028c72b88642840160ae1d90565b6000680248ce36a70cb26b3e198213613a5457506000919050565b680755bf798b4a1bf1e58212613a7d5760405163df92cc9d60e01b815260040160405180910390fd5b6503782dace9d9604e83901b059150600060606bb17217f7d1cf79abc9e3b39884821b056001605f1b01901d6bb17217f7d1cf79abc9e3b39881029093036c240c330e9fb2d9cbaf0fd5aafb1981018102606090811d6d0277594991cfc85f6e2461837cd9018202811d6d1a521255e34f6a5061b25ef1c9c319018202811d6db1bbb201f443cf962f1a1d3db4a5018202811d6e02c72388d9f74f51a9331fed693f1419018202811d6e05180bb14799ab47a8a8cb2a527d57016d02d16720577bd19bf614176fe9ea6c10fe68e7fd37d0007b713f765084018402831d9081019084016d01d3967ed30fc4f89c02bab5708119010290911d6e0587f503bb6ea29d25fcb740196450019091026d360d7aeea093263ecc6e0ecb291760621b010574029d9dc38563c32e5c2f6dc192ee70ef65f9978af30260c3939093039290921c92915050565b6000613bd08585613468565b613be9613be186612269868b61199a565b859085611839565b61274a9190613e5b565b6000806000613c058989888888613cb5565b9050613c1586612269898b613e5b565b975087811015613c2c576000809250925050613caa565b6000613c3d858761371e8c86613e6e565b9050670de0b6b3a76400008110613c6a57613c636135d5670de0b6b3a764000089613453565b9050613c82565b613c7f6135d5670de0b6b3a7640000896128d6565b90505b613c8c8186613453565b9050808a1115613ca357613ca0818b613e6e565b93505b6001925050505b965096945050505050565b6000613cc18585613468565b613be9613cd286612269868b613811565b8590856134dc565b6001600160a01b038116811461034f57600080fd5b600060208284031215613d0157600080fd5b813561031581613cda565b600060608284031215612ea057600080fd5b600080600060608486031215613d3357600080fd5b8335925060208401359150604084013567ffffffffffffffff811115613d5857600080fd5b613d6486828701613d0c565b9150509250925092565b60008060008060808587031215613d8457600080fd5b843593506020850135925060408501359150606085013567ffffffffffffffff811115613db057600080fd5b613dbc87828801613d0c565b91505092959194509250565b600060208284031215613dda57600080fd5b5035919050565b600060208284031215613df357600080fd5b5051919050565b6020808252600a90820152695245454e5452414e435960b01b604082015260600190565b634e487b7160e01b600052601160045260246000fd5b6001600160801b03828116828216039080821115613e5457613e54613e1e565b5092915050565b808201808211156116c7576116c7613e1e565b818103818111156116c7576116c7613e1e565b80820281158282048414176116c7576116c7613e1e565b634e487b7160e01b600052601260045260246000fd5b600082613ebd57613ebd613e98565b500690565b600060208284031215613ed457600080fd5b8135801515811461031557600080fd5b6001600160801b03818116838216019080821115613e5457613e54613e1e565b600f81810b9083900b0160016001607f1b03811360016001607f1b0319821217156116c7576116c7613e1e565b600f82810b9082900b0360016001607f1b0319811260016001607f1b03821317156116c7576116c7613e1e565b8181036000831280158383131683831282161715613e5457613e54613e1e565b6000600160ff1b8201613f9357613f93613e1e565b5060000390565b8082018281126000831280158216821582161715613fba57613fba613e1e565b505092915050565b600082613fd157613fd1613e98565b600160ff1b821460001984141615613feb57613feb613e1e565b50059056fe13649b2456f1b42fef0f0040b3aaeabcd21a76a0f3f5defd4f583839455116e8e33c7a20958276ce9529c827d1e1b38c61245a6a2cb39f13852cf96fd6f7333da2646970667358221220b4c39a03a5f506f586e2fdf21e47e9045e4372c755cd069e9dc5e0c90b36130764736f6c63430008130033a26469706673582212200292ee25bd542fe864b0e7f2a9934c5c73c075207bbda6e1fb6ec08e4cc53ad564736f6c63430008130033",
    "linkReferences": {}
  },
  "methodIdentifiers": {
    "deploy((address,address,bytes32,uint256,uint256,uint256,uint256,uint256,uint256,uint256,address,address,(uint256,uint256,uint256)),bytes32[],address)": "0a3bb1c0"
  },
  "id": 11
}