{"abi":[{"type":"constructor","inputs":[{"name":"_coreDeployer","type":"address","internalType":"address"},{"name":"_target0Deployer","type":"address","internalType":"address"},{"name":"_target1Deployer","type":"address","internalType":"address"},{"name":"_target2Deployer","type":"address","internalType":"address"},{"name":"_target3Deployer","type":"address","internalType":"address"},{"name":"_target4Deployer","type":"address","internalType":"address"}],"stateMutability":"nonpayable"},{"type":"function","name":"coreDeployer","inputs":[],"outputs":[{"name":"","type":"address","internalType":"address"}],"stateMutability":"view"},{"type":"function","name":"deploy","inputs":[{"name":"_deploymentId","type":"bytes32","internalType":"bytes32"},{"name":"_deployConfig","type":"tuple","internalType":"struct IHyperdrive.PoolDeployConfig","components":[{"name":"baseToken","type":"address","internalType":"contract IERC20"},{"name":"linkerFactory","type":"address","internalType":"address"},{"name":"linkerCodeHash","type":"bytes32","internalType":"bytes32"},{"name":"minimumShareReserves","type":"uint256","internalType":"uint256"},{"name":"minimumTransactionAmount","type":"uint256","internalType":"uint256"},{"name":"positionDuration","type":"uint256","internalType":"uint256"},{"name":"checkpointDuration","type":"uint256","internalType":"uint256"},{"name":"timeStretch","type":"uint256","internalType":"uint256"},{"name":"governance","type":"address","internalType":"address"},{"name":"feeCollector","type":"address","internalType":"address"},{"name":"fees","type":"tuple","internalType":"struct IHyperdrive.Fees","components":[{"name":"curve","type":"uint256","internalType":"uint256"},{"name":"flat","type":"uint256","internalType":"uint256"},{"name":"governanceLP","type":"uint256","internalType":"uint256"},{"name":"governanceZombie","type":"uint256","internalType":"uint256"}]}]},{"name":"_extraData","type":"bytes","internalType":"bytes"},{"name":"_salt","type":"bytes32","internalType":"bytes32"}],"outputs":[{"name":"","type":"address","internalType":"address"}],"stateMutability":"nonpayable"},{"type":"function","name":"deployTarget","inputs":[{"name":"_deploymentId","type":"bytes32","internalType":"bytes32"},{"name":"_deployConfig","type":"tuple","internalType":"struct IHyperdrive.PoolDeployConfig","components":[{"name":"baseToken","type":"address","internalType":"contract IERC20"},{"name":"linkerFactory","type":"address","internalType":"address"},{"name":"linkerCodeHash","type":"bytes32","internalType":"bytes32"},{"name":"minimumShareReserves","type":"uint256","internalType":"uint256"},{"name":"minimumTransactionAmount","type":"uint256","internalType":"uint256"},{"name":"positionDuration","type":"uint256","internalType":"uint256"},{"name":"checkpointDuration","type":"uint256","internalType":"uint256"},{"name":"timeStretch","type":"uint256","internalType":"uint256"},{"name":"governance","type":"address","internalType":"address"},{"name":"feeCollector","type":"address","internalType":"address"},{"name":"fees","type":"tuple","internalType":"struct IHyperdrive.Fees","components":[{"name":"curve","type":"uint256","internalType":"uint256"},{"name":"flat","type":"uint256","internalType":"uint256"},{"name":"governanceLP","type":"uint256","internalType":"uint256"},{"name":"governanceZombie","type":"uint256","internalType":"uint256"}]}]},{"name":"_extraData","type":"bytes","internalType":"bytes"},{"name":"_targetIndex","type":"uint256","internalType":"uint256"},{"name":"_salt","type":"bytes32","internalType":"bytes32"}],"outputs":[{"name":"target","type":"address","internalType":"address"}],"stateMutability":"nonpayable"},{"type":"function","name":"deployments","inputs":[{"name":"_deployer","type":"address","internalType":"address"},{"name":"_deploymentId","type":"bytes32","internalType":"bytes32"}],"outputs":[{"name":"","type":"tuple","internalType":"struct HyperdriveDeployerCoordinator.Deployment","components":[{"name":"configHash","type":"bytes32","internalType":"bytes32"},{"name":"extraDataHash","type":"bytes32","internalType":"bytes32"},{"name":"initialSharePrice","type":"uint256","internalType":"uint256"},{"name":"hyperdrive","type":"address","internalType":"address"},{"name":"target0","type":"address","internalType":"address"},{"name":"target1","type":"address","internalType":"address"},{"name":"target2","type":"address","internalType":"address"},{"name":"target3","type":"address","internalType":"address"},{"name":"target4","type":"address","internalType":"address"}]}],"stateMutability":"view"},{"type":"function","name":"target0Deployer","inputs":[],"outputs":[{"name":"","type":"address","internalType":"address"}],"stateMutability":"view"},{"type":"function","name":"target1Deployer","inputs":[],"outputs":[{"name":"","type":"address","internalType":"address"}],"stateMutability":"view"},{"type":"function","name":"target2Deployer","inputs":[],"outputs":[{"name":"","type":"address","internalType":"address"}],"stateMutability":"view"},{"type":"function","name":"target3Deployer","inputs":[],"outputs":[{"name":"","type":"address","internalType":"address"}],"stateMutability":"view"},{"type":"function","name":"target4Deployer","inputs":[],"outputs":[{"name":"","type":"address","internalType":"address"}],"stateMutability":"view"},{"type":"error","name":"DeploymentAlreadyExists","inputs":[]},{"type":"error","name":"DeploymentDoesNotExist","inputs":[]},{"type":"error","name":"HyperdriveAlreadyDeployed","inputs":[]},{"type":"error","name":"IncompleteDeployment","inputs":[]},{"type":"error","name":"InvalidCheckpointDuration","inputs":[]},{"type":"error","name":"InvalidFeeAmounts","inputs":[]},{"type":"error","name":"InvalidMinimumShareReserves","inputs":[]},{"type":"error","name":"InvalidMinimumTransactionAmount","inputs":[]},{"type":"error","name":"InvalidPositionDuration","inputs":[]},{"type":"error","name":"InvalidTargetIndex","inputs":[]},{"type":"error","name":"MismatchedConfig","inputs":[]},{"type":"error","name":"MismatchedExtraData","inputs":[]},{"type":"error","name":"TargetAlreadyDeployed","inputs":[]}],"bytecode":{"object":"0x6101406040523480156200001257600080fd5b5060405162001ac038038062001ac0833981016040819052620000359162000082565b6001600160a01b0395861660805293851660a05291841660c052831660e052821661010052166101205262000103565b80516001600160a01b03811681146200007d57600080fd5b919050565b60008060008060008060c087890312156200009c57600080fd5b620000a78762000065565b9550620000b76020880162000065565b9450620000c76040880162000065565b9350620000d76060880162000065565b9250620000e76080880162000065565b9150620000f760a0880162000065565b90509295509295509295565b60805160a05160c05160e05161010051610120516119446200017c6000396000818160f1015261092601526000818161013f015261080e01526000818161018d01526106f601526000818161011801526105de01526000818161016601526103910152600081816101c70152610bfa01526119446000f3fe608060405234801561001057600080fd5b50600436106100935760003560e01c8063aa8cd6c411610066578063aa8cd6c41461013a578063ab71905f14610161578063b6cb111814610188578063c47e90c4146101af578063c83e1f51146101c257600080fd5b806320503b3f146100985780637cc39092146100c1578063966ecd1c146100ec578063a085fa3014610113575b600080fd5b6100ab6100a6366004611190565b6101e9565b6040516100b891906111bc565b60405180910390f35b6100d46100cf36600461141e565b6102cd565b6040516001600160a01b0390911681526020016100b8565b6100d47f000000000000000000000000000000000000000000000000000000000000000081565b6100d47f000000000000000000000000000000000000000000000000000000000000000081565b6100d47f000000000000000000000000000000000000000000000000000000000000000081565b6100d47f000000000000000000000000000000000000000000000000000000000000000081565b6100d47f000000000000000000000000000000000000000000000000000000000000000081565b6100d46101bd36600461148c565b610a02565b6100d47f000000000000000000000000000000000000000000000000000000000000000081565b6040805161012081018252600080825260208201819052918101829052606081018290526080810182905260a0810182905260c0810182905260e08101829052610100810191909152506001600160a01b03808316600090815260208181526040808320858452825291829020825161012081018452815481526001820154928101929092526002810154928201929092526003820154831660608201526004820154831660808201526005820154831660a08201526006820154831660c08201526007820154831660e08201526008909101549091166101008201525b92915050565b60008260000361048557336000908152602081815260408083208984529091529020541561030e57604051633be1b34d60e11b815260040160405180910390fd5b61031785610d34565b600061032285610e82565b905060008660405160200161033791906114ef565b604051602081830303815290604052805190602001209050600086805190602001209050600061036689610f13565b6060808201869052604080513360208201529081018d90529081018890529091506001600160a01b037f000000000000000000000000000000000000000000000000000000000000000016906322f84e0e9083908b90608001604051602081830303815290604052805190602001206040518463ffffffff1660e01b81526004016103f3939291906116d6565b6020604051808303816000875af1158015610412573d6000803e3d6000fd5b505050506040513d601f19601f82011682018060405250810190610436919061170a565b336000908152602081815260408083208e84529091529020938455600184019290925550600282019290925560040180546001600160a01b0319166001600160a01b03831617905590506109f9565b33600090815260208181526040808320898452909152902054806104bc5760405163398b1c0960e21b815260040160405180910390fd5b80866040516020016104ce91906114ef565b60405160208183030381529060405280519060200120146105025760405163332ee11f60e01b815260040160405180910390fd5b336000908152602081815260408083208a84528252909120600101548651918701919091201461054557604051631a3272d160e31b815260040160405180910390fd5b61054e86610d34565b600061055987610f13565b336000908152602081815260408083208c845290915290206002015460608201529050600185900361069557336000908152602081815260408083208b84529091529020600501546001600160a01b0316156105c75760405162e896af60e31b815260040160405180910390fd5b60405163117c270760e11b81526001600160a01b037f000000000000000000000000000000000000000000000000000000000000000016906322f84e0e906106179084908a9089906004016116d6565b6020604051808303816000875af1158015610636573d6000803e3d6000fd5b505050506040513d601f19601f8201168201806040525081019061065a919061170a565b336000908152602081815260408083208c8452909152902060050180546001600160a01b0319166001600160a01b03831617905592506109f6565b846002036107ad57336000908152602081815260408083208b84529091529020600601546001600160a01b0316156106df5760405162e896af60e31b815260040160405180910390fd5b60405163117c270760e11b81526001600160a01b037f000000000000000000000000000000000000000000000000000000000000000016906322f84e0e9061072f9084908a9089906004016116d6565b6020604051808303816000875af115801561074e573d6000803e3d6000fd5b505050506040513d601f19601f82011682018060405250810190610772919061170a565b336000908152602081815260408083208c8452909152902060060180546001600160a01b0319166001600160a01b03831617905592506109f6565b846003036108c557336000908152602081815260408083208b84529091529020600701546001600160a01b0316156107f75760405162e896af60e31b815260040160405180910390fd5b60405163117c270760e11b81526001600160a01b037f000000000000000000000000000000000000000000000000000000000000000016906322f84e0e906108479084908a9089906004016116d6565b6020604051808303816000875af1158015610866573d6000803e3d6000fd5b505050506040513d601f19601f8201168201806040525081019061088a919061170a565b336000908152602081815260408083208c8452909152902060070180546001600160a01b0319166001600160a01b03831617905592506109f6565b846004036109dd57336000908152602081815260408083208b84529091529020600801546001600160a01b03161561090f5760405162e896af60e31b815260040160405180910390fd5b60405163117c270760e11b81526001600160a01b037f000000000000000000000000000000000000000000000000000000000000000016906322f84e0e9061095f9084908a9089906004016116d6565b6020604051808303816000875af115801561097e573d6000803e3d6000fd5b505050506040513d601f19601f820116820180604052508101906109a2919061170a565b336000908152602081815260408083208c8452909152902060080180546001600160a01b0319166001600160a01b03831617905592506109f6565b604051631d9f815960e11b815260040160405180910390fd5b50505b95945050505050565b3360009081526020818152604080832087845282528083208151610120810183528154815260018201549381019390935260028101549183019190915260038101546001600160a01b03908116606084018190526004830154821660808501526005830154821660a08501526006830154821660c08501526007830154821660e08501526008909201541661010083015215610ab157604051632c95caeb60e01b815260040160405180910390fd5b8051610ad05760405163398b1c0960e21b815260040160405180910390fd5b60808101516001600160a01b03161580610af5575060a08101516001600160a01b0316155b80610b0b575060c08101516001600160a01b0316155b80610b21575060e08101516001600160a01b0316155b80610b3857506101008101516001600160a01b0316155b15610b565760405163e97cc2bf60e01b815260040160405180910390fd5b8051604051610b699087906020016114ef565b6040516020818303038152906040528051906020012014610b9d5760405163332ee11f60e01b815260040160405180910390fd5b8060200151848051906020012014610bc857604051631a3272d160e31b815260040160405180910390fd5b610bd185610d34565b6000610bdc86610f13565b905081604001518160600181815250506000879050600085905060007f00000000000000000000000000000000000000000000000000000000000000006001600160a01b0316630c65a1cb858a88608001518960a001518a60c001518b60e001518c6101000151338c8c604051602001610c74939291906001600160a01b039390931683526020830191909152604082015260600190565b604051602081830303815290604052805190602001206040518963ffffffff1660e01b8152600401610cad989796959493929190611727565b6020604051808303816000875af1158015610ccc573d6000803e3d6000fd5b505050506040513d601f19601f82011682018060405250810190610cf0919061170a565b336000908152602081815260408083209d83529c90529a909a2060030180546001600160a01b0319166001600160a01b038c16179055509798975050505050505050565b610d3d81610fa9565b600481600001516001600160a01b031663313ce5676040518163ffffffff1660e01b8152600401602060405180830381865afa158015610d81573d6000803e3d6000fd5b505050506040513d601f19601f82011682018060405250810190610da5919061178e565b610daf91906117c7565b610dba90600a6118c4565b81606001511015610dde576040516349db44f560e01b815260040160405180910390fd5b600481600001516001600160a01b031663313ce5676040518163ffffffff1660e01b8152600401602060405180830381865afa158015610e22573d6000803e3d6000fd5b505050506040513d601f19601f82011682018060405250810190610e46919061178e565b610e5091906117c7565b610e5b90600a6118c4565b81608001511015610e7f576040516318c9522360e11b815260040160405180910390fd5b50565b60008082806020019051810190610e99919061170a565b6040516303d1689d60e11b8152670de0b6b3a764000060048201529091506001600160a01b038216906307a2d13a90602401602060405180830381865afa158015610ee8573d6000803e3d6000fd5b505050506040513d601f19601f82011682018060405250810190610f0c91906118d3565b9392505050565b610f1b6110bb565b81516001600160a01b03908116825260208084015182169083015260408084015190830152606083015160808084019190915283015160a08084019190915283015160c08084019190915283015160e0808401919091528301516101008084019190915283015181166101208084019190915283015116610140808301919091529091015161016082015290565b6103e881606001511015610fd0576040516349db44f560e01b815260040160405180910390fd5b8060c00151600003610ff557604051635428734d60e01b815260040160405180910390fd5b8060c001518160a00151108061101d57508060c001518160a0015161101a91906118ec565b15155b1561103b5760405163253fffcf60e11b815260040160405180910390fd5b61014081015151670de0b6b3a764000010806110675750670de0b6b3a764000081610140015160200151115b806110825750670de0b6b3a764000081610140015160400151115b8061109d5750670de0b6b3a764000081610140015160600151115b15610e7f576040516322f72cc360e11b815260040160405180910390fd5b60405180610180016040528060006001600160a01b0316815260200160006001600160a01b031681526020016000801916815260200160008152602001600081526020016000815260200160008152602001600081526020016000815260200160006001600160a01b0316815260200160006001600160a01b031681526020016111666040518060800160405280600081526020016000815260200160008152602001600081525090565b905290565b6001600160a01b0381168114610e7f57600080fd5b803561118b8161116b565b919050565b600080604083850312156111a357600080fd5b82356111ae8161116b565b946020939093013593505050565b8151815260208083015190820152604080830151908201526060808301516001600160a01b039081169183019190915260808084015182169083015260a08084015182169083015260c08084015182169083015260e08084015182169083015261010080840151918216818401526101208301915b505092915050565b634e487b7160e01b600052604160045260246000fd5b604051610160810167ffffffffffffffff8111828210171561127357611273611239565b60405290565b60006080828403121561128b57600080fd5b6040516080810181811067ffffffffffffffff821117156112ae576112ae611239565b8060405250809150823581526020830135602082015260408301356040820152606083013560608201525092915050565b60006101c082840312156112f257600080fd5b6112fa61124f565b905061130582611180565b815261131360208301611180565b602082015260408201356040820152606082013560608201526080820135608082015260a082013560a082015260c082013560c082015260e082013560e0820152610100611362818401611180565b90820152610120611374838201611180565b9082015261014061138784848301611279565b9082015292915050565b600082601f8301126113a257600080fd5b813567ffffffffffffffff808211156113bd576113bd611239565b604051601f8301601f19908116603f011681019082821181831017156113e5576113e5611239565b816040528381528660208588010111156113fe57600080fd5b836020870160208301376000602085830101528094505050505092915050565b6000806000806000610240868803121561143757600080fd5b8535945061144887602088016112df565b93506101e086013567ffffffffffffffff81111561146557600080fd5b61147188828901611391565b95989497509495610200810135955061022001359392505050565b60008060008061022085870312156114a357600080fd5b843593506114b486602087016112df565b92506101e085013567ffffffffffffffff8111156114d157600080fd5b6114dd87828801611391565b94979396509394610200013593505050565b81516001600160a01b031681526101c08101602083015161151b60208401826001600160a01b03169052565b5060408301516040830152606083015160608301526080830151608083015260a083015160a083015260c083015160c083015260e083015160e083015261010080840151611573828501826001600160a01b03169052565b5050610120838101516001600160a01b031690830152610140808401518051828501526020810151610160850152604081015161018085015260608101516101a0850152611231565b80516001600160a01b0316825260208101516115e360208401826001600160a01b03169052565b5060408101516040830152606081015160608301526080810151608083015260a081015160a083015260c081015160c083015260e081015160e083015261010080820151818401525061012080820151611647828501826001600160a01b03169052565b5050610140818101516001600160a01b03169083015261016090810151805191830191909152602081015161018083015260408101516101a0830152606001516101c090910152565b6000815180845260005b818110156116b65760208185018101518683018201520161169a565b506000602082860101526020601f19601f83011685010191505092915050565b60006102206116e583876115bc565b806101e08401526116f881840186611690565b91505082610200830152949350505050565b60006020828403121561171c57600080fd5b8151610f0c8161116b565b60006102c0611736838c6115bc565b806101e08401526117498184018b611690565b6001600160a01b03998a1661020085015297891661022084015250509386166102408501529185166102608401529093166102808201526102a0019190915292915050565b6000602082840312156117a057600080fd5b815160ff81168114610f0c57600080fd5b634e487b7160e01b600052601160045260246000fd5b60ff82811682821603908111156102c7576102c76117b1565b600181815b8085111561181b578160001904821115611801576118016117b1565b8085161561180e57918102915b93841c93908002906117e5565b509250929050565b600082611832575060016102c7565b8161183f575060006102c7565b8160018114611855576002811461185f5761187b565b60019150506102c7565b60ff841115611870576118706117b1565b50506001821b6102c7565b5060208310610133831016604e8410600b841016171561189e575081810a6102c7565b6118a883836117e0565b80600019048211156118bc576118bc6117b1565b029392505050565b6000610f0c60ff841683611823565b6000602082840312156118e557600080fd5b5051919050565b60008261190957634e487b7160e01b600052601260045260246000fd5b50069056fea264697066735822122086f2dedcab8dc01ee118c0e84e219a500cf2dc7dd7dcec57941da5c0361321d664736f6c63430008140033","linkReferences":{}},"methodIdentifiers":{"coreDeployer()":"c83e1f51","deploy(bytes32,(address,address,bytes32,uint256,uint256,uint256,uint256,uint256,address,address,(uint256,uint256,uint256,uint256)),bytes,bytes32)":"c47e90c4","deployTarget(bytes32,(address,address,bytes32,uint256,uint256,uint256,uint256,uint256,address,address,(uint256,uint256,uint256,uint256)),bytes,uint256,bytes32)":"7cc39092","deployments(address,bytes32)":"20503b3f","target0Deployer()":"ab71905f","target1Deployer()":"a085fa30","target2Deployer()":"b6cb1118","target3Deployer()":"aa8cd6c4","target4Deployer()":"966ecd1c"},"id":2}