{"abi":[{"type":"constructor","inputs":[{"name":"_coreDeployer","type":"address","internalType":"address"},{"name":"_target0Deployer","type":"address","internalType":"address"},{"name":"_target1Deployer","type":"address","internalType":"address"},{"name":"_target2Deployer","type":"address","internalType":"address"},{"name":"_target3Deployer","type":"address","internalType":"address"},{"name":"_target4Deployer","type":"address","internalType":"address"}],"stateMutability":"nonpayable"},{"type":"function","name":"coreDeployer","inputs":[],"outputs":[{"name":"","type":"address","internalType":"address"}],"stateMutability":"view"},{"type":"function","name":"deploy","inputs":[{"name":"_deploymentId","type":"bytes32","internalType":"bytes32"},{"name":"_deployConfig","type":"tuple","internalType":"struct IHyperdrive.PoolDeployConfig","components":[{"name":"baseToken","type":"address","internalType":"contract IERC20"},{"name":"vaultSharesToken","type":"address","internalType":"contract IERC20"},{"name":"linkerFactory","type":"address","internalType":"address"},{"name":"linkerCodeHash","type":"bytes32","internalType":"bytes32"},{"name":"minimumShareReserves","type":"uint256","internalType":"uint256"},{"name":"minimumTransactionAmount","type":"uint256","internalType":"uint256"},{"name":"positionDuration","type":"uint256","internalType":"uint256"},{"name":"checkpointDuration","type":"uint256","internalType":"uint256"},{"name":"timeStretch","type":"uint256","internalType":"uint256"},{"name":"governance","type":"address","internalType":"address"},{"name":"feeCollector","type":"address","internalType":"address"},{"name":"sweepCollector","type":"address","internalType":"address"},{"name":"fees","type":"tuple","internalType":"struct IHyperdrive.Fees","components":[{"name":"curve","type":"uint256","internalType":"uint256"},{"name":"flat","type":"uint256","internalType":"uint256"},{"name":"governanceLP","type":"uint256","internalType":"uint256"},{"name":"governanceZombie","type":"uint256","internalType":"uint256"}]}]},{"name":"_extraData","type":"bytes","internalType":"bytes"},{"name":"_salt","type":"bytes32","internalType":"bytes32"}],"outputs":[{"name":"","type":"address","internalType":"address"}],"stateMutability":"nonpayable"},{"type":"function","name":"deployTarget","inputs":[{"name":"_deploymentId","type":"bytes32","internalType":"bytes32"},{"name":"_deployConfig","type":"tuple","internalType":"struct IHyperdrive.PoolDeployConfig","components":[{"name":"baseToken","type":"address","internalType":"contract IERC20"},{"name":"vaultSharesToken","type":"address","internalType":"contract IERC20"},{"name":"linkerFactory","type":"address","internalType":"address"},{"name":"linkerCodeHash","type":"bytes32","internalType":"bytes32"},{"name":"minimumShareReserves","type":"uint256","internalType":"uint256"},{"name":"minimumTransactionAmount","type":"uint256","internalType":"uint256"},{"name":"positionDuration","type":"uint256","internalType":"uint256"},{"name":"checkpointDuration","type":"uint256","internalType":"uint256"},{"name":"timeStretch","type":"uint256","internalType":"uint256"},{"name":"governance","type":"address","internalType":"address"},{"name":"feeCollector","type":"address","internalType":"address"},{"name":"sweepCollector","type":"address","internalType":"address"},{"name":"fees","type":"tuple","internalType":"struct IHyperdrive.Fees","components":[{"name":"curve","type":"uint256","internalType":"uint256"},{"name":"flat","type":"uint256","internalType":"uint256"},{"name":"governanceLP","type":"uint256","internalType":"uint256"},{"name":"governanceZombie","type":"uint256","internalType":"uint256"}]}]},{"name":"_extraData","type":"bytes","internalType":"bytes"},{"name":"_targetIndex","type":"uint256","internalType":"uint256"},{"name":"_salt","type":"bytes32","internalType":"bytes32"}],"outputs":[{"name":"target","type":"address","internalType":"address"}],"stateMutability":"nonpayable"},{"type":"function","name":"deployments","inputs":[{"name":"_deployer","type":"address","internalType":"address"},{"name":"_deploymentId","type":"bytes32","internalType":"bytes32"}],"outputs":[{"name":"","type":"tuple","internalType":"struct HyperdriveDeployerCoordinator.Deployment","components":[{"name":"configHash","type":"bytes32","internalType":"bytes32"},{"name":"extraDataHash","type":"bytes32","internalType":"bytes32"},{"name":"initialSharePrice","type":"uint256","internalType":"uint256"},{"name":"hyperdrive","type":"address","internalType":"address"},{"name":"target0","type":"address","internalType":"address"},{"name":"target1","type":"address","internalType":"address"},{"name":"target2","type":"address","internalType":"address"},{"name":"target3","type":"address","internalType":"address"},{"name":"target4","type":"address","internalType":"address"}]}],"stateMutability":"view"},{"type":"function","name":"initialize","inputs":[{"name":"_deploymentId","type":"bytes32","internalType":"bytes32"},{"name":"_lp","type":"address","internalType":"address"},{"name":"_contribution","type":"uint256","internalType":"uint256"},{"name":"_apr","type":"uint256","internalType":"uint256"},{"name":"_options","type":"tuple","internalType":"struct IHyperdrive.Options","components":[{"name":"destination","type":"address","internalType":"address"},{"name":"asBase","type":"bool","internalType":"bool"},{"name":"extraData","type":"bytes","internalType":"bytes"}]}],"outputs":[{"name":"lpShares","type":"uint256","internalType":"uint256"}],"stateMutability":"payable"},{"type":"function","name":"target0Deployer","inputs":[],"outputs":[{"name":"","type":"address","internalType":"address"}],"stateMutability":"view"},{"type":"function","name":"target1Deployer","inputs":[],"outputs":[{"name":"","type":"address","internalType":"address"}],"stateMutability":"view"},{"type":"function","name":"target2Deployer","inputs":[],"outputs":[{"name":"","type":"address","internalType":"address"}],"stateMutability":"view"},{"type":"function","name":"target3Deployer","inputs":[],"outputs":[{"name":"","type":"address","internalType":"address"}],"stateMutability":"view"},{"type":"function","name":"target4Deployer","inputs":[],"outputs":[{"name":"","type":"address","internalType":"address"}],"stateMutability":"view"},{"type":"error","name":"AddressEmptyCode","inputs":[{"name":"target","type":"address","internalType":"address"}]},{"type":"error","name":"AddressInsufficientBalance","inputs":[{"name":"account","type":"address","internalType":"address"}]},{"type":"error","name":"DeploymentAlreadyExists","inputs":[]},{"type":"error","name":"DeploymentDoesNotExist","inputs":[]},{"type":"error","name":"FailedInnerCall","inputs":[]},{"type":"error","name":"HyperdriveAlreadyDeployed","inputs":[]},{"type":"error","name":"HyperdriveIsNotDeployed","inputs":[]},{"type":"error","name":"IncompleteDeployment","inputs":[]},{"type":"error","name":"InsufficientValue","inputs":[]},{"type":"error","name":"InvalidBaseToken","inputs":[]},{"type":"error","name":"InvalidCheckpointDuration","inputs":[]},{"type":"error","name":"InvalidFeeAmounts","inputs":[]},{"type":"error","name":"InvalidMinimumShareReserves","inputs":[]},{"type":"error","name":"InvalidMinimumTransactionAmount","inputs":[]},{"type":"error","name":"InvalidPositionDuration","inputs":[]},{"type":"error","name":"InvalidTargetIndex","inputs":[]},{"type":"error","name":"InvalidVaultSharesToken","inputs":[]},{"type":"error","name":"MismatchedConfig","inputs":[]},{"type":"error","name":"MismatchedExtraData","inputs":[]},{"type":"error","name":"NotPayable","inputs":[]},{"type":"error","name":"SafeERC20FailedOperation","inputs":[{"name":"token","type":"address","internalType":"address"}]},{"type":"error","name":"TargetAlreadyDeployed","inputs":[]},{"type":"error","name":"TransferFailed","inputs":[]}],"bytecode":{"object":"0x6101406040523480156200001257600080fd5b506040516200240438038062002404833981016040819052620000359162000082565b6001600160a01b0395861660805293851660a05291841660c052831660e052821661010052166101205262000103565b80516001600160a01b03811681146200007d57600080fd5b919050565b60008060008060008060c087890312156200009c57600080fd5b620000a78762000065565b9550620000b76020880162000065565b9450620000c76040880162000065565b9350620000d76060880162000065565b9250620000e76080880162000065565b9150620000f760a0880162000065565b90509295509295509295565b60805160a05160c05160e05161010051610120516122876200017d6000396000818161015301526108d20152600081816101bb01526107ba01526000818161022301526106a2015260008181610187015261058a0152600081816101ef015261033f0152600081816102570152610d0401526122876000f3fe6080604052600436106100915760003560e01c8063a085fa3011610059578063a085fa3014610175578063aa8cd6c4146101a9578063ab71905f146101dd578063b6cb111814610211578063c83e1f511461024557600080fd5b80630b3c4f861461009657806316abfc70146100d35780631ae6f515146100f457806320503b3f14610114578063966ecd1c14610141575b600080fd5b3480156100a257600080fd5b506100b66100b1366004611adb565b610279565b6040516001600160a01b0390911681526020015b60405180910390f35b6100e66100e1366004611b57565b6109ae565b6040519081526020016100ca565b34801561010057600080fd5b506100b661010f366004611c1c565b610b0c565b34801561012057600080fd5b5061013461012f366004611c7f565b610e3e565b6040516100ca9190611cab565b34801561014d57600080fd5b506100b67f000000000000000000000000000000000000000000000000000000000000000081565b34801561018157600080fd5b506100b67f000000000000000000000000000000000000000000000000000000000000000081565b3480156101b557600080fd5b506100b67f000000000000000000000000000000000000000000000000000000000000000081565b3480156101e957600080fd5b506100b67f000000000000000000000000000000000000000000000000000000000000000081565b34801561021d57600080fd5b506100b67f000000000000000000000000000000000000000000000000000000000000000081565b34801561025157600080fd5b506100b67f000000000000000000000000000000000000000000000000000000000000000081565b6000826000036104315733600090815260208181526040808320898452909152902054156102ba57604051633be1b34d60e11b815260040160405180910390fd5b6102c385610f22565b60006102cf8686611136565b90506000866040516020016102e49190611d28565b6040516020818303038152906040528051906020012090506000868051906020012090506000610313896111b4565b6080808201869052604080513360208201529081018d9052606081018990529192506001600160a01b037f0000000000000000000000000000000000000000000000000000000000000000169163195d4bfc9184918c9101604051602081830303815290604052805190602001206040518463ffffffff1660e01b815260040161039f93929190611f87565b6020604051808303816000875af11580156103be573d6000803e3d6000fd5b505050506040513d601f19601f820116820180604052508101906103e29190611fbb565b336000908152602081815260408083208e84529091529020938455600184019290925550600282019290925560040180546001600160a01b0319166001600160a01b03831617905590506109a5565b33600090815260208181526040808320898452909152902054806104685760405163398b1c0960e21b815260040160405180910390fd5b808660405160200161047a9190611d28565b60405160208183030381529060405280519060200120146104ae5760405163332ee11f60e01b815260040160405180910390fd5b336000908152602081815260408083208a8452825290912060010154865191870191909120146104f157604051631a3272d160e31b815260040160405180910390fd5b6104fa86610f22565b6000610505876111b4565b336000908152602081815260408083208c845290915290206002015460808201529050600185900361064157336000908152602081815260408083208b84529091529020600501546001600160a01b0316156105735760405162e896af60e31b815260040160405180910390fd5b60405163065752ff60e21b81526001600160a01b037f0000000000000000000000000000000000000000000000000000000000000000169063195d4bfc906105c39084908a908990600401611f87565b6020604051808303816000875af11580156105e2573d6000803e3d6000fd5b505050506040513d601f19601f820116820180604052508101906106069190611fbb565b336000908152602081815260408083208c8452909152902060050180546001600160a01b0319166001600160a01b03831617905592506109a2565b8460020361075957336000908152602081815260408083208b84529091529020600601546001600160a01b03161561068b5760405162e896af60e31b815260040160405180910390fd5b60405163065752ff60e21b81526001600160a01b037f0000000000000000000000000000000000000000000000000000000000000000169063195d4bfc906106db9084908a908990600401611f87565b6020604051808303816000875af11580156106fa573d6000803e3d6000fd5b505050506040513d601f19601f8201168201806040525081019061071e9190611fbb565b336000908152602081815260408083208c8452909152902060060180546001600160a01b0319166001600160a01b03831617905592506109a2565b8460030361087157336000908152602081815260408083208b84529091529020600701546001600160a01b0316156107a35760405162e896af60e31b815260040160405180910390fd5b60405163065752ff60e21b81526001600160a01b037f0000000000000000000000000000000000000000000000000000000000000000169063195d4bfc906107f39084908a908990600401611f87565b6020604051808303816000875af1158015610812573d6000803e3d6000fd5b505050506040513d601f19601f820116820180604052508101906108369190611fbb565b336000908152602081815260408083208c8452909152902060070180546001600160a01b0319166001600160a01b03831617905592506109a2565b8460040361098957336000908152602081815260408083208b84529091529020600801546001600160a01b0316156108bb5760405162e896af60e31b815260040160405180910390fd5b60405163065752ff60e21b81526001600160a01b037f0000000000000000000000000000000000000000000000000000000000000000169063195d4bfc9061090b9084908a908990600401611f87565b6020604051808303816000875af115801561092a573d6000803e3d6000fd5b505050506040513d601f19601f8201168201806040525081019061094e9190611fbb565b336000908152602081815260408083208c8452909152902060080180546001600160a01b0319166001600160a01b03831617905592506109a2565b604051631d9f815960e11b815260040160405180910390fd5b50505b95945050505050565b60006109b8611266565b336000908152602081815260408083208984529091529020600301546001600160a01b0316806109fb5760405163952b05cb60e01b815260040160405180910390fd5b6000610a0982888887611287565b9050816001600160a01b03166377d05ff4828888886040518563ffffffff1660e01b8152600401610a3c93929190611fd8565b60206040518083038185885af1158015610a5a573d6000803e3d6000fd5b50505050506040513d601f19601f82011682018060405250810190610a7f919061201e565b92506000610a8d823461204d565b90508015610b0057604051600090339083908381818185875af1925050503d8060008114610ad7576040519150601f19603f3d011682016040523d82523d6000602084013e610adc565b606091505b5050905080610afe576040516312171d8360e31b815260040160405180910390fd5b505b50505095945050505050565b3360009081526020818152604080832087845282528083208151610120810183528154815260018201549381019390935260028101549183019190915260038101546001600160a01b03908116606084018190526004830154821660808501526005830154821660a08501526006830154821660c08501526007830154821660e08501526008909201541661010083015215610bbb57604051632c95caeb60e01b815260040160405180910390fd5b8051610bda5760405163398b1c0960e21b815260040160405180910390fd5b60808101516001600160a01b03161580610bff575060a08101516001600160a01b0316155b80610c15575060c08101516001600160a01b0316155b80610c2b575060e08101516001600160a01b0316155b80610c4257506101008101516001600160a01b0316155b15610c605760405163e97cc2bf60e01b815260040160405180910390fd5b8051604051610c73908790602001611d28565b6040516020818303038152906040528051906020012014610ca75760405163332ee11f60e01b815260040160405180910390fd5b8060200151848051906020012014610cd257604051631a3272d160e31b815260040160405180910390fd5b610cdb85610f22565b6000610ce6866111b4565b905081604001518160800181815250506000879050600085905060007f00000000000000000000000000000000000000000000000000000000000000006001600160a01b031663ed871fd7858a88608001518960a001518a60c001518b60e001518c6101000151338c8c604051602001610d7e939291906001600160a01b039390931683526020830191909152604082015260600190565b604051602081830303815290604052805190602001206040518963ffffffff1660e01b8152600401610db7989796959493929190612060565b6020604051808303816000875af1158015610dd6573d6000803e3d6000fd5b505050506040513d601f19601f82011682018060405250810190610dfa9190611fbb565b336000908152602081815260408083209d83529c90529a909a2060030180546001600160a01b0319166001600160a01b038c16179055509798975050505050505050565b6040805161012081018252600080825260208201819052918101829052606081018290526080810182905260a0810182905260c0810182905260e08101829052610100810191909152506001600160a01b03808316600090815260208181526040808320858452825291829020825161012081018452815481526001820154928101929092526002810154928201929092526003820154831660608201526004820154831660808201526005820154831660a08201526006820154831660c08201526007820154831660e08201526008909101549091166101008201525b92915050565b610f2b81611397565b60208101516001600160a01b0316610f565760405163073f739d60e51b815260040160405180910390fd5b80602001516001600160a01b03166338d52e0f6040518163ffffffff1660e01b8152600401602060405180830381865afa158015610f98573d6000803e3d6000fd5b505050506040513d601f19601f82011682018060405250810190610fbc9190611fbb565b6001600160a01b031681600001516001600160a01b031614610ff157604051630722152560e11b815260040160405180910390fd5b600481600001516001600160a01b031663313ce5676040518163ffffffff1660e01b8152600401602060405180830381865afa158015611035573d6000803e3d6000fd5b505050506040513d601f19601f8201168201806040525081019061105991906120c7565b61106391906120ea565b61106e90600a6121e7565b81608001511015611092576040516349db44f560e01b815260040160405180910390fd5b600481600001516001600160a01b031663313ce5676040518163ffffffff1660e01b8152600401602060405180830381865afa1580156110d6573d6000803e3d6000fd5b505050506040513d601f19601f820116820180604052508101906110fa91906120c7565b61110491906120ea565b61110f90600a6121e7565b8160a001511015611133576040516318c9522360e11b815260040160405180910390fd5b50565b60208201516040516303d1689d60e11b8152670de0b6b3a764000060048201526000916001600160a01b0316906307a2d13a90602401602060405180830381865afa158015611189573d6000803e3d6000fd5b505050506040513d601f19601f820116820180604052508101906111ad919061201e565b9392505050565b6111bc6117b9565b81516001600160a01b03908116825260208084015182169083015260408084015182169083015260608084015190830152608083015160a08084019190915283015160c08084019190915283015160e08084019190915283015161010080840191909152830151610120808401919091528301518116610140808401919091528301518116610160808401919091528301511661018080830191909152909101516101a082015290565b341561128557604051631574f9f360e01b815260040160405180910390fd5b565b6000808260200151156112fd57856001600160a01b031663c55dae636040518163ffffffff1660e01b8152600401602060405180830381865afa1580156112d2573d6000803e3d6000fd5b505050506040513d601f19601f820116820180604052508101906112f69190611fbb565b9050611362565b856001600160a01b0316630a4e14936040518163ffffffff1660e01b8152600401602060405180830381865afa15801561133b573d6000803e3d6000fd5b505050506040513d601f19601f8201168201806040525081019061135f9190611fbb565b90505b6113776001600160a01b0382168630876114a9565b61138b6001600160a01b0382168786611516565b50600095945050505050565b6103e8816080015110156113be576040516349db44f560e01b815260040160405180910390fd5b8060e001516000036113e357604051635428734d60e01b815260040160405180910390fd5b8060e001518160c00151108061140b57508060e001518160c0015161140891906121f6565b15155b156114295760405163253fffcf60e11b815260040160405180910390fd5b61018081015151670de0b6b3a764000010806114555750670de0b6b3a764000081610180015160200151115b806114705750670de0b6b3a764000081610180015160400151115b8061148b5750670de0b6b3a764000081610180015160600151115b15611133576040516322f72cc360e11b815260040160405180910390fd5b6040516001600160a01b0384811660248301528381166044830152606482018390526115109186918216906323b872dd906084015b604051602081830303815290604052915060e01b6020820180516001600160e01b0383818316178352505050506115a2565b50505050565b604080516001600160a01b038416602482015260448082018490528251808303909101815260649091019091526020810180516001600160e01b031663095ea7b360e01b179052611567848261160f565b611510576040516001600160a01b0384811660248301526000604483015261159c91869182169063095ea7b3906064016114de565b61151084825b60006115b76001600160a01b038416836116b2565b905080516000141580156115dc5750808060200190518101906115da9190612218565b155b1561160a57604051635274afe760e01b81526001600160a01b03841660048201526024015b60405180910390fd5b505050565b6000806000846001600160a01b03168460405161162c9190612235565b6000604051808303816000865af19150503d8060008114611669576040519150601f19603f3d011682016040523d82523d6000602084013e61166e565b606091505b50915091508180156116985750805115806116985750808060200190518101906116989190612218565b80156109a55750505050506001600160a01b03163b151590565b60606111ad8383600084600080856001600160a01b031684866040516116d89190612235565b60006040518083038185875af1925050503d8060008114611715576040519150601f19603f3d011682016040523d82523d6000602084013e61171a565b606091505b509150915061172a868383611734565b9695505050505050565b6060826117495761174482611790565b6111ad565b815115801561176057506001600160a01b0384163b155b1561178957604051639996b31560e01b81526001600160a01b0385166004820152602401611601565b50806111ad565b8051156117a05780518082602001fd5b604051630a12f52160e11b815260040160405180910390fd5b604051806101c0016040528060006001600160a01b0316815260200160006001600160a01b0316815260200160006001600160a01b031681526020016000801916815260200160008152602001600081526020016000815260200160008152602001600081526020016000815260200160006001600160a01b0316815260200160006001600160a01b0316815260200160006001600160a01b031681526020016118846040518060800160405280600081526020016000815260200160008152602001600081525090565b905290565b634e487b7160e01b600052604160045260246000fd5b6040516101a0810167ffffffffffffffff811182821017156118c3576118c3611889565b60405290565b6040516060810167ffffffffffffffff811182821017156118c3576118c3611889565b6001600160a01b038116811461113357600080fd5b803561190c816118ec565b919050565b60006080828403121561192357600080fd5b6040516080810181811067ffffffffffffffff8211171561194657611946611889565b8060405250809150823581526020830135602082015260408301356040820152606083013560608201525092915050565b6000610200828403121561198a57600080fd5b61199261189f565b905061199d82611901565b81526119ab60208301611901565b60208201526119bc60408301611901565b6040820152606082013560608201526080820135608082015260a082013560a082015260c082013560c082015260e082013560e0820152610100808301358183015250610120611a0d818401611901565b90820152610140611a1f838201611901565b90820152610160611a31838201611901565b90820152610180611a4484848301611911565b9082015292915050565b600082601f830112611a5f57600080fd5b813567ffffffffffffffff80821115611a7a57611a7a611889565b604051601f8301601f19908116603f01168101908282118183101715611aa257611aa2611889565b81604052838152866020858801011115611abb57600080fd5b836020870160208301376000602085830101528094505050505092915050565b60008060008060006102808688031215611af457600080fd5b85359450611b058760208801611977565b935061022086013567ffffffffffffffff811115611b2257600080fd5b611b2e88828901611a4e565b95989497509495610240810135955061026001359392505050565b801515811461113357600080fd5b600080600080600060a08688031215611b6f57600080fd5b853594506020860135611b81816118ec565b93506040860135925060608601359150608086013567ffffffffffffffff80821115611bac57600080fd5b908701906060828a031215611bc057600080fd5b611bc86118c9565b8235611bd3816118ec565b81526020830135611be381611b49565b6020820152604083013582811115611bfa57600080fd5b611c068b828601611a4e565b6040830152508093505050509295509295909350565b6000806000806102608587031215611c3357600080fd5b84359350611c448660208701611977565b925061022085013567ffffffffffffffff811115611c6157600080fd5b611c6d87828801611a4e565b94979396509394610240013593505050565b60008060408385031215611c9257600080fd5b8235611c9d816118ec565b946020939093013593505050565b8151815260208083015190820152604080830151908201526060808301516001600160a01b039081169183019190915260808084015182169083015260a08084015182169083015260c08084015182169083015260e08084015182169083015261010080840151918216818401526101208301915b505092915050565b81516001600160a01b0316815261020081016020830151611d5460208401826001600160a01b03169052565b506040830151611d6f60408401826001600160a01b03169052565b50606083015160608301526080830151608083015260a083015160a083015260c083015160c083015260e083015160e083015261010080840151818401525061012080840151611dc9828501826001600160a01b03169052565b5050610140838101516001600160a01b038116848301525050610160838101516001600160a01b0381168483015250506101808381015180518483015260208101516101a085015260408101516101c085015260608101516101e0850152611d20565b80516001600160a01b031682526020810151611e5360208401826001600160a01b03169052565b506040810151611e6e60408401826001600160a01b03169052565b50606081015160608301526080810151608083015260a081015160a083015260c081015160c083015260e081015160e083015261010080820151818401525061012080820151818401525061014080820151611ed4828501826001600160a01b03169052565b5050610160818101516001600160a01b038116848301525050610180818101516001600160a01b0381168483015250506101a08181015180518483015260208101516101c085015260408101516101e08501526060810151610200850152611510565b60005b83811015611f52578181015183820152602001611f3a565b50506000910152565b60008151808452611f73816020860160208601611f37565b601f01601f19169290920160200192915050565b6000610260611f968387611e2c565b80610220840152611fa981840186611f5b565b91505082610240830152949350505050565b600060208284031215611fcd57600080fd5b81516111ad816118ec565b8381528260208201526060604082015260018060a01b03825116606082015260208201511515608082015260006040830151606060a084015261172a60c0840182611f5b565b60006020828403121561203057600080fd5b5051919050565b634e487b7160e01b600052601160045260246000fd5b81810381811115610f1c57610f1c612037565b600061030061206f838c611e2c565b806102208401526120828184018b611f5b565b6001600160a01b03998a1661024085015297891661026084015250509386166102808501529185166102a08401529093166102c08201526102e0019190915292915050565b6000602082840312156120d957600080fd5b815160ff811681146111ad57600080fd5b60ff8281168282160390811115610f1c57610f1c612037565b600181815b8085111561213e57816000190482111561212457612124612037565b8085161561213157918102915b93841c9390800290612108565b509250929050565b60008261215557506001610f1c565b8161216257506000610f1c565b816001811461217857600281146121825761219e565b6001915050610f1c565b60ff84111561219357612193612037565b50506001821b610f1c565b5060208310610133831016604e8410600b84101617156121c1575081810a610f1c565b6121cb8383612103565b80600019048211156121df576121df612037565b029392505050565b60006111ad60ff841683612146565b60008261221357634e487b7160e01b600052601260045260246000fd5b500690565b60006020828403121561222a57600080fd5b81516111ad81611b49565b60008251612247818460208701611f37565b919091019291505056fea264697066735822122011cbcbb4cfc9af17e067ea32c030b2e8ada6e41ed2b0e298e3017530c7a72a4364736f6c63430008140033","linkReferences":{}},"methodIdentifiers":{"coreDeployer()":"c83e1f51","deploy(bytes32,(address,address,address,bytes32,uint256,uint256,uint256,uint256,uint256,address,address,address,(uint256,uint256,uint256,uint256)),bytes,bytes32)":"1ae6f515","deployTarget(bytes32,(address,address,address,bytes32,uint256,uint256,uint256,uint256,uint256,address,address,address,(uint256,uint256,uint256,uint256)),bytes,uint256,bytes32)":"0b3c4f86","deployments(address,bytes32)":"20503b3f","initialize(bytes32,address,uint256,uint256,(address,bool,bytes))":"16abfc70","target0Deployer()":"ab71905f","target1Deployer()":"a085fa30","target2Deployer()":"b6cb1118","target3Deployer()":"aa8cd6c4","target4Deployer()":"966ecd1c"},"id":2}