{"abi":[{"type":"constructor","inputs":[{"name":"_factory","type":"address","internalType":"address"},{"name":"_coreDeployer","type":"address","internalType":"address"},{"name":"_target0Deployer","type":"address","internalType":"address"},{"name":"_target1Deployer","type":"address","internalType":"address"},{"name":"_target2Deployer","type":"address","internalType":"address"},{"name":"_target3Deployer","type":"address","internalType":"address"},{"name":"_target4Deployer","type":"address","internalType":"address"}],"stateMutability":"nonpayable"},{"type":"function","name":"coreDeployer","inputs":[],"outputs":[{"name":"","type":"address","internalType":"address"}],"stateMutability":"view"},{"type":"function","name":"deploy","inputs":[{"name":"_deploymentId","type":"bytes32","internalType":"bytes32"},{"name":"_deployConfig","type":"tuple","internalType":"struct IHyperdrive.PoolDeployConfig","components":[{"name":"baseToken","type":"address","internalType":"contract IERC20"},{"name":"vaultSharesToken","type":"address","internalType":"contract IERC20"},{"name":"linkerFactory","type":"address","internalType":"address"},{"name":"linkerCodeHash","type":"bytes32","internalType":"bytes32"},{"name":"minimumShareReserves","type":"uint256","internalType":"uint256"},{"name":"minimumTransactionAmount","type":"uint256","internalType":"uint256"},{"name":"positionDuration","type":"uint256","internalType":"uint256"},{"name":"checkpointDuration","type":"uint256","internalType":"uint256"},{"name":"timeStretch","type":"uint256","internalType":"uint256"},{"name":"governance","type":"address","internalType":"address"},{"name":"feeCollector","type":"address","internalType":"address"},{"name":"sweepCollector","type":"address","internalType":"address"},{"name":"fees","type":"tuple","internalType":"struct IHyperdrive.Fees","components":[{"name":"curve","type":"uint256","internalType":"uint256"},{"name":"flat","type":"uint256","internalType":"uint256"},{"name":"governanceLP","type":"uint256","internalType":"uint256"},{"name":"governanceZombie","type":"uint256","internalType":"uint256"}]}]},{"name":"_extraData","type":"bytes","internalType":"bytes"},{"name":"_salt","type":"bytes32","internalType":"bytes32"}],"outputs":[{"name":"","type":"address","internalType":"address"}],"stateMutability":"nonpayable"},{"type":"function","name":"deployTarget","inputs":[{"name":"_deploymentId","type":"bytes32","internalType":"bytes32"},{"name":"_deployConfig","type":"tuple","internalType":"struct IHyperdrive.PoolDeployConfig","components":[{"name":"baseToken","type":"address","internalType":"contract IERC20"},{"name":"vaultSharesToken","type":"address","internalType":"contract IERC20"},{"name":"linkerFactory","type":"address","internalType":"address"},{"name":"linkerCodeHash","type":"bytes32","internalType":"bytes32"},{"name":"minimumShareReserves","type":"uint256","internalType":"uint256"},{"name":"minimumTransactionAmount","type":"uint256","internalType":"uint256"},{"name":"positionDuration","type":"uint256","internalType":"uint256"},{"name":"checkpointDuration","type":"uint256","internalType":"uint256"},{"name":"timeStretch","type":"uint256","internalType":"uint256"},{"name":"governance","type":"address","internalType":"address"},{"name":"feeCollector","type":"address","internalType":"address"},{"name":"sweepCollector","type":"address","internalType":"address"},{"name":"fees","type":"tuple","internalType":"struct IHyperdrive.Fees","components":[{"name":"curve","type":"uint256","internalType":"uint256"},{"name":"flat","type":"uint256","internalType":"uint256"},{"name":"governanceLP","type":"uint256","internalType":"uint256"},{"name":"governanceZombie","type":"uint256","internalType":"uint256"}]}]},{"name":"_extraData","type":"bytes","internalType":"bytes"},{"name":"_targetIndex","type":"uint256","internalType":"uint256"},{"name":"_salt","type":"bytes32","internalType":"bytes32"}],"outputs":[{"name":"target","type":"address","internalType":"address"}],"stateMutability":"nonpayable"},{"type":"function","name":"deployments","inputs":[{"name":"_deploymentId","type":"bytes32","internalType":"bytes32"}],"outputs":[{"name":"","type":"tuple","internalType":"struct HyperdriveDeployerCoordinator.Deployment","components":[{"name":"configHash","type":"bytes32","internalType":"bytes32"},{"name":"extraDataHash","type":"bytes32","internalType":"bytes32"},{"name":"initialSharePrice","type":"uint256","internalType":"uint256"},{"name":"hyperdrive","type":"address","internalType":"address"},{"name":"target0","type":"address","internalType":"address"},{"name":"target1","type":"address","internalType":"address"},{"name":"target2","type":"address","internalType":"address"},{"name":"target3","type":"address","internalType":"address"},{"name":"target4","type":"address","internalType":"address"}]}],"stateMutability":"view"},{"type":"function","name":"factory","inputs":[],"outputs":[{"name":"","type":"address","internalType":"address"}],"stateMutability":"view"},{"type":"function","name":"initialize","inputs":[{"name":"_deploymentId","type":"bytes32","internalType":"bytes32"},{"name":"_lp","type":"address","internalType":"address"},{"name":"_contribution","type":"uint256","internalType":"uint256"},{"name":"_apr","type":"uint256","internalType":"uint256"},{"name":"_options","type":"tuple","internalType":"struct IHyperdrive.Options","components":[{"name":"destination","type":"address","internalType":"address"},{"name":"asBase","type":"bool","internalType":"bool"},{"name":"extraData","type":"bytes","internalType":"bytes"}]}],"outputs":[{"name":"lpShares","type":"uint256","internalType":"uint256"}],"stateMutability":"payable"},{"type":"function","name":"name","inputs":[],"outputs":[{"name":"","type":"string","internalType":"string"}],"stateMutability":"view"},{"type":"function","name":"target0Deployer","inputs":[],"outputs":[{"name":"","type":"address","internalType":"address"}],"stateMutability":"view"},{"type":"function","name":"target1Deployer","inputs":[],"outputs":[{"name":"","type":"address","internalType":"address"}],"stateMutability":"view"},{"type":"function","name":"target2Deployer","inputs":[],"outputs":[{"name":"","type":"address","internalType":"address"}],"stateMutability":"view"},{"type":"function","name":"target3Deployer","inputs":[],"outputs":[{"name":"","type":"address","internalType":"address"}],"stateMutability":"view"},{"type":"function","name":"target4Deployer","inputs":[],"outputs":[{"name":"","type":"address","internalType":"address"}],"stateMutability":"view"},{"type":"function","name":"version","inputs":[],"outputs":[{"name":"","type":"string","internalType":"string"}],"stateMutability":"pure"},{"type":"error","name":"AddressEmptyCode","inputs":[{"name":"target","type":"address","internalType":"address"}]},{"type":"error","name":"AddressInsufficientBalance","inputs":[{"name":"account","type":"address","internalType":"address"}]},{"type":"error","name":"DeploymentAlreadyExists","inputs":[]},{"type":"error","name":"DeploymentDoesNotExist","inputs":[]},{"type":"error","name":"FailedInnerCall","inputs":[]},{"type":"error","name":"HyperdriveAlreadyDeployed","inputs":[]},{"type":"error","name":"HyperdriveIsNotDeployed","inputs":[]},{"type":"error","name":"IncompleteDeployment","inputs":[]},{"type":"error","name":"InsufficientValue","inputs":[]},{"type":"error","name":"InvalidBaseToken","inputs":[]},{"type":"error","name":"InvalidCheckpointDuration","inputs":[]},{"type":"error","name":"InvalidFeeAmounts","inputs":[]},{"type":"error","name":"InvalidMinimumShareReserves","inputs":[]},{"type":"error","name":"InvalidMinimumTransactionAmount","inputs":[]},{"type":"error","name":"InvalidPositionDuration","inputs":[]},{"type":"error","name":"InvalidTargetIndex","inputs":[]},{"type":"error","name":"InvalidVaultSharesToken","inputs":[]},{"type":"error","name":"MismatchedConfig","inputs":[]},{"type":"error","name":"MismatchedExtraData","inputs":[]},{"type":"error","name":"NotPayable","inputs":[]},{"type":"error","name":"SafeERC20FailedOperation","inputs":[{"name":"token","type":"address","internalType":"address"}]},{"type":"error","name":"SenderIsNotFactory","inputs":[]},{"type":"error","name":"TargetAlreadyDeployed","inputs":[]},{"type":"error","name":"TransferFailed","inputs":[]}],"bytecode":{"object":"0x6101606040523480156200001257600080fd5b506040516200259638038062002596833981016040819052620000359162000089565b6001600160a01b0396871660805294861660a05292851660c05290841660e05283166101005282166101205216610140526200011e565b80516001600160a01b03811681146200008457600080fd5b919050565b600080600080600080600060e0888a031215620000a557600080fd5b620000b0886200006c565b9650620000c0602089016200006c565b9550620000d0604089016200006c565b9450620000e0606089016200006c565b9350620000f0608089016200006c565b92506200010060a089016200006c565b91506200011060c089016200006c565b905092959891949750929550565b60805160a05160c05160e0516101005161012051610140516123de620001b8600039600081816102aa0152610a2f015260008181610312015261091b01526000818161037a01526108070152600081816102de01526106f301526000818161034601526105080152600081816103e20152610f0c0152600081816103ae0152818161042d01528181610b410152610cdd01526123de6000f3fe6080604052600436106100c25760003560e01c8063966ecd1c1161007f578063ab71905f11610059578063ab71905f14610334578063b6cb111814610368578063c45a01551461039c578063c83e1f51146103d057600080fd5b8063966ecd1c14610298578063a085fa30146102cc578063aa8cd6c41461030057600080fd5b806306fdde03146100c75780630b3c4f86146100f257806316abfc701461012a5780631ae6f5151461014b578063374040171461016b57806354fd4d5014610269575b600080fd5b3480156100d357600080fd5b506100dc610404565b6040516100e991906119e1565b60405180910390f35b3480156100fe57600080fd5b5061011261010d366004611c46565b610420565b6040516001600160a01b0390911681526020016100e9565b61013d610138366004611cc2565b610b34565b6040519081526020016100e9565b34801561015757600080fd5b50610112610166366004611d87565b610cd0565b34801561017757600080fd5b5061025c610186366004611dea565b6040805161012081018252600080825260208201819052918101829052606081018290526080810182905260a0810182905260c0810182905260e0810182905261010081019190915250600090815260208181526040918290208251610120810184528154815260018201549281019290925260028101549282019290925260038201546001600160a01b0390811660608301526004830154811660808301526005830154811660a08301526006830154811660c08301526007830154811660e083015260089092015490911661010082015290565b6040516100e99190611e03565b34801561027557600080fd5b506040805180820190915260068152653b189718171960d11b60208201526100dc565b3480156102a457600080fd5b506101127f000000000000000000000000000000000000000000000000000000000000000081565b3480156102d857600080fd5b506101127f000000000000000000000000000000000000000000000000000000000000000081565b34801561030c57600080fd5b506101127f000000000000000000000000000000000000000000000000000000000000000081565b34801561034057600080fd5b506101127f000000000000000000000000000000000000000000000000000000000000000081565b34801561037457600080fd5b506101127f000000000000000000000000000000000000000000000000000000000000000081565b3480156103a857600080fd5b506101127f000000000000000000000000000000000000000000000000000000000000000081565b3480156103dc57600080fd5b506101127f000000000000000000000000000000000000000000000000000000000000000081565b6040518060600160405280602481526020016123856024913981565b6000336001600160a01b037f0000000000000000000000000000000000000000000000000000000000000000161461046b57604051634084351160e01b815260040160405180910390fd5b600086815260208190526040812090849003610600578054156104a157604051633be1b34d60e11b815260040160405180910390fd5b6104aa86611026565b60006104b6878761123a565b90506000876040516020016104cb9190611e80565b60405160208183030381529060405280519060200120905060008780519060200120905060006104fa8a6112ba565b9050838160800181815250507f00000000000000000000000000000000000000000000000000000000000000006001600160a01b031663195d4bfc828b8e8b604051602001610553929190918252602082015260400190565b604051602081830303815290604052805190602001206040518463ffffffff1660e01b81526004016105879392919061208f565b6020604051808303816000875af11580156105a6573d6000803e3d6000fd5b505050506040513d601f19601f820116820180604052508101906105ca91906120c3565b9285555060018401556002830191909155600490910180546001600160a01b0319166001600160a01b0383161790559050610b2b565b6000878152602081905260409020548061062d5760405163398b1c0960e21b815260040160405180910390fd5b808760405160200161063f9190611e80565b60405160208183030381529060405280519060200120146106735760405163332ee11f60e01b815260040160405180910390fd5b6001820154865160208801201461069d57604051631a3272d160e31b815260040160405180910390fd5b6106a687611026565b60006106b1886112ba565b60028401546080820152905060018690036107d25760058301546001600160a01b0316156106f15760405162e896af60e31b815260040160405180910390fd5b7f00000000000000000000000000000000000000000000000000000000000000006001600160a01b031663195d4bfc8289338d8a604051602001610737939291906120e0565b604051602081830303815290604052805190602001206040518463ffffffff1660e01b815260040161076b9392919061208f565b6020604051808303816000875af115801561078a573d6000803e3d6000fd5b505050506040513d601f19601f820116820180604052508101906107ae91906120c3565b6005840180546001600160a01b0319166001600160a01b0383161790559350610b27565b856002036108e65760068301546001600160a01b0316156108055760405162e896af60e31b815260040160405180910390fd5b7f00000000000000000000000000000000000000000000000000000000000000006001600160a01b031663195d4bfc8289338d8a60405160200161084b939291906120e0565b604051602081830303815290604052805190602001206040518463ffffffff1660e01b815260040161087f9392919061208f565b6020604051808303816000875af115801561089e573d6000803e3d6000fd5b505050506040513d601f19601f820116820180604052508101906108c291906120c3565b6006840180546001600160a01b0319166001600160a01b0383161790559350610b27565b856003036109fa5760078301546001600160a01b0316156109195760405162e896af60e31b815260040160405180910390fd5b7f00000000000000000000000000000000000000000000000000000000000000006001600160a01b031663195d4bfc8289338d8a60405160200161095f939291906120e0565b604051602081830303815290604052805190602001206040518463ffffffff1660e01b81526004016109939392919061208f565b6020604051808303816000875af11580156109b2573d6000803e3d6000fd5b505050506040513d601f19601f820116820180604052508101906109d691906120c3565b6007840180546001600160a01b0319166001600160a01b0383161790559350610b27565b85600403610b0e5760088301546001600160a01b031615610a2d5760405162e896af60e31b815260040160405180910390fd5b7f00000000000000000000000000000000000000000000000000000000000000006001600160a01b031663195d4bfc8289338d8a604051602001610a73939291906120e0565b604051602081830303815290604052805190602001206040518463ffffffff1660e01b8152600401610aa79392919061208f565b6020604051808303816000875af1158015610ac6573d6000803e3d6000fd5b505050506040513d601f19601f82011682018060405250810190610aea91906120c3565b6008840180546001600160a01b0319166001600160a01b0383161790559350610b27565b604051631d9f815960e11b815260040160405180910390fd5b5050505b95945050505050565b6000336001600160a01b037f00000000000000000000000000000000000000000000000000000000000000001614610b7f57604051634084351160e01b815260040160405180910390fd5b610b8761136c565b6000868152602081905260409020600301546001600160a01b031680610bc05760405163952b05cb60e01b815260040160405180910390fd5b6000610bce8288888761138d565b9050816001600160a01b03166377d05ff4828888886040518563ffffffff1660e01b8152600401610c0193929190612101565b60206040518083038185885af1158015610c1f573d6000803e3d6000fd5b50505050506040513d601f19601f82011682018060405250810190610c449190612151565b92506000610c528234612180565b90508015610b2757604051600090339083908381818185875af1925050503d8060008114610c9c576040519150601f19603f3d011682016040523d82523d6000602084013e610ca1565b606091505b5050905080610cc3576040516312171d8360e31b815260040160405180910390fd5b5050505095945050505050565b6000336001600160a01b037f00000000000000000000000000000000000000000000000000000000000000001614610d1b57604051634084351160e01b815260040160405180910390fd5b600085815260208181526040918290208251610120810184528154815260018201549281019290925260028101549282019290925260038201546001600160a01b03908116606083018190526004840154821660808401526005840154821660a08401526006840154821660c08401526007840154821660e0840152600890930154166101008201529015610dc357604051632c95caeb60e01b815260040160405180910390fd5b8051610de25760405163398b1c0960e21b815260040160405180910390fd5b60808101516001600160a01b03161580610e07575060a08101516001600160a01b0316155b80610e1d575060c08101516001600160a01b0316155b80610e33575060e08101516001600160a01b0316155b80610e4a57506101008101516001600160a01b0316155b15610e685760405163e97cc2bf60e01b815260040160405180910390fd5b8051604051610e7b908790602001611e80565b6040516020818303038152906040528051906020012014610eaf5760405163332ee11f60e01b815260040160405180910390fd5b8060200151848051906020012014610eda57604051631a3272d160e31b815260040160405180910390fd5b610ee385611026565b6000610eee866112ba565b905081604001518160800181815250506000879050600085905060007f00000000000000000000000000000000000000000000000000000000000000006001600160a01b031663ed871fd7858a88608001518960a001518a60c001518b60e001518c61010001518b8b604051602001610f71929190918252602082015260400190565b604051602081830303815290604052805190602001206040518963ffffffff1660e01b8152600401610faa989796959493929190612193565b6020604051808303816000875af1158015610fc9573d6000803e3d6000fd5b505050506040513d601f19601f82011682018060405250810190610fed91906120c3565b60009a8b5260208b90526040909a2060030180546001600160a01b0319166001600160a01b038c16179055509798975050505050505050565b61102f8161149d565b60208101516001600160a01b031661105a5760405163073f739d60e51b815260040160405180910390fd5b80602001516001600160a01b03166338d52e0f6040518163ffffffff1660e01b8152600401602060405180830381865afa15801561109c573d6000803e3d6000fd5b505050506040513d601f19601f820116820180604052508101906110c091906120c3565b6001600160a01b031681600001516001600160a01b0316146110f557604051630722152560e11b815260040160405180910390fd5b600481600001516001600160a01b031663313ce5676040518163ffffffff1660e01b8152600401602060405180830381865afa158015611139573d6000803e3d6000fd5b505050506040513d601f19601f8201168201806040525081019061115d91906121fa565b611167919061221d565b61117290600a61231a565b81608001511015611196576040516349db44f560e01b815260040160405180910390fd5b600481600001516001600160a01b031663313ce5676040518163ffffffff1660e01b8152600401602060405180830381865afa1580156111da573d6000803e3d6000fd5b505050506040513d601f19601f820116820180604052508101906111fe91906121fa565b611208919061221d565b61121390600a61231a565b8160a001511015611237576040516318c9522360e11b815260040160405180910390fd5b50565b60208201516040516303d1689d60e11b8152670de0b6b3a764000060048201526000916001600160a01b0316906307a2d13a90602401602060405180830381865afa15801561128d573d6000803e3d6000fd5b505050506040513d601f19601f820116820180604052508101906112b19190612151565b90505b92915050565b6112c26118c1565b81516001600160a01b03908116825260208084015182169083015260408084015182169083015260608084015190830152608083015160a08084019190915283015160c08084019190915283015160e08084019190915283015161010080840191909152830151610120808401919091528301518116610140808401919091528301518116610160808401919091528301511661018080830191909152909101516101a082015290565b341561138b57604051631574f9f360e01b815260040160405180910390fd5b565b60008082602001511561140357856001600160a01b031663c55dae636040518163ffffffff1660e01b8152600401602060405180830381865afa1580156113d8573d6000803e3d6000fd5b505050506040513d601f19601f820116820180604052508101906113fc91906120c3565b9050611468565b856001600160a01b0316630a4e14936040518163ffffffff1660e01b8152600401602060405180830381865afa158015611441573d6000803e3d6000fd5b505050506040513d601f19601f8201168201806040525081019061146591906120c3565b90505b61147d6001600160a01b0382168630876115af565b6114916001600160a01b038216878661161c565b50600095945050505050565b6103e8816080015110156114c4576040516349db44f560e01b815260040160405180910390fd5b8060e001516000036114e957604051635428734d60e01b815260040160405180910390fd5b8060e001518160c00151108061151157508060e001518160c0015161150e9190612329565b15155b1561152f5760405163253fffcf60e11b815260040160405180910390fd5b61018081015151670de0b6b3a7640000108061155b5750670de0b6b3a764000081610180015160200151115b806115765750670de0b6b3a764000081610180015160400151115b806115915750670de0b6b3a764000081610180015160600151115b15611237576040516322f72cc360e11b815260040160405180910390fd5b6040516001600160a01b0384811660248301528381166044830152606482018390526116169186918216906323b872dd906084015b604051602081830303815290604052915060e01b6020820180516001600160e01b0383818316178352505050506116a8565b50505050565b604080516001600160a01b038416602482015260448082018490528251808303909101815260649091019091526020810180516001600160e01b031663095ea7b360e01b17905261166d8482611715565b611616576040516001600160a01b038481166024830152600060448301526116a291869182169063095ea7b3906064016115e4565b61161684825b60006116bd6001600160a01b038416836117b8565b905080516000141580156116e25750808060200190518101906116e0919061234b565b155b1561171057604051635274afe760e01b81526001600160a01b03841660048201526024015b60405180910390fd5b505050565b6000806000846001600160a01b0316846040516117329190612368565b6000604051808303816000865af19150503d806000811461176f576040519150601f19603f3d011682016040523d82523d6000602084013e611774565b606091505b509150915081801561179e57508051158061179e57508080602001905181019061179e919061234b565b8015610b2b5750505050506001600160a01b03163b151590565b60606112b18383600084600080856001600160a01b031684866040516117de9190612368565b60006040518083038185875af1925050503d806000811461181b576040519150601f19603f3d011682016040523d82523d6000602084013e611820565b606091505b509150915061183086838361183c565b925050505b9392505050565b6060826118515761184c82611898565b611835565b815115801561186857506001600160a01b0384163b155b1561189157604051639996b31560e01b81526001600160a01b0385166004820152602401611707565b5080611835565b8051156118a85780518082602001fd5b604051630a12f52160e11b815260040160405180910390fd5b604051806101c0016040528060006001600160a01b0316815260200160006001600160a01b0316815260200160006001600160a01b031681526020016000801916815260200160008152602001600081526020016000815260200160008152602001600081526020016000815260200160006001600160a01b0316815260200160006001600160a01b0316815260200160006001600160a01b0316815260200161198c6040518060800160405280600081526020016000815260200160008152602001600081525090565b905290565b60005b838110156119ac578181015183820152602001611994565b50506000910152565b600081518084526119cd816020860160208601611991565b601f01601f19169290920160200192915050565b6020815260006112b160208301846119b5565b634e487b7160e01b600052604160045260246000fd5b6040516101a0810167ffffffffffffffff81118282101715611a2e57611a2e6119f4565b60405290565b6040516060810167ffffffffffffffff81118282101715611a2e57611a2e6119f4565b6001600160a01b038116811461123757600080fd5b8035611a7781611a57565b919050565b600060808284031215611a8e57600080fd5b6040516080810181811067ffffffffffffffff82111715611ab157611ab16119f4565b8060405250809150823581526020830135602082015260408301356040820152606083013560608201525092915050565b60006102008284031215611af557600080fd5b611afd611a0a565b9050611b0882611a6c565b8152611b1660208301611a6c565b6020820152611b2760408301611a6c565b6040820152606082013560608201526080820135608082015260a082013560a082015260c082013560c082015260e082013560e0820152610100808301358183015250610120611b78818401611a6c565b90820152610140611b8a838201611a6c565b90820152610160611b9c838201611a6c565b90820152610180611baf84848301611a7c565b9082015292915050565b600082601f830112611bca57600080fd5b813567ffffffffffffffff80821115611be557611be56119f4565b604051601f8301601f19908116603f01168101908282118183101715611c0d57611c0d6119f4565b81604052838152866020858801011115611c2657600080fd5b836020870160208301376000602085830101528094505050505092915050565b60008060008060006102808688031215611c5f57600080fd5b85359450611c708760208801611ae2565b935061022086013567ffffffffffffffff811115611c8d57600080fd5b611c9988828901611bb9565b95989497509495610240810135955061026001359392505050565b801515811461123757600080fd5b600080600080600060a08688031215611cda57600080fd5b853594506020860135611cec81611a57565b93506040860135925060608601359150608086013567ffffffffffffffff80821115611d1757600080fd5b908701906060828a031215611d2b57600080fd5b611d33611a34565b8235611d3e81611a57565b81526020830135611d4e81611cb4565b6020820152604083013582811115611d6557600080fd5b611d718b828601611bb9565b6040830152508093505050509295509295909350565b6000806000806102608587031215611d9e57600080fd5b84359350611daf8660208701611ae2565b925061022085013567ffffffffffffffff811115611dcc57600080fd5b611dd887828801611bb9565b94979396509394610240013593505050565b600060208284031215611dfc57600080fd5b5035919050565b8151815260208083015190820152604080830151908201526060808301516001600160a01b039081169183019190915260808084015182169083015260a08084015182169083015260c08084015182169083015260e08084015182169083015261010080840151918216818401526101208301915b505092915050565b81516001600160a01b0316815261020081016020830151611eac60208401826001600160a01b03169052565b506040830151611ec760408401826001600160a01b03169052565b50606083015160608301526080830151608083015260a083015160a083015260c083015160c083015260e083015160e083015261010080840151818401525061012080840151611f21828501826001600160a01b03169052565b5050610140838101516001600160a01b038116848301525050610160838101516001600160a01b0381168483015250506101808381015180518483015260208101516101a085015260408101516101c085015260608101516101e0850152611e78565b80516001600160a01b031682526020810151611fab60208401826001600160a01b03169052565b506040810151611fc660408401826001600160a01b03169052565b50606081015160608301526080810151608083015260a081015160a083015260c081015160c083015260e081015160e08301526101008082015181840152506101208082015181840152506101408082015161202c828501826001600160a01b03169052565b5050610160818101516001600160a01b038116848301525050610180818101516001600160a01b0381168483015250506101a08181015180518483015260208101516101c085015260408101516101e08501526060810151610200850152611616565b600061026061209e8387611f84565b806102208401526120b1818401866119b5565b91505082610240830152949350505050565b6000602082840312156120d557600080fd5b815161183581611a57565b6001600160a01b039390931683526020830191909152604082015260600190565b8381528260208201526060604082015260018060a01b03825116606082015260208201511515608082015260006040830151606060a084015261214760c08401826119b5565b9695505050505050565b60006020828403121561216357600080fd5b5051919050565b634e487b7160e01b600052601160045260246000fd5b818103818111156112b4576112b461216a565b60006103006121a2838c611f84565b806102208401526121b58184018b6119b5565b6001600160a01b03998a1661024085015297891661026084015250509386166102808501529185166102a08401529093166102c08201526102e0019190915292915050565b60006020828403121561220c57600080fd5b815160ff8116811461183557600080fd5b60ff82811682821603908111156112b4576112b461216a565b600181815b808511156122715781600019048211156122575761225761216a565b8085161561226457918102915b93841c939080029061223b565b509250929050565b600082612288575060016112b4565b81612295575060006112b4565b81600181146122ab57600281146122b5576122d1565b60019150506112b4565b60ff8411156122c6576122c661216a565b50506001821b6112b4565b5060208310610133831016604e8410600b84101617156122f4575081810a6112b4565b6122fe8383612236565b80600019048211156123125761231261216a565b029392505050565b60006112b160ff841683612279565b60008261234657634e487b7160e01b600052601260045260246000fd5b500690565b60006020828403121561235d57600080fd5b815161183581611cb4565b6000825161237a818460208701611991565b919091019291505056fe45524334363236487970657264726976654465706c6f796572436f6f7264696e61746f72a26469706673582212208a7d5175ef7b02442f87f3b9a50c78091bb2f2a64665659ad10d3fb4a17bbf1b64736f6c63430008140033","linkReferences":{}},"methodIdentifiers":{"coreDeployer()":"c83e1f51","deploy(bytes32,(address,address,address,bytes32,uint256,uint256,uint256,uint256,uint256,address,address,address,(uint256,uint256,uint256,uint256)),bytes,bytes32)":"1ae6f515","deployTarget(bytes32,(address,address,address,bytes32,uint256,uint256,uint256,uint256,uint256,address,address,address,(uint256,uint256,uint256,uint256)),bytes,uint256,bytes32)":"0b3c4f86","deployments(bytes32)":"37404017","factory()":"c45a0155","initialize(bytes32,address,uint256,uint256,(address,bool,bytes))":"16abfc70","name()":"06fdde03","target0Deployer()":"ab71905f","target1Deployer()":"a085fa30","target2Deployer()":"b6cb1118","target3Deployer()":"aa8cd6c4","target4Deployer()":"966ecd1c","version()":"54fd4d50"},"id":2}