{"abi":[{"type":"constructor","inputs":[{"name":"_name","type":"string","internalType":"string"},{"name":"_factory","type":"address","internalType":"address"},{"name":"_coreDeployer","type":"address","internalType":"address"},{"name":"_target0Deployer","type":"address","internalType":"address"},{"name":"_target1Deployer","type":"address","internalType":"address"},{"name":"_target2Deployer","type":"address","internalType":"address"},{"name":"_target3Deployer","type":"address","internalType":"address"}],"stateMutability":"nonpayable"},{"type":"function","name":"coreDeployer","inputs":[],"outputs":[{"name":"","type":"address","internalType":"address"}],"stateMutability":"view"},{"type":"function","name":"deployHyperdrive","inputs":[{"name":"_deploymentId","type":"bytes32","internalType":"bytes32"},{"name":"__name","type":"string","internalType":"string"},{"name":"_deployConfig","type":"tuple","internalType":"struct IHyperdrive.PoolDeployConfig","components":[{"name":"baseToken","type":"address","internalType":"contract IERC20"},{"name":"vaultSharesToken","type":"address","internalType":"contract IERC20"},{"name":"linkerFactory","type":"address","internalType":"address"},{"name":"linkerCodeHash","type":"bytes32","internalType":"bytes32"},{"name":"minimumShareReserves","type":"uint256","internalType":"uint256"},{"name":"minimumTransactionAmount","type":"uint256","internalType":"uint256"},{"name":"circuitBreakerDelta","type":"uint256","internalType":"uint256"},{"name":"positionDuration","type":"uint256","internalType":"uint256"},{"name":"checkpointDuration","type":"uint256","internalType":"uint256"},{"name":"timeStretch","type":"uint256","internalType":"uint256"},{"name":"governance","type":"address","internalType":"address"},{"name":"feeCollector","type":"address","internalType":"address"},{"name":"sweepCollector","type":"address","internalType":"address"},{"name":"checkpointRewarder","type":"address","internalType":"address"},{"name":"fees","type":"tuple","internalType":"struct IHyperdrive.Fees","components":[{"name":"curve","type":"uint256","internalType":"uint256"},{"name":"flat","type":"uint256","internalType":"uint256"},{"name":"governanceLP","type":"uint256","internalType":"uint256"},{"name":"governanceZombie","type":"uint256","internalType":"uint256"}]}]},{"name":"_extraData","type":"bytes","internalType":"bytes"},{"name":"_salt","type":"bytes32","internalType":"bytes32"}],"outputs":[{"name":"","type":"address","internalType":"address"}],"stateMutability":"nonpayable"},{"type":"function","name":"deployTarget","inputs":[{"name":"_deploymentId","type":"bytes32","internalType":"bytes32"},{"name":"_deployConfig","type":"tuple","internalType":"struct IHyperdrive.PoolDeployConfig","components":[{"name":"baseToken","type":"address","internalType":"contract IERC20"},{"name":"vaultSharesToken","type":"address","internalType":"contract IERC20"},{"name":"linkerFactory","type":"address","internalType":"address"},{"name":"linkerCodeHash","type":"bytes32","internalType":"bytes32"},{"name":"minimumShareReserves","type":"uint256","internalType":"uint256"},{"name":"minimumTransactionAmount","type":"uint256","internalType":"uint256"},{"name":"circuitBreakerDelta","type":"uint256","internalType":"uint256"},{"name":"positionDuration","type":"uint256","internalType":"uint256"},{"name":"checkpointDuration","type":"uint256","internalType":"uint256"},{"name":"timeStretch","type":"uint256","internalType":"uint256"},{"name":"governance","type":"address","internalType":"address"},{"name":"feeCollector","type":"address","internalType":"address"},{"name":"sweepCollector","type":"address","internalType":"address"},{"name":"checkpointRewarder","type":"address","internalType":"address"},{"name":"fees","type":"tuple","internalType":"struct IHyperdrive.Fees","components":[{"name":"curve","type":"uint256","internalType":"uint256"},{"name":"flat","type":"uint256","internalType":"uint256"},{"name":"governanceLP","type":"uint256","internalType":"uint256"},{"name":"governanceZombie","type":"uint256","internalType":"uint256"}]}]},{"name":"_extraData","type":"bytes","internalType":"bytes"},{"name":"_targetIndex","type":"uint256","internalType":"uint256"},{"name":"_salt","type":"bytes32","internalType":"bytes32"}],"outputs":[{"name":"target","type":"address","internalType":"address"}],"stateMutability":"nonpayable"},{"type":"function","name":"deployments","inputs":[{"name":"_deploymentId","type":"bytes32","internalType":"bytes32"}],"outputs":[{"name":"","type":"tuple","internalType":"struct HyperdriveDeployerCoordinator.Deployment","components":[{"name":"configHash","type":"bytes32","internalType":"bytes32"},{"name":"extraDataHash","type":"bytes32","internalType":"bytes32"},{"name":"initialSharePrice","type":"uint256","internalType":"uint256"},{"name":"hyperdrive","type":"address","internalType":"address"},{"name":"target0","type":"address","internalType":"address"},{"name":"target1","type":"address","internalType":"address"},{"name":"target2","type":"address","internalType":"address"},{"name":"target3","type":"address","internalType":"address"}]}],"stateMutability":"view"},{"type":"function","name":"factory","inputs":[],"outputs":[{"name":"","type":"address","internalType":"address"}],"stateMutability":"view"},{"type":"function","name":"getNumberOfTargets","inputs":[],"outputs":[{"name":"","type":"uint256","internalType":"uint256"}],"stateMutability":"pure"},{"type":"function","name":"initialize","inputs":[{"name":"_deploymentId","type":"bytes32","internalType":"bytes32"},{"name":"_lp","type":"address","internalType":"address"},{"name":"_contribution","type":"uint256","internalType":"uint256"},{"name":"_apr","type":"uint256","internalType":"uint256"},{"name":"_options","type":"tuple","internalType":"struct IHyperdrive.Options","components":[{"name":"destination","type":"address","internalType":"address"},{"name":"asBase","type":"bool","internalType":"bool"},{"name":"extraData","type":"bytes","internalType":"bytes"}]}],"outputs":[{"name":"lpShares","type":"uint256","internalType":"uint256"}],"stateMutability":"payable"},{"type":"function","name":"kind","inputs":[],"outputs":[{"name":"","type":"string","internalType":"string"}],"stateMutability":"view"},{"type":"function","name":"name","inputs":[],"outputs":[{"name":"","type":"string","internalType":"string"}],"stateMutability":"view"},{"type":"function","name":"target0Deployer","inputs":[],"outputs":[{"name":"","type":"address","internalType":"address"}],"stateMutability":"view"},{"type":"function","name":"target1Deployer","inputs":[],"outputs":[{"name":"","type":"address","internalType":"address"}],"stateMutability":"view"},{"type":"function","name":"target2Deployer","inputs":[],"outputs":[{"name":"","type":"address","internalType":"address"}],"stateMutability":"view"},{"type":"function","name":"target3Deployer","inputs":[],"outputs":[{"name":"","type":"address","internalType":"address"}],"stateMutability":"view"},{"type":"function","name":"version","inputs":[],"outputs":[{"name":"","type":"string","internalType":"string"}],"stateMutability":"pure"},{"type":"error","name":"AddressEmptyCode","inputs":[{"name":"target","type":"address","internalType":"address"}]},{"type":"error","name":"AddressInsufficientBalance","inputs":[{"name":"account","type":"address","internalType":"address"}]},{"type":"error","name":"DeploymentAlreadyExists","inputs":[]},{"type":"error","name":"DeploymentDoesNotExist","inputs":[]},{"type":"error","name":"FailedInnerCall","inputs":[]},{"type":"error","name":"HyperdriveAlreadyDeployed","inputs":[]},{"type":"error","name":"HyperdriveIsNotDeployed","inputs":[]},{"type":"error","name":"IncompleteDeployment","inputs":[]},{"type":"error","name":"InsufficientValue","inputs":[]},{"type":"error","name":"InvalidBaseToken","inputs":[]},{"type":"error","name":"InvalidCheckpointDuration","inputs":[]},{"type":"error","name":"InvalidFeeAmounts","inputs":[]},{"type":"error","name":"InvalidMinimumShareReserves","inputs":[]},{"type":"error","name":"InvalidMinimumTransactionAmount","inputs":[]},{"type":"error","name":"InvalidPositionDuration","inputs":[]},{"type":"error","name":"InvalidTargetIndex","inputs":[]},{"type":"error","name":"InvalidVaultSharesToken","inputs":[]},{"type":"error","name":"MismatchedConfig","inputs":[]},{"type":"error","name":"MismatchedExtraData","inputs":[]},{"type":"error","name":"NotPayable","inputs":[]},{"type":"error","name":"SafeERC20FailedOperation","inputs":[{"name":"token","type":"address","internalType":"address"}]},{"type":"error","name":"SenderIsNotFactory","inputs":[]},{"type":"error","name":"TargetAlreadyDeployed","inputs":[]},{"type":"error","name":"TransferFailed","inputs":[]}],"bytecode":{"object":"0x6101406040523480156200001257600080fd5b50604051620027ee380380620027ee8339810160408190526200003591620000b7565b8686868686868660006200004a88826200028b565b506001600160a01b0395861660805293851660a05291841660c052831660e052821661010052166101205250620003579650505050505050565b634e487b7160e01b600052604160045260246000fd5b80516001600160a01b0381168114620000b257600080fd5b919050565b600080600080600080600060e0888a031215620000d357600080fd5b87516001600160401b0380821115620000eb57600080fd5b818a0191508a601f8301126200010057600080fd5b81518181111562000115576200011562000084565b604051601f8201601f19908116603f0116810190838211818310171562000140576200014062000084565b81604052828152602093508d848487010111156200015d57600080fd5b600091505b8282101562000181578482018401518183018501529083019062000162565b6000848483010152809b505050506200019c818b016200009a565b97505050620001ae604089016200009a565b9450620001be606089016200009a565b9350620001ce608089016200009a565b9250620001de60a089016200009a565b9150620001ee60c089016200009a565b905092959891949750929550565b600181811c908216806200021157607f821691505b6020821081036200023257634e487b7160e01b600052602260045260246000fd5b50919050565b601f8211156200028657600081815260208120601f850160051c81016020861015620002615750805b601f850160051c820191505b8181101562000282578281556001016200026d565b5050505b505050565b81516001600160401b03811115620002a757620002a762000084565b620002bf81620002b88454620001fc565b8462000238565b602080601f831160018114620002f75760008415620002de5750858301515b600019600386901b1c1916600185901b17855562000282565b600085815260208120601f198616915b82811015620003285788860151825594840194600190910190840162000307565b5085821015620003475787850151600019600388901b60f8161c191681555b5050505050600190811b01905550565b60805160a05160c05160e051610100516101205161240f620003df6000396000818161031f0152610bd90152600081816103870152610abc0152600081816102d3015261099f015260008181610353015261079501526000818161040f0152610ed40152600081816103db0152818161051c015281816106ba0152610cc8015261240f6000f3fe6080604052600436106100dd5760003560e01c8063ab71905f1161007f578063c45a015511610059578063c45a0155146103c9578063c83e1f51146103fd578063e990eba814610431578063e99be3961461045157600080fd5b8063ab71905f14610341578063b6cb111814610375578063c1510618146103a957600080fd5b806337404017116100bb578063374040171461014357806354fd4d5014610291578063a085fa30146102c1578063aa8cd6c41461030d57600080fd5b806304baa00b146100e257806306fdde031461010d57806316abfc7014610122575b600080fd5b3480156100ee57600080fd5b506100f7610465565b60405161010491906119df565b60405180910390f35b34801561011957600080fd5b506100f7610481565b610135610130366004611b1e565b61050f565b604051908152602001610104565b34801561014f57600080fd5b5061022061015e366004611be3565b6040805161010081018252600080825260208201819052918101829052606081018290526080810182905260a0810182905260c0810182905260e08101919091525060009081526001602081815260409283902083516101008101855281548152928101549183019190915260028101549282019290925260038201546001600160a01b0390811660608301526004830154811660808301526005830154811660a08301526006830154811660c083015260079092015490911660e082015290565b60405161010491908151815260208083015190820152604080830151908201526060808301516001600160a01b039081169183019190915260808084015182169083015260a08084015182169083015260c08084015182169083015260e09283015116918101919091526101000190565b34801561029d57600080fd5b5060408051808201909152600781526676312e302e313360c81b60208201526100f7565b3480156102cd57600080fd5b506102f57f000000000000000000000000000000000000000000000000000000000000000081565b6040516001600160a01b039091168152602001610104565b34801561031957600080fd5b506102f57f000000000000000000000000000000000000000000000000000000000000000081565b34801561034d57600080fd5b506102f57f000000000000000000000000000000000000000000000000000000000000000081565b34801561038157600080fd5b506102f57f000000000000000000000000000000000000000000000000000000000000000081565b3480156103b557600080fd5b506102f56103c4366004611d57565b6106ad565b3480156103d557600080fd5b506102f57f000000000000000000000000000000000000000000000000000000000000000081565b34801561040957600080fd5b506102f57f000000000000000000000000000000000000000000000000000000000000000081565b34801561043d57600080fd5b506102f561044c366004611dc5565b610cbb565b34801561045d57600080fd5b506004610135565b6040518060600160405280602481526020016123b66024913981565b6000805461048e90611e66565b80601f01602080910402602001604051908101604052809291908181526020018280546104ba90611e66565b80156105075780601f106104dc57610100808354040283529160200191610507565b820191906000526020600020905b8154815290600101906020018083116104ea57829003601f168201915b505050505081565b6000336001600160a01b037f0000000000000000000000000000000000000000000000000000000000000000161461055a57604051634084351160e01b815260040160405180910390fd5b610562610fea565b6000868152600160205260409020600301546001600160a01b03168061059b5760405163952b05cb60e01b815260040160405180910390fd5b60006105a98288888761100b565b9050816001600160a01b03166377d05ff4828888886040518563ffffffff1660e01b81526004016105dc93929190611ea0565b60206040518083038185885af11580156105fa573d6000803e3d6000fd5b50505050506040513d601f19601f8201168201806040525081019061061f9190611ef0565b9250600061062d8234611f1f565b905080156106a057604051600090339083908381818185875af1925050503d8060008114610677576040519150601f19603f3d011682016040523d82523d6000602084013e61067c565b606091505b505090508061069e576040516312171d8360e31b815260040160405180910390fd5b505b5050505b95945050505050565b6000336001600160a01b037f000000000000000000000000000000000000000000000000000000000000000016146106f857604051634084351160e01b815260040160405180910390fd5b60008681526001602052604081209084900361088d5780541561072e57604051633be1b34d60e11b815260040160405180910390fd5b6107378661111b565b6000610743878761132f565b90506000876040516020016107589190611f32565b60405160208183030381529060405280519060200120905060008780519060200120905060006107878a6113af565b9050838160800181815250507f00000000000000000000000000000000000000000000000000000000000000006001600160a01b0316636b323707828b8e8b6040516020016107e0929190918252602082015260400190565b604051602081830303815290604052805190602001206040518463ffffffff1660e01b815260040161081493929190612168565b6020604051808303816000875af1158015610833573d6000803e3d6000fd5b505050506040513d601f19601f82011682018060405250810190610857919061219c565b9285555060018401556002830191909155600490910180546001600160a01b0319166001600160a01b03831617905590506106a4565b600087815260016020526040902054806108ba5760405163398b1c0960e21b815260040160405180910390fd5b80876040516020016108cc9190611f32565b60405160208183030381529060405280519060200120146109005760405163332ee11f60e01b815260040160405180910390fd5b6001820154865160208801201461092a57604051631a3272d160e31b815260040160405180910390fd5b6109338761111b565b600061093e886113af565b6002840154608082015290506001869003610a685760058301546001600160a01b03161561097e5760405162e896af60e31b815260040160405180910390fd5b604080513360208201529081018a9052606081018690526001600160a01b037f00000000000000000000000000000000000000000000000000000000000000001690636b3237079083908a90608001604051602081830303815290604052805190602001206040518463ffffffff1660e01b8152600401610a0193929190612168565b6020604051808303816000875af1158015610a20573d6000803e3d6000fd5b505050506040513d601f19601f82011682018060405250810190610a44919061219c565b6005840180546001600160a01b0319166001600160a01b03831617905593506106a0565b85600203610b855760068301546001600160a01b031615610a9b5760405162e896af60e31b815260040160405180910390fd5b604080513360208201529081018a9052606081018690526001600160a01b037f00000000000000000000000000000000000000000000000000000000000000001690636b3237079083908a90608001604051602081830303815290604052805190602001206040518463ffffffff1660e01b8152600401610b1e93929190612168565b6020604051808303816000875af1158015610b3d573d6000803e3d6000fd5b505050506040513d601f19601f82011682018060405250810190610b61919061219c565b6006840180546001600160a01b0319166001600160a01b03831617905593506106a0565b85600303610ca25760078301546001600160a01b031615610bb85760405162e896af60e31b815260040160405180910390fd5b604080513360208201529081018a9052606081018690526001600160a01b037f00000000000000000000000000000000000000000000000000000000000000001690636b3237079083908a90608001604051602081830303815290604052805190602001206040518463ffffffff1660e01b8152600401610c3b93929190612168565b6020604051808303816000875af1158015610c5a573d6000803e3d6000fd5b505050506040513d601f19601f82011682018060405250810190610c7e919061219c565b6007840180546001600160a01b0319166001600160a01b03831617905593506106a0565b604051631d9f815960e11b815260040160405180910390fd5b6000336001600160a01b037f00000000000000000000000000000000000000000000000000000000000000001614610d0657604051634084351160e01b815260040160405180910390fd5b60008681526001602081815260409283902083516101008101855281548152928101549183019190915260028101549282019290925260038201546001600160a01b03908116606083018190526004840154821660808401526005840154821660a08401526006840154821660c08401526007909301541660e08201529015610da257604051632c95caeb60e01b815260040160405180910390fd5b8051610dc15760405163398b1c0960e21b815260040160405180910390fd5b60808101516001600160a01b03161580610de6575060a08101516001600160a01b0316155b80610dfc575060c08101516001600160a01b0316155b80610e12575060e08101516001600160a01b0316155b15610e305760405163e97cc2bf60e01b815260040160405180910390fd5b8051604051610e43908790602001611f32565b6040516020818303038152906040528051906020012014610e775760405163332ee11f60e01b815260040160405180910390fd5b8060200151848051906020012014610ea257604051631a3272d160e31b815260040160405180910390fd5b610eab8561111b565b6000610eb6866113af565b905081604001518160800181815250506000889050600085905060007f00000000000000000000000000000000000000000000000000000000000000006001600160a01b0316636a4625798b868b89608001518a60a001518b60c001518c60e001518b8b604051602001610f34929190918252602082015260400190565b604051602081830303815290604052805190602001206040518963ffffffff1660e01b8152600401610f6d9897969594939291906121b9565b6020604051808303816000875af1158015610f8c573d6000803e3d6000fd5b505050506040513d601f19601f82011682018060405250810190610fb0919061219c565b60009b8c5260016020526040909b2060030180546001600160a01b0319166001600160a01b038d1617905550989998505050505050505050565b341561100957604051631574f9f360e01b815260040160405180910390fd5b565b60008082602001511561108157856001600160a01b031663c55dae636040518163ffffffff1660e01b8152600401602060405180830381865afa158015611056573d6000803e3d6000fd5b505050506040513d601f19601f8201168201806040525081019061107a919061219c565b90506110e6565b856001600160a01b0316630a4e14936040518163ffffffff1660e01b8152600401602060405180830381865afa1580156110bf573d6000803e3d6000fd5b505050506040513d601f19601f820116820180604052508101906110e3919061219c565b90505b6110fb6001600160a01b03821686308761147d565b61110f6001600160a01b03821687866114ea565b50600095945050505050565b6111248161157a565b60208101516001600160a01b031661114f5760405163073f739d60e51b815260040160405180910390fd5b80602001516001600160a01b03166338d52e0f6040518163ffffffff1660e01b8152600401602060405180830381865afa158015611191573d6000803e3d6000fd5b505050506040513d601f19601f820116820180604052508101906111b5919061219c565b6001600160a01b031681600001516001600160a01b0316146111ea57604051630722152560e11b815260040160405180910390fd5b600481600001516001600160a01b031663313ce5676040518163ffffffff1660e01b8152600401602060405180830381865afa15801561122e573d6000803e3d6000fd5b505050506040513d601f19601f82011682018060405250810190611252919061222b565b61125c919061224e565b61126790600a61234b565b8160800151101561128b576040516349db44f560e01b815260040160405180910390fd5b600481600001516001600160a01b031663313ce5676040518163ffffffff1660e01b8152600401602060405180830381865afa1580156112cf573d6000803e3d6000fd5b505050506040513d601f19601f820116820180604052508101906112f3919061222b565b6112fd919061224e565b61130890600a61234b565b8160a00151101561132c576040516318c9522360e11b815260040160405180910390fd5b50565b60208201516040516303d1689d60e11b8152670de0b6b3a764000060048201526000916001600160a01b0316906307a2d13a90602401602060405180830381865afa158015611382573d6000803e3d6000fd5b505050506040513d601f19601f820116820180604052508101906113a69190611ef0565b90505b92915050565b6113b76118a8565b81516001600160a01b03908116825260208084015182169083015260408084015182169083015260608084015190830152608083015160a08084019190915283015160c08084019190915283015160e08084019190915283015161010080840191909152830151610120808401919091528301516101408084019190915283015181166101608084019190915283015181166101808084019190915283015181166101a080840191909152830151166101c080830191909152909101516101e082015290565b6040516001600160a01b0384811660248301528381166044830152606482018390526114e49186918216906323b872dd906084015b604051602081830303815290604052915060e01b6020820180516001600160e01b03838183161783525050505061168f565b50505050565b604080516001600160a01b038416602482015260448082018490528251808303909101815260649091019091526020810180516001600160e01b031663095ea7b360e01b17905261153b84826116fc565b6114e4576040516001600160a01b0384811660248301526000604483015261157091869182169063095ea7b3906064016114b2565b6114e4848261168f565b6103e8816080015110156115a1576040516349db44f560e01b815260040160405180910390fd5b8061010001516000036115c757604051635428734d60e01b815260040160405180910390fd5b8061010001518160e0015110806115f157508061010001518160e001516115ee919061235a565b15155b1561160f5760405163253fffcf60e11b815260040160405180910390fd5b6101c081015151670de0b6b3a7640000108061163b5750670de0b6b3a7640000816101c0015160200151115b806116565750670de0b6b3a7640000816101c0015160400151115b806116715750670de0b6b3a7640000816101c0015160600151115b1561132c576040516322f72cc360e11b815260040160405180910390fd5b60006116a46001600160a01b0384168361179f565b905080516000141580156116c95750808060200190518101906116c7919061237c565b155b156116f757604051635274afe760e01b81526001600160a01b03841660048201526024015b60405180910390fd5b505050565b6000806000846001600160a01b0316846040516117199190612399565b6000604051808303816000865af19150503d8060008114611756576040519150601f19603f3d011682016040523d82523d6000602084013e61175b565b606091505b5091509150818015611785575080511580611785575080806020019051810190611785919061237c565b80156106a45750505050506001600160a01b03163b151590565b60606113a68383600084600080856001600160a01b031684866040516117c59190612399565b60006040518083038185875af1925050503d8060008114611802576040519150601f19603f3d011682016040523d82523d6000602084013e611807565b606091505b5091509150611817868383611823565b925050505b9392505050565b606082611838576118338261187f565b61181c565b815115801561184f57506001600160a01b0384163b155b1561187857604051639996b31560e01b81526001600160a01b03851660048201526024016116ee565b508061181c565b80511561188f5780518082602001fd5b604051630a12f52160e11b815260040160405180910390fd5b60405180610200016040528060006001600160a01b0316815260200160006001600160a01b0316815260200160006001600160a01b03168152602001600080191681526020016000815260200160008152602001600081526020016000815260200160008152602001600081526020016000815260200160006001600160a01b0316815260200160006001600160a01b0316815260200160006001600160a01b0316815260200160006001600160a01b0316815260200161198a6040518060800160405280600081526020016000815260200160008152602001600081525090565b905290565b60005b838110156119aa578181015183820152602001611992565b50506000910152565b600081518084526119cb81602086016020860161198f565b601f01601f19169290920160200192915050565b6020815260006113a660208301846119b3565b6001600160a01b038116811461132c57600080fd5b8035611a12816119f2565b919050565b634e487b7160e01b600052604160045260246000fd5b6040516060810167ffffffffffffffff81118282101715611a5057611a50611a17565b60405290565b6040516101e0810167ffffffffffffffff81118282101715611a5057611a50611a17565b801515811461132c57600080fd5b600067ffffffffffffffff80841115611aa357611aa3611a17565b604051601f8501601f19908116603f01168101908282118183101715611acb57611acb611a17565b81604052809350858152868686011115611ae457600080fd5b858560208301376000602087830101525050509392505050565b600082601f830112611b0f57600080fd5b6113a683833560208501611a88565b600080600080600060a08688031215611b3657600080fd5b853594506020860135611b48816119f2565b93506040860135925060608601359150608086013567ffffffffffffffff80821115611b7357600080fd5b908701906060828a031215611b8757600080fd5b611b8f611a2d565b8235611b9a816119f2565b81526020830135611baa81611a7a565b6020820152604083013582811115611bc157600080fd5b611bcd8b828601611afe565b6040830152508093505050509295509295909350565b600060208284031215611bf557600080fd5b5035919050565b600060808284031215611c0e57600080fd5b6040516080810181811067ffffffffffffffff82111715611c3157611c31611a17565b8060405250809150823581526020830135602082015260408301356040820152606083013560608201525092915050565b60006102408284031215611c7557600080fd5b611c7d611a56565b9050611c8882611a07565b8152611c9660208301611a07565b6020820152611ca760408301611a07565b6040820152606082013560608201526080820135608082015260a082013560a082015260c082013560c082015260e082013560e0820152610100808301358183015250610120808301358183015250610140611d04818401611a07565b90820152610160611d16838201611a07565b90820152610180611d28838201611a07565b908201526101a0611d3a838201611a07565b908201526101c0611d4d84848301611bfc565b9082015292915050565b60008060008060006102c08688031215611d7057600080fd5b85359450611d818760208801611c62565b935061026086013567ffffffffffffffff811115611d9e57600080fd5b611daa88828901611afe565b9598949750949561028081013595506102a001359392505050565b60008060008060006102c08688031215611dde57600080fd5b85359450602086013567ffffffffffffffff80821115611dfd57600080fd5b818801915088601f830112611e1157600080fd5b611e2089833560208501611a88565b9550611e2f8960408a01611c62565b9450610280880135915080821115611e4657600080fd5b50611e5388828901611afe565b959894975092956102a001359392505050565b600181811c90821680611e7a57607f821691505b602082108103611e9a57634e487b7160e01b600052602260045260246000fd5b50919050565b8381528260208201526060604082015260018060a01b03825116606082015260208201511515608082015260006040830151606060a0840152611ee660c08401826119b3565b9695505050505050565b600060208284031215611f0257600080fd5b5051919050565b634e487b7160e01b600052601160045260246000fd5b818103818111156113a9576113a9611f09565b81516001600160a01b0316815261024081016020830151611f5e60208401826001600160a01b03169052565b506040830151611f7960408401826001600160a01b03169052565b50606083015160608301526080830151608083015260a083015160a083015260c083015160c083015260e083015160e083015261010080840151818401525061012080840151818401525061014080840151611fdf828501826001600160a01b03169052565b5050610160838101516001600160a01b0390811691840191909152610180808501518216908401526101a080850151909116908301526101c09283015180519383019390935260208301516101e083015260408301516102008301526060909201516102209091015290565b80516001600160a01b03168252602081015161207260208401826001600160a01b03169052565b50604081015161208d60408401826001600160a01b03169052565b50606081015160608301526080810151608083015260a081015160a083015260c081015160c083015260e081015160e0830152610100808201518184015250610120808201518184015250610140808201518184015250610160808201516120ff828501826001600160a01b03169052565b5050610180818101516001600160a01b03908116918401919091526101a0808301518216908401526101c080830151909116908301526101e0808201518051828501526020810151610200850152604081015161022085015260608101516102408501526114e4565b60006102a0612177838761204b565b8061026084015261218a818401866119b3565b91505082610280830152949350505050565b6000602082840312156121ae57600080fd5b815161181c816119f2565b60006103408083526121cd8184018c6119b3565b90506121dc602084018b61204b565b8281036102808401526121ef818a6119b3565b6001600160a01b039889166102a08501529688166102c084015250509285166102e0840152931661030082015261032001919091529392505050565b60006020828403121561223d57600080fd5b815160ff8116811461181c57600080fd5b60ff82811682821603908111156113a9576113a9611f09565b600181815b808511156122a257816000190482111561228857612288611f09565b8085161561229557918102915b93841c939080029061226c565b509250929050565b6000826122b9575060016113a9565b816122c6575060006113a9565b81600181146122dc57600281146122e657612302565b60019150506113a9565b60ff8411156122f7576122f7611f09565b50506001821b6113a9565b5060208310610133831016604e8410600b8410161715612325575081810a6113a9565b61232f8383612267565b806000190482111561234357612343611f09565b029392505050565b60006113a660ff8416836122aa565b60008261237757634e487b7160e01b600052601260045260246000fd5b500690565b60006020828403121561238e57600080fd5b815161181c81611a7a565b600082516123ab81846020870161198f565b919091019291505056fe45524334363236487970657264726976654465706c6f796572436f6f7264696e61746f72a26469706673582212201a478fb0a93ebd8831e10e7dffe10ad0b1bc92d16e134582ade5ad45392a78f864736f6c63430008140033","linkReferences":{}},"methodIdentifiers":{"coreDeployer()":"c83e1f51","deployHyperdrive(bytes32,string,(address,address,address,bytes32,uint256,uint256,uint256,uint256,uint256,uint256,address,address,address,address,(uint256,uint256,uint256,uint256)),bytes,bytes32)":"e990eba8","deployTarget(bytes32,(address,address,address,bytes32,uint256,uint256,uint256,uint256,uint256,uint256,address,address,address,address,(uint256,uint256,uint256,uint256)),bytes,uint256,bytes32)":"c1510618","deployments(bytes32)":"37404017","factory()":"c45a0155","getNumberOfTargets()":"e99be396","initialize(bytes32,address,uint256,uint256,(address,bool,bytes))":"16abfc70","kind()":"04baa00b","name()":"06fdde03","target0Deployer()":"ab71905f","target1Deployer()":"a085fa30","target2Deployer()":"b6cb1118","target3Deployer()":"aa8cd6c4","version()":"54fd4d50"},"id":2}