{"abi":[{"type":"constructor","inputs":[{"name":"_coreDeployer","type":"address","internalType":"address"},{"name":"_target0Deployer","type":"address","internalType":"address"},{"name":"_target1Deployer","type":"address","internalType":"address"},{"name":"_target2Deployer","type":"address","internalType":"address"},{"name":"_target3Deployer","type":"address","internalType":"address"}],"stateMutability":"nonpayable"},{"type":"function","name":"coreDeployer","inputs":[],"outputs":[{"name":"","type":"address","internalType":"address"}],"stateMutability":"view"},{"type":"function","name":"deploy","inputs":[{"name":"_deployConfig","type":"tuple","internalType":"struct IHyperdrive.PoolDeployConfig","components":[{"name":"baseToken","type":"address","internalType":"contract IERC20"},{"name":"linkerFactory","type":"address","internalType":"address"},{"name":"linkerCodeHash","type":"bytes32","internalType":"bytes32"},{"name":"minimumShareReserves","type":"uint256","internalType":"uint256"},{"name":"minimumTransactionAmount","type":"uint256","internalType":"uint256"},{"name":"positionDuration","type":"uint256","internalType":"uint256"},{"name":"checkpointDuration","type":"uint256","internalType":"uint256"},{"name":"timeStretch","type":"uint256","internalType":"uint256"},{"name":"governance","type":"address","internalType":"address"},{"name":"feeCollector","type":"address","internalType":"address"},{"name":"fees","type":"tuple","internalType":"struct IHyperdrive.Fees","components":[{"name":"curve","type":"uint256","internalType":"uint256"},{"name":"flat","type":"uint256","internalType":"uint256"},{"name":"governanceLP","type":"uint256","internalType":"uint256"},{"name":"governanceZombie","type":"uint256","internalType":"uint256"}]}]},{"name":"_extraData","type":"bytes","internalType":"bytes"}],"outputs":[{"name":"","type":"address","internalType":"address"}],"stateMutability":"nonpayable"},{"type":"function","name":"target0Deployer","inputs":[],"outputs":[{"name":"","type":"address","internalType":"address"}],"stateMutability":"view"},{"type":"function","name":"target1Deployer","inputs":[],"outputs":[{"name":"","type":"address","internalType":"address"}],"stateMutability":"view"},{"type":"function","name":"target2Deployer","inputs":[],"outputs":[{"name":"","type":"address","internalType":"address"}],"stateMutability":"view"},{"type":"function","name":"target3Deployer","inputs":[],"outputs":[{"name":"","type":"address","internalType":"address"}],"stateMutability":"view"}],"bytecode":{"object":"0x61012060405234801561001157600080fd5b50604051610bda380380610bda83398101604081905261003091610075565b6001600160a01b0394851660805292841660a05290831660c052821660e05216610100526100da565b80516001600160a01b038116811461007057600080fd5b919050565b600080600080600060a0868803121561008d57600080fd5b61009686610059565b94506100a460208701610059565b93506100b260408701610059565b92506100c060608701610059565b91506100ce60808701610059565b90509295509295909350565b60805160a05160c05160e05161010051610a9c61013e6000396000818160c2015261033901526000818161011001526102a4015260008181609b015261020f01526000818160e9015261018f01526000818161013701526103e20152610a9c6000f3fe608060405234801561001057600080fd5b50600436106100625760003560e01c8063188d212e14610067578063a085fa3014610096578063aa8cd6c4146100bd578063ab71905f146100e4578063b6cb11181461010b578063c83e1f5114610132575b600080fd5b61007a6100753660046107a2565b610159565b6040516001600160a01b03909116815260200160405180910390f35b61007a7f000000000000000000000000000000000000000000000000000000000000000081565b61007a7f000000000000000000000000000000000000000000000000000000000000000081565b61007a7f000000000000000000000000000000000000000000000000000000000000000081565b61007a7f000000000000000000000000000000000000000000000000000000000000000081565b61007a7f000000000000000000000000000000000000000000000000000000000000000081565b60008061016584610470565b905061017083610506565b6060820152604051635fd69b0560e01b81526000906001600160a01b037f00000000000000000000000000000000000000000000000000000000000000001690635fd69b05906101c690859088906004016109ab565b6020604051808303816000875af11580156101e5573d6000803e3d6000fd5b505050506040513d601f19601f8201168201806040525081019061020991906109d6565b905060007f00000000000000000000000000000000000000000000000000000000000000006001600160a01b0316635fd69b0584876040518363ffffffff1660e01b815260040161025b9291906109ab565b6020604051808303816000875af115801561027a573d6000803e3d6000fd5b505050506040513d601f19601f8201168201806040525081019061029e91906109d6565b905060007f00000000000000000000000000000000000000000000000000000000000000006001600160a01b0316635fd69b0585886040518363ffffffff1660e01b81526004016102f09291906109ab565b6020604051808303816000875af115801561030f573d6000803e3d6000fd5b505050506040513d601f19601f8201168201806040525081019061033391906109d6565b905060007f00000000000000000000000000000000000000000000000000000000000000006001600160a01b0316635fd69b0586896040518363ffffffff1660e01b81526004016103859291906109ab565b6020604051808303816000875af11580156103a4573d6000803e3d6000fd5b505050506040513d601f19601f820116820180604052508101906103c891906109d6565b604051633e25054360e01b81529091506001600160a01b037f00000000000000000000000000000000000000000000000000000000000000001690633e250543906104219088908b9089908990899089906004016109f3565b6020604051808303816000875af1158015610440573d6000803e3d6000fd5b505050506040513d601f19601f8201168201806040525081019061046491906109d6565b98975050505050505050565b610478610597565b81516001600160a01b03908116825260208084015182169083015260408084015190830152606083015160808084019190915283015160a08084019190915283015160c08084019190915283015160e0808401919091528301516101008084019190915283015181166101208084019190915283015116610140808301919091529091015161016082015290565b6000808280602001905181019061051d91906109d6565b6040516303d1689d60e11b8152670de0b6b3a764000060048201529091506001600160a01b038216906307a2d13a90602401602060405180830381865afa15801561056c573d6000803e3d6000fd5b505050506040513d601f19601f820116820180604052508101906105909190610a4d565b9392505050565b60405180610180016040528060006001600160a01b0316815260200160006001600160a01b031681526020016000801916815260200160008152602001600081526020016000815260200160008152602001600081526020016000815260200160006001600160a01b0316815260200160006001600160a01b031681526020016106426040518060800160405280600081526020016000815260200160008152602001600081525090565b905290565b634e487b7160e01b600052604160045260246000fd5b604051610160810167ffffffffffffffff8111828210171561068157610681610647565b60405290565b6001600160a01b038116811461069c57600080fd5b50565b80356106aa81610687565b919050565b6000608082840312156106c157600080fd5b6040516080810181811067ffffffffffffffff821117156106e4576106e4610647565b8060405250809150823581526020830135602082015260408301356040820152606083013560608201525092915050565b600082601f83011261072657600080fd5b813567ffffffffffffffff8082111561074157610741610647565b604051601f8301601f19908116603f0116810190828211818310171561076957610769610647565b8160405283815286602085880101111561078257600080fd5b836020870160208301376000602085830101528094505050505092915050565b6000808284036101e08112156107b757600080fd5b6101c0808212156107c757600080fd5b6107cf61065d565b91506107da8561069f565b82526107e86020860161069f565b602083015260408501356040830152606085013560608301526080850135608083015260a085013560a083015260c085013560c083015260e085013560e083015261010061083781870161069f565b9083015261012061084986820161069f565b9083015261014061085c878783016106af565b9083015290925083013567ffffffffffffffff81111561087b57600080fd5b61088785828601610715565b9150509250929050565b80516001600160a01b0316825260208101516108b860208401826001600160a01b03169052565b5060408101516040830152606081015160608301526080810151608083015260a081015160a083015260c081015160c083015260e081015160e08301526101008082015181840152506101208082015161091c828501826001600160a01b03169052565b5050610140818101516001600160a01b03169083015261016090810151805191830191909152602081015161018083015260408101516101a0830152606001516101c090910152565b6000815180845260005b8181101561098b5760208185018101518683018201520161096f565b506000602082860101526020601f19601f83011685010191505092915050565b60006102006109ba8386610891565b806101e08401526109cd81840185610965565b95945050505050565b6000602082840312156109e857600080fd5b815161059081610687565b6000610280610a02838a610891565b806101e0840152610a1581840189610965565b6001600160a01b0397881661020085015295871661022084015250509184166102408301529092166102609092019190915292915050565b600060208284031215610a5f57600080fd5b505191905056fea2646970667358221220ef30a0dfae9da3a00242ed90e0d3102893a45480e90f8059011b432631bba58864736f6c63430008130033","linkReferences":{}},"methodIdentifiers":{"coreDeployer()":"c83e1f51","deploy((address,address,bytes32,uint256,uint256,uint256,uint256,uint256,address,address,(uint256,uint256,uint256,uint256)),bytes)":"188d212e","target0Deployer()":"ab71905f","target1Deployer()":"a085fa30","target2Deployer()":"b6cb1118","target3Deployer()":"aa8cd6c4"},"id":2}