{"abi":[{"type":"constructor","inputs":[{"name":"_coreDeployer","type":"address","internalType":"address"},{"name":"_target0Deployer","type":"address","internalType":"address"},{"name":"_target1Deployer","type":"address","internalType":"address"},{"name":"_target2Deployer","type":"address","internalType":"address"},{"name":"_target3Deployer","type":"address","internalType":"address"},{"name":"_target4Deployer","type":"address","internalType":"address"}],"stateMutability":"nonpayable"},{"type":"function","name":"coreDeployer","inputs":[],"outputs":[{"name":"","type":"address","internalType":"address"}],"stateMutability":"view"},{"type":"function","name":"deploy","inputs":[{"name":"_deploymentId","type":"bytes32","internalType":"bytes32"},{"name":"_deployConfig","type":"tuple","internalType":"struct IHyperdrive.PoolDeployConfig","components":[{"name":"baseToken","type":"address","internalType":"contract IERC20"},{"name":"linkerFactory","type":"address","internalType":"address"},{"name":"linkerCodeHash","type":"bytes32","internalType":"bytes32"},{"name":"minimumShareReserves","type":"uint256","internalType":"uint256"},{"name":"minimumTransactionAmount","type":"uint256","internalType":"uint256"},{"name":"positionDuration","type":"uint256","internalType":"uint256"},{"name":"checkpointDuration","type":"uint256","internalType":"uint256"},{"name":"timeStretch","type":"uint256","internalType":"uint256"},{"name":"governance","type":"address","internalType":"address"},{"name":"feeCollector","type":"address","internalType":"address"},{"name":"sweepCollector","type":"address","internalType":"address"},{"name":"fees","type":"tuple","internalType":"struct IHyperdrive.Fees","components":[{"name":"curve","type":"uint256","internalType":"uint256"},{"name":"flat","type":"uint256","internalType":"uint256"},{"name":"governanceLP","type":"uint256","internalType":"uint256"},{"name":"governanceZombie","type":"uint256","internalType":"uint256"}]}]},{"name":"_extraData","type":"bytes","internalType":"bytes"},{"name":"_salt","type":"bytes32","internalType":"bytes32"}],"outputs":[{"name":"","type":"address","internalType":"address"}],"stateMutability":"nonpayable"},{"type":"function","name":"deployTarget","inputs":[{"name":"_deploymentId","type":"bytes32","internalType":"bytes32"},{"name":"_deployConfig","type":"tuple","internalType":"struct IHyperdrive.PoolDeployConfig","components":[{"name":"baseToken","type":"address","internalType":"contract IERC20"},{"name":"linkerFactory","type":"address","internalType":"address"},{"name":"linkerCodeHash","type":"bytes32","internalType":"bytes32"},{"name":"minimumShareReserves","type":"uint256","internalType":"uint256"},{"name":"minimumTransactionAmount","type":"uint256","internalType":"uint256"},{"name":"positionDuration","type":"uint256","internalType":"uint256"},{"name":"checkpointDuration","type":"uint256","internalType":"uint256"},{"name":"timeStretch","type":"uint256","internalType":"uint256"},{"name":"governance","type":"address","internalType":"address"},{"name":"feeCollector","type":"address","internalType":"address"},{"name":"sweepCollector","type":"address","internalType":"address"},{"name":"fees","type":"tuple","internalType":"struct IHyperdrive.Fees","components":[{"name":"curve","type":"uint256","internalType":"uint256"},{"name":"flat","type":"uint256","internalType":"uint256"},{"name":"governanceLP","type":"uint256","internalType":"uint256"},{"name":"governanceZombie","type":"uint256","internalType":"uint256"}]}]},{"name":"_extraData","type":"bytes","internalType":"bytes"},{"name":"_targetIndex","type":"uint256","internalType":"uint256"},{"name":"_salt","type":"bytes32","internalType":"bytes32"}],"outputs":[{"name":"target","type":"address","internalType":"address"}],"stateMutability":"nonpayable"},{"type":"function","name":"deployments","inputs":[{"name":"_deployer","type":"address","internalType":"address"},{"name":"_deploymentId","type":"bytes32","internalType":"bytes32"}],"outputs":[{"name":"","type":"tuple","internalType":"struct HyperdriveDeployerCoordinator.Deployment","components":[{"name":"configHash","type":"bytes32","internalType":"bytes32"},{"name":"extraDataHash","type":"bytes32","internalType":"bytes32"},{"name":"initialSharePrice","type":"uint256","internalType":"uint256"},{"name":"hyperdrive","type":"address","internalType":"address"},{"name":"target0","type":"address","internalType":"address"},{"name":"target1","type":"address","internalType":"address"},{"name":"target2","type":"address","internalType":"address"},{"name":"target3","type":"address","internalType":"address"},{"name":"target4","type":"address","internalType":"address"}]}],"stateMutability":"view"},{"type":"function","name":"initialize","inputs":[{"name":"_deploymentId","type":"bytes32","internalType":"bytes32"},{"name":"_lp","type":"address","internalType":"address"},{"name":"_contribution","type":"uint256","internalType":"uint256"},{"name":"_apr","type":"uint256","internalType":"uint256"},{"name":"_options","type":"tuple","internalType":"struct IHyperdrive.Options","components":[{"name":"destination","type":"address","internalType":"address"},{"name":"asBase","type":"bool","internalType":"bool"},{"name":"extraData","type":"bytes","internalType":"bytes"}]}],"outputs":[{"name":"lpShares","type":"uint256","internalType":"uint256"}],"stateMutability":"payable"},{"type":"function","name":"target0Deployer","inputs":[],"outputs":[{"name":"","type":"address","internalType":"address"}],"stateMutability":"view"},{"type":"function","name":"target1Deployer","inputs":[],"outputs":[{"name":"","type":"address","internalType":"address"}],"stateMutability":"view"},{"type":"function","name":"target2Deployer","inputs":[],"outputs":[{"name":"","type":"address","internalType":"address"}],"stateMutability":"view"},{"type":"function","name":"target3Deployer","inputs":[],"outputs":[{"name":"","type":"address","internalType":"address"}],"stateMutability":"view"},{"type":"function","name":"target4Deployer","inputs":[],"outputs":[{"name":"","type":"address","internalType":"address"}],"stateMutability":"view"},{"type":"error","name":"AddressEmptyCode","inputs":[{"name":"target","type":"address","internalType":"address"}]},{"type":"error","name":"AddressInsufficientBalance","inputs":[{"name":"account","type":"address","internalType":"address"}]},{"type":"error","name":"DeploymentAlreadyExists","inputs":[]},{"type":"error","name":"DeploymentDoesNotExist","inputs":[]},{"type":"error","name":"FailedInnerCall","inputs":[]},{"type":"error","name":"HyperdriveAlreadyDeployed","inputs":[]},{"type":"error","name":"HyperdriveIsNotDeployed","inputs":[]},{"type":"error","name":"IncompleteDeployment","inputs":[]},{"type":"error","name":"InsufficientValue","inputs":[]},{"type":"error","name":"InvalidCheckpointDuration","inputs":[]},{"type":"error","name":"InvalidFeeAmounts","inputs":[]},{"type":"error","name":"InvalidMinimumShareReserves","inputs":[]},{"type":"error","name":"InvalidMinimumTransactionAmount","inputs":[]},{"type":"error","name":"InvalidPositionDuration","inputs":[]},{"type":"error","name":"InvalidTargetIndex","inputs":[]},{"type":"error","name":"MismatchedConfig","inputs":[]},{"type":"error","name":"MismatchedExtraData","inputs":[]},{"type":"error","name":"NotPayable","inputs":[]},{"type":"error","name":"SafeERC20FailedOperation","inputs":[{"name":"token","type":"address","internalType":"address"}]},{"type":"error","name":"TargetAlreadyDeployed","inputs":[]},{"type":"error","name":"TransferFailed","inputs":[]}],"bytecode":{"object":"0x6101406040523480156200001257600080fd5b50604051620022eb380380620022eb833981016040819052620000359162000082565b6001600160a01b0395861660805293851660a05291841660c052831660e052821661010052166101205262000103565b80516001600160a01b03811681146200007d57600080fd5b919050565b60008060008060008060c087890312156200009c57600080fd5b620000a78762000065565b9550620000b76020880162000065565b9450620000c76040880162000065565b9350620000d76060880162000065565b9250620000e76080880162000065565b9150620000f760a0880162000065565b90509295509295509295565b60805160a05160c05160e051610100516101205161216e6200017d600039600081816101530152610a310152600081816101bb0152610919015260008181610223015261080101526000818161018701526106e90152600081816101ef015261049c0152600081816102570152610de8015261216e6000f3fe6080604052600436106100915760003560e01c8063a085fa3011610059578063a085fa3014610175578063aa8cd6c4146101a9578063ab71905f146101dd578063b6cb111814610211578063c83e1f511461024557600080fd5b806316abfc70146100965780631b06a35b146100bc57806320503b3f146100f45780638d10a15b14610121578063966ecd1c14610141575b600080fd5b6100a96100a43660046118e0565b610279565b6040519081526020015b60405180910390f35b3480156100c857600080fd5b506100dc6100d7366004611acf565b6103d8565b6040516001600160a01b0390911681526020016100b3565b34801561010057600080fd5b5061011461010f366004611b3d565b610b0c565b6040516100b39190611b69565b34801561012d57600080fd5b506100dc61013c366004611be6565b610bf0565b34801561014d57600080fd5b506100dc7f000000000000000000000000000000000000000000000000000000000000000081565b34801561018157600080fd5b506100dc7f000000000000000000000000000000000000000000000000000000000000000081565b3480156101b557600080fd5b506100dc7f000000000000000000000000000000000000000000000000000000000000000081565b3480156101e957600080fd5b506100dc7f000000000000000000000000000000000000000000000000000000000000000081565b34801561021d57600080fd5b506100dc7f000000000000000000000000000000000000000000000000000000000000000081565b34801561025157600080fd5b506100dc7f000000000000000000000000000000000000000000000000000000000000000081565b6000610283610f22565b336000908152602081815260408083208984529091529020600301546001600160a01b0316806102c65760405163952b05cb60e01b815260040160405180910390fd5b60006102d482888887610f43565b9050816001600160a01b03166377d05ff4828888886040518563ffffffff1660e01b815260040161030793929190611c99565b60206040518083038185885af1158015610325573d6000803e3d6000fd5b50505050506040513d601f19601f8201168201806040525081019061034a9190611cdf565b925060006103588234611d0e565b905080156103cb57604051600090339083908381818185875af1925050503d80600081146103a2576040519150601f19603f3d011682016040523d82523d6000602084013e6103a7565b606091505b50509050806103c9576040516312171d8360e31b815260040160405180910390fd5b505b5050505b95945050505050565b60008260000361059057336000908152602081815260408083208984529091529020541561041957604051633be1b34d60e11b815260040160405180910390fd5b61042285611053565b600061042d856111a1565b90506000866040516020016104429190611d21565b604051602081830303815290604052805190602001209050600086805190602001209050600061047189611232565b6060808201869052604080513360208201529081018d90529081018890529091506001600160a01b037f0000000000000000000000000000000000000000000000000000000000000000169063a67ba5fa9083908b90608001604051602081830303815290604052805190602001206040518463ffffffff1660e01b81526004016104fe93929190611ef6565b6020604051808303816000875af115801561051d573d6000803e3d6000fd5b505050506040513d601f19601f820116820180604052508101906105419190611f2a565b336000908152602081815260408083208e84529091529020938455600184019290925550600282019290925560040180546001600160a01b0319166001600160a01b03831617905590506103cf565b33600090815260208181526040808320898452909152902054806105c75760405163398b1c0960e21b815260040160405180910390fd5b80866040516020016105d99190611d21565b604051602081830303815290604052805190602001201461060d5760405163332ee11f60e01b815260040160405180910390fd5b336000908152602081815260408083208a84528252909120600101548651918701919091201461065057604051631a3272d160e31b815260040160405180910390fd5b61065986611053565b600061066487611232565b336000908152602081815260408083208c84529091529020600201546060820152905060018590036107a057336000908152602081815260408083208b84529091529020600501546001600160a01b0316156106d25760405162e896af60e31b815260040160405180910390fd5b60405163533dd2fd60e11b81526001600160a01b037f0000000000000000000000000000000000000000000000000000000000000000169063a67ba5fa906107229084908a908990600401611ef6565b6020604051808303816000875af1158015610741573d6000803e3d6000fd5b505050506040513d601f19601f820116820180604052508101906107659190611f2a565b336000908152602081815260408083208c8452909152902060050180546001600160a01b0319166001600160a01b0383161790559250610b01565b846002036108b857336000908152602081815260408083208b84529091529020600601546001600160a01b0316156107ea5760405162e896af60e31b815260040160405180910390fd5b60405163533dd2fd60e11b81526001600160a01b037f0000000000000000000000000000000000000000000000000000000000000000169063a67ba5fa9061083a9084908a908990600401611ef6565b6020604051808303816000875af1158015610859573d6000803e3d6000fd5b505050506040513d601f19601f8201168201806040525081019061087d9190611f2a565b336000908152602081815260408083208c8452909152902060060180546001600160a01b0319166001600160a01b0383161790559250610b01565b846003036109d057336000908152602081815260408083208b84529091529020600701546001600160a01b0316156109025760405162e896af60e31b815260040160405180910390fd5b60405163533dd2fd60e11b81526001600160a01b037f0000000000000000000000000000000000000000000000000000000000000000169063a67ba5fa906109529084908a908990600401611ef6565b6020604051808303816000875af1158015610971573d6000803e3d6000fd5b505050506040513d601f19601f820116820180604052508101906109959190611f2a565b336000908152602081815260408083208c8452909152902060070180546001600160a01b0319166001600160a01b0383161790559250610b01565b84600403610ae857336000908152602081815260408083208b84529091529020600801546001600160a01b031615610a1a5760405162e896af60e31b815260040160405180910390fd5b60405163533dd2fd60e11b81526001600160a01b037f0000000000000000000000000000000000000000000000000000000000000000169063a67ba5fa90610a6a9084908a908990600401611ef6565b6020604051808303816000875af1158015610a89573d6000803e3d6000fd5b505050506040513d601f19601f82011682018060405250810190610aad9190611f2a565b336000908152602081815260408083208c8452909152902060080180546001600160a01b0319166001600160a01b0383161790559250610b01565b604051631d9f815960e11b815260040160405180910390fd5b505095945050505050565b6040805161012081018252600080825260208201819052918101829052606081018290526080810182905260a0810182905260c0810182905260e08101829052610100810191909152506001600160a01b03808316600090815260208181526040808320858452825291829020825161012081018452815481526001820154928101929092526002810154928201929092526003820154831660608201526004820154831660808201526005820154831660a08201526006820154831660c08201526007820154831660e08201526008909101549091166101008201525b92915050565b3360009081526020818152604080832087845282528083208151610120810183528154815260018201549381019390935260028101549183019190915260038101546001600160a01b03908116606084018190526004830154821660808501526005830154821660a08501526006830154821660c08501526007830154821660e08501526008909201541661010083015215610c9f57604051632c95caeb60e01b815260040160405180910390fd5b8051610cbe5760405163398b1c0960e21b815260040160405180910390fd5b60808101516001600160a01b03161580610ce3575060a08101516001600160a01b0316155b80610cf9575060c08101516001600160a01b0316155b80610d0f575060e08101516001600160a01b0316155b80610d2657506101008101516001600160a01b0316155b15610d445760405163e97cc2bf60e01b815260040160405180910390fd5b8051604051610d57908790602001611d21565b6040516020818303038152906040528051906020012014610d8b5760405163332ee11f60e01b815260040160405180910390fd5b8060200151848051906020012014610db657604051631a3272d160e31b815260040160405180910390fd5b610dbf85611053565b6000610dca86611232565b905081604001518160600181815250506000879050600085905060007f00000000000000000000000000000000000000000000000000000000000000006001600160a01b0316636fa623e9858a88608001518960a001518a60c001518b60e001518c6101000151338c8c604051602001610e62939291906001600160a01b039390931683526020830191909152604082015260600190565b604051602081830303815290604052805190602001206040518963ffffffff1660e01b8152600401610e9b989796959493929190611f47565b6020604051808303816000875af1158015610eba573d6000803e3d6000fd5b505050506040513d601f19601f82011682018060405250810190610ede9190611f2a565b336000908152602081815260408083209d83529c90529a909a2060030180546001600160a01b0319166001600160a01b038c16179055509798975050505050505050565b3415610f4157604051631574f9f360e01b815260040160405180910390fd5b565b600080826020015115610fb957856001600160a01b031663c55dae636040518163ffffffff1660e01b8152600401602060405180830381865afa158015610f8e573d6000803e3d6000fd5b505050506040513d601f19601f82011682018060405250810190610fb29190611f2a565b905061101e565b856001600160a01b031663fbfa77cf6040518163ffffffff1660e01b8152600401602060405180830381865afa158015610ff7573d6000803e3d6000fd5b505050506040513d601f19601f8201168201806040525081019061101b9190611f2a565b90505b6110336001600160a01b0382168630876112d7565b6110476001600160a01b0382168786611344565b50600095945050505050565b61105c816113d4565b600481600001516001600160a01b031663313ce5676040518163ffffffff1660e01b8152600401602060405180830381865afa1580156110a0573d6000803e3d6000fd5b505050506040513d601f19601f820116820180604052508101906110c49190611fae565b6110ce9190611fd1565b6110d990600a6120ce565b816060015110156110fd576040516349db44f560e01b815260040160405180910390fd5b600481600001516001600160a01b031663313ce5676040518163ffffffff1660e01b8152600401602060405180830381865afa158015611141573d6000803e3d6000fd5b505050506040513d601f19601f820116820180604052508101906111659190611fae565b61116f9190611fd1565b61117a90600a6120ce565b8160800151101561119e576040516318c9522360e11b815260040160405180910390fd5b50565b600080828060200190518101906111b89190611f2a565b6040516303d1689d60e11b8152670de0b6b3a764000060048201529091506001600160a01b038216906307a2d13a90602401602060405180830381865afa158015611207573d6000803e3d6000fd5b505050506040513d601f19601f8201168201806040525081019061122b9190611cdf565b9392505050565b61123a6116fd565b81516001600160a01b03908116825260208084015182169083015260408084015190830152606083015160808084019190915283015160a08084019190915283015160c08084019190915283015160e0808401919091528301516101008084019190915283015181166101208084019190915283015181166101408084019190915283015116610160808301919091529091015161018082015290565b6040516001600160a01b03848116602483015283811660448301526064820183905261133e9186918216906323b872dd906084015b604051602081830303815290604052915060e01b6020820180516001600160e01b0383818316178352505050506114e6565b50505050565b604080516001600160a01b038416602482015260448082018490528251808303909101815260649091019091526020810180516001600160e01b031663095ea7b360e01b1790526113958482611553565b61133e576040516001600160a01b038481166024830152600060448301526113ca91869182169063095ea7b39060640161130c565b61133e84826114e6565b6103e8816060015110156113fb576040516349db44f560e01b815260040160405180910390fd5b8060c0015160000361142057604051635428734d60e01b815260040160405180910390fd5b8060c001518160a00151108061144857508060c001518160a0015161144591906120dd565b15155b156114665760405163253fffcf60e11b815260040160405180910390fd5b61016081015151670de0b6b3a764000010806114925750670de0b6b3a764000081610160015160200151115b806114ad5750670de0b6b3a764000081610160015160400151115b806114c85750670de0b6b3a764000081610160015160600151115b1561119e576040516322f72cc360e11b815260040160405180910390fd5b60006114fb6001600160a01b038416836115f6565b9050805160001415801561152057508080602001905181019061151e91906120ff565b155b1561154e57604051635274afe760e01b81526001600160a01b03841660048201526024015b60405180910390fd5b505050565b6000806000846001600160a01b031684604051611570919061211c565b6000604051808303816000865af19150503d80600081146115ad576040519150601f19603f3d011682016040523d82523d6000602084013e6115b2565b606091505b50915091508180156115dc5750805115806115dc5750808060200190518101906115dc91906120ff565b80156103cf5750505050506001600160a01b03163b151590565b606061122b8383600084600080856001600160a01b0316848660405161161c919061211c565b60006040518083038185875af1925050503d8060008114611659576040519150601f19603f3d011682016040523d82523d6000602084013e61165e565b606091505b509150915061166e868383611678565b9695505050505050565b60608261168d57611688826116d4565b61122b565b81511580156116a457506001600160a01b0384163b155b156116cd57604051639996b31560e01b81526001600160a01b0385166004820152602401611545565b508061122b565b8051156116e45780518082602001fd5b604051630a12f52160e11b815260040160405180910390fd5b604051806101a0016040528060006001600160a01b0316815260200160006001600160a01b031681526020016000801916815260200160008152602001600081526020016000815260200160008152602001600081526020016000815260200160006001600160a01b0316815260200160006001600160a01b0316815260200160006001600160a01b031681526020016117b86040518060800160405280600081526020016000815260200160008152602001600081525090565b905290565b6001600160a01b038116811461119e57600080fd5b80356117dd816117bd565b919050565b634e487b7160e01b600052604160045260246000fd5b6040516060810167ffffffffffffffff8111828210171561181b5761181b6117e2565b60405290565b604051610180810167ffffffffffffffff8111828210171561181b5761181b6117e2565b801515811461119e57600080fd5b600082601f83011261186457600080fd5b813567ffffffffffffffff8082111561187f5761187f6117e2565b604051601f8301601f19908116603f011681019082821181831017156118a7576118a76117e2565b816040528381528660208588010111156118c057600080fd5b836020870160208301376000602085830101528094505050505092915050565b600080600080600060a086880312156118f857600080fd5b85359450602086013561190a816117bd565b93506040860135925060608601359150608086013567ffffffffffffffff8082111561193557600080fd5b908701906060828a03121561194957600080fd5b6119516117f8565b823561195c816117bd565b8152602083013561196c81611845565b602082015260408301358281111561198357600080fd5b61198f8b828601611853565b6040830152508093505050509295509295909350565b6000608082840312156119b757600080fd5b6040516080810181811067ffffffffffffffff821117156119da576119da6117e2565b8060405250809150823581526020830135602082015260408301356040820152606083013560608201525092915050565b60006101e08284031215611a1e57600080fd5b611a26611821565b9050611a31826117d2565b8152611a3f602083016117d2565b602082015260408201356040820152606082013560608201526080820135608082015260a082013560a082015260c082013560c082015260e082013560e0820152610100611a8e8184016117d2565b90820152610120611aa08382016117d2565b90820152610140611ab28382016117d2565b90820152610160611ac5848483016119a5565b9082015292915050565b60008060008060006102608688031215611ae857600080fd5b85359450611af98760208801611a0b565b935061020086013567ffffffffffffffff811115611b1657600080fd5b611b2288828901611853565b95989497509495610220810135955061024001359392505050565b60008060408385031215611b5057600080fd5b8235611b5b816117bd565b946020939093013593505050565b8151815260208083015190820152604080830151908201526060808301516001600160a01b039081169183019190915260808084015182169083015260a08084015182169083015260c08084015182169083015260e08084015182169083015261010080840151918216818401526101208301915b505092915050565b6000806000806102408587031215611bfd57600080fd5b84359350611c0e8660208701611a0b565b925061020085013567ffffffffffffffff811115611c2b57600080fd5b611c3787828801611853565b94979396509394610220013593505050565b60005b83811015611c64578181015183820152602001611c4c565b50506000910152565b60008151808452611c85816020860160208601611c49565b601f01601f19169290920160200192915050565b8381528260208201526060604082015260018060a01b03825116606082015260208201511515608082015260006040830151606060a084015261166e60c0840182611c6d565b600060208284031215611cf157600080fd5b5051919050565b634e487b7160e01b600052601160045260246000fd5b81810381811115610bea57610bea611cf8565b81516001600160a01b031681526101e081016020830151611d4d60208401826001600160a01b03169052565b5060408301516040830152606083015160608301526080830151608083015260a083015160a083015260c083015160c083015260e083015160e083015261010080840151611da5828501826001600160a01b03169052565b5050610120838101516001600160a01b038116848301525050610140838101516001600160a01b03811684830152505061016083810151805184830152602081015161018085015260408101516101a085015260608101516101c0850152611bde565b80516001600160a01b031682526020810151611e2f60208401826001600160a01b03169052565b5060408101516040830152606081015160608301526080810151608083015260a081015160a083015260c081015160c083015260e081015160e083015261010080820151818401525061012080820151611e93828501826001600160a01b03169052565b5050610140818101516001600160a01b038116848301525050610160818101516001600160a01b0381168483015250506101808181015180518483015260208101516101a085015260408101516101c085015260608101516101e085015261133e565b6000610240611f058387611e08565b80610200840152611f1881840186611c6d565b91505082610220830152949350505050565b600060208284031215611f3c57600080fd5b815161122b816117bd565b60006102e0611f56838c611e08565b80610200840152611f698184018b611c6d565b6001600160a01b03998a1661022085015297891661024084015250509386166102608501529185166102808401529093166102a08201526102c0019190915292915050565b600060208284031215611fc057600080fd5b815160ff8116811461122b57600080fd5b60ff8281168282160390811115610bea57610bea611cf8565b600181815b8085111561202557816000190482111561200b5761200b611cf8565b8085161561201857918102915b93841c9390800290611fef565b509250929050565b60008261203c57506001610bea565b8161204957506000610bea565b816001811461205f576002811461206957612085565b6001915050610bea565b60ff84111561207a5761207a611cf8565b50506001821b610bea565b5060208310610133831016604e8410600b84101617156120a8575081810a610bea565b6120b28383611fea565b80600019048211156120c6576120c6611cf8565b029392505050565b600061122b60ff84168361202d565b6000826120fa57634e487b7160e01b600052601260045260246000fd5b500690565b60006020828403121561211157600080fd5b815161122b81611845565b6000825161212e818460208701611c49565b919091019291505056fea2646970667358221220eba69cfd12d802d31e7fff0621a59bd58589ebecc5d5bb7366efa51bda8a83fb64736f6c63430008140033","linkReferences":{}},"methodIdentifiers":{"coreDeployer()":"c83e1f51","deploy(bytes32,(address,address,bytes32,uint256,uint256,uint256,uint256,uint256,address,address,address,(uint256,uint256,uint256,uint256)),bytes,bytes32)":"8d10a15b","deployTarget(bytes32,(address,address,bytes32,uint256,uint256,uint256,uint256,uint256,address,address,address,(uint256,uint256,uint256,uint256)),bytes,uint256,bytes32)":"1b06a35b","deployments(address,bytes32)":"20503b3f","initialize(bytes32,address,uint256,uint256,(address,bool,bytes))":"16abfc70","target0Deployer()":"ab71905f","target1Deployer()":"a085fa30","target2Deployer()":"b6cb1118","target3Deployer()":"aa8cd6c4","target4Deployer()":"966ecd1c"},"id":2}