{"abi":[{"type":"constructor","inputs":[{"name":"_factory","type":"address","internalType":"address"},{"name":"_coreDeployer","type":"address","internalType":"address"},{"name":"_target0Deployer","type":"address","internalType":"address"},{"name":"_target1Deployer","type":"address","internalType":"address"},{"name":"_target2Deployer","type":"address","internalType":"address"},{"name":"_target3Deployer","type":"address","internalType":"address"}],"stateMutability":"nonpayable"},{"type":"function","name":"coreDeployer","inputs":[],"outputs":[{"name":"","type":"address","internalType":"address"}],"stateMutability":"view"},{"type":"function","name":"deployHyperdrive","inputs":[{"name":"_deploymentId","type":"bytes32","internalType":"bytes32"},{"name":"_deployConfig","type":"tuple","internalType":"struct IHyperdrive.PoolDeployConfig","components":[{"name":"baseToken","type":"address","internalType":"contract IERC20"},{"name":"vaultSharesToken","type":"address","internalType":"contract IERC20"},{"name":"linkerFactory","type":"address","internalType":"address"},{"name":"linkerCodeHash","type":"bytes32","internalType":"bytes32"},{"name":"minimumShareReserves","type":"uint256","internalType":"uint256"},{"name":"minimumTransactionAmount","type":"uint256","internalType":"uint256"},{"name":"circuitBreakerDelta","type":"uint256","internalType":"uint256"},{"name":"positionDuration","type":"uint256","internalType":"uint256"},{"name":"checkpointDuration","type":"uint256","internalType":"uint256"},{"name":"timeStretch","type":"uint256","internalType":"uint256"},{"name":"governance","type":"address","internalType":"address"},{"name":"feeCollector","type":"address","internalType":"address"},{"name":"sweepCollector","type":"address","internalType":"address"},{"name":"fees","type":"tuple","internalType":"struct IHyperdrive.Fees","components":[{"name":"curve","type":"uint256","internalType":"uint256"},{"name":"flat","type":"uint256","internalType":"uint256"},{"name":"governanceLP","type":"uint256","internalType":"uint256"},{"name":"governanceZombie","type":"uint256","internalType":"uint256"}]}]},{"name":"_extraData","type":"bytes","internalType":"bytes"},{"name":"_salt","type":"bytes32","internalType":"bytes32"}],"outputs":[{"name":"","type":"address","internalType":"address"}],"stateMutability":"nonpayable"},{"type":"function","name":"deployTarget","inputs":[{"name":"_deploymentId","type":"bytes32","internalType":"bytes32"},{"name":"_deployConfig","type":"tuple","internalType":"struct IHyperdrive.PoolDeployConfig","components":[{"name":"baseToken","type":"address","internalType":"contract IERC20"},{"name":"vaultSharesToken","type":"address","internalType":"contract IERC20"},{"name":"linkerFactory","type":"address","internalType":"address"},{"name":"linkerCodeHash","type":"bytes32","internalType":"bytes32"},{"name":"minimumShareReserves","type":"uint256","internalType":"uint256"},{"name":"minimumTransactionAmount","type":"uint256","internalType":"uint256"},{"name":"circuitBreakerDelta","type":"uint256","internalType":"uint256"},{"name":"positionDuration","type":"uint256","internalType":"uint256"},{"name":"checkpointDuration","type":"uint256","internalType":"uint256"},{"name":"timeStretch","type":"uint256","internalType":"uint256"},{"name":"governance","type":"address","internalType":"address"},{"name":"feeCollector","type":"address","internalType":"address"},{"name":"sweepCollector","type":"address","internalType":"address"},{"name":"fees","type":"tuple","internalType":"struct IHyperdrive.Fees","components":[{"name":"curve","type":"uint256","internalType":"uint256"},{"name":"flat","type":"uint256","internalType":"uint256"},{"name":"governanceLP","type":"uint256","internalType":"uint256"},{"name":"governanceZombie","type":"uint256","internalType":"uint256"}]}]},{"name":"_extraData","type":"bytes","internalType":"bytes"},{"name":"_targetIndex","type":"uint256","internalType":"uint256"},{"name":"_salt","type":"bytes32","internalType":"bytes32"}],"outputs":[{"name":"target","type":"address","internalType":"address"}],"stateMutability":"nonpayable"},{"type":"function","name":"deployments","inputs":[{"name":"_deploymentId","type":"bytes32","internalType":"bytes32"}],"outputs":[{"name":"","type":"tuple","internalType":"struct HyperdriveDeployerCoordinator.Deployment","components":[{"name":"configHash","type":"bytes32","internalType":"bytes32"},{"name":"extraDataHash","type":"bytes32","internalType":"bytes32"},{"name":"initialSharePrice","type":"uint256","internalType":"uint256"},{"name":"hyperdrive","type":"address","internalType":"address"},{"name":"target0","type":"address","internalType":"address"},{"name":"target1","type":"address","internalType":"address"},{"name":"target2","type":"address","internalType":"address"},{"name":"target3","type":"address","internalType":"address"}]}],"stateMutability":"view"},{"type":"function","name":"factory","inputs":[],"outputs":[{"name":"","type":"address","internalType":"address"}],"stateMutability":"view"},{"type":"function","name":"getNumberOfTargets","inputs":[],"outputs":[{"name":"","type":"uint256","internalType":"uint256"}],"stateMutability":"pure"},{"type":"function","name":"initialize","inputs":[{"name":"_deploymentId","type":"bytes32","internalType":"bytes32"},{"name":"_lp","type":"address","internalType":"address"},{"name":"_contribution","type":"uint256","internalType":"uint256"},{"name":"_apr","type":"uint256","internalType":"uint256"},{"name":"_options","type":"tuple","internalType":"struct IHyperdrive.Options","components":[{"name":"destination","type":"address","internalType":"address"},{"name":"asBase","type":"bool","internalType":"bool"},{"name":"extraData","type":"bytes","internalType":"bytes"}]}],"outputs":[{"name":"lpShares","type":"uint256","internalType":"uint256"}],"stateMutability":"payable"},{"type":"function","name":"name","inputs":[],"outputs":[{"name":"","type":"string","internalType":"string"}],"stateMutability":"view"},{"type":"function","name":"target0Deployer","inputs":[],"outputs":[{"name":"","type":"address","internalType":"address"}],"stateMutability":"view"},{"type":"function","name":"target1Deployer","inputs":[],"outputs":[{"name":"","type":"address","internalType":"address"}],"stateMutability":"view"},{"type":"function","name":"target2Deployer","inputs":[],"outputs":[{"name":"","type":"address","internalType":"address"}],"stateMutability":"view"},{"type":"function","name":"target3Deployer","inputs":[],"outputs":[{"name":"","type":"address","internalType":"address"}],"stateMutability":"view"},{"type":"function","name":"version","inputs":[],"outputs":[{"name":"","type":"string","internalType":"string"}],"stateMutability":"pure"},{"type":"error","name":"AddressEmptyCode","inputs":[{"name":"target","type":"address","internalType":"address"}]},{"type":"error","name":"AddressInsufficientBalance","inputs":[{"name":"account","type":"address","internalType":"address"}]},{"type":"error","name":"DeploymentAlreadyExists","inputs":[]},{"type":"error","name":"DeploymentDoesNotExist","inputs":[]},{"type":"error","name":"FailedInnerCall","inputs":[]},{"type":"error","name":"HyperdriveAlreadyDeployed","inputs":[]},{"type":"error","name":"HyperdriveIsNotDeployed","inputs":[]},{"type":"error","name":"IncompleteDeployment","inputs":[]},{"type":"error","name":"InsufficientValue","inputs":[]},{"type":"error","name":"InvalidBaseToken","inputs":[]},{"type":"error","name":"InvalidCheckpointDuration","inputs":[]},{"type":"error","name":"InvalidFeeAmounts","inputs":[]},{"type":"error","name":"InvalidMinimumShareReserves","inputs":[]},{"type":"error","name":"InvalidMinimumTransactionAmount","inputs":[]},{"type":"error","name":"InvalidPositionDuration","inputs":[]},{"type":"error","name":"InvalidTargetIndex","inputs":[]},{"type":"error","name":"InvalidVaultSharesToken","inputs":[]},{"type":"error","name":"MismatchedConfig","inputs":[]},{"type":"error","name":"MismatchedExtraData","inputs":[]},{"type":"error","name":"NotPayable","inputs":[]},{"type":"error","name":"SafeERC20FailedOperation","inputs":[{"name":"token","type":"address","internalType":"address"}]},{"type":"error","name":"SenderIsNotFactory","inputs":[]},{"type":"error","name":"TargetAlreadyDeployed","inputs":[]},{"type":"error","name":"TransferFailed","inputs":[]}],"bytecode":{"object":"0x6101406040523480156200001257600080fd5b50604051620023f9380380620023f9833981016040819052620000359162000082565b6001600160a01b0395861660805293851660a05291841660c052831660e052821661010052166101205262000103565b80516001600160a01b03811681146200007d57600080fd5b919050565b60008060008060008060c087890312156200009c57600080fd5b620000a78762000065565b9550620000b76020880162000065565b9450620000c76040880162000065565b9350620000d76060880162000065565b9250620000e76080880162000065565b9150620000f760a0880162000065565b90509295509295509295565b60805160a05160c05160e051610100516101205161226e6200018b6000396000818161030e0152610b1a01526000818161037601526109fd0152600081816102da01526108e001526000818161034201526106d60152600081816103fe0152610e3a0152600081816103ca0152818161045d015281816105fb0152610c09015261226e6000f3fe6080604052600436106100c25760003560e01c8063aa8cd6c41161007f578063c29d10c111610059578063c29d10c114610398578063c45a0155146103b8578063c83e1f51146103ec578063e99be3961461042057600080fd5b8063aa8cd6c4146102fc578063ab71905f14610330578063b6cb11181461036457600080fd5b806306fdde03146100c757806316abfc70146100f2578063374040171461011357806354fd4d50146102605780637f88be8114610290578063a085fa30146102c8575b600080fd5b3480156100d357600080fd5b506100dc610434565b6040516100e991906118f2565b60405180910390f35b610105610100366004611a28565b610450565b6040519081526020016100e9565b34801561011f57600080fd5b506101ef61012e366004611aed565b6040805161010081018252600080825260208201819052918101829052606081018290526080810182905260a0810182905260c0810182905260e081019190915250600090815260208181526040918290208251610100810184528154815260018201549281019290925260028101549282019290925260038201546001600160a01b0390811660608301526004830154811660808301526005830154811660a08301526006830154811660c083015260079092015490911660e082015290565b6040516100e991908151815260208083015190820152604080830151908201526060808301516001600160a01b039081169183019190915260808084015182169083015260a08084015182169083015260c08084015182169083015260e09283015116918101919091526101000190565b34801561026c57600080fd5b50604080518082019091526007815266076312e302e31360cc1b60208201526100dc565b34801561029c57600080fd5b506102b06102ab366004611c4f565b6105ee565b6040516001600160a01b0390911681526020016100e9565b3480156102d457600080fd5b506102b07f000000000000000000000000000000000000000000000000000000000000000081565b34801561030857600080fd5b506102b07f000000000000000000000000000000000000000000000000000000000000000081565b34801561033c57600080fd5b506102b07f000000000000000000000000000000000000000000000000000000000000000081565b34801561037057600080fd5b506102b07f000000000000000000000000000000000000000000000000000000000000000081565b3480156103a457600080fd5b506102b06103b3366004611cbd565b610bfc565b3480156103c457600080fd5b506102b07f000000000000000000000000000000000000000000000000000000000000000081565b3480156103f857600080fd5b506102b07f000000000000000000000000000000000000000000000000000000000000000081565b34801561042c57600080fd5b506004610105565b6040518060600160405280602481526020016122156024913981565b6000336001600160a01b037f0000000000000000000000000000000000000000000000000000000000000000161461049b57604051634084351160e01b815260040160405180910390fd5b6104a3610f1c565b6000868152602081905260409020600301546001600160a01b0316806104dc5760405163952b05cb60e01b815260040160405180910390fd5b60006104ea82888887610f3d565b9050816001600160a01b03166377d05ff4828888886040518563ffffffff1660e01b815260040161051d93929190611d20565b60206040518083038185885af115801561053b573d6000803e3d6000fd5b50505050506040513d601f19601f820116820180604052508101906105609190611d70565b9250600061056e8234611d9f565b905080156105e157604051600090339083908381818185875af1925050503d80600081146105b8576040519150601f19603f3d011682016040523d82523d6000602084013e6105bd565b606091505b50509050806105df576040516312171d8360e31b815260040160405180910390fd5b505b5050505b95945050505050565b6000336001600160a01b037f0000000000000000000000000000000000000000000000000000000000000000161461063957604051634084351160e01b815260040160405180910390fd5b6000868152602081905260408120908490036107ce5780541561066f57604051633be1b34d60e11b815260040160405180910390fd5b6106788661104d565b60006106848787611261565b90506000876040516020016106999190611db2565b60405160208183030381529060405280519060200120905060008780519060200120905060006106c88a6112e1565b9050838160800181815250507f00000000000000000000000000000000000000000000000000000000000000006001600160a01b031663847c08a5828b8e8b604051602001610721929190918252602082015260400190565b604051602081830303815290604052805190602001206040518463ffffffff1660e01b815260040161075593929190611fdc565b6020604051808303816000875af1158015610774573d6000803e3d6000fd5b505050506040513d601f19601f820116820180604052508101906107989190612010565b9285555060018401556002830191909155600490910180546001600160a01b0319166001600160a01b03831617905590506105e5565b600087815260208190526040902054806107fb5760405163398b1c0960e21b815260040160405180910390fd5b808760405160200161080d9190611db2565b60405160208183030381529060405280519060200120146108415760405163332ee11f60e01b815260040160405180910390fd5b6001820154865160208801201461086b57604051631a3272d160e31b815260040160405180910390fd5b6108748761104d565b600061087f886112e1565b60028401546080820152905060018690036109a95760058301546001600160a01b0316156108bf5760405162e896af60e31b815260040160405180910390fd5b604080513360208201529081018a9052606081018690526001600160a01b037f0000000000000000000000000000000000000000000000000000000000000000169063847c08a59083908a90608001604051602081830303815290604052805190602001206040518463ffffffff1660e01b815260040161094293929190611fdc565b6020604051808303816000875af1158015610961573d6000803e3d6000fd5b505050506040513d601f19601f820116820180604052508101906109859190612010565b6005840180546001600160a01b0319166001600160a01b03831617905593506105e1565b85600203610ac65760068301546001600160a01b0316156109dc5760405162e896af60e31b815260040160405180910390fd5b604080513360208201529081018a9052606081018690526001600160a01b037f0000000000000000000000000000000000000000000000000000000000000000169063847c08a59083908a90608001604051602081830303815290604052805190602001206040518463ffffffff1660e01b8152600401610a5f93929190611fdc565b6020604051808303816000875af1158015610a7e573d6000803e3d6000fd5b505050506040513d601f19601f82011682018060405250810190610aa29190612010565b6006840180546001600160a01b0319166001600160a01b03831617905593506105e1565b85600303610be35760078301546001600160a01b031615610af95760405162e896af60e31b815260040160405180910390fd5b604080513360208201529081018a9052606081018690526001600160a01b037f0000000000000000000000000000000000000000000000000000000000000000169063847c08a59083908a90608001604051602081830303815290604052805190602001206040518463ffffffff1660e01b8152600401610b7c93929190611fdc565b6020604051808303816000875af1158015610b9b573d6000803e3d6000fd5b505050506040513d601f19601f82011682018060405250810190610bbf9190612010565b6007840180546001600160a01b0319166001600160a01b03831617905593506105e1565b604051631d9f815960e11b815260040160405180910390fd5b6000336001600160a01b037f00000000000000000000000000000000000000000000000000000000000000001614610c4757604051634084351160e01b815260040160405180910390fd5b600085815260208181526040918290208251610100810184528154815260018201549281019290925260028101549282019290925260038201546001600160a01b03908116606083018190526004840154821660808401526005840154821660a08401526006840154821660c08401526007909301541660e08201529015610ce257604051632c95caeb60e01b815260040160405180910390fd5b8051610d015760405163398b1c0960e21b815260040160405180910390fd5b60808101516001600160a01b03161580610d26575060a08101516001600160a01b0316155b80610d3c575060c08101516001600160a01b0316155b80610d52575060e08101516001600160a01b0316155b15610d705760405163e97cc2bf60e01b815260040160405180910390fd5b8051604051610d83908790602001611db2565b6040516020818303038152906040528051906020012014610db75760405163332ee11f60e01b815260040160405180910390fd5b8060200151848051906020012014610de257604051631a3272d160e31b815260040160405180910390fd5b610deb8561104d565b6000610df6866112e1565b60408084015160808084019190915284015160a085015160c086015160e08701518451602081018e90529485018a90529495508b9489946000946001600160a01b037f0000000000000000000000000000000000000000000000000000000000000000169463907d12e9948a948f94606001604051602081830303815290604052805190602001206040518863ffffffff1660e01b8152600401610ea0979695949392919061202d565b6020604051808303816000875af1158015610ebf573d6000803e3d6000fd5b505050506040513d601f19601f82011682018060405250810190610ee39190612010565b60009a8b5260208b90526040909a2060030180546001600160a01b0319166001600160a01b038c16179055509798975050505050505050565b3415610f3b57604051631574f9f360e01b815260040160405180910390fd5b565b600080826020015115610fb357856001600160a01b031663c55dae636040518163ffffffff1660e01b8152600401602060405180830381865afa158015610f88573d6000803e3d6000fd5b505050506040513d601f19601f82011682018060405250810190610fac9190612010565b9050611018565b856001600160a01b0316630a4e14936040518163ffffffff1660e01b8152600401602060405180830381865afa158015610ff1573d6000803e3d6000fd5b505050506040513d601f19601f820116820180604052508101906110159190612010565b90505b61102d6001600160a01b0382168630876113a0565b6110416001600160a01b038216878661140d565b50600095945050505050565b6110568161149d565b60208101516001600160a01b03166110815760405163073f739d60e51b815260040160405180910390fd5b80602001516001600160a01b03166338d52e0f6040518163ffffffff1660e01b8152600401602060405180830381865afa1580156110c3573d6000803e3d6000fd5b505050506040513d601f19601f820116820180604052508101906110e79190612010565b6001600160a01b031681600001516001600160a01b03161461111c57604051630722152560e11b815260040160405180910390fd5b600481600001516001600160a01b031663313ce5676040518163ffffffff1660e01b8152600401602060405180830381865afa158015611160573d6000803e3d6000fd5b505050506040513d601f19601f82011682018060405250810190611184919061208a565b61118e91906120ad565b61119990600a6121aa565b816080015110156111bd576040516349db44f560e01b815260040160405180910390fd5b600481600001516001600160a01b031663313ce5676040518163ffffffff1660e01b8152600401602060405180830381865afa158015611201573d6000803e3d6000fd5b505050506040513d601f19601f82011682018060405250810190611225919061208a565b61122f91906120ad565b61123a90600a6121aa565b8160a00151101561125e576040516318c9522360e11b815260040160405180910390fd5b50565b60208201516040516303d1689d60e11b8152670de0b6b3a764000060048201526000916001600160a01b0316906307a2d13a90602401602060405180830381865afa1580156112b4573d6000803e3d6000fd5b505050506040513d601f19601f820116820180604052508101906112d89190611d70565b90505b92915050565b6112e96117cb565b81516001600160a01b03908116825260208084015182169083015260408084015182169083015260608084015190830152608083015160a08084019190915283015160c08084019190915283015160e080840191909152830151610100808401919091528301516101208084019190915283015161014080840191909152830151811661016080840191909152830151811661018080840191909152830151166101a080830191909152909101516101c082015290565b6040516001600160a01b0384811660248301528381166044830152606482018390526114079186918216906323b872dd906084015b604051602081830303815290604052915060e01b6020820180516001600160e01b0383818316178352505050506115b2565b50505050565b604080516001600160a01b038416602482015260448082018490528251808303909101815260649091019091526020810180516001600160e01b031663095ea7b360e01b17905261145e848261161f565b611407576040516001600160a01b0384811660248301526000604483015261149391869182169063095ea7b3906064016113d5565b61140784826115b2565b6103e8816080015110156114c4576040516349db44f560e01b815260040160405180910390fd5b8061010001516000036114ea57604051635428734d60e01b815260040160405180910390fd5b8061010001518160e00151108061151457508061010001518160e0015161151191906121b9565b15155b156115325760405163253fffcf60e11b815260040160405180910390fd5b6101a081015151670de0b6b3a7640000108061155e5750670de0b6b3a7640000816101a0015160200151115b806115795750670de0b6b3a7640000816101a0015160400151115b806115945750670de0b6b3a7640000816101a0015160600151115b1561125e576040516322f72cc360e11b815260040160405180910390fd5b60006115c76001600160a01b038416836116c2565b905080516000141580156115ec5750808060200190518101906115ea91906121db565b155b1561161a57604051635274afe760e01b81526001600160a01b03841660048201526024015b60405180910390fd5b505050565b6000806000846001600160a01b03168460405161163c91906121f8565b6000604051808303816000865af19150503d8060008114611679576040519150601f19603f3d011682016040523d82523d6000602084013e61167e565b606091505b50915091508180156116a85750805115806116a85750808060200190518101906116a891906121db565b80156105e55750505050506001600160a01b03163b151590565b60606112d88383600084600080856001600160a01b031684866040516116e891906121f8565b60006040518083038185875af1925050503d8060008114611725576040519150601f19603f3d011682016040523d82523d6000602084013e61172a565b606091505b509150915061173a868383611746565b925050505b9392505050565b60608261175b57611756826117a2565b61173f565b815115801561177257506001600160a01b0384163b155b1561179b57604051639996b31560e01b81526001600160a01b0385166004820152602401611611565b508061173f565b8051156117b25780518082602001fd5b604051630a12f52160e11b815260040160405180910390fd5b604051806101e0016040528060006001600160a01b0316815260200160006001600160a01b0316815260200160006001600160a01b03168152602001600080191681526020016000815260200160008152602001600081526020016000815260200160008152602001600081526020016000815260200160006001600160a01b0316815260200160006001600160a01b0316815260200160006001600160a01b0316815260200161189d6040518060800160405280600081526020016000815260200160008152602001600081525090565b905290565b60005b838110156118bd5781810151838201526020016118a5565b50506000910152565b600081518084526118de8160208601602086016118a2565b601f01601f19169290920160200192915050565b6020815260006112d860208301846118c6565b6001600160a01b038116811461125e57600080fd5b803561192581611905565b919050565b634e487b7160e01b600052604160045260246000fd5b6040516060810167ffffffffffffffff811182821017156119635761196361192a565b60405290565b6040516101c0810167ffffffffffffffff811182821017156119635761196361192a565b801515811461125e57600080fd5b600082601f8301126119ac57600080fd5b813567ffffffffffffffff808211156119c7576119c761192a565b604051601f8301601f19908116603f011681019082821181831017156119ef576119ef61192a565b81604052838152866020858801011115611a0857600080fd5b836020870160208301376000602085830101528094505050505092915050565b600080600080600060a08688031215611a4057600080fd5b853594506020860135611a5281611905565b93506040860135925060608601359150608086013567ffffffffffffffff80821115611a7d57600080fd5b908701906060828a031215611a9157600080fd5b611a99611940565b8235611aa481611905565b81526020830135611ab48161198d565b6020820152604083013582811115611acb57600080fd5b611ad78b82860161199b565b6040830152508093505050509295509295909350565b600060208284031215611aff57600080fd5b5035919050565b600060808284031215611b1857600080fd5b6040516080810181811067ffffffffffffffff82111715611b3b57611b3b61192a565b8060405250809150823581526020830135602082015260408301356040820152606083013560608201525092915050565b60006102208284031215611b7f57600080fd5b611b87611969565b9050611b928261191a565b8152611ba06020830161191a565b6020820152611bb16040830161191a565b6040820152606082013560608201526080820135608082015260a082013560a082015260c082013560c082015260e082013560e0820152610100808301358183015250610120808301358183015250610140611c0e81840161191a565b90820152610160611c2083820161191a565b90820152610180611c3283820161191a565b908201526101a0611c4584848301611b06565b9082015292915050565b60008060008060006102a08688031215611c6857600080fd5b85359450611c798760208801611b6c565b935061024086013567ffffffffffffffff811115611c9657600080fd5b611ca28882890161199b565b95989497509495610260810135955061028001359392505050565b6000806000806102808587031215611cd457600080fd5b84359350611ce58660208701611b6c565b925061024085013567ffffffffffffffff811115611d0257600080fd5b611d0e8782880161199b565b94979396509394610260013593505050565b8381528260208201526060604082015260018060a01b03825116606082015260208201511515608082015260006040830151606060a0840152611d6660c08401826118c6565b9695505050505050565b600060208284031215611d8257600080fd5b5051919050565b634e487b7160e01b600052601160045260246000fd5b818103818111156112db576112db611d89565b81516001600160a01b0316815261022081016020830151611dde60208401826001600160a01b03169052565b506040830151611df960408401826001600160a01b03169052565b50606083015160608301526080830151608083015260a083015160a083015260c083015160c083015260e083015160e083015261010080840151818401525061012080840151818401525061014080840151611e5f828501826001600160a01b03169052565b5050610160838101516001600160a01b038116848301525050610180838101516001600160a01b0381168483015250506101a08381015180518483015260208101516101c085015260408101516101e08501526060810151610200850152505092915050565b80516001600160a01b031682526020810151611eec60208401826001600160a01b03169052565b506040810151611f0760408401826001600160a01b03169052565b50606081015160608301526080810151608083015260a081015160a083015260c081015160c083015260e081015160e083015261010080820151818401525061012080820151818401525061014080820151818401525061016080820151611f79828501826001600160a01b03169052565b5050610180818101516001600160a01b0381168483015250506101a0818101516001600160a01b0381168483015250506101c08181015180518483015260208101516101e085015260408101516102008501526060810151610220850152611407565b6000610280611feb8387611ec5565b80610240840152611ffe818401866118c6565b91505082610260830152949350505050565b60006020828403121561202257600080fd5b815161173f81611905565b600061030061203c838b611ec5565b8061024084015261204f8184018a6118c6565b6001600160a01b0398891661026085015296881661028084015250509285166102a084015293166102c08201526102e0019190915292915050565b60006020828403121561209c57600080fd5b815160ff8116811461173f57600080fd5b60ff82811682821603908111156112db576112db611d89565b600181815b808511156121015781600019048211156120e7576120e7611d89565b808516156120f457918102915b93841c93908002906120cb565b509250929050565b600082612118575060016112db565b81612125575060006112db565b816001811461213b576002811461214557612161565b60019150506112db565b60ff84111561215657612156611d89565b50506001821b6112db565b5060208310610133831016604e8410600b8410161715612184575081810a6112db565b61218e83836120c6565b80600019048211156121a2576121a2611d89565b029392505050565b60006112d860ff841683612109565b6000826121d657634e487b7160e01b600052601260045260246000fd5b500690565b6000602082840312156121ed57600080fd5b815161173f8161198d565b6000825161220a8184602087016118a2565b919091019291505056fe45524334363236487970657264726976654465706c6f796572436f6f7264696e61746f72a264697066735822122057ee093fe645cf683387866c35fc3d6b69309e7bf56162c0417347a178c3de5b64736f6c63430008140033","linkReferences":{}},"methodIdentifiers":{"coreDeployer()":"c83e1f51","deployHyperdrive(bytes32,(address,address,address,bytes32,uint256,uint256,uint256,uint256,uint256,uint256,address,address,address,(uint256,uint256,uint256,uint256)),bytes,bytes32)":"c29d10c1","deployTarget(bytes32,(address,address,address,bytes32,uint256,uint256,uint256,uint256,uint256,uint256,address,address,address,(uint256,uint256,uint256,uint256)),bytes,uint256,bytes32)":"7f88be81","deployments(bytes32)":"37404017","factory()":"c45a0155","getNumberOfTargets()":"e99be396","initialize(bytes32,address,uint256,uint256,(address,bool,bytes))":"16abfc70","name()":"06fdde03","target0Deployer()":"ab71905f","target1Deployer()":"a085fa30","target2Deployer()":"b6cb1118","target3Deployer()":"aa8cd6c4","version()":"54fd4d50"},"id":2}