{"abi":[{"type":"constructor","inputs":[{"name":"_factoryConfig","type":"tuple","internalType":"struct HyperdriveFactory.FactoryConfig","components":[{"name":"governance","type":"address","internalType":"address"},{"name":"hyperdriveGovernance","type":"address","internalType":"address"},{"name":"defaultPausers","type":"address[]","internalType":"address[]"},{"name":"feeCollector","type":"address","internalType":"address"},{"name":"sweepCollector","type":"address","internalType":"address"},{"name":"checkpointDurationResolution","type":"uint256","internalType":"uint256"},{"name":"minCheckpointDuration","type":"uint256","internalType":"uint256"},{"name":"maxCheckpointDuration","type":"uint256","internalType":"uint256"},{"name":"minPositionDuration","type":"uint256","internalType":"uint256"},{"name":"maxPositionDuration","type":"uint256","internalType":"uint256"},{"name":"minCircuitBreakerDelta","type":"uint256","internalType":"uint256"},{"name":"maxCircuitBreakerDelta","type":"uint256","internalType":"uint256"},{"name":"minFixedAPR","type":"uint256","internalType":"uint256"},{"name":"maxFixedAPR","type":"uint256","internalType":"uint256"},{"name":"minTimeStretchAPR","type":"uint256","internalType":"uint256"},{"name":"maxTimeStretchAPR","type":"uint256","internalType":"uint256"},{"name":"minFees","type":"tuple","internalType":"struct IHyperdrive.Fees","components":[{"name":"curve","type":"uint256","internalType":"uint256"},{"name":"flat","type":"uint256","internalType":"uint256"},{"name":"governanceLP","type":"uint256","internalType":"uint256"},{"name":"governanceZombie","type":"uint256","internalType":"uint256"}]},{"name":"maxFees","type":"tuple","internalType":"struct IHyperdrive.Fees","components":[{"name":"curve","type":"uint256","internalType":"uint256"},{"name":"flat","type":"uint256","internalType":"uint256"},{"name":"governanceLP","type":"uint256","internalType":"uint256"},{"name":"governanceZombie","type":"uint256","internalType":"uint256"}]},{"name":"linkerFactory","type":"address","internalType":"address"},{"name":"linkerCodeHash","type":"bytes32","internalType":"bytes32"}]},{"name":"_name","type":"string","internalType":"string"}],"stateMutability":"nonpayable"},{"type":"receive","stateMutability":"payable"},{"type":"function","name":"addDeployerCoordinator","inputs":[{"name":"_deployerCoordinator","type":"address","internalType":"address"}],"outputs":[],"stateMutability":"nonpayable"},{"type":"function","name":"checkpointDurationResolution","inputs":[],"outputs":[{"name":"","type":"uint256","internalType":"uint256"}],"stateMutability":"view"},{"type":"function","name":"defaultPausers","inputs":[],"outputs":[{"name":"","type":"address[]","internalType":"address[]"}],"stateMutability":"view"},{"type":"function","name":"deployAndInitialize","inputs":[{"name":"_deploymentId","type":"bytes32","internalType":"bytes32"},{"name":"_deployerCoordinator","type":"address","internalType":"address"},{"name":"_config","type":"tuple","internalType":"struct IHyperdrive.PoolDeployConfig","components":[{"name":"baseToken","type":"address","internalType":"contract IERC20"},{"name":"vaultSharesToken","type":"address","internalType":"contract IERC20"},{"name":"linkerFactory","type":"address","internalType":"address"},{"name":"linkerCodeHash","type":"bytes32","internalType":"bytes32"},{"name":"minimumShareReserves","type":"uint256","internalType":"uint256"},{"name":"minimumTransactionAmount","type":"uint256","internalType":"uint256"},{"name":"circuitBreakerDelta","type":"uint256","internalType":"uint256"},{"name":"positionDuration","type":"uint256","internalType":"uint256"},{"name":"checkpointDuration","type":"uint256","internalType":"uint256"},{"name":"timeStretch","type":"uint256","internalType":"uint256"},{"name":"governance","type":"address","internalType":"address"},{"name":"feeCollector","type":"address","internalType":"address"},{"name":"sweepCollector","type":"address","internalType":"address"},{"name":"fees","type":"tuple","internalType":"struct IHyperdrive.Fees","components":[{"name":"curve","type":"uint256","internalType":"uint256"},{"name":"flat","type":"uint256","internalType":"uint256"},{"name":"governanceLP","type":"uint256","internalType":"uint256"},{"name":"governanceZombie","type":"uint256","internalType":"uint256"}]}]},{"name":"_extraData","type":"bytes","internalType":"bytes"},{"name":"_contribution","type":"uint256","internalType":"uint256"},{"name":"_fixedAPR","type":"uint256","internalType":"uint256"},{"name":"_timeStretchAPR","type":"uint256","internalType":"uint256"},{"name":"_options","type":"tuple","internalType":"struct IHyperdrive.Options","components":[{"name":"destination","type":"address","internalType":"address"},{"name":"asBase","type":"bool","internalType":"bool"},{"name":"extraData","type":"bytes","internalType":"bytes"}]},{"name":"_salt","type":"bytes32","internalType":"bytes32"}],"outputs":[{"name":"","type":"address","internalType":"contract IHyperdrive"}],"stateMutability":"payable"},{"type":"function","name":"deployTarget","inputs":[{"name":"_deploymentId","type":"bytes32","internalType":"bytes32"},{"name":"_deployerCoordinator","type":"address","internalType":"address"},{"name":"_config","type":"tuple","internalType":"struct IHyperdrive.PoolDeployConfig","components":[{"name":"baseToken","type":"address","internalType":"contract IERC20"},{"name":"vaultSharesToken","type":"address","internalType":"contract IERC20"},{"name":"linkerFactory","type":"address","internalType":"address"},{"name":"linkerCodeHash","type":"bytes32","internalType":"bytes32"},{"name":"minimumShareReserves","type":"uint256","internalType":"uint256"},{"name":"minimumTransactionAmount","type":"uint256","internalType":"uint256"},{"name":"circuitBreakerDelta","type":"uint256","internalType":"uint256"},{"name":"positionDuration","type":"uint256","internalType":"uint256"},{"name":"checkpointDuration","type":"uint256","internalType":"uint256"},{"name":"timeStretch","type":"uint256","internalType":"uint256"},{"name":"governance","type":"address","internalType":"address"},{"name":"feeCollector","type":"address","internalType":"address"},{"name":"sweepCollector","type":"address","internalType":"address"},{"name":"fees","type":"tuple","internalType":"struct IHyperdrive.Fees","components":[{"name":"curve","type":"uint256","internalType":"uint256"},{"name":"flat","type":"uint256","internalType":"uint256"},{"name":"governanceLP","type":"uint256","internalType":"uint256"},{"name":"governanceZombie","type":"uint256","internalType":"uint256"}]}]},{"name":"_extraData","type":"bytes","internalType":"bytes"},{"name":"_fixedAPR","type":"uint256","internalType":"uint256"},{"name":"_timeStretchAPR","type":"uint256","internalType":"uint256"},{"name":"_targetIndex","type":"uint256","internalType":"uint256"},{"name":"_salt","type":"bytes32","internalType":"bytes32"}],"outputs":[{"name":"","type":"address","internalType":"address"}],"stateMutability":"nonpayable"},{"type":"function","name":"feeCollector","inputs":[],"outputs":[{"name":"","type":"address","internalType":"address"}],"stateMutability":"view"},{"type":"function","name":"getDeployerCoordinatorAtIndex","inputs":[{"name":"index","type":"uint256","internalType":"uint256"}],"outputs":[{"name":"","type":"address","internalType":"address"}],"stateMutability":"view"},{"type":"function","name":"getDeployerCoordinatorsInRange","inputs":[{"name":"startIndex","type":"uint256","internalType":"uint256"},{"name":"endIndex","type":"uint256","internalType":"uint256"}],"outputs":[{"name":"range","type":"address[]","internalType":"address[]"}],"stateMutability":"view"},{"type":"function","name":"getInstanceAtIndex","inputs":[{"name":"index","type":"uint256","internalType":"uint256"}],"outputs":[{"name":"","type":"address","internalType":"address"}],"stateMutability":"view"},{"type":"function","name":"getInstancesInRange","inputs":[{"name":"startIndex","type":"uint256","internalType":"uint256"},{"name":"endIndex","type":"uint256","internalType":"uint256"}],"outputs":[{"name":"range","type":"address[]","internalType":"address[]"}],"stateMutability":"view"},{"type":"function","name":"getNumberOfDeployerCoordinators","inputs":[],"outputs":[{"name":"","type":"uint256","internalType":"uint256"}],"stateMutability":"view"},{"type":"function","name":"getNumberOfInstances","inputs":[],"outputs":[{"name":"","type":"uint256","internalType":"uint256"}],"stateMutability":"view"},{"type":"function","name":"governance","inputs":[],"outputs":[{"name":"","type":"address","internalType":"address"}],"stateMutability":"view"},{"type":"function","name":"hyperdriveGovernance","inputs":[],"outputs":[{"name":"","type":"address","internalType":"address"}],"stateMutability":"view"},{"type":"function","name":"instancesToDeployerCoordinators","inputs":[{"name":"instance","type":"address","internalType":"address"}],"outputs":[{"name":"deployCoordinator","type":"address","internalType":"address"}],"stateMutability":"view"},{"type":"function","name":"isDeployerCoordinator","inputs":[{"name":"","type":"address","internalType":"address"}],"outputs":[{"name":"","type":"bool","internalType":"bool"}],"stateMutability":"view"},{"type":"function","name":"isInstance","inputs":[{"name":"","type":"address","internalType":"address"}],"outputs":[{"name":"","type":"bool","internalType":"bool"}],"stateMutability":"view"},{"type":"function","name":"linkerCodeHash","inputs":[],"outputs":[{"name":"","type":"bytes32","internalType":"bytes32"}],"stateMutability":"view"},{"type":"function","name":"linkerFactory","inputs":[],"outputs":[{"name":"","type":"address","internalType":"address"}],"stateMutability":"view"},{"type":"function","name":"maxCheckpointDuration","inputs":[],"outputs":[{"name":"","type":"uint256","internalType":"uint256"}],"stateMutability":"view"},{"type":"function","name":"maxCircuitBreakerDelta","inputs":[],"outputs":[{"name":"","type":"uint256","internalType":"uint256"}],"stateMutability":"view"},{"type":"function","name":"maxFees","inputs":[],"outputs":[{"name":"","type":"tuple","internalType":"struct IHyperdrive.Fees","components":[{"name":"curve","type":"uint256","internalType":"uint256"},{"name":"flat","type":"uint256","internalType":"uint256"},{"name":"governanceLP","type":"uint256","internalType":"uint256"},{"name":"governanceZombie","type":"uint256","internalType":"uint256"}]}],"stateMutability":"view"},{"type":"function","name":"maxFixedAPR","inputs":[],"outputs":[{"name":"","type":"uint256","internalType":"uint256"}],"stateMutability":"view"},{"type":"function","name":"maxPositionDuration","inputs":[],"outputs":[{"name":"","type":"uint256","internalType":"uint256"}],"stateMutability":"view"},{"type":"function","name":"maxTimeStretchAPR","inputs":[],"outputs":[{"name":"","type":"uint256","internalType":"uint256"}],"stateMutability":"view"},{"type":"function","name":"minCheckpointDuration","inputs":[],"outputs":[{"name":"","type":"uint256","internalType":"uint256"}],"stateMutability":"view"},{"type":"function","name":"minCircuitBreakerDelta","inputs":[],"outputs":[{"name":"","type":"uint256","internalType":"uint256"}],"stateMutability":"view"},{"type":"function","name":"minFees","inputs":[],"outputs":[{"name":"","type":"tuple","internalType":"struct IHyperdrive.Fees","components":[{"name":"curve","type":"uint256","internalType":"uint256"},{"name":"flat","type":"uint256","internalType":"uint256"},{"name":"governanceLP","type":"uint256","internalType":"uint256"},{"name":"governanceZombie","type":"uint256","internalType":"uint256"}]}],"stateMutability":"view"},{"type":"function","name":"minFixedAPR","inputs":[],"outputs":[{"name":"","type":"uint256","internalType":"uint256"}],"stateMutability":"view"},{"type":"function","name":"minPositionDuration","inputs":[],"outputs":[{"name":"","type":"uint256","internalType":"uint256"}],"stateMutability":"view"},{"type":"function","name":"minTimeStretchAPR","inputs":[],"outputs":[{"name":"","type":"uint256","internalType":"uint256"}],"stateMutability":"view"},{"type":"function","name":"name","inputs":[],"outputs":[{"name":"","type":"string","internalType":"string"}],"stateMutability":"view"},{"type":"function","name":"removeDeployerCoordinator","inputs":[{"name":"_deployerCoordinator","type":"address","internalType":"address"},{"name":"_index","type":"uint256","internalType":"uint256"}],"outputs":[],"stateMutability":"nonpayable"},{"type":"function","name":"sweepCollector","inputs":[],"outputs":[{"name":"","type":"address","internalType":"address"}],"stateMutability":"view"},{"type":"function","name":"updateCheckpointDurationResolution","inputs":[{"name":"_checkpointDurationResolution","type":"uint256","internalType":"uint256"}],"outputs":[],"stateMutability":"nonpayable"},{"type":"function","name":"updateDefaultPausers","inputs":[{"name":"_defaultPausers_","type":"address[]","internalType":"address[]"}],"outputs":[],"stateMutability":"nonpayable"},{"type":"function","name":"updateFeeCollector","inputs":[{"name":"_feeCollector","type":"address","internalType":"address"}],"outputs":[],"stateMutability":"nonpayable"},{"type":"function","name":"updateGovernance","inputs":[{"name":"_governance","type":"address","internalType":"address"}],"outputs":[],"stateMutability":"nonpayable"},{"type":"function","name":"updateHyperdriveGovernance","inputs":[{"name":"_hyperdriveGovernance","type":"address","internalType":"address"}],"outputs":[],"stateMutability":"nonpayable"},{"type":"function","name":"updateLinkerCodeHash","inputs":[{"name":"_linkerCodeHash","type":"bytes32","internalType":"bytes32"}],"outputs":[],"stateMutability":"nonpayable"},{"type":"function","name":"updateLinkerFactory","inputs":[{"name":"_linkerFactory","type":"address","internalType":"address"}],"outputs":[],"stateMutability":"nonpayable"},{"type":"function","name":"updateMaxCheckpointDuration","inputs":[{"name":"_maxCheckpointDuration","type":"uint256","internalType":"uint256"}],"outputs":[],"stateMutability":"nonpayable"},{"type":"function","name":"updateMaxCircuitBreakerDelta","inputs":[{"name":"_maxCircuitBreakerDelta","type":"uint256","internalType":"uint256"}],"outputs":[],"stateMutability":"nonpayable"},{"type":"function","name":"updateMaxFees","inputs":[{"name":"__maxFees","type":"tuple","internalType":"struct IHyperdrive.Fees","components":[{"name":"curve","type":"uint256","internalType":"uint256"},{"name":"flat","type":"uint256","internalType":"uint256"},{"name":"governanceLP","type":"uint256","internalType":"uint256"},{"name":"governanceZombie","type":"uint256","internalType":"uint256"}]}],"outputs":[],"stateMutability":"nonpayable"},{"type":"function","name":"updateMaxFixedAPR","inputs":[{"name":"_maxFixedAPR","type":"uint256","internalType":"uint256"}],"outputs":[],"stateMutability":"nonpayable"},{"type":"function","name":"updateMaxPositionDuration","inputs":[{"name":"_maxPositionDuration","type":"uint256","internalType":"uint256"}],"outputs":[],"stateMutability":"nonpayable"},{"type":"function","name":"updateMaxTimeStretchAPR","inputs":[{"name":"_maxTimeStretchAPR","type":"uint256","internalType":"uint256"}],"outputs":[],"stateMutability":"nonpayable"},{"type":"function","name":"updateMinCheckpointDuration","inputs":[{"name":"_minCheckpointDuration","type":"uint256","internalType":"uint256"}],"outputs":[],"stateMutability":"nonpayable"},{"type":"function","name":"updateMinCircuitBreakerDelta","inputs":[{"name":"_minCircuitBreakerDelta","type":"uint256","internalType":"uint256"}],"outputs":[],"stateMutability":"nonpayable"},{"type":"function","name":"updateMinFees","inputs":[{"name":"__minFees","type":"tuple","internalType":"struct IHyperdrive.Fees","components":[{"name":"curve","type":"uint256","internalType":"uint256"},{"name":"flat","type":"uint256","internalType":"uint256"},{"name":"governanceLP","type":"uint256","internalType":"uint256"},{"name":"governanceZombie","type":"uint256","internalType":"uint256"}]}],"outputs":[],"stateMutability":"nonpayable"},{"type":"function","name":"updateMinFixedAPR","inputs":[{"name":"_minFixedAPR","type":"uint256","internalType":"uint256"}],"outputs":[],"stateMutability":"nonpayable"},{"type":"function","name":"updateMinPositionDuration","inputs":[{"name":"_minPositionDuration","type":"uint256","internalType":"uint256"}],"outputs":[],"stateMutability":"nonpayable"},{"type":"function","name":"updateMinTimeStretchAPR","inputs":[{"name":"_minTimeStretchAPR","type":"uint256","internalType":"uint256"}],"outputs":[],"stateMutability":"nonpayable"},{"type":"function","name":"updateSweepCollector","inputs":[{"name":"_sweepCollector","type":"address","internalType":"address"}],"outputs":[],"stateMutability":"nonpayable"},{"type":"function","name":"version","inputs":[],"outputs":[{"name":"","type":"string","internalType":"string"}],"stateMutability":"view"},{"type":"event","name":"CheckpointDurationResolutionUpdated","inputs":[{"name":"newCheckpointDurationResolution","type":"uint256","indexed":false,"internalType":"uint256"}],"anonymous":false},{"type":"event","name":"DefaultPausersUpdated","inputs":[{"name":"newDefaultPausers","type":"address[]","indexed":false,"internalType":"address[]"}],"anonymous":false},{"type":"event","name":"Deployed","inputs":[{"name":"deployerCoordinator","type":"address","indexed":true,"internalType":"address"},{"name":"hyperdrive","type":"address","indexed":false,"internalType":"address"},{"name":"config","type":"tuple","indexed":false,"internalType":"struct IHyperdrive.PoolDeployConfig","components":[{"name":"baseToken","type":"address","internalType":"contract IERC20"},{"name":"vaultSharesToken","type":"address","internalType":"contract IERC20"},{"name":"linkerFactory","type":"address","internalType":"address"},{"name":"linkerCodeHash","type":"bytes32","internalType":"bytes32"},{"name":"minimumShareReserves","type":"uint256","internalType":"uint256"},{"name":"minimumTransactionAmount","type":"uint256","internalType":"uint256"},{"name":"circuitBreakerDelta","type":"uint256","internalType":"uint256"},{"name":"positionDuration","type":"uint256","internalType":"uint256"},{"name":"checkpointDuration","type":"uint256","internalType":"uint256"},{"name":"timeStretch","type":"uint256","internalType":"uint256"},{"name":"governance","type":"address","internalType":"address"},{"name":"feeCollector","type":"address","internalType":"address"},{"name":"sweepCollector","type":"address","internalType":"address"},{"name":"fees","type":"tuple","internalType":"struct IHyperdrive.Fees","components":[{"name":"curve","type":"uint256","internalType":"uint256"},{"name":"flat","type":"uint256","internalType":"uint256"},{"name":"governanceLP","type":"uint256","internalType":"uint256"},{"name":"governanceZombie","type":"uint256","internalType":"uint256"}]}]},{"name":"extraData","type":"bytes","indexed":false,"internalType":"bytes"}],"anonymous":false},{"type":"event","name":"DeployerCoordinatorAdded","inputs":[{"name":"deployerCoordinator","type":"address","indexed":true,"internalType":"address"}],"anonymous":false},{"type":"event","name":"DeployerCoordinatorRemoved","inputs":[{"name":"deployerCoordinator","type":"address","indexed":true,"internalType":"address"}],"anonymous":false},{"type":"event","name":"FeeCollectorUpdated","inputs":[{"name":"newFeeCollector","type":"address","indexed":true,"internalType":"address"}],"anonymous":false},{"type":"event","name":"GovernanceUpdated","inputs":[{"name":"governance","type":"address","indexed":true,"internalType":"address"}],"anonymous":false},{"type":"event","name":"HyperdriveGovernanceUpdated","inputs":[{"name":"hyperdriveGovernance","type":"address","indexed":true,"internalType":"address"}],"anonymous":false},{"type":"event","name":"LinkerCodeHashUpdated","inputs":[{"name":"newLinkerCodeHash","type":"bytes32","indexed":true,"internalType":"bytes32"}],"anonymous":false},{"type":"event","name":"LinkerFactoryUpdated","inputs":[{"name":"newLinkerFactory","type":"address","indexed":true,"internalType":"address"}],"anonymous":false},{"type":"event","name":"MaxCheckpointDurationUpdated","inputs":[{"name":"newMaxCheckpointDuration","type":"uint256","indexed":false,"internalType":"uint256"}],"anonymous":false},{"type":"event","name":"MaxCircuitBreakerDeltaUpdated","inputs":[{"name":"newMaxCircuitBreakerDelta","type":"uint256","indexed":false,"internalType":"uint256"}],"anonymous":false},{"type":"event","name":"MaxFeesUpdated","inputs":[{"name":"newMaxFees","type":"tuple","indexed":false,"internalType":"struct IHyperdrive.Fees","components":[{"name":"curve","type":"uint256","internalType":"uint256"},{"name":"flat","type":"uint256","internalType":"uint256"},{"name":"governanceLP","type":"uint256","internalType":"uint256"},{"name":"governanceZombie","type":"uint256","internalType":"uint256"}]}],"anonymous":false},{"type":"event","name":"MaxFixedAPRUpdated","inputs":[{"name":"newMaxFixedAPR","type":"uint256","indexed":false,"internalType":"uint256"}],"anonymous":false},{"type":"event","name":"MaxPositionDurationUpdated","inputs":[{"name":"newMaxPositionDuration","type":"uint256","indexed":false,"internalType":"uint256"}],"anonymous":false},{"type":"event","name":"MaxTimeStretchAPRUpdated","inputs":[{"name":"newMaxTimeStretchAPR","type":"uint256","indexed":false,"internalType":"uint256"}],"anonymous":false},{"type":"event","name":"MinCheckpointDurationUpdated","inputs":[{"name":"newMinCheckpointDuration","type":"uint256","indexed":false,"internalType":"uint256"}],"anonymous":false},{"type":"event","name":"MinCircuitBreakerDeltaUpdated","inputs":[{"name":"newMinCircuitBreakerDelta","type":"uint256","indexed":false,"internalType":"uint256"}],"anonymous":false},{"type":"event","name":"MinFeesUpdated","inputs":[{"name":"newMinFees","type":"tuple","indexed":false,"internalType":"struct IHyperdrive.Fees","components":[{"name":"curve","type":"uint256","internalType":"uint256"},{"name":"flat","type":"uint256","internalType":"uint256"},{"name":"governanceLP","type":"uint256","internalType":"uint256"},{"name":"governanceZombie","type":"uint256","internalType":"uint256"}]}],"anonymous":false},{"type":"event","name":"MinFixedAPRUpdated","inputs":[{"name":"newMinFixedAPR","type":"uint256","indexed":false,"internalType":"uint256"}],"anonymous":false},{"type":"event","name":"MinPositionDurationUpdated","inputs":[{"name":"newMinPositionDuration","type":"uint256","indexed":false,"internalType":"uint256"}],"anonymous":false},{"type":"event","name":"MinTimeStretchAPRUpdated","inputs":[{"name":"newMinTimeStretchAPR","type":"uint256","indexed":false,"internalType":"uint256"}],"anonymous":false},{"type":"event","name":"SweepCollectorUpdated","inputs":[{"name":"newSweepCollector","type":"address","indexed":true,"internalType":"address"}],"anonymous":false},{"type":"error","name":"DeployerCoordinatorAlreadyAdded","inputs":[]},{"type":"error","name":"DeployerCoordinatorIndexMismatch","inputs":[]},{"type":"error","name":"DeployerCoordinatorNotAdded","inputs":[]},{"type":"error","name":"EndIndexTooLarge","inputs":[]},{"type":"error","name":"InvalidCheckpointDuration","inputs":[]},{"type":"error","name":"InvalidCheckpointDurationResolution","inputs":[]},{"type":"error","name":"InvalidCircuitBreakerDelta","inputs":[]},{"type":"error","name":"InvalidDeployConfig","inputs":[]},{"type":"error","name":"InvalidDeployerCoordinator","inputs":[]},{"type":"error","name":"InvalidFees","inputs":[]},{"type":"error","name":"InvalidFixedAPR","inputs":[]},{"type":"error","name":"InvalidIndexes","inputs":[]},{"type":"error","name":"InvalidMaxCheckpointDuration","inputs":[]},{"type":"error","name":"InvalidMaxCircuitBreakerDelta","inputs":[]},{"type":"error","name":"InvalidMaxFees","inputs":[]},{"type":"error","name":"InvalidMaxFixedAPR","inputs":[]},{"type":"error","name":"InvalidMaxPositionDuration","inputs":[]},{"type":"error","name":"InvalidMaxTimeStretchAPR","inputs":[]},{"type":"error","name":"InvalidMinCheckpointDuration","inputs":[]},{"type":"error","name":"InvalidMinCircuitBreakerDelta","inputs":[]},{"type":"error","name":"InvalidMinFees","inputs":[]},{"type":"error","name":"InvalidMinFixedAPR","inputs":[]},{"type":"error","name":"InvalidMinPositionDuration","inputs":[]},{"type":"error","name":"InvalidMinTimeStretchAPR","inputs":[]},{"type":"error","name":"InvalidPositionDuration","inputs":[]},{"type":"error","name":"InvalidTimeStretchAPR","inputs":[]},{"type":"error","name":"LnInvalidInput","inputs":[]},{"type":"error","name":"ReceiveLocked","inputs":[]},{"type":"error","name":"TransferFailed","inputs":[]},{"type":"error","name":"Unauthorized","inputs":[]},{"type":"error","name":"UnsafeCastToInt256","inputs":[]}],"bytecode":{"object":"0x608060405260026001553480156200001657600080fd5b5060405162003cfb38038062003cfb8339810160408190526200003991620006db565b600062000047828262000916565b508160a001518260c0015110806200007357508160a001518260c00151620000709190620009e2565b15155b156200009257604051630219d66360e11b815260040160405180910390fd5b60c0820151600981905560e08301511080620000c257508160a001518260e00151620000bf9190620009e2565b15155b15620000e15760405163f9c0959d60e01b815260040160405180910390fd5b60e0820151600a81905561010083015110806200011357508160a00151826101000151620001109190620009e2565b15155b156200013257604051633007ad0160e11b815260040160405180910390fd5b610100820151600b81905561012083015110806200016557508160a00151826101200151620001629190620009e2565b15155b15620001845760405163cfb699cb60e01b815260040160405180910390fd5b610120820151600c556101608201516101408301511115620001b95760405163ef9bc65f60e01b815260040160405180910390fd5b610140820151600d55610160820151600e556101a08201516101808301511115620001f7576040516330554de160e01b815260040160405180910390fd5b610180820151600f556101a08201516010556101e08201516101c0830151111562000235576040516383ebdfb760e01b815260040160405180910390fd5b6101c08201516011556101e082015160125561022082015151670de0b6b3a76400001080620002745750670de0b6b3a764000082610220015160200151115b80620002905750670de0b6b3a764000082610220015160400151115b80620002ac5750670de0b6b3a764000082610220015160600151115b15620002cb5760405163161071fb60e11b815260040160405180910390fd5b6102208201518051601781905560208201516018556040820151601955606090910151601a556102008301515111806200031657508161022001516020015182610200015160200151115b806200033357508161022001516040015182610200015160400151115b806200035057508161022001516060015182610200015160600151115b156200036f576040516315b05a8f60e01b815260040160405180910390fd5b61020082015180516013556020808201516014556040808301516015556060928301516016558451600280546001600160a01b03199081166001600160a01b039384161790915583870151600380548316918416919091179055938601516006805486169183169190911790556080860151600780549095169116179092559083015180516200040492601b92019062000441565b5050610240810151600480546001600160a01b0319166001600160a01b0390921691909117905561026081015160055560a0015160085562000a05565b82805482825590600052602060002090810192821562000499579160200282015b828111156200049957825182546001600160a01b0319166001600160a01b0390911617825560209092019160019091019062000462565b50620004a7929150620004ab565b5090565b5b80821115620004a75760008155600101620004ac565b634e487b7160e01b600052604160045260246000fd5b60405161028081016001600160401b0381118282101715620004fe57620004fe620004c2565b60405290565b604051601f8201601f191681016001600160401b03811182821017156200052f576200052f620004c2565b604052919050565b80516001600160a01b03811681146200054f57600080fd5b919050565b600082601f8301126200056657600080fd5b815160206001600160401b03821115620005845762000584620004c2565b8160051b6200059582820162000504565b9283528481018201928281019087851115620005b057600080fd5b83870192505b84831015620005da57620005ca8362000537565b82529183019190830190620005b6565b979650505050505050565b600060808284031215620005f857600080fd5b604051608081016001600160401b03811182821017156200061d576200061d620004c2565b8060405250809150825181526020830151602082015260408301516040820152606083015160608201525092915050565b600082601f8301126200066057600080fd5b81516001600160401b038111156200067c576200067c620004c2565b602062000692601f8301601f1916820162000504565b8281528582848701011115620006a757600080fd5b60005b83811015620006c7578581018301518282018401528201620006aa565b506000928101909101919091529392505050565b60008060408385031215620006ef57600080fd5b82516001600160401b03808211156200070757600080fd5b9084019061034082870312156200071d57600080fd5b62000727620004d8565b620007328362000537565b8152620007426020840162000537565b60208201526040830151828111156200075a57600080fd5b620007688882860162000554565b6040830152506200077c6060840162000537565b60608201526200078f6080840162000537565b608082015260a0838101519082015260c0808401519082015260e08084015190820152610100808401519082015261012080840151908201526101408084015190820152610160808401519082015261018080840151908201526101a080840151908201526101c080840151908201526101e080840151908201526102006200081b88828601620005e5565b908201526200082f876102808501620005e5565b61022082015262000844610300840162000537565b61024082015261032092909201516102608301526020850151919350808211156200086e57600080fd5b506200087d858286016200064e565b9150509250929050565b600181811c908216806200089c57607f821691505b602082108103620008bd57634e487b7160e01b600052602260045260246000fd5b50919050565b601f8211156200091157600081815260208120601f850160051c81016020861015620008ec5750805b601f850160051c820191505b818110156200090d57828155600101620008f8565b5050505b505050565b81516001600160401b03811115620009325762000932620004c2565b6200094a8162000943845462000887565b84620008c3565b602080601f831160018114620009825760008415620009695750858301515b600019600386901b1c1916600185901b1785556200090d565b600085815260208120601f198616915b82811015620009b35788860151825594840194600190910190840162000992565b5085821015620009d25787850151600019600388901b60f8161c191681555b5050505050600190811b01905550565b60008262000a0057634e487b7160e01b600052601260045260246000fd5b500690565b6132e68062000a156000396000f3fe6080604052600436106103545760003560e01c806397b0e8ce116101c6578063d6f50169116100f7578063e71f34b311610095578063ec895f111161006f578063ec895f11146109b9578063f8c09e59146109d9578063fe3d5aeb14610a09578063fec4513914610a2957600080fd5b8063e71f34b314610964578063e83e34b114610984578063eb71f66c1461099957600080fd5b8063dd2b8fbb116100d1578063dd2b8fbb146108f9578063e0e2daaa14610919578063e1b39c801461092f578063e33315551461094457600080fd5b8063d6f50169146108ad578063daac24da146108c3578063daf012e6146108e357600080fd5b8063bf9bd5cd11610164578063c905a4b51161013e578063c905a4b51461084b578063d0f96b9214610861578063d23d7ea314610877578063d2c35ce81461088d57600080fd5b8063bf9bd5cd146107f3578063c172256314610809578063c415b95c1461082b57600080fd5b8063a64c90bf116101a0578063a64c90bf1461077e578063b2561263146107a0578063b9fdb319146107c0578063bc30e7a1146107d357600080fd5b806397b0e8ce1461071e57806399623bb11461073e5780639af252621461075e57600080fd5b806354fd4d50116102a05780636f6d5c4a1161023e578063852297851161021857806385229785146106a85780638627a4f0146106c85780638e127cf5146106e85780638efc09861461070857600080fd5b80636f6d5c4a1461064857806383b361e81461066857806384c19aab1461068857600080fd5b8063628027a31161027a578063628027a31461059e5780636b44e6be146105be5780636c8cc865146105fd5780636e95d67c1461063357600080fd5b806354fd4d50146105365780635720c9d5146105685780635aa6e6751461057e57600080fd5b80632885e3ac1161030d578063421caba8116102e7578063421caba8146104ca5780634554f9a9146104ea57806348800760146105005780634fbfee771461051657600080fd5b80632885e3ac1461046a5780632907d3dd1461048a578063411c3035146104aa57600080fd5b806306fdde031461038357806310780f73146103ae57806310d1dc3e146103e657806311e77bfe146104065780631978ebcf146104265780631ecda0fe1461044657600080fd5b3661037e5760026001540361037c57604051630aac75b560e31b815260040160405180910390fd5b005b600080fd5b34801561038f57600080fd5b50610398610a49565b6040516103a59190612984565b60405180910390f35b3480156103ba57600080fd5b506007546103ce906001600160a01b031681565b6040516001600160a01b0390911681526020016103a5565b3480156103f257600080fd5b5061037c610401366004612997565b610ad7565b34801561041257600080fd5b5061037c6104213660046129a9565b610bf0565b34801561043257600080fd5b5061037c6104413660046129a9565b610cc9565b34801561045257600080fd5b5061045c600d5481565b6040519081526020016103a5565b34801561047657600080fd5b5061037c610485366004612997565b610d4b565b34801561049657600080fd5b5061037c6104a53660046129a9565b610eb1565b3480156104b657600080fd5b5061037c6104c53660046129ea565b610f33565b3480156104d657600080fd5b5061037c6104e5366004612a16565b6110eb565b3480156104f657600080fd5b5061045c600e5481565b34801561050c57600080fd5b5061045c60125481565b34801561052257600080fd5b5061037c6105313660046129a9565b6111db565b34801561054257600080fd5b50610398604051806040016040528060068152602001653b189718171960d11b81525081565b34801561057457600080fd5b5061045c60095481565b34801561058a57600080fd5b506002546103ce906001600160a01b031681565b3480156105aa57600080fd5b5061037c6105b93660046129a9565b611238565b3480156105ca57600080fd5b506105ed6105d9366004612a16565b602080526000908152604090205460ff1681565b60405190151581526020016103a5565b34801561060957600080fd5b506103ce610618366004612a16565b601e602052600090815260409020546001600160a01b031681565b34801561063f57600080fd5b50601f5461045c565b34801561065457600080fd5b5061037c6106633660046129a9565b6112ba565b34801561067457600080fd5b5061037c6106833660046129a9565b61135e565b34801561069457600080fd5b5061037c6106a33660046129a9565b6113e0565b3480156106b457600080fd5b5061037c6106c3366004612a16565b611462565b3480156106d457600080fd5b5061037c6106e3366004612a16565b6114d6565b3480156106f457600080fd5b5061037c6107033660046129a9565b61154a565b34801561071457600080fd5b5061045c600c5481565b34801561072a57600080fd5b5061037c6107393660046129a9565b6115ee565b34801561074a57600080fd5b506004546103ce906001600160a01b031681565b34801561076a57600080fd5b5061037c610779366004612a3a565b611670565b34801561078a57600080fd5b506107936116d8565b6040516103a59190612aaf565b3480156107ac57600080fd5b5061037c6107bb366004612a16565b61173a565b6103ce6107ce366004612d12565b6117ae565b3480156107df57600080fd5b506107936107ee366004612e41565b611b9b565b3480156107ff57600080fd5b5061045c60105481565b34801561081557600080fd5b5061081e611cb8565b6040516103a59190612e63565b34801561083757600080fd5b506006546103ce906001600160a01b031681565b34801561085757600080fd5b5061045c60055481565b34801561086d57600080fd5b5061045c60085481565b34801561088357600080fd5b5061045c600f5481565b34801561089957600080fd5b5061037c6108a8366004612a16565b611d10565b3480156108b957600080fd5b5061045c60115481565b3480156108cf57600080fd5b506103ce6108de3660046129a9565b611d84565b3480156108ef57600080fd5b5061045c600b5481565b34801561090557600080fd5b5061037c610914366004612a16565b611db4565b34801561092557600080fd5b5061045c600a5481565b34801561093b57600080fd5b50601c5461045c565b34801561095057600080fd5b506003546103ce906001600160a01b031681565b34801561097057600080fd5b5061037c61097f3660046129a9565b611e28565b34801561099057600080fd5b5061081e611ecc565b3480156109a557600080fd5b5061037c6109b43660046129a9565b611f24565b3480156109c557600080fd5b506107936109d4366004612e41565b611fbc565b3480156109e557600080fd5b506105ed6109f4366004612a16565b601d6020526000908152604090205460ff1681565b348015610a1557600080fd5b506103ce610a243660046129a9565b6120d2565b348015610a3557600080fd5b506103ce610a44366004612e8e565b6120e7565b60008054610a5690612f22565b80601f0160208091040260200160405190810160405280929190818152602001828054610a8290612f22565b8015610acf5780601f10610aa457610100808354040283529160200191610acf565b820191906000526020600020905b815481529060010190602001808311610ab257829003601f168201915b505050505081565b6002546001600160a01b03163314610b01576040516282b42960e81b815260040160405180910390fd5b60408051608081018252601754808252601854602083015260195492820192909252601a5460608201529082351180610b41575080602001518260200135115b80610b53575080604001518260400135115b80610b65575080606001518260600135115b15610b83576040516315b05a8f60e01b815260040160405180910390fd5b81356013819055602080840135601481905560408086013560158190556060808801356016819055835196875294860193909352908401528201527fe1c45f8aeb543f30b37cc2fccfbac0f32cc8f234284df921d71cff04e51ef421906080015b60405180910390a15050565b6002546001600160a01b03163314610c1a576040516282b42960e81b815260040160405180910390fd5b80600954610c289190612f56565b151580610c41575080600a54610c3e9190612f56565b15155b80610c58575080600b54610c559190612f56565b15155b80610c6f575080600c54610c6c9190612f56565b15155b15610c8d576040516311b75c1560e31b815260040160405180910390fd5b60088190556040518181527f04ed835b488b4fcf0a212a46ed67cbbffc2fc81b5cb6a12c546572cbf7b7e06a906020015b60405180910390a150565b6002546001600160a01b03163314610cf3576040516282b42960e81b815260040160405180910390fd5b601054811115610d1657604051631670f79760e01b815260040160405180910390fd5b600f8190556040518181527faab0ee9100629c405a4d75336e1640cc81e0608fb0d7f17389c06ee8d4f0219190602001610cbe565b6002546001600160a01b03163314610d75576040516282b42960e81b815260040160405180910390fd5b6040805160808101825260135481526014546020820152601554918101919091526016546060820152670de0b6b3a764000082351180610dc05750670de0b6b3a76400008260200135115b80610dd65750670de0b6b3a76400008260400135115b80610dec5750670de0b6b3a76400008260600135115b80610df8575080518235105b80610e0a575080602001518260200135105b80610e1c575080604001518260400135105b80610e2e575080606001518260600135105b15610e4c5760405163161071fb60e11b815260040160405180910390fd5b8135601781905560208084013560188190556040808601356019819055606080880135601a819055835196875294860193909352908401528201527f8c6093c7e65dd862e88162770c4e156e8a0da57d25d961e0fb6f28cfb7ff89a790608001610be4565b6002546001600160a01b03163314610edb576040516282b42960e81b815260040160405180910390fd5b600e54811115610efe576040516328a2d9a960e01b815260040160405180910390fd5b600d8190556040518181527f41f729b931ad8e33d697fff6bc6736a1ac6ee09e8265efae2794ac1635c217a690602001610cbe565b6002546001600160a01b03163314610f5d576040516282b42960e81b815260040160405180910390fd5b6001600160a01b0382166000908152601d602052604090205460ff16610f9657604051634bf121ab60e01b815260040160405180910390fd5b816001600160a01b0316601c8281548110610fb357610fb3612f78565b6000918252602090912001546001600160a01b031614610fe657604051630f2700cb60e21b815260040160405180910390fd5b6001600160a01b0382166000908152601d60205260409020805460ff19169055601c805461101690600190612fa4565b8154811061102657611026612f78565b600091825260209091200154601c80546001600160a01b03909216918390811061105257611052612f78565b9060005260206000200160006101000a8154816001600160a01b0302191690836001600160a01b03160217905550601c80548061109157611091612fb7565b600082815260208120820160001990810180546001600160a01b03191690559091019091556040516001600160a01b038416917f709b7450bfafda93efd91d29149870a794637ac9d696ca61625fd2f53548afe091a25050565b6002546001600160a01b03163314611115576040516282b42960e81b815260040160405180910390fd5b6001600160a01b0381166000908152601d602052604090205460ff161561114f5760405163bd34634f60e01b815260040160405180910390fd5b6001600160a01b0381166000818152601d6020526040808220805460ff19166001908117909155601c8054918201815583527f0e4562a10381dec21b205ed72637e6b1b523bdd0e4d4d50af5cd23dd4500a2110180546001600160a01b03191684179055517f16ce88285cfd59829a5aa04370a5ec8090a18c14e7e7fb9d4b12a42291c098e39190a250565b6002546001600160a01b03163314611205576040516282b42960e81b815260040160405180910390fd5b600581905560405181907f395a61259037298d1c4cd4bf177b64ad5995d38a9394573fcd9060d649314ad090600090a250565b6002546001600160a01b03163314611262576040516282b42960e81b815260040160405180910390fd5b60115481101561128557604051630a35539d60e41b815260040160405180910390fd5b60128190556040518181527fa9e7961bb3342715dbecc208087a6a9df8986d524b3a0a829fd90f5a2f5ba53e90602001610cbe565b6002546001600160a01b031633146112e4576040516282b42960e81b815260040160405180910390fd5b6009548110806112ff57506008546112fc9082612f56565b15155b8061130b5750600b5481115b156113295760405163f9c0959d60e01b815260040160405180910390fd5b600a8190556040518181527f31407ddd1722f500b8aa2c18e112398626dd7c2869a5f80731ec30b244d9b5f290602001610cbe565b6002546001600160a01b03163314611388576040516282b42960e81b815260040160405180910390fd5b6012548111156113ab57604051635a8f655760e01b815260040160405180910390fd5b60118190556040518181527f490eb2a91746aa933c9ffe2f7939aa06498f3259139f8805f008b12c8c697a4690602001610cbe565b6002546001600160a01b0316331461140a576040516282b42960e81b815260040160405180910390fd5b600d5481101561142d57604051637edc061360e11b815260040160405180910390fd5b600e8190556040518181527f0e56d83f54e6f5b08716a54b3abdb59b3025bf12c1875c87ab98ab081d6f838190602001610cbe565b6002546001600160a01b0316331461148c576040516282b42960e81b815260040160405180910390fd5b600480546001600160a01b0319166001600160a01b0383169081179091556040517f03aa5b0fb65014eea89fda04a7bc11742014881f3c078f2c75b7226ce10d941890600090a250565b6002546001600160a01b03163314611500576040516282b42960e81b815260040160405180910390fd5b600780546001600160a01b0319166001600160a01b0383169081179091556040517fc049058b1df2dd8902739ceb78992df12fa8369c06c450b3c6787137b452fdd290600090a250565b6002546001600160a01b03163314611574576040516282b42960e81b815260040160405180910390fd5b60085481108061158f575060085461158c9082612f56565b15155b8061159b5750600a5481115b156115b957604051630219d66360e11b815260040160405180910390fd5b60098190556040518181527f6f8175cdbac1b4d238abba24a17d2554d7b9750bbeda6414e191c478384b763190602001610cbe565b6002546001600160a01b03163314611618576040516282b42960e81b815260040160405180910390fd5b600f5481101561163b5760405163019cfb7b60e61b815260040160405180910390fd5b60108190556040518181527f4fa35c11ce9a45ae882c154ecb53ab5cac52a74a5b9b0373be36deb30c78297890602001610cbe565b6002546001600160a01b0316331461169a576040516282b42960e81b815260040160405180910390fd5b6116a6601b83836128cf565b507f2a85276cf604a3822e19b29a3e97aebfbc47a19025c2e8f6e80b3af774dcbc388282604051610be4929190612fcd565b6060601b80548060200260200160405190810160405280929190818152602001828054801561173057602002820191906000526020600020905b81546001600160a01b03168152600190910190602001808311611712575b5050505050905090565b6002546001600160a01b03163314611764576040516282b42960e81b815260040160405180910390fd5b600280546001600160a01b0319166001600160a01b0383169081179091556040517f9d3e522e1e47a2f6009739342b9cc7b252a1888154e843ab55ee1c81745795ab90600090a250565b6001600160a01b0388166000908152601d602052604081205460ff166117e757604051636e623f0f60e01b815260040160405180910390fd5b6117f28886866121d9565b60408051336020808301919091528183018d90528251808303840181526060830193849052805191012063c29d10c160e01b9092526000916001600160a01b038c169163c29d10c19161184d918d908d90899060640161311f565b6020604051808303816000875af115801561186c573d6000803e3d6000fd5b505050506040513d601f19601f82011682018060405250810190611890919061315a565b6001600160a01b038181166000908152601e60205260409081902080546001600160a01b0319168e84169081179091556003549092166101408d015251919250907ff353a3c7608dc37624175f4f0c0a6d2e6b418797ecbff5943616e9da3eb1ae82906119029084908d908d90613177565b60405180910390a2601f805460018082019092557fa03837a25210ee280c2113ff4b77ca23440b19d4866cca721c801278fd08d8070180546001600160a01b0319166001600160a01b0384811691821790925560009081526020808052604091829020805460ff1916851790559280558051339381019390935282018d90528b16906316abfc7090349060600160405160208183030381529060405280519060200120338b8b8a6040518763ffffffff1660e01b81526004016119c99594939291906131b2565b60206040518083038185885af11580156119e7573d6000803e3d6000fd5b50505050506040513d601f19601f82011682018060405250810190611a0c9190613215565b50600260015560005b601b54811015611ab857816001600160a01b0316637180c8ca601b8381548110611a4157611a41612f78565b60009182526020909120015460405160e083901b6001600160e01b03191681526001600160a01b03909116600482015260016024820152604401600060405180830381600087803b158015611a9557600080fd5b505af1158015611aa9573d6000803e3d6000fd5b50505050806001019050611a15565b5060035460405163ab033ea960e01b81526001600160a01b0391821660048201529082169063ab033ea990602401600060405180830381600087803b158015611b0057600080fd5b505af1158015611b14573d6000803e3d6000fd5b504792505081159050611b8c57604051600090339083908381818185875af1925050503d8060008114611b63576040519150601f19603f3d011682016040523d82523d6000602084013e611b68565b606091505b5050905080611b8a576040516312171d8360e31b815260040160405180910390fd5b505b509a9950505050505050505050565b606081831115611bbe57604051633b2735ab60e11b815260040160405180910390fd5b601f548210611be05760405163e0f7becb60e01b815260040160405180910390fd5b611bea8383612fa4565b611bf590600161322e565b67ffffffffffffffff811115611c0d57611c0d612afc565b604051908082528060200260200182016040528015611c36578160200160208202803683370190505b509050825b828111611cb157601f8181548110611c5557611c55612f78565b9060005260206000200160009054906101000a90046001600160a01b03168285830381518110611c8757611c87612f78565b6001600160a01b039092166020928302919091019091015280611ca981613241565b915050611c3b565b5092915050565b611ce36040518060800160405280600081526020016000815260200160008152602001600081525090565b50604080516080810182526013548152601454602082015260155491810191909152601654606082015290565b6002546001600160a01b03163314611d3a576040516282b42960e81b815260040160405180910390fd5b600680546001600160a01b0319166001600160a01b0383169081179091556040517fe5693914d19c789bdee50a362998c0bc8d035a835f9871da5d51152f0582c34f90600090a250565b6000601f8281548110611d9957611d99612f78565b6000918252602090912001546001600160a01b031692915050565b6002546001600160a01b03163314611dde576040516282b42960e81b815260040160405180910390fd5b600380546001600160a01b0319166001600160a01b0383169081179091556040517ff3e07b4bb4394f2ff320bd1dd151551dff304d5e948b401d8558b228482c97d890600090a250565b6002546001600160a01b03163314611e52576040516282b42960e81b815260040160405180910390fd5b600a54811080611e6d5750600854611e6a9082612f56565b15155b80611e795750600c5481115b15611e9757604051633007ad0160e11b815260040160405180910390fd5b600b8190556040518181527fe9ef3e93dff799d4db8a12ff79e0918a5a78d75b10527864f4b1c920f6f4f17890602001610cbe565b611ef76040518060800160405280600081526020016000815260200160008152602001600081525090565b50604080516080810182526017548152601854602082015260195491810191909152601a54606082015290565b6002546001600160a01b03163314611f4e576040516282b42960e81b815260040160405180910390fd5b600b54811080611f695750600854611f669082612f56565b15155b15611f875760405163cfb699cb60e01b815260040160405180910390fd5b600c8190556040518181527f866fe9485f9983afceaa1385307b6eb0fd3df5a250ae2b0bf76dc9ddd316926b90602001610cbe565b606081831115611fdf57604051633b2735ab60e11b815260040160405180910390fd5b601c5482106120015760405163e0f7becb60e01b815260040160405180910390fd5b61200b8383612fa4565b61201690600161322e565b67ffffffffffffffff81111561202e5761202e612afc565b604051908082528060200260200182016040528015612057578160200160208202803683370190505b509050825b828111611cb157601c818154811061207657612076612f78565b9060005260206000200160009054906101000a90046001600160a01b031682858303815181106120a8576120a8612f78565b6001600160a01b0390921660209283029190910190910152806120ca81613241565b91505061205c565b6000601c8281548110611d9957611d99612f78565b6001600160a01b0387166000908152601d602052604081205460ff1661212057604051636e623f0f60e01b815260040160405180910390fd5b61212b8786866121d9565b60408051336020808301919091528183018c905282518083038401815260608301938490528051910120637f88be8160e01b9092526000916001600160a01b038b1691637f88be8191612188918c908c908a908a9060640161325a565b6020604051808303816000875af11580156121a7573d6000803e3d6000fd5b505050506040513d601f19601f820116820180604052508101906121cb919061315a565b9a9950505050505050505050565b60095483610100015110806121f45750600a54836101000151115b80612210575060085483610100015161220d9190612f56565b15155b1561222e57604051635428734d60e01b815260040160405180910390fd5b600b548360e0015110806122475750600c548360e00151115b8061226557508261010001518360e001516122629190612f56565b15155b156122835760405163253fffcf60e11b815260040160405180910390fd5b600d548360c00151108061229c5750600e548360c00151115b156122ba5760405163ef9bc65f60e01b815260040160405180910390fd5b6017546101a08401515111806122ee575060185460e08401516101a0850151602001516122ec916301e133809061252b565b115b8061230357506019546101a084015160400151115b806123185750601a546101a084015160600151115b8061232a57506013546101a084015151105b80612353575060145460e08401516101a085015160200151612351916301e1338090612551565b105b8061236857506015546101a084015160400151105b8061237d57506016546101a084015160600151105b1561239b57604051632d8768f960e01b815260040160405180910390fd5b600f548210806123ac575060105482115b156123ca576040516330554de160e01b815260040160405180910390fd5b60006123ef6611c37937e080006123e985671bc16d674ec8000061256f565b9061258d565b6011549091506123ff908261258d565b821080612432575061242f612426671bc16d674ec80000612420868561258d565b906125a3565b601254906125b8565b82115b15612450576040516383ebdfb760e01b815260040160405180910390fd5b6000612460838660e001516125cd565b60045460408701519192506001600160a01b03918216911614158061248b5750600554856060015114155b806124aa57506006546101608601516001600160a01b03908116911614155b806124c957506007546101808601516001600160a01b03908116911614155b806124e857506003546101408601516001600160a01b03908116911614155b806124f7575061012085015115155b156125155760405163e8c02dd760e01b815260040160405180910390fd5b3061014086015261012090940193909352505050565b600082600019048411830215820261254257600080fd5b50910281810615159190040190565b600082600019048411830215820261256857600080fd5b5091020490565b600061258483670de0b6b3a764000084612551565b90505b92915050565b600081831161259c5781612584565b5090919050565b60006125848383670de0b6b3a7640000612551565b60008183116125c75782612584565b50919050565b6000806125fe6125ef6125e1866064613299565b66a5bbed86c5a000906125a3565b6748cd4072281e00009061256f565b9050612612670de0b6b3a76400008261256f565b905061266a8161242061263d61263861263389670de0b6b3a764000061322e565b612672565b6126a0565b6126646126386126528a8a6301e13380612551565b61263390670de0b6b3a764000061322e565b9061256f565b949350505050565b60006001600160ff1b0382111561269c5760405163396ea70160e11b815260040160405180910390fd5b5090565b60008082136126c25760405163e61b497560e01b815260040160405180910390fd5b506fffffffffffffffffffffffffffffffff811160071b81811c67ffffffffffffffff1060061b1781811c63ffffffff1060051b1781811c61ffff1060041b1781811c60ff10600390811b90911782811c600f1060021b1782811c909110600190811b90911782811c90911017609f8181036060019290921b91605f1982019061274e9084901c612672565b6c465772b2bbbb5f824b15207a3081018102606090811d6d0388eaa27412d5aca026815d636e018202811d6d0df99ac502031bf953eff472fdcc018202811d6d13cdffb29d51d99322bdff5f2211018202811d6d0a0f742023def783a307a986912e018202811d6d01920d8043ca89b5239253284e42018202811d6c0b7a86d7375468fac667a0a527016c29508e458543d8aa4df2abee7883018302821d6d0139601a2efabe717e604cbb4894018302821d6d02247f7a7b6594320649aa03aba1018302821d6c8c3f38e95a6b1ff2ab1c3b343619018302821d6d02384773bdf1ac5676facced60901901830290911d6cb9a025d814b29c212b8b1a07cd1901909102780a09507084cc699bb0e71ea869ffffffffffffffffffffffff190105711340daa0d5f769dba1915cef59f0815a5506027d0267a36c0c95b3975ab3ee5b203a7614a3f75373f047d803ae7b6687f2b391909102017d57115e47018c7177eebf7cd370a3356a1b7863008a5ae8028c72b88642840160ae1d92915050565b828054828255906000526020600020908101928215612922579160200282015b828111156129225781546001600160a01b0319166001600160a01b038435161782556020909201916001909101906128ef565b5061269c9291505b8082111561269c576000815560010161292a565b6000815180845260005b8181101561296457602081850181015186830182015201612948565b506000602082860101526020601f19601f83011685010191505092915050565b602081526000612584602083018461293e565b6000608082840312156125c757600080fd5b6000602082840312156129bb57600080fd5b5035919050565b6001600160a01b03811681146129d757600080fd5b50565b80356129e5816129c2565b919050565b600080604083850312156129fd57600080fd5b8235612a08816129c2565b946020939093013593505050565b600060208284031215612a2857600080fd5b8135612a33816129c2565b9392505050565b60008060208385031215612a4d57600080fd5b823567ffffffffffffffff80821115612a6557600080fd5b818501915085601f830112612a7957600080fd5b813581811115612a8857600080fd5b8660208260051b8501011115612a9d57600080fd5b60209290920196919550909350505050565b6020808252825182820181905260009190848201906040850190845b81811015612af05783516001600160a01b031683529284019291840191600101612acb565b50909695505050505050565b634e487b7160e01b600052604160045260246000fd5b6040516101c0810167ffffffffffffffff81118282101715612b3657612b36612afc565b60405290565b600060808284031215612b4e57600080fd5b6040516080810181811067ffffffffffffffff82111715612b7157612b71612afc565b8060405250809150823581526020830135602082015260408301356040820152606083013560608201525092915050565b60006102208284031215612bb557600080fd5b612bbd612b12565b9050612bc8826129da565b8152612bd6602083016129da565b6020820152612be7604083016129da565b6040820152606082013560608201526080820135608082015260a082013560a082015260c082013560c082015260e082013560e0820152610100808301358183015250610120808301358183015250610140612c448184016129da565b90820152610160612c568382016129da565b90820152610180612c688382016129da565b908201526101a0612c7b84848301612b3c565b9082015292915050565b600082601f830112612c9657600080fd5b813567ffffffffffffffff80821115612cb157612cb1612afc565b604051601f8301601f19908116603f01168101908282118183101715612cd957612cd9612afc565b81604052838152866020858801011115612cf257600080fd5b836020870160208301376000602085830101528094505050505092915050565b60008060008060008060008060006103208a8c031215612d3157600080fd5b8935985060208a0135612d43816129c2565b9750612d528b60408c01612ba2565b96506102608a013567ffffffffffffffff80821115612d7057600080fd5b612d7c8d838e01612c85565b97506102808c013596506102a08c013595506102c08c013594506102e08c0135915080821115612dab57600080fd5b908b01906060828e031215612dbf57600080fd5b604051606081018181108382111715612dda57612dda612afc565b6040528235612de8816129c2565b815260208301358015158114612dfd57600080fd5b6020820152604083013582811115612e1457600080fd5b612e208f828601612c85565b6040830152508094505050506103008a013590509295985092959850929598565b60008060408385031215612e5457600080fd5b50508035926020909101359150565b8151815260208083015190820152604080830151908201526060808301519082015260808101612587565b600080600080600080600080610300898b031215612eab57600080fd5b883597506020890135612ebd816129c2565b9650612ecc8a60408b01612ba2565b955061026089013567ffffffffffffffff811115612ee957600080fd5b612ef58b828c01612c85565b989b979a509598610280810135976102a082013597506102c082013596506102e090910135945092505050565b600181811c90821680612f3657607f821691505b6020821081036125c757634e487b7160e01b600052602260045260246000fd5b600082612f7357634e487b7160e01b600052601260045260246000fd5b500690565b634e487b7160e01b600052603260045260246000fd5b634e487b7160e01b600052601160045260246000fd5b8181038181111561258757612587612f8e565b634e487b7160e01b600052603160045260246000fd5b60208082528181018390526000908460408401835b86811015613010578235612ff5816129c2565b6001600160a01b031682529183019190830190600101612fe2565b509695505050505050565b80516001600160a01b03168252602081015161304260208401826001600160a01b03169052565b50604081015161305d60408401826001600160a01b03169052565b50606081015160608301526080810151608083015260a081015160a083015260c081015160c083015260e081015160e0830152610100808201518184015250610120808201518184015250610140808201516130c3828501826001600160a01b03169052565b5050610160818101516001600160a01b039081169184019190915261018080830151909116908301526101a09081015180519183019190915260208101516101c083015260408101516101e08301526060015161020090910152565b6000610280868352613134602084018761301b565b806102408401526131478184018661293e565b9150508261026083015295945050505050565b60006020828403121561316c57600080fd5b8151612a33816129c2565b6001600160a01b03841681526000610260613195602084018661301b565b806102408401526131a88184018561293e565b9695505050505050565b858152600060018060a01b03808716602084015285604084015284606084015260a060808401528084511660a0840152506020830151151560c08301526040830151606060e084015261320961010084018261293e565b98975050505050505050565b60006020828403121561322757600080fd5b5051919050565b8082018082111561258757612587612f8e565b60006001820161325357613253612f8e565b5060010190565b60006102a087835261326f602084018861301b565b806102408401526132828184018761293e565b610260840195909552505061028001529392505050565b808202811582820484141761258757612587612f8e56fea2646970667358221220c7d21cacfc8a4de3005ba3e56528a0495371542e30a0a0b890a1e2d6b45be79164736f6c63430008140033","linkReferences":{}},"methodIdentifiers":{"addDeployerCoordinator(address)":"421caba8","checkpointDurationResolution()":"d0f96b92","defaultPausers()":"a64c90bf","deployAndInitialize(bytes32,address,(address,address,address,bytes32,uint256,uint256,uint256,uint256,uint256,uint256,address,address,address,(uint256,uint256,uint256,uint256)),bytes,uint256,uint256,uint256,(address,bool,bytes),bytes32)":"b9fdb319","deployTarget(bytes32,address,(address,address,address,bytes32,uint256,uint256,uint256,uint256,uint256,uint256,address,address,address,(uint256,uint256,uint256,uint256)),bytes,uint256,uint256,uint256,bytes32)":"fec45139","feeCollector()":"c415b95c","getDeployerCoordinatorAtIndex(uint256)":"fe3d5aeb","getDeployerCoordinatorsInRange(uint256,uint256)":"ec895f11","getInstanceAtIndex(uint256)":"daac24da","getInstancesInRange(uint256,uint256)":"bc30e7a1","getNumberOfDeployerCoordinators()":"e1b39c80","getNumberOfInstances()":"6e95d67c","governance()":"5aa6e675","hyperdriveGovernance()":"e3331555","instancesToDeployerCoordinators(address)":"6c8cc865","isDeployerCoordinator(address)":"f8c09e59","isInstance(address)":"6b44e6be","linkerCodeHash()":"c905a4b5","linkerFactory()":"99623bb1","maxCheckpointDuration()":"e0e2daaa","maxCircuitBreakerDelta()":"4554f9a9","maxFees()":"e83e34b1","maxFixedAPR()":"bf9bd5cd","maxPositionDuration()":"8efc0986","maxTimeStretchAPR()":"48800760","minCheckpointDuration()":"5720c9d5","minCircuitBreakerDelta()":"1ecda0fe","minFees()":"c1722563","minFixedAPR()":"d23d7ea3","minPositionDuration()":"daf012e6","minTimeStretchAPR()":"d6f50169","name()":"06fdde03","removeDeployerCoordinator(address,uint256)":"411c3035","sweepCollector()":"10780f73","updateCheckpointDurationResolution(uint256)":"11e77bfe","updateDefaultPausers(address[])":"9af25262","updateFeeCollector(address)":"d2c35ce8","updateGovernance(address)":"b2561263","updateHyperdriveGovernance(address)":"dd2b8fbb","updateLinkerCodeHash(bytes32)":"4fbfee77","updateLinkerFactory(address)":"85229785","updateMaxCheckpointDuration(uint256)":"6f6d5c4a","updateMaxCircuitBreakerDelta(uint256)":"84c19aab","updateMaxFees((uint256,uint256,uint256,uint256))":"2885e3ac","updateMaxFixedAPR(uint256)":"97b0e8ce","updateMaxPositionDuration(uint256)":"eb71f66c","updateMaxTimeStretchAPR(uint256)":"628027a3","updateMinCheckpointDuration(uint256)":"8e127cf5","updateMinCircuitBreakerDelta(uint256)":"2907d3dd","updateMinFees((uint256,uint256,uint256,uint256))":"10d1dc3e","updateMinFixedAPR(uint256)":"1978ebcf","updateMinPositionDuration(uint256)":"e71f34b3","updateMinTimeStretchAPR(uint256)":"83b361e8","updateSweepCollector(address)":"8627a4f0","version()":"54fd4d50"},"id":36}