{"abi":[{"type":"constructor","inputs":[{"name":"_factoryConfig","type":"tuple","internalType":"struct HyperdriveFactory.FactoryConfig","components":[{"name":"governance","type":"address","internalType":"address"},{"name":"hyperdriveGovernance","type":"address","internalType":"address"},{"name":"defaultPausers","type":"address[]","internalType":"address[]"},{"name":"feeCollector","type":"address","internalType":"address"},{"name":"fees","type":"tuple","internalType":"struct IHyperdrive.Fees","components":[{"name":"curve","type":"uint256","internalType":"uint256"},{"name":"flat","type":"uint256","internalType":"uint256"},{"name":"governanceLP","type":"uint256","internalType":"uint256"},{"name":"governanceZombie","type":"uint256","internalType":"uint256"}]},{"name":"maxFees","type":"tuple","internalType":"struct IHyperdrive.Fees","components":[{"name":"curve","type":"uint256","internalType":"uint256"},{"name":"flat","type":"uint256","internalType":"uint256"},{"name":"governanceLP","type":"uint256","internalType":"uint256"},{"name":"governanceZombie","type":"uint256","internalType":"uint256"}]},{"name":"linkerFactory","type":"address","internalType":"address"},{"name":"linkerCodeHash","type":"bytes32","internalType":"bytes32"}]}],"stateMutability":"nonpayable"},{"type":"function","name":"addHyperdriveDeployer","inputs":[{"name":"_hyperdriveDeployer","type":"address","internalType":"address"}],"outputs":[],"stateMutability":"nonpayable"},{"type":"function","name":"deployAndInitialize","inputs":[{"name":"_hyperdriveDeployer","type":"address","internalType":"address"},{"name":"_deployConfig","type":"tuple","internalType":"struct IHyperdrive.PoolDeployConfig","components":[{"name":"baseToken","type":"address","internalType":"contract IERC20"},{"name":"linkerFactory","type":"address","internalType":"address"},{"name":"linkerCodeHash","type":"bytes32","internalType":"bytes32"},{"name":"minimumShareReserves","type":"uint256","internalType":"uint256"},{"name":"minimumTransactionAmount","type":"uint256","internalType":"uint256"},{"name":"positionDuration","type":"uint256","internalType":"uint256"},{"name":"checkpointDuration","type":"uint256","internalType":"uint256"},{"name":"timeStretch","type":"uint256","internalType":"uint256"},{"name":"governance","type":"address","internalType":"address"},{"name":"feeCollector","type":"address","internalType":"address"},{"name":"fees","type":"tuple","internalType":"struct IHyperdrive.Fees","components":[{"name":"curve","type":"uint256","internalType":"uint256"},{"name":"flat","type":"uint256","internalType":"uint256"},{"name":"governanceLP","type":"uint256","internalType":"uint256"},{"name":"governanceZombie","type":"uint256","internalType":"uint256"}]}]},{"name":"_extraData","type":"bytes","internalType":"bytes"},{"name":"_contribution","type":"uint256","internalType":"uint256"},{"name":"_apr","type":"uint256","internalType":"uint256"},{"name":"_initializeExtraData","type":"bytes","internalType":"bytes"}],"outputs":[{"name":"","type":"address","internalType":"contract IHyperdrive"}],"stateMutability":"payable"},{"type":"function","name":"feeCollector","inputs":[],"outputs":[{"name":"","type":"address","internalType":"address"}],"stateMutability":"view"},{"type":"function","name":"fees","inputs":[],"outputs":[{"name":"curve","type":"uint256","internalType":"uint256"},{"name":"flat","type":"uint256","internalType":"uint256"},{"name":"governanceLP","type":"uint256","internalType":"uint256"},{"name":"governanceZombie","type":"uint256","internalType":"uint256"}],"stateMutability":"view"},{"type":"function","name":"getDefaultPausers","inputs":[],"outputs":[{"name":"","type":"address[]","internalType":"address[]"}],"stateMutability":"view"},{"type":"function","name":"getHyperdriveDeployerAtIndex","inputs":[{"name":"index","type":"uint256","internalType":"uint256"}],"outputs":[{"name":"","type":"address","internalType":"address"}],"stateMutability":"view"},{"type":"function","name":"getHyperdriveDeployersInRange","inputs":[{"name":"startIndex","type":"uint256","internalType":"uint256"},{"name":"endIndex","type":"uint256","internalType":"uint256"}],"outputs":[{"name":"range","type":"address[]","internalType":"address[]"}],"stateMutability":"view"},{"type":"function","name":"getInstanceAtIndex","inputs":[{"name":"index","type":"uint256","internalType":"uint256"}],"outputs":[{"name":"","type":"address","internalType":"address"}],"stateMutability":"view"},{"type":"function","name":"getInstancesInRange","inputs":[{"name":"startIndex","type":"uint256","internalType":"uint256"},{"name":"endIndex","type":"uint256","internalType":"uint256"}],"outputs":[{"name":"range","type":"address[]","internalType":"address[]"}],"stateMutability":"view"},{"type":"function","name":"getNumberOfHyperdriveDeployers","inputs":[],"outputs":[{"name":"","type":"uint256","internalType":"uint256"}],"stateMutability":"view"},{"type":"function","name":"getNumberOfInstances","inputs":[],"outputs":[{"name":"","type":"uint256","internalType":"uint256"}],"stateMutability":"view"},{"type":"function","name":"governance","inputs":[],"outputs":[{"name":"","type":"address","internalType":"address"}],"stateMutability":"view"},{"type":"function","name":"hyperdriveGovernance","inputs":[],"outputs":[{"name":"","type":"address","internalType":"address"}],"stateMutability":"view"},{"type":"function","name":"isHyperdriveDeployer","inputs":[{"name":"","type":"address","internalType":"address"}],"outputs":[{"name":"","type":"bool","internalType":"bool"}],"stateMutability":"view"},{"type":"function","name":"isInstance","inputs":[{"name":"","type":"address","internalType":"address"}],"outputs":[{"name":"","type":"bool","internalType":"bool"}],"stateMutability":"view"},{"type":"function","name":"isOfficial","inputs":[{"name":"instance","type":"address","internalType":"address"}],"outputs":[{"name":"version","type":"uint256","internalType":"uint256"}],"stateMutability":"view"},{"type":"function","name":"linkerCodeHash","inputs":[],"outputs":[{"name":"","type":"bytes32","internalType":"bytes32"}],"stateMutability":"view"},{"type":"function","name":"linkerFactory","inputs":[],"outputs":[{"name":"","type":"address","internalType":"address"}],"stateMutability":"view"},{"type":"function","name":"removeHyperdriveDeployer","inputs":[{"name":"_hyperdriveDeployer","type":"address","internalType":"address"},{"name":"_index","type":"uint256","internalType":"uint256"}],"outputs":[],"stateMutability":"nonpayable"},{"type":"function","name":"updateDefaultPausers","inputs":[{"name":"_defaultPausers_","type":"address[]","internalType":"address[]"}],"outputs":[],"stateMutability":"nonpayable"},{"type":"function","name":"updateFeeCollector","inputs":[{"name":"_feeCollector","type":"address","internalType":"address"}],"outputs":[],"stateMutability":"nonpayable"},{"type":"function","name":"updateFees","inputs":[{"name":"_fees","type":"tuple","internalType":"struct IHyperdrive.Fees","components":[{"name":"curve","type":"uint256","internalType":"uint256"},{"name":"flat","type":"uint256","internalType":"uint256"},{"name":"governanceLP","type":"uint256","internalType":"uint256"},{"name":"governanceZombie","type":"uint256","internalType":"uint256"}]}],"outputs":[],"stateMutability":"nonpayable"},{"type":"function","name":"updateGovernance","inputs":[{"name":"_governance","type":"address","internalType":"address"}],"outputs":[],"stateMutability":"nonpayable"},{"type":"function","name":"updateHyperdriveGovernance","inputs":[{"name":"_hyperdriveGovernance","type":"address","internalType":"address"}],"outputs":[],"stateMutability":"nonpayable"},{"type":"function","name":"updateLinkerCodeHash","inputs":[{"name":"_linkerCodeHash","type":"bytes32","internalType":"bytes32"}],"outputs":[],"stateMutability":"nonpayable"},{"type":"function","name":"updateLinkerFactory","inputs":[{"name":"_linkerFactory","type":"address","internalType":"address"}],"outputs":[],"stateMutability":"nonpayable"},{"type":"function","name":"versionCounter","inputs":[],"outputs":[{"name":"","type":"uint256","internalType":"uint256"}],"stateMutability":"view"},{"type":"event","name":"Deployed","inputs":[{"name":"version","type":"uint256","indexed":true,"internalType":"uint256"},{"name":"hyperdrive","type":"address","indexed":false,"internalType":"address"},{"name":"config","type":"tuple","indexed":false,"internalType":"struct IHyperdrive.PoolDeployConfig","components":[{"name":"baseToken","type":"address","internalType":"contract IERC20"},{"name":"linkerFactory","type":"address","internalType":"address"},{"name":"linkerCodeHash","type":"bytes32","internalType":"bytes32"},{"name":"minimumShareReserves","type":"uint256","internalType":"uint256"},{"name":"minimumTransactionAmount","type":"uint256","internalType":"uint256"},{"name":"positionDuration","type":"uint256","internalType":"uint256"},{"name":"checkpointDuration","type":"uint256","internalType":"uint256"},{"name":"timeStretch","type":"uint256","internalType":"uint256"},{"name":"governance","type":"address","internalType":"address"},{"name":"feeCollector","type":"address","internalType":"address"},{"name":"fees","type":"tuple","internalType":"struct IHyperdrive.Fees","components":[{"name":"curve","type":"uint256","internalType":"uint256"},{"name":"flat","type":"uint256","internalType":"uint256"},{"name":"governanceLP","type":"uint256","internalType":"uint256"},{"name":"governanceZombie","type":"uint256","internalType":"uint256"}]}]},{"name":"extraData","type":"bytes","indexed":false,"internalType":"bytes"}],"anonymous":false},{"type":"event","name":"FeeCollectorUpdated","inputs":[{"name":"newFeeCollector","type":"address","indexed":true,"internalType":"address"}],"anonymous":false},{"type":"event","name":"GovernanceUpdated","inputs":[{"name":"governance","type":"address","indexed":true,"internalType":"address"}],"anonymous":false},{"type":"event","name":"HyperdriveGovernanceUpdated","inputs":[{"name":"hyperdriveGovernance","type":"address","indexed":true,"internalType":"address"}],"anonymous":false},{"type":"event","name":"ImplementationUpdated","inputs":[{"name":"newDeployer","type":"address","indexed":true,"internalType":"address"}],"anonymous":false},{"type":"event","name":"LinkerCodeHashUpdated","inputs":[{"name":"newLinkerCodeHash","type":"bytes32","indexed":true,"internalType":"bytes32"}],"anonymous":false},{"type":"event","name":"LinkerFactoryUpdated","inputs":[{"name":"newLinkerFactory","type":"address","indexed":true,"internalType":"address"}],"anonymous":false},{"type":"error","name":"ApprovalFailed","inputs":[]},{"type":"error","name":"EndIndexTooLarge","inputs":[]},{"type":"error","name":"FeeTooHigh","inputs":[]},{"type":"error","name":"HyperdriveDeployerAlreadyAdded","inputs":[]},{"type":"error","name":"HyperdriveDeployerIndexMismatch","inputs":[]},{"type":"error","name":"HyperdriveDeployerNotAdded","inputs":[]},{"type":"error","name":"InvalidDeployer","inputs":[]},{"type":"error","name":"InvalidIndexes","inputs":[]},{"type":"error","name":"MaxFeeTooHigh","inputs":[]},{"type":"error","name":"NonPayableInitialization","inputs":[]},{"type":"error","name":"Unauthorized","inputs":[]}],"bytecode":{"object":"0x610100604052600180553480156200001657600080fd5b5060405162001ef938038062001ef98339810160408190526200003991620003d8565b60a0808201805151608081905281516020015190925280516040015160c052516060015160e052670de0b6b3a764000010806200007f5750670de0b6b3a764000060a051115b80620000945750670de0b6b3a764000060c051115b80620000a95750670de0b6b3a764000060e051115b15620000c85760405163a3932d2d60e01b815260040160405180910390fd5b6080805190820151511180620000e7575060a051816080015160200151115b80620000fc575060c051816080015160400151115b8062000111575060e051816080015160600151115b15620001305760405163cd4e616760e01b815260040160405180910390fd5b608081015180516006556020808201516007556040808301516008556060928301516009558351600080546001600160a01b03199081166001600160a01b03938416179091558386015160038054831691841691909117905593850151600a8054909516911617909255908201518051620001b092600b920190620001e2565b5060c0810151600480546001600160a01b0319166001600160a01b0390921691909117905560e00151600555620004cf565b8280548282559060005260206000209081019282156200023a579160200282015b828111156200023a57825182546001600160a01b0319166001600160a01b0390911617825560209092019160019091019062000203565b50620002489291506200024c565b5090565b5b808211156200024857600081556001016200024d565b634e487b7160e01b600052604160045260246000fd5b60405161010081016001600160401b03811182821017156200029f576200029f62000263565b60405290565b80516001600160a01b0381168114620002bd57600080fd5b919050565b600082601f830112620002d457600080fd5b815160206001600160401b0380831115620002f357620002f362000263565b8260051b604051601f19603f830116810181811084821117156200031b576200031b62000263565b6040529384528581018301938381019250878511156200033a57600080fd5b83870191505b8482101562000364576200035482620002a5565b8352918301919083019062000340565b979650505050505050565b6000608082840312156200038257600080fd5b604051608081016001600160401b0381118282101715620003a757620003a762000263565b8060405250809150825181526020830151602082015260408301516040820152606083015160608201525092915050565b600060208284031215620003eb57600080fd5b81516001600160401b03808211156200040357600080fd5b908301906101c082860312156200041957600080fd5b6200042362000279565b6200042e83620002a5565b81526200043e60208401620002a5565b60208201526040830151828111156200045657600080fd5b6200046487828601620002c2565b6040830152506200047860608401620002a5565b60608201526200048c86608085016200036f565b6080820152620004a18661010085016200036f565b60a0820152620004b56101808401620002a5565b60c08201526101a0929092015160e0830152509392505050565b60805160a05160c05160e0516119f0620005096000396000610ab701526000610a8901526000610a5b01526000610a3101526119f06000f3fe60806040526004361061019c5760003560e01c80639af1d35a116100ec578063cd2cdf581161008a578063dd2b8fbb11610064578063dd2b8fbb146104df578063dd6d30c1146104ff578063e333155514610515578063f1e1b6601461053557600080fd5b8063cd2cdf581461048c578063d2c35ce81461049f578063daac24da146104bf57600080fd5b8063b2561263116100c6578063b256126314610416578063bc30e7a114610436578063c415b95c14610456578063c905a4b51461047657600080fd5b80639af1d35a1461039e5780639af25262146103e1578063a1ac11f51461040157600080fd5b80636e95d67c1161015957806380a6b8641161013357806380a6b8641461030e578063852297851461033e57806398a9c92b1461035e57806399623bb11461037e57600080fd5b80636e95d67c146102ad57806377b81aac146102cc5780637f7c5a7d146102f957600080fd5b806302fd2de9146101a15780634fbfee77146101c3578063503cf156146101e35780635aa6e675146102035780635f5a4e88146102405780636b44e6be1461026d575b600080fd5b3480156101ad57600080fd5b506101c16101bc366004611345565b610555565b005b3480156101cf57600080fd5b506101c16101de366004611369565b61061f565b3480156101ef57600080fd5b506101c16101fe366004611382565b61067c565b34801561020f57600080fd5b50600054610223906001600160a01b031681565b6040516001600160a01b0390911681526020015b60405180910390f35b34801561024c57600080fd5b5061026061025b3660046113ae565b610800565b60405161023791906113d0565b34801561027957600080fd5b5061029d610288366004611345565b600f6020526000908152604090205460ff1681565b6040519015158152602001610237565b3480156102b957600080fd5b50600e545b604051908152602001610237565b3480156102d857600080fd5b506102be6102e7366004611345565b60026020526000908152604090205481565b34801561030557600080fd5b5061026061091c565b34801561031a57600080fd5b5061029d610329366004611345565b600d6020526000908152604090205460ff1681565b34801561034a57600080fd5b506101c1610359366004611345565b61097e565b34801561036a57600080fd5b506101c161037936600461141d565b610a05565b34801561038a57600080fd5b50600454610223906001600160a01b031681565b3480156103aa57600080fd5b506006546007546008546009546103c19392919084565b604080519485526020850193909352918301526060820152608001610237565b3480156103ed57600080fd5b506101c16103fc366004611435565b610b1e565b34801561040d57600080fd5b50600c546102be565b34801561042257600080fd5b506101c1610431366004611345565b610b54565b34801561044257600080fd5b506102606104513660046113ae565b610bc6565b34801561046257600080fd5b50600a54610223906001600160a01b031681565b34801561048257600080fd5b506102be60055481565b61022361049a3660046115dd565b610cdb565b3480156104ab57600080fd5b506101c16104ba366004611345565b611178565b3480156104cb57600080fd5b506102236104da366004611369565b6111ec565b3480156104eb57600080fd5b506101c16104fa366004611345565b61121c565b34801561050b57600080fd5b506102be60015481565b34801561052157600080fd5b50600354610223906001600160a01b031681565b34801561054157600080fd5b50610223610550366004611369565b611290565b6000546001600160a01b0316331461057f576040516282b42960e81b815260040160405180910390fd5b6001600160a01b0381166000908152600d602052604090205460ff16156105b95760405163322026b560e21b815260040160405180910390fd5b6001600160a01b03166000818152600d60205260408120805460ff19166001908117909155600c805491820181559091527fdf6966c971051c3d54ec59162606531493a51404a002842f56009d7e5cf4a8c70180546001600160a01b0319169091179055565b6000546001600160a01b03163314610649576040516282b42960e81b815260040160405180910390fd5b600581905560405181907f395a61259037298d1c4cd4bf177b64ad5995d38a9394573fcd9060d649314ad090600090a250565b6000546001600160a01b031633146106a6576040516282b42960e81b815260040160405180910390fd5b6001600160a01b0382166000908152600d602052604090205460ff166106df57604051634793420960e11b815260040160405180910390fd5b816001600160a01b0316600c82815481106106fc576106fc611721565b6000918252602090912001546001600160a01b03161461072f5760405163e1a1578d60e01b815260040160405180910390fd5b6001600160a01b0382166000908152600d60205260409020805460ff19169055600c805461075f9060019061174d565b8154811061076f5761076f611721565b600091825260209091200154600c80546001600160a01b03909216918390811061079b5761079b611721565b9060005260206000200160006101000a8154816001600160a01b0302191690836001600160a01b03160217905550600c8054806107da576107da611766565b600082815260209020810160001990810180546001600160a01b03191690550190555050565b60608183111561082357604051633b2735ab60e11b815260040160405180910390fd5b600c548211156108465760405163e0f7becb60e01b815260040160405180910390fd5b610850838361174d565b61085b90600161177c565b67ffffffffffffffff811115610873576108736114aa565b60405190808252806020026020018201604052801561089c578160200160208202803683370190505b509050825b82811161091557600c81815481106108bb576108bb611721565b6000918252602090912001546001600160a01b0316826108db868461174d565b815181106108eb576108eb611721565b6001600160a01b03909216602092830291909101909101528061090d8161178f565b9150506108a1565b5092915050565b6060600b80548060200260200160405190810160405280929190818152602001828054801561097457602002820191906000526020600020905b81546001600160a01b03168152600190910190602001808311610956575b5050505050905090565b6000546001600160a01b031633146109a8576040516282b42960e81b815260040160405180910390fd5b6001600160a01b0381166109bb57600080fd5b600480546001600160a01b0319166001600160a01b0383169081179091556040517f03aa5b0fb65014eea89fda04a7bc11742014881f3c078f2c75b7226ce10d941890600090a250565b6000546001600160a01b03163314610a2f576040516282b42960e81b815260040160405180910390fd5b7f000000000000000000000000000000000000000000000000000000000000000081351180610a8157507f00000000000000000000000000000000000000000000000000000000000000008160200135115b80610aaf57507f00000000000000000000000000000000000000000000000000000000000000008160400135115b80610add57507f00000000000000000000000000000000000000000000000000000000000000008160600135115b15610afb5760405163cd4e616760e01b815260040160405180910390fd5b80356006556020810135600755604081013560085560600135600955565b505050565b6000546001600160a01b03163314610b48576040516282b42960e81b815260040160405180910390fd5b610b19600b83836112a5565b6000546001600160a01b03163314610b7e576040516282b42960e81b815260040160405180910390fd5b600080546001600160a01b0319166001600160a01b038316908117825560405190917f9d3e522e1e47a2f6009739342b9cc7b252a1888154e843ab55ee1c81745795ab91a250565b606081831115610be957604051633b2735ab60e11b815260040160405180910390fd5b600e54821115610c0c5760405163e0f7becb60e01b815260040160405180910390fd5b610c16838361174d565b610c2190600161177c565b67ffffffffffffffff811115610c3957610c396114aa565b604051908082528060200260200182016040528015610c62578160200160208202803683370190505b509050825b82811161091557600e8181548110610c8157610c81611721565b6000918252602090912001546001600160a01b031682610ca1868461174d565b81518110610cb157610cb1611721565b6001600160a01b039092166020928302919091019091015280610cd38161178f565b915050610c67565b60003415610cfc57604051638fbc3bd960e01b815260040160405180910390fd5b6001600160a01b0387166000908152600d602052604090205460ff16610d355760405163043c669f60e01b815260040160405180910390fd5b600480546001600160a01b039081166020808a01919091526005546040808b0191909152600a5483166101208b0152306101008b015280516080810182526006548152600754928101929092526008548282015260095460608301526101408a019190915251630c46909760e11b8152600092918a169163188d212e91610dc0918b918b91016118b6565b6020604051808303816000875af1158015610ddf573d6000803e3d6000fd5b505050506040513d601f19601f82011682018060405250810190610e0391906118e1565b6001546001600160a01b03808316600090815260026020526040908190208390556003549091166101008b015251919250907f9409438224258854b5587daf29ca81c2676ed86cd439240ca7aaa0c6e17cfa7690610e669084908b908b906118fe565b60405180910390a2600e805460018082019092557fbb7b4a454dc3493923482f07822329ed19e8244eff582cc204f8554c3620c3fd0180546001600160a01b0319166001600160a01b038481169182179092556000908152600f602052604090819020805460ff1916909317909255885191516323b872dd60e01b8152336004820152306024820152604481018890529116906323b872dd906064016020604051808303816000875af1158015610f21573d6000803e3d6000fd5b505050506040513d601f19601f82011682018060405250810190610f459190611939565b50865160405163095ea7b360e01b81526001600160a01b03838116600483015260001960248301529091169063095ea7b3906044016020604051808303816000875af1158015610f99573d6000803e3d6000fd5b505050506040513d601f19601f82011682018060405250810190610fbd9190611939565b610fda576040516340b27c2160e11b815260040160405180910390fd5b60408051606081018252338152600160208201528082018590529051631df417fd60e21b81526001600160a01b038316916377d05ff49161102291899189919060040161195b565b6020604051808303816000875af1158015611041573d6000803e3d6000fd5b505050506040513d601f19601f8201168201806040525081019061106591906119a1565b5060005b600b5481101561110c57816001600160a01b0316637180c8ca600b838154811061109557611095611721565b60009182526020909120015460405160e083901b6001600160e01b03191681526001600160a01b03909116600482015260016024820152604401600060405180830381600087803b1580156110e957600080fd5b505af11580156110fd573d6000803e3d6000fd5b50505050806001019050611069565b5060035460405163ab033ea960e01b81526001600160a01b0391821660048201529082169063ab033ea990602401600060405180830381600087803b15801561115457600080fd5b505af1158015611168573d6000803e3d6000fd5b50929a9950505050505050505050565b6000546001600160a01b031633146111a2576040516282b42960e81b815260040160405180910390fd5b600a80546001600160a01b0319166001600160a01b0383169081179091556040517fe5693914d19c789bdee50a362998c0bc8d035a835f9871da5d51152f0582c34f90600090a250565b6000600e828154811061120157611201611721565b6000918252602090912001546001600160a01b031692915050565b6000546001600160a01b03163314611246576040516282b42960e81b815260040160405180910390fd5b600380546001600160a01b0319166001600160a01b0383169081179091556040517ff3e07b4bb4394f2ff320bd1dd151551dff304d5e948b401d8558b228482c97d890600090a250565b6000600c828154811061120157611201611721565b8280548282559060005260206000209081019282156112f8579160200282015b828111156112f85781546001600160a01b0319166001600160a01b038435161782556020909201916001909101906112c5565b50611304929150611308565b5090565b5b808211156113045760008155600101611309565b6001600160a01b038116811461133257600080fd5b50565b80356113408161131d565b919050565b60006020828403121561135757600080fd5b81356113628161131d565b9392505050565b60006020828403121561137b57600080fd5b5035919050565b6000806040838503121561139557600080fd5b82356113a08161131d565b946020939093013593505050565b600080604083850312156113c157600080fd5b50508035926020909101359150565b6020808252825182820181905260009190848201906040850190845b818110156114115783516001600160a01b0316835292840192918401916001016113ec565b50909695505050505050565b60006080828403121561142f57600080fd5b50919050565b6000806020838503121561144857600080fd5b823567ffffffffffffffff8082111561146057600080fd5b818501915085601f83011261147457600080fd5b81358181111561148357600080fd5b8660208260051b850101111561149857600080fd5b60209290920196919550909350505050565b634e487b7160e01b600052604160045260246000fd5b604051610160810167ffffffffffffffff811182821017156114e4576114e46114aa565b60405290565b6000608082840312156114fc57600080fd5b6040516080810181811067ffffffffffffffff8211171561151f5761151f6114aa565b8060405250809150823581526020830135602082015260408301356040820152606083013560608201525092915050565b600082601f83011261156157600080fd5b813567ffffffffffffffff8082111561157c5761157c6114aa565b604051601f8301601f19908116603f011681019082821181831017156115a4576115a46114aa565b816040528381528660208588010111156115bd57600080fd5b836020870160208301376000602085830101528094505050505092915050565b6000806000806000808688036102608112156115f857600080fd5b87356116038161131d565b96506101c0601f198201121561161857600080fd5b506116216114c0565b61162d60208901611335565b815261163b60408901611335565b6020820152606088013560408201526080880135606082015260a0880135608082015260c088013560a082015260e088013560c08201526101008089013560e083015261012061168c818b01611335565b8284015261014091506116a0828b01611335565b908301526116b28a6101608b016114ea565b9082015294506101e087013567ffffffffffffffff808211156116d457600080fd5b6116e08a838b01611550565b95506102008901359450610220890135935061024089013591508082111561170757600080fd5b5061171489828a01611550565b9150509295509295509295565b634e487b7160e01b600052603260045260246000fd5b634e487b7160e01b600052601160045260246000fd5b8181038181111561176057611760611737565b92915050565b634e487b7160e01b600052603160045260246000fd5b8082018082111561176057611760611737565b6000600182016117a1576117a1611737565b5060010190565b80516001600160a01b0316825260208101516117cf60208401826001600160a01b03169052565b5060408101516040830152606081015160608301526080810151608083015260a081015160a083015260c081015160c083015260e081015160e083015261010080820151611827828501826001600160a01b03169052565b5050610120818101516001600160a01b0316908301526101409081015180519183019190915260208101516101608301526040810151610180830152606001516101a090910152565b6000815180845260005b818110156118965760208185018101518683018201520161187a565b506000602082860101526020601f19601f83011685010191505092915050565b60006101e06118c583866117a8565b806101c08401526118d881840185611870565b95945050505050565b6000602082840312156118f357600080fd5b81516113628161131d565b6001600160a01b0384168152600061020061191c60208401866117a8565b806101e084015261192f81840185611870565b9695505050505050565b60006020828403121561194b57600080fd5b8151801515811461136257600080fd5b8381528260208201526060604082015260018060a01b03825116606082015260208201511515608082015260006040830151606060a084015261192f60c0840182611870565b6000602082840312156119b357600080fd5b505191905056fea2646970667358221220fa0f28308599d5aed280718e836a07a610f028099f0de294829e004700554b6064736f6c63430008130033","linkReferences":{}},"methodIdentifiers":{"addHyperdriveDeployer(address)":"02fd2de9","deployAndInitialize(address,(address,address,bytes32,uint256,uint256,uint256,uint256,uint256,address,address,(uint256,uint256,uint256,uint256)),bytes,uint256,uint256,bytes)":"cd2cdf58","feeCollector()":"c415b95c","fees()":"9af1d35a","getDefaultPausers()":"7f7c5a7d","getHyperdriveDeployerAtIndex(uint256)":"f1e1b660","getHyperdriveDeployersInRange(uint256,uint256)":"5f5a4e88","getInstanceAtIndex(uint256)":"daac24da","getInstancesInRange(uint256,uint256)":"bc30e7a1","getNumberOfHyperdriveDeployers()":"a1ac11f5","getNumberOfInstances()":"6e95d67c","governance()":"5aa6e675","hyperdriveGovernance()":"e3331555","isHyperdriveDeployer(address)":"80a6b864","isInstance(address)":"6b44e6be","isOfficial(address)":"77b81aac","linkerCodeHash()":"c905a4b5","linkerFactory()":"99623bb1","removeHyperdriveDeployer(address,uint256)":"503cf156","updateDefaultPausers(address[])":"9af25262","updateFeeCollector(address)":"d2c35ce8","updateFees((uint256,uint256,uint256,uint256))":"98a9c92b","updateGovernance(address)":"b2561263","updateHyperdriveGovernance(address)":"dd2b8fbb","updateLinkerCodeHash(bytes32)":"4fbfee77","updateLinkerFactory(address)":"85229785","versionCounter()":"dd6d30c1"},"id":5}