{"abi":[{"type":"constructor","inputs":[{"name":"_factoryConfig","type":"tuple","internalType":"struct HyperdriveFactory.FactoryConfig","components":[{"name":"governance","type":"address","internalType":"address"},{"name":"hyperdriveGovernance","type":"address","internalType":"address"},{"name":"defaultPausers","type":"address[]","internalType":"address[]"},{"name":"feeCollector","type":"address","internalType":"address"},{"name":"checkpointDurationResolution","type":"uint256","internalType":"uint256"},{"name":"minCheckpointDuration","type":"uint256","internalType":"uint256"},{"name":"maxCheckpointDuration","type":"uint256","internalType":"uint256"},{"name":"minPositionDuration","type":"uint256","internalType":"uint256"},{"name":"maxPositionDuration","type":"uint256","internalType":"uint256"},{"name":"minFees","type":"tuple","internalType":"struct IHyperdrive.Fees","components":[{"name":"curve","type":"uint256","internalType":"uint256"},{"name":"flat","type":"uint256","internalType":"uint256"},{"name":"governanceLP","type":"uint256","internalType":"uint256"},{"name":"governanceZombie","type":"uint256","internalType":"uint256"}]},{"name":"maxFees","type":"tuple","internalType":"struct IHyperdrive.Fees","components":[{"name":"curve","type":"uint256","internalType":"uint256"},{"name":"flat","type":"uint256","internalType":"uint256"},{"name":"governanceLP","type":"uint256","internalType":"uint256"},{"name":"governanceZombie","type":"uint256","internalType":"uint256"}]},{"name":"linkerFactory","type":"address","internalType":"address"},{"name":"linkerCodeHash","type":"bytes32","internalType":"bytes32"}]}],"stateMutability":"nonpayable"},{"type":"function","name":"addDeployerCoordinator","inputs":[{"name":"_deployerCoordinator","type":"address","internalType":"address"}],"outputs":[],"stateMutability":"nonpayable"},{"type":"function","name":"checkpointDurationResolution","inputs":[],"outputs":[{"name":"","type":"uint256","internalType":"uint256"}],"stateMutability":"view"},{"type":"function","name":"defaultPausers","inputs":[],"outputs":[{"name":"","type":"address[]","internalType":"address[]"}],"stateMutability":"view"},{"type":"function","name":"deployAndInitialize","inputs":[{"name":"_deployerCoordinator","type":"address","internalType":"address"},{"name":"_deployConfig","type":"tuple","internalType":"struct IHyperdrive.PoolDeployConfig","components":[{"name":"baseToken","type":"address","internalType":"contract IERC20"},{"name":"linkerFactory","type":"address","internalType":"address"},{"name":"linkerCodeHash","type":"bytes32","internalType":"bytes32"},{"name":"minimumShareReserves","type":"uint256","internalType":"uint256"},{"name":"minimumTransactionAmount","type":"uint256","internalType":"uint256"},{"name":"positionDuration","type":"uint256","internalType":"uint256"},{"name":"checkpointDuration","type":"uint256","internalType":"uint256"},{"name":"timeStretch","type":"uint256","internalType":"uint256"},{"name":"governance","type":"address","internalType":"address"},{"name":"feeCollector","type":"address","internalType":"address"},{"name":"fees","type":"tuple","internalType":"struct IHyperdrive.Fees","components":[{"name":"curve","type":"uint256","internalType":"uint256"},{"name":"flat","type":"uint256","internalType":"uint256"},{"name":"governanceLP","type":"uint256","internalType":"uint256"},{"name":"governanceZombie","type":"uint256","internalType":"uint256"}]}]},{"name":"_extraData","type":"bytes","internalType":"bytes"},{"name":"_contribution","type":"uint256","internalType":"uint256"},{"name":"_apr","type":"uint256","internalType":"uint256"},{"name":"_initializeExtraData","type":"bytes","internalType":"bytes"}],"outputs":[{"name":"","type":"address","internalType":"contract IHyperdrive"}],"stateMutability":"payable"},{"type":"function","name":"feeCollector","inputs":[],"outputs":[{"name":"","type":"address","internalType":"address"}],"stateMutability":"view"},{"type":"function","name":"getDeployerCoordinatorAtIndex","inputs":[{"name":"index","type":"uint256","internalType":"uint256"}],"outputs":[{"name":"","type":"address","internalType":"address"}],"stateMutability":"view"},{"type":"function","name":"getDeployerCoordinatorsInRange","inputs":[{"name":"startIndex","type":"uint256","internalType":"uint256"},{"name":"endIndex","type":"uint256","internalType":"uint256"}],"outputs":[{"name":"range","type":"address[]","internalType":"address[]"}],"stateMutability":"view"},{"type":"function","name":"getInstanceAtIndex","inputs":[{"name":"index","type":"uint256","internalType":"uint256"}],"outputs":[{"name":"","type":"address","internalType":"address"}],"stateMutability":"view"},{"type":"function","name":"getInstancesInRange","inputs":[{"name":"startIndex","type":"uint256","internalType":"uint256"},{"name":"endIndex","type":"uint256","internalType":"uint256"}],"outputs":[{"name":"range","type":"address[]","internalType":"address[]"}],"stateMutability":"view"},{"type":"function","name":"getNumberOfDeployerCoordinators","inputs":[],"outputs":[{"name":"","type":"uint256","internalType":"uint256"}],"stateMutability":"view"},{"type":"function","name":"getNumberOfInstances","inputs":[],"outputs":[{"name":"","type":"uint256","internalType":"uint256"}],"stateMutability":"view"},{"type":"function","name":"governance","inputs":[],"outputs":[{"name":"","type":"address","internalType":"address"}],"stateMutability":"view"},{"type":"function","name":"hyperdriveGovernance","inputs":[],"outputs":[{"name":"","type":"address","internalType":"address"}],"stateMutability":"view"},{"type":"function","name":"isDeployerCoordinator","inputs":[{"name":"","type":"address","internalType":"address"}],"outputs":[{"name":"","type":"bool","internalType":"bool"}],"stateMutability":"view"},{"type":"function","name":"isInstance","inputs":[{"name":"","type":"address","internalType":"address"}],"outputs":[{"name":"","type":"bool","internalType":"bool"}],"stateMutability":"view"},{"type":"function","name":"isOfficial","inputs":[{"name":"instance","type":"address","internalType":"address"}],"outputs":[{"name":"version","type":"uint256","internalType":"uint256"}],"stateMutability":"view"},{"type":"function","name":"linkerCodeHash","inputs":[],"outputs":[{"name":"","type":"bytes32","internalType":"bytes32"}],"stateMutability":"view"},{"type":"function","name":"linkerFactory","inputs":[],"outputs":[{"name":"","type":"address","internalType":"address"}],"stateMutability":"view"},{"type":"function","name":"maxCheckpointDuration","inputs":[],"outputs":[{"name":"","type":"uint256","internalType":"uint256"}],"stateMutability":"view"},{"type":"function","name":"maxFees","inputs":[],"outputs":[{"name":"","type":"tuple","internalType":"struct IHyperdrive.Fees","components":[{"name":"curve","type":"uint256","internalType":"uint256"},{"name":"flat","type":"uint256","internalType":"uint256"},{"name":"governanceLP","type":"uint256","internalType":"uint256"},{"name":"governanceZombie","type":"uint256","internalType":"uint256"}]}],"stateMutability":"view"},{"type":"function","name":"maxPositionDuration","inputs":[],"outputs":[{"name":"","type":"uint256","internalType":"uint256"}],"stateMutability":"view"},{"type":"function","name":"minCheckpointDuration","inputs":[],"outputs":[{"name":"","type":"uint256","internalType":"uint256"}],"stateMutability":"view"},{"type":"function","name":"minFees","inputs":[],"outputs":[{"name":"","type":"tuple","internalType":"struct IHyperdrive.Fees","components":[{"name":"curve","type":"uint256","internalType":"uint256"},{"name":"flat","type":"uint256","internalType":"uint256"},{"name":"governanceLP","type":"uint256","internalType":"uint256"},{"name":"governanceZombie","type":"uint256","internalType":"uint256"}]}],"stateMutability":"view"},{"type":"function","name":"minPositionDuration","inputs":[],"outputs":[{"name":"","type":"uint256","internalType":"uint256"}],"stateMutability":"view"},{"type":"function","name":"removeDeployerCoordinator","inputs":[{"name":"_deployerCoordinator","type":"address","internalType":"address"},{"name":"_index","type":"uint256","internalType":"uint256"}],"outputs":[],"stateMutability":"nonpayable"},{"type":"function","name":"updateCheckpointDurationResolution","inputs":[{"name":"_checkpointDurationResolution","type":"uint256","internalType":"uint256"}],"outputs":[],"stateMutability":"nonpayable"},{"type":"function","name":"updateDefaultPausers","inputs":[{"name":"_defaultPausers_","type":"address[]","internalType":"address[]"}],"outputs":[],"stateMutability":"nonpayable"},{"type":"function","name":"updateFeeCollector","inputs":[{"name":"_feeCollector","type":"address","internalType":"address"}],"outputs":[],"stateMutability":"nonpayable"},{"type":"function","name":"updateGovernance","inputs":[{"name":"_governance","type":"address","internalType":"address"}],"outputs":[],"stateMutability":"nonpayable"},{"type":"function","name":"updateHyperdriveGovernance","inputs":[{"name":"_hyperdriveGovernance","type":"address","internalType":"address"}],"outputs":[],"stateMutability":"nonpayable"},{"type":"function","name":"updateLinkerCodeHash","inputs":[{"name":"_linkerCodeHash","type":"bytes32","internalType":"bytes32"}],"outputs":[],"stateMutability":"nonpayable"},{"type":"function","name":"updateLinkerFactory","inputs":[{"name":"_linkerFactory","type":"address","internalType":"address"}],"outputs":[],"stateMutability":"nonpayable"},{"type":"function","name":"updateMaxCheckpointDuration","inputs":[{"name":"_maxCheckpointDuration","type":"uint256","internalType":"uint256"}],"outputs":[],"stateMutability":"nonpayable"},{"type":"function","name":"updateMaxFees","inputs":[{"name":"__maxFees","type":"tuple","internalType":"struct IHyperdrive.Fees","components":[{"name":"curve","type":"uint256","internalType":"uint256"},{"name":"flat","type":"uint256","internalType":"uint256"},{"name":"governanceLP","type":"uint256","internalType":"uint256"},{"name":"governanceZombie","type":"uint256","internalType":"uint256"}]}],"outputs":[],"stateMutability":"nonpayable"},{"type":"function","name":"updateMaxPositionDuration","inputs":[{"name":"_maxPositionDuration","type":"uint256","internalType":"uint256"}],"outputs":[],"stateMutability":"nonpayable"},{"type":"function","name":"updateMinCheckpointDuration","inputs":[{"name":"_minCheckpointDuration","type":"uint256","internalType":"uint256"}],"outputs":[],"stateMutability":"nonpayable"},{"type":"function","name":"updateMinFees","inputs":[{"name":"__minFees","type":"tuple","internalType":"struct IHyperdrive.Fees","components":[{"name":"curve","type":"uint256","internalType":"uint256"},{"name":"flat","type":"uint256","internalType":"uint256"},{"name":"governanceLP","type":"uint256","internalType":"uint256"},{"name":"governanceZombie","type":"uint256","internalType":"uint256"}]}],"outputs":[],"stateMutability":"nonpayable"},{"type":"function","name":"updateMinPositionDuration","inputs":[{"name":"_minPositionDuration","type":"uint256","internalType":"uint256"}],"outputs":[],"stateMutability":"nonpayable"},{"type":"function","name":"versionCounter","inputs":[],"outputs":[{"name":"","type":"uint256","internalType":"uint256"}],"stateMutability":"view"},{"type":"event","name":"CheckpointDurationResolutionUpdated","inputs":[{"name":"newCheckpointDurationResolution","type":"uint256","indexed":false,"internalType":"uint256"}],"anonymous":false},{"type":"event","name":"DefaultPausersUpdated","inputs":[{"name":"newDefaultPausers","type":"address[]","indexed":false,"internalType":"address[]"}],"anonymous":false},{"type":"event","name":"Deployed","inputs":[{"name":"version","type":"uint256","indexed":true,"internalType":"uint256"},{"name":"hyperdrive","type":"address","indexed":false,"internalType":"address"},{"name":"config","type":"tuple","indexed":false,"internalType":"struct IHyperdrive.PoolDeployConfig","components":[{"name":"baseToken","type":"address","internalType":"contract IERC20"},{"name":"linkerFactory","type":"address","internalType":"address"},{"name":"linkerCodeHash","type":"bytes32","internalType":"bytes32"},{"name":"minimumShareReserves","type":"uint256","internalType":"uint256"},{"name":"minimumTransactionAmount","type":"uint256","internalType":"uint256"},{"name":"positionDuration","type":"uint256","internalType":"uint256"},{"name":"checkpointDuration","type":"uint256","internalType":"uint256"},{"name":"timeStretch","type":"uint256","internalType":"uint256"},{"name":"governance","type":"address","internalType":"address"},{"name":"feeCollector","type":"address","internalType":"address"},{"name":"fees","type":"tuple","internalType":"struct IHyperdrive.Fees","components":[{"name":"curve","type":"uint256","internalType":"uint256"},{"name":"flat","type":"uint256","internalType":"uint256"},{"name":"governanceLP","type":"uint256","internalType":"uint256"},{"name":"governanceZombie","type":"uint256","internalType":"uint256"}]}]},{"name":"extraData","type":"bytes","indexed":false,"internalType":"bytes"}],"anonymous":false},{"type":"event","name":"DeployerCoordinatorAdded","inputs":[{"name":"deployerCoordinator","type":"address","indexed":true,"internalType":"address"}],"anonymous":false},{"type":"event","name":"DeployerCoordinatorRemoved","inputs":[{"name":"deployerCoordinator","type":"address","indexed":true,"internalType":"address"}],"anonymous":false},{"type":"event","name":"FeeCollectorUpdated","inputs":[{"name":"newFeeCollector","type":"address","indexed":true,"internalType":"address"}],"anonymous":false},{"type":"event","name":"GovernanceUpdated","inputs":[{"name":"governance","type":"address","indexed":true,"internalType":"address"}],"anonymous":false},{"type":"event","name":"HyperdriveGovernanceUpdated","inputs":[{"name":"hyperdriveGovernance","type":"address","indexed":true,"internalType":"address"}],"anonymous":false},{"type":"event","name":"ImplementationUpdated","inputs":[{"name":"newDeployer","type":"address","indexed":true,"internalType":"address"}],"anonymous":false},{"type":"event","name":"LinkerCodeHashUpdated","inputs":[{"name":"newLinkerCodeHash","type":"bytes32","indexed":true,"internalType":"bytes32"}],"anonymous":false},{"type":"event","name":"LinkerFactoryUpdated","inputs":[{"name":"newLinkerFactory","type":"address","indexed":true,"internalType":"address"}],"anonymous":false},{"type":"event","name":"MaxCheckpointDurationUpdated","inputs":[{"name":"newMaxCheckpointDuration","type":"uint256","indexed":false,"internalType":"uint256"}],"anonymous":false},{"type":"event","name":"MaxFeesUpdated","inputs":[{"name":"newMaxFees","type":"tuple","indexed":false,"internalType":"struct IHyperdrive.Fees","components":[{"name":"curve","type":"uint256","internalType":"uint256"},{"name":"flat","type":"uint256","internalType":"uint256"},{"name":"governanceLP","type":"uint256","internalType":"uint256"},{"name":"governanceZombie","type":"uint256","internalType":"uint256"}]}],"anonymous":false},{"type":"event","name":"MaxPositionDurationUpdated","inputs":[{"name":"newMaxPositionDuration","type":"uint256","indexed":false,"internalType":"uint256"}],"anonymous":false},{"type":"event","name":"MinCheckpointDurationUpdated","inputs":[{"name":"newMinCheckpointDuration","type":"uint256","indexed":false,"internalType":"uint256"}],"anonymous":false},{"type":"event","name":"MinFeesUpdated","inputs":[{"name":"newMinFees","type":"tuple","indexed":false,"internalType":"struct IHyperdrive.Fees","components":[{"name":"curve","type":"uint256","internalType":"uint256"},{"name":"flat","type":"uint256","internalType":"uint256"},{"name":"governanceLP","type":"uint256","internalType":"uint256"},{"name":"governanceZombie","type":"uint256","internalType":"uint256"}]}],"anonymous":false},{"type":"event","name":"MinPositionDurationUpdated","inputs":[{"name":"newMinPositionDuration","type":"uint256","indexed":false,"internalType":"uint256"}],"anonymous":false},{"type":"error","name":"DeployerCoordinatorAlreadyAdded","inputs":[]},{"type":"error","name":"DeployerCoordinatorIndexMismatch","inputs":[]},{"type":"error","name":"DeployerCoordinatorNotAdded","inputs":[]},{"type":"error","name":"EndIndexTooLarge","inputs":[]},{"type":"error","name":"InvalidCheckpointDuration","inputs":[]},{"type":"error","name":"InvalidCheckpointDurationResolution","inputs":[]},{"type":"error","name":"InvalidDeployConfig","inputs":[]},{"type":"error","name":"InvalidDeployerCoordinator","inputs":[]},{"type":"error","name":"InvalidFees","inputs":[]},{"type":"error","name":"InvalidIndexes","inputs":[]},{"type":"error","name":"InvalidMaxCheckpointDuration","inputs":[]},{"type":"error","name":"InvalidMaxFees","inputs":[]},{"type":"error","name":"InvalidMaxPositionDuration","inputs":[]},{"type":"error","name":"InvalidMinCheckpointDuration","inputs":[]},{"type":"error","name":"InvalidMinFees","inputs":[]},{"type":"error","name":"InvalidMinPositionDuration","inputs":[]},{"type":"error","name":"InvalidPositionDuration","inputs":[]},{"type":"error","name":"TransferFailed","inputs":[]},{"type":"error","name":"Unauthorized","inputs":[]}],"bytecode":{"object":"0x608060405260016002553480156200001657600080fd5b5060405162002b3738038062002b37833981016040819052620000399162000556565b80608001518160a00151108062000064575080608001518160a0015162000061919062000688565b15155b156200008357604051630219d66360e11b815260040160405180910390fd5b60a0810151600881905560c08201511080620000b3575080608001518160c00151620000b0919062000688565b15155b15620000d25760405163f9c0959d60e01b815260040160405180910390fd5b60c0810151600981905560e0820151108062000102575080608001518160e00151620000ff919062000688565b15155b156200012157604051633007ad0160e11b815260040160405180910390fd5b60e0810151600a8190556101008201511080620001535750806080015181610100015162000150919062000688565b15155b15620001725760405163cfb699cb60e01b815260040160405180910390fd5b610100810151600b5561014081015151670de0b6b3a76400001080620001a85750670de0b6b3a764000081610140015160200151115b80620001c45750670de0b6b3a764000081610140015160400151115b80620001e05750670de0b6b3a764000081610140015160600151115b15620001ff5760405163161071fb60e11b815260040160405180910390fd5b61014081015180516010819055602082015160115560408201516012556060909101516013556101208201515111806200024a57508061014001516020015181610120015160200151115b806200026757508061014001516040015181610120015160400151115b806200028457508061014001516060015181610120015160600151115b15620002a3576040516315b05a8f60e01b815260040160405180910390fd5b6101208101518051600c55602080820151600d55604080830151600e55606092830151600f558351600180546001600160a01b03199081166001600160a01b03938416179091558386015160048054831691841691909117905593850151600780549095169116179092559082015180516200032492601492019062000360565b50610160810151600580546001600160a01b0319166001600160a01b0390921691909117905561018081015160065560800151600055620006ab565b828054828255906000526020600020908101928215620003b8579160200282015b82811115620003b857825182546001600160a01b0319166001600160a01b0390911617825560209092019160019091019062000381565b50620003c6929150620003ca565b5090565b5b80821115620003c65760008155600101620003cb565b634e487b7160e01b600052604160045260246000fd5b6040516101a081016001600160401b03811182821017156200041d576200041d620003e1565b60405290565b80516001600160a01b03811681146200043b57600080fd5b919050565b600082601f8301126200045257600080fd5b815160206001600160401b0380831115620004715762000471620003e1565b8260051b604051601f19603f83011681018181108482111715620004995762000499620003e1565b604052938452858101830193838101925087851115620004b857600080fd5b83870191505b84821015620004e257620004d28262000423565b83529183019190830190620004be565b979650505050505050565b6000608082840312156200050057600080fd5b604051608081016001600160401b0381118282101715620005255762000525620003e1565b8060405250809150825181526020830151602082015260408301516040820152606083015160608201525092915050565b6000602082840312156200056957600080fd5b81516001600160401b03808211156200058157600080fd5b9083019061026082860312156200059757600080fd5b620005a1620003f7565b620005ac8362000423565b8152620005bc6020840162000423565b6020820152604083015182811115620005d457600080fd5b620005e28782860162000440565b604083015250620005f66060840162000423565b60608201526080830151608082015260a083015160a082015260c083015160c082015260e083015160e08201526101009150818301518282015261012091506200064386838501620004ed565b8282015262000657866101a08501620004ed565b6101408201526200066c610220840162000423565b6101608201526102409290920151610180830152509392505050565b600082620006a657634e487b7160e01b600052601260045260246000fd5b500690565b61247c80620006bb6000396000f3fe6080604052600436106102305760003560e01c8063bc30e7a11161012e578063dd6d30c1116100ab578063e83e34b11161006f578063e83e34b11461066a578063eb71f66c1461067f578063ec895f111461069f578063f8c09e59146106bf578063fe3d5aeb146106ef57600080fd5b8063dd6d30c1146105e9578063e0e2daaa146105ff578063e1b39c8014610615578063e33315551461062a578063e71f34b31461064a57600080fd5b8063d0f96b92116100f2578063d0f96b921461055d578063d2c35ce814610573578063daac24da14610593578063daf012e6146105b3578063dd2b8fbb146105c957600080fd5b8063bc30e7a1146104d2578063c1722563146104f2578063c415b95c14610514578063c905a4b514610534578063cd2cdf581461054a57600080fd5b80636e95d67c116101bc5780638efc0986116101805780638efc09861461043a57806399623bb1146104505780639af2526214610470578063a64c90bf14610490578063b2561263146104b257600080fd5b80636e95d67c146103985780636f6d5c4a146103ad57806377b81aac146103cd57806385229785146103fa5780638e127cf51461041a57600080fd5b8063421caba811610203578063421caba8146102b75780634fbfee77146102d75780635720c9d5146102f75780635aa6e675146103205780636b44e6be1461035857600080fd5b806310d1dc3e1461023557806311e77bfe146102575780632885e3ac14610277578063411c303514610297575b600080fd5b34801561024157600080fd5b50610255610250366004611d34565b61070f565b005b34801561026357600080fd5b50610255610272366004611d4c565b6107f9565b34801561028357600080fd5b50610255610292366004611d34565b6108cb565b3480156102a357600080fd5b506102556102b2366004611d8d565b610a03565b3480156102c357600080fd5b506102556102d2366004611db9565b610bbb565b3480156102e357600080fd5b506102556102f2366004611d4c565b610cab565b34801561030357600080fd5b5061030d60085481565b6040519081526020015b60405180910390f35b34801561032c57600080fd5b50600154610340906001600160a01b031681565b6040516001600160a01b039091168152602001610317565b34801561036457600080fd5b50610388610373366004611db9565b60186020526000908152604090205460ff1681565b6040519015158152602001610317565b3480156103a457600080fd5b5060175461030d565b3480156103b957600080fd5b506102556103c8366004611d4c565b610d08565b3480156103d957600080fd5b5061030d6103e8366004611db9565b60036020526000908152604090205481565b34801561040657600080fd5b50610255610415366004611db9565b610dac565b34801561042657600080fd5b50610255610435366004611d4c565b610e20565b34801561044657600080fd5b5061030d600b5481565b34801561045c57600080fd5b50600554610340906001600160a01b031681565b34801561047c57600080fd5b5061025561048b366004611ddd565b610ec4565b34801561049c57600080fd5b506104a5610f38565b6040516103179190611e52565b3480156104be57600080fd5b506102556104cd366004611db9565b610f9a565b3480156104de57600080fd5b506104a56104ed366004611e9f565b61100e565b3480156104fe57600080fd5b5061050761112a565b6040516103179190611ec1565b34801561052057600080fd5b50600754610340906001600160a01b031681565b34801561054057600080fd5b5061030d60065481565b610340610558366004612021565b611182565b34801561056957600080fd5b5061030d60005481565b34801561057f57600080fd5b5061025561058e366004611db9565b6117da565b34801561059f57600080fd5b506103406105ae366004611d4c565b61184e565b3480156105bf57600080fd5b5061030d600a5481565b3480156105d557600080fd5b506102556105e4366004611db9565b61187e565b3480156105f557600080fd5b5061030d60025481565b34801561060b57600080fd5b5061030d60095481565b34801561062157600080fd5b5060155461030d565b34801561063657600080fd5b50600454610340906001600160a01b031681565b34801561065657600080fd5b50610255610665366004611d4c565b6118f2565b34801561067657600080fd5b50610507611996565b34801561068b57600080fd5b5061025561069a366004611d4c565b6119ee565b3480156106ab57600080fd5b506104a56106ba366004611e9f565b611a86565b3480156106cb57600080fd5b506103886106da366004611db9565b60166020526000908152604090205460ff1681565b3480156106fb57600080fd5b5061034061070a366004611d4c565b611b9b565b6001546001600160a01b03163314610739576040516282b42960e81b815260040160405180910390fd5b6010548135118061074f57506011546020820135115b8061075f57506012546040820135115b8061076f57506013546060820135115b1561078d576040516315b05a8f60e01b815260040160405180910390fd5b8035600c819055602080830135600d819055604080850135600e819055606080870135600f819055835196875294860193909352908401528201527fe1c45f8aeb543f30b37cc2fccfbac0f32cc8f234284df921d71cff04e51ef421906080015b60405180910390a150565b6001546001600160a01b03163314610823576040516282b42960e81b815260040160405180910390fd5b806008546108319190612165565b15158061084a5750806009546108479190612165565b15155b80610861575080600a5461085e9190612165565b15155b80610878575080600b546108759190612165565b15155b15610896576040516311b75c1560e31b815260040160405180910390fd5b60008190556040518181527f04ed835b488b4fcf0a212a46ed67cbbffc2fc81b5cb6a12c546572cbf7b7e06a906020016107ee565b6001546001600160a01b031633146108f5576040516282b42960e81b815260040160405180910390fd5b670de0b6b3a7640000813511806109175750670de0b6b3a76400008160200135115b8061092d5750670de0b6b3a76400008160400135115b806109435750670de0b6b3a76400008160600135115b806109505750600c548135105b806109605750600d546020820135105b806109705750600e546040820135105b806109805750600f546060820135105b1561099e5760405163161071fb60e11b815260040160405180910390fd5b80356010819055602080830135601181905560408085013560128190556060808701356013819055835196875294860193909352908401528201527f8c6093c7e65dd862e88162770c4e156e8a0da57d25d961e0fb6f28cfb7ff89a7906080016107ee565b6001546001600160a01b03163314610a2d576040516282b42960e81b815260040160405180910390fd5b6001600160a01b03821660009081526016602052604090205460ff16610a6657604051634bf121ab60e01b815260040160405180910390fd5b816001600160a01b031660158281548110610a8357610a83612187565b6000918252602090912001546001600160a01b031614610ab657604051630f2700cb60e21b815260040160405180910390fd5b6001600160a01b0382166000908152601660205260409020805460ff1916905560158054610ae6906001906121b3565b81548110610af657610af6612187565b600091825260209091200154601580546001600160a01b039092169183908110610b2257610b22612187565b9060005260206000200160006101000a8154816001600160a01b0302191690836001600160a01b031602179055506015805480610b6157610b616121c6565b600082815260208120820160001990810180546001600160a01b03191690559091019091556040516001600160a01b038416917f709b7450bfafda93efd91d29149870a794637ac9d696ca61625fd2f53548afe091a25050565b6001546001600160a01b03163314610be5576040516282b42960e81b815260040160405180910390fd5b6001600160a01b03811660009081526016602052604090205460ff1615610c1f5760405163bd34634f60e01b815260040160405180910390fd5b6001600160a01b038116600081815260166020526040808220805460ff1916600190811790915560158054918201815583527f55f448fdea98c4d29eb340757ef0a66cd03dbb9538908a6a81d96026b71ec4750180546001600160a01b03191684179055517f16ce88285cfd59829a5aa04370a5ec8090a18c14e7e7fb9d4b12a42291c098e39190a250565b6001546001600160a01b03163314610cd5576040516282b42960e81b815260040160405180910390fd5b600681905560405181907f395a61259037298d1c4cd4bf177b64ad5995d38a9394573fcd9060d649314ad090600090a250565b6001546001600160a01b03163314610d32576040516282b42960e81b815260040160405180910390fd5b600854811080610d4d5750600054610d4a9082612165565b15155b80610d595750600a5481115b15610d775760405163f9c0959d60e01b815260040160405180910390fd5b60098190556040518181527f31407ddd1722f500b8aa2c18e112398626dd7c2869a5f80731ec30b244d9b5f2906020016107ee565b6001546001600160a01b03163314610dd6576040516282b42960e81b815260040160405180910390fd5b600580546001600160a01b0319166001600160a01b0383169081179091556040517f03aa5b0fb65014eea89fda04a7bc11742014881f3c078f2c75b7226ce10d941890600090a250565b6001546001600160a01b03163314610e4a576040516282b42960e81b815260040160405180910390fd5b600054811080610e655750600054610e629082612165565b15155b80610e71575060095481115b15610e8f57604051630219d66360e11b815260040160405180910390fd5b60088190556040518181527f6f8175cdbac1b4d238abba24a17d2554d7b9750bbeda6414e191c478384b7631906020016107ee565b6001546001600160a01b03163314610eee576040516282b42960e81b815260040160405180910390fd5b610efa60148383611cbc565b507f2a85276cf604a3822e19b29a3e97aebfbc47a19025c2e8f6e80b3af774dcbc388282604051610f2c9291906121dc565b60405180910390a15050565b60606014805480602002602001604051908101604052809291908181526020018280548015610f9057602002820191906000526020600020905b81546001600160a01b03168152600190910190602001808311610f72575b5050505050905090565b6001546001600160a01b03163314610fc4576040516282b42960e81b815260040160405180910390fd5b600180546001600160a01b0319166001600160a01b0383169081179091556040517f9d3e522e1e47a2f6009739342b9cc7b252a1888154e843ab55ee1c81745795ab90600090a250565b60608183111561103157604051633b2735ab60e11b815260040160405180910390fd5b6017548211156110545760405163e0f7becb60e01b815260040160405180910390fd5b61105e83836121b3565b61106990600161222a565b67ffffffffffffffff81111561108157611081611eee565b6040519080825280602002602001820160405280156110aa578160200160208202803683370190505b509050825b82811161112357601781815481106110c9576110c9612187565b6000918252602090912001546001600160a01b0316826110e986846121b3565b815181106110f9576110f9612187565b6001600160a01b03909216602092830291909101909101528061111b8161223d565b9150506110af565b5092915050565b6111556040518060800160405280600081526020016000815260200160008152602001600081525090565b5060408051608081018252600c548152600d546020820152600e5491810191909152600f54606082015290565b6001600160a01b03861660009081526016602052604081205460ff166111bb57604051636e623f0f60e01b815260040160405180910390fd5b6008548660c0015110806111d457506009548660c00151115b806111ef57506000548660c001516111ec9190612165565b15155b1561120d57604051635428734d60e01b815260040160405180910390fd5b600a548660a0015110806112265750600b548660a00151115b8061124357508560c001518660a001516112409190612165565b15155b156112615760405163253fffcf60e11b815260040160405180910390fd5b601054610140870151511180611281575060115461014087015160200151115b80611296575060125461014087015160400151115b806112ab575060135461014087015160600151115b806112bd5750600c5461014087015151105b806112d25750600d5461014087015160200151105b806112e75750600e5461014087015160400151105b806112fc5750600f5461014087015160600151105b1561131a57604051632d8768f960e01b815260040160405180910390fd5b60208601516001600160a01b03161515806113385750604086015115155b8061135057506101208601516001600160a01b031615155b8061136857506101008601516001600160a01b031615155b156113865760405163e8c02dd760e01b815260040160405180910390fd5b6005546001600160a01b03908116602088015260065460408089019190915260075482166101208901523061010089015251630c46909760e11b815260009189169063188d212e906113de908a908a90600401612364565b6020604051808303816000875af11580156113fd573d6000803e3d6000fd5b505050506040513d601f19601f82011682018060405250810190611421919061238f565b6002546001600160a01b03808316600090815260036020526040908190208390556004549091166101008b015251919250907f9409438224258854b5587daf29ca81c2676ed86cd439240ca7aaa0c6e17cfa76906114849084908b908b906123ac565b60405180910390a26017805460018082019092557fc624b66cc0138b8fabc209247f72d758e1cf3343756d543badbf24212bed8c150180546001600160a01b0319166001600160a01b0384169081179091556000908152601860205260408120805460ff19169092179091553486116115975761150186346121b3565b60408051606081018252338152600160208201528082018790529051631df417fd60e21b81529192506001600160a01b038416916377d05ff491899161154e9183918b91906004016123e7565b60206040518083038185885af115801561156c573d6000803e3d6000fd5b50505050506040513d601f19601f82011682018060405250810190611591919061242d565b50611654565b50865134906115b1906001600160a01b0316333089611bb0565b87516115c7906001600160a01b03168388611c3f565b60408051606081018252338152600160208201528082018690529051631df417fd60e21b81526001600160a01b038416916377d05ff49161160f918a918a91906004016123e7565b6020604051808303816000875af115801561162e573d6000803e3d6000fd5b505050506040513d601f19601f82011682018060405250810190611652919061242d565b505b80156116c557604051600090339083908381818185875af1925050503d806000811461169c576040519150601f19603f3d011682016040523d82523d6000602084013e6116a1565b606091505b50509050806116c3576040516312171d8360e31b815260040160405180910390fd5b505b60005b60145481101561176b57826001600160a01b0316637180c8ca601483815481106116f4576116f4612187565b60009182526020909120015460405160e083901b6001600160e01b03191681526001600160a01b03909116600482015260016024820152604401600060405180830381600087803b15801561174857600080fd5b505af115801561175c573d6000803e3d6000fd5b505050508060010190506116c8565b506004805460405163ab033ea960e01b81526001600160a01b039182169281019290925283169063ab033ea990602401600060405180830381600087803b1580156117b557600080fd5b505af11580156117c9573d6000803e3d6000fd5b50939b9a5050505050505050505050565b6001546001600160a01b03163314611804576040516282b42960e81b815260040160405180910390fd5b600780546001600160a01b0319166001600160a01b0383169081179091556040517fe5693914d19c789bdee50a362998c0bc8d035a835f9871da5d51152f0582c34f90600090a250565b60006017828154811061186357611863612187565b6000918252602090912001546001600160a01b031692915050565b6001546001600160a01b031633146118a8576040516282b42960e81b815260040160405180910390fd5b600480546001600160a01b0319166001600160a01b0383169081179091556040517ff3e07b4bb4394f2ff320bd1dd151551dff304d5e948b401d8558b228482c97d890600090a250565b6001546001600160a01b0316331461191c576040516282b42960e81b815260040160405180910390fd5b60095481108061193757506000546119349082612165565b15155b806119435750600b5481115b1561196157604051633007ad0160e11b815260040160405180910390fd5b600a8190556040518181527fe9ef3e93dff799d4db8a12ff79e0918a5a78d75b10527864f4b1c920f6f4f178906020016107ee565b6119c16040518060800160405280600081526020016000815260200160008152602001600081525090565b50604080516080810182526010548152601154602082015260125491810191909152601354606082015290565b6001546001600160a01b03163314611a18576040516282b42960e81b815260040160405180910390fd5b600a54811080611a335750600054611a309082612165565b15155b15611a515760405163cfb699cb60e01b815260040160405180910390fd5b600b8190556040518181527f866fe9485f9983afceaa1385307b6eb0fd3df5a250ae2b0bf76dc9ddd316926b906020016107ee565b606081831115611aa957604051633b2735ab60e11b815260040160405180910390fd5b601554821115611acc5760405163e0f7becb60e01b815260040160405180910390fd5b611ad683836121b3565b611ae190600161222a565b67ffffffffffffffff811115611af957611af9611eee565b604051908082528060200260200182016040528015611b22578160200160208202803683370190505b509050825b8281116111235760158181548110611b4157611b41612187565b6000918252602090912001546001600160a01b031682611b6186846121b3565b81518110611b7157611b71612187565b6001600160a01b039092166020928302919091019091015280611b938161223d565b915050611b27565b60006015828154811061186357611863612187565b60006040516323b872dd60e01b81528460048201528360248201528260448201526020600060648360008a5af13d15601f3d1160016000511416171691505080611c385760405162461bcd60e51b81526020600482015260146024820152731514905394d1915497d19493d357d1905253115160621b60448201526064015b60405180910390fd5b5050505050565b600060405163095ea7b360e01b8152836004820152826024820152602060006044836000895af13d15601f3d1160016000511416171691505080611cb65760405162461bcd60e51b815260206004820152600e60248201526d1054141493d59157d1905253115160921b6044820152606401611c2f565b50505050565b828054828255906000526020600020908101928215611d0f579160200282015b82811115611d0f5781546001600160a01b0319166001600160a01b03843516178255602090920191600190910190611cdc565b50611d1b929150611d1f565b5090565b5b80821115611d1b5760008155600101611d20565b600060808284031215611d4657600080fd5b50919050565b600060208284031215611d5e57600080fd5b5035919050565b6001600160a01b0381168114611d7a57600080fd5b50565b8035611d8881611d65565b919050565b60008060408385031215611da057600080fd5b8235611dab81611d65565b946020939093013593505050565b600060208284031215611dcb57600080fd5b8135611dd681611d65565b9392505050565b60008060208385031215611df057600080fd5b823567ffffffffffffffff80821115611e0857600080fd5b818501915085601f830112611e1c57600080fd5b813581811115611e2b57600080fd5b8660208260051b8501011115611e4057600080fd5b60209290920196919550909350505050565b6020808252825182820181905260009190848201906040850190845b81811015611e935783516001600160a01b031683529284019291840191600101611e6e565b50909695505050505050565b60008060408385031215611eb257600080fd5b50508035926020909101359150565b81518152602080830151908201526040808301519082015260608083015190820152608081015b92915050565b634e487b7160e01b600052604160045260246000fd5b604051610160810167ffffffffffffffff81118282101715611f2857611f28611eee565b60405290565b600060808284031215611f4057600080fd5b6040516080810181811067ffffffffffffffff82111715611f6357611f63611eee565b8060405250809150823581526020830135602082015260408301356040820152606083013560608201525092915050565b600082601f830112611fa557600080fd5b813567ffffffffffffffff80821115611fc057611fc0611eee565b604051601f8301601f19908116603f01168101908282118183101715611fe857611fe8611eee565b8160405283815286602085880101111561200157600080fd5b836020870160208301376000602085830101528094505050505092915050565b60008060008060008086880361026081121561203c57600080fd5b873561204781611d65565b96506101c0601f198201121561205c57600080fd5b50612065611f04565b61207160208901611d7d565b815261207f60408901611d7d565b6020820152606088013560408201526080880135606082015260a0880135608082015260c088013560a082015260e088013560c08201526101008089013560e08301526101206120d0818b01611d7d565b8284015261014091506120e4828b01611d7d565b908301526120f68a6101608b01611f2e565b9082015294506101e087013567ffffffffffffffff8082111561211857600080fd5b6121248a838b01611f94565b95506102008901359450610220890135935061024089013591508082111561214b57600080fd5b5061215889828a01611f94565b9150509295509295509295565b60008261218257634e487b7160e01b600052601260045260246000fd5b500690565b634e487b7160e01b600052603260045260246000fd5b634e487b7160e01b600052601160045260246000fd5b81810381811115611ee857611ee861219d565b634e487b7160e01b600052603160045260246000fd5b60208082528181018390526000908460408401835b8681101561221f57823561220481611d65565b6001600160a01b0316825291830191908301906001016121f1565b509695505050505050565b80820180821115611ee857611ee861219d565b60006001820161224f5761224f61219d565b5060010190565b80516001600160a01b03168252602081015161227d60208401826001600160a01b03169052565b5060408101516040830152606081015160608301526080810151608083015260a081015160a083015260c081015160c083015260e081015160e0830152610100808201516122d5828501826001600160a01b03169052565b5050610120818101516001600160a01b031690830152610140808201518051828501526020810151610160850152604081015161018085015260608101516101a0850152611cb6565b6000815180845260005b8181101561234457602081850181015186830182015201612328565b506000602082860101526020601f19601f83011685010191505092915050565b60006101e06123738386612256565b806101c08401526123868184018561231e565b95945050505050565b6000602082840312156123a157600080fd5b8151611dd681611d65565b6001600160a01b038416815260006102006123ca6020840186612256565b806101e08401526123dd8184018561231e565b9695505050505050565b8381528260208201526060604082015260018060a01b03825116606082015260208201511515608082015260006040830151606060a08401526123dd60c084018261231e565b60006020828403121561243f57600080fd5b505191905056fea2646970667358221220b4aaf0d63c7a455572efc037a197120b3566a91f0d3c15de358cc1586a7dd7cf64736f6c63430008130033","linkReferences":{}},"methodIdentifiers":{"addDeployerCoordinator(address)":"421caba8","checkpointDurationResolution()":"d0f96b92","defaultPausers()":"a64c90bf","deployAndInitialize(address,(address,address,bytes32,uint256,uint256,uint256,uint256,uint256,address,address,(uint256,uint256,uint256,uint256)),bytes,uint256,uint256,bytes)":"cd2cdf58","feeCollector()":"c415b95c","getDeployerCoordinatorAtIndex(uint256)":"fe3d5aeb","getDeployerCoordinatorsInRange(uint256,uint256)":"ec895f11","getInstanceAtIndex(uint256)":"daac24da","getInstancesInRange(uint256,uint256)":"bc30e7a1","getNumberOfDeployerCoordinators()":"e1b39c80","getNumberOfInstances()":"6e95d67c","governance()":"5aa6e675","hyperdriveGovernance()":"e3331555","isDeployerCoordinator(address)":"f8c09e59","isInstance(address)":"6b44e6be","isOfficial(address)":"77b81aac","linkerCodeHash()":"c905a4b5","linkerFactory()":"99623bb1","maxCheckpointDuration()":"e0e2daaa","maxFees()":"e83e34b1","maxPositionDuration()":"8efc0986","minCheckpointDuration()":"5720c9d5","minFees()":"c1722563","minPositionDuration()":"daf012e6","removeDeployerCoordinator(address,uint256)":"411c3035","updateCheckpointDurationResolution(uint256)":"11e77bfe","updateDefaultPausers(address[])":"9af25262","updateFeeCollector(address)":"d2c35ce8","updateGovernance(address)":"b2561263","updateHyperdriveGovernance(address)":"dd2b8fbb","updateLinkerCodeHash(bytes32)":"4fbfee77","updateLinkerFactory(address)":"85229785","updateMaxCheckpointDuration(uint256)":"6f6d5c4a","updateMaxFees((uint256,uint256,uint256,uint256))":"2885e3ac","updateMaxPositionDuration(uint256)":"eb71f66c","updateMinCheckpointDuration(uint256)":"8e127cf5","updateMinFees((uint256,uint256,uint256,uint256))":"10d1dc3e","updateMinPositionDuration(uint256)":"e71f34b3","versionCounter()":"dd6d30c1"},"id":18}