{"abi":[{"type":"constructor","inputs":[{"name":"_factoryConfig","type":"tuple","internalType":"struct HyperdriveFactory.FactoryConfig","components":[{"name":"governance","type":"address","internalType":"address"},{"name":"deployerCoordinatorManager","type":"address","internalType":"address"},{"name":"hyperdriveGovernance","type":"address","internalType":"address"},{"name":"defaultPausers","type":"address[]","internalType":"address[]"},{"name":"feeCollector","type":"address","internalType":"address"},{"name":"sweepCollector","type":"address","internalType":"address"},{"name":"checkpointDurationResolution","type":"uint256","internalType":"uint256"},{"name":"minCheckpointDuration","type":"uint256","internalType":"uint256"},{"name":"maxCheckpointDuration","type":"uint256","internalType":"uint256"},{"name":"minPositionDuration","type":"uint256","internalType":"uint256"},{"name":"maxPositionDuration","type":"uint256","internalType":"uint256"},{"name":"minCircuitBreakerDelta","type":"uint256","internalType":"uint256"},{"name":"maxCircuitBreakerDelta","type":"uint256","internalType":"uint256"},{"name":"minFixedAPR","type":"uint256","internalType":"uint256"},{"name":"maxFixedAPR","type":"uint256","internalType":"uint256"},{"name":"minTimeStretchAPR","type":"uint256","internalType":"uint256"},{"name":"maxTimeStretchAPR","type":"uint256","internalType":"uint256"},{"name":"minFees","type":"tuple","internalType":"struct IHyperdrive.Fees","components":[{"name":"curve","type":"uint256","internalType":"uint256"},{"name":"flat","type":"uint256","internalType":"uint256"},{"name":"governanceLP","type":"uint256","internalType":"uint256"},{"name":"governanceZombie","type":"uint256","internalType":"uint256"}]},{"name":"maxFees","type":"tuple","internalType":"struct IHyperdrive.Fees","components":[{"name":"curve","type":"uint256","internalType":"uint256"},{"name":"flat","type":"uint256","internalType":"uint256"},{"name":"governanceLP","type":"uint256","internalType":"uint256"},{"name":"governanceZombie","type":"uint256","internalType":"uint256"}]},{"name":"linkerFactory","type":"address","internalType":"address"},{"name":"linkerCodeHash","type":"bytes32","internalType":"bytes32"}]},{"name":"_name","type":"string","internalType":"string"}],"stateMutability":"nonpayable"},{"type":"receive","stateMutability":"payable"},{"type":"function","name":"addDeployerCoordinator","inputs":[{"name":"_deployerCoordinator","type":"address","internalType":"address"}],"outputs":[],"stateMutability":"nonpayable"},{"type":"function","name":"checkpointDurationResolution","inputs":[],"outputs":[{"name":"","type":"uint256","internalType":"uint256"}],"stateMutability":"view"},{"type":"function","name":"defaultPausers","inputs":[],"outputs":[{"name":"","type":"address[]","internalType":"address[]"}],"stateMutability":"view"},{"type":"function","name":"deployAndInitialize","inputs":[{"name":"_deploymentId","type":"bytes32","internalType":"bytes32"},{"name":"_deployerCoordinator","type":"address","internalType":"address"},{"name":"_config","type":"tuple","internalType":"struct IHyperdrive.PoolDeployConfig","components":[{"name":"baseToken","type":"address","internalType":"contract IERC20"},{"name":"vaultSharesToken","type":"address","internalType":"contract IERC20"},{"name":"linkerFactory","type":"address","internalType":"address"},{"name":"linkerCodeHash","type":"bytes32","internalType":"bytes32"},{"name":"minimumShareReserves","type":"uint256","internalType":"uint256"},{"name":"minimumTransactionAmount","type":"uint256","internalType":"uint256"},{"name":"circuitBreakerDelta","type":"uint256","internalType":"uint256"},{"name":"positionDuration","type":"uint256","internalType":"uint256"},{"name":"checkpointDuration","type":"uint256","internalType":"uint256"},{"name":"timeStretch","type":"uint256","internalType":"uint256"},{"name":"governance","type":"address","internalType":"address"},{"name":"feeCollector","type":"address","internalType":"address"},{"name":"sweepCollector","type":"address","internalType":"address"},{"name":"fees","type":"tuple","internalType":"struct IHyperdrive.Fees","components":[{"name":"curve","type":"uint256","internalType":"uint256"},{"name":"flat","type":"uint256","internalType":"uint256"},{"name":"governanceLP","type":"uint256","internalType":"uint256"},{"name":"governanceZombie","type":"uint256","internalType":"uint256"}]}]},{"name":"_extraData","type":"bytes","internalType":"bytes"},{"name":"_contribution","type":"uint256","internalType":"uint256"},{"name":"_fixedAPR","type":"uint256","internalType":"uint256"},{"name":"_timeStretchAPR","type":"uint256","internalType":"uint256"},{"name":"_options","type":"tuple","internalType":"struct IHyperdrive.Options","components":[{"name":"destination","type":"address","internalType":"address"},{"name":"asBase","type":"bool","internalType":"bool"},{"name":"extraData","type":"bytes","internalType":"bytes"}]},{"name":"_salt","type":"bytes32","internalType":"bytes32"}],"outputs":[{"name":"","type":"address","internalType":"contract IHyperdrive"}],"stateMutability":"payable"},{"type":"function","name":"deployTarget","inputs":[{"name":"_deploymentId","type":"bytes32","internalType":"bytes32"},{"name":"_deployerCoordinator","type":"address","internalType":"address"},{"name":"_config","type":"tuple","internalType":"struct IHyperdrive.PoolDeployConfig","components":[{"name":"baseToken","type":"address","internalType":"contract IERC20"},{"name":"vaultSharesToken","type":"address","internalType":"contract IERC20"},{"name":"linkerFactory","type":"address","internalType":"address"},{"name":"linkerCodeHash","type":"bytes32","internalType":"bytes32"},{"name":"minimumShareReserves","type":"uint256","internalType":"uint256"},{"name":"minimumTransactionAmount","type":"uint256","internalType":"uint256"},{"name":"circuitBreakerDelta","type":"uint256","internalType":"uint256"},{"name":"positionDuration","type":"uint256","internalType":"uint256"},{"name":"checkpointDuration","type":"uint256","internalType":"uint256"},{"name":"timeStretch","type":"uint256","internalType":"uint256"},{"name":"governance","type":"address","internalType":"address"},{"name":"feeCollector","type":"address","internalType":"address"},{"name":"sweepCollector","type":"address","internalType":"address"},{"name":"fees","type":"tuple","internalType":"struct IHyperdrive.Fees","components":[{"name":"curve","type":"uint256","internalType":"uint256"},{"name":"flat","type":"uint256","internalType":"uint256"},{"name":"governanceLP","type":"uint256","internalType":"uint256"},{"name":"governanceZombie","type":"uint256","internalType":"uint256"}]}]},{"name":"_extraData","type":"bytes","internalType":"bytes"},{"name":"_fixedAPR","type":"uint256","internalType":"uint256"},{"name":"_timeStretchAPR","type":"uint256","internalType":"uint256"},{"name":"_targetIndex","type":"uint256","internalType":"uint256"},{"name":"_salt","type":"bytes32","internalType":"bytes32"}],"outputs":[{"name":"","type":"address","internalType":"address"}],"stateMutability":"nonpayable"},{"type":"function","name":"deployerCoordinatorManager","inputs":[],"outputs":[{"name":"","type":"address","internalType":"address"}],"stateMutability":"view"},{"type":"function","name":"feeCollector","inputs":[],"outputs":[{"name":"","type":"address","internalType":"address"}],"stateMutability":"view"},{"type":"function","name":"getDeployerCoordinatorAtIndex","inputs":[{"name":"index","type":"uint256","internalType":"uint256"}],"outputs":[{"name":"","type":"address","internalType":"address"}],"stateMutability":"view"},{"type":"function","name":"getDeployerCoordinatorsInRange","inputs":[{"name":"startIndex","type":"uint256","internalType":"uint256"},{"name":"endIndex","type":"uint256","internalType":"uint256"}],"outputs":[{"name":"range","type":"address[]","internalType":"address[]"}],"stateMutability":"view"},{"type":"function","name":"getInstanceAtIndex","inputs":[{"name":"index","type":"uint256","internalType":"uint256"}],"outputs":[{"name":"","type":"address","internalType":"address"}],"stateMutability":"view"},{"type":"function","name":"getInstancesInRange","inputs":[{"name":"startIndex","type":"uint256","internalType":"uint256"},{"name":"endIndex","type":"uint256","internalType":"uint256"}],"outputs":[{"name":"range","type":"address[]","internalType":"address[]"}],"stateMutability":"view"},{"type":"function","name":"getNumberOfDeployerCoordinators","inputs":[],"outputs":[{"name":"","type":"uint256","internalType":"uint256"}],"stateMutability":"view"},{"type":"function","name":"getNumberOfInstances","inputs":[],"outputs":[{"name":"","type":"uint256","internalType":"uint256"}],"stateMutability":"view"},{"type":"function","name":"governance","inputs":[],"outputs":[{"name":"","type":"address","internalType":"address"}],"stateMutability":"view"},{"type":"function","name":"hyperdriveGovernance","inputs":[],"outputs":[{"name":"","type":"address","internalType":"address"}],"stateMutability":"view"},{"type":"function","name":"instancesToDeployerCoordinators","inputs":[{"name":"instance","type":"address","internalType":"address"}],"outputs":[{"name":"deployCoordinator","type":"address","internalType":"address"}],"stateMutability":"view"},{"type":"function","name":"isDeployerCoordinator","inputs":[{"name":"","type":"address","internalType":"address"}],"outputs":[{"name":"","type":"bool","internalType":"bool"}],"stateMutability":"view"},{"type":"function","name":"isInstance","inputs":[{"name":"","type":"address","internalType":"address"}],"outputs":[{"name":"","type":"bool","internalType":"bool"}],"stateMutability":"view"},{"type":"function","name":"linkerCodeHash","inputs":[],"outputs":[{"name":"","type":"bytes32","internalType":"bytes32"}],"stateMutability":"view"},{"type":"function","name":"linkerFactory","inputs":[],"outputs":[{"name":"","type":"address","internalType":"address"}],"stateMutability":"view"},{"type":"function","name":"maxCheckpointDuration","inputs":[],"outputs":[{"name":"","type":"uint256","internalType":"uint256"}],"stateMutability":"view"},{"type":"function","name":"maxCircuitBreakerDelta","inputs":[],"outputs":[{"name":"","type":"uint256","internalType":"uint256"}],"stateMutability":"view"},{"type":"function","name":"maxFees","inputs":[],"outputs":[{"name":"","type":"tuple","internalType":"struct IHyperdrive.Fees","components":[{"name":"curve","type":"uint256","internalType":"uint256"},{"name":"flat","type":"uint256","internalType":"uint256"},{"name":"governanceLP","type":"uint256","internalType":"uint256"},{"name":"governanceZombie","type":"uint256","internalType":"uint256"}]}],"stateMutability":"view"},{"type":"function","name":"maxFixedAPR","inputs":[],"outputs":[{"name":"","type":"uint256","internalType":"uint256"}],"stateMutability":"view"},{"type":"function","name":"maxPositionDuration","inputs":[],"outputs":[{"name":"","type":"uint256","internalType":"uint256"}],"stateMutability":"view"},{"type":"function","name":"maxTimeStretchAPR","inputs":[],"outputs":[{"name":"","type":"uint256","internalType":"uint256"}],"stateMutability":"view"},{"type":"function","name":"minCheckpointDuration","inputs":[],"outputs":[{"name":"","type":"uint256","internalType":"uint256"}],"stateMutability":"view"},{"type":"function","name":"minCircuitBreakerDelta","inputs":[],"outputs":[{"name":"","type":"uint256","internalType":"uint256"}],"stateMutability":"view"},{"type":"function","name":"minFees","inputs":[],"outputs":[{"name":"","type":"tuple","internalType":"struct IHyperdrive.Fees","components":[{"name":"curve","type":"uint256","internalType":"uint256"},{"name":"flat","type":"uint256","internalType":"uint256"},{"name":"governanceLP","type":"uint256","internalType":"uint256"},{"name":"governanceZombie","type":"uint256","internalType":"uint256"}]}],"stateMutability":"view"},{"type":"function","name":"minFixedAPR","inputs":[],"outputs":[{"name":"","type":"uint256","internalType":"uint256"}],"stateMutability":"view"},{"type":"function","name":"minPositionDuration","inputs":[],"outputs":[{"name":"","type":"uint256","internalType":"uint256"}],"stateMutability":"view"},{"type":"function","name":"minTimeStretchAPR","inputs":[],"outputs":[{"name":"","type":"uint256","internalType":"uint256"}],"stateMutability":"view"},{"type":"function","name":"name","inputs":[],"outputs":[{"name":"","type":"string","internalType":"string"}],"stateMutability":"view"},{"type":"function","name":"removeDeployerCoordinator","inputs":[{"name":"_deployerCoordinator","type":"address","internalType":"address"},{"name":"_index","type":"uint256","internalType":"uint256"}],"outputs":[],"stateMutability":"nonpayable"},{"type":"function","name":"sweepCollector","inputs":[],"outputs":[{"name":"","type":"address","internalType":"address"}],"stateMutability":"view"},{"type":"function","name":"updateCheckpointDurationResolution","inputs":[{"name":"_checkpointDurationResolution","type":"uint256","internalType":"uint256"}],"outputs":[],"stateMutability":"nonpayable"},{"type":"function","name":"updateDefaultPausers","inputs":[{"name":"_defaultPausers_","type":"address[]","internalType":"address[]"}],"outputs":[],"stateMutability":"nonpayable"},{"type":"function","name":"updateDeployerCoordinatorManager","inputs":[{"name":"_deployerCoordinatorManager","type":"address","internalType":"address"}],"outputs":[],"stateMutability":"nonpayable"},{"type":"function","name":"updateFeeCollector","inputs":[{"name":"_feeCollector","type":"address","internalType":"address"}],"outputs":[],"stateMutability":"nonpayable"},{"type":"function","name":"updateGovernance","inputs":[{"name":"_governance","type":"address","internalType":"address"}],"outputs":[],"stateMutability":"nonpayable"},{"type":"function","name":"updateHyperdriveGovernance","inputs":[{"name":"_hyperdriveGovernance","type":"address","internalType":"address"}],"outputs":[],"stateMutability":"nonpayable"},{"type":"function","name":"updateLinkerCodeHash","inputs":[{"name":"_linkerCodeHash","type":"bytes32","internalType":"bytes32"}],"outputs":[],"stateMutability":"nonpayable"},{"type":"function","name":"updateLinkerFactory","inputs":[{"name":"_linkerFactory","type":"address","internalType":"address"}],"outputs":[],"stateMutability":"nonpayable"},{"type":"function","name":"updateMaxCheckpointDuration","inputs":[{"name":"_maxCheckpointDuration","type":"uint256","internalType":"uint256"}],"outputs":[],"stateMutability":"nonpayable"},{"type":"function","name":"updateMaxCircuitBreakerDelta","inputs":[{"name":"_maxCircuitBreakerDelta","type":"uint256","internalType":"uint256"}],"outputs":[],"stateMutability":"nonpayable"},{"type":"function","name":"updateMaxFees","inputs":[{"name":"__maxFees","type":"tuple","internalType":"struct IHyperdrive.Fees","components":[{"name":"curve","type":"uint256","internalType":"uint256"},{"name":"flat","type":"uint256","internalType":"uint256"},{"name":"governanceLP","type":"uint256","internalType":"uint256"},{"name":"governanceZombie","type":"uint256","internalType":"uint256"}]}],"outputs":[],"stateMutability":"nonpayable"},{"type":"function","name":"updateMaxFixedAPR","inputs":[{"name":"_maxFixedAPR","type":"uint256","internalType":"uint256"}],"outputs":[],"stateMutability":"nonpayable"},{"type":"function","name":"updateMaxPositionDuration","inputs":[{"name":"_maxPositionDuration","type":"uint256","internalType":"uint256"}],"outputs":[],"stateMutability":"nonpayable"},{"type":"function","name":"updateMaxTimeStretchAPR","inputs":[{"name":"_maxTimeStretchAPR","type":"uint256","internalType":"uint256"}],"outputs":[],"stateMutability":"nonpayable"},{"type":"function","name":"updateMinCheckpointDuration","inputs":[{"name":"_minCheckpointDuration","type":"uint256","internalType":"uint256"}],"outputs":[],"stateMutability":"nonpayable"},{"type":"function","name":"updateMinCircuitBreakerDelta","inputs":[{"name":"_minCircuitBreakerDelta","type":"uint256","internalType":"uint256"}],"outputs":[],"stateMutability":"nonpayable"},{"type":"function","name":"updateMinFees","inputs":[{"name":"__minFees","type":"tuple","internalType":"struct IHyperdrive.Fees","components":[{"name":"curve","type":"uint256","internalType":"uint256"},{"name":"flat","type":"uint256","internalType":"uint256"},{"name":"governanceLP","type":"uint256","internalType":"uint256"},{"name":"governanceZombie","type":"uint256","internalType":"uint256"}]}],"outputs":[],"stateMutability":"nonpayable"},{"type":"function","name":"updateMinFixedAPR","inputs":[{"name":"_minFixedAPR","type":"uint256","internalType":"uint256"}],"outputs":[],"stateMutability":"nonpayable"},{"type":"function","name":"updateMinPositionDuration","inputs":[{"name":"_minPositionDuration","type":"uint256","internalType":"uint256"}],"outputs":[],"stateMutability":"nonpayable"},{"type":"function","name":"updateMinTimeStretchAPR","inputs":[{"name":"_minTimeStretchAPR","type":"uint256","internalType":"uint256"}],"outputs":[],"stateMutability":"nonpayable"},{"type":"function","name":"updateSweepCollector","inputs":[{"name":"_sweepCollector","type":"address","internalType":"address"}],"outputs":[],"stateMutability":"nonpayable"},{"type":"function","name":"version","inputs":[],"outputs":[{"name":"","type":"string","internalType":"string"}],"stateMutability":"view"},{"type":"event","name":"CheckpointDurationResolutionUpdated","inputs":[{"name":"newCheckpointDurationResolution","type":"uint256","indexed":false,"internalType":"uint256"}],"anonymous":false},{"type":"event","name":"DefaultPausersUpdated","inputs":[{"name":"newDefaultPausers","type":"address[]","indexed":false,"internalType":"address[]"}],"anonymous":false},{"type":"event","name":"Deployed","inputs":[{"name":"deployerCoordinator","type":"address","indexed":true,"internalType":"address"},{"name":"hyperdrive","type":"address","indexed":false,"internalType":"address"},{"name":"config","type":"tuple","indexed":false,"internalType":"struct IHyperdrive.PoolDeployConfig","components":[{"name":"baseToken","type":"address","internalType":"contract IERC20"},{"name":"vaultSharesToken","type":"address","internalType":"contract IERC20"},{"name":"linkerFactory","type":"address","internalType":"address"},{"name":"linkerCodeHash","type":"bytes32","internalType":"bytes32"},{"name":"minimumShareReserves","type":"uint256","internalType":"uint256"},{"name":"minimumTransactionAmount","type":"uint256","internalType":"uint256"},{"name":"circuitBreakerDelta","type":"uint256","internalType":"uint256"},{"name":"positionDuration","type":"uint256","internalType":"uint256"},{"name":"checkpointDuration","type":"uint256","internalType":"uint256"},{"name":"timeStretch","type":"uint256","internalType":"uint256"},{"name":"governance","type":"address","internalType":"address"},{"name":"feeCollector","type":"address","internalType":"address"},{"name":"sweepCollector","type":"address","internalType":"address"},{"name":"fees","type":"tuple","internalType":"struct IHyperdrive.Fees","components":[{"name":"curve","type":"uint256","internalType":"uint256"},{"name":"flat","type":"uint256","internalType":"uint256"},{"name":"governanceLP","type":"uint256","internalType":"uint256"},{"name":"governanceZombie","type":"uint256","internalType":"uint256"}]}]},{"name":"extraData","type":"bytes","indexed":false,"internalType":"bytes"}],"anonymous":false},{"type":"event","name":"DeployerCoordinatorAdded","inputs":[{"name":"deployerCoordinator","type":"address","indexed":true,"internalType":"address"}],"anonymous":false},{"type":"event","name":"DeployerCoordinatorManagerUpdated","inputs":[{"name":"deployerCoordinatorManager","type":"address","indexed":true,"internalType":"address"}],"anonymous":false},{"type":"event","name":"DeployerCoordinatorRemoved","inputs":[{"name":"deployerCoordinator","type":"address","indexed":true,"internalType":"address"}],"anonymous":false},{"type":"event","name":"FeeCollectorUpdated","inputs":[{"name":"newFeeCollector","type":"address","indexed":true,"internalType":"address"}],"anonymous":false},{"type":"event","name":"GovernanceUpdated","inputs":[{"name":"governance","type":"address","indexed":true,"internalType":"address"}],"anonymous":false},{"type":"event","name":"HyperdriveGovernanceUpdated","inputs":[{"name":"hyperdriveGovernance","type":"address","indexed":true,"internalType":"address"}],"anonymous":false},{"type":"event","name":"LinkerCodeHashUpdated","inputs":[{"name":"newLinkerCodeHash","type":"bytes32","indexed":true,"internalType":"bytes32"}],"anonymous":false},{"type":"event","name":"LinkerFactoryUpdated","inputs":[{"name":"newLinkerFactory","type":"address","indexed":true,"internalType":"address"}],"anonymous":false},{"type":"event","name":"MaxCheckpointDurationUpdated","inputs":[{"name":"newMaxCheckpointDuration","type":"uint256","indexed":false,"internalType":"uint256"}],"anonymous":false},{"type":"event","name":"MaxCircuitBreakerDeltaUpdated","inputs":[{"name":"newMaxCircuitBreakerDelta","type":"uint256","indexed":false,"internalType":"uint256"}],"anonymous":false},{"type":"event","name":"MaxFeesUpdated","inputs":[{"name":"newMaxFees","type":"tuple","indexed":false,"internalType":"struct IHyperdrive.Fees","components":[{"name":"curve","type":"uint256","internalType":"uint256"},{"name":"flat","type":"uint256","internalType":"uint256"},{"name":"governanceLP","type":"uint256","internalType":"uint256"},{"name":"governanceZombie","type":"uint256","internalType":"uint256"}]}],"anonymous":false},{"type":"event","name":"MaxFixedAPRUpdated","inputs":[{"name":"newMaxFixedAPR","type":"uint256","indexed":false,"internalType":"uint256"}],"anonymous":false},{"type":"event","name":"MaxPositionDurationUpdated","inputs":[{"name":"newMaxPositionDuration","type":"uint256","indexed":false,"internalType":"uint256"}],"anonymous":false},{"type":"event","name":"MaxTimeStretchAPRUpdated","inputs":[{"name":"newMaxTimeStretchAPR","type":"uint256","indexed":false,"internalType":"uint256"}],"anonymous":false},{"type":"event","name":"MinCheckpointDurationUpdated","inputs":[{"name":"newMinCheckpointDuration","type":"uint256","indexed":false,"internalType":"uint256"}],"anonymous":false},{"type":"event","name":"MinCircuitBreakerDeltaUpdated","inputs":[{"name":"newMinCircuitBreakerDelta","type":"uint256","indexed":false,"internalType":"uint256"}],"anonymous":false},{"type":"event","name":"MinFeesUpdated","inputs":[{"name":"newMinFees","type":"tuple","indexed":false,"internalType":"struct IHyperdrive.Fees","components":[{"name":"curve","type":"uint256","internalType":"uint256"},{"name":"flat","type":"uint256","internalType":"uint256"},{"name":"governanceLP","type":"uint256","internalType":"uint256"},{"name":"governanceZombie","type":"uint256","internalType":"uint256"}]}],"anonymous":false},{"type":"event","name":"MinFixedAPRUpdated","inputs":[{"name":"newMinFixedAPR","type":"uint256","indexed":false,"internalType":"uint256"}],"anonymous":false},{"type":"event","name":"MinPositionDurationUpdated","inputs":[{"name":"newMinPositionDuration","type":"uint256","indexed":false,"internalType":"uint256"}],"anonymous":false},{"type":"event","name":"MinTimeStretchAPRUpdated","inputs":[{"name":"newMinTimeStretchAPR","type":"uint256","indexed":false,"internalType":"uint256"}],"anonymous":false},{"type":"event","name":"SweepCollectorUpdated","inputs":[{"name":"newSweepCollector","type":"address","indexed":true,"internalType":"address"}],"anonymous":false},{"type":"error","name":"DeployerCoordinatorAlreadyAdded","inputs":[]},{"type":"error","name":"DeployerCoordinatorIndexMismatch","inputs":[]},{"type":"error","name":"DeployerCoordinatorNotAdded","inputs":[]},{"type":"error","name":"EndIndexTooLarge","inputs":[]},{"type":"error","name":"InvalidCheckpointDuration","inputs":[]},{"type":"error","name":"InvalidCheckpointDurationResolution","inputs":[]},{"type":"error","name":"InvalidCircuitBreakerDelta","inputs":[]},{"type":"error","name":"InvalidDeployConfig","inputs":[]},{"type":"error","name":"InvalidDeployerCoordinator","inputs":[]},{"type":"error","name":"InvalidFees","inputs":[]},{"type":"error","name":"InvalidFixedAPR","inputs":[]},{"type":"error","name":"InvalidIndexes","inputs":[]},{"type":"error","name":"InvalidMaxCheckpointDuration","inputs":[]},{"type":"error","name":"InvalidMaxCircuitBreakerDelta","inputs":[]},{"type":"error","name":"InvalidMaxFees","inputs":[]},{"type":"error","name":"InvalidMaxFixedAPR","inputs":[]},{"type":"error","name":"InvalidMaxPositionDuration","inputs":[]},{"type":"error","name":"InvalidMaxTimeStretchAPR","inputs":[]},{"type":"error","name":"InvalidMinCheckpointDuration","inputs":[]},{"type":"error","name":"InvalidMinCircuitBreakerDelta","inputs":[]},{"type":"error","name":"InvalidMinFees","inputs":[]},{"type":"error","name":"InvalidMinFixedAPR","inputs":[]},{"type":"error","name":"InvalidMinPositionDuration","inputs":[]},{"type":"error","name":"InvalidMinTimeStretchAPR","inputs":[]},{"type":"error","name":"InvalidPositionDuration","inputs":[]},{"type":"error","name":"InvalidTimeStretchAPR","inputs":[]},{"type":"error","name":"LnInvalidInput","inputs":[]},{"type":"error","name":"ReceiveLocked","inputs":[]},{"type":"error","name":"TransferFailed","inputs":[]},{"type":"error","name":"Unauthorized","inputs":[]},{"type":"error","name":"UnsafeCastToInt256","inputs":[]}],"bytecode":{"object":"0x608060405260026001553480156200001657600080fd5b5060405162003e3538038062003e358339810160408190526200003991620006f1565b600062000047828262000940565b508160c001518260e0015110806200007357508160c001518260e0015162000070919062000a0c565b15155b156200009257604051630219d66360e11b815260040160405180910390fd5b60e0820151600a8190556101008301511080620000c457508160c00151826101000151620000c1919062000a0c565b15155b15620000e35760405163f9c0959d60e01b815260040160405180910390fd5b610100820151600b81905561012083015110806200011657508160c0015182610120015162000113919062000a0c565b15155b156200013557604051633007ad0160e11b815260040160405180910390fd5b610120820151600c81905561014083015110806200016857508160c0015182610140015162000165919062000a0c565b15155b15620001875760405163cfb699cb60e01b815260040160405180910390fd5b610140820151600d556101808201516101608301511115620001bc5760405163ef9bc65f60e01b815260040160405180910390fd5b610160820151600e55610180820151600f556101c08201516101a08301511115620001fa576040516330554de160e01b815260040160405180910390fd5b6101a08201516010556101c08201516011556102008201516101e0830151111562000238576040516383ebdfb760e01b815260040160405180910390fd5b6101e082015160125561020082015160135561024082015151670de0b6b3a76400001080620002775750670de0b6b3a764000082610240015160200151115b80620002935750670de0b6b3a764000082610240015160400151115b80620002af5750670de0b6b3a764000082610240015160600151115b15620002ce5760405163161071fb60e11b815260040160405180910390fd5b6102408201518051601881905560208201516019556040820151601a55606090910151601b556102208301515111806200031957508161024001516020015182610220015160200151115b806200033657508161024001516040015182610220015160400151115b806200035357508161024001516060015182610220015160600151115b1562000372576040516315b05a8f60e01b815260040160405180910390fd5b61022082015180516014556020808201516015556040808301516016556060928301516017558451600280546001600160a01b03199081166001600160a01b03938416179091558387015160038054831691841691909117905591860151600480548416918316919091179055608086015160078054841691831691909117905560a08601516008805490931691161790559083015180516200041a92601c92019062000457565b5050610260810151600580546001600160a01b0319166001600160a01b0390921691909117905561028081015160065560c0015160095562000a2f565b828054828255906000526020600020908101928215620004af579160200282015b82811115620004af57825182546001600160a01b0319166001600160a01b0390911617825560209092019160019091019062000478565b50620004bd929150620004c1565b5090565b5b80821115620004bd5760008155600101620004c2565b634e487b7160e01b600052604160045260246000fd5b6040516102a081016001600160401b0381118282101715620005145762000514620004d8565b60405290565b604051601f8201601f191681016001600160401b0381118282101715620005455762000545620004d8565b604052919050565b80516001600160a01b03811681146200056557600080fd5b919050565b600082601f8301126200057c57600080fd5b815160206001600160401b038211156200059a576200059a620004d8565b8160051b620005ab8282016200051a565b9283528481018201928281019087851115620005c657600080fd5b83870192505b84831015620005f057620005e0836200054d565b82529183019190830190620005cc565b979650505050505050565b6000608082840312156200060e57600080fd5b604051608081016001600160401b0381118282101715620006335762000633620004d8565b8060405250809150825181526020830151602082015260408301516040820152606083015160608201525092915050565b600082601f8301126200067657600080fd5b81516001600160401b03811115620006925762000692620004d8565b6020620006a8601f8301601f191682016200051a565b8281528582848701011115620006bd57600080fd5b60005b83811015620006dd578581018301518282018401528201620006c0565b506000928101909101919091529392505050565b600080604083850312156200070557600080fd5b82516001600160401b03808211156200071d57600080fd5b9084019061036082870312156200073357600080fd5b6200073d620004ee565b62000748836200054d565b815262000758602084016200054d565b60208201526200076b604084016200054d565b60408201526060830151828111156200078357600080fd5b62000791888286016200056a565b606083015250620007a5608084016200054d565b6080820152620007b860a084016200054d565b60a082015260c0838101519082015260e08084015190820152610100808401519082015261012080840151908201526101408084015190820152610160808401519082015261018080840151908201526101a080840151908201526101c080840151908201526101e0808401519082015261020080840151908201526102206200084588828601620005fb565b9082015262000859876102a08501620005fb565b6102408201526200086e61032084016200054d565b61026082015261034092909201516102808301526020850151919350808211156200089857600080fd5b50620008a78582860162000664565b9150509250929050565b600181811c90821680620008c657607f821691505b602082108103620008e757634e487b7160e01b600052602260045260246000fd5b50919050565b601f8211156200093b57600081815260208120601f850160051c81016020861015620009165750805b601f850160051c820191505b81811015620009375782815560010162000922565b5050505b505050565b81516001600160401b038111156200095c576200095c620004d8565b62000974816200096d8454620008b1565b84620008ed565b602080601f831160018114620009ac5760008415620009935750858301515b600019600386901b1c1916600185901b17855562000937565b600085815260208120601f198616915b82811015620009dd57888601518255948401946001909101908401620009bc565b5085821015620009fc5787850151600019600388901b60f8161c191681555b5050505050600190811b01905550565b60008262000a2a57634e487b7160e01b600052601260045260246000fd5b500690565b6133f68062000a3f6000396000f3fe60806040526004361061037a5760003560e01c806399623bb1116101d1578063d6f5016911610102578063e4e7148f116100a0578063ec895f111161006f578063ec895f1114610a20578063f8c09e5914610a40578063fe3d5aeb14610a70578063fec4513914610a9057600080fd5b8063e4e7148f146109ab578063e71f34b3146109cb578063e83e34b1146109eb578063eb71f66c14610a0057600080fd5b8063dd2b8fbb116100dc578063dd2b8fbb14610940578063e0e2daaa14610960578063e1b39c8014610976578063e33315551461098b57600080fd5b8063d6f50169146108f4578063daac24da1461090a578063daf012e61461092a57600080fd5b8063bf9bd5cd1161016f578063c905a4b511610149578063c905a4b514610892578063d0f96b92146108a8578063d23d7ea3146108be578063d2c35ce8146108d457600080fd5b8063bf9bd5cd1461083a578063c172256314610850578063c415b95c1461087257600080fd5b8063a98a46db116101ab578063a98a46db146107c7578063b2561263146107e7578063b9fdb31914610807578063bc30e7a11461081a57600080fd5b806399623bb1146107655780639af2526214610785578063a64c90bf146107a557600080fd5b80635720c9d5116102ab57806383b361e8116102495780638627a4f0116102235780638627a4f0146106ef5780638e127cf51461070f5780638efc09861461072f57806397b0e8ce1461074557600080fd5b806383b361e81461068f57806384c19aab146106af57806385229785146106cf57600080fd5b80636b44e6be116102855780636b44e6be146105e45780636c8cc865146106245780636e95d67c1461065a5780636f6d5c4a1461066f57600080fd5b80635720c9d51461058e5780635aa6e675146105a4578063628027a3146105c457600080fd5b80632907d3dd116103185780634554f9a9116102f25780634554f9a91461051057806348800760146105265780634fbfee771461053c57806354fd4d501461055c57600080fd5b80632907d3dd146104b0578063411c3035146104d0578063421caba8146104f057600080fd5b806311e77bfe1161035457806311e77bfe1461042c5780631978ebcf1461044c5780631ecda0fe1461046c5780632885e3ac1461049057600080fd5b806306fdde03146103a957806310780f73146103d457806310d1dc3e1461040c57600080fd5b366103a4576002600154036103a257604051630aac75b560e31b815260040160405180910390fd5b005b600080fd5b3480156103b557600080fd5b506103be610ab0565b6040516103cb9190612a94565b60405180910390f35b3480156103e057600080fd5b506008546103f4906001600160a01b031681565b6040516001600160a01b0390911681526020016103cb565b34801561041857600080fd5b506103a2610427366004612aa7565b610b3e565b34801561043857600080fd5b506103a2610447366004612ab9565b610c57565b34801561045857600080fd5b506103a2610467366004612ab9565b610d30565b34801561047857600080fd5b50610482600e5481565b6040519081526020016103cb565b34801561049c57600080fd5b506103a26104ab366004612aa7565b610db2565b3480156104bc57600080fd5b506103a26104cb366004612ab9565b610f18565b3480156104dc57600080fd5b506103a26104eb366004612afa565b610f9a565b3480156104fc57600080fd5b506103a261050b366004612b26565b61116b565b34801561051c57600080fd5b50610482600f5481565b34801561053257600080fd5b5061048260135481565b34801561054857600080fd5b506103a2610557366004612ab9565b611274565b34801561056857600080fd5b506103be604051806040016040528060068152602001653b189718171b60d11b81525081565b34801561059a57600080fd5b50610482600a5481565b3480156105b057600080fd5b506002546103f4906001600160a01b031681565b3480156105d057600080fd5b506103a26105df366004612ab9565b6112d1565b3480156105f057600080fd5b506106146105ff366004612b26565b60216020526000908152604090205460ff1681565b60405190151581526020016103cb565b34801561063057600080fd5b506103f461063f366004612b26565b601f602052600090815260409020546001600160a01b031681565b34801561066657600080fd5b50602054610482565b34801561067b57600080fd5b506103a261068a366004612ab9565b611353565b34801561069b57600080fd5b506103a26106aa366004612ab9565b6113f7565b3480156106bb57600080fd5b506103a26106ca366004612ab9565b611479565b3480156106db57600080fd5b506103a26106ea366004612b26565b6114fb565b3480156106fb57600080fd5b506103a261070a366004612b26565b61156f565b34801561071b57600080fd5b506103a261072a366004612ab9565b6115e3565b34801561073b57600080fd5b50610482600d5481565b34801561075157600080fd5b506103a2610760366004612ab9565b611687565b34801561077157600080fd5b506005546103f4906001600160a01b031681565b34801561079157600080fd5b506103a26107a0366004612b4a565b611709565b3480156107b157600080fd5b506107ba611771565b6040516103cb9190612bbf565b3480156107d357600080fd5b506103a26107e2366004612b26565b6117d3565b3480156107f357600080fd5b506103a2610802366004612b26565b611847565b6103f4610815366004612e22565b6118bb565b34801561082657600080fd5b506107ba610835366004612f51565b611cab565b34801561084657600080fd5b5061048260115481565b34801561085c57600080fd5b50610865611dc8565b6040516103cb9190612f73565b34801561087e57600080fd5b506007546103f4906001600160a01b031681565b34801561089e57600080fd5b5061048260065481565b3480156108b457600080fd5b5061048260095481565b3480156108ca57600080fd5b5061048260105481565b3480156108e057600080fd5b506103a26108ef366004612b26565b611e20565b34801561090057600080fd5b5061048260125481565b34801561091657600080fd5b506103f4610925366004612ab9565b611e94565b34801561093657600080fd5b50610482600c5481565b34801561094c57600080fd5b506103a261095b366004612b26565b611ec4565b34801561096c57600080fd5b50610482600b5481565b34801561098257600080fd5b50601d54610482565b34801561099757600080fd5b506004546103f4906001600160a01b031681565b3480156109b757600080fd5b506003546103f4906001600160a01b031681565b3480156109d757600080fd5b506103a26109e6366004612ab9565b611f38565b3480156109f757600080fd5b50610865611fdc565b348015610a0c57600080fd5b506103a2610a1b366004612ab9565b612034565b348015610a2c57600080fd5b506107ba610a3b366004612f51565b6120cc565b348015610a4c57600080fd5b50610614610a5b366004612b26565b601e6020526000908152604090205460ff1681565b348015610a7c57600080fd5b506103f4610a8b366004612ab9565b6121e2565b348015610a9c57600080fd5b506103f4610aab366004612f9e565b6121f7565b60008054610abd90613032565b80601f0160208091040260200160405190810160405280929190818152602001828054610ae990613032565b8015610b365780601f10610b0b57610100808354040283529160200191610b36565b820191906000526020600020905b815481529060010190602001808311610b1957829003601f168201915b505050505081565b6002546001600160a01b03163314610b68576040516282b42960e81b815260040160405180910390fd5b604080516080810182526018548082526019546020830152601a5492820192909252601b5460608201529082351180610ba8575080602001518260200135115b80610bba575080604001518260400135115b80610bcc575080606001518260600135115b15610bea576040516315b05a8f60e01b815260040160405180910390fd5b81356014819055602080840135601581905560408086013560168190556060808801356017819055835196875294860193909352908401528201527fe1c45f8aeb543f30b37cc2fccfbac0f32cc8f234284df921d71cff04e51ef421906080015b60405180910390a15050565b6002546001600160a01b03163314610c81576040516282b42960e81b815260040160405180910390fd5b80600a54610c8f9190613066565b151580610ca8575080600b54610ca59190613066565b15155b80610cbf575080600c54610cbc9190613066565b15155b80610cd6575080600d54610cd39190613066565b15155b15610cf4576040516311b75c1560e31b815260040160405180910390fd5b60098190556040518181527f04ed835b488b4fcf0a212a46ed67cbbffc2fc81b5cb6a12c546572cbf7b7e06a906020015b60405180910390a150565b6002546001600160a01b03163314610d5a576040516282b42960e81b815260040160405180910390fd5b601154811115610d7d57604051631670f79760e01b815260040160405180910390fd5b60108190556040518181527faab0ee9100629c405a4d75336e1640cc81e0608fb0d7f17389c06ee8d4f0219190602001610d25565b6002546001600160a01b03163314610ddc576040516282b42960e81b815260040160405180910390fd5b6040805160808101825260145481526015546020820152601654918101919091526017546060820152670de0b6b3a764000082351180610e275750670de0b6b3a76400008260200135115b80610e3d5750670de0b6b3a76400008260400135115b80610e535750670de0b6b3a76400008260600135115b80610e5f575080518235105b80610e71575080602001518260200135105b80610e83575080604001518260400135105b80610e95575080606001518260600135105b15610eb35760405163161071fb60e11b815260040160405180910390fd5b813560188190556020808401356019819055604080860135601a819055606080880135601b819055835196875294860193909352908401528201527f8c6093c7e65dd862e88162770c4e156e8a0da57d25d961e0fb6f28cfb7ff89a790608001610c4b565b6002546001600160a01b03163314610f42576040516282b42960e81b815260040160405180910390fd5b600f54811115610f65576040516328a2d9a960e01b815260040160405180910390fd5b600e8190556040518181527f41f729b931ad8e33d697fff6bc6736a1ac6ee09e8265efae2794ac1635c217a690602001610d25565b6002546001600160a01b03163314801590610fc057506003546001600160a01b03163314155b15610fdd576040516282b42960e81b815260040160405180910390fd5b6001600160a01b0382166000908152601e602052604090205460ff1661101657604051634bf121ab60e01b815260040160405180910390fd5b816001600160a01b0316601d828154811061103357611033613088565b6000918252602090912001546001600160a01b03161461106657604051630f2700cb60e21b815260040160405180910390fd5b6001600160a01b0382166000908152601e60205260409020805460ff19169055601d8054611096906001906130b4565b815481106110a6576110a6613088565b600091825260209091200154601d80546001600160a01b0390921691839081106110d2576110d2613088565b9060005260206000200160006101000a8154816001600160a01b0302191690836001600160a01b03160217905550601d805480611111576111116130c7565b600082815260208120820160001990810180546001600160a01b03191690559091019091556040516001600160a01b038416917f709b7450bfafda93efd91d29149870a794637ac9d696ca61625fd2f53548afe091a25050565b6002546001600160a01b0316331480159061119157506003546001600160a01b03163314155b156111ae576040516282b42960e81b815260040160405180910390fd5b6001600160a01b0381166000908152601e602052604090205460ff16156111e85760405163bd34634f60e01b815260040160405180910390fd5b6001600160a01b0381166000818152601e6020526040808220805460ff19166001908117909155601d8054918201815583527f6d4407e7be21f808e6509aa9fa9143369579dd7d760fe20a2c09680fc146134f0180546001600160a01b03191684179055517f16ce88285cfd59829a5aa04370a5ec8090a18c14e7e7fb9d4b12a42291c098e39190a250565b6002546001600160a01b0316331461129e576040516282b42960e81b815260040160405180910390fd5b600681905560405181907f395a61259037298d1c4cd4bf177b64ad5995d38a9394573fcd9060d649314ad090600090a250565b6002546001600160a01b031633146112fb576040516282b42960e81b815260040160405180910390fd5b60125481101561131e57604051630a35539d60e41b815260040160405180910390fd5b60138190556040518181527fa9e7961bb3342715dbecc208087a6a9df8986d524b3a0a829fd90f5a2f5ba53e90602001610d25565b6002546001600160a01b0316331461137d576040516282b42960e81b815260040160405180910390fd5b600a5481108061139857506009546113959082613066565b15155b806113a45750600c5481115b156113c25760405163f9c0959d60e01b815260040160405180910390fd5b600b8190556040518181527f31407ddd1722f500b8aa2c18e112398626dd7c2869a5f80731ec30b244d9b5f290602001610d25565b6002546001600160a01b03163314611421576040516282b42960e81b815260040160405180910390fd5b60135481111561144457604051635a8f655760e01b815260040160405180910390fd5b60128190556040518181527f490eb2a91746aa933c9ffe2f7939aa06498f3259139f8805f008b12c8c697a4690602001610d25565b6002546001600160a01b031633146114a3576040516282b42960e81b815260040160405180910390fd5b600e548110156114c657604051637edc061360e11b815260040160405180910390fd5b600f8190556040518181527f0e56d83f54e6f5b08716a54b3abdb59b3025bf12c1875c87ab98ab081d6f838190602001610d25565b6002546001600160a01b03163314611525576040516282b42960e81b815260040160405180910390fd5b600580546001600160a01b0319166001600160a01b0383169081179091556040517f03aa5b0fb65014eea89fda04a7bc11742014881f3c078f2c75b7226ce10d941890600090a250565b6002546001600160a01b03163314611599576040516282b42960e81b815260040160405180910390fd5b600880546001600160a01b0319166001600160a01b0383169081179091556040517fc049058b1df2dd8902739ceb78992df12fa8369c06c450b3c6787137b452fdd290600090a250565b6002546001600160a01b0316331461160d576040516282b42960e81b815260040160405180910390fd5b60095481108061162857506009546116259082613066565b15155b806116345750600b5481115b1561165257604051630219d66360e11b815260040160405180910390fd5b600a8190556040518181527f6f8175cdbac1b4d238abba24a17d2554d7b9750bbeda6414e191c478384b763190602001610d25565b6002546001600160a01b031633146116b1576040516282b42960e81b815260040160405180910390fd5b6010548110156116d45760405163019cfb7b60e61b815260040160405180910390fd5b60118190556040518181527f4fa35c11ce9a45ae882c154ecb53ab5cac52a74a5b9b0373be36deb30c78297890602001610d25565b6002546001600160a01b03163314611733576040516282b42960e81b815260040160405180910390fd5b61173f601c83836129df565b507f2a85276cf604a3822e19b29a3e97aebfbc47a19025c2e8f6e80b3af774dcbc388282604051610c4b9291906130dd565b6060601c8054806020026020016040519081016040528092919081815260200182805480156117c957602002820191906000526020600020905b81546001600160a01b031681526001909101906020018083116117ab575b5050505050905090565b6002546001600160a01b031633146117fd576040516282b42960e81b815260040160405180910390fd5b600380546001600160a01b0319166001600160a01b0383169081179091556040517f6f717fb0ab51206dea4064a35c94c2784f8714b012fbde820e0ddee36265eb6a90600090a250565b6002546001600160a01b03163314611871576040516282b42960e81b815260040160405180910390fd5b600280546001600160a01b0319166001600160a01b0383169081179091556040517f9d3e522e1e47a2f6009739342b9cc7b252a1888154e843ab55ee1c81745795ab90600090a250565b6001600160a01b0388166000908152601e602052604081205460ff166118f457604051636e623f0f60e01b815260040160405180910390fd5b6118ff8886866122e9565b60408051336020808301919091528183018d90528251808303840181526060830193849052805191012063c29d10c160e01b9092526000916001600160a01b038c169163c29d10c19161195a918d908d90899060640161322f565b6020604051808303816000875af1158015611979573d6000803e3d6000fd5b505050506040513d601f19601f8201168201806040525081019061199d919061326a565b6001600160a01b038181166000908152601f60205260409081902080546001600160a01b0319168e84169081179091556004549092166101408d015251919250907ff353a3c7608dc37624175f4f0c0a6d2e6b418797ecbff5943616e9da3eb1ae8290611a0f9084908d908d90613287565b60405180910390a260208054600180820183557fc97bfaf2f8ee708c303a06d134f5ecd8389ae0432af62dc132a24118292866bb90910180546001600160a01b0319166001600160a01b03858116918217909255600090815260218452604090819020805460ff191684179055918055815133938101939093529082018d90528b16906316abfc7090349060600160405160208183030381529060405280519060200120338b8b8a6040518763ffffffff1660e01b8152600401611ad79594939291906132c2565b60206040518083038185885af1158015611af5573d6000803e3d6000fd5b50505050506040513d601f19601f82011682018060405250810190611b1a9190613325565b50600260015560005b601c54811015611bc657816001600160a01b0316637180c8ca601c8381548110611b4f57611b4f613088565b60009182526020909120015460405160e083901b6001600160e01b03191681526001600160a01b03909116600482015260016024820152604401600060405180830381600087803b158015611ba357600080fd5b505af1158015611bb7573d6000803e3d6000fd5b50505050806001019050611b23565b506004805460405163ab033ea960e01b81526001600160a01b039182169281019290925282169063ab033ea990602401600060405180830381600087803b158015611c1057600080fd5b505af1158015611c24573d6000803e3d6000fd5b504792505081159050611c9c57604051600090339083908381818185875af1925050503d8060008114611c73576040519150601f19603f3d011682016040523d82523d6000602084013e611c78565b606091505b5050905080611c9a576040516312171d8360e31b815260040160405180910390fd5b505b509a9950505050505050505050565b606081831115611cce57604051633b2735ab60e11b815260040160405180910390fd5b6020548210611cf05760405163e0f7becb60e01b815260040160405180910390fd5b611cfa83836130b4565b611d0590600161333e565b67ffffffffffffffff811115611d1d57611d1d612c0c565b604051908082528060200260200182016040528015611d46578160200160208202803683370190505b509050825b828111611dc15760208181548110611d6557611d65613088565b9060005260206000200160009054906101000a90046001600160a01b03168285830381518110611d9757611d97613088565b6001600160a01b039092166020928302919091019091015280611db981613351565b915050611d4b565b5092915050565b611df36040518060800160405280600081526020016000815260200160008152602001600081525090565b50604080516080810182526014548152601554602082015260165491810191909152601754606082015290565b6002546001600160a01b03163314611e4a576040516282b42960e81b815260040160405180910390fd5b600780546001600160a01b0319166001600160a01b0383169081179091556040517fe5693914d19c789bdee50a362998c0bc8d035a835f9871da5d51152f0582c34f90600090a250565b600060208281548110611ea957611ea9613088565b6000918252602090912001546001600160a01b031692915050565b6002546001600160a01b03163314611eee576040516282b42960e81b815260040160405180910390fd5b600480546001600160a01b0319166001600160a01b0383169081179091556040517ff3e07b4bb4394f2ff320bd1dd151551dff304d5e948b401d8558b228482c97d890600090a250565b6002546001600160a01b03163314611f62576040516282b42960e81b815260040160405180910390fd5b600b54811080611f7d5750600954611f7a9082613066565b15155b80611f895750600d5481115b15611fa757604051633007ad0160e11b815260040160405180910390fd5b600c8190556040518181527fe9ef3e93dff799d4db8a12ff79e0918a5a78d75b10527864f4b1c920f6f4f17890602001610d25565b6120076040518060800160405280600081526020016000815260200160008152602001600081525090565b506040805160808101825260185481526019546020820152601a5491810191909152601b54606082015290565b6002546001600160a01b0316331461205e576040516282b42960e81b815260040160405180910390fd5b600c5481108061207957506009546120769082613066565b15155b156120975760405163cfb699cb60e01b815260040160405180910390fd5b600d8190556040518181527f866fe9485f9983afceaa1385307b6eb0fd3df5a250ae2b0bf76dc9ddd316926b90602001610d25565b6060818311156120ef57604051633b2735ab60e11b815260040160405180910390fd5b601d5482106121115760405163e0f7becb60e01b815260040160405180910390fd5b61211b83836130b4565b61212690600161333e565b67ffffffffffffffff81111561213e5761213e612c0c565b604051908082528060200260200182016040528015612167578160200160208202803683370190505b509050825b828111611dc157601d818154811061218657612186613088565b9060005260206000200160009054906101000a90046001600160a01b031682858303815181106121b8576121b8613088565b6001600160a01b0390921660209283029190910190910152806121da81613351565b91505061216c565b6000601d8281548110611ea957611ea9613088565b6001600160a01b0387166000908152601e602052604081205460ff1661223057604051636e623f0f60e01b815260040160405180910390fd5b61223b8786866122e9565b60408051336020808301919091528183018c905282518083038401815260608301938490528051910120637f88be8160e01b9092526000916001600160a01b038b1691637f88be8191612298918c908c908a908a9060640161336a565b6020604051808303816000875af11580156122b7573d6000803e3d6000fd5b505050506040513d601f19601f820116820180604052508101906122db919061326a565b9a9950505050505050505050565b600a5483610100015110806123045750600b54836101000151115b80612320575060095483610100015161231d9190613066565b15155b1561233e57604051635428734d60e01b815260040160405180910390fd5b600c548360e0015110806123575750600d548360e00151115b8061237557508261010001518360e001516123729190613066565b15155b156123935760405163253fffcf60e11b815260040160405180910390fd5b600e548360c0015110806123ac5750600f548360c00151115b156123ca5760405163ef9bc65f60e01b815260040160405180910390fd5b6018546101a08401515111806123fe575060195460e08401516101a0850151602001516123fc916301e133809061263b565b115b806124135750601a546101a084015160400151115b806124285750601b546101a084015160600151115b8061243a57506014546101a084015151105b80612463575060155460e08401516101a085015160200151612461916301e1338090612661565b105b8061247857506016546101a084015160400151105b8061248d57506017546101a084015160600151105b156124ab57604051632d8768f960e01b815260040160405180910390fd5b6010548210806124bc575060115482115b156124da576040516330554de160e01b815260040160405180910390fd5b60006124ff6611c37937e080006124f985671bc16d674ec8000061267f565b9061269d565b60125490915061250f908261269d565b821080612542575061253f612536671bc16d674ec80000612530868561269d565b906126b3565b601354906126c8565b82115b15612560576040516383ebdfb760e01b815260040160405180910390fd5b6000612570838660e001516126dd565b60055460408701519192506001600160a01b03918216911614158061259b5750600654856060015114155b806125ba57506007546101608601516001600160a01b03908116911614155b806125d957506008546101808601516001600160a01b03908116911614155b806125f857506004546101408601516001600160a01b03908116911614155b80612607575061012085015115155b156126255760405163e8c02dd760e01b815260040160405180910390fd5b3061014086015261012090940193909352505050565b600082600019048411830215820261265257600080fd5b50910281810615159190040190565b600082600019048411830215820261267857600080fd5b5091020490565b600061269483670de0b6b3a764000084612661565b90505b92915050565b60008183116126ac5781612694565b5090919050565b60006126948383670de0b6b3a7640000612661565b60008183116126d75782612694565b50919050565b60008061270e6126ff6126f18660646133a9565b66a5bbed86c5a000906126b3565b6748cd4072281e00009061267f565b9050612722670de0b6b3a76400008261267f565b905061277a8161253061274d61274861274389670de0b6b3a764000061333e565b612782565b6127b0565b6127746127486127628a8a6301e13380612661565b61274390670de0b6b3a764000061333e565b9061267f565b949350505050565b60006001600160ff1b038211156127ac5760405163396ea70160e11b815260040160405180910390fd5b5090565b60008082136127d25760405163e61b497560e01b815260040160405180910390fd5b506fffffffffffffffffffffffffffffffff811160071b81811c67ffffffffffffffff1060061b1781811c63ffffffff1060051b1781811c61ffff1060041b1781811c60ff10600390811b90911782811c600f1060021b1782811c909110600190811b90911782811c90911017609f8181036060019290921b91605f1982019061285e9084901c612782565b6c465772b2bbbb5f824b15207a3081018102606090811d6d0388eaa27412d5aca026815d636e018202811d6d0df99ac502031bf953eff472fdcc018202811d6d13cdffb29d51d99322bdff5f2211018202811d6d0a0f742023def783a307a986912e018202811d6d01920d8043ca89b5239253284e42018202811d6c0b7a86d7375468fac667a0a527016c29508e458543d8aa4df2abee7883018302821d6d0139601a2efabe717e604cbb4894018302821d6d02247f7a7b6594320649aa03aba1018302821d6c8c3f38e95a6b1ff2ab1c3b343619018302821d6d02384773bdf1ac5676facced60901901830290911d6cb9a025d814b29c212b8b1a07cd1901909102780a09507084cc699bb0e71ea869ffffffffffffffffffffffff190105711340daa0d5f769dba1915cef59f0815a5506027d0267a36c0c95b3975ab3ee5b203a7614a3f75373f047d803ae7b6687f2b391909102017d57115e47018c7177eebf7cd370a3356a1b7863008a5ae8028c72b88642840160ae1d92915050565b828054828255906000526020600020908101928215612a32579160200282015b82811115612a325781546001600160a01b0319166001600160a01b038435161782556020909201916001909101906129ff565b506127ac9291505b808211156127ac5760008155600101612a3a565b6000815180845260005b81811015612a7457602081850181015186830182015201612a58565b506000602082860101526020601f19601f83011685010191505092915050565b6020815260006126946020830184612a4e565b6000608082840312156126d757600080fd5b600060208284031215612acb57600080fd5b5035919050565b6001600160a01b0381168114612ae757600080fd5b50565b8035612af581612ad2565b919050565b60008060408385031215612b0d57600080fd5b8235612b1881612ad2565b946020939093013593505050565b600060208284031215612b3857600080fd5b8135612b4381612ad2565b9392505050565b60008060208385031215612b5d57600080fd5b823567ffffffffffffffff80821115612b7557600080fd5b818501915085601f830112612b8957600080fd5b813581811115612b9857600080fd5b8660208260051b8501011115612bad57600080fd5b60209290920196919550909350505050565b6020808252825182820181905260009190848201906040850190845b81811015612c005783516001600160a01b031683529284019291840191600101612bdb565b50909695505050505050565b634e487b7160e01b600052604160045260246000fd5b6040516101c0810167ffffffffffffffff81118282101715612c4657612c46612c0c565b60405290565b600060808284031215612c5e57600080fd5b6040516080810181811067ffffffffffffffff82111715612c8157612c81612c0c565b8060405250809150823581526020830135602082015260408301356040820152606083013560608201525092915050565b60006102208284031215612cc557600080fd5b612ccd612c22565b9050612cd882612aea565b8152612ce660208301612aea565b6020820152612cf760408301612aea565b6040820152606082013560608201526080820135608082015260a082013560a082015260c082013560c082015260e082013560e0820152610100808301358183015250610120808301358183015250610140612d54818401612aea565b90820152610160612d66838201612aea565b90820152610180612d78838201612aea565b908201526101a0612d8b84848301612c4c565b9082015292915050565b600082601f830112612da657600080fd5b813567ffffffffffffffff80821115612dc157612dc1612c0c565b604051601f8301601f19908116603f01168101908282118183101715612de957612de9612c0c565b81604052838152866020858801011115612e0257600080fd5b836020870160208301376000602085830101528094505050505092915050565b60008060008060008060008060006103208a8c031215612e4157600080fd5b8935985060208a0135612e5381612ad2565b9750612e628b60408c01612cb2565b96506102608a013567ffffffffffffffff80821115612e8057600080fd5b612e8c8d838e01612d95565b97506102808c013596506102a08c013595506102c08c013594506102e08c0135915080821115612ebb57600080fd5b908b01906060828e031215612ecf57600080fd5b604051606081018181108382111715612eea57612eea612c0c565b6040528235612ef881612ad2565b815260208301358015158114612f0d57600080fd5b6020820152604083013582811115612f2457600080fd5b612f308f828601612d95565b6040830152508094505050506103008a013590509295985092959850929598565b60008060408385031215612f6457600080fd5b50508035926020909101359150565b8151815260208083015190820152604080830151908201526060808301519082015260808101612697565b600080600080600080600080610300898b031215612fbb57600080fd5b883597506020890135612fcd81612ad2565b9650612fdc8a60408b01612cb2565b955061026089013567ffffffffffffffff811115612ff957600080fd5b6130058b828c01612d95565b989b979a509598610280810135976102a082013597506102c082013596506102e090910135945092505050565b600181811c9082168061304657607f821691505b6020821081036126d757634e487b7160e01b600052602260045260246000fd5b60008261308357634e487b7160e01b600052601260045260246000fd5b500690565b634e487b7160e01b600052603260045260246000fd5b634e487b7160e01b600052601160045260246000fd5b818103818111156126975761269761309e565b634e487b7160e01b600052603160045260246000fd5b60208082528181018390526000908460408401835b8681101561312057823561310581612ad2565b6001600160a01b0316825291830191908301906001016130f2565b509695505050505050565b80516001600160a01b03168252602081015161315260208401826001600160a01b03169052565b50604081015161316d60408401826001600160a01b03169052565b50606081015160608301526080810151608083015260a081015160a083015260c081015160c083015260e081015160e0830152610100808201518184015250610120808201518184015250610140808201516131d3828501826001600160a01b03169052565b5050610160818101516001600160a01b039081169184019190915261018080830151909116908301526101a09081015180519183019190915260208101516101c083015260408101516101e08301526060015161020090910152565b6000610280868352613244602084018761312b565b8061024084015261325781840186612a4e565b9150508261026083015295945050505050565b60006020828403121561327c57600080fd5b8151612b4381612ad2565b6001600160a01b038416815260006102606132a5602084018661312b565b806102408401526132b881840185612a4e565b9695505050505050565b858152600060018060a01b03808716602084015285604084015284606084015260a060808401528084511660a0840152506020830151151560c08301526040830151606060e0840152613319610100840182612a4e565b98975050505050505050565b60006020828403121561333757600080fd5b5051919050565b808201808211156126975761269761309e565b6000600182016133635761336361309e565b5060010190565b60006102a087835261337f602084018861312b565b8061024084015261339281840187612a4e565b610260840195909552505061028001529392505050565b80820281158282048414176126975761269761309e56fea26469706673582212206cf39be6fc46f7c989a7b30d9b45075b1ff9e7c37031b1b7c7791e78c8521a5764736f6c63430008140033","linkReferences":{}},"methodIdentifiers":{"addDeployerCoordinator(address)":"421caba8","checkpointDurationResolution()":"d0f96b92","defaultPausers()":"a64c90bf","deployAndInitialize(bytes32,address,(address,address,address,bytes32,uint256,uint256,uint256,uint256,uint256,uint256,address,address,address,(uint256,uint256,uint256,uint256)),bytes,uint256,uint256,uint256,(address,bool,bytes),bytes32)":"b9fdb319","deployTarget(bytes32,address,(address,address,address,bytes32,uint256,uint256,uint256,uint256,uint256,uint256,address,address,address,(uint256,uint256,uint256,uint256)),bytes,uint256,uint256,uint256,bytes32)":"fec45139","deployerCoordinatorManager()":"e4e7148f","feeCollector()":"c415b95c","getDeployerCoordinatorAtIndex(uint256)":"fe3d5aeb","getDeployerCoordinatorsInRange(uint256,uint256)":"ec895f11","getInstanceAtIndex(uint256)":"daac24da","getInstancesInRange(uint256,uint256)":"bc30e7a1","getNumberOfDeployerCoordinators()":"e1b39c80","getNumberOfInstances()":"6e95d67c","governance()":"5aa6e675","hyperdriveGovernance()":"e3331555","instancesToDeployerCoordinators(address)":"6c8cc865","isDeployerCoordinator(address)":"f8c09e59","isInstance(address)":"6b44e6be","linkerCodeHash()":"c905a4b5","linkerFactory()":"99623bb1","maxCheckpointDuration()":"e0e2daaa","maxCircuitBreakerDelta()":"4554f9a9","maxFees()":"e83e34b1","maxFixedAPR()":"bf9bd5cd","maxPositionDuration()":"8efc0986","maxTimeStretchAPR()":"48800760","minCheckpointDuration()":"5720c9d5","minCircuitBreakerDelta()":"1ecda0fe","minFees()":"c1722563","minFixedAPR()":"d23d7ea3","minPositionDuration()":"daf012e6","minTimeStretchAPR()":"d6f50169","name()":"06fdde03","removeDeployerCoordinator(address,uint256)":"411c3035","sweepCollector()":"10780f73","updateCheckpointDurationResolution(uint256)":"11e77bfe","updateDefaultPausers(address[])":"9af25262","updateDeployerCoordinatorManager(address)":"a98a46db","updateFeeCollector(address)":"d2c35ce8","updateGovernance(address)":"b2561263","updateHyperdriveGovernance(address)":"dd2b8fbb","updateLinkerCodeHash(bytes32)":"4fbfee77","updateLinkerFactory(address)":"85229785","updateMaxCheckpointDuration(uint256)":"6f6d5c4a","updateMaxCircuitBreakerDelta(uint256)":"84c19aab","updateMaxFees((uint256,uint256,uint256,uint256))":"2885e3ac","updateMaxFixedAPR(uint256)":"97b0e8ce","updateMaxPositionDuration(uint256)":"eb71f66c","updateMaxTimeStretchAPR(uint256)":"628027a3","updateMinCheckpointDuration(uint256)":"8e127cf5","updateMinCircuitBreakerDelta(uint256)":"2907d3dd","updateMinFees((uint256,uint256,uint256,uint256))":"10d1dc3e","updateMinFixedAPR(uint256)":"1978ebcf","updateMinPositionDuration(uint256)":"e71f34b3","updateMinTimeStretchAPR(uint256)":"83b361e8","updateSweepCollector(address)":"8627a4f0","version()":"54fd4d50"},"id":36}