{"abi":[{"type":"constructor","inputs":[{"name":"_factoryConfig","type":"tuple","internalType":"struct HyperdriveFactory.FactoryConfig","components":[{"name":"governance","type":"address","internalType":"address"},{"name":"hyperdriveGovernance","type":"address","internalType":"address"},{"name":"defaultPausers","type":"address[]","internalType":"address[]"},{"name":"feeCollector","type":"address","internalType":"address"},{"name":"sweepCollector","type":"address","internalType":"address"},{"name":"checkpointDurationResolution","type":"uint256","internalType":"uint256"},{"name":"minCheckpointDuration","type":"uint256","internalType":"uint256"},{"name":"maxCheckpointDuration","type":"uint256","internalType":"uint256"},{"name":"minPositionDuration","type":"uint256","internalType":"uint256"},{"name":"maxPositionDuration","type":"uint256","internalType":"uint256"},{"name":"minFixedAPR","type":"uint256","internalType":"uint256"},{"name":"maxFixedAPR","type":"uint256","internalType":"uint256"},{"name":"minTimeStretchAPR","type":"uint256","internalType":"uint256"},{"name":"maxTimeStretchAPR","type":"uint256","internalType":"uint256"},{"name":"minFees","type":"tuple","internalType":"struct IHyperdrive.Fees","components":[{"name":"curve","type":"uint256","internalType":"uint256"},{"name":"flat","type":"uint256","internalType":"uint256"},{"name":"governanceLP","type":"uint256","internalType":"uint256"},{"name":"governanceZombie","type":"uint256","internalType":"uint256"}]},{"name":"maxFees","type":"tuple","internalType":"struct IHyperdrive.Fees","components":[{"name":"curve","type":"uint256","internalType":"uint256"},{"name":"flat","type":"uint256","internalType":"uint256"},{"name":"governanceLP","type":"uint256","internalType":"uint256"},{"name":"governanceZombie","type":"uint256","internalType":"uint256"}]},{"name":"linkerFactory","type":"address","internalType":"address"},{"name":"linkerCodeHash","type":"bytes32","internalType":"bytes32"}]}],"stateMutability":"nonpayable"},{"type":"receive","stateMutability":"payable"},{"type":"function","name":"addDeployerCoordinator","inputs":[{"name":"_deployerCoordinator","type":"address","internalType":"address"}],"outputs":[],"stateMutability":"nonpayable"},{"type":"function","name":"checkpointDurationResolution","inputs":[],"outputs":[{"name":"","type":"uint256","internalType":"uint256"}],"stateMutability":"view"},{"type":"function","name":"defaultPausers","inputs":[],"outputs":[{"name":"","type":"address[]","internalType":"address[]"}],"stateMutability":"view"},{"type":"function","name":"deployAndInitialize","inputs":[{"name":"_deploymentId","type":"bytes32","internalType":"bytes32"},{"name":"_deployerCoordinator","type":"address","internalType":"address"},{"name":"_config","type":"tuple","internalType":"struct IHyperdrive.PoolDeployConfig","components":[{"name":"baseToken","type":"address","internalType":"contract IERC20"},{"name":"vaultSharesToken","type":"address","internalType":"contract IERC20"},{"name":"linkerFactory","type":"address","internalType":"address"},{"name":"linkerCodeHash","type":"bytes32","internalType":"bytes32"},{"name":"minimumShareReserves","type":"uint256","internalType":"uint256"},{"name":"minimumTransactionAmount","type":"uint256","internalType":"uint256"},{"name":"positionDuration","type":"uint256","internalType":"uint256"},{"name":"checkpointDuration","type":"uint256","internalType":"uint256"},{"name":"timeStretch","type":"uint256","internalType":"uint256"},{"name":"governance","type":"address","internalType":"address"},{"name":"feeCollector","type":"address","internalType":"address"},{"name":"sweepCollector","type":"address","internalType":"address"},{"name":"fees","type":"tuple","internalType":"struct IHyperdrive.Fees","components":[{"name":"curve","type":"uint256","internalType":"uint256"},{"name":"flat","type":"uint256","internalType":"uint256"},{"name":"governanceLP","type":"uint256","internalType":"uint256"},{"name":"governanceZombie","type":"uint256","internalType":"uint256"}]}]},{"name":"_extraData","type":"bytes","internalType":"bytes"},{"name":"_contribution","type":"uint256","internalType":"uint256"},{"name":"_fixedAPR","type":"uint256","internalType":"uint256"},{"name":"_timeStretchAPR","type":"uint256","internalType":"uint256"},{"name":"_options","type":"tuple","internalType":"struct IHyperdrive.Options","components":[{"name":"destination","type":"address","internalType":"address"},{"name":"asBase","type":"bool","internalType":"bool"},{"name":"extraData","type":"bytes","internalType":"bytes"}]},{"name":"_salt","type":"bytes32","internalType":"bytes32"}],"outputs":[{"name":"","type":"address","internalType":"contract IHyperdrive"}],"stateMutability":"payable"},{"type":"function","name":"deployTarget","inputs":[{"name":"_deploymentId","type":"bytes32","internalType":"bytes32"},{"name":"_deployerCoordinator","type":"address","internalType":"address"},{"name":"_config","type":"tuple","internalType":"struct IHyperdrive.PoolDeployConfig","components":[{"name":"baseToken","type":"address","internalType":"contract IERC20"},{"name":"vaultSharesToken","type":"address","internalType":"contract IERC20"},{"name":"linkerFactory","type":"address","internalType":"address"},{"name":"linkerCodeHash","type":"bytes32","internalType":"bytes32"},{"name":"minimumShareReserves","type":"uint256","internalType":"uint256"},{"name":"minimumTransactionAmount","type":"uint256","internalType":"uint256"},{"name":"positionDuration","type":"uint256","internalType":"uint256"},{"name":"checkpointDuration","type":"uint256","internalType":"uint256"},{"name":"timeStretch","type":"uint256","internalType":"uint256"},{"name":"governance","type":"address","internalType":"address"},{"name":"feeCollector","type":"address","internalType":"address"},{"name":"sweepCollector","type":"address","internalType":"address"},{"name":"fees","type":"tuple","internalType":"struct IHyperdrive.Fees","components":[{"name":"curve","type":"uint256","internalType":"uint256"},{"name":"flat","type":"uint256","internalType":"uint256"},{"name":"governanceLP","type":"uint256","internalType":"uint256"},{"name":"governanceZombie","type":"uint256","internalType":"uint256"}]}]},{"name":"_extraData","type":"bytes","internalType":"bytes"},{"name":"_fixedAPR","type":"uint256","internalType":"uint256"},{"name":"_timeStretchAPR","type":"uint256","internalType":"uint256"},{"name":"_targetIndex","type":"uint256","internalType":"uint256"},{"name":"_salt","type":"bytes32","internalType":"bytes32"}],"outputs":[{"name":"","type":"address","internalType":"address"}],"stateMutability":"nonpayable"},{"type":"function","name":"feeCollector","inputs":[],"outputs":[{"name":"","type":"address","internalType":"address"}],"stateMutability":"view"},{"type":"function","name":"getDeployerCoordinatorAtIndex","inputs":[{"name":"index","type":"uint256","internalType":"uint256"}],"outputs":[{"name":"","type":"address","internalType":"address"}],"stateMutability":"view"},{"type":"function","name":"getDeployerCoordinatorsInRange","inputs":[{"name":"startIndex","type":"uint256","internalType":"uint256"},{"name":"endIndex","type":"uint256","internalType":"uint256"}],"outputs":[{"name":"range","type":"address[]","internalType":"address[]"}],"stateMutability":"view"},{"type":"function","name":"getInstanceAtIndex","inputs":[{"name":"index","type":"uint256","internalType":"uint256"}],"outputs":[{"name":"","type":"address","internalType":"address"}],"stateMutability":"view"},{"type":"function","name":"getInstancesInRange","inputs":[{"name":"startIndex","type":"uint256","internalType":"uint256"},{"name":"endIndex","type":"uint256","internalType":"uint256"}],"outputs":[{"name":"range","type":"address[]","internalType":"address[]"}],"stateMutability":"view"},{"type":"function","name":"getNumberOfDeployerCoordinators","inputs":[],"outputs":[{"name":"","type":"uint256","internalType":"uint256"}],"stateMutability":"view"},{"type":"function","name":"getNumberOfInstances","inputs":[],"outputs":[{"name":"","type":"uint256","internalType":"uint256"}],"stateMutability":"view"},{"type":"function","name":"governance","inputs":[],"outputs":[{"name":"","type":"address","internalType":"address"}],"stateMutability":"view"},{"type":"function","name":"hyperdriveGovernance","inputs":[],"outputs":[{"name":"","type":"address","internalType":"address"}],"stateMutability":"view"},{"type":"function","name":"instancesToDeployerCoordinators","inputs":[{"name":"instance","type":"address","internalType":"address"}],"outputs":[{"name":"deployCoordinator","type":"address","internalType":"address"}],"stateMutability":"view"},{"type":"function","name":"isDeployerCoordinator","inputs":[{"name":"","type":"address","internalType":"address"}],"outputs":[{"name":"","type":"bool","internalType":"bool"}],"stateMutability":"view"},{"type":"function","name":"isInstance","inputs":[{"name":"","type":"address","internalType":"address"}],"outputs":[{"name":"","type":"bool","internalType":"bool"}],"stateMutability":"view"},{"type":"function","name":"linkerCodeHash","inputs":[],"outputs":[{"name":"","type":"bytes32","internalType":"bytes32"}],"stateMutability":"view"},{"type":"function","name":"linkerFactory","inputs":[],"outputs":[{"name":"","type":"address","internalType":"address"}],"stateMutability":"view"},{"type":"function","name":"maxCheckpointDuration","inputs":[],"outputs":[{"name":"","type":"uint256","internalType":"uint256"}],"stateMutability":"view"},{"type":"function","name":"maxFees","inputs":[],"outputs":[{"name":"","type":"tuple","internalType":"struct IHyperdrive.Fees","components":[{"name":"curve","type":"uint256","internalType":"uint256"},{"name":"flat","type":"uint256","internalType":"uint256"},{"name":"governanceLP","type":"uint256","internalType":"uint256"},{"name":"governanceZombie","type":"uint256","internalType":"uint256"}]}],"stateMutability":"view"},{"type":"function","name":"maxFixedAPR","inputs":[],"outputs":[{"name":"","type":"uint256","internalType":"uint256"}],"stateMutability":"view"},{"type":"function","name":"maxPositionDuration","inputs":[],"outputs":[{"name":"","type":"uint256","internalType":"uint256"}],"stateMutability":"view"},{"type":"function","name":"maxTimeStretchAPR","inputs":[],"outputs":[{"name":"","type":"uint256","internalType":"uint256"}],"stateMutability":"view"},{"type":"function","name":"minCheckpointDuration","inputs":[],"outputs":[{"name":"","type":"uint256","internalType":"uint256"}],"stateMutability":"view"},{"type":"function","name":"minFees","inputs":[],"outputs":[{"name":"","type":"tuple","internalType":"struct IHyperdrive.Fees","components":[{"name":"curve","type":"uint256","internalType":"uint256"},{"name":"flat","type":"uint256","internalType":"uint256"},{"name":"governanceLP","type":"uint256","internalType":"uint256"},{"name":"governanceZombie","type":"uint256","internalType":"uint256"}]}],"stateMutability":"view"},{"type":"function","name":"minFixedAPR","inputs":[],"outputs":[{"name":"","type":"uint256","internalType":"uint256"}],"stateMutability":"view"},{"type":"function","name":"minPositionDuration","inputs":[],"outputs":[{"name":"","type":"uint256","internalType":"uint256"}],"stateMutability":"view"},{"type":"function","name":"minTimeStretchAPR","inputs":[],"outputs":[{"name":"","type":"uint256","internalType":"uint256"}],"stateMutability":"view"},{"type":"function","name":"removeDeployerCoordinator","inputs":[{"name":"_deployerCoordinator","type":"address","internalType":"address"},{"name":"_index","type":"uint256","internalType":"uint256"}],"outputs":[],"stateMutability":"nonpayable"},{"type":"function","name":"sweepCollector","inputs":[],"outputs":[{"name":"","type":"address","internalType":"address"}],"stateMutability":"view"},{"type":"function","name":"updateCheckpointDurationResolution","inputs":[{"name":"_checkpointDurationResolution","type":"uint256","internalType":"uint256"}],"outputs":[],"stateMutability":"nonpayable"},{"type":"function","name":"updateDefaultPausers","inputs":[{"name":"_defaultPausers_","type":"address[]","internalType":"address[]"}],"outputs":[],"stateMutability":"nonpayable"},{"type":"function","name":"updateFeeCollector","inputs":[{"name":"_feeCollector","type":"address","internalType":"address"}],"outputs":[],"stateMutability":"nonpayable"},{"type":"function","name":"updateGovernance","inputs":[{"name":"_governance","type":"address","internalType":"address"}],"outputs":[],"stateMutability":"nonpayable"},{"type":"function","name":"updateHyperdriveGovernance","inputs":[{"name":"_hyperdriveGovernance","type":"address","internalType":"address"}],"outputs":[],"stateMutability":"nonpayable"},{"type":"function","name":"updateLinkerCodeHash","inputs":[{"name":"_linkerCodeHash","type":"bytes32","internalType":"bytes32"}],"outputs":[],"stateMutability":"nonpayable"},{"type":"function","name":"updateLinkerFactory","inputs":[{"name":"_linkerFactory","type":"address","internalType":"address"}],"outputs":[],"stateMutability":"nonpayable"},{"type":"function","name":"updateMaxCheckpointDuration","inputs":[{"name":"_maxCheckpointDuration","type":"uint256","internalType":"uint256"}],"outputs":[],"stateMutability":"nonpayable"},{"type":"function","name":"updateMaxFees","inputs":[{"name":"__maxFees","type":"tuple","internalType":"struct IHyperdrive.Fees","components":[{"name":"curve","type":"uint256","internalType":"uint256"},{"name":"flat","type":"uint256","internalType":"uint256"},{"name":"governanceLP","type":"uint256","internalType":"uint256"},{"name":"governanceZombie","type":"uint256","internalType":"uint256"}]}],"outputs":[],"stateMutability":"nonpayable"},{"type":"function","name":"updateMaxFixedAPR","inputs":[{"name":"_maxFixedAPR","type":"uint256","internalType":"uint256"}],"outputs":[],"stateMutability":"nonpayable"},{"type":"function","name":"updateMaxPositionDuration","inputs":[{"name":"_maxPositionDuration","type":"uint256","internalType":"uint256"}],"outputs":[],"stateMutability":"nonpayable"},{"type":"function","name":"updateMaxTimeStretchAPR","inputs":[{"name":"_maxTimeStretchAPR","type":"uint256","internalType":"uint256"}],"outputs":[],"stateMutability":"nonpayable"},{"type":"function","name":"updateMinCheckpointDuration","inputs":[{"name":"_minCheckpointDuration","type":"uint256","internalType":"uint256"}],"outputs":[],"stateMutability":"nonpayable"},{"type":"function","name":"updateMinFees","inputs":[{"name":"__minFees","type":"tuple","internalType":"struct IHyperdrive.Fees","components":[{"name":"curve","type":"uint256","internalType":"uint256"},{"name":"flat","type":"uint256","internalType":"uint256"},{"name":"governanceLP","type":"uint256","internalType":"uint256"},{"name":"governanceZombie","type":"uint256","internalType":"uint256"}]}],"outputs":[],"stateMutability":"nonpayable"},{"type":"function","name":"updateMinFixedAPR","inputs":[{"name":"_minFixedAPR","type":"uint256","internalType":"uint256"}],"outputs":[],"stateMutability":"nonpayable"},{"type":"function","name":"updateMinPositionDuration","inputs":[{"name":"_minPositionDuration","type":"uint256","internalType":"uint256"}],"outputs":[],"stateMutability":"nonpayable"},{"type":"function","name":"updateMinTimeStretchAPR","inputs":[{"name":"_minTimeStretchAPR","type":"uint256","internalType":"uint256"}],"outputs":[],"stateMutability":"nonpayable"},{"type":"function","name":"updateSweepCollector","inputs":[{"name":"_sweepCollector","type":"address","internalType":"address"}],"outputs":[],"stateMutability":"nonpayable"},{"type":"event","name":"CheckpointDurationResolutionUpdated","inputs":[{"name":"newCheckpointDurationResolution","type":"uint256","indexed":false,"internalType":"uint256"}],"anonymous":false},{"type":"event","name":"DefaultPausersUpdated","inputs":[{"name":"newDefaultPausers","type":"address[]","indexed":false,"internalType":"address[]"}],"anonymous":false},{"type":"event","name":"Deployed","inputs":[{"name":"deployerCoordinator","type":"address","indexed":true,"internalType":"address"},{"name":"hyperdrive","type":"address","indexed":false,"internalType":"address"},{"name":"config","type":"tuple","indexed":false,"internalType":"struct IHyperdrive.PoolDeployConfig","components":[{"name":"baseToken","type":"address","internalType":"contract IERC20"},{"name":"vaultSharesToken","type":"address","internalType":"contract IERC20"},{"name":"linkerFactory","type":"address","internalType":"address"},{"name":"linkerCodeHash","type":"bytes32","internalType":"bytes32"},{"name":"minimumShareReserves","type":"uint256","internalType":"uint256"},{"name":"minimumTransactionAmount","type":"uint256","internalType":"uint256"},{"name":"positionDuration","type":"uint256","internalType":"uint256"},{"name":"checkpointDuration","type":"uint256","internalType":"uint256"},{"name":"timeStretch","type":"uint256","internalType":"uint256"},{"name":"governance","type":"address","internalType":"address"},{"name":"feeCollector","type":"address","internalType":"address"},{"name":"sweepCollector","type":"address","internalType":"address"},{"name":"fees","type":"tuple","internalType":"struct IHyperdrive.Fees","components":[{"name":"curve","type":"uint256","internalType":"uint256"},{"name":"flat","type":"uint256","internalType":"uint256"},{"name":"governanceLP","type":"uint256","internalType":"uint256"},{"name":"governanceZombie","type":"uint256","internalType":"uint256"}]}]},{"name":"extraData","type":"bytes","indexed":false,"internalType":"bytes"}],"anonymous":false},{"type":"event","name":"DeployerCoordinatorAdded","inputs":[{"name":"deployerCoordinator","type":"address","indexed":true,"internalType":"address"}],"anonymous":false},{"type":"event","name":"DeployerCoordinatorRemoved","inputs":[{"name":"deployerCoordinator","type":"address","indexed":true,"internalType":"address"}],"anonymous":false},{"type":"event","name":"FeeCollectorUpdated","inputs":[{"name":"newFeeCollector","type":"address","indexed":true,"internalType":"address"}],"anonymous":false},{"type":"event","name":"GovernanceUpdated","inputs":[{"name":"governance","type":"address","indexed":true,"internalType":"address"}],"anonymous":false},{"type":"event","name":"HyperdriveGovernanceUpdated","inputs":[{"name":"hyperdriveGovernance","type":"address","indexed":true,"internalType":"address"}],"anonymous":false},{"type":"event","name":"LinkerCodeHashUpdated","inputs":[{"name":"newLinkerCodeHash","type":"bytes32","indexed":true,"internalType":"bytes32"}],"anonymous":false},{"type":"event","name":"LinkerFactoryUpdated","inputs":[{"name":"newLinkerFactory","type":"address","indexed":true,"internalType":"address"}],"anonymous":false},{"type":"event","name":"MaxCheckpointDurationUpdated","inputs":[{"name":"newMaxCheckpointDuration","type":"uint256","indexed":false,"internalType":"uint256"}],"anonymous":false},{"type":"event","name":"MaxFeesUpdated","inputs":[{"name":"newMaxFees","type":"tuple","indexed":false,"internalType":"struct IHyperdrive.Fees","components":[{"name":"curve","type":"uint256","internalType":"uint256"},{"name":"flat","type":"uint256","internalType":"uint256"},{"name":"governanceLP","type":"uint256","internalType":"uint256"},{"name":"governanceZombie","type":"uint256","internalType":"uint256"}]}],"anonymous":false},{"type":"event","name":"MaxFixedAPRUpdated","inputs":[{"name":"newMaxFixedAPR","type":"uint256","indexed":false,"internalType":"uint256"}],"anonymous":false},{"type":"event","name":"MaxPositionDurationUpdated","inputs":[{"name":"newMaxPositionDuration","type":"uint256","indexed":false,"internalType":"uint256"}],"anonymous":false},{"type":"event","name":"MaxTimeStretchAPRUpdated","inputs":[{"name":"newMaxTimeStretchAPR","type":"uint256","indexed":false,"internalType":"uint256"}],"anonymous":false},{"type":"event","name":"MinCheckpointDurationUpdated","inputs":[{"name":"newMinCheckpointDuration","type":"uint256","indexed":false,"internalType":"uint256"}],"anonymous":false},{"type":"event","name":"MinFeesUpdated","inputs":[{"name":"newMinFees","type":"tuple","indexed":false,"internalType":"struct IHyperdrive.Fees","components":[{"name":"curve","type":"uint256","internalType":"uint256"},{"name":"flat","type":"uint256","internalType":"uint256"},{"name":"governanceLP","type":"uint256","internalType":"uint256"},{"name":"governanceZombie","type":"uint256","internalType":"uint256"}]}],"anonymous":false},{"type":"event","name":"MinFixedAPRUpdated","inputs":[{"name":"newMinFixedAPR","type":"uint256","indexed":false,"internalType":"uint256"}],"anonymous":false},{"type":"event","name":"MinPositionDurationUpdated","inputs":[{"name":"newMinPositionDuration","type":"uint256","indexed":false,"internalType":"uint256"}],"anonymous":false},{"type":"event","name":"MinTimeStretchAPRUpdated","inputs":[{"name":"newMinTimeStretchAPR","type":"uint256","indexed":false,"internalType":"uint256"}],"anonymous":false},{"type":"event","name":"SweepCollectorUpdated","inputs":[{"name":"newSweepCollector","type":"address","indexed":true,"internalType":"address"}],"anonymous":false},{"type":"error","name":"DeployerCoordinatorAlreadyAdded","inputs":[]},{"type":"error","name":"DeployerCoordinatorIndexMismatch","inputs":[]},{"type":"error","name":"DeployerCoordinatorNotAdded","inputs":[]},{"type":"error","name":"EndIndexTooLarge","inputs":[]},{"type":"error","name":"InvalidCheckpointDuration","inputs":[]},{"type":"error","name":"InvalidCheckpointDurationResolution","inputs":[]},{"type":"error","name":"InvalidDeployConfig","inputs":[]},{"type":"error","name":"InvalidDeployerCoordinator","inputs":[]},{"type":"error","name":"InvalidFees","inputs":[]},{"type":"error","name":"InvalidFixedAPR","inputs":[]},{"type":"error","name":"InvalidIndexes","inputs":[]},{"type":"error","name":"InvalidMaxCheckpointDuration","inputs":[]},{"type":"error","name":"InvalidMaxFees","inputs":[]},{"type":"error","name":"InvalidMaxFixedAPR","inputs":[]},{"type":"error","name":"InvalidMaxPositionDuration","inputs":[]},{"type":"error","name":"InvalidMaxTimeStretchAPR","inputs":[]},{"type":"error","name":"InvalidMinCheckpointDuration","inputs":[]},{"type":"error","name":"InvalidMinFees","inputs":[]},{"type":"error","name":"InvalidMinFixedAPR","inputs":[]},{"type":"error","name":"InvalidMinPositionDuration","inputs":[]},{"type":"error","name":"InvalidMinTimeStretchAPR","inputs":[]},{"type":"error","name":"InvalidPositionDuration","inputs":[]},{"type":"error","name":"InvalidTimeStretchAPR","inputs":[]},{"type":"error","name":"LnInvalidInput","inputs":[]},{"type":"error","name":"ReceiveLocked","inputs":[]},{"type":"error","name":"TransferFailed","inputs":[]},{"type":"error","name":"Unauthorized","inputs":[]},{"type":"error","name":"UnsafeCastToInt256","inputs":[]}],"bytecode":{"object":"0x60806040526000805460ff191660011790553480156200001e57600080fd5b50604051620037a5380380620037a58339810160408190526200004191620005fd565b8060a001518160c0015110806200006c57508060a001518160c001516200006991906200076d565b15155b156200008b57604051630219d66360e11b815260040160405180910390fd5b60c0810151600781905560e08201511080620000bb57508060a001518160e00151620000b891906200076d565b15155b15620000da5760405163f9c0959d60e01b815260040160405180910390fd5b60e0810151600881905561010082015110806200010c57508060a001518161010001516200010991906200076d565b15155b156200012b57604051633007ad0160e11b815260040160405180910390fd5b610100810151600981905561012082015110806200015e57508060a001518161012001516200015b91906200076d565b15155b156200017d5760405163cfb699cb60e01b815260040160405180910390fd5b610120810151600a556101608101516101408201511115620001b2576040516330554de160e01b815260040160405180910390fd5b610140810151600b55610160810151600c556101a08101516101808201511115620001f0576040516383ebdfb760e01b815260040160405180910390fd5b610180810151600d556101a0810151600e556101e081015151670de0b6b3a764000010806200022f5750670de0b6b3a7640000816101e0015160200151115b806200024b5750670de0b6b3a7640000816101e0015160400151115b80620002675750670de0b6b3a7640000816101e0015160600151115b15620002865760405163161071fb60e11b815260040160405180910390fd5b6101e081015180516013819055602082015160145560408201516015556060909101516016556101c0820151511180620002d15750806101e0015160200151816101c0015160200151115b80620002ee5750806101e0015160400151816101c0015160400151115b806200030b5750806101e0015160600151816101c0015160600151115b156200032a576040516315b05a8f60e01b815260040160405180910390fd5b6101c08101518051600f55602080820151601055604080830151601155606092830151601255835160008054610100600160a81b0319166101006001600160a01b039384160217905582850151600180546001600160a01b031990811692841692909217905593850151600480548616918316919091179055608085015160058054909516911617909255908201518051620003cb92601792019062000407565b50610200810151600280546001600160a01b0319166001600160a01b0390921691909117905561022081015160035560a0015160065562000790565b8280548282559060005260206000209081019282156200045f579160200282015b828111156200045f57825182546001600160a01b0319166001600160a01b0390911617825560209092019160019091019062000428565b506200046d92915062000471565b5090565b5b808211156200046d576000815560010162000472565b634e487b7160e01b600052604160045260246000fd5b60405161024081016001600160401b0381118282101715620004c457620004c462000488565b60405290565b80516001600160a01b0381168114620004e257600080fd5b919050565b600082601f830112620004f957600080fd5b815160206001600160401b038083111562000518576200051862000488565b8260051b604051601f19603f8301168101818110848211171562000540576200054062000488565b6040529384528581018301938381019250878511156200055f57600080fd5b83870191505b8482101562000589576200057982620004ca565b8352918301919083019062000565565b979650505050505050565b600060808284031215620005a757600080fd5b604051608081016001600160401b0381118282101715620005cc57620005cc62000488565b8060405250809150825181526020830151602082015260408301516040820152606083015160608201525092915050565b6000602082840312156200061057600080fd5b81516001600160401b03808211156200062857600080fd5b9083019061030082860312156200063e57600080fd5b620006486200049e565b6200065383620004ca565b81526200066360208401620004ca565b60208201526040830151828111156200067b57600080fd5b6200068987828601620004e7565b6040830152506200069d60608401620004ca565b6060820152620006b060808401620004ca565b608082015260a0838101519082015260c0808401519082015260e08084015190820152610100808401519082015261012080840151908201526101408084015190820152610160808401519082015261018080840151908201526101a080840151908201526101c09150620007288683850162000594565b828201526200073c86610240850162000594565b6101e0820152620007516102c08401620004ca565b6102008201526102e09290920151610220830152509392505050565b6000826200078b57634e487b7160e01b600052601260045260246000fd5b500690565b61300580620007a06000396000f3fe6080604052600436106102b25760003560e01c806399623bb111610175578063d6f50169116100dc578063e333155511610095578063eb71f66c1161006f578063eb71f66c1461085a578063ec895f111461087a578063f8c09e591461089a578063fe3d5aeb146108ca57600080fd5b8063e333155514610805578063e71f34b314610825578063e83e34b11461084557600080fd5b8063d6f501691461076e578063daac24da14610784578063daf012e6146107a4578063dd2b8fbb146107ba578063e0e2daaa146107da578063e1b39c80146107f057600080fd5b8063c17225631161012e578063c1722563146106ca578063c415b95c146106ec578063c905a4b51461070c578063d0f96b9214610722578063d23d7ea314610738578063d2c35ce81461074e57600080fd5b806399623bb1146106125780639af2526214610632578063a64c90bf14610652578063b256126314610674578063bc30e7a114610694578063bf9bd5cd146106b457600080fd5b80635aa6e6751161021957806383b361e8116101d257806383b361e81461055c578063852297851461057c5780638627a4f01461059c5780638e127cf5146105bc5780638efc0986146105dc57806397b0e8ce146105f257600080fd5b80635aa6e6751461046c578063628027a3146104915780636b44e6be146104b15780636c8cc865146104f15780636e95d67c146105275780636f6d5c4a1461053c57600080fd5b80632facc5191161026b5780632facc519146103b2578063411c3035146103d2578063421caba8146103f257806348800760146104125780634fbfee77146104365780635720c9d51461045657600080fd5b806306902494146102e257806310780f731461031257806310d1dc3e1461033257806311e77bfe146103525780631978ebcf146103725780632885e3ac1461039257600080fd5b366102dd5760005460ff16156102db57604051630aac75b560e31b815260040160405180910390fd5b005b600080fd5b6102f56102f03660046128ee565b6108ea565b6040516001600160a01b0390911681526020015b60405180910390f35b34801561031e57600080fd5b506005546102f5906001600160a01b031681565b34801561033e57600080fd5b506102db61034d366004612a1d565b610ce7565b34801561035e57600080fd5b506102db61036d366004612a2f565b610e05565b34801561037e57600080fd5b506102db61038d366004612a2f565b610ee3565b34801561039e57600080fd5b506102db6103ad366004612a1d565b610f6a565b3480156103be57600080fd5b506102f56103cd366004612a48565b6110d5565b3480156103de57600080fd5b506102db6103ed366004612adc565b6111c7565b3480156103fe57600080fd5b506102db61040d366004612b08565b611384565b34801561041e57600080fd5b50610428600e5481565b604051908152602001610309565b34801561044257600080fd5b506102db610451366004612a2f565b611479565b34801561046257600080fd5b5061042860075481565b34801561047857600080fd5b506000546102f59061010090046001600160a01b031681565b34801561049d57600080fd5b506102db6104ac366004612a2f565b6114db565b3480156104bd57600080fd5b506104e16104cc366004612b08565b601c6020526000908152604090205460ff1681565b6040519015158152602001610309565b3480156104fd57600080fd5b506102f561050c366004612b08565b601a602052600090815260409020546001600160a01b031681565b34801561053357600080fd5b50601b54610428565b34801561054857600080fd5b506102db610557366004612a2f565b611562565b34801561056857600080fd5b506102db610577366004612a2f565b61160b565b34801561058857600080fd5b506102db610597366004612b08565b611692565b3480156105a857600080fd5b506102db6105b7366004612b08565b61170b565b3480156105c857600080fd5b506102db6105d7366004612a2f565b611784565b3480156105e857600080fd5b50610428600a5481565b3480156105fe57600080fd5b506102db61060d366004612a2f565b61182d565b34801561061e57600080fd5b506002546102f5906001600160a01b031681565b34801561063e57600080fd5b506102db61064d366004612b2c565b6118b4565b34801561065e57600080fd5b50610667611921565b6040516103099190612ba1565b34801561068057600080fd5b506102db61068f366004612b08565b611983565b3480156106a057600080fd5b506106676106af366004612bee565b611a02565b3480156106c057600080fd5b50610428600c5481565b3480156106d657600080fd5b506106df611b1f565b6040516103099190612c10565b3480156106f857600080fd5b506004546102f5906001600160a01b031681565b34801561071857600080fd5b5061042860035481565b34801561072e57600080fd5b5061042860065481565b34801561074457600080fd5b50610428600b5481565b34801561075a57600080fd5b506102db610769366004612b08565b611b77565b34801561077a57600080fd5b50610428600d5481565b34801561079057600080fd5b506102f561079f366004612a2f565b611bf0565b3480156107b057600080fd5b5061042860095481565b3480156107c657600080fd5b506102db6107d5366004612b08565b611c20565b3480156107e657600080fd5b5061042860085481565b3480156107fc57600080fd5b50601854610428565b34801561081157600080fd5b506001546102f5906001600160a01b031681565b34801561083157600080fd5b506102db610840366004612a2f565b611c99565b34801561085157600080fd5b506106df611d42565b34801561086657600080fd5b506102db610875366004612a2f565b611d9a565b34801561088657600080fd5b50610667610895366004612bee565b611e37565b3480156108a657600080fd5b506104e16108b5366004612b08565b60196020526000908152604090205460ff1681565b3480156108d657600080fd5b506102f56108e5366004612a2f565b611f4d565b6001600160a01b03881660009081526019602052604081205460ff1661092357604051636e623f0f60e01b815260040160405180910390fd5b61092e888686611f62565b60408051336020808301919091528183018d905282518083038401815260608301938490528051910120631ae6f51560e01b9092526000916001600160a01b038c1691631ae6f51591610989918d908d908990606401612d79565b6020604051808303816000875af11580156109a8573d6000803e3d6000fd5b505050506040513d601f19601f820116820180604052508101906109cc9190612db4565b6001600160a01b038181166000908152601a60205260409081902080546001600160a01b0319168e84169081179091556001549092166101208d015251919250907fd371ed88cc563fd25b2a95ce8bb8d0adbf9bb4d8725c94996d2cae1d0ddf2a7290610a3e9084908d908d90612dd1565b60405180910390a2601b805460018082019092557f3ad8aa4f87544323a9d1e5dd902f40c356527a7955687113db5f9a85ad579dc10180546001600160a01b0319166001600160a01b038481169182179092556000908152601c60209081526040808320805460ff1990811690961790558254909416909155825133918101919091529182018d90528b16906316abfc7090349060600160405160208183030381529060405280519060200120338b8b8a6040518763ffffffff1660e01b8152600401610b0f959493929190612e0c565b60206040518083038185885af1158015610b2d573d6000803e3d6000fd5b50505050506040513d601f19601f82011682018060405250810190610b529190612e6f565b506000805460ff191660011781555b601754811015610c0457816001600160a01b0316637180c8ca60178381548110610b8d57610b8d612e88565b60009182526020909120015460405160e083901b6001600160e01b03191681526001600160a01b03909116600482015260016024820152604401600060405180830381600087803b158015610be157600080fd5b505af1158015610bf5573d6000803e3d6000fd5b50505050806001019050610b61565b5060015460405163ab033ea960e01b81526001600160a01b0391821660048201529082169063ab033ea990602401600060405180830381600087803b158015610c4c57600080fd5b505af1158015610c60573d6000803e3d6000fd5b504792505081159050610cd857604051600090339083908381818185875af1925050503d8060008114610caf576040519150601f19603f3d011682016040523d82523d6000602084013e610cb4565b606091505b5050905080610cd6576040516312171d8360e31b815260040160405180910390fd5b505b509a9950505050505050505050565b60005461010090046001600160a01b03163314610d16576040516282b42960e81b815260040160405180910390fd5b6040805160808101825260135480825260145460208301526015549282019290925260165460608201529082351180610d56575080602001518260200135115b80610d68575080604001518260400135115b80610d7a575080606001518260600135115b15610d98576040516315b05a8f60e01b815260040160405180910390fd5b8135600f819055602080840135601081905560408086013560118190556060808801356012819055835196875294860193909352908401528201527fe1c45f8aeb543f30b37cc2fccfbac0f32cc8f234284df921d71cff04e51ef421906080015b60405180910390a15050565b60005461010090046001600160a01b03163314610e34576040516282b42960e81b815260040160405180910390fd5b80600754610e429190612e9e565b151580610e5b575080600854610e589190612e9e565b15155b80610e72575080600954610e6f9190612e9e565b15155b80610e89575080600a54610e869190612e9e565b15155b15610ea7576040516311b75c1560e31b815260040160405180910390fd5b60068190556040518181527f04ed835b488b4fcf0a212a46ed67cbbffc2fc81b5cb6a12c546572cbf7b7e06a906020015b60405180910390a150565b60005461010090046001600160a01b03163314610f12576040516282b42960e81b815260040160405180910390fd5b600c54811115610f3557604051631670f79760e01b815260040160405180910390fd5b600b8190556040518181527faab0ee9100629c405a4d75336e1640cc81e0608fb0d7f17389c06ee8d4f0219190602001610ed8565b60005461010090046001600160a01b03163314610f99576040516282b42960e81b815260040160405180910390fd5b60408051608081018252600f5481526010546020820152601154918101919091526012546060820152670de0b6b3a764000082351180610fe45750670de0b6b3a76400008260200135115b80610ffa5750670de0b6b3a76400008260400135115b806110105750670de0b6b3a76400008260600135115b8061101c575080518235105b8061102e575080602001518260200135105b80611040575080604001518260400135105b80611052575080606001518260600135105b156110705760405163161071fb60e11b815260040160405180910390fd5b81356013819055602080840135601481905560408086013560158190556060808801356016819055835196875294860193909352908401528201527f8c6093c7e65dd862e88162770c4e156e8a0da57d25d961e0fb6f28cfb7ff89a790608001610df9565b6001600160a01b03871660009081526019602052604081205460ff1661110e57604051636e623f0f60e01b815260040160405180910390fd5b611119878686611f62565b60408051336020808301919091528183018c90528251808303840181526060830193849052805191012063059e27c360e11b9092526000916001600160a01b038b1691630b3c4f8691611176918c908c908a908a90606401612ec0565b6020604051808303816000875af1158015611195573d6000803e3d6000fd5b505050506040513d601f19601f820116820180604052508101906111b99190612db4565b9a9950505050505050505050565b60005461010090046001600160a01b031633146111f6576040516282b42960e81b815260040160405180910390fd5b6001600160a01b03821660009081526019602052604090205460ff1661122f57604051634bf121ab60e01b815260040160405180910390fd5b816001600160a01b03166018828154811061124c5761124c612e88565b6000918252602090912001546001600160a01b03161461127f57604051630f2700cb60e21b815260040160405180910390fd5b6001600160a01b0382166000908152601960205260409020805460ff19169055601880546112af90600190612f15565b815481106112bf576112bf612e88565b600091825260209091200154601880546001600160a01b0390921691839081106112eb576112eb612e88565b9060005260206000200160006101000a8154816001600160a01b0302191690836001600160a01b03160217905550601880548061132a5761132a612f28565b600082815260208120820160001990810180546001600160a01b03191690559091019091556040516001600160a01b038416917f709b7450bfafda93efd91d29149870a794637ac9d696ca61625fd2f53548afe091a25050565b60005461010090046001600160a01b031633146113b3576040516282b42960e81b815260040160405180910390fd5b6001600160a01b03811660009081526019602052604090205460ff16156113ed5760405163bd34634f60e01b815260040160405180910390fd5b6001600160a01b038116600081815260196020526040808220805460ff1916600190811790915560188054918201815583527fb13d2d76d1f4b7be834882e410b3e3a8afaf69f83600ae24db354391d2378d2e0180546001600160a01b03191684179055517f16ce88285cfd59829a5aa04370a5ec8090a18c14e7e7fb9d4b12a42291c098e39190a250565b60005461010090046001600160a01b031633146114a8576040516282b42960e81b815260040160405180910390fd5b600381905560405181907f395a61259037298d1c4cd4bf177b64ad5995d38a9394573fcd9060d649314ad090600090a250565b60005461010090046001600160a01b0316331461150a576040516282b42960e81b815260040160405180910390fd5b600d5481101561152d57604051630a35539d60e41b815260040160405180910390fd5b600e8190556040518181527fa9e7961bb3342715dbecc208087a6a9df8986d524b3a0a829fd90f5a2f5ba53e90602001610ed8565b60005461010090046001600160a01b03163314611591576040516282b42960e81b815260040160405180910390fd5b6007548110806115ac57506006546115a99082612e9e565b15155b806115b8575060095481115b156115d65760405163f9c0959d60e01b815260040160405180910390fd5b60088190556040518181527f31407ddd1722f500b8aa2c18e112398626dd7c2869a5f80731ec30b244d9b5f290602001610ed8565b60005461010090046001600160a01b0316331461163a576040516282b42960e81b815260040160405180910390fd5b600e5481111561165d57604051635a8f655760e01b815260040160405180910390fd5b600d8190556040518181527f490eb2a91746aa933c9ffe2f7939aa06498f3259139f8805f008b12c8c697a4690602001610ed8565b60005461010090046001600160a01b031633146116c1576040516282b42960e81b815260040160405180910390fd5b600280546001600160a01b0319166001600160a01b0383169081179091556040517f03aa5b0fb65014eea89fda04a7bc11742014881f3c078f2c75b7226ce10d941890600090a250565b60005461010090046001600160a01b0316331461173a576040516282b42960e81b815260040160405180910390fd5b600580546001600160a01b0319166001600160a01b0383169081179091556040517fc049058b1df2dd8902739ceb78992df12fa8369c06c450b3c6787137b452fdd290600090a250565b60005461010090046001600160a01b031633146117b3576040516282b42960e81b815260040160405180910390fd5b6006548110806117ce57506006546117cb9082612e9e565b15155b806117da575060085481115b156117f857604051630219d66360e11b815260040160405180910390fd5b60078190556040518181527f6f8175cdbac1b4d238abba24a17d2554d7b9750bbeda6414e191c478384b763190602001610ed8565b60005461010090046001600160a01b0316331461185c576040516282b42960e81b815260040160405180910390fd5b600b5481101561187f5760405163019cfb7b60e61b815260040160405180910390fd5b600c8190556040518181527f4fa35c11ce9a45ae882c154ecb53ab5cac52a74a5b9b0373be36deb30c78297890602001610ed8565b60005461010090046001600160a01b031633146118e3576040516282b42960e81b815260040160405180910390fd5b6118ef6017838361264d565b507f2a85276cf604a3822e19b29a3e97aebfbc47a19025c2e8f6e80b3af774dcbc388282604051610df9929190612f3e565b6060601780548060200260200160405190810160405280929190818152602001828054801561197957602002820191906000526020600020905b81546001600160a01b0316815260019091019060200180831161195b575b5050505050905090565b60005461010090046001600160a01b031633146119b2576040516282b42960e81b815260040160405180910390fd5b60008054610100600160a81b0319166101006001600160a01b03841690810291909117825560405190917f9d3e522e1e47a2f6009739342b9cc7b252a1888154e843ab55ee1c81745795ab91a250565b606081831115611a2557604051633b2735ab60e11b815260040160405180910390fd5b601b548210611a475760405163e0f7becb60e01b815260040160405180910390fd5b611a518383612f15565b611a5c906001612f8c565b67ffffffffffffffff811115611a7457611a746126e4565b604051908082528060200260200182016040528015611a9d578160200160208202803683370190505b509050825b828111611b1857601b8181548110611abc57611abc612e88565b9060005260206000200160009054906101000a90046001600160a01b03168285830381518110611aee57611aee612e88565b6001600160a01b039092166020928302919091019091015280611b1081612f9f565b915050611aa2565b5092915050565b611b4a6040518060800160405280600081526020016000815260200160008152602001600081525090565b5060408051608081018252600f548152601054602082015260115491810191909152601254606082015290565b60005461010090046001600160a01b03163314611ba6576040516282b42960e81b815260040160405180910390fd5b600480546001600160a01b0319166001600160a01b0383169081179091556040517fe5693914d19c789bdee50a362998c0bc8d035a835f9871da5d51152f0582c34f90600090a250565b6000601b8281548110611c0557611c05612e88565b6000918252602090912001546001600160a01b031692915050565b60005461010090046001600160a01b03163314611c4f576040516282b42960e81b815260040160405180910390fd5b600180546001600160a01b0319166001600160a01b0383169081179091556040517ff3e07b4bb4394f2ff320bd1dd151551dff304d5e948b401d8558b228482c97d890600090a250565b60005461010090046001600160a01b03163314611cc8576040516282b42960e81b815260040160405180910390fd5b600854811080611ce35750600654611ce09082612e9e565b15155b80611cef5750600a5481115b15611d0d57604051633007ad0160e11b815260040160405180910390fd5b60098190556040518181527fe9ef3e93dff799d4db8a12ff79e0918a5a78d75b10527864f4b1c920f6f4f17890602001610ed8565b611d6d6040518060800160405280600081526020016000815260200160008152602001600081525090565b50604080516080810182526013548152601454602082015260155491810191909152601654606082015290565b60005461010090046001600160a01b03163314611dc9576040516282b42960e81b815260040160405180910390fd5b600954811080611de45750600654611de19082612e9e565b15155b15611e025760405163cfb699cb60e01b815260040160405180910390fd5b600a8190556040518181527f866fe9485f9983afceaa1385307b6eb0fd3df5a250ae2b0bf76dc9ddd316926b90602001610ed8565b606081831115611e5a57604051633b2735ab60e11b815260040160405180910390fd5b6018548210611e7c5760405163e0f7becb60e01b815260040160405180910390fd5b611e868383612f15565b611e91906001612f8c565b67ffffffffffffffff811115611ea957611ea96126e4565b604051908082528060200260200182016040528015611ed2578160200160208202803683370190505b509050825b828111611b185760188181548110611ef157611ef1612e88565b9060005260206000200160009054906101000a90046001600160a01b03168285830381518110611f2357611f23612e88565b6001600160a01b039092166020928302919091019091015280611f4581612f9f565b915050611ed7565b600060188281548110611c0557611c05612e88565b6007548360e001511080611f7b57506008548360e00151115b80611f9657506006548360e00151611f939190612e9e565b15155b15611fb457604051635428734d60e01b815260040160405180910390fd5b6009548360c001511080611fcd5750600a548360c00151115b80611fea57508260e001518360c00151611fe79190612e9e565b15155b156120085760405163253fffcf60e11b815260040160405180910390fd5b60135461018084015151118061203c575060145460c08401516101808501516020015161203a916301e13380906122a9565b115b80612051575060155461018084015160400151115b80612066575060165461018084015160600151115b806120785750600f5461018084015151105b806120a1575060105460c08401516101808501516020015161209f916301e13380906122c7565b105b806120b6575060115461018084015160400151105b806120cb575060125461018084015160600151105b156120e957604051632d8768f960e01b815260040160405180910390fd5b600b548210806120fa5750600c5482115b15612118576040516330554de160e01b815260040160405180910390fd5b600061213d6611c37937e0800061213785671bc16d674ec800006122ed565b9061230b565b600d5490915061214d908261230b565b821080612180575061217d612174671bc16d674ec8000061216e868561230b565b90612321565b600e5490612336565b82115b1561219e576040516383ebdfb760e01b815260040160405180910390fd5b60006121ae838660c0015161234b565b60025460408701519192506001600160a01b0391821691161415806121d95750600354856060015114155b806121f857506004546101408601516001600160a01b03908116911614155b8061221757506005546101608601516001600160a01b03908116911614155b8061223657506001546101208601516001600160a01b03908116911614155b80612245575061010085015115155b156122635760405163e8c02dd760e01b815260040160405180910390fd5b6002546001600160a01b03908116604087015260035460608701526004548116610140870152600554166101608601523061012086015261010090940193909352505050565b60008260001904841183021582026122c057600080fd5b5091020490565b60008260001904841183021582026122de57600080fd5b50910281810615159190040190565b600061230283670de0b6b3a7640000846122a9565b90505b92915050565b600081831161231a5781612302565b5090919050565b60006123028383670de0b6b3a76400006122a9565b60008183116123455782612302565b50919050565b60008061237c61236d61235f866064612fb8565b66a5bbed86c5a00090612321565b6748cd4072281e0000906122ed565b9050612390670de0b6b3a7640000826122ed565b90506123e88161216e6123bb6123b66123b189670de0b6b3a7640000612f8c565b6123f0565b61241e565b6123e26123b66123d08a8a6301e133806122a9565b6123b190670de0b6b3a7640000612f8c565b906122ed565b949350505050565b60006001600160ff1b0382111561241a5760405163396ea70160e11b815260040160405180910390fd5b5090565b60008082136124405760405163e61b497560e01b815260040160405180910390fd5b506fffffffffffffffffffffffffffffffff811160071b81811c67ffffffffffffffff1060061b1781811c63ffffffff1060051b1781811c61ffff1060041b1781811c60ff10600390811b90911782811c600f1060021b1782811c909110600190811b90911782811c90911017609f8181036060019290921b91605f198201906124cc9084901c6123f0565b6c465772b2bbbb5f824b15207a3081018102606090811d6d0388eaa27412d5aca026815d636e018202811d6d0df99ac502031bf953eff472fdcc018202811d6d13cdffb29d51d99322bdff5f2211018202811d6d0a0f742023def783a307a986912e018202811d6d01920d8043ca89b5239253284e42018202811d6c0b7a86d7375468fac667a0a527016c29508e458543d8aa4df2abee7883018302821d6d0139601a2efabe717e604cbb4894018302821d6d02247f7a7b6594320649aa03aba1018302821d6c8c3f38e95a6b1ff2ab1c3b343619018302821d6d02384773bdf1ac5676facced60901901830290911d6cb9a025d814b29c212b8b1a07cd1901909102780a09507084cc699bb0e71ea869ffffffffffffffffffffffff190105711340daa0d5f769dba1915cef59f0815a5506027d0267a36c0c95b3975ab3ee5b203a7614a3f75373f047d803ae7b6687f2b391909102017d57115e47018c7177eebf7cd370a3356a1b7863008a5ae8028c72b88642840160ae1d92915050565b8280548282559060005260206000209081019282156126a0579160200282015b828111156126a05781546001600160a01b0319166001600160a01b0384351617825560209092019160019091019061266d565b5061241a9291505b8082111561241a57600081556001016126a8565b6001600160a01b03811681146126d157600080fd5b50565b80356126df816126bc565b919050565b634e487b7160e01b600052604160045260246000fd5b6040516101a0810167ffffffffffffffff8111828210171561271e5761271e6126e4565b60405290565b60006080828403121561273657600080fd5b6040516080810181811067ffffffffffffffff82111715612759576127596126e4565b8060405250809150823581526020830135602082015260408301356040820152606083013560608201525092915050565b6000610200828403121561279d57600080fd5b6127a56126fa565b90506127b0826126d4565b81526127be602083016126d4565b60208201526127cf604083016126d4565b6040820152606082013560608201526080820135608082015260a082013560a082015260c082013560c082015260e082013560e08201526101008083013581830152506101206128208184016126d4565b908201526101406128328382016126d4565b908201526101606128448382016126d4565b9082015261018061285784848301612724565b9082015292915050565b600082601f83011261287257600080fd5b813567ffffffffffffffff8082111561288d5761288d6126e4565b604051601f8301601f19908116603f011681019082821181831017156128b5576128b56126e4565b816040528381528660208588010111156128ce57600080fd5b836020870160208301376000602085830101528094505050505092915050565b60008060008060008060008060006103008a8c03121561290d57600080fd5b8935985060208a013561291f816126bc565b975061292e8b60408c0161278a565b96506102408a013567ffffffffffffffff8082111561294c57600080fd5b6129588d838e01612861565b97506102608c013596506102808c013595506102a08c013594506102c08c013591508082111561298757600080fd5b908b01906060828e03121561299b57600080fd5b6040516060810181811083821117156129b6576129b66126e4565b60405282356129c4816126bc565b8152602083013580151581146129d957600080fd5b60208201526040830135828111156129f057600080fd5b6129fc8f828601612861565b6040830152508094505050506102e08a013590509295985092959850929598565b60006080828403121561234557600080fd5b600060208284031215612a4157600080fd5b5035919050565b6000806000806000806000806102e0898b031215612a6557600080fd5b883597506020890135612a77816126bc565b9650612a868a60408b0161278a565b955061024089013567ffffffffffffffff811115612aa357600080fd5b612aaf8b828c01612861565b989b979a5095986102608101359761028082013597506102a082013596506102c090910135945092505050565b60008060408385031215612aef57600080fd5b8235612afa816126bc565b946020939093013593505050565b600060208284031215612b1a57600080fd5b8135612b25816126bc565b9392505050565b60008060208385031215612b3f57600080fd5b823567ffffffffffffffff80821115612b5757600080fd5b818501915085601f830112612b6b57600080fd5b813581811115612b7a57600080fd5b8660208260051b8501011115612b8f57600080fd5b60209290920196919550909350505050565b6020808252825182820181905260009190848201906040850190845b81811015612be25783516001600160a01b031683529284019291840191600101612bbd565b50909695505050505050565b60008060408385031215612c0157600080fd5b50508035926020909101359150565b8151815260208083015190820152604080830151908201526060808301519082015260808101612305565b80516001600160a01b031682526020810151612c6260208401826001600160a01b03169052565b506040810151612c7d60408401826001600160a01b03169052565b50606081015160608301526080810151608083015260a081015160a083015260c081015160c083015260e081015160e083015261010080820151818401525061012080820151612cd7828501826001600160a01b03169052565b5050610140818101516001600160a01b039081169184019190915261016080830151909116908301526101809081015180519183019190915260208101516101a083015260408101516101c0830152606001516101e090910152565b6000815180845260005b81811015612d5957602081850181015186830182015201612d3d565b506000602082860101526020601f19601f83011685010191505092915050565b6000610260868352612d8e6020840187612c3b565b80610220840152612da181840186612d33565b9150508261024083015295945050505050565b600060208284031215612dc657600080fd5b8151612b25816126bc565b6001600160a01b03841681526000610240612def6020840186612c3b565b80610220840152612e0281840185612d33565b9695505050505050565b858152600060018060a01b03808716602084015285604084015284606084015260a060808401528084511660a0840152506020830151151560c08301526040830151606060e0840152612e63610100840182612d33565b98975050505050505050565b600060208284031215612e8157600080fd5b5051919050565b634e487b7160e01b600052603260045260246000fd5b600082612ebb57634e487b7160e01b600052601260045260246000fd5b500690565b6000610280878352612ed56020840188612c3b565b80610220840152612ee881840187612d33565b610240840195909552505061026001529392505050565b634e487b7160e01b600052601160045260246000fd5b8181038181111561230557612305612eff565b634e487b7160e01b600052603160045260246000fd5b60208082528181018390526000908460408401835b86811015612f81578235612f66816126bc565b6001600160a01b031682529183019190830190600101612f53565b509695505050505050565b8082018082111561230557612305612eff565b600060018201612fb157612fb1612eff565b5060010190565b808202811582820484141761230557612305612eff56fea2646970667358221220d3358b88303cebf07b2840c0726293815cb36148facbaa3a2a4a0958c3d77ec364736f6c63430008140033","linkReferences":{}},"methodIdentifiers":{"addDeployerCoordinator(address)":"421caba8","checkpointDurationResolution()":"d0f96b92","defaultPausers()":"a64c90bf","deployAndInitialize(bytes32,address,(address,address,address,bytes32,uint256,uint256,uint256,uint256,uint256,address,address,address,(uint256,uint256,uint256,uint256)),bytes,uint256,uint256,uint256,(address,bool,bytes),bytes32)":"06902494","deployTarget(bytes32,address,(address,address,address,bytes32,uint256,uint256,uint256,uint256,uint256,address,address,address,(uint256,uint256,uint256,uint256)),bytes,uint256,uint256,uint256,bytes32)":"2facc519","feeCollector()":"c415b95c","getDeployerCoordinatorAtIndex(uint256)":"fe3d5aeb","getDeployerCoordinatorsInRange(uint256,uint256)":"ec895f11","getInstanceAtIndex(uint256)":"daac24da","getInstancesInRange(uint256,uint256)":"bc30e7a1","getNumberOfDeployerCoordinators()":"e1b39c80","getNumberOfInstances()":"6e95d67c","governance()":"5aa6e675","hyperdriveGovernance()":"e3331555","instancesToDeployerCoordinators(address)":"6c8cc865","isDeployerCoordinator(address)":"f8c09e59","isInstance(address)":"6b44e6be","linkerCodeHash()":"c905a4b5","linkerFactory()":"99623bb1","maxCheckpointDuration()":"e0e2daaa","maxFees()":"e83e34b1","maxFixedAPR()":"bf9bd5cd","maxPositionDuration()":"8efc0986","maxTimeStretchAPR()":"48800760","minCheckpointDuration()":"5720c9d5","minFees()":"c1722563","minFixedAPR()":"d23d7ea3","minPositionDuration()":"daf012e6","minTimeStretchAPR()":"d6f50169","removeDeployerCoordinator(address,uint256)":"411c3035","sweepCollector()":"10780f73","updateCheckpointDurationResolution(uint256)":"11e77bfe","updateDefaultPausers(address[])":"9af25262","updateFeeCollector(address)":"d2c35ce8","updateGovernance(address)":"b2561263","updateHyperdriveGovernance(address)":"dd2b8fbb","updateLinkerCodeHash(bytes32)":"4fbfee77","updateLinkerFactory(address)":"85229785","updateMaxCheckpointDuration(uint256)":"6f6d5c4a","updateMaxFees((uint256,uint256,uint256,uint256))":"2885e3ac","updateMaxFixedAPR(uint256)":"97b0e8ce","updateMaxPositionDuration(uint256)":"eb71f66c","updateMaxTimeStretchAPR(uint256)":"628027a3","updateMinCheckpointDuration(uint256)":"8e127cf5","updateMinFees((uint256,uint256,uint256,uint256))":"10d1dc3e","updateMinFixedAPR(uint256)":"1978ebcf","updateMinPositionDuration(uint256)":"e71f34b3","updateMinTimeStretchAPR(uint256)":"83b361e8","updateSweepCollector(address)":"8627a4f0"},"id":42}