{"abi":[{"type":"function","name":"deploy","inputs":[{"name":"_config","type":"tuple","internalType":"struct IHyperdrive.PoolConfig","components":[{"name":"baseToken","type":"address","internalType":"contract IERC20"},{"name":"linkerFactory","type":"address","internalType":"address"},{"name":"linkerCodeHash","type":"bytes32","internalType":"bytes32"},{"name":"initialSharePrice","type":"uint256","internalType":"uint256"},{"name":"minimumShareReserves","type":"uint256","internalType":"uint256"},{"name":"minimumTransactionAmount","type":"uint256","internalType":"uint256"},{"name":"positionDuration","type":"uint256","internalType":"uint256"},{"name":"checkpointDuration","type":"uint256","internalType":"uint256"},{"name":"timeStretch","type":"uint256","internalType":"uint256"},{"name":"governance","type":"address","internalType":"address"},{"name":"feeCollector","type":"address","internalType":"address"},{"name":"fees","type":"tuple","internalType":"struct IHyperdrive.Fees","components":[{"name":"curve","type":"uint256","internalType":"uint256"},{"name":"flat","type":"uint256","internalType":"uint256"},{"name":"governance","type":"uint256","internalType":"uint256"}]}]},{"name":"_extraData","type":"bytes","internalType":"bytes"}],"outputs":[{"name":"","type":"address","internalType":"address"}],"stateMutability":"nonpayable"}],"bytecode":{"object":"0x608060405234801561001057600080fd5b50613fca806100206000396000f3fe60806040523480156200001157600080fd5b50600436106200002e5760003560e01c8063d09b3b961462000033575b600080fd5b6200004a620000443660046200024c565b62000066565b6040516001600160a01b03909116815260200160405180910390f35b600080828060200190518101906200007f919062000358565b50905083816040516200009290620000c5565b6200009f92919062000430565b604051809103906000f080158015620000bc573d6000803e3d6000fd5b50949350505050565b613a7d806200051883390190565b634e487b7160e01b600052604160045260246000fd5b604051610180810167ffffffffffffffff81118282101715620001105762000110620000d3565b60405290565b604051601f8201601f1916810167ffffffffffffffff81118282101715620001425762000142620000d3565b604052919050565b6001600160a01b03811681146200016057600080fd5b50565b803562000170816200014a565b919050565b6000606082840312156200018857600080fd5b6040516060810181811067ffffffffffffffff82111715620001ae57620001ae620000d3565b80604052508091508235815260208301356020820152604083013560408201525092915050565b600082601f830112620001e757600080fd5b813567ffffffffffffffff811115620002045762000204620000d3565b62000219601f8201601f191660200162000116565b8181528460208386010111156200022f57600080fd5b816020850160208301376000918101602001919091529392505050565b6000808284036101e08112156200026257600080fd5b6101c0808212156200027357600080fd5b6200027d620000e9565b91506200028a8562000163565b82526200029a6020860162000163565b602083015260408501356040830152606085013560608301526080850135608083015260a085013560a083015260c085013560c083015260e085013560e0830152610100808601358184015250610120620002f781870162000163565b908301526101406200030b86820162000163565b90830152610160620003208787830162000175565b9083015290925083013567ffffffffffffffff8111156200034057600080fd5b6200034e85828601620001d5565b9150509250929050565b600080604083850312156200036c57600080fd5b825162000379816200014a565b8092505060208084015167ffffffffffffffff808211156200039a57600080fd5b818601915086601f830112620003af57600080fd5b815181811115620003c457620003c4620000d3565b8060051b9150620003d784830162000116565b8181529183018401918481019089841115620003f257600080fd5b938501935b838510156200042057845192506200040f836200014a565b8282529385019390850190620003f7565b8096505050505050509250929050565b82516001600160a01b031681526101e0810160208401516200045d60208401826001600160a01b03169052565b5060408401516040830152606084015160608301526080840151608083015260a084015160a083015260c084015160c083015260e084015160e083015261010080850151818401525061012080850151620004c2828501826001600160a01b03169052565b5050610140848101516001600160a01b03811684830152505061016084810151805184830152602081015161018085015260408101516101a085015250506001600160a01b0383166101c0830152939250505056fe61024060405260016000553480156200001757600080fd5b5060405162003a7d38038062003a7d8339810160408190526200003a91620002bb565b81516001600160a01b031660809081528201518190839081906103e8111562000076576040516349db44f560e01b815260040160405180910390fd5b60808101516101805260a08101516101a05260e0810151600003620000ae57604051635428734d60e01b815260040160405180910390fd5b60e08101805160a0525160c08201511080620000de57508060e001518160c00151620000db9190620003af565b15155b15620000fd5760405163253fffcf60e11b815260040160405180910390fd5b60c081810151905261010081015160e0526060810151610160908152610120820151600880546001600160a01b0319166001600160a01b03928316179055610140830151166101c05281015151670de0b6b3a76400001080620001705750670de0b6b3a764000081610160015160200151115b806200018c5750670de0b6b3a764000081610160015160400151115b15620001ab576040516322f72cc360e11b815260040160405180910390fd5b610160810180515161010052805160209081015161012052905160409081015161014052908201516001600160a01b039081166101e05291015161020052919091166102205250620003d2915050565b60405161018081016001600160401b03811182821017156200022d57634e487b7160e01b600052604160045260246000fd5b60405290565b80516001600160a01b03811681146200024b57600080fd5b919050565b6000606082840312156200026357600080fd5b604051606081016001600160401b03811182821017156200029457634e487b7160e01b600052604160045260246000fd5b80604052508091508251815260208301516020820152604083015160408201525092915050565b6000808284036101e0811215620002d157600080fd5b6101c080821215620002e257600080fd5b620002ec620001fb565b9150620002f98562000233565b8252620003096020860162000233565b602083015260408501516040830152606085015160608301526080850151608083015260a085015160a083015260c085015160c083015260e085015160e08301526101008086015181840152506101206200036681870162000233565b908301526101406200037a86820162000233565b908301526101606200038f8787830162000250565b8184015250819350620003a481860162000233565b925050509250929050565b600082620003cd57634e487b7160e01b600052601260045260246000fd5b500690565b60805160a05160c05160e05161010051610120516101405161016051610180516101a0516101c0516101e051610200516102205161359a620004e3600039600081816104db015281816118ab01528181611d7f0152611e490152600081816109a201526117dc015260008181610973015261179f015260008181610ad0015281816115100152818161158a01526115f801526000610a140152600081816109ee01526119e70152600081816109c801526119c101526000610b5601526000610b3001526000610b0a015260008181610a860152611a0d015260008181610a3a01528181610d050152611ef1015260008181610a60015261224a0152600081816109440152610c76015261359a6000f3fe608060405234801561001057600080fd5b50600436106101ce5760003560e01c80637ecebe0011610104578063c55dae63116100a2578063d816574311610071578063d816574314610404578063e44808bc14610419578063e985e9c51461042c578063fba560081461043f57600080fd5b8063c55dae63146103be578063c69e16ad146103c6578063cc962f8e146103ce578063cf210e65146103f157600080fd5b8063ab033ea9116100de578063ab033ea914610363578063b0d9658014610376578063bd85b0391461038b578063becee9c31461039e57600080fd5b80637ecebe001461032a5780639cd241af1461033d578063a22cb4651461035057600080fd5b806321ff32a9116101715780634e41a1fb1161014b5780634e41a1fb146102dc5780634ed2d6ac146102ef57806360246c88146103025780637180c8ca1461031757600080fd5b806321ff32a9146102955780633656eec2146102b65780633e691db9146102c957600080fd5b806316f0115b116101ad57806316f0115b1461022457806317fad7fc146102445780631c0f12b61461025757806320fc48811461026a57600080fd5b8062ad800c146101d357806302329a29146101fc57806314e5f07b14610211575b600080fd5b6101e66101e1366004612b33565b61046e565b6040516101f39190612b9c565b60405180910390f35b61020f61020a366004612bbf565b6104a5565b005b61020f61021f366004612bf1565b6104b1565b61022c6104cd565b6040516001600160a01b0390911681526020016101f3565b61020f610252366004612ccc565b610510565b61020f610265366004612d5d565b610526565b61027d610278366004612b33565b610539565b60405190516001600160801b031681526020016101f3565b6102a86102a3366004612da1565b61057a565b6040519081526020016101f3565b6102a86102c4366004612ddd565b6105c0565b6102a86102d7366004612e09565b6105f9565b6101e66102ea366004612b33565b610604565b61020f6102fd366004612e44565b610612565b61030a610660565b6040516101f39190612e8a565b61020f610325366004612f20565b61086b565b6102a8610338366004612f4a565b610879565b61020f61034b366004612f65565b6108a5565b61020f61035e366004612f20565b6108b6565b61020f610371366004612f4a565b610922565b61037e61092b565b6040516101f39190612f9a565b6102a8610399366004612b33565b610b8b565b6103b16103ac36600461306c565b610bad565b6040516101f391906130ae565b61022c610c68565b6102a8610ca8565b6103e16103dc366004612f4a565b610cc2565b60405190151581526020016101f3565b6102a86103ff366004612b33565b610cf8565b61040c610d41565b6040516101f391906130f2565b61020f6104273660046131ef565b610daf565b6103e161043a366004613246565b610df7565b610447610e3b565b6040805182516001600160801b0390811682526020938401511692810192909252016101f3565b60606104a061047c83610e9a565b60405160200161048c9190612b9c565b604051602081830303815290604052610fc8565b919050565b6104ae81610fec565b50565b6104c2898989898989898989611039565b505050505050505050565b604080516001600160a01b037f000000000000000000000000000000000000000000000000000000000000000016602082015260009161050d910161048c565b90565b61051e86868686868661124c565b505050505050565b6105338484848433611300565b50505050565b6040805160208101909152600081526104a06007600084815260200190815260200160002060405160200161048c91546001600160801b0316815260200190565b6000838152600e602090815260408083206001600160a01b03868116855290835281842090851684528252808320548151928301526105b9910161048c565b9392505050565b6000828152600b602090815260408083206001600160a01b03851684528252808320548151928301526105f3910161048c565b92915050565b60006105f3826114c1565b60606104a061047c8361166f565b8361061c81611761565b6001600160a01b0316336001600160a01b03161461064d57604051632aab8bd360e01b815260040160405180910390fd5b6106598585858561181e565b5050505050565b6106d2604051806101c0016040528060008152602001600081526020016000815260200160008152602001600081526020016000815260200160008152602001600081526020016000815260200160008152602001600081526020016000815260200160008152602001600081525090565b60006106dc61188b565b600654600c6020527fe33c7a20958276ce9529c827d1e1b38c61245a6a2cb39f13852cf96fd6f7333d5460008080527f13649b2456f1b42fef0f0040b3aaeabcd21a76a0f3f5defd4f583839455116e854939450926001600160801b0390921691610747919061329c565b61075191906132af565b9050600080831161076357600061077e565b61077e8361077861077386611923565b611a85565b90611ae3565b604080516101c0810182526001546001600160801b038082168352600254600f81900b6020850152600160801b9081900482169484019490945290839004811660608301526080820186905260a08201879052600354839004811660c0830152600454838104821660e0840152811661010083015260055481166101208301526006548082166101408401529290920490911661016082015290915060009061018081018415610837576108328486611af8565b61083a565b60005b81526003546001600160801b03166020918201526040519192506108649161048c91849101612e8a565b5050505090565b6108758282611b0d565b5050565b6001600160a01b0381166000908152600f60209081526040808320548151928301526104a0910161048c565b6108b18383833361181e565b505050565b336000818152600d602090815260408083206001600160a01b03871680855290835292819020805460ff191686151590811790915590519081529192917f17307eab39ab6107e8899845ad3d59bd9653f200f220920489ca2b5937696c31910160405180910390a35050565b6104ae81611b85565b610933612a8a565b61050d6040518061018001604052807f00000000000000000000000000000000000000000000000000000000000000006001600160a01b031681526020017f00000000000000000000000000000000000000000000000000000000000000006001600160a01b031681526020017f000000000000000000000000000000000000000000000000000000000000000081526020017f000000000000000000000000000000000000000000000000000000000000000081526020017f000000000000000000000000000000000000000000000000000000000000000081526020017f000000000000000000000000000000000000000000000000000000000000000081526020017f000000000000000000000000000000000000000000000000000000000000000081526020017f000000000000000000000000000000000000000000000000000000000000000081526020017f00000000000000000000000000000000000000000000000000000000000000008152602001600860009054906101000a90046001600160a01b03166001600160a01b031681526020017f00000000000000000000000000000000000000000000000000000000000000006001600160a01b0316815260200160405180606001604052807f000000000000000000000000000000000000000000000000000000000000000081526020017f000000000000000000000000000000000000000000000000000000000000000081526020017f000000000000000000000000000000000000000000000000000000000000000081525081525060405160200161048c9190612f9a565b6000818152600c60209081526040808320548151928301526104a0910161048c565b606060008267ffffffffffffffff811115610bca57610bca6132c2565b604051908082528060200260200182016040528015610bf3578160200160208202803683370190505b50905060005b83811015610c4c576000858583818110610c1557610c156132d8565b90506020020135905060008154905080848481518110610c3757610c376132d8565b60209081029190910101525050600101610bf9565b50610c618160405160200161048c91906130ae565b5092915050565b604080516001600160a01b037f000000000000000000000000000000000000000000000000000000000000000016602082015260009161050d910161048c565b600061050d60095460405160200161048c91815260200190565b6001600160a01b03811660009081526010602090815260408083205490516104a09261048c9260ff169101901515815260200190565b60006104a0610d2f610d2a7f00000000000000000000000000000000000000000000000000000000000000008561329c565b611bf9565b60405160200161048c91815260200190565b6040805161016081018252600080825260208201819052918101829052606081018290526080810182905260a0810182905260c0810182905260e081018290526101008101829052610120810182905261014081019190915261050d600160405160200161048c91906132ee565b84610db981611761565b6001600160a01b0316336001600160a01b031614610dea57604051632aab8bd360e01b815260040160405180910390fd5b61051e8686868686611300565b6001600160a01b038281166000908152600d60209081526040808320938516835292815282822054835160ff90911615159181019190915290916105f3910161048c565b60408051808201909152600080825260208201526040805180820182526006546001600160801b03808216808452600160801b909204811660209384019081528451938401929092529051169181019190915261050d9060600161048c565b606060f882901c6001600160f81b0383166000610eb682611c41565b90506000836003811115610ecc57610ecc613270565b03610efe576040518060400160405280600d81526020016c048797065726472697665204c5609c1b8152509350610fc0565b6001836003811115610f1257610f12613270565b03610f3e5780604051602001610f28919061337c565b6040516020818303038152906040529350610fc0565b6002836003811115610f5257610f52613270565b03610f685780604051602001610f2891906133b5565b6003836003811115610f7c57610f7c613270565b03610fc0576040517f48797065726472697665205769746864726177616c20536861726500000000006020820152603b015b60405160208183030381529060405293505b505050919050565b80604051636e64089360e11b8152600401610fe39190612b9c565b60405180910390fd5b336000908152600a602052604090205460ff1661101b576040516282b42960e81b815260040160405180910390fd5b60058054911515600160881b0260ff60881b19909216919091179055565b8342111561105a5760405163f87d927160e01b815260040160405180910390fd5b6001600160a01b0387166110815760405163f0dd15fd60e01b815260040160405180910390fd5b6001600160a01b038781166000818152600f602090815260408083205481518084018f905280830195909552948b166060850152891515608085015260a084019490945260c08084018990528451808503909101815260e08401909452835193019290922061190160f01b61010083015261010282018c90526101228201526101420160408051601f198184030181528282528051602091820120600080855291840180845281905260ff88169284019290925260608301869052608083018590529092509060019060a0016020604051602081039080840390855afa15801561116f573d6000803e3d6000fd5b505050602060405103519050886001600160a01b0316816001600160a01b0316146111ad57604051638baa579f60e01b815260040160405180910390fd5b6001600160a01b0389166000908152600f6020526040812080549091906111d3906133ef565b909155506001600160a01b038981166000818152600d60209081526040808320948d1680845294825291829020805460ff19168c151590811790915591519182527f17307eab39ab6107e8899845ad3d59bd9653f200f220920489ca2b5937696c31910160405180910390a35050505050505050505050565b6001600160a01b038616158061126957506001600160a01b038516155b156112875760405163f0dd15fd60e01b815260040160405180910390fd5b8281146112a75760405163174861a760e31b815260040160405180910390fd5b60005b838110156112f7576112ef8585838181106112c7576112c76132d8565b9050602002013588888686868181106112e2576112e26132d8565b9050602002013533611300565b6001016112aa565b50505050505050565b6001600160a01b038416158061131d57506001600160a01b038316155b1561133b5760405163f0dd15fd60e01b815260040160405180910390fd5b836001600160a01b0316816001600160a01b0316146113ff576001600160a01b038085166000908152600d602090815260408083209385168352929052205460ff166113ff576000858152600e602090815260408083206001600160a01b038089168552908352818420908516845290915290205460001981146113fd576000868152600e602090815260408083206001600160a01b03808a1685529083528184209086168452909152812080548592906113f79084906132af565b90915550505b505b6000858152600b602090815260408083206001600160a01b0388168452909152812080548492906114319084906132af565b90915550506000858152600b602090815260408083206001600160a01b03871684529091528120805484929061146890849061329c565b909155505060408051868152602081018490526001600160a01b038086169287821692918516917fc3d58168c5ae7397731d063d5bbf3d657854427343f4c083240f7aacaa2d0f62910160405180910390a45050505050565b600080546001146115015760405162461bcd60e51b815260206004820152600a6024820152695245454e5452414e435960b01b6044820152606401610fe3565b60026000556001600160a01b037f00000000000000000000000000000000000000000000000000000000000000001661153d6020840184612f4a565b6001600160a01b03161461156457604051630ad13b3360e21b815260040160405180910390fd5b336000908152600a602052604090205460ff161580156115ad5750336001600160a01b037f00000000000000000000000000000000000000000000000000000000000000001614155b80156115c457506008546001600160a01b03163314155b156115e1576040516282b42960e81b815260040160405180910390fd5b6009805460009091556115f48184611d4e565b91507f00000000000000000000000000000000000000000000000000000000000000006001600160a01b03167fa4bafc79b3f9fdba2427cd386f1fbc7d8779e9fd7229f6220d53bc04d3901e476116538461164d61188b565b87611e77565b60405190815260200160405180910390a2506001600055919050565b606060f882901c6001600160f81b038316600061168b82611c41565b905060008360038111156116a1576116a1613270565b036116d3576040518060400160405280600d81526020016c0485950455244524956452d4c5609c1b8152509350610fc0565b60018360038111156116e7576116e7613270565b036116fd5780604051602001610f289190613408565b600283600381111561171157611711613270565b036117275780604051602001610f289190613440565b600383600381111561173b5761173b613270565b03610fc0576040516c485950455244524956452d575360981b6020820152602d01610fae565b604080513060208083019190915281830193909352815180820383018152606080830184528151918501919091206001600160f81b031960808401527f000000000000000000000000000000000000000000000000000000000000000090911b6bffffffffffffffffffffffff1916608183015260958201527f000000000000000000000000000000000000000000000000000000000000000060b5808301919091528251808303909101815260d5909101909152805191012090565b6000848152600e602090815260408083206001600160a01b0385811680865291845282852090881680865290845293829020869055905185815290917f8c5be1e5ebec7d5bd14f71427d1e84f3dd0314c0f7b2291e5b200ac8c7c3b925910160405180910390a350505050565b6040516303d1689d60e11b8152670de0b6b3a764000060048201526000907f00000000000000000000000000000000000000000000000000000000000000006001600160a01b0316906307a2d13a90602401602060405180830381865afa1580156118fa573d6000803e3d6000fd5b505050506040513d601f19601f8201168201806040525081019061191e919061346c565b905090565b61198060405180610160016040528060008152602001600081526020016000815260200160008152602001600081526020016000815260200160008152602001600081526020016000815260200160008152602001600081525090565b60408051610160810182526001546001600160801b038082168352600254600f0b6020840152600160801b91829004811693830193909352606082018590527f000000000000000000000000000000000000000000000000000000000000000060808301527f000000000000000000000000000000000000000000000000000000000000000060a08301527f000000000000000000000000000000000000000000000000000000000000000060c0830152600354819004831660e08301526004549192610100840192611a5592900416611ea6565b81526004546001600160801b039081166020830152600554604090920191611a7d9116611ea6565b905292915050565b6000808260a00151611a9684611f1c565b611a9f85611f83565b8551611aab9190613485565b611ab59190613485565b611abf91906134a5565b905060008112156105f35760405163aeeb825d60e01b815260040160405180910390fd5b60006105b98383670de0b6b3a7640000612178565b60006105b983670de0b6b3a764000084612178565b6008546001600160a01b03163314611b37576040516282b42960e81b815260040160405180910390fd5b6001600160a01b0382166000818152600a6020526040808220805460ff1916851515179055517fa4336c0cb1e245b95ad204faed7e940d6dc999684fd8b5e1ff597a0c4efca8ab9190a25050565b6008546001600160a01b03163314611baf576040516282b42960e81b815260040160405180910390fd5b600880546001600160a01b0319166001600160a01b0383169081179091556040517f9d3e522e1e47a2f6009739342b9cc7b252a1888154e843ab55ee1c81745795ab90600090a250565b6000600c6000611c0a600285612196565b815260200190815260200160002054600c6000611c28600186612196565b8152602001908152602001600020546105f391906134a5565b60408051604d808252608082019092526060919060009082602082018180368337019050509050611c73600a856134db565b611c7e90603061329c565b60f81b81611c8d6001856132af565b81518110611c9d57611c9d6132d8565b60200101906001600160f81b031916908160001a905350611cbf600a856134ef565b935060015b8415611d4057611cd5600a866134db565b611ce090603061329c565b60f81b826001611cf084876132af565b611cfa91906132af565b81518110611d0a57611d0a6132d8565b60200101906001600160f81b031916908160001a905350611d2c600a866134ef565b945080611d38816133ef565b915050611cc4565b918290030190815292915050565b600082600003611d60575060006105f3565b611d706040830160208401612bbf565b15611e2f576001600160a01b037f00000000000000000000000000000000000000000000000000000000000000001663ba08765284611db26020860186612f4a565b6040516001600160e01b031960e085901b16815260048101929092526001600160a01b031660248201523060448201526064016020604051808303816000875af1158015611e04573d6000803e3d6000fd5b505050506040513d601f19601f82011682018060405250810190611e28919061346c565b90506105f3565b611e70611e3f6020840184612f4a565b6001600160a01b037f00000000000000000000000000000000000000000000000000000000000000001690856121cb565b5090919050565b6000611e896040830160208401612bbf565b15611e955750826105b9565b611e9f8484611ae3565b90506105b9565b600080670de0b6b3a7640000611eba612243565b611ec49190613503565b9050808311611ed4576000611ede565b611ede81846132af565b91506105b9611f15670de0b6b3a76400007f0000000000000000000000000000000000000000000000000000000000000000613503565b8390611af8565b6000611f4b826101000151670de0b6b3a7640000611f3a91906132af565b606084015160e08501519190612178565b611f79836101400151670de0b6b3a7640000611f6791906132af565b60608501516101208601519190612178565b6105f391906134a5565b600080611fa3836101400151846101200151611ae390919063ffffffff16565b61010084015160e0850151611fb791611ae3565b611fc191906134a5565b90506000611fd784600001518560200151612279565b90506000821315612092576000829050600061201e8387604001518860a001518960c00151670de0b6b3a764000061200f91906132af565b8a606001518b60800151612296565b905081811061207057600061205a848860400151858a60c00151670de0b6b3a764000061204b91906132af565b8b606001518c60800151612336565b90506120658161351a565b979650505050505050565b60a086015161207f90846132af565b6120889061351a565b9695505050505050565b600082121561216e5760006120a68361351a565b905060006120da8387604001518860c00151670de0b6b3a76400006120cb91906132af565b89606001518a60800151612375565b9050818110612116576000612065848860400151858a60c00151670de0b6b3a764000061210791906132af565b8b606001518c6080015161240b565b60006121488488604001518960c00151670de0b6b3a764000061213991906132af565b8a606001518b608001516124a0565b90506121648760600151838561215e91906132af565b90611af8565b612065908261329c565b5060009392505050565b600082600019048411830215820261218f57600080fd5b5091020490565b60006001600160f81b038211156121c05760405163b7d0949760e01b815260040160405180910390fd5b5060f89190911b1790565b600060405163a9059cbb60e01b8152836004820152826024820152602060006044836000895af13d15601f3d11600160005114161716915050806105335760405162461bcd60e51b815260206004820152600f60248201526e1514905394d1915497d19052531151608a1b6044820152606401610fe3565b600061226f7f0000000000000000000000000000000000000000000000000000000000000000426134db565b61191e90426132af565b60008061228683856134a5565b905060008112156105b957600080fd5b6000806122a6888887878761252f565b905060006122c96122c1876122bb878b61255e565b90612573565b8690866125ca565b6122d390836132af565b9050670de0b6b3a76400008110612307576123006122f9670de0b6b3a764000088611af8565b8290612573565b905061231f565b61231c6122f9670de0b6b3a7640000886125f0565b90505b61232988826132af565b9998505050505050505050565b600080612347888888888888612605565b90925090508061236a57604051637ac17d2560e01b815260040160405180910390fd5b509695505050505050565b60008061238587878787876126c7565b905060006123b0670de0b6b3a764000061239f8787611af8565b6123a9919061329c565b83906125f0565b9050670de0b6b3a764000081106123dd576123d66122f9670de0b6b3a7640000886125f0565b90506123f5565b6123f26122f9670de0b6b3a764000088611af8565b90505b6123ff81886132af565b98975050505050505050565b60008061241b88888787876126c7565b905061242b856122bb888a6132af565b96506000612445848661243e8b866132af565b91906125ca565b9050670de0b6b3a764000081106124725761246b6122f9670de0b6b3a7640000886125f0565b905061248a565b6124876122f9670de0b6b3a764000088611af8565b90505b61249481856125f0565b905061232989826132af565b6000806124b0878787878761252f565b905060006124d4670de0b6b3a76400006124ca87876125f0565b611f15919061329c565b9050670de0b6b3a76400008110612501576124fa6122f9670de0b6b3a764000088611af8565b9050612519565b6125166122f9670de0b6b3a7640000886125f0565b90505b6125238185611af8565b90506123ff88826132af565b600061253b8585612573565b61255461254c866122bb868b611ae3565b859085612178565b612088919061329c565b60006105b98383670de0b6b3a76400006125ca565b60008160000361258c5750670de0b6b3a76400006105f3565b8260000361259c575060006105f3565b8160006125a8856126ec565b90508181026125bf670de0b6b3a764000082613536565b9050612088816128ff565b60008260001904841183021582026125e157600080fd5b50910281810615159190040190565b60006105b983670de0b6b3a7640000846125ca565b600080600061261789898888886126c7565b9050612627866122bb898b61329c565b97508781101561263e5760008092509250506126bc565b600061264f858761243e8c866132af565b9050670de0b6b3a7640000811061267c576126756122f9670de0b6b3a7640000896125f0565b9050612694565b6126916122f9670de0b6b3a764000089611af8565b90505b61269e81866125f0565b9050808a11156126b5576126b2818b6132af565b93505b6001925050505b965096945050505050565b60006126d38585612573565b6125546126e4866122bb868b61255e565b8590856125ca565b600080821361270e57604051636838feed60e11b815260040160405180910390fd5b5060606001600160801b03821160071b82811c67ffffffffffffffff1060061b1782811c63ffffffff1060051b1782811c61ffff1060041b1782811c60ff10600390811b90911783811c600f1060021b1783811c909110600190811b90911783811c90911017609f81810383019390931b90921c6c465772b2bbbb5f824b15207a3081018102821d6d0388eaa27412d5aca026815d636e018102821d6d0df99ac502031bf953eff472fdcc018102821d6d13cdffb29d51d99322bdff5f2211018102821d6d0a0f742023def783a307a986912e018102821d6d01920d8043ca89b5239253284e42018102821d6c0b7a86d7375468fac667a0a527016c29508e458543d8aa4df2abee7882018202831d6d0139601a2efabe717e604cbb4894018202831d6d02247f7a7b6594320649aa03aba1018202831d6c8c3f38e95a6b1ff2ab1c3b343619018202831d6d02384773bdf1ac5676facced60901901820290921d6cb9a025d814b29c212b8b1a07cd190102780a09507084cc699bb0e71ea869ffffffffffffffffffffffff190105711340daa0d5f769dba1915cef59f0815a550602605f19919091017d0267a36c0c95b3975ab3ee5b203a7614a3f75373f047d803ae7b6687f2b302017d57115e47018c7177eebf7cd370a3356a1b7863008a5ae8028c72b88642840160ae1d90565b6000680248ce36a70cb26b3e19821361291a57506000919050565b680755bf798b4a1bf1e582126129435760405163df92cc9d60e01b815260040160405180910390fd5b6503782dace9d9604e83901b059150600060606bb17217f7d1cf79abc9e3b39884821b056001605f1b01901d6bb17217f7d1cf79abc9e3b39881029093036c240c330e9fb2d9cbaf0fd5aafb1981018102606090811d6d0277594991cfc85f6e2461837cd9018202811d6d1a521255e34f6a5061b25ef1c9c319018202811d6db1bbb201f443cf962f1a1d3db4a5018202811d6e02c72388d9f74f51a9331fed693f1419018202811d6e05180bb14799ab47a8a8cb2a527d57016d02d16720577bd19bf614176fe9ea6c10fe68e7fd37d0007b713f765084018402831d9081019084016d01d3967ed30fc4f89c02bab5708119010290911d6e0587f503bb6ea29d25fcb740196450019091026d360d7aeea093263ecc6e0ecb291760621b010574029d9dc38563c32e5c2f6dc192ee70ef65f9978af30260c3939093039290921c92915050565b60405180610180016040528060006001600160a01b0316815260200160006001600160a01b031681526020016000801916815260200160008152602001600081526020016000815260200160008152602001600081526020016000815260200160006001600160a01b0316815260200160006001600160a01b03168152602001612b2e60405180606001604052806000815260200160008152602001600081525090565b905290565b600060208284031215612b4557600080fd5b5035919050565b60005b83811015612b67578181015183820152602001612b4f565b50506000910152565b60008151808452612b88816020860160208601612b4c565b601f01601f19169290920160200192915050565b6020815260006105b96020830184612b70565b803580151581146104a057600080fd5b600060208284031215612bd157600080fd5b6105b982612baf565b80356001600160a01b03811681146104a057600080fd5b60008060008060008060008060006101208a8c031215612c1057600080fd5b8935985060208a01359750612c2760408b01612bda565b9650612c3560608b01612bda565b9550612c4360808b01612baf565b945060a08a0135935060c08a013560ff81168114612c6057600080fd5b8093505060e08a013591506101008a013590509295985092959850929598565b60008083601f840112612c9257600080fd5b50813567ffffffffffffffff811115612caa57600080fd5b6020830191508360208260051b8501011115612cc557600080fd5b9250929050565b60008060008060008060808789031215612ce557600080fd5b612cee87612bda565b9550612cfc60208801612bda565b9450604087013567ffffffffffffffff80821115612d1957600080fd5b612d258a838b01612c80565b90965094506060890135915080821115612d3e57600080fd5b50612d4b89828a01612c80565b979a9699509497509295939492505050565b60008060008060808587031215612d7357600080fd5b84359350612d8360208601612bda565b9250612d9160408601612bda565b9396929550929360600135925050565b600080600060608486031215612db657600080fd5b83359250612dc660208501612bda565b9150612dd460408501612bda565b90509250925092565b60008060408385031215612df057600080fd5b82359150612e0060208401612bda565b90509250929050565b600060208284031215612e1b57600080fd5b813567ffffffffffffffff811115612e3257600080fd5b8201606081850312156105b957600080fd5b60008060008060808587031215612e5a57600080fd5b84359350612e6a60208601612bda565b925060408501359150612e7f60608601612bda565b905092959194509250565b815181526020808301519082015260408083015190820152606080830151908201526080808301519082015260a0808301519082015260c0808301519082015260e08083015190820152610100808301519082015261012080830151908201526101408083015190820152610160808301519082015261018080830151908201526101a091820151918101919091526101c00190565b60008060408385031215612f3357600080fd5b612f3c83612bda565b9150612e0060208401612baf565b600060208284031215612f5c57600080fd5b6105b982612bda565b600080600060608486031215612f7a57600080fd5b83359250612f8a60208501612bda565b9150604084013590509250925092565b81516001600160a01b031681526101c081016020830151612fc660208401826001600160a01b03169052565b5060408301516040830152606083015160608301526080830151608083015260a083015160a083015260c083015160c083015260e083015160e08301526101008084015181840152506101208084015161302a828501826001600160a01b03169052565b5050610140838101516001600160a01b03169083015261016080840151805182850152602081015161018085015260408101516101a08501525b505092915050565b6000806020838503121561307f57600080fd5b823567ffffffffffffffff81111561309657600080fd5b6130a285828601612c80565b90969095509350505050565b6020808252825182820181905260009190848201906040850190845b818110156130e6578351835292840192918401916001016130ca565b50909695505050505050565b81516001600160801b031681526101608101602083015161311e60208401826001600160801b03169052565b5060408301516131336040840182600f0b9052565b50606083015161314e60608401826001600160801b03169052565b50608083015161316960808401826001600160801b03169052565b5060a083015161318460a08401826001600160801b03169052565b5060c083015161319f60c08401826001600160801b03169052565b5060e08301516131ba60e08401826001600160801b03169052565b50610100838101516001600160801b031690830152610120808401511515908301526101408084015180151582850152613064565b600080600080600060a0868803121561320757600080fd5b8535945061321760208701612bda565b935061322560408701612bda565b92506060860135915061323a60808701612bda565b90509295509295909350565b6000806040838503121561325957600080fd5b61326283612bda565b9150612e0060208401612bda565b634e487b7160e01b600052602160045260246000fd5b634e487b7160e01b600052601160045260246000fd5b808201808211156105f3576105f3613286565b818103818111156105f3576105f3613286565b634e487b7160e01b600052604160045260246000fd5b634e487b7160e01b600052603260045260246000fd5b81546001600160801b038082168352608091821c60208401526001840154600f81900b6040850152821c6060840152600284015480821683850152821c60a0840152600384015480821660c0850152821c60e084015260048401549081166101008401529081901c60ff9081161515610120840152608882901c161515610140830152610160820190610c61565b700243cb832b9323934bb32902637b7339d1607d1b8152600082516133a8816011850160208701612b4c565b9190910160110192915050565b710243cb832b9323934bb329029b437b93a1d160751b8152600082516133e2816012850160208701612b4c565b9190910160120192915050565b60006001820161340157613401613286565b5060010190565b6f242ca822a9222924ab2296a627a7239d60811b815260008251613433816010850160208701612b4c565b9190910160100192915050565b70242ca822a9222924ab2296a9a427a92a1d60791b8152600082516133a8816011850160208701612b4c565b60006020828403121561347e57600080fd5b5051919050565b808201828112600083128015821682158216171561306457613064613286565b8181036000831280158383131683831282161715610c6157610c61613286565b634e487b7160e01b600052601260045260246000fd5b6000826134ea576134ea6134c5565b500690565b6000826134fe576134fe6134c5565b500490565b80820281158282048414176105f3576105f3613286565b6000600160ff1b820161352f5761352f613286565b5060000390565b600082613545576135456134c5565b600160ff1b82146000198414161561355f5761355f613286565b50059056fea264697066735822122073bbfa9a9219ed0341d9994ef3dfbb7a9b9aac226b11c0c25b604c671c7c35ec64736f6c63430008130033a2646970667358221220fb0364f89a4c21bb331f5a2643851989896fddeec3f24446d8ecf2b35a9d53d564736f6c63430008130033","linkReferences":{}},"methodIdentifiers":{"deploy((address,address,bytes32,uint256,uint256,uint256,uint256,uint256,uint256,address,address,(uint256,uint256,uint256)),bytes)":"d09b3b96"},"id":9}