{
  "abi": [
    {
      "inputs": [
        {
          "components": [
            {
              "internalType": "contract IERC20",
              "name": "baseToken",
              "type": "address"
            },
            {
              "internalType": "address",
              "name": "linkerFactory",
              "type": "address"
            },
            {
              "internalType": "bytes32",
              "name": "linkerCodeHash",
              "type": "bytes32"
            },
            {
              "internalType": "uint256",
              "name": "initialSharePrice",
              "type": "uint256"
            },
            {
              "internalType": "uint256",
              "name": "minimumShareReserves",
              "type": "uint256"
            },
            {
              "internalType": "uint256",
              "name": "minimumTransactionAmount",
              "type": "uint256"
            },
            {
              "internalType": "uint256",
              "name": "precisionThreshold",
              "type": "uint256"
            },
            {
              "internalType": "uint256",
              "name": "positionDuration",
              "type": "uint256"
            },
            {
              "internalType": "uint256",
              "name": "checkpointDuration",
              "type": "uint256"
            },
            {
              "internalType": "uint256",
              "name": "timeStretch",
              "type": "uint256"
            },
            {
              "internalType": "address",
              "name": "governance",
              "type": "address"
            },
            {
              "internalType": "address",
              "name": "feeCollector",
              "type": "address"
            },
            {
              "components": [
                {
                  "internalType": "uint256",
                  "name": "curve",
                  "type": "uint256"
                },
                {
                  "internalType": "uint256",
                  "name": "flat",
                  "type": "uint256"
                },
                {
                  "internalType": "uint256",
                  "name": "governance",
                  "type": "uint256"
                }
              ],
              "internalType": "struct IHyperdrive.Fees",
              "name": "fees",
              "type": "tuple"
            }
          ],
          "internalType": "struct IHyperdrive.PoolConfig",
          "name": "_config",
          "type": "tuple"
        },
        {
          "internalType": "bytes32[]",
          "name": "",
          "type": "bytes32[]"
        },
        {
          "internalType": "address",
          "name": "_pool",
          "type": "address"
        }
      ],
      "name": "deploy",
      "outputs": [
        {
          "internalType": "address",
          "name": "",
          "type": "address"
        }
      ],
      "stateMutability": "nonpayable",
      "type": "function"
    }
  ],
  "bytecode": {
    "object": "0x608060405234801561001057600080fd5b50613a0d806100206000396000f3fe608060405234801561001057600080fd5b506004361061002b5760003560e01c80630a3bb1c014610030575b600080fd5b61004361003e366004610202565b61005f565b6040516001600160a01b03909116815260200160405180910390f35b6000838260405161006f906100a1565b61007a92919061031a565b604051809103906000f080158015610096573d6000803e3d6000fd5b5090505b9392505050565b6135ce806200040a83390190565b634e487b7160e01b600052604160045260246000fd5b6040516101a0810167ffffffffffffffff811182821017156100e9576100e96100af565b60405290565b80356001600160a01b038116811461010657600080fd5b919050565b60006060828403121561011d57600080fd5b6040516060810181811067ffffffffffffffff82111715610140576101406100af565b80604052508091508235815260208301356020820152604083013560408201525092915050565b600082601f83011261017857600080fd5b8135602067ffffffffffffffff80831115610195576101956100af565b8260051b604051601f19603f830116810181811084821117156101ba576101ba6100af565b6040529384528581018301938381019250878511156101d857600080fd5b83870191505b848210156101f7578135835291830191908301906101de565b979650505050505050565b600080600083850361022081121561021957600080fd5b6101e08082121561022957600080fd5b6102316100c5565b915061023c866100ef565b825261024a602087016100ef565b602083015260408601356040830152606086013560608301526080860135608083015260a086013560a083015260c086013560c083015260e086013560e08301526101008087013581840152506101208087013581840152506101406102b18188016100ef565b908301526101606102c38782016100ef565b908301526101806102d68888830161010b565b9083015290935084013567ffffffffffffffff8111156102f557600080fd5b61030186828701610167565b92505061031161020085016100ef565b90509250925092565b82516001600160a01b031681526102008101602084015161034660208401826001600160a01b03169052565b5060408401516040830152606084015160608301526080840151608083015260a084015160a083015260c084015160c083015260e084015160e0830152610100808501518184015250610120808501518184015250610140808501516103b6828501826001600160a01b03169052565b5050610160848101516001600160a01b0381168483015250506101808481015180518483015260208101516101a085015260408101516101c085015250506001600160a01b0383166101e083015261009a56fe61026060405260016000553480156200001757600080fd5b50604051620035ce380380620035ce8339810160408190526200003a91620002c8565b81516001600160a01b031660809081528201518190839081906103e8111562000076576040516349db44f560e01b815260040160405180910390fd5b60808101516101805260a08101516101a05260c08101516101c052610100810151600003620000b857604051635428734d60e01b815260040160405180910390fd5b6101008101805160a0525160e08201511080620000ea57508061010001518160e00151620000e79190620003c8565b15155b15620001095760405163253fffcf60e11b815260040160405180910390fd5b60e08181015160c05261012082015190526060810151610160908152610140820151600880546001600160a01b0319166001600160a01b0392831617905590820151166101e05261018081015151670de0b6b3a764000010806200017d5750670de0b6b3a764000081610180015160200151115b80620001995750670de0b6b3a764000081610180015160400151115b15620001b8576040516322f72cc360e11b815260040160405180910390fd5b610180810180515161010052805160209081015161012052905160409081015161014052908201516001600160a01b039081166102005291015161022052919091166102405250620003eb915050565b6040516101a081016001600160401b03811182821017156200023a57634e487b7160e01b600052604160045260246000fd5b60405290565b80516001600160a01b03811681146200025857600080fd5b919050565b6000606082840312156200027057600080fd5b604051606081016001600160401b0381118282101715620002a157634e487b7160e01b600052604160045260246000fd5b80604052508091508251815260208301516020820152604083015160408201525092915050565b600080828403610200811215620002de57600080fd5b6101e080821215620002ef57600080fd5b620002f962000208565b9150620003068562000240565b8252620003166020860162000240565b602083015260408501516040830152606085015160608301526080850151608083015260a085015160a083015260c085015160c083015260e085015160e08301526101008086015181840152506101208086015181840152506101406200037f81870162000240565b908301526101606200039386820162000240565b90830152610180620003a8878783016200025d565b8184015250819350620003bd81860162000240565b925050509250929050565b600082620003e657634e487b7160e01b600052601260045260246000fd5b500690565b60805160a05160c05160e05161010051610120516101405161016051610180516101a0516101c0516101e0516102005161022051610240516130ce62000500600039600081816104820152818161160501528181611c950152611d5f015260008181610949015261153601526000818161091a01526114f9015260008181610a9d01528181611275015281816112ef015261135d015260006109e1015260006109bb015260008181610995015261174001526000818161096f015261171a01526000610b2301526000610afd01526000610ad7015260008181610a530152611766015260008181610a070152611dd8015260008181610a2d01526120dc0152600081816108eb0152610c4301526130ce6000f3fe608060405234801561001057600080fd5b50600436106101a85760003560e01c80637ecebe00116100f9578063c55dae6311610097578063d816574311610071578063d8165743146103c7578063e44808bc146103dc578063e985e9c5146103ef578063fba560081461040257600080fd5b8063c55dae6314610394578063c69e16ad1461039c578063cc962f8e146103a457600080fd5b8063ab033ea9116100d3578063ab033ea914610339578063b0d965801461034c578063bd85b03914610361578063becee9c31461037457600080fd5b80637ecebe00146103005780639cd241af14610313578063a22cb4651461032657600080fd5b806321ff32a9116101665780634e41a1fb116101405780634e41a1fb146102b25780634ed2d6ac146102c557806360246c88146102d85780637180c8ca146102ed57600080fd5b806321ff32a91461026b5780633656eec21461028c5780633e691db91461029f57600080fd5b8062ad800c146101ad57806302329a29146101d657806316f0115b146101eb57806317fad7fc1461020b5780631c0f12b61461021e57806320fc488114610231575b600080fd5b6101c06101bb366004612716565b610431565b6040516101cd919061277f565b60405180910390f35b6101e96101e43660046127a2565b610468565b005b6101f3610474565b6040516001600160a01b0390911681526020016101cd565b6101e9610219366004612820565b6104b7565b6101e961022c3660046128b1565b6104cd565b61024461023f366004612716565b6104e0565b6040805182516001600160801b03168152602092830151600f0b92810192909252016101cd565b61027e6102793660046128f5565b610532565b6040519081526020016101cd565b61027e61029a366004612931565b610578565b61027e6102ad36600461295d565b6105b1565b6101c06102c0366004612716565b6105bc565b6101e96102d3366004612998565b6105ca565b6102e0610618565b6040516101cd91906129de565b6101e96102fb366004612a69565b610812565b61027e61030e366004612a93565b610820565b6101e9610321366004612aae565b61084c565b6101e9610334366004612a69565b61085d565b6101e9610347366004612a93565b6108c9565b6103546108d2565b6040516101cd9190612ae3565b61027e61036f366004612716565b610b58565b610387610382366004612bc1565b610b7a565b6040516101cd9190612c03565b6101f3610c35565b61027e610c75565b6103b76103b2366004612a93565b610c8f565b60405190151581526020016101cd565b6103cf610cc5565b6040516101cd9190612c47565b6101e96103ea366004612d30565b610d2b565b6103b76103fd366004612d87565b610d73565b61040a610db7565b6040805182516001600160801b0390811682526020938401511692810192909252016101cd565b606061046361043f83610e16565b60405160200161044f919061277f565b604051602081830303815290604052610f44565b919050565b61047181610f68565b50565b604080516001600160a01b037f00000000000000000000000000000000000000000000000000000000000000001660208201526000916104b4910161044f565b90565b6104c5868686868686610fb1565b505050505050565b6104da8484848433611065565b50505050565b60408051808201909152600080825260208201526104636007600084815260200190815260200160002060405160200161044f91546001600160801b038116825260801d600f0b602082015260400190565b6000838152600e602090815260408083206001600160a01b0386811685529083528184209085168452825280832054815192830152610571910161044f565b9392505050565b6000828152600b602090815260408083206001600160a01b03851684528252808320548151928301526105ab910161044f565b92915050565b60006105ab82611226565b606061046361043f836113c9565b836105d4816114bb565b6001600160a01b0316336001600160a01b03161461060557604051632aab8bd360e01b815260040160405180910390fd5b61061185858585611578565b5050505050565b610683604051806101a00160405280600081526020016000815260200160008152602001600081526020016000815260200160008152602001600081526020016000815260200160008152602001600081526020016000815260200160008152602001600081525090565b600061068d6115e5565b600654600c6020527fe33c7a20958276ce9529c827d1e1b38c61245a6a2cb39f13852cf96fd6f7333d5460008080527f13649b2456f1b42fef0f0040b3aaeabcd21a76a0f3f5defd4f583839455116e854939450926001600160801b03909216916106f89190612ddd565b6107029190612df0565b9050600080831161071457600061072f565b61072f836107296107248661167d565b6117e3565b90611a51565b604080516101a0810182526001546001600160801b038082168352600254600f0b6020840152600160801b91829004811693830193909352606082018690526080820187905260035480841660a084015260045480851660c085015290829004841660e0840152819004831661010083015260065480841661012084015204909116610140820152909150600090610160810184156107d7576107d28486611a66565b6107da565b60005b8152600254600160801b90046001600160801b031660209182015260405191925061080b9161044f918491016129de565b5050505090565b61081c8282611a7b565b5050565b6001600160a01b0381166000908152600f6020908152604080832054815192830152610463910161044f565b61085883838333611578565b505050565b336000818152600d602090815260408083206001600160a01b03871680855290835292819020805460ff191686151590811790915590519081529192917f17307eab39ab6107e8899845ad3d59bd9653f200f220920489ca2b5937696c31910160405180910390a35050565b61047181611af3565b6108da612666565b6104b4604051806101a001604052807f00000000000000000000000000000000000000000000000000000000000000006001600160a01b031681526020017f00000000000000000000000000000000000000000000000000000000000000006001600160a01b031681526020017f000000000000000000000000000000000000000000000000000000000000000081526020017f000000000000000000000000000000000000000000000000000000000000000081526020017f000000000000000000000000000000000000000000000000000000000000000081526020017f000000000000000000000000000000000000000000000000000000000000000081526020017f000000000000000000000000000000000000000000000000000000000000000081526020017f000000000000000000000000000000000000000000000000000000000000000081526020017f000000000000000000000000000000000000000000000000000000000000000081526020017f00000000000000000000000000000000000000000000000000000000000000008152602001600860009054906101000a90046001600160a01b03166001600160a01b031681526020017f00000000000000000000000000000000000000000000000000000000000000006001600160a01b0316815260200160405180606001604052807f000000000000000000000000000000000000000000000000000000000000000081526020017f000000000000000000000000000000000000000000000000000000000000000081526020017f000000000000000000000000000000000000000000000000000000000000000081525081525060405160200161044f9190612ae3565b6000818152600c6020908152604080832054815192830152610463910161044f565b606060008267ffffffffffffffff811115610b9757610b97612e03565b604051908082528060200260200182016040528015610bc0578160200160208202803683370190505b50905060005b83811015610c19576000858583818110610be257610be2612e19565b90506020020135905060008154905080848481518110610c0457610c04612e19565b60209081029190910101525050600101610bc6565b50610c2e8160405160200161044f9190612c03565b5092915050565b604080516001600160a01b037f00000000000000000000000000000000000000000000000000000000000000001660208201526000916104b4910161044f565b60006104b460095460405160200161044f91815260200190565b6001600160a01b03811660009081526010602090815260408083205490516104639261044f9260ff169101901515815260200190565b6040805161014081018252600080825260208201819052918101829052606081018290526080810182905260a0810182905260c0810182905260e0810182905261010081018290526101208101919091526104b4600160405160200161044f9190612e2f565b84610d35816114bb565b6001600160a01b0316336001600160a01b031614610d6657604051632aab8bd360e01b815260040160405180910390fd5b6104c58686868686611065565b6001600160a01b038281166000908152600d60209081526040808320938516835292815282822054835160ff90911615159181019190915290916105ab910161044f565b60408051808201909152600080825260208201526040805180820182526006546001600160801b03808216808452600160801b90920481166020938401908152845193840192909252905116918101919091526104b49060600161044f565b606060f882901c6001600160f81b0383166000610e3282611b67565b90506000836003811115610e4857610e48612db1565b03610e7a576040518060400160405280600d81526020016c048797065726472697665204c5609c1b8152509350610f3c565b6001836003811115610e8e57610e8e612db1565b03610eba5780604051602001610ea49190612eb0565b6040516020818303038152906040529350610f3c565b6002836003811115610ece57610ece612db1565b03610ee45780604051602001610ea49190612ee9565b6003836003811115610ef857610ef8612db1565b03610f3c576040517f48797065726472697665205769746864726177616c20536861726500000000006020820152603b015b60405160208183030381529060405293505b505050919050565b80604051636e64089360e11b8152600401610f5f919061277f565b60405180910390fd5b336000908152600a602052604090205460ff16610f97576040516282b42960e81b815260040160405180910390fd5b600580549115156101000261ff0019909216919091179055565b6001600160a01b0386161580610fce57506001600160a01b038516155b15610fec5760405163f0dd15fd60e01b815260040160405180910390fd5b82811461100c5760405163174861a760e31b815260040160405180910390fd5b60005b8381101561105c5761105485858381811061102c5761102c612e19565b90506020020135888886868681811061104757611047612e19565b9050602002013533611065565b60010161100f565b50505050505050565b6001600160a01b038416158061108257506001600160a01b038316155b156110a05760405163f0dd15fd60e01b815260040160405180910390fd5b836001600160a01b0316816001600160a01b031614611164576001600160a01b038085166000908152600d602090815260408083209385168352929052205460ff16611164576000858152600e602090815260408083206001600160a01b03808916855290835281842090851684529091529020546000198114611162576000868152600e602090815260408083206001600160a01b03808a16855290835281842090861684529091528120805485929061115c908490612df0565b90915550505b505b6000858152600b602090815260408083206001600160a01b038816845290915281208054849290611196908490612df0565b90915550506000858152600b602090815260408083206001600160a01b0387168452909152812080548492906111cd908490612ddd565b909155505060408051868152602081018490526001600160a01b038086169287821692918516917fc3d58168c5ae7397731d063d5bbf3d657854427343f4c083240f7aacaa2d0f62910160405180910390a45050505050565b600080546001146112665760405162461bcd60e51b815260206004820152600a6024820152695245454e5452414e435960b01b6044820152606401610f5f565b60026000556001600160a01b037f0000000000000000000000000000000000000000000000000000000000000000166112a26020840184612a93565b6001600160a01b0316146112c957604051630ad13b3360e21b815260040160405180910390fd5b336000908152600a602052604090205460ff161580156113125750336001600160a01b037f00000000000000000000000000000000000000000000000000000000000000001614155b801561132957506008546001600160a01b03163314155b15611346576040516282b42960e81b815260040160405180910390fd5b6009805460009091556113598184611c74565b91507f00000000000000000000000000000000000000000000000000000000000000006001600160a01b03167fa4bafc79b3f9fdba2427cd386f1fbc7d8779e9fd7229f6220d53bc04d3901e47836040516113b691815260200190565b60405180910390a2506001600055919050565b606060f882901c6001600160f81b03831660006113e582611b67565b905060008360038111156113fb576113fb612db1565b0361142d576040518060400160405280600d81526020016c0485950455244524956452d4c5609c1b8152509350610f3c565b600183600381111561144157611441612db1565b036114575780604051602001610ea49190612f23565b600283600381111561146b5761146b612db1565b036114815780604051602001610ea49190612f5b565b600383600381111561149557611495612db1565b03610f3c576040516c485950455244524956452d575360981b6020820152602d01610f2a565b604080513060208083019190915281830193909352815180820383018152606080830184528151918501919091206001600160f81b031960808401527f000000000000000000000000000000000000000000000000000000000000000090911b6bffffffffffffffffffffffff1916608183015260958201527f000000000000000000000000000000000000000000000000000000000000000060b5808301919091528251808303909101815260d5909101909152805191012090565b6000848152600e602090815260408083206001600160a01b0385811680865291845282852090881680865290845293829020869055905185815290917f8c5be1e5ebec7d5bd14f71427d1e84f3dd0314c0f7b2291e5b200ac8c7c3b925910160405180910390a350505050565b6040516303d1689d60e11b8152670de0b6b3a764000060048201526000907f00000000000000000000000000000000000000000000000000000000000000006001600160a01b0316906307a2d13a90602401602060405180830381865afa158015611654573d6000803e3d6000fd5b505050506040513d601f19601f820116820180604052508101906116789190612f87565b905090565b6116da60405180610160016040528060008152602001600081526020016000815260200160008152602001600081526020016000815260200160008152602001600081526020016000815260200160008152602001600081525090565b60408051610160810182526001546001600160801b038082168352600254600f0b6020840152600160801b909104811692820192909252606081018490527f000000000000000000000000000000000000000000000000000000000000000060808201527f000000000000000000000000000000000000000000000000000000000000000060a08201527f000000000000000000000000000000000000000000000000000000000000000060c0820152600354821660e082015260045490916101008301916117a99116611d8d565b81526003546001600160801b03600160801b91829004811660208401526004546040909301926117db92900416611d8d565b905292915050565b600080611803836101400151846101200151611a5190919063ffffffff16565b61010084015160e085015161181791611a51565b6118219190612fa0565b9050600061183784600001518560200151611e03565b905060008213156118d75760006118798286604001518760a001518860c00151670de0b6b3a764000061186a9190612df0565b89606001518a60800151611e20565b90506118858184611ec0565b905080156118d1576118be828660400151838860c00151670de0b6b3a76400006118af9190612df0565b89606001518a60800151611ed5565b855186906118cd908390612df0565b9052505b50611993565b6000821215611993576118e982612fc0565b9150600061191d8286604001518760c00151670de0b6b3a764000061190e9190612df0565b88606001518960800151611f14565b90506119298184611ec0565b9050801561197557611962828660400151838860c00151670de0b6b3a76400006119539190612df0565b89606001518a60800151611faa565b85518690611971908390612ddd565b9052505b61197f8184612df0565b8551869061198e908390612ddd565b905250505b60006119c2856101000151670de0b6b3a76400006119b19190612df0565b606087015160e0880151919061203f565b6119f0866101400151670de0b6b3a76400006119de9190612df0565b6060880151610120890151919061203f565b6119fa9190612fa0565b90506000818660000151611a0e9190612fdc565b90508560a00151811215611a355760405163aeeb825d60e01b815260040160405180910390fd5b80865260a0860151611a479082612df0565b9695505050505050565b60006105718383670de0b6b3a764000061203f565b600061057183670de0b6b3a76400008461203f565b6008546001600160a01b03163314611aa5576040516282b42960e81b815260040160405180910390fd5b6001600160a01b0382166000818152600a6020526040808220805460ff1916851515179055517fa4336c0cb1e245b95ad204faed7e940d6dc999684fd8b5e1ff597a0c4efca8ab9190a25050565b6008546001600160a01b03163314611b1d576040516282b42960e81b815260040160405180910390fd5b600880546001600160a01b0319166001600160a01b0383169081179091556040517f9d3e522e1e47a2f6009739342b9cc7b252a1888154e843ab55ee1c81745795ab90600090a250565b60408051604d808252608082019092526060919060009082602082018180368337019050509050611b99600a85613012565b611ba4906030612ddd565b60f81b81611bb3600185612df0565b81518110611bc357611bc3612e19565b60200101906001600160f81b031916908160001a905350611be5600a85613026565b935060015b8415611c6657611bfb600a86613012565b611c06906030612ddd565b60f81b826001611c168487612df0565b611c209190612df0565b81518110611c3057611c30612e19565b60200101906001600160f81b031916908160001a905350611c52600a86613026565b945080611c5e8161303a565b915050611bea565b918290030190815292915050565b6000611c8660408301602084016127a2565b15611d45576001600160a01b037f00000000000000000000000000000000000000000000000000000000000000001663ba08765284611cc86020860186612a93565b6040516001600160e01b031960e085901b16815260048101929092526001600160a01b031660248201523060448201526064016020604051808303816000875af1158015611d1a573d6000803e3d6000fd5b505050506040513d601f19601f82011682018060405250810190611d3e9190612f87565b90506105ab565b611d86611d556020840184612a93565b6001600160a01b037f000000000000000000000000000000000000000000000000000000000000000016908561205d565b5090919050565b600080670de0b6b3a7640000611da16120d5565b611dab9190613053565b9050808311611dbb576000611dc5565b611dc58184612df0565b9150610571611dfc670de0b6b3a76400007f0000000000000000000000000000000000000000000000000000000000000000613053565b8390611a66565b600080611e108385612fa0565b9050600081121561057157600080fd5b600080611e30888887878761210b565b90506000611e53611e4b87611e45878b61213a565b9061214f565b8690866121a6565b611e5d9083612df0565b9050670de0b6b3a76400008110611e9157611e8a611e83670de0b6b3a764000088611a66565b829061214f565b9050611ea9565b611ea6611e83670de0b6b3a7640000886121cc565b90505b611eb38882612df0565b9998505050505050505050565b6000818311611ecf5782610571565b50919050565b600080611ee68888888888886121e1565b909250905080611f0957604051637ac17d2560e01b815260040160405180910390fd5b509695505050505050565b600080611f2487878787876122a3565b90506000611f4f670de0b6b3a7640000611f3e8787611a66565b611f489190612ddd565b83906121cc565b9050670de0b6b3a76400008110611f7c57611f75611e83670de0b6b3a7640000886121cc565b9050611f94565b611f91611e83670de0b6b3a764000088611a66565b90505b611f9e8188612df0565b98975050505050505050565b600080611fba88888787876122a3565b9050611fca85611e45888a612df0565b96506000611fe48486611fdd8b86612df0565b91906121a6565b9050670de0b6b3a764000081106120115761200a611e83670de0b6b3a7640000886121cc565b9050612029565b612026611e83670de0b6b3a764000088611a66565b90505b61203381856121cc565b9050611eb38982612df0565b600082600019048411830215820261205657600080fd5b5091020490565b600060405163a9059cbb60e01b8152836004820152826024820152602060006044836000895af13d15601f3d11600160005114161716915050806104da5760405162461bcd60e51b815260206004820152600f60248201526e1514905394d1915497d19052531151608a1b6044820152606401610f5f565b60006121017f000000000000000000000000000000000000000000000000000000000000000042613012565b6116789042612df0565b6000612117858561214f565b61213061212886611e45868b611a51565b85908561203f565b611a479190612ddd565b60006105718383670de0b6b3a76400006121a6565b6000816000036121685750670de0b6b3a76400006105ab565b82600003612178575060006105ab565b816000612184856122c8565b905081810261219b670de0b6b3a76400008261306a565b9050611a47816124db565b60008260001904841183021582026121bd57600080fd5b50910281810615159190040190565b600061057183670de0b6b3a7640000846121a6565b60008060006121f389898888886122a3565b905061220386611e45898b612ddd565b97508781101561221a576000809250925050612298565b600061222b8587611fdd8c86612df0565b9050670de0b6b3a7640000811061225857612251611e83670de0b6b3a7640000896121cc565b9050612270565b61226d611e83670de0b6b3a764000089611a66565b90505b61227a81866121cc565b9050808a11156122915761228e818b612df0565b93505b6001925050505b965096945050505050565b60006122af858561214f565b6121306122c086611e45868b61213a565b8590856121a6565b60008082136122ea57604051636838feed60e11b815260040160405180910390fd5b5060606001600160801b03821160071b82811c67ffffffffffffffff1060061b1782811c63ffffffff1060051b1782811c61ffff1060041b1782811c60ff10600390811b90911783811c600f1060021b1783811c909110600190811b90911783811c90911017609f81810383019390931b90921c6c465772b2bbbb5f824b15207a3081018102821d6d0388eaa27412d5aca026815d636e018102821d6d0df99ac502031bf953eff472fdcc018102821d6d13cdffb29d51d99322bdff5f2211018102821d6d0a0f742023def783a307a986912e018102821d6d01920d8043ca89b5239253284e42018102821d6c0b7a86d7375468fac667a0a527016c29508e458543d8aa4df2abee7882018202831d6d0139601a2efabe717e604cbb4894018202831d6d02247f7a7b6594320649aa03aba1018202831d6c8c3f38e95a6b1ff2ab1c3b343619018202831d6d02384773bdf1ac5676facced60901901820290921d6cb9a025d814b29c212b8b1a07cd190102780a09507084cc699bb0e71ea869ffffffffffffffffffffffff190105711340daa0d5f769dba1915cef59f0815a550602605f19919091017d0267a36c0c95b3975ab3ee5b203a7614a3f75373f047d803ae7b6687f2b302017d57115e47018c7177eebf7cd370a3356a1b7863008a5ae8028c72b88642840160ae1d90565b6000680248ce36a70cb26b3e1982136124f657506000919050565b680755bf798b4a1bf1e5821261251f5760405163df92cc9d60e01b815260040160405180910390fd5b6503782dace9d9604e83901b059150600060606bb17217f7d1cf79abc9e3b39884821b056001605f1b01901d6bb17217f7d1cf79abc9e3b39881029093036c240c330e9fb2d9cbaf0fd5aafb1981018102606090811d6d0277594991cfc85f6e2461837cd9018202811d6d1a521255e34f6a5061b25ef1c9c319018202811d6db1bbb201f443cf962f1a1d3db4a5018202811d6e02c72388d9f74f51a9331fed693f1419018202811d6e05180bb14799ab47a8a8cb2a527d57016d02d16720577bd19bf614176fe9ea6c10fe68e7fd37d0007b713f765084018402831d9081019084016d01d3967ed30fc4f89c02bab5708119010290911d6e0587f503bb6ea29d25fcb740196450019091026d360d7aeea093263ecc6e0ecb291760621b010574029d9dc38563c32e5c2f6dc192ee70ef65f9978af30260c3939093039290921c92915050565b604051806101a0016040528060006001600160a01b0316815260200160006001600160a01b03168152602001600080191681526020016000815260200160008152602001600081526020016000815260200160008152602001600081526020016000815260200160006001600160a01b0316815260200160006001600160a01b0316815260200161271160405180606001604052806000815260200160008152602001600081525090565b905290565b60006020828403121561272857600080fd5b5035919050565b60005b8381101561274a578181015183820152602001612732565b50506000910152565b6000815180845261276b81602086016020860161272f565b601f01601f19169290920160200192915050565b6020815260006105716020830184612753565b8035801515811461046357600080fd5b6000602082840312156127b457600080fd5b61057182612792565b80356001600160a01b038116811461046357600080fd5b60008083601f8401126127e657600080fd5b50813567ffffffffffffffff8111156127fe57600080fd5b6020830191508360208260051b850101111561281957600080fd5b9250929050565b6000806000806000806080878903121561283957600080fd5b612842876127bd565b9550612850602088016127bd565b9450604087013567ffffffffffffffff8082111561286d57600080fd5b6128798a838b016127d4565b9096509450606089013591508082111561289257600080fd5b5061289f89828a016127d4565b979a9699509497509295939492505050565b600080600080608085870312156128c757600080fd5b843593506128d7602086016127bd565b92506128e5604086016127bd565b9396929550929360600135925050565b60008060006060848603121561290a57600080fd5b8335925061291a602085016127bd565b9150612928604085016127bd565b90509250925092565b6000806040838503121561294457600080fd5b82359150612954602084016127bd565b90509250929050565b60006020828403121561296f57600080fd5b813567ffffffffffffffff81111561298657600080fd5b82016060818503121561057157600080fd5b600080600080608085870312156129ae57600080fd5b843593506129be602086016127bd565b9250604085013591506129d3606086016127bd565b905092959194509250565b815181526020808301519082015260408083015190820152606080830151908201526080808301519082015260a0808301519082015260c0808301519082015260e08083015190820152610100808301519082015261012080830151908201526101408083015190820152610160808301519082015261018091820151918101919091526101a00190565b60008060408385031215612a7c57600080fd5b612a85836127bd565b915061295460208401612792565b600060208284031215612aa557600080fd5b610571826127bd565b600080600060608486031215612ac357600080fd5b83359250612ad3602085016127bd565b9150604084013590509250925092565b81516001600160a01b031681526101e081016020830151612b0f60208401826001600160a01b03169052565b5060408301516040830152606083015160608301526080830151608083015260a083015160a083015260c083015160c083015260e083015160e083015261010080840151818401525061012080840151818401525061014080840151612b7f828501826001600160a01b03169052565b5050610160838101516001600160a01b0316908301526101808084015180518285015260208101516101a085015260408101516101c08501525b505092915050565b60008060208385031215612bd457600080fd5b823567ffffffffffffffff811115612beb57600080fd5b612bf7858286016127d4565b90969095509350505050565b6020808252825182820181905260009190848201906040850190845b81811015612c3b57835183529284019291840191600101612c1f565b50909695505050505050565b81516001600160801b0316815261014081016020830151612c7360208401826001600160801b03169052565b506040830151612c886040840182600f0b9052565b506060830151612ca360608401826001600160801b03169052565b506080830151612cbe60808401826001600160801b03169052565b5060a0830151612cd960a08401826001600160801b03169052565b5060c0830151612cf460c08401826001600160801b03169052565b5060e0830151612d0f60e08401826001600160801b03169052565b50610100838101511515908301526101208084015180151582850152612bb9565b600080600080600060a08688031215612d4857600080fd5b85359450612d58602087016127bd565b9350612d66604087016127bd565b925060608601359150612d7b608087016127bd565b90509295509295909350565b60008060408385031215612d9a57600080fd5b612da3836127bd565b9150612954602084016127bd565b634e487b7160e01b600052602160045260246000fd5b634e487b7160e01b600052601160045260246000fd5b808201808211156105ab576105ab612dc7565b818103818111156105ab576105ab612dc7565b634e487b7160e01b600052604160045260246000fd5b634e487b7160e01b600052603260045260246000fd5b81546001600160801b038082168352608091821c60208401526001840154600f81900b6040850152821c6060840152600284015480821683850152821c60a0840152600384015490811660c0840152901c60e0820152600482015460ff8082161515610100840152600882901c161515610120830152610140820190610c2e565b700243cb832b9323934bb32902637b7339d1607d1b815260008251612edc81601185016020870161272f565b9190910160110192915050565b710243cb832b9323934bb329029b437b93a1d160751b815260008251612f1681601285016020870161272f565b9190910160120192915050565b6f242ca822a9222924ab2296a627a7239d60811b815260008251612f4e81601085016020870161272f565b9190910160100192915050565b70242ca822a9222924ab2296a9a427a92a1d60791b815260008251612edc81601185016020870161272f565b600060208284031215612f9957600080fd5b5051919050565b8181036000831280158383131683831282161715610c2e57610c2e612dc7565b6000600160ff1b8201612fd557612fd5612dc7565b5060000390565b8082018281126000831280158216821582161715612bb957612bb9612dc7565b634e487b7160e01b600052601260045260246000fd5b60008261302157613021612ffc565b500690565b60008261303557613035612ffc565b500490565b60006001820161304c5761304c612dc7565b5060010190565b80820281158282048414176105ab576105ab612dc7565b60008261307957613079612ffc565b600160ff1b82146000198414161561309357613093612dc7565b50059056fea2646970667358221220b11b3b05edb92300c790109caf00f227dcad46575b9a63aafd674b1e6e8898c964736f6c63430008130033a264697066735822122019b70616a9685a2f58e201661e04de3027a35ca73c1fe626d1c7d45fac16f33964736f6c63430008130033",
    "linkReferences": {}
  },
  "methodIdentifiers": {
    "deploy((address,address,bytes32,uint256,uint256,uint256,uint256,uint256,uint256,uint256,address,address,(uint256,uint256,uint256)),bytes32[],address)": "0a3bb1c0"
  },
  "id": 9
}