{"abi":[{"type":"function","name":"deploy","inputs":[{"name":"_config","type":"tuple","internalType":"struct IHyperdrive.PoolConfig","components":[{"name":"baseToken","type":"address","internalType":"contract IERC20"},{"name":"linkerFactory","type":"address","internalType":"address"},{"name":"linkerCodeHash","type":"bytes32","internalType":"bytes32"},{"name":"initialVaultSharePrice","type":"uint256","internalType":"uint256"},{"name":"minimumShareReserves","type":"uint256","internalType":"uint256"},{"name":"minimumTransactionAmount","type":"uint256","internalType":"uint256"},{"name":"positionDuration","type":"uint256","internalType":"uint256"},{"name":"checkpointDuration","type":"uint256","internalType":"uint256"},{"name":"timeStretch","type":"uint256","internalType":"uint256"},{"name":"governance","type":"address","internalType":"address"},{"name":"feeCollector","type":"address","internalType":"address"},{"name":"fees","type":"tuple","internalType":"struct IHyperdrive.Fees","components":[{"name":"curve","type":"uint256","internalType":"uint256"},{"name":"flat","type":"uint256","internalType":"uint256"},{"name":"governanceLP","type":"uint256","internalType":"uint256"},{"name":"governanceZombie","type":"uint256","internalType":"uint256"}]}]},{"name":"_extraData","type":"bytes","internalType":"bytes"},{"name":"_salt","type":"bytes32","internalType":"bytes32"}],"outputs":[{"name":"","type":"address","internalType":"address"}],"stateMutability":"nonpayable"}],"bytecode":{"object":"0x608060405234801561001057600080fd5b5061479f806100206000396000f3fe608060405234801561001057600080fd5b506004361061002b5760003560e01c806322f84e0e14610030575b600080fd5b61004361003e366004610226565b61005f565b6040516001600160a01b03909116815260200160405180910390f35b60008083806020019051810190610076919061032b565b9050828582604051610087906100be565b610092929190610348565b8190604051809103906000f59050801580156100b2573d6000803e3d6000fd5b509150505b9392505050565b6143338061043783390190565b634e487b7160e01b600052604160045260246000fd5b604051610180810167ffffffffffffffff81118282101715610105576101056100cb565b60405290565b6001600160a01b038116811461012057600080fd5b50565b803561012e8161010b565b919050565b60006080828403121561014557600080fd5b6040516080810181811067ffffffffffffffff82111715610168576101686100cb565b8060405250809150823581526020830135602082015260408301356040820152606083013560608201525092915050565b600082601f8301126101aa57600080fd5b813567ffffffffffffffff808211156101c5576101c56100cb565b604051601f8301601f19908116603f011681019082821181831017156101ed576101ed6100cb565b8160405283815286602085880101111561020657600080fd5b836020870160208301376000602085830101528094505050505092915050565b600080600083850361022081121561023d57600080fd5b6101e08082121561024d57600080fd5b6102556100e1565b915061026086610123565b825261026e60208701610123565b602083015260408601356040830152606086013560608301526080860135608083015260a086013560a083015260c086013560c083015260e086013560e08301526101008087013581840152506101206102c9818801610123565b908301526101406102db878201610123565b908301526101606102ee88888301610133565b9083015290935084013567ffffffffffffffff81111561030d57600080fd5b61031986828701610199565b92505061020084013590509250925092565b60006020828403121561033d57600080fd5b81516100b78161010b565b82516001600160a01b031681526102008101602084015161037460208401826001600160a01b03169052565b5060408401516040830152606084015160608301526080840151608083015260a084015160a083015260c084015160c083015260e084015160e0830152610100808501518184015250610120808501516103d8828501826001600160a01b03169052565b5050610140848101516001600160a01b03811684830152505061016084810151805184830152602081015161018085015260408101516101a085015260608101516101c085015250506001600160a01b0383166101e08301526100b756fe6102606040523480156200001257600080fd5b5060405162004333380380620043338339810160408190526200003591620001bf565b600160005581516001600160a01b03908116608090815260608085015161018052908401516101a05260a0808501516101c05260e08086015190915260c08086015190526101008086015190915261016080860180515190925281516020908101516101209081528351604090810151610140908152945190950151909252860151841661020052918501516102205290840151600880546001600160a01b0319169184169190911790559092015182166101e0521661024052620002b3565b60405161018081016001600160401b03811182821017156200012757634e487b7160e01b600052604160045260246000fd5b60405290565b80516001600160a01b03811681146200014557600080fd5b919050565b6000608082840312156200015d57600080fd5b604051608081016001600160401b03811182821017156200018e57634e487b7160e01b600052604160045260246000fd5b8060405250809150825181526020830151602082015260408301516040820152606083015160608201525092915050565b600080828403610200811215620001d557600080fd5b6101e080821215620001e657600080fd5b620001f0620000f5565b9150620001fd856200012d565b82526200020d602086016200012d565b602083015260408501516040830152606085015160608301526080850151608083015260a085015160a083015260c085015160c083015260e085015160e08301526101008086015181840152506101206200026a8187016200012d565b908301526101406200027e8682016200012d565b9083015261016062000293878783016200014a565b8184015250819350620002a88186016200012d565b925050509250929050565b60805160a05160c05160e05161010051610120516101405161016051610180516101a0516101c0516101e051610200516102205161024051613f1e620004156000396000818161058b0152818161068b015281816108430152818161141b01528181611eb3015281816123e1015281816124870152612551015260008181610e870152611de4015260008181610e580152611da70152600081816104f30152818161077501528181610fb501528181611b1001528181611b8a0152611c0601526000610ef9015260008181610ed30152611fef015260008181610ead0152611fc9015260006110610152600061103b0152600061101501526000610fef015260008181610f6b0152612015015260008181610f1f015281816111da01526125fe015260008181610f45015261270b015260008181610550015281816105f5015281816107b1015281816109b601528181610e2901526111810152613f1e6000f3fe608060405234801561001057600080fd5b50600436106101e45760003560e01c80637180c8ca1161010f578063c55dae63116100a2578063e44808bc11610071578063e44808bc14610454578063e985e9c514610467578063fba560081461047a578063fbfa77cf146104a957600080fd5b8063c55dae6314610404578063c69e16ad14610424578063cf210e651461042c578063d81657431461043f57600080fd5b8063ab033ea9116100de578063ab033ea9146103a9578063b0d96580146103bc578063bd85b039146103d1578063becee9c3146103e457600080fd5b80637180c8ca1461035d5780637ecebe00146103705780639cd241af14610383578063a22cb4651461039657600080fd5b806321ff32a91161018757806346fbf68e1161015657806346fbf68e146102ff5780634e41a1fb146103225780634ed2d6ac1461033557806360246c881461034857600080fd5b806321ff32a91461029e578063313ce567146102bf5780633656eec2146102d95780633e691db9146102ec57600080fd5b806314e5f07b116101c357806314e5f07b1461023a57806317fad7fc1461024d5780631c0f12b61461026057806320fc48811461027357600080fd5b8062ad800c146101e957806301681a621461021257806302329a2914610227575b600080fd5b6101fc6101f7366004613465565b6104b1565b60405161020991906134ce565b60405180910390f35b6102256102203660046134f6565b6104e8565b005b610225610235366004613521565b6108dd565b61022561024836600461354d565b6108e9565b61022561025b366004613628565b610905565b61022561026e3660046136bd565b61091b565b610286610281366004613465565b610928565b60405190516001600160801b03168152602001610209565b6102b16102ac366004613705565b610969565b604051908152602001610209565b6102c76109af565b60405160ff9091168152602001610209565b6102b16102e7366004613747565b610a4d565b6102b16102fa366004613777565b610a86565b61031261030d3660046134f6565b610a91565b6040519015158152602001610209565b6101fc610330366004613465565b610ac7565b6102256103433660046137b2565b610ad5565b610350610b23565b60405161020991906137fc565b61022561036b36600461389d565b610d50565b6102b161037e3660046134f6565b610d5e565b6102256103913660046138cb565b610d8a565b6102256103a436600461389d565b610d9b565b6102256103b73660046134f6565b610e07565b6103c4610e10565b6040516102099190613903565b6102b16103df366004613465565b611096565b6103f76103f23660046139e0565b6110b8565b6040516102099190613a22565b61040c611173565b6040516001600160a01b039091168152602001610209565b6102b16111b3565b6102b161043a366004613465565b6111cd565b610447611216565b6040516102099190613a66565b610225610462366004613b77565b611322565b610312610475366004613bd6565b61136a565b6104826113ae565b6040805182516001600160801b039081168252602093840151169281019290925201610209565b61040c61140d565b60606104e36104bf8361144d565b6040516020016104cf91906134ce565b60405160208183030381529060405261157b565b919050565b336001600160a01b037f000000000000000000000000000000000000000000000000000000000000000016148015906105315750336000908152600a602052604090205460ff16155b1561054e576040516282b42960e81b815260040160405180910390fd5b7f00000000000000000000000000000000000000000000000000000000000000006001600160a01b0316816001600160a01b031614806105bf57507f00000000000000000000000000000000000000000000000000000000000000006001600160a01b0316816001600160a01b0316145b156105dd5760405163350b944160e11b815260040160405180910390fd5b6040516370a0823160e01b81523060048201526000907f00000000000000000000000000000000000000000000000000000000000000006001600160a01b0316906370a0823190602401602060405180830381865afa158015610644573d6000803e3d6000fd5b505050506040513d601f19601f820116820180604052508101906106689190613c04565b6040516370a0823160e01b81523060048201529091506000906001600160a01b037f000000000000000000000000000000000000000000000000000000000000000016906370a0823190602401602060405180830381865afa1580156106d2573d6000803e3d6000fd5b505050506040513d601f19601f820116820180604052508101906106f69190613c04565b6040516370a0823160e01b81523060048201529091506000906001600160a01b038516906370a0823190602401602060405180830381865afa158015610740573d6000803e3d6000fd5b505050506040513d601f19601f820116820180604052508101906107649190613c04565b905061079a6001600160a01b0385167f00000000000000000000000000000000000000000000000000000000000000008361159f565b6040516370a0823160e01b815230600482015283907f00000000000000000000000000000000000000000000000000000000000000006001600160a01b0316906370a0823190602401602060405180830381865afa158015610800573d6000803e3d6000fd5b505050506040513d601f19601f820116820180604052508101906108249190613c04565b1415806108b957506040516370a0823160e01b815230600482015282907f00000000000000000000000000000000000000000000000000000000000000006001600160a01b0316906370a0823190602401602060405180830381865afa158015610892573d6000803e3d6000fd5b505050506040513d601f19601f820116820180604052508101906108b69190613c04565b14155b156108d7576040516313dd85ff60e31b815260040160405180910390fd5b50505050565b6108e6816115f1565b50565b6108fa898989898989898989611674565b505050505050505050565b610913868686868686611887565b505050505050565b6108d7848484843361193b565b6040805160208101909152600081526104e3600760008481526020019081526020016000206040516020016104cf91546001600160801b0316815260200190565b6000838152600e602090815260408083206001600160a01b03868116855290835281842090851684528252808320548151928301526109a891016104cf565b9392505050565b6000610a4a7f00000000000000000000000000000000000000000000000000000000000000006001600160a01b031663313ce5676040518163ffffffff1660e01b8152600401602060405180830381865afa158015610a12573d6000803e3d6000fd5b505050506040513d601f19601f82011682018060405250810190610a369190613c1d565b6040805160ff9092166020830152016104cf565b90565b6000828152600b602090815260408083206001600160a01b0385168452825280832054815192830152610a8091016104cf565b92915050565b6000610a8082611afc565b6001600160a01b0381166000908152600a602090815260408083205490516104e3926104cf9260ff169101901515815260200190565b60606104e36104bf83611c77565b83610adf81611d69565b6001600160a01b0316336001600160a01b031614610b1057604051632aab8bd360e01b815260040160405180910390fd5b610b1c85858585611e26565b5050505050565b610b9c604051806101e001604052806000815260200160008152602001600081526020016000815260200160008152602001600081526020016000815260200160008152602001600081526020016000815260200160008152602001600081526020016000815260200160008152602001600081525090565b6000610ba6611e93565b600654600c6020527fe33c7a20958276ce9529c827d1e1b38c61245a6a2cb39f13852cf96fd6f7333d5460008080527f13649b2456f1b42fef0f0040b3aaeabcd21a76a0f3f5defd4f583839455116e854939450926001600160801b0390921691610c119190613c66565b610c1b9190613c79565b90506000808311610c2d576000610c48565b610c4883610c42610c3d86611f2b565b612093565b906120c3565b604080516101e0810182526001546001600160801b038082168352600354600f81900b60208501526005546001600160701b036201000082041695850195909552600160801b9485900482166060850152918490048116608084015260a0830187905260c08301889052600254849004811660e0840152600454808216610100850152918490048116610120840152908390048116610140830152600654808216610160840152929092049091166101808201529091506000906101a081018415610d1c57610d1784866120d8565b610d1f565b60005b81526002546001600160801b0316602091820152604051919250610d49916104cf918491016137fc565b5050505090565b610d5a82826120ed565b5050565b6001600160a01b0381166000908152600f60209081526040808320548151928301526104e391016104cf565b610d9683838333611e26565b505050565b336000818152600d602090815260408083206001600160a01b03871680855290835292819020805460ff191686151590811790915590519081529192917f17307eab39ab6107e8899845ad3d59bd9653f200f220920489ca2b5937696c31910160405180910390a35050565b6108e681612165565b610e186133b5565b610a4a6040518061018001604052807f00000000000000000000000000000000000000000000000000000000000000006001600160a01b031681526020017f00000000000000000000000000000000000000000000000000000000000000006001600160a01b031681526020017f000000000000000000000000000000000000000000000000000000000000000081526020017f000000000000000000000000000000000000000000000000000000000000000081526020017f000000000000000000000000000000000000000000000000000000000000000081526020017f000000000000000000000000000000000000000000000000000000000000000081526020017f000000000000000000000000000000000000000000000000000000000000000081526020017f000000000000000000000000000000000000000000000000000000000000000081526020017f00000000000000000000000000000000000000000000000000000000000000008152602001600860009054906101000a90046001600160a01b03166001600160a01b031681526020017f00000000000000000000000000000000000000000000000000000000000000006001600160a01b0316815260200160405180608001604052807f000000000000000000000000000000000000000000000000000000000000000081526020017f000000000000000000000000000000000000000000000000000000000000000081526020017f000000000000000000000000000000000000000000000000000000000000000081526020017f00000000000000000000000000000000000000000000000000000000000000008152508152506040516020016104cf9190613903565b6000818152600c60209081526040808320548151928301526104e391016104cf565b606060008267ffffffffffffffff8111156110d5576110d5613c8c565b6040519080825280602002602001820160405280156110fe578160200160208202803683370190505b50905060005b8381101561115757600085858381811061112057611120613ca2565b9050602002013590506000815490508084848151811061114257611142613ca2565b60209081029190910101525050600101611104565b5061116c816040516020016104cf9190613a22565b5092915050565b604080516001600160a01b037f0000000000000000000000000000000000000000000000000000000000000000166020820152600091610a4a91016104cf565b6000610a4a6009546040516020016104cf91815260200190565b60006104e36112046111ff7f000000000000000000000000000000000000000000000000000000000000000085613c66565b6121d9565b6040516020016104cf91815260200190565b6040805161018081018252600080825260208201819052918101829052606081018290526080810182905260a0810182905260c0810182905260e08101829052610100810182905261012081018290526101408101829052610160810191909152610a4a60016040516020016104cf919081546001600160801b038082168352608091821c602084015260018401548082166040850152821c60608401526002840154600f81900b83850152821c60a0840152600384015490811660c0840152811c60e083015260049092015460ff8082161515610100840152600882901c1615156101208301526001600160701b03601082901c1661014083015290911c6101608201526101800190565b8461132c81611d69565b6001600160a01b0316336001600160a01b03161461135d57604051632aab8bd360e01b815260040160405180910390fd5b610913868686868661193b565b6001600160a01b038281166000908152600d60209081526040808320938516835292815282822054835160ff9091161515918101919091529091610a8091016104cf565b60408051808201909152600080825260208201526040805180820182526006546001600160801b03808216808452600160801b9092048116602093840190815284519384019290925290511691810191909152610a4a906060016104cf565b604080516001600160a01b037f0000000000000000000000000000000000000000000000000000000000000000166020820152600091610a4a91016104cf565b606060f882901c6001600160f81b038316600061146982612221565b9050600083600381111561147f5761147f613c3a565b036114b1576040518060400160405280600d81526020016c048797065726472697665204c5609c1b8152509350611573565b60018360038111156114c5576114c5613c3a565b036114f157806040516020016114db9190613cb8565b6040516020818303038152906040529350611573565b600283600381111561150557611505613c3a565b0361151b57806040516020016114db9190613cf1565b600383600381111561152f5761152f613c3a565b03611573576040517f48797065726472697665205769746864726177616c20536861726500000000006020820152603b015b60405160208183030381529060405293505b505050919050565b80604051636e64089360e11b815260040161159691906134ce565b60405180910390fd5b604080516001600160a01b038416602482015260448082018490528251808303909101815260649091019091526020810180516001600160e01b031663a9059cbb60e01b179052610d9690849061232e565b336000908152600a602052604090205460ff16611620576040516282b42960e81b815260040160405180910390fd5b600580548215156101000261ff00199091161790556040517f7c4d1fe30fdbfda9e9c4c43e759ef32e4db5128d4cb58ff3ae9583b89b6242a59061166990831515815260200190565b60405180910390a150565b834211156116955760405163f87d927160e01b815260040160405180910390fd5b6001600160a01b0387166116bc5760405163f0dd15fd60e01b815260040160405180910390fd5b6001600160a01b038781166000818152600f602090815260408083205481518084018f905280830195909552948b166060850152891515608085015260a084019490945260c08084018990528451808503909101815260e08401909452835193019290922061190160f01b61010083015261010282018c90526101228201526101420160408051601f198184030181528282528051602091820120600080855291840180845281905260ff88169284019290925260608301869052608083018590529092509060019060a0016020604051602081039080840390855afa1580156117aa573d6000803e3d6000fd5b505050602060405103519050886001600160a01b0316816001600160a01b0316146117e857604051638baa579f60e01b815260040160405180910390fd5b6001600160a01b0389166000908152600f60205260408120805490919061180e90613d2b565b909155506001600160a01b038981166000818152600d60209081526040808320948d1680845294825291829020805460ff19168c151590811790915591519182527f17307eab39ab6107e8899845ad3d59bd9653f200f220920489ca2b5937696c31910160405180910390a35050505050505050505050565b6001600160a01b03861615806118a457506001600160a01b038516155b156118c25760405163f0dd15fd60e01b815260040160405180910390fd5b8281146118e25760405163174861a760e31b815260040160405180910390fd5b60005b838110156119325761192a85858381811061190257611902613ca2565b90506020020135888886868681811061191d5761191d613ca2565b905060200201353361193b565b6001016118e5565b50505050505050565b6001600160a01b038416158061195857506001600160a01b038316155b156119765760405163f0dd15fd60e01b815260040160405180910390fd5b836001600160a01b0316816001600160a01b031614611a3a576001600160a01b038085166000908152600d602090815260408083209385168352929052205460ff16611a3a576000858152600e602090815260408083206001600160a01b03808916855290835281842090851684529091529020546000198114611a38576000868152600e602090815260408083206001600160a01b03808a168552908352818420908616845290915281208054859290611a32908490613c79565b90915550505b505b6000858152600b602090815260408083206001600160a01b038816845290915281208054849290611a6c908490613c79565b90915550506000858152600b602090815260408083206001600160a01b038716845290915281208054849290611aa3908490613c66565b909155505060408051868152602081018490526001600160a01b038086169287821692918516917fc3d58168c5ae7397731d063d5bbf3d657854427343f4c083240f7aacaa2d0f62910160405180910390a45050505050565b6000611b06612391565b6001600160a01b037f000000000000000000000000000000000000000000000000000000000000000016611b3d60208401846134f6565b6001600160a01b031614611b6457604051630ad13b3360e21b815260040160405180910390fd5b336000908152600a602052604090205460ff16158015611bad5750336001600160a01b037f00000000000000000000000000000000000000000000000000000000000000001614155b8015611bc457506008546001600160a01b03163314155b15611be1576040516282b42960e81b815260040160405180910390fd5b6000611beb611e93565b600980546000909155909150611c028183866123bb565b92507f00000000000000000000000000000000000000000000000000000000000000006001600160a01b03167fa4bafc79b3f9fdba2427cd386f1fbc7d8779e9fd7229f6220d53bc04d3901e47611c5a858588612584565b60405190815260200160405180910390a250506104e36001600055565b606060f882901c6001600160f81b0383166000611c9382612221565b90506000836003811115611ca957611ca9613c3a565b03611cdb576040518060400160405280600d81526020016c0485950455244524956452d4c5609c1b8152509350611573565b6001836003811115611cef57611cef613c3a565b03611d0557806040516020016114db9190613d44565b6002836003811115611d1957611d19613c3a565b03611d2f57806040516020016114db9190613d7c565b6003836003811115611d4357611d43613c3a565b03611573576040516c485950455244524956452d575360981b6020820152602d01611561565b604080513060208083019190915281830193909352815180820383018152606080830184528151918501919091206001600160f81b031960808401527f000000000000000000000000000000000000000000000000000000000000000090911b6bffffffffffffffffffffffff1916608183015260958201527f000000000000000000000000000000000000000000000000000000000000000060b5808301919091528251808303909101815260d5909101909152805191012090565b6000848152600e602090815260408083206001600160a01b0385811680865291845282852090881680865290845293829020869055905185815290917f8c5be1e5ebec7d5bd14f71427d1e84f3dd0314c0f7b2291e5b200ac8c7c3b925910160405180910390a350505050565b6040516303d1689d60e11b8152670de0b6b3a764000060048201526000907f00000000000000000000000000000000000000000000000000000000000000006001600160a01b0316906307a2d13a90602401602060405180830381865afa158015611f02573d6000803e3d6000fd5b505050506040513d601f19601f82011682018060405250810190611f269190613c04565b905090565b611f8860405180610160016040528060008152602001600081526020016000815260200160008152602001600081526020016000815260200160008152602001600081526020016000815260200160008152602001600081525090565b60408051610160810182526001546001600160801b038082168352600354600f0b6020840152600160801b91829004811693830193909352606082018590527f000000000000000000000000000000000000000000000000000000000000000060808301527f000000000000000000000000000000000000000000000000000000000000000060a08301527f000000000000000000000000000000000000000000000000000000000000000060c083015260025404821660e0820152600454909161010083019161205991166125b3565b81526003546001600160801b03600160801b918290048116602084015260045460409093019261208b929004166125b3565b905292915050565b60008060006120a184612629565b915091508061116c5760405163aeeb825d60e01b815260040160405180910390fd5b60006109a88383670de0b6b3a76400006126a3565b60006109a883670de0b6b3a7640000846126a3565b6008546001600160a01b03163314612117576040516282b42960e81b815260040160405180910390fd5b6001600160a01b0382166000818152600a6020526040808220805460ff1916851515179055517fa4336c0cb1e245b95ad204faed7e940d6dc999684fd8b5e1ff597a0c4efca8ab9190a25050565b6008546001600160a01b0316331461218f576040516282b42960e81b815260040160405180910390fd5b600880546001600160a01b0319166001600160a01b0383169081179091556040517f9d3e522e1e47a2f6009739342b9cc7b252a1888154e843ab55ee1c81745795ab90600090a250565b6000600c60006121ea6002856126c1565b815260200190815260200160002054600c60006122086001866126c1565b815260200190815260200160002054610a809190613da8565b60408051604d808252608082019092526060919060009082602082018180368337019050509050612253600a85613dde565b61225e906030613c66565b60f81b8161226d600185613c79565b8151811061227d5761227d613ca2565b60200101906001600160f81b031916908160001a90535061229f600a85613df2565b935060015b8415612320576122b5600a86613dde565b6122c0906030613c66565b60f81b8260016122d08487613c79565b6122da9190613c79565b815181106122ea576122ea613ca2565b60200101906001600160f81b031916908160001a90535061230c600a86613df2565b94508061231881613d2b565b9150506122a4565b918290030190815292915050565b60006123436001600160a01b038416836126f6565b905080516000141580156123685750808060200190518101906123669190613e06565b155b15610d9657604051635274afe760e01b81526001600160a01b0384166004820152602401611596565b6002600054036123b457604051633ee5aeb560e01b815260040160405180910390fd5b6002600055565b6000806123c885856120c3565b6040516363737ac960e11b8152600481018290529091507f00000000000000000000000000000000000000000000000000000000000000006001600160a01b03169063c6e6f59290602401602060405180830381865afa158015612430573d6000803e3d6000fd5b505050506040513d601f19601f820116820180604052508101906124549190613c04565b9450846000036124685760009150506109a8565b6124786040840160208501613521565b15612537576001600160a01b037f00000000000000000000000000000000000000000000000000000000000000001663ba087652866124ba60208701876134f6565b6040516001600160e01b031960e085901b16815260048101929092526001600160a01b031660248201523060448201526064016020604051808303816000875af115801561250c573d6000803e3d6000fd5b505050506040513d601f19601f820116820180604052508101906125309190613c04565b915061257c565b61257861254760208501856134f6565b6001600160a01b037f000000000000000000000000000000000000000000000000000000000000000016908761159f565b8491505b509392505050565b60006125966040830160208401613521565b156125a25750826109a8565b6125ac84846120c3565b90506109a8565b600080670de0b6b3a76400006125c7612704565b6125d19190613e23565b90508083116125e15760006125eb565b6125eb8184613c79565b91506109a8612622670de0b6b3a76400007f0000000000000000000000000000000000000000000000000000000000000000613e23565b83906120d8565b600080600080600061263a8661273a565b915091508061265157506000958695509350505050565b8560a0015161265f8761297d565b875161266c908590613e3a565b6126769190613e3a565b6126809190613da8565b9250505060008112156126995750600093849350915050565b9360019350915050565b60008260001904841183021582026126ba57600080fd5b5091020490565b60006001600160f81b038211156126eb5760405163b7d0949760e01b815260040160405180910390fd5b5060f89190911b1790565b60606109a8838360006129e4565b60006127307f000000000000000000000000000000000000000000000000000000000000000042613dde565b611f269042613c79565b600080600061275c8461014001518561012001516120c390919063ffffffff16565b61010085015160e086015161277091612a81565b61277a9190613da8565b9050600061279085600001518660200151612a96565b905060008213156128935760008290506000806127e1886000015189602001518a604001518b60a001518c60c00151670de0b6b3a76400006127d29190613c79565b8d606001518e60800151612ab3565b91509150806127fa575060009788975095505050505050565b82821061284f576000612834858a60400151868c60c00151670de0b6b3a76400006128259190613c79565b8d606001518e60800151612ba2565b905061283f81613e5a565b9960019950975050505050505050565b60008860200151126128825760a088015161286a9085613c79565b61287390613e5a565b98600198509650505050505050565b60a0880151885161286a9190613c79565b600082121561296f5760006128a783613e5a565b905060006128db8388604001518960c00151670de0b6b3a76400006128cc9190613c79565b8a606001518b60800151612bd2565b9050818110612917576000612873848960400151858b60c00151670de0b6b3a76400006129089190613c79565b8c606001518d60800151612c68565b60006129498489604001518a60c00151670de0b6b3a764000061293a9190613c79565b8b606001518c60800151612d40565b90506129658860600151838561295f9190613c79565b906120d8565b6128739082613c66565b506000946001945092505050565b60006129ac826101000151670de0b6b3a764000061299b9190613c79565b606084015160e08501519190612dcf565b6129da836101400151670de0b6b3a76400006129c89190613c79565b606085015161012086015191906126a3565b610a809190613da8565b606081471015612a095760405163cd78605960e01b8152306004820152602401611596565b600080856001600160a01b03168486604051612a259190613e76565b60006040518083038185875af1925050503d8060008114612a62576040519150601f19603f3d011682016040523d82523d6000602084013e612a67565b606091505b5091509150612a77868383612df5565b9695505050505050565b60006109a88383670de0b6b3a7640000612dcf565b600080612aa38385613da8565b905060008112156109a857600080fd5b6000806000881215612ad557612ac888613e5a565b612ad29087613c66565b95505b6000612ae18a8a612a96565b90506000612af2828a898989612e51565b90506000612b15612b0d89612b07898d612a81565b90612e80565b889088612dcf565b612b1f9083613c79565b9050670de0b6b3a76400008110612b5357612b4c612b45670de0b6b3a76400008a6120d8565b8290612e80565b9050612b6b565b612b68612b45670de0b6b3a76400008a612ed7565b90505b89811015612b825760008094509450505050612b96565b612b8c8a82613c79565b6001945094505050505b97509795505050505050565b600080612bb3888888888888612eec565b909250905080612bc757612bc76000612fae565b509695505050505050565b600080612be28787878787612fc9565b90506000612c0d670de0b6b3a7640000612bfc87876120d8565b612c069190613c66565b8390612ed7565b9050670de0b6b3a76400008110612c3a57612c33612b45670de0b6b3a764000088612ed7565b9050612c52565b612c4f612b45670de0b6b3a7640000886120d8565b90505b612c5c8188613c79565b98975050505050505050565b600080612c788888878787612fc9565b905085871015612c8c57612c8c6000612fae565b612c9a85612b07888a613c79565b965086811015612cae57612cae6000612fae565b6000612cc68486612cbf8b86613c79565b9190612dcf565b9050670de0b6b3a76400008110612cf357612cec612b45670de0b6b3a764000088612ed7565b9050612d0b565b612d08612b45670de0b6b3a7640000886120d8565b90505b612d158185612ed7565b905088811015612d2957612d296000612fae565b612d338982613c79565b9998505050505050505050565b600080612d508787878787612e51565b90506000612d74670de0b6b3a7640000612d6a8787612ed7565b6126229190613c66565b9050670de0b6b3a76400008110612da157612d9a612b45670de0b6b3a7640000886120d8565b9050612db9565b612db6612b45670de0b6b3a764000088612ed7565b90505b612dc381856120d8565b9050612c5c8882613c79565b6000826000190484118302158202612de657600080fd5b50910281810615159190040190565b606082612e0a57612e0582612fee565b6109a8565b8151158015612e2157506001600160a01b0384163b155b15612e4a57604051639996b31560e01b81526001600160a01b0385166004820152602401611596565b50806109a8565b6000612e5d8585612e80565b612e76612e6e86612b07868b6120c3565b8590856126a3565b612a779190613c66565b600081600003612e995750670de0b6b3a7640000610a80565b82600003612ea957506000610a80565b816000612eb585613017565b9050818102612ecc670de0b6b3a764000082613e92565b9050612a778161322a565b60006109a883670de0b6b3a764000084612dcf565b6000806000612efe8989888888612fc9565b9050612f0e86612b07898b613c66565b975087811015612f25576000809250925050612fa3565b6000612f368587612cbf8c86613c79565b9050670de0b6b3a76400008110612f6357612f5c612b45670de0b6b3a764000089612ed7565b9050612f7b565b612f78612b45670de0b6b3a7640000896120d8565b90505b612f858186612ed7565b9050808a1115612f9c57612f99818b613c79565b93505b6001925050505b965096945050505050565b80604051633c06d78b60e11b81526004016115969190613ec0565b6000612fd58585612e80565b612e76612fe686612b07868b612a81565b859085612dcf565b805115612ffe5780518082602001fd5b604051630a12f52160e11b815260040160405180910390fd5b60008082136130395760405163e61b497560e01b815260040160405180910390fd5b5060606001600160801b03821160071b82811c67ffffffffffffffff1060061b1782811c63ffffffff1060051b1782811c61ffff1060041b1782811c60ff10600390811b90911783811c600f1060021b1783811c909110600190811b90911783811c90911017609f81810383019390931b90921c6c465772b2bbbb5f824b15207a3081018102821d6d0388eaa27412d5aca026815d636e018102821d6d0df99ac502031bf953eff472fdcc018102821d6d13cdffb29d51d99322bdff5f2211018102821d6d0a0f742023def783a307a986912e018102821d6d01920d8043ca89b5239253284e42018102821d6c0b7a86d7375468fac667a0a527016c29508e458543d8aa4df2abee7882018202831d6d0139601a2efabe717e604cbb4894018202831d6d02247f7a7b6594320649aa03aba1018202831d6c8c3f38e95a6b1ff2ab1c3b343619018202831d6d02384773bdf1ac5676facced60901901820290921d6cb9a025d814b29c212b8b1a07cd190102780a09507084cc699bb0e71ea869ffffffffffffffffffffffff190105711340daa0d5f769dba1915cef59f0815a550602605f19919091017d0267a36c0c95b3975ab3ee5b203a7614a3f75373f047d803ae7b6687f2b302017d57115e47018c7177eebf7cd370a3356a1b7863008a5ae8028c72b88642840160ae1d90565b6000680248ce36a70cb26b3e19821361324557506000919050565b680755bf798b4a1bf1e5821261326e576040516373a2d6b160e01b815260040160405180910390fd5b6503782dace9d9604e83901b059150600060606bb17217f7d1cf79abc9e3b39884821b056001605f1b01901d6bb17217f7d1cf79abc9e3b39881029093036c240c330e9fb2d9cbaf0fd5aafb1981018102606090811d6d0277594991cfc85f6e2461837cd9018202811d6d1a521255e34f6a5061b25ef1c9c319018202811d6db1bbb201f443cf962f1a1d3db4a5018202811d6e02c72388d9f74f51a9331fed693f1419018202811d6e05180bb14799ab47a8a8cb2a527d57016d02d16720577bd19bf614176fe9ea6c10fe68e7fd37d0007b713f765084018402831d9081019084016d01d3967ed30fc4f89c02bab5708119010290911d6e0587f503bb6ea29d25fcb740196450019091026d360d7aeea093263ecc6e0ecb291760621b010574029d9dc38563c32e5c2f6dc192ee70ef65f9978af30260c3939093039290921c92915050565b60405180610180016040528060006001600160a01b0316815260200160006001600160a01b031681526020016000801916815260200160008152602001600081526020016000815260200160008152602001600081526020016000815260200160006001600160a01b0316815260200160006001600160a01b031681526020016134606040518060800160405280600081526020016000815260200160008152602001600081525090565b905290565b60006020828403121561347757600080fd5b5035919050565b60005b83811015613499578181015183820152602001613481565b50506000910152565b600081518084526134ba81602086016020860161347e565b601f01601f19169290920160200192915050565b6020815260006109a860208301846134a2565b6001600160a01b03811681146108e657600080fd5b60006020828403121561350857600080fd5b81356109a8816134e1565b80151581146108e657600080fd5b60006020828403121561353357600080fd5b81356109a881613513565b60ff811681146108e657600080fd5b60008060008060008060008060006101208a8c03121561356c57600080fd5b8935985060208a0135975060408a0135613585816134e1565b965060608a0135613595816134e1565b955060808a01356135a581613513565b945060a08a0135935060c08a01356135bc8161353e565b8093505060e08a013591506101008a013590509295985092959850929598565b60008083601f8401126135ee57600080fd5b50813567ffffffffffffffff81111561360657600080fd5b6020830191508360208260051b850101111561362157600080fd5b9250929050565b6000806000806000806080878903121561364157600080fd5b863561364c816134e1565b9550602087013561365c816134e1565b9450604087013567ffffffffffffffff8082111561367957600080fd5b6136858a838b016135dc565b9096509450606089013591508082111561369e57600080fd5b506136ab89828a016135dc565b979a9699509497509295939492505050565b600080600080608085870312156136d357600080fd5b8435935060208501356136e5816134e1565b925060408501356136f5816134e1565b9396929550929360600135925050565b60008060006060848603121561371a57600080fd5b83359250602084013561372c816134e1565b9150604084013561373c816134e1565b809150509250925092565b6000806040838503121561375a57600080fd5b82359150602083013561376c816134e1565b809150509250929050565b60006020828403121561378957600080fd5b813567ffffffffffffffff8111156137a057600080fd5b8201606081850312156109a857600080fd5b600080600080608085870312156137c857600080fd5b8435935060208501356137da816134e1565b92506040850135915060608501356137f1816134e1565b939692955090935050565b815181526020808301519082015260408083015190820152606080830151908201526080808301519082015260a0808301519082015260c0808301519082015260e08083015190820152610100808301519082015261012080830151908201526101408083015190820152610160808301519082015261018080830151908201526101a080830151908201526101c091820151918101919091526101e00190565b600080604083850312156138b057600080fd5b82356138bb816134e1565b9150602083013561376c81613513565b6000806000606084860312156138e057600080fd5b8335925060208401356138f2816134e1565b929592945050506040919091013590565b81516001600160a01b031681526101e08101602083015161392f60208401826001600160a01b03169052565b5060408301516040830152606083015160608301526080830151608083015260a083015160a083015260c083015160c083015260e083015160e083015261010080840151818401525061012080840151613993828501826001600160a01b03169052565b5050610140838101516001600160a01b03169083015261016080840151805182850152602081015161018085015260408101516101a085015260608101516101c08501525b505092915050565b600080602083850312156139f357600080fd5b823567ffffffffffffffff811115613a0a57600080fd5b613a16858286016135dc565b90969095509350505050565b6020808252825182820181905260009190848201906040850190845b81811015613a5a57835183529284019291840191600101613a3e565b50909695505050505050565b81516001600160801b0316815261018081016020830151613a9260208401826001600160801b03169052565b506040830151613aad60408401826001600160801b03169052565b506060830151613ac860608401826001600160801b03169052565b506080830151613add6080840182600f0b9052565b5060a0830151613af860a08401826001600160801b03169052565b5060c0830151613b1360c08401826001600160801b03169052565b5060e0830151613b2e60e08401826001600160801b03169052565b506101008381015115159083015261012080840151151590830152610140808401516001600160701b031690830152610160808401516001600160801b038116828501526139d8565b600080600080600060a08688031215613b8f57600080fd5b853594506020860135613ba1816134e1565b93506040860135613bb1816134e1565b9250606086013591506080860135613bc8816134e1565b809150509295509295909350565b60008060408385031215613be957600080fd5b8235613bf4816134e1565b9150602083013561376c816134e1565b600060208284031215613c1657600080fd5b5051919050565b600060208284031215613c2f57600080fd5b81516109a88161353e565b634e487b7160e01b600052602160045260246000fd5b634e487b7160e01b600052601160045260246000fd5b80820180821115610a8057610a80613c50565b81810381811115610a8057610a80613c50565b634e487b7160e01b600052604160045260246000fd5b634e487b7160e01b600052603260045260246000fd5b700243cb832b9323934bb32902637b7339d1607d1b815260008251613ce481601185016020870161347e565b9190910160110192915050565b710243cb832b9323934bb329029b437b93a1d160751b815260008251613d1e81601285016020870161347e565b9190910160120192915050565b600060018201613d3d57613d3d613c50565b5060010190565b6f242ca822a9222924ab2296a627a7239d60811b815260008251613d6f81601085016020870161347e565b9190910160100192915050565b70242ca822a9222924ab2296a9a427a92a1d60791b815260008251613ce481601185016020870161347e565b818103600083128015838313168383128216171561116c5761116c613c50565b634e487b7160e01b600052601260045260246000fd5b600082613ded57613ded613dc8565b500690565b600082613e0157613e01613dc8565b500490565b600060208284031215613e1857600080fd5b81516109a881613513565b8082028115828204841417610a8057610a80613c50565b80820182811260008312801582168215821617156139d8576139d8613c50565b6000600160ff1b8201613e6f57613e6f613c50565b5060000390565b60008251613e8881846020870161347e565b9190910192915050565b600082613ea157613ea1613dc8565b600160ff1b821460001984141615613ebb57613ebb613c50565b500590565b6020810160048310613ee257634e487b7160e01b600052602160045260246000fd5b9190529056fea264697066735822122039d4c69a5ec874dc4f7c04a74d8d90b34494d16fc56b89f274b019a775f2d5b364736f6c63430008140033a2646970667358221220f9891ab2536e08e343f302ba03d24e008b5916f4c5283a6dafe10050e712db2564736f6c63430008140033","linkReferences":{}},"methodIdentifiers":{"deploy((address,address,bytes32,uint256,uint256,uint256,uint256,uint256,uint256,address,address,(uint256,uint256,uint256,uint256)),bytes,bytes32)":"22f84e0e"},"id":3}