{"abi":[{"type":"function","name":"deploy","inputs":[{"name":"_config","type":"tuple","internalType":"struct IHyperdrive.PoolConfig","components":[{"name":"baseToken","type":"address","internalType":"contract IERC20"},{"name":"linkerFactory","type":"address","internalType":"address"},{"name":"linkerCodeHash","type":"bytes32","internalType":"bytes32"},{"name":"initialSharePrice","type":"uint256","internalType":"uint256"},{"name":"minimumShareReserves","type":"uint256","internalType":"uint256"},{"name":"minimumTransactionAmount","type":"uint256","internalType":"uint256"},{"name":"positionDuration","type":"uint256","internalType":"uint256"},{"name":"checkpointDuration","type":"uint256","internalType":"uint256"},{"name":"timeStretch","type":"uint256","internalType":"uint256"},{"name":"governance","type":"address","internalType":"address"},{"name":"feeCollector","type":"address","internalType":"address"},{"name":"fees","type":"tuple","internalType":"struct IHyperdrive.Fees","components":[{"name":"curve","type":"uint256","internalType":"uint256"},{"name":"flat","type":"uint256","internalType":"uint256"},{"name":"governance","type":"uint256","internalType":"uint256"}]}]},{"name":"_extraData","type":"bytes","internalType":"bytes"},{"name":"target0","type":"address","internalType":"address"},{"name":"target1","type":"address","internalType":"address"}],"outputs":[{"name":"","type":"address","internalType":"address"}],"stateMutability":"nonpayable"}],"bytecode":{"object":"0x608060405234801561001057600080fd5b506150cf806100206000396000f3fe60806040523480156200001157600080fd5b50600436106200002e5760003560e01c806399bb2e7b1462000033575b600080fd5b6200004a6200004436600462000258565b62000066565b6040516001600160a01b03909116815260200160405180910390f35b6000806000858060200190518101906200008191906200038b565b9150915086858584846040516200009890620000d1565b620000a8959493929190620004a9565b604051809103906000f080158015620000c5573d6000803e3d6000fd5b50979650505050505050565b614acf80620005cb83390190565b634e487b7160e01b600052604160045260246000fd5b604051610180810167ffffffffffffffff811182821017156200011c576200011c620000df565b60405290565b604051601f8201601f1916810167ffffffffffffffff811182821017156200014e576200014e620000df565b604052919050565b6001600160a01b03811681146200016c57600080fd5b50565b80356200017c8162000156565b919050565b6000606082840312156200019457600080fd5b6040516060810181811067ffffffffffffffff82111715620001ba57620001ba620000df565b80604052508091508235815260208301356020820152604083013560408201525092915050565b600082601f830112620001f357600080fd5b813567ffffffffffffffff811115620002105762000210620000df565b62000225601f8201601f191660200162000122565b8181528460208386010111156200023b57600080fd5b816020850160208301376000918101602001919091529392505050565b6000806000808486036102208112156200027157600080fd5b6101c0808212156200028257600080fd5b6200028c620000f5565b915062000299876200016f565b8252620002a9602088016200016f565b602083015260408701356040830152606087013560608301526080870135608083015260a087013560a083015260c087013560c083015260e087013560e0830152610100808801358184015250610120620003068189016200016f565b908301526101406200031a8882016200016f565b908301526101606200032f8989830162000181565b9083015290945085013567ffffffffffffffff8111156200034f57600080fd5b6200035d87828801620001e1565b9350506200036f6101e086016200016f565b91506200038061020086016200016f565b905092959194509250565b600080604083850312156200039f57600080fd5b8251620003ac8162000156565b8092505060208084015167ffffffffffffffff80821115620003cd57600080fd5b818601915086601f830112620003e257600080fd5b815181811115620003f757620003f7620000df565b8060051b91506200040a84830162000122565b81815291830184019184810190898411156200042557600080fd5b938501935b83851015620004535784519250620004428362000156565b82825293850193908501906200042a565b8096505050505050509250929050565b600081518084526020808501945080840160005b838110156200049e5781516001600160a01b03168752958201959082019060010162000477565b509495945050505050565b85516001600160a01b0316815260006102406020880151620004d660208501826001600160a01b03169052565b5060408801516040840152606088015160608401526080880151608084015260a088015160a084015260c088015160c084015260e088015160e0840152610100808901518185015250610120808901516200053b828601826001600160a01b03169052565b5050610140888101516001600160a01b03811685830152505061016088810151805185830152602081015161018086015260408101516101a086015250506001600160a01b0387166101c08401526001600160a01b0386166101e08401526001600160a01b03851661020084015280610220840152620005be8184018562000463565b9897505050505050505056fe6102a060405260016000553480156200001757600080fd5b5060405162004acf38038062004acf8339810160408190526200003a91620006ca565b84516001600160a01b03166080908152850151829086908690869083906103e811156200007a576040516349db44f560e01b815260040160405180910390fd5b60808101516101805260a08101516101a05260e0810151600003620000b257604051635428734d60e01b815260040160405180910390fd5b60e08101805160a0525160c08201511080620000e257508060e001518160c00151620000df919062000815565b15155b15620001015760405163253fffcf60e11b815260040160405180910390fd5b60c081810151905261010081015160e0526060810151610160908152610120820151600880546001600160a01b0319166001600160a01b03928316179055610140830151166101c05281015151670de0b6b3a76400001080620001745750670de0b6b3a764000081610160015160200151115b80620001905750670de0b6b3a764000081610160015160400151115b15620001af576040516322f72cc360e11b815260040160405180910390fd5b610160810180515161010052805160209081015161012052905160409081015161014052818301516001600160a01b039081166101e052928101516102005284831661022052918316610240528151808301835260018152603160f81b9082015281517f2aef22f9d7df5f9d21c56d14029233f3fdaa91917727e1eb68e504d27072d6cd918101919091527fc89efdaa54c0f20c7adf612882df0950f5a951637e0307cdcb4c672f298b8bc69181019190915246606082015230608082015260a00160408051601f198184030181529190528051602090910120610260525050506001600160a01b031661028052620002a76200044f565b856060015114620002cb576040516355f2a42f60e01b815260040160405180910390fd5b610280516001600160a01b03166338d52e0f6040518163ffffffff1660e01b8152600401602060405180830381865afa1580156200030d573d6000803e3d6000fd5b505050506040513d601f19601f8201168201806040525081019062000333919062000838565b6001600160a01b031685600001516001600160a01b0316146200036957604051630722152560e11b815260040160405180910390fd5b61028051855162000388916001600160a01b03909116906001620004cd565b60005b815181101562000443576000828281518110620003ac57620003ac6200085f565b60200260200101519050610280516001600160a01b0316816001600160a01b03161480620003ed57506080516001600160a01b0316816001600160a01b0316145b156200040c5760405163350b944160e11b815260040160405180910390fd5b6001600160a01b03166000908152601060205260409020805460ff19166001179055806200043a8162000875565b9150506200038b565b505050505050620008b7565b610280516040516303d1689d60e11b8152670de0b6b3a764000060048201526000916001600160a01b0316906307a2d13a90602401602060405180830381865afa158015620004a2573d6000803e3d6000fd5b505050506040513d601f19601f82011682018060405250810190620004c891906200089d565b905090565b600060405163095ea7b360e01b8152836004820152826024820152602060006044836000895af13d15601f3d1160016000511416171691505080620005495760405162461bcd60e51b815260206004820152600e60248201526d1054141493d59157d1905253115160921b604482015260640160405180910390fd5b50505050565b634e487b7160e01b600052604160045260246000fd5b60405161018081016001600160401b03811182821017156200058b576200058b6200054f565b60405290565b6001600160a01b0381168114620005a757600080fd5b50565b8051620005b78162000591565b919050565b600060608284031215620005cf57600080fd5b604051606081016001600160401b0381118282101715620005f457620005f46200054f565b80604052508091508251815260208301516020820152604083015160408201525092915050565b600082601f8301126200062d57600080fd5b815160206001600160401b03808311156200064c576200064c6200054f565b8260051b604051601f19603f830116810181811084821117156200067457620006746200054f565b6040529384528581018301938381019250878511156200069357600080fd5b83870191505b84821015620006bf578151620006af8162000591565b8352918301919083019062000699565b979650505050505050565b6000806000806000858703610240811215620006e557600080fd5b6101c080821215620006f657600080fd5b6200070062000565565b91506200070d88620005aa565b82526200071d60208901620005aa565b602083015260408801516040830152606088015160608301526080880151608083015260a088015160a083015260c088015160c083015260e088015160e08301526101008089015181840152506101206200077a818a01620005aa565b908301526101406200078e898201620005aa565b90830152610160620007a38a8a8301620005bc565b8184015250819650620007b8818901620005aa565b95505050620007cb6101e08701620005aa565b9250620007dc6102008701620005aa565b6102208701519092506001600160401b03811115620007fa57600080fd5b62000808888289016200061b565b9150509295509295909350565b6000826200083357634e487b7160e01b600052601260045260246000fd5b500690565b6000602082840312156200084b57600080fd5b8151620008588162000591565b9392505050565b634e487b7160e01b600052603260045260246000fd5b6000600182016200089657634e487b7160e01b600052601160045260246000fd5b5060010190565b600060208284031215620008b057600080fd5b5051919050565b60805160a05160c05160e05161010051610120516101405161016051610180516101a0516101c0516101e051610200516102205161024051610260516102805161401662000ab960003960008181610e6801528181610ea901528181610f3501526118000152600081816103f2015261073801526000818161054301528181610585015281816105de01528181610674015261070701526000818161017d01528181610344015281816105b20152818161061001528181610642015281816106a8015281816106d7015281816107c90152818161088201526108dc0152600050506000505060005050600081816109c90152610bf60152600081816121dd015281816124970152818161284701528181612a5201528181612a8e0152818161300401526130530152600081816113ff01528181611447015281816118bb0152818161247101526126a4015260008181611e0601528181612746015281816129180152612991015260008181611145015281816114ba0152818161197001528181611dda01526129650152600081816114990152818161270201526128e40152600081816113dd0152818161146801528181611899015281816124bd01526126c5015260008181610a9701528181610c830152818161108d0152612c05015260008181610f93015261103e015260008181610e110152610e4601526140166000f3fe6080604052600436106101665760003560e01c806377d05ff4116100d1578063cba2e58d1161008a578063ded0623111610064578063ded062311461037e578063e44808bc14610511578063eac3e79914610531578063ed64bab21461056557610166565b8063cba2e58d146104eb578063cbc13434146102b8578063dbbe8070146104fe57610166565b806377d05ff41461046f5780639032c726146104825780639aa68462146104a25780639cd241af146104b0578063a22cb4651461044f578063ab033ea9146104d057610166565b806329b23fc11161012357806329b23fc11461037e57806330adf81f146103ac5780633644e515146103e05780633e691db9146104145780634ed2d6ac146104345780637180c8ca1461044f57610166565b806301681a621461027657806302329a2914610298578063074a6de9146102b857806317fad7fc146102f25780631c0f12b61461031257806321b57d5314610332575b34801561017257600080fd5b5060003660606000807f00000000000000000000000000000000000000000000000000000000000000006001600160a01b031685856040516101b5929190613887565b600060405180830381855af49150503d80600081146101f0576040519150601f19603f3d011682016040523d82523d6000602084013e6101f5565b606091505b5091509150811561021957604051638bb0a34b60e01b815260040160405180910390fd5b600061022482613897565b90506001600160e01b03198116636e64089360e11b1461024657815160208301fd5b81516003198101600484019081529261026791810160200190602401613908565b80519650602001945050505050f35b34801561028257600080fd5b506102966102913660046139c2565b610580565b005b3480156102a457600080fd5b506102966102b33660046139f4565b6105ad565b3480156102c457600080fd5b506102d86102d3366004613a21565b6105d6565b604080519283526020830191909152015b60405180910390f35b3480156102fe57600080fd5b5061029661030d366004613abd565b61060b565b34801561031e57600080fd5b5061029661032d366004613b52565b61063d565b34801561033e57600080fd5b506103667f000000000000000000000000000000000000000000000000000000000000000081565b6040516001600160a01b0390911681526020016102e9565b34801561038a57600080fd5b5061039e610399366004613b9a565b61066d565b6040519081526020016102e9565b3480156103b857600080fd5b5061039e7f65619c8664d6db8aae8c236ad19598696159942a4245b23b45565cc18e97367381565b3480156103ec57600080fd5b5061039e7f000000000000000000000000000000000000000000000000000000000000000081565b34801561042057600080fd5b5061039e61042f366004613bf4565b6106a1565b34801561044057600080fd5b5061029661032d366004613c31565b34801561045b57600080fd5b5061029661046a366004613c7b565b6106d2565b61039e61047d366004613a21565b610700565b34801561048e57600080fd5b5061029661049d366004613ca7565b610733565b61039e610399366004613b9a565b3480156104bc57600080fd5b506102966104cb366004613d25565b61087d565b3480156104dc57600080fd5b506102966102b33660046139c2565b6102d86104f9366004613b9a565b6108ac565b6102d861050c366004613b9a565b6108c8565b34801561051d57600080fd5b5061029661052c366004613d5d565b6108d7565b34801561053d57600080fd5b506103667f000000000000000000000000000000000000000000000000000000000000000081565b34801561057157600080fd5b50610296610291366004613dbc565b6105a97f0000000000000000000000000000000000000000000000000000000000000000610908565b5050565b6105a97f0000000000000000000000000000000000000000000000000000000000000000610908565b6000806106027f0000000000000000000000000000000000000000000000000000000000000000610908565b50935093915050565b6106347f0000000000000000000000000000000000000000000000000000000000000000610908565b50505050505050565b6106667f0000000000000000000000000000000000000000000000000000000000000000610908565b5050505050565b60006106987f0000000000000000000000000000000000000000000000000000000000000000610908565b50949350505050565b60006106cc7f0000000000000000000000000000000000000000000000000000000000000000610908565b50919050565b6106fb7f0000000000000000000000000000000000000000000000000000000000000000610908565b505050565b600061072b7f0000000000000000000000000000000000000000000000000000000000000000610908565b509392505050565b6040517f000000000000000000000000000000000000000000000000000000000000000060248201527f65619c8664d6db8aae8c236ad19598696159942a4245b23b45565cc18e97367360448201526001600160a01b038881166064830152878116608483015286151560a483015260c4820186905260ff851660e48301526101048201849052610124820183905260009182917f000000000000000000000000000000000000000000000000000000000000000016906101440160408051601f198184030181529181526020820180516001600160e01b03166314e5f07b60e01b179052516108239190613dd5565b600060405180830381855af49150503d806000811461085e576040519150601f19603f3d011682016040523d82523d6000602084013e610863565b606091505b50915091508161087557805160208201fd5b805160208201f35b6108a67f0000000000000000000000000000000000000000000000000000000000000000610908565b50505050565b6000806108bb86868686610928565b9150915094509492505050565b6000806108bb86868686610b7a565b6109007f0000000000000000000000000000000000000000000000000000000000000000610908565b505050505050565b6060600080836001600160a01b0316600036604051610823929190613887565b60008060005460011461096f5760405162461bcd60e51b815260206004820152600a6024820152695245454e5452414e435960b01b60448201526064015b60405180910390fd5b6002600055600554600160881b900460ff161561099f576040516313d0ff5960e31b815260040160405180910390fd5b6109a7610dcb565b6000806109b48886610dec565b909250905060006109c58383610f6e565b90507f0000000000000000000000000000000000000000000000000000000000000000811015610a085760405163211ddda360e11b815260040160405180910390fd5b86821015610a29576040516342af972b60e01b815260040160405180910390fd5b6000610a33610f8c565b9050610a3f8184610fc7565b506000806000610a4f87876113b6565b909a5091945092509050878c1115610a7a5760405163c972651760e01b815260040160405180910390fd5b8060096000828254610a8c9190613e07565b90915550610abc90507f000000000000000000000000000000000000000000000000000000000000000085613e07565b9850610acb838984898d611551565b6000610ad860018b6116d1565b9050610af181610aeb60208e018e6139c2565b8b611706565b8d8b8a83610b0260208401846139c2565b6001600160a01b03167f8daa42046d321d073674dbdf323d82d84f6020561cd24ffb2c3dd3e263cda6868f610b38878f886117ae565b60408051928352602083019190915281018e90526060810185905260800160405180910390a39a50505050505050505050506001600055909590945092505050565b600080600054600114610bbc5760405162461bcd60e51b815260206004820152600a6024820152695245454e5452414e435960b01b6044820152606401610966565b6002600055600554600160881b900460ff1615610bec576040516313d0ff5960e31b815260040160405180910390fd5b610bf4610dcb565b7f0000000000000000000000000000000000000000000000000000000000000000861015610c355760405163211ddda360e11b815260040160405180910390fd5b6000610c3f6117e0565b905084811015610c62576040516342af972b60e01b815260040160405180910390fd5b6000610c6c610f8c565b90506000610c7a8284610fc7565b90506000610ca87f000000000000000000000000000000000000000000000000000000000000000084613e07565b90506000806000610cba8d8887611873565b600980549296509294509250829190600090610cd7908490613e07565b92505081905550506000610cec82888c6119a4565b9050808c1015610d0f5760405163c972651760e01b815260040160405180910390fd5b610d19818b610dec565b5050610d278d8489876119cc565b6000610d346002866116d1565b90508d610d4e82610d4860208f018f6139c2565b83611706565b81610d5c60208e018e6139c2565b60408051898152602081018890529081018c9052606081018490526001600160a01b0391909116907f80aa5907299c704704d0d55e06e3c04e3b331a7c40d5a6b2b3031b0ea12fef959060800160405180910390a350506001600055929c929b50919950505050505050505050565b3415610dea57604051631574f9f360e01b815260040160405180910390fd5b565b600080610dff60408401602085016139f4565b15610f2557610e396001600160a01b037f000000000000000000000000000000000000000000000000000000000000000016333087611b72565b610e8d6001600160a01b037f0000000000000000000000000000000000000000000000000000000000000000167f000000000000000000000000000000000000000000000000000000000000000086611bf5565b604051636e553f6560e01b8152600481018590523060248201527f00000000000000000000000000000000000000000000000000000000000000006001600160a01b031690636e553f65906044016020604051808303816000875af1158015610efa573d6000803e3d6000fd5b505050506040513d601f19601f82011682018060405250810190610f1e9190613e1a565b9150610f5d565b839150610f5d6001600160a01b037f000000000000000000000000000000000000000000000000000000000000000016333085611b72565b610f656117e0565b90509250929050565b6000610f838383670de0b6b3a7640000611c6c565b90505b92915050565b6000610fb87f000000000000000000000000000000000000000000000000000000000000000042613e49565b610fc29042613e5d565b905090565b600082815260076020526040812080546001600160801b0316151580610fec57504284115b1561100257546001600160801b03169050610f86565b61100b83611c8a565b81546001600160801b0319166001600160801b0391821617825560025461108391600160801b90910416600760006110637f000000000000000000000000000000000000000000000000000000000000000089613e5d565b81526020810191909152604001600020546001600160801b031685611cb4565b60006007816110b27f000000000000000000000000000000000000000000000000000000000000000088613e5d565b815260208101919091526040016000908120546001600160801b031691506110db6002876116d1565b6000818152600c602052604081205491925081156111c257600080611103848a886000611dc3565b9150915080600960008282546111199190613e07565b9091555061112d905084600084808e611e91565b6000611139858b612003565b90506111698582898d8e7f0000000000000000000000000000000000000000000000000000000000000000612018565b925061117483611c8a565b60028054601090611196908490600160801b90046001600160801b0316613e70565b92506101000a8154816001600160801b0302191690836001600160801b03160217905550600193505050505b60006111cf60018a6116d1565b6000818152600c60205260409020549091508015611279576000806111f7838c8a6001611dc3565b91509150806009600082825461120d9190613e07565b909155508c9050611222846000858085612069565b61122b83611c8a565b6002805460109061124d908490600160801b90046001600160801b0316613e70565b92506101000a8154816001600160801b0302191690836001600160801b03160217905550600195505050505b821561129c5761129361128c8583613e97565b600061223e565b61129c896122ec565b6000808a116112ac5760006112c7565b6112c78a6112c16112bc8d6123d3565b612535565b90610f6e565b600654600c6020527fe33c7a20958276ce9529c827d1e1b38c61245a6a2cb39f13852cf96fd6f7333d5460008080527f13649b2456f1b42fef0f0040b3aaeabcd21a76a0f3f5defd4f583839455116e854939450926001600160801b03909216916113329190613e07565b61133c9190613e5d565b905060008115611355576113508383612003565b611358565b60005b604080518e8152602081018a9052908101869052606081018290529091508d907f5012836090f6cac0f5b321be3188c3cd9c82c8252a23afea128ea014a6fd15519060800160405180910390a250999b9a5050505050505050505050565b6000806000806114236113c7612593565b600154600160801b90046001600160801b0316887f0000000000000000000000000000000000000000000000000000000000000000897f00000000000000000000000000000000000000000000000000000000000000006125b4565b9250600061148c611432612593565b600154600160801b90046001600160801b03167f00000000000000000000000000000000000000000000000000000000000000007f00000000000000000000000000000000000000000000000000000000000000006125e0565b90506114e387856114de847f00000000000000000000000000000000000000000000000000000000000000007f0000000000000000000000000000000000000000000000000000000000000000612600565b61266b565b156115015760405163512095c760e01b815260040160405180910390fd5b60008061150f89848a6126f4565b909250905061151e8287613e5d565b945061152a8186613e07565b955061153781848a611c6c565b9350611543848a613e5d565b965050505092959194509250565b600354600160801b90046001600160801b031661159f61159a8261157d85670de0b6b3a7640000613eb7565b600454600160801b90046001600160801b03169190896001612774565b611c8a565b600480546001600160801b03928316600160801b0292169190911790556115c586611c8a565b600180546000906115e09084906001600160801b0316613e70565b92506101000a8154816001600160801b0302191690836001600160801b0316021790555061160d84611c8a565b6001805460109061162f908490600160801b90046001600160801b0316613ece565b92506101000a8154816001600160801b0302191690836001600160801b0316021790555061165c85611c8a565b6116669082613e70565b600380546001600160801b03808416600160801b0291161790559050600061168d836127f8565b90506116a28161169d8882613eee565b61223e565b6116ab84612840565b6116c85760405163bb55fd2760e01b815260040160405180910390fd5b610634846122ec565b60006001600160f81b038211156116fb5760405163b7d0949760e01b815260040160405180910390fd5b5060f89190911b1790565b6000838152600b602090815260408083206001600160a01b038616845290915281208054839290611738908490613e07565b90915550506000838152600c60205260408120805483929061175b908490613e07565b909155505060408051848152602081018390526001600160a01b0384169160009133917fc3d58168c5ae7397731d063d5bbf3d657854427343f4c083240f7aacaa2d0f62910160405180910390a4505050565b60006117c060408301602084016139f4565b156117cc5750826117d9565b6117d68484610f6e565b90505b9392505050565b6040516303d1689d60e11b8152670de0b6b3a764000060048201526000907f00000000000000000000000000000000000000000000000000000000000000006001600160a01b0316906307a2d13a90602401602060405180830381865afa15801561184f573d6000803e3d6000fd5b505050506040513d601f19601f82011682018060405250810190610fc29190613e1a565b60008060006118df611883612593565b600154600160801b90046001600160801b0316887f0000000000000000000000000000000000000000000000000000000000000000897f000000000000000000000000000000000000000000000000000000000000000061289e565b9150856118ec8387610f6e565b111561190b5760405163512095c760e01b815260040160405180910390fd5b600080600061191b611432612593565b905061193189670de0b6b3a7640000838b6128bf565b5091945090925061194490508284613e5d565b61194e9086613e5d565b9450611994886112c18b611962868a613e5d565b8b61196d8e826129cd565b8e7f0000000000000000000000000000000000000000000000000000000000000000612018565b9550909250505093509350939050565b60006119b660408301602084016139f4565b156119c25750826117d9565b6117d68484612003565b600454611a089061159a906001600160801b03166119f284670de0b6b3a7640000613eb7565b6005546001600160801b03169190886001612774565b600580546001600160801b0319166001600160801b03929092169190911790556000611a3384611c8a565b600154611a4991906001600160801b0316613ece565b600180546001600160801b0319166001600160801b0383161790559050611a6f85611c8a565b60018054601090611a91908490600160801b90046001600160801b0316613e70565b92506101000a8154816001600160801b0302191690836001600160801b03160217905550611abe85611c8a565b60048054600090611ad99084906001600160801b0316613e70565b82546101009290920a6001600160801b03818102199093169183160217909155600254600154600f9190910b911612159050611b285760405163585fe6df60e11b815260040160405180910390fd5b6000611b33836127f8565b9050611b438161169d8882613e97565b611b4c84612840565b611b695760405163bb55fd2760e01b815260040160405180910390fd5b610900846122ec565b60006040516323b872dd60e01b81528460048201528360248201528260448201526020600060648360008a5af13d15601f3d11600160005114161716915050806106665760405162461bcd60e51b81526020600482015260146024820152731514905394d1915497d19493d357d1905253115160621b6044820152606401610966565b600060405163095ea7b360e01b8152836004820152826024820152602060006044836000895af13d15601f3d11600160005114161716915050806108a65760405162461bcd60e51b815260206004820152600e60248201526d1054141493d59157d1905253115160921b6044820152606401610966565b6000826000190484118302158202611c8357600080fd5b5091020490565b6000600160801b8210611cb057604051630f0af95160e11b815260040160405180910390fd5b5090565b8181118015611cc35750600082115b156106fb576000611cdf611cd78484613e5d565b859084611c6c565b9050611cea81611c8a565b60028054601090611d0c908490600160801b90046001600160801b0316613ece565b92506101000a8154816001600160801b0302191690836001600160801b03160217905550611d3981611c8a565b60018054600090611d549084906001600160801b0316613e70565b92506101000a8154816001600160801b0302191690836001600160801b03160217905550611d8181611c8a565b60028054600090611d96908490600f0b613f16565b92506101000a8154816001600160801b030219169083600f0b6001600160801b0316021790555050505050565b600080611dd08686612003565b91506000611dfe837f0000000000000000000000000000000000000000000000000000000000000000610f6e565b9050611e2a817f0000000000000000000000000000000000000000000000000000000000000000610f6e565b91508315611e4d57611e3c8282613e5d565b611e469084613e5d565b9250611e64565b611e578282613e5d565b611e619084613e07565b92505b84861015611e8757611e77838787611c6c565b9250611e84828787611c6c565b91505b5094509492505050565b6004546001600160801b0316611ecc61159a82611eb685670de0b6b3a7640000613eb7565b6005546001600160801b031691908a6000612774565b600580546001600160801b0319166001600160801b0392909216919091179055611ef586611c8a565b611eff9082613ece565b600480546001600160801b0319166001600160801b0392909216919091179055611f2884611c8a565b60018054600090611f439084906001600160801b0316613e70565b92506101000a8154816001600160801b0302191690836001600160801b03160217905550611f70836129e3565b60028054600090611f85908490600f0b613f16565b92506101000a8154816001600160801b030219169083600f0b6001600160801b03160217905550611fb585611c8a565b60018054601090611fd7908490600160801b90046001600160801b0316613ece565b92506101000a8154816001600160801b0302191690836001600160801b03160217905550505050505050565b6000610f8383670de0b6b3a764000084611c6c565b6000806120308461202a8a888a611c6c565b90612003565b905061203d888486611c6c565b6120479082613e07565b90508681111561205e5761205b8782613e5d565b91505b509695505050505050565b600354600160801b90046001600160801b03166120b261159a8261209585670de0b6b3a7640000613eb7565b600454600160801b90046001600160801b031691908a6000612774565b600480546001600160801b03928316600160801b0292169190911790556120d886611c8a565b6120e29082613ece565b600380546001600160801b03928316600160801b0292169190911790555061210983611c8a565b600180546000906121249084906001600160801b0316613ece565b92506101000a8154816001600160801b0302191690836001600160801b03160217905550612151826129e3565b60028054600090612166908490600f0b613f43565b92506101000a8154816001600160801b030219169083600f0b6001600160801b0316021790555061219684611c8a565b600180546010906121b8908490600160801b90046001600160801b0316613e70565b82546101009290920a6001600160801b038181021990931691831602179091556001547f00000000000000000000000000000000000000000000000000000000000000009116109050806122205750600254600154600f9190910b6001600160801b03909116125b156106665760405163585fe6df60e11b815260040160405180910390fd5b600061226761224d8483612a21565b612258846000612a21565b6122629190613e97565b6129e3565b9050600081600f0b13156122bc57600380548291906000906122939084906001600160801b0316613e70565b92506101000a8154816001600160801b0302191690836001600160801b03160217905550505050565b600081600f0b12156106fb576122d181613f70565b600380546000906122939084906001600160801b0316613ece565b600c6020527f13649b2456f1b42fef0f0040b3aaeabcd21a76a0f3f5defd4f583839455116e854600654600360f81b60009081527fe33c7a20958276ce9529c827d1e1b38c61245a6a2cb39f13852cf96fd6f7333d549091612359916001600160801b0390911690613e5d565b905060006123678284613e07565b905060006123776112bc866123d3565b90506000612386858385611c6c565b905060008061239488612a30565b9050828111156123ab576123a88382613e5d565b91505b60008211806123b8575083155b156123c9576123c982858789612acc565b5050505050505050565b61243060405180610160016040528060008152602001600081526020016000815260200160008152602001600081526020016000815260200160008152602001600081526020016000815260200160008152602001600081525090565b60408051610160810182526001546001600160801b038082168352600254600f0b6020840152600160801b91829004811693830193909352606082018590527f000000000000000000000000000000000000000000000000000000000000000060808301527f000000000000000000000000000000000000000000000000000000000000000060a08301527f000000000000000000000000000000000000000000000000000000000000000060c0830152600354819004831660e0830152600454919261010084019261250592900416612bba565b81526004546001600160801b03908116602083015260055460409092019161252d9116612bba565b905292915050565b6000808260a0015161254684612c30565b61254f85612c97565b855161255b9190613eee565b6125659190613eee565b61256f9190613e97565b90506000811215610f865760405163aeeb825d60e01b815260040160405180910390fd5b600154600254600091610fc2916001600160801b0390911690600f0b612e71565b60006125d58787876125ce88670de0b6b3a7640000613e5d565b8787612e8e565b979650505050505050565b60006125f7826125f1858888611c6c565b90612f36565b95945050505050565b60006117d661264761261a84670de0b6b3a7640000613e5d565b612641670de0b6b3a7640000612630818a612f8d565b61263a9190613e5d565b8790612fa2565b90612fa2565b61265990670de0b6b3a7640000613e07565b61202a84670de0b6b3a7640000613e5d565b6000806126e98561267a612593565b6126849190613e07565b6001546126a2908790600160801b90046001600160801b0316613e5d565b7f00000000000000000000000000000000000000000000000000000000000000007f00000000000000000000000000000000000000000000000000000000000000006125e0565b909210949350505050565b60008061273e856112c185817f0000000000000000000000000000000000000000000000000000000000000000670de0b6b3a7640000612734818c612003565b6112c19190613e5d565b915061276a827f0000000000000000000000000000000000000000000000000000000000000000610f6e565b9050935093915050565b600081156127b4576127ad6127898487613e07565b6127938587610f6e565b61279d888a610f6e565b6127a79190613e07565b90612f8d565b90506125f7565b8285036127c3575060006125f7565b6127ee6127d08487613e5d565b6127da8587610f6e565b6127e4888a610f6e565b6127a79190613e5d565b9695505050505050565b6000600c60006128096002856116d1565b815260200190815260200160002054600c60006128276001866116d1565b815260200190815260200160002054610f869190613e97565b600061286c7f000000000000000000000000000000000000000000000000000000000000000083610f6e565b6003546001546001600160801b03918216600f0b9161288c911685610f6e565b6128969190613e97565b121592915050565b60006125d58787876128b888670de0b6b3a7640000613e5d565b8787612fb7565b600080808061291087866129098b6112c16128e28c670de0b6b3a7640000613e5d565b7f000000000000000000000000000000000000000000000000000000000000000090610f6e565b9190611c6c565b935061293c847f0000000000000000000000000000000000000000000000000000000000000000610f6e565b9150600061295d61295589670de0b6b3a7640000613e5d565b8a9088611c6c565b9050612989817f0000000000000000000000000000000000000000000000000000000000000000610f6e565b93506129b5847f0000000000000000000000000000000000000000000000000000000000000000610f6e565b6129bf9084613e07565b915050945094509450949050565b60008183116129dc5781610f83565b5090919050565b600060016001607f1b03198212801590612a04575060016001607f1b038213155b611cb05760405163a5353be560e01b815260040160405180910390fd5b60008183136129dc5781610f83565b6003546000908190612a4b906001600160801b031684612003565b9050612a777f000000000000000000000000000000000000000000000000000000000000000082613e07565b6001546001600160801b031611156106cc576001547f000000000000000000000000000000000000000000000000000000000000000090612ac29083906001600160801b0316613e5d565b6117d99190613e5d565b6000808411612adb5782612ae6565b612ae6838686611c6c565b905080600003612af657506108a6565b808583821115612b1157839150612b0e878385611c6c565b90505b612b1a82611c8a565b60068054600090612b359084906001600160801b0316613e70565b92506101000a8154816001600160801b0302191690836001600160801b03160217905550612b6281611c8a565b60068054601090612b84908490600160801b90046001600160801b0316613e70565b92506101000a8154816001600160801b0302191690836001600160801b0316021790555061063481612bb590613f96565b612feb565b600080670de0b6b3a7640000612bce610f8c565b612bd89190613eb7565b9050808311612be8576000612bf2565b612bf28184613e5d565b91506117d9612c29670de0b6b3a76400007f0000000000000000000000000000000000000000000000000000000000000000613eb7565b8390612003565b6000612c5f826101000151670de0b6b3a7640000612c4e9190613e5d565b606084015160e08501519190611c6c565b612c8d836101400151670de0b6b3a7640000612c7b9190613e5d565b60608501516101208601519190611c6c565b610f869190613e97565b600080612cb7836101400151846101200151610f6e90919063ffffffff16565b61010084015160e0850151612ccb91610f6e565b612cd59190613e97565b90506000612ceb84600001518560200151612e71565b90506000821315612d915760008290506000612d328387604001518860a001518960c00151670de0b6b3a7640000612d239190613e5d565b8a606001518b6080015161316d565b9050818110612d79576000612d6e848860400151858a60c00151670de0b6b3a7640000612d5f9190613e5d565b8b606001518c60800151612fb7565b90506125d581613f96565b60a0860151612d889084613e5d565b6127ee90613f96565b6000821215612e67576000612da583613f96565b90506000612dd98387604001518860c00151670de0b6b3a7640000612dca9190613e5d565b89606001518a608001516131f3565b9050818110612e155760006125d5848860400151858a60c00151670de0b6b3a7640000612e069190613e5d565b8b606001518c60800151613289565b6000612e478488604001518960c00151670de0b6b3a7640000612e389190613e5d565b8a606001518b6080015161331e565b9050612e5d8760600151838561202a9190613e5d565b6125d59082613e07565b5060009392505050565b600080612e7e8385613e97565b90506000811215610f8357600080fd5b600080612e9e88888787876133ad565b9050612eb8856125f1612eb1898c613e07565b8690610f6e565b9750612ec5848985611c6c565b97506000612ed38983613e5d565b9050670de0b6b3a76400008110612f0757612f00612ef9670de0b6b3a764000088612f8d565b8290612f36565b9050612f1f565b612f1c612ef9670de0b6b3a764000088612003565b90505b612f298189613e5d565b9998505050505050505050565b600081600003612f4f5750670de0b6b3a7640000610f86565b82600003612f5f57506000610f86565b816000612f6b856133dc565b9050818102612f82670de0b6b3a764000082613fb2565b90506127ee816135ef565b6000610f8383670de0b6b3a76400008461377a565b6000610f838383670de0b6b3a764000061377a565b600080612fc88888888888886137a0565b90925090508061205e57604051637ac17d2560e01b815260040160405180910390fd5b80600003612ff65750565b6001546001600160801b03167f00000000000000000000000000000000000000000000000000000000000000008110156130435760405163585fe6df60e11b815260040160405180910390fd5b600061304f8383613eee565b90507f00000000000000000000000000000000000000000000000000000000000000008112156130925760405163585fe6df60e11b815260040160405180910390fd5b61309b81611c8a565b600180546001600160801b0319166001600160801b0392909216919091179055600254600090600f0b8181126130dd576130d6838286611c6c565b91506130fd565b6130f16130e982613f96565b849086611c6c565b6130fa90613f96565b91505b613106826129e3565b600280546001600160801b0319166001600160801b039283161790556001546131499161159a91600160801b90041661313f8785612e71565b6129098787612e71565b600180546001600160801b03928316600160801b0292169190911790555050505050565b60008061317d8888878787613862565b9050600061319a613192876125f1878b612fa2565b86908661377a565b6131a49083613e5d565b9050670de0b6b3a764000081106131d1576131ca612ef9670de0b6b3a764000088612003565b90506131e9565b6131e6612ef9670de0b6b3a764000088612f8d565b90505b612f298882613e5d565b60008061320387878787876133ad565b9050600061322e670de0b6b3a764000061321d8787612003565b6132279190613e07565b8390612f8d565b9050670de0b6b3a7640000811061325b57613254612ef9670de0b6b3a764000088612f8d565b9050613273565b613270612ef9670de0b6b3a764000088612003565b90505b61327d8188613e5d565b98975050505050505050565b60008061329988888787876133ad565b90506132a9856125f1888a613e5d565b965060006132c384866132bc8b86613e5d565b919061377a565b9050670de0b6b3a764000081106132f0576132e9612ef9670de0b6b3a764000088612f8d565b9050613308565b613305612ef9670de0b6b3a764000088612003565b90505b6133128185612f8d565b9050612f298982613e5d565b60008061332e8787878787613862565b90506000613352670de0b6b3a76400006133488787612f8d565b612c299190613e07565b9050670de0b6b3a7640000811061337f57613378612ef9670de0b6b3a764000088612003565b9050613397565b613394612ef9670de0b6b3a764000088612f8d565b90505b6133a18185612003565b905061327d8882613e5d565b60006133b98585612f36565b6133d26133ca866125f1868b612fa2565b85908561377a565b6127ee9190613e07565b60008082136133fe57604051636838feed60e11b815260040160405180910390fd5b5060606001600160801b03821160071b82811c67ffffffffffffffff1060061b1782811c63ffffffff1060051b1782811c61ffff1060041b1782811c60ff10600390811b90911783811c600f1060021b1783811c909110600190811b90911783811c90911017609f81810383019390931b90921c6c465772b2bbbb5f824b15207a3081018102821d6d0388eaa27412d5aca026815d636e018102821d6d0df99ac502031bf953eff472fdcc018102821d6d13cdffb29d51d99322bdff5f2211018102821d6d0a0f742023def783a307a986912e018102821d6d01920d8043ca89b5239253284e42018102821d6c0b7a86d7375468fac667a0a527016c29508e458543d8aa4df2abee7882018202831d6d0139601a2efabe717e604cbb4894018202831d6d02247f7a7b6594320649aa03aba1018202831d6c8c3f38e95a6b1ff2ab1c3b343619018202831d6d02384773bdf1ac5676facced60901901820290921d6cb9a025d814b29c212b8b1a07cd190102780a09507084cc699bb0e71ea869ffffffffffffffffffffffff190105711340daa0d5f769dba1915cef59f0815a550602605f19919091017d0267a36c0c95b3975ab3ee5b203a7614a3f75373f047d803ae7b6687f2b302017d57115e47018c7177eebf7cd370a3356a1b7863008a5ae8028c72b88642840160ae1d90565b6000680248ce36a70cb26b3e19821361360a57506000919050565b680755bf798b4a1bf1e582126136335760405163df92cc9d60e01b815260040160405180910390fd5b6503782dace9d9604e83901b059150600060606bb17217f7d1cf79abc9e3b39884821b056001605f1b01901d6bb17217f7d1cf79abc9e3b39881029093036c240c330e9fb2d9cbaf0fd5aafb1981018102606090811d6d0277594991cfc85f6e2461837cd9018202811d6d1a521255e34f6a5061b25ef1c9c319018202811d6db1bbb201f443cf962f1a1d3db4a5018202811d6e02c72388d9f74f51a9331fed693f1419018202811d6e05180bb14799ab47a8a8cb2a527d57016d02d16720577bd19bf614176fe9ea6c10fe68e7fd37d0007b713f765084018402831d9081019084016d01d3967ed30fc4f89c02bab5708119010290911d6e0587f503bb6ea29d25fcb740196450019091026d360d7aeea093263ecc6e0ecb291760621b010574029d9dc38563c32e5c2f6dc192ee70ef65f9978af30260c3939093039290921c92915050565b600082600019048411830215820261379157600080fd5b50910281810615159190040190565b60008060006137b289898888886133ad565b90506137c2866125f1898b613e07565b9750878110156137d9576000809250925050613857565b60006137ea85876132bc8c86613e5d565b9050670de0b6b3a7640000811061381757613810612ef9670de0b6b3a764000089612f8d565b905061382f565b61382c612ef9670de0b6b3a764000089612003565b90505b6138398186612f8d565b9050808a11156138505761384d818b613e5d565b93505b6001925050505b965096945050505050565b600061386e8585612f36565b6133d261387f866125f1868b610f6e565b859085611c6c565b8183823760009101908152919050565b805160208201516001600160e01b031980821692919060048310156138c65780818460040360031b1b83161693505b505050919050565b634e487b7160e01b600052604160045260246000fd5b60005b838110156138ff5781810151838201526020016138e7565b50506000910152565b60006020828403121561391a57600080fd5b815167ffffffffffffffff8082111561393257600080fd5b818401915084601f83011261394657600080fd5b815181811115613958576139586138ce565b604051601f8201601f19908116603f01168101908382118183101715613980576139806138ce565b8160405282815287602084870101111561399957600080fd5b6125d58360208301602088016138e4565b6001600160a01b03811681146139bf57600080fd5b50565b6000602082840312156139d457600080fd5b8135610f83816139aa565b803580151581146139ef57600080fd5b919050565b600060208284031215613a0657600080fd5b610f83826139df565b6000606082840312156106cc57600080fd5b600080600060608486031215613a3657600080fd5b8335925060208401359150604084013567ffffffffffffffff811115613a5b57600080fd5b613a6786828701613a0f565b9150509250925092565b60008083601f840112613a8357600080fd5b50813567ffffffffffffffff811115613a9b57600080fd5b6020830191508360208260051b8501011115613ab657600080fd5b9250929050565b60008060008060008060808789031215613ad657600080fd5b8635613ae1816139aa565b95506020870135613af1816139aa565b9450604087013567ffffffffffffffff80821115613b0e57600080fd5b613b1a8a838b01613a71565b90965094506060890135915080821115613b3357600080fd5b50613b4089828a01613a71565b979a9699509497509295939492505050565b60008060008060808587031215613b6857600080fd5b843593506020850135613b7a816139aa565b92506040850135613b8a816139aa565b9396929550929360600135925050565b60008060008060808587031215613bb057600080fd5b843593506020850135925060408501359150606085013567ffffffffffffffff811115613bdc57600080fd5b613be887828801613a0f565b91505092959194509250565b600060208284031215613c0657600080fd5b813567ffffffffffffffff811115613c1d57600080fd5b613c2984828501613a0f565b949350505050565b60008060008060808587031215613c4757600080fd5b843593506020850135613c59816139aa565b9250604085013591506060850135613c70816139aa565b939692955090935050565b60008060408385031215613c8e57600080fd5b8235613c99816139aa565b9150610f65602084016139df565b600080600080600080600060e0888a031215613cc257600080fd5b8735613ccd816139aa565b96506020880135613cdd816139aa565b9550613ceb604089016139df565b945060608801359350608088013560ff81168114613d0857600080fd5b9699959850939692959460a0840135945060c09093013592915050565b600080600060608486031215613d3a57600080fd5b833592506020840135613d4c816139aa565b929592945050506040919091013590565b600080600080600060a08688031215613d7557600080fd5b853594506020860135613d87816139aa565b93506040860135613d97816139aa565b9250606086013591506080860135613dae816139aa565b809150509295509295909350565b600060208284031215613dce57600080fd5b5035919050565b60008251613de78184602087016138e4565b9190910192915050565b634e487b7160e01b600052601160045260246000fd5b80820180821115610f8657610f86613df1565b600060208284031215613e2c57600080fd5b5051919050565b634e487b7160e01b600052601260045260246000fd5b600082613e5857613e58613e33565b500690565b81810381811115610f8657610f86613df1565b6001600160801b03818116838216019080821115613e9057613e90613df1565b5092915050565b8181036000831280158383131683831282161715613e9057613e90613df1565b8082028115828204841417610f8657610f86613df1565b6001600160801b03828116828216039080821115613e9057613e90613df1565b8082018281126000831280158216821582161715613f0e57613f0e613df1565b505092915050565b600f81810b9083900b0160016001607f1b03811360016001607f1b031982121715610f8657610f86613df1565b600f82810b9082900b0360016001607f1b0319811260016001607f1b0382131715610f8657610f86613df1565b600081600f0b60016001607f1b03198103613f8d57613f8d613df1565b60000392915050565b6000600160ff1b8201613fab57613fab613df1565b5060000390565b600082613fc157613fc1613e33565b600160ff1b821460001984141615613fdb57613fdb613df1565b50059056fea264697066735822122061ad9a80ab58c9879c6d3c902394c934131a4492a5430a6e8305b4a9e2c201d864736f6c63430008130033a2646970667358221220e5c03cc7ea1c3f3069e14a8f470be03aaa87a1b5ca8ad92d3cb1881b1ff036da64736f6c63430008130033","linkReferences":{}},"methodIdentifiers":{"deploy((address,address,bytes32,uint256,uint256,uint256,uint256,uint256,uint256,address,address,(uint256,uint256,uint256)),bytes,address,address)":"99bb2e7b"},"id":6}