{"abi":[{"type":"function","name":"deploy","inputs":[{"name":"_config","type":"tuple","internalType":"struct IHyperdrive.PoolConfig","components":[{"name":"baseToken","type":"address","internalType":"contract IERC20"},{"name":"linkerFactory","type":"address","internalType":"address"},{"name":"linkerCodeHash","type":"bytes32","internalType":"bytes32"},{"name":"initialVaultSharePrice","type":"uint256","internalType":"uint256"},{"name":"minimumShareReserves","type":"uint256","internalType":"uint256"},{"name":"minimumTransactionAmount","type":"uint256","internalType":"uint256"},{"name":"positionDuration","type":"uint256","internalType":"uint256"},{"name":"checkpointDuration","type":"uint256","internalType":"uint256"},{"name":"timeStretch","type":"uint256","internalType":"uint256"},{"name":"governance","type":"address","internalType":"address"},{"name":"feeCollector","type":"address","internalType":"address"},{"name":"fees","type":"tuple","internalType":"struct IHyperdrive.Fees","components":[{"name":"curve","type":"uint256","internalType":"uint256"},{"name":"flat","type":"uint256","internalType":"uint256"},{"name":"governanceLP","type":"uint256","internalType":"uint256"},{"name":"governanceZombie","type":"uint256","internalType":"uint256"}]}]},{"name":"_extraData","type":"bytes","internalType":"bytes"}],"outputs":[{"name":"","type":"address","internalType":"address"}],"stateMutability":"nonpayable"}],"bytecode":{"object":"0x608060405234801561001057600080fd5b506152d0806100206000396000f3fe608060405234801561001057600080fd5b506004361061002b5760003560e01c80635fd69b0514610030575b600080fd5b61004361003e36600461021f565b61005f565b6040516001600160a01b03909116815260200160405180910390f35b60008082806020019051810190610076919061031a565b90508381604051610086906100b6565b61009192919061033e565b604051809103906000f0801580156100ad573d6000803e3d6000fd5b50949350505050565b614e6e806200042d83390190565b634e487b7160e01b600052604160045260246000fd5b604051610180810167ffffffffffffffff811182821017156100fe576100fe6100c4565b60405290565b6001600160a01b038116811461011957600080fd5b50565b803561012781610104565b919050565b60006080828403121561013e57600080fd5b6040516080810181811067ffffffffffffffff82111715610161576101616100c4565b8060405250809150823581526020830135602082015260408301356040820152606083013560608201525092915050565b600082601f8301126101a357600080fd5b813567ffffffffffffffff808211156101be576101be6100c4565b604051601f8301601f19908116603f011681019082821181831017156101e6576101e66100c4565b816040528381528660208588010111156101ff57600080fd5b836020870160208301376000602085830101528094505050505092915050565b60008082840361020081121561023457600080fd5b6101e08082121561024457600080fd5b61024c6100da565b91506102578561011c565b82526102656020860161011c565b602083015260408501356040830152606085013560608301526080850135608083015260a085013560a083015260c085013560c083015260e085013560e08301526101008086013581840152506101206102c081870161011c565b908301526101406102d286820161011c565b908301526101606102e58787830161012c565b9083015290925083013567ffffffffffffffff81111561030457600080fd5b61031085828601610192565b9150509250929050565b60006020828403121561032c57600080fd5b815161033781610104565b9392505050565b82516001600160a01b031681526102008101602084015161036a60208401826001600160a01b03169052565b5060408401516040830152606084015160608301526080840151608083015260a084015160a083015260c084015160c083015260e084015160e0830152610100808501518184015250610120808501516103ce828501826001600160a01b03169052565b5050610140848101516001600160a01b03811684830152505061016084810151805184830152602081015161018085015260408101516101a085015260608101516101c085015250506001600160a01b0383166101e083015261033756fe61026060405260016000553480156200001757600080fd5b5060405162004e6e38038062004e6e8339810160408190526200003a91620002ec565b81516001600160a01b031660809081528201518190839081906103e8111562000076576040516349db44f560e01b815260040160405180910390fd5b60808101516101a05260a08101516101c05260e0810151600003620000ae57604051635428734d60e01b815260040160405180910390fd5b60e08101805160a0525160c08201511080620000de57508060e001518160c00151620000db9190620003e0565b15155b15620000fd5760405163253fffcf60e11b815260040160405180910390fd5b60c081810151905261010081015160e052606081015161018052610120810151600880546001600160a01b0319166001600160a01b03928316179055610140820151166101e05261016081015151670de0b6b3a76400001080620001715750670de0b6b3a764000081610160015160200151115b806200018d5750670de0b6b3a764000081610160015160400151115b80620001a95750670de0b6b3a764000081610160015160600151115b15620001c8576040516322f72cc360e11b815260040160405180910390fd5b61016080820180515161010052805160209081015161012052815160409081015161014052915160600151909252908201516001600160a01b03908116610200529101516102205291909116610240525062000403915050565b60405161018081016001600160401b03811182821017156200025457634e487b7160e01b600052604160045260246000fd5b60405290565b80516001600160a01b03811681146200027257600080fd5b919050565b6000608082840312156200028a57600080fd5b604051608081016001600160401b0381118282101715620002bb57634e487b7160e01b600052604160045260246000fd5b8060405250809150825181526020830151602082015260408301516040820152606083015160608201525092915050565b6000808284036102008112156200030257600080fd5b6101e0808212156200031357600080fd5b6200031d62000222565b91506200032a856200025a565b82526200033a602086016200025a565b602083015260408501516040830152606085015160608301526080850151608083015260a085015160a083015260c085015160c083015260e085015160e0830152610100808601518184015250610120620003978187016200025a565b90830152610140620003ab8682016200025a565b90830152610160620003c08787830162000277565b8184015250819350620003d58186016200025a565b925050509250929050565b600082620003fe57634e487b7160e01b600052601260045260246000fd5b500690565b60805160a05160c05160e05161010051610120516101405161016051610180516101a0516101c0516101e0516102005161022051610240516148da62000594600039600081816105d401528181610615015281816106a10152610f300152600050506000505060005050600081816101370152610362015260008181611123015281816118c50152818161192a01528181612047015281816122cf0152818161230b015281816124ef0152612621015260008181610b4801528181610b9001528181610feb01528181611e5501526125fb015260006114e201526000818161160801528181611f120152818161212d01526121a601526000818161085b015281816108a001528181610c0301528181611091015281816115dc015261217a015260008181610be201528181611ece01526120f9015260008181610b2601528181610bb101528181610fc901528181611e760152612647015260008181610205015281816103ef015281816107a8015261311e015260006106ff01526000818161057d01526105b201526148da6000f3fe6080604052600436106100295760003560e01c8063cba2e58d1461002e578063dbbe80701461005a575b600080fd5b61004161003c3660046145ff565b61006d565b6040805192835260208301919091520160405180910390f35b6100416100683660046145ff565b610089565b60008061007c86868686610098565b9150915094509492505050565b60008061007c868686866102e8565b6000806000546001146100df5760405162461bcd60e51b815260206004820152600a6024820152695245454e5452414e435960b01b60448201526064015b60405180910390fd5b6002600055600554610100900460ff161561010d576040516321081abf60e01b815260040160405180910390fd5b610115610537565b6000806101228886610558565b9092509050600061013383836106da565b90507f00000000000000000000000000000000000000000000000000000000000000008110156101765760405163211ddda360e11b815260040160405180910390fd5b86821015610197576040516342af972b60e01b815260040160405180910390fd5b60006101a16106f8565b90506101ad8184610733565b5060008060006101bd8787610aff565b909a5091945092509050878c11156101e85760405163c972651760e01b815260040160405180910390fd5b80600960008282546101fa9190614674565b9091555061022a90507f000000000000000000000000000000000000000000000000000000000000000085614674565b9850610239838984898d610c8b565b600061024660018b610e01565b905061025f8161025960208e018e614687565b8b610e36565b8d8b8a836102706020840184614687565b6001600160a01b03167f8daa42046d321d073674dbdf323d82d84f6020561cd24ffb2c3dd3e263cda6868f6102a6878f88610ede565b60408051928352602083019190915281018e90526060810185905260800160405180910390a39a50505050505050505050506001600055909590945092505050565b60008060005460011461032a5760405162461bcd60e51b815260206004820152600a6024820152695245454e5452414e435960b01b60448201526064016100d6565b6002600055600554610100900460ff1615610358576040516321081abf60e01b815260040160405180910390fd5b610360610537565b7f00000000000000000000000000000000000000000000000000000000000000008610156103a15760405163211ddda360e11b815260040160405180910390fd5b60006103ab610f10565b9050848110156103ce576040516342af972b60e01b815260040160405180910390fd5b60006103d86106f8565b905060006103e68284610733565b905060006104147f000000000000000000000000000000000000000000000000000000000000000084614674565b905060008060006104268d8887610fa3565b600980549296509294509250829190600090610443908490614674565b9250508190555050600061045882888c6110cb565b9050808c101561047b5760405163c972651760e01b815260040160405180910390fd5b610485818b610558565b50506104938d8489876110f3565b60006104a0600286610e01565b90508d6104ba826104b460208f018f614687565b83610e36565b816104c860208e018e614687565b60408051898152602081018890529081018c9052606081018490526001600160a01b0391909116907f80aa5907299c704704d0d55e06e3c04e3b331a7c40d5a6b2b3031b0ea12fef959060800160405180910390a350506001600055929c929b50919950505050505050505050565b341561055657604051631574f9f360e01b815260040160405180910390fd5b565b60008061056b60408401602085016146b0565b15610691576105a56001600160a01b037f0000000000000000000000000000000000000000000000000000000000000000163330876112d2565b6105f96001600160a01b037f0000000000000000000000000000000000000000000000000000000000000000167f00000000000000000000000000000000000000000000000000000000000000008661135c565b604051636e553f6560e01b8152600481018590523060248201527f00000000000000000000000000000000000000000000000000000000000000006001600160a01b031690636e553f65906044016020604051808303816000875af1158015610666573d6000803e3d6000fd5b505050506040513d601f19601f8201168201806040525081019061068a91906146d2565b91506106c9565b8391506106c96001600160a01b037f0000000000000000000000000000000000000000000000000000000000000000163330856112d2565b6106d1610f10565b90509250929050565b60006106ef8383670de0b6b3a76400006113d9565b90505b92915050565b60006107247f000000000000000000000000000000000000000000000000000000000000000042614701565b61072e9042614715565b905090565b600082815260076020526040812080546001600160801b031615158061075857504284115b1561076e57546001600160801b031690506106f2565b610777836113f7565b81546001600160801b0319166001600160801b039190911617815561079b83611421565b50600090506007816107cd7f000000000000000000000000000000000000000000000000000000000000000088614715565b815260208101919091526040016000908120546001600160801b031691506107f6600287610e01565b6000818152600c602052604081205491925081156109745760008061081e848a8860006115c5565b9150915080600960008282546108349190614674565b90915550610848905084600084808e611693565b6000610854858b61180d565b905061088a7f0000000000000000000000000000000000000000000000000000000000000000610884878d611822565b906106da565b6108949082614674565b90506108c48582898d8e7f0000000000000000000000000000000000000000000000000000000000000000611837565b92506108d86108d3848c6106da565b611888565b600580546002906108f99084906201000090046001600160701b0316614728565b92506101000a8154816001600160701b0302191690836001600160701b03160217905550610926836113f7565b60058054601090610948908490600160801b90046001600160801b0316614748565b92506101000a8154816001600160801b0302191690836001600160801b03160217905550600193505050505b600061098160018a610e01565b6000818152600c60205260409020549091508015610a7d576000806109a9838c8a60016115c5565b9150915080600960008282546109bf9190614674565b909155508c90506109d48460008580856118ae565b6109e16108d3848e6106da565b60058054600290610a029084906201000090046001600160701b0316614728565b92506101000a8154816001600160701b0302191690836001600160701b03160217905550610a2f836113f7565b60058054601090610a51908490600160801b90046001600160801b0316614748565b92506101000a8154816001600160801b0302191690836001600160801b03160217905550600195505050505b8215610aa057610a97610a908583614768565b6000611aa3565b610aa089611b56565b897f5012836090f6cac0f5b321be3188c3cd9c82c8252a23afea128ea014a6fd15518a8684610ace8e611c8c565b60408051948552602085019390935291830152606082015260800160405180910390a2509698975050505050505050565b600080600080610b6c610b10611d4a565b600154600160801b90046001600160801b0316887f0000000000000000000000000000000000000000000000000000000000000000897f0000000000000000000000000000000000000000000000000000000000000000611d6b565b92506000610bd5610b7b611d4a565b600154600160801b90046001600160801b03167f00000000000000000000000000000000000000000000000000000000000000007f0000000000000000000000000000000000000000000000000000000000000000611d97565b9050610c2c8785610c27847f00000000000000000000000000000000000000000000000000000000000000007f0000000000000000000000000000000000000000000000000000000000000000611db7565b611e1c565b15610c3b57610c3b6002611ea5565b600080610c4989848a611ec0565b9092509050610c588287614715565b9450610c648186614674565b9550610c7181848a6113d9565b9350610c7d848a614715565b965050505092959194509250565b600254600160801b90046001600160801b0316610cd2610ccd82610cb785670de0b6b3a7640000614788565b6004546001600160801b03169190896001611f40565b6113f7565b600480546001600160801b0319166001600160801b0392909216919091179055610cfb866113f7565b60018054600090610d169084906001600160801b0316614748565b92506101000a8154816001600160801b0302191690836001600160801b03160217905550610d43846113f7565b60018054601090610d65908490600160801b90046001600160801b031661479f565b92506101000a8154816001600160801b0302191690836001600160801b03160217905550610d92856113f7565b610d9c9082614748565b600280546001600160801b03808416600160801b02911617905590506000610dc383611ff8565b9050610dd881610dd388826147bf565b611aa3565b610de184612040565b610def57610def6003611ea5565b610df884611b56565b50505050505050565b60006001600160f81b03821115610e2b5760405163b7d0949760e01b815260040160405180910390fd5b5060f89190911b1790565b6000838152600b602090815260408083206001600160a01b038616845290915281208054839290610e68908490614674565b90915550506000838152600c602052604081208054839290610e8b908490614674565b909155505060408051848152602081018390526001600160a01b0384169160009133917fc3d58168c5ae7397731d063d5bbf3d657854427343f4c083240f7aacaa2d0f62910160405180910390a4505050565b6000610ef060408301602084016146b0565b15610efc575082610f09565b610f0684846106da565b90505b9392505050565b6040516303d1689d60e11b8152670de0b6b3a764000060048201526000907f00000000000000000000000000000000000000000000000000000000000000006001600160a01b0316906307a2d13a90602401602060405180830381865afa158015610f7f573d6000803e3d6000fd5b505050506040513d601f19601f8201168201806040525081019061072e91906146d2565b600080600061100f610fb3611d4a565b600154600160801b90046001600160801b0316887f0000000000000000000000000000000000000000000000000000000000000000897f000000000000000000000000000000000000000000000000000000000000000061209e565b91508561101c83876120bf565b111561102c5761102c6002611ea5565b600080600061103c610b7b611d4a565b905061105289670de0b6b3a7640000838b6120d4565b5091945090925061106590508284614715565b61106f9086614715565b94506110bb886110b58b611083868a614715565b8b61108e8e826121e2565b8e7f00000000000000000000000000000000000000000000000000000000000000006121f8565b906120bf565b9550909250505093509350939050565b60006110dd60408301602084016146b0565b156110e9575082610f09565b610f068484611822565b6001546001600160801b031683811015611111576111116003611ea5565b61111b8482614715565b6003549091507f000000000000000000000000000000000000000000000000000000000000000090611151908390600f0b61221d565b1015611161576111616001611ea5565b6003546111ab90610ccd90600160801b90046001600160801b031661118e85670de0b6b3a7640000614788565b600454600160801b90046001600160801b03169190896001611f40565b600480546001600160801b03928316600160801b0292169190911790556111d1816113f7565b600180546001600160801b0319166001600160801b03929092169190911790556111fa856113f7565b6001805460109061121c908490600160801b90046001600160801b0316614748565b92506101000a8154816001600160801b0302191690836001600160801b03160217905550611249856113f7565b6003805460109061126b908490600160801b90046001600160801b0316614748565b92506101000a8154816001600160801b0302191690836001600160801b03160217905550600061129a83611ff8565b90506112aa81610dd38882614768565b6112b384612040565b6112c1576112c16003611ea5565b6112ca84611b56565b505050505050565b60006040516323b872dd60e01b81528460048201528360248201528260448201526020600060648360008a5af13d15601f3d11600160005114161716915050806113555760405162461bcd60e51b81526020600482015260146024820152731514905394d1915497d19493d357d1905253115160621b60448201526064016100d6565b5050505050565b600060405163095ea7b360e01b8152836004820152826024820152602060006044836000895af13d15601f3d11600160005114161716915050806113d35760405162461bcd60e51b815260206004820152600e60248201526d1054141493d59157d1905253115160921b60448201526064016100d6565b50505050565b60008260001904841183021582026113f057600080fd5b5091020490565b6000600160801b821061141d57604051630f0af95160e11b815260040160405180910390fd5b5090565b6005546000908190611444908490600160801b90046001600160801b03166106da565b6005546201000090046001600160701b031692509050818111156115c057600061146e8383614715565b905061147d610ccd828661180d565b6005805460109061149f908490600160801b90046001600160801b031661479f565b92506101000a8154816001600160801b0302191690836001600160801b0316021790555060006114d8858361182290919063ffffffff16565b90506000611506827f00000000000000000000000000000000000000000000000000000000000000006106da565b9050806009600082825461151a9190614674565b9091555061152a90508183614715565b9150611535826113f7565b600180546000906115509084906001600160801b0316614748565b92506101000a8154816001600160801b0302191690836001600160801b0316021790555061157d826113f7565b60038054600090611592908490600f0b6147df565b92506101000a8154816001600160801b030219169083600f0b6001600160801b031602179055508493505050505b915091565b6000806115d28686611822565b91506000611600837f00000000000000000000000000000000000000000000000000000000000000006106da565b905061162c817f00000000000000000000000000000000000000000000000000000000000000006106da565b9150831561164f5761163e8282614715565b6116489084614715565b9250611666565b6116598282614715565b6116639084614674565b92505b84861015611689576116798387876113d9565b92506116868287876113d9565b91505b5094509492505050565b600354600160801b90046001600160801b03166116dc610ccd826116bf85670de0b6b3a7640000614788565b600454600160801b90046001600160801b031691908a6000611f40565b600480546001600160801b03928316600160801b029216919091179055611702866113f7565b61170c908261479f565b600380546001600160801b03928316600160801b029216919091179055611732846113f7565b6001805460009061174d9084906001600160801b0316614748565b92506101000a8154816001600160801b0302191690836001600160801b0316021790555061177a8361223a565b6003805460009061178f908490600f0b6147df565b92506101000a8154816001600160801b030219169083600f0b6001600160801b031602179055506117bf856113f7565b600180546010906117e1908490600160801b90046001600160801b031661479f565b92506101000a8154816001600160801b0302191690836001600160801b03160217905550505050505050565b60006106ef83670de0b6b3a764000084612278565b60006106ef83670de0b6b3a7640000846113d9565b60008061184f846118498a888a6113d9565b90611822565b905061185c8884866113d9565b6118669082614674565b90508681111561187d5761187a8782614715565b91505b509695505050505050565b6000600160701b821061141d5760405163086b151760e11b815260040160405180910390fd5b6001546001600160801b0316838110806118f057507f00000000000000000000000000000000000000000000000000000000000000006118ee8583614715565b105b156118ff576118ff6003611ea5565b6119098482614715565b600354909150600f0b61191c8482614768565b9050838513801561195557507f0000000000000000000000000000000000000000000000000000000000000000611953838361221d565b105b15611964576119646001611ea5565b600254600160801b90046001600160801b03166119a6610ccd8261199087670de0b6b3a7640000614788565b6004546001600160801b031691908c6000611f40565b600480546001600160801b0319166001600160801b03929092169190911790556119d08882614715565b90506119db816113f7565b600280546001600160801b03928316600160801b029216919091179055611a01836113f7565b600180546001600160801b0319166001600160801b0392909216919091179055611a2a8261223a565b600380546001600160801b0319166001600160801b0392909216919091179055611a53876113f7565b60018054601090611a75908490600160801b90046001600160801b0316614748565b92506101000a8154816001600160801b0302191690836001600160801b031602179055505050505050505050565b6000611acc611ab2848361229e565b611abd84600061229e565b611ac79190614768565b61223a565b9050600081600f0b1315611b215760028054829190600090611af89084906001600160801b0316614748565b92506101000a8154816001600160801b0302191690836001600160801b03160217905550505050565b600081600f0b1215611b5157611b368161480c565b60028054600090611af89084906001600160801b031661479f565b505050565b600654600360f81b6000908152600c6020527fe33c7a20958276ce9529c827d1e1b38c61245a6a2cb39f13852cf96fd6f7333d549091611ba1916001600160801b0390911690614715565b905080600003611baf575050565b6000611bba836122ad565b905080600003611bc957505050565b600080611bdf611bda848688612352565b61242b565b91509150611bec826113f7565b60068054600090611c079084906001600160801b0316614748565b92506101000a8154816001600160801b0302191690836001600160801b03160217905550611c34816113f7565b60068054601090611c56908490600160801b90046001600160801b0316614748565b92506101000a8154816001600160801b0302191690836001600160801b0316021790555061135581611c8790614832565b6124c2565b60008060008311611c9e576000611cb3565b611cb383610884611cae866125b2565b6126c5565b600654600c6020527fe33c7a20958276ce9529c827d1e1b38c61245a6a2cb39f13852cf96fd6f7333d5460008080527f13649b2456f1b42fef0f0040b3aaeabcd21a76a0f3f5defd4f583839455116e854939450926001600160801b0390921691611d1e9190614674565b611d289190614715565b90508015611d3f57611d3a8282611822565b611d42565b60005b949350505050565b60015460035460009161072e916001600160801b0390911690600f0b61221d565b6000611d8c878787611d8588670de0b6b3a7640000614715565b87876126fc565b979650505050505050565b6000611dae82611da88588886113d9565b906127c8565b95945050505050565b6000610f06611df8611dd184670de0b6b3a7640000614715565b6110b5670de0b6b3a7640000611de7818a61180d565b611df19190614715565b87906120bf565b611e0a90670de0b6b3a7640000614674565b61184984670de0b6b3a7640000614715565b600080611e9a85611e2b611d4a565b611e359190614674565b600154611e53908790600160801b90046001600160801b0316614715565b7f00000000000000000000000000000000000000000000000000000000000000007f0000000000000000000000000000000000000000000000000000000000000000611d97565b909210949350505050565b80604051633c06d78b60e11b81526004016100d6919061484e565b600080611f0a8561088485817f0000000000000000000000000000000000000000000000000000000000000000670de0b6b3a7640000611f00818c611822565b6108849190614715565b9150611f36827f00000000000000000000000000000000000000000000000000000000000000006106da565b9050935093915050565b60008115611fb457611f73611f558487614674565b611f5f85876106da565b611f69888a6106da565b6118499190614674565b90506000611f81858861281f565b90506000611f8f86896121e2565b905081831015611fa157819250611fad565b80831115611fad578092505b5050611dae565b828503611fc357506000611dae565b611fee611fd08487614715565b611fda85876120bf565b611fe4888a6106da565b6118499190614715565b9695505050505050565b6000600c6000612009600285610e01565b815260200190815260200160002054600c6000612027600186610e01565b8152602001908152602001600020546106f29190614768565b600061206c7f0000000000000000000000000000000000000000000000000000000000000000836106da565b6002546001546001600160801b03918216600f0b9161208c9116856120bf565b6120969190614768565b121592915050565b6000611d8c8787876120b888670de0b6b3a7640000614715565b878761282e565b60006106ef8383670de0b6b3a7640000612278565b6000808080612125878661211e8b6108846120f78c670de0b6b3a7640000614715565b7f0000000000000000000000000000000000000000000000000000000000000000906106da565b91906113d9565b9350612151847f00000000000000000000000000000000000000000000000000000000000000006106da565b9150600061217261216a89670de0b6b3a7640000614715565b8a90886113d9565b905061219e817f00000000000000000000000000000000000000000000000000000000000000006106da565b93506121ca847f00000000000000000000000000000000000000000000000000000000000000006106da565b6121d49084614674565b915050945094509450949050565b60008183116121f157816106ef565b5090919050565b6000806122108461220a8a888a612278565b9061180d565b905061185c888486612278565b60008061222a8385614768565b905060008112156106ef57600080fd5b600060016001607f1b0319821280159061225b575060016001607f1b038213155b61141d5760405163a5353be560e01b815260040160405180910390fd5b600082600019048411830215820261228f57600080fd5b50910281810615159190040190565b60008183136121f157816106ef565b60025460009081906122c8906001600160801b03168461180d565b90506122f47f000000000000000000000000000000000000000000000000000000000000000082614674565b6001546001600160801b0316111561234c576001547f00000000000000000000000000000000000000000000000000000000000000009061233f9083906001600160801b0316614715565b6123499190614715565b91505b50919050565b61235a614553565b6000612365836125b2565b90506000612372826126c5565b905060006123938361014001518461012001516106da90919063ffffffff16565b61010084015160e08501516123a7916120bf565b6123b19190614768565b604080516101208101825285815260208082019590955260008052600c85527f13649b2456f1b42fef0f0040b3aaeabcd21a76a0f3f5defd4f583839455116e854818301526060810198909852608088019890985260a087015250815160c086015281015160e08501529093015161010083015250919050565b60008060006124428460c001518560e0015161221d565b905060006124508583612853565b9050600061245e8683612b51565b90508060000361247657506000958695509350505050565b8560600151811161248b579590945092505050565b506060850151600061249d8785612bfc565b9050806000036124b65750600096879650945050505050565b90969095509350505050565b6001546003546001600160801b0380831692600f9290920b91600160801b900416600080806125148686867f00000000000000000000000000000000000000000000000000000000000000008b613026565b92509250925085831461254b5761252a836113f7565b600180546001600160801b0319166001600160801b03929092169190911790555b84821461257c5761255b8261223a565b600380546001600160801b0319166001600160801b03929092169190911790555b838114610df85761258c816113f7565b600180546001600160801b03928316600160801b02921691909117905550505050505050565b6125ba6145a5565b60408051610160810182526001546001600160801b038082168352600354600f0b6020840152600160801b91829004811693830193909352606082018590527f000000000000000000000000000000000000000000000000000000000000000060808301527f000000000000000000000000000000000000000000000000000000000000000060a08301527f000000000000000000000000000000000000000000000000000000000000000060c083015260025404821660e0820152600454909161010083019161268b91166130d3565b81526003546001600160801b03600160801b91829004811660208401526004546040909301926126bd929004166130d3565b905292915050565b60008060006126d384613149565b91509150806126f55760405163aeeb825d60e01b815260040160405180910390fd5b5092915050565b60008061270c88888787876131c3565b905061272685611da861271f898c614674565b86906106da565b97506127338489856113d9565b975087811015612747576127476000611ea5565b60006127538983614715565b9050670de0b6b3a7640000811061278757612780612779670de0b6b3a76400008861180d565b82906127c8565b905061279f565b61279c612779670de0b6b3a764000088611822565b90505b808810156127b1576127b16000611ea5565b6127bb8189614715565b9998505050505050505050565b6000816000036127e15750670de0b6b3a76400006106f2565b826000036127f1575060006106f2565b8160006127fd856131f2565b9050818102612814670de0b6b3a764000082614876565b9050611fee81613405565b600081831161234c57826106ef565b60008061283f888888888888613590565b90925090508061187d5761187d6000611ea5565b6000808360a001511261286b575060808201516106f2565b60008360a0015161287b90614832565b90506128ac8460c001518560e00151866101000151876000015160a0015188608001516128a790614832565b613026565b86516040810191909152602080820192909252919091528451805191015160009161290c916128db919061221d565b8651604081015160c0909101516128fa90670de0b6b3a7640000614715565b88516060810151608090910151613659565b90508181106129225750505060808201516106f2565b5060006129308585846136ef565b905060005b6003811015612aac576129648660c001518760e00151886101000151896000015160a00151866128a790614832565b8851604081019190915260208082019290925291909152865180519101516000916129c491612993919061221d565b8851604081015160c0909101516129b290670de0b6b3a7640000614715565b8a516060810151608090910151613659565b90506000806129d3898961388d565b91509150806129e457505050612aac565b85831115612a4057849650612a10620f4240670de0b6b3a7640000612a099190614674565b87906106da565b8311612a21575050505050506106f2565b612a2f826118498886614715565b612a399086614674565b9450612a8a565b85831015612a7c576000612a5883611849868a614715565b9050858110612a6a5750505050612aac565b612a748187614715565b955050612a8a565b8496505050505050506106f2565b8860800151851115612a9e57886080015194505b836001019350505050612935565b50828114612b4957612ada8560c001518660e00151876101000151886000015160a00151856128a790614832565b875160408101919091526020808201929092529190915285518051910151600091612b3a91612b09919061221d565b8751604081015160c090910151612b2890670de0b6b3a7640000614715565b89516060810151608090910151613659565b9050828110612b47578193505b505b505092915050565b6000612b798360c001518460e00151856101000151866000015160a00151866128a790614832565b8551604081019190915260208101919091525282516000908190612b9c90613149565b91509150801580612bb1575084602001518210155b15612bc1576000925050506106f2565b600085606001518660400151612bd79190614674565b9050612bf2838760200151836113d99092919063ffffffff16565b611fee9082614715565b60008083606001518460400151612c139190614674565b90508360a00151600003612c3d5760608401516020850151612c3591836113d9565b9150506106f2565b60208401516060850151600091612c559190846113d9565b905060008560a001511315612e975760005b6004811015612e9157612c968660c001518760e00151886101000151896000015160a00151866128a790614832565b885160408101919091526020810191909152528551600090612cb7906126c5565b9050612cc4878286613af1565b15612ccf5750612e91565b865180516020820151604083015160a084015160c0909401516000948594612d1c9490939092909190612d0a90670de0b6b3a7640000614715565b8e516060810151608090910151613b6a565b9150915080612d2d57505050612e91565b6000828a60a0015111612d9057612d498a8a8c60a00151613c4c565b92509050811580612d625750670de0b6b3a76400008110155b15612d775760009750505050505050506106f2565b612d8981670de0b6b3a7640000614715565b9050612dc2565b612d998a613f0d565b909650915081612db35760009750505050505050506106f2565b859750505050505050506106f2565b6000612ddf8b604001518c602001516120bf90919063ffffffff16565b612de9868a6106da565b612df39190614768565b90506000811315612e2357612e12612e0b838a6120bf565b8290611822565b612e1c9088614674565b9650612e81565b6000811215612e77576000612e44612e3b848b6120bf565b61184984614832565b905087811015612e5f57612e588189614715565b9750612e71565b600099505050505050505050506106f2565b50612e81565b5050505050612e91565b8560010195505050505050612c67565b50611d42565b60005b600481101561301d57612ec98660c001518760e00151886101000151896000015160a00151866128a790614832565b885160408101919091526020810191909152528551600090612eea906126c5565b9050612ef7878286613af1565b15612f02575061301d565b600080612f1d89898b60a00151612f1890614832565b613ff8565b91509150801580612f365750670de0b6b3a76400008210155b15612f4a57600096505050505050506106f2565b612f5c82670de0b6b3a7640000614715565b91506000612f7b8a604001518b602001516120bf90919063ffffffff16565b612f8585896106da565b612f8f9190614768565b90506000811315612fb957612fa8876118498386611822565b612fb29087614674565b955061300e565b6000811215613005576000612fd388611849868186614832565b905086811015612fee57612fe78188614715565b9650612fff565b6000985050505050505050506106f2565b5061300e565b5050505061301d565b84600101945050505050612e9a565b50949350505050565b6000806000836000036130405750869150859050846130c8565b600061304c858a6147bf565b90508581121561306f5760405163585fe6df60e11b815260040160405180910390fd5b8093506000881261308c5761308584898b6113d9565b92506130ac565b6130a061309889614832565b85908b6113d9565b6130a990614832565b92505b6130c4876130ba8b8b61221d565b61211e878761221d565b9150505b955095509592505050565b600080670de0b6b3a76400006130e76106f8565b6130f19190614788565b905080831161310157600061310b565b61310b8184614715565b9150612349613142670de0b6b3a76400007f0000000000000000000000000000000000000000000000000000000000000000614788565b8390611822565b600080600080600061315a86614137565b915091508061317157506000958695509350505050565b8560a0015161317f87614374565b875161318c9085906147bf565b61319691906147bf565b6131a09190614768565b9250505060008112156131b95750600093849350915050565b9360019350915050565b60006131cf85856127c8565b6131e86131e086611da8868b6120bf565b859085612278565b611fee9190614674565b60008082136132145760405163e61b497560e01b815260040160405180910390fd5b5060606001600160801b03821160071b82811c67ffffffffffffffff1060061b1782811c63ffffffff1060051b1782811c61ffff1060041b1782811c60ff10600390811b90911783811c600f1060021b1783811c909110600190811b90911783811c90911017609f81810383019390931b90921c6c465772b2bbbb5f824b15207a3081018102821d6d0388eaa27412d5aca026815d636e018102821d6d0df99ac502031bf953eff472fdcc018102821d6d13cdffb29d51d99322bdff5f2211018102821d6d0a0f742023def783a307a986912e018102821d6d01920d8043ca89b5239253284e42018102821d6c0b7a86d7375468fac667a0a527016c29508e458543d8aa4df2abee7882018202831d6d0139601a2efabe717e604cbb4894018202831d6d02247f7a7b6594320649aa03aba1018202831d6c8c3f38e95a6b1ff2ab1c3b343619018202831d6d02384773bdf1ac5676facced60901901820290921d6cb9a025d814b29c212b8b1a07cd190102780a09507084cc699bb0e71ea869ffffffffffffffffffffffff190105711340daa0d5f769dba1915cef59f0815a550602605f19919091017d0267a36c0c95b3975ab3ee5b203a7614a3f75373f047d803ae7b6687f2b302017d57115e47018c7177eebf7cd370a3356a1b7863008a5ae8028c72b88642840160ae1d90565b6000680248ce36a70cb26b3e19821361342057506000919050565b680755bf798b4a1bf1e58212613449576040516373a2d6b160e01b815260040160405180910390fd5b6503782dace9d9604e83901b059150600060606bb17217f7d1cf79abc9e3b39884821b056001605f1b01901d6bb17217f7d1cf79abc9e3b39881029093036c240c330e9fb2d9cbaf0fd5aafb1981018102606090811d6d0277594991cfc85f6e2461837cd9018202811d6d1a521255e34f6a5061b25ef1c9c319018202811d6db1bbb201f443cf962f1a1d3db4a5018202811d6e02c72388d9f74f51a9331fed693f1419018202811d6e05180bb14799ab47a8a8cb2a527d57016d02d16720577bd19bf614176fe9ea6c10fe68e7fd37d0007b713f765084018402831d9081019084016d01d3967ed30fc4f89c02bab5708119010290911d6e0587f503bb6ea29d25fcb740196450019091026d360d7aeea093263ecc6e0ecb291760621b010574029d9dc38563c32e5c2f6dc192ee70ef65f9978af30260c3939093039290921c92915050565b60008060006135a289898888886131c3565b90506135b286611da8898b614674565b9750878110156135c957600080925092505061364e565b60006135e185876135da8c86614715565b9190612278565b9050670de0b6b3a7640000811061360e57613607612779670de0b6b3a76400008961180d565b9050613626565b613623612779670de0b6b3a764000089611822565b90505b613630818661180d565b9050808a111561364757613644818b614715565b93505b6001925050505b965096945050505050565b60008061366987878787876131c3565b90506000613694670de0b6b3a76400006136838787611822565b61368d9190614674565b839061180d565b9050670de0b6b3a764000081106136c1576136ba612779670de0b6b3a76400008861180d565b90506136d9565b6136d6612779670de0b6b3a764000088611822565b90505b6136e38188614715565b98975050505050505050565b82516080810151606090910151600091829161375891670de0b6b3a76400009161371891611822565b6137229190614674565b610100870151875160c0015161220a91889161374690670de0b6b3a7640000614715565b8a5160608101516080909101516131c3565b9050670de0b6b3a7640000811061379f57845160c00151613798906127799061378990670de0b6b3a7640000614715565b670de0b6b3a76400009061180d565b90506137d1565b845160c001516137ce90612779906137bf90670de0b6b3a7640000614715565b670de0b6b3a764000090611822565b90505b6137db8382614674565b905060008560e00151126138375761383061382961380a8760c001518860e0015161180d90919063ffffffff16565b61381c90670de0b6b3a7640000614715565b61010088015190876113d9565b829061180d565b9050613868565b6138656138296138538760c001518860e0015161184990614832565b61381c90670de0b6b3a7640000614674565b90505b8460c00151811061387d576000915050610f09565b808560c00151611dae9190614715565b81518051602090910151600091829182916138a79161221d565b855160c08101516040909101519192506000916138d7916138cb91611df1916127c8565b61010088015190611822565b865160c0810151608090910151613902916138f691611da890876120bf565b88516060015190611822565b61390c9190614674565b9050600061394b83886000015160400151896000015160c00151670de0b6b3a76400006139399190614715565b8a5160608101516080909101516143db565b9050670de0b6b3a764000081106139a25761399b61399461398d896000015160c00151670de0b6b3a76400006139819190614715565b8a5160c0015190611822565b83906127c8565b83906106da565b91506139d6565b6139d361399461398d896000015160c00151670de0b6b3a76400006139c79190614715565b8a5160c001519061180d565b91505b613a266131426139fb896000015160c00151670de0b6b3a76400006137899190614715565b89516080810151606090910151670de0b6b3a764000091613a1c919061180d565b611da89190614674565b91506000613a428789610100015161180d90919063ffffffff16565b9050808311613a5c57613a558382614715565b9250613a6c565b6000809550955050505050613aea565b60008860e0015112613ab057613aa983613a978a60c001518b60e0015161182290919063ffffffff16565b6110b590670de0b6b3a7640000614715565b9250613adf565b613adc83613aca8a60c001518b60e0015161220a90614832565b6110b590670de0b6b3a7640000614674565b92505b509093506001925050505b9250929050565b600080613b0b84866020015161182290919063ffffffff16565b90506000613b2686604001518561182290919063ffffffff16565b905081811015613b3b57600092505050610f09565b818110158015611fee5750613b5f613994633b9aca00670de0b6b3a7640000614674565b101595945050505050565b6000806000881215613b8c57613b7f88614832565b613b899087614674565b95505b6000613b988a8a61221d565b90506000613ba9828a8989896143db565b90506000613bc6613bbe89611da8898d6120bf565b889088612278565b613bd09083614715565b9050670de0b6b3a76400008110613bfd57613bf6612779670de0b6b3a76400008a611822565b9050613c15565b613c12612779670de0b6b3a76400008a61180d565b90505b89811015613c2c5760008094509450505050613c40565b613c368a82614715565b6001945094505050505b97509795505050505050565b8251805160209091015160009182918291613c669161221d565b90506000613ca3613c97613c90896000015160c00151888b6000015160400151611da89190614674565b88906120bf565b61010089015190611822565b875160c0810151604090910151613cd491613cc891613cc1916127c8565b89906106da565b6101008a01519061180d565b885160c0810151608090910151613cff91613cf391611da890886106da565b8a51606001519061180d565b613d099190614674565b613d139190614715565b90506000613d52838960000151604001518a6000015160c00151670de0b6b3a7640000613d409190614715565b8b5160608101516080909101516131c3565b90506000613d86896000015160c00151670de0b6b3a7640000613d759190614715565b8a5160400151611da8908a90614674565b905080821015613da0576000809550955050505050613f05565b613dc1613dad8284614715565b8a5160608101516080909101519190612278565b9050670de0b6b3a76400008110613e0557885160c00151613dfe9061277990613df290670de0b6b3a7640000614715565b8b5160c001519061180d565b9050613e34565b885160c00151613e319061277990613e2590670de0b6b3a7640000614715565b8b5160c0015190611822565b90505b885160600151613e479084908390612278565b925082670de0b6b3a764000010613e7157613e6a83670de0b6b3a7640000614715565b9250613e82565b600060019550955050505050613f05565b60008960e0015112613ecc57613ec5613eac8a60c001518b60e0015161180d90919063ffffffff16565b613ebe90670de0b6b3a7640000614715565b84906106da565b9250613efa565b613ef7613ee58a60c001518b60e0015161184990614832565b613ebe90670de0b6b3a7640000614674565b92505b509093506001925050505b935093915050565b60008060008360e0015113613f2757506000928392509050565b60c083015183515260e08301518351602001526101008301518351604001528251600090613f5490614374565b90506000808212613f9657604085015160608601518391613f8591613f799082614674565b60208901519190612278565b613f8f9190614715565b9050613fc5565b613f9f82614832565b60408601516060870151613fb89190613f799082614674565b613fc29190614674565b90505b60e085015160c0860151613fda918390612278565b9050808560c00151613fec9190614715565b95600195509350505050565b82518051602090910151600091829182916140129161221d565b9050600061403c613c97613c90896000015160c00151888b6000015160400151611da89190614715565b875160c081015160409091015161405a91613cc891613cc1916127c8565b885160c081015160809091015161407991613cf391611da890886106da565b6140839190614674565b61408d9190614715565b905060006140ba838960000151604001518a6000015160c00151670de0b6b3a7640000613d409190614715565b905060006140ee896000015160c00151670de0b6b3a76400006140dd9190614715565b8a5160400151611da8908a90614715565b905080821015614108576000809550955050505050613f05565b614115613dad8284614715565b9050885160c00151613dfe9061277990613df290670de0b6b3a7640000614715565b60008060006141598461014001518561012001516106da90919063ffffffff16565b61010085015160e086015161416d916120bf565b6141779190614768565b9050600061418d8560000151866020015161221d565b905060008213156142905760008290506000806141de886000015189602001518a604001518b60a001518c60c00151670de0b6b3a76400006141cf9190614715565b8d606001518e60800151613b6a565b91509150806141f7575060009788975095505050505050565b82821061424c576000614231858a60400151868c60c00151670de0b6b3a76400006142229190614715565b8d606001518e6080015161282e565b905061423c81614832565b9960019950975050505050505050565b600088602001511261427f5760a08801516142679085614715565b61427090614832565b98600198509650505050505050565b60a088015188516142679190614715565b60008212156143665760006142a483614832565b905060006142d88388604001518960c00151670de0b6b3a76400006142c99190614715565b8a606001518b60800151613659565b9050818110614314576000614270848960400151858b60c00151670de0b6b3a76400006143059190614715565b8c606001518d60800151614400565b60006143468489604001518a60c00151670de0b6b3a76400006143379190614715565b8b606001518c608001516144c4565b905061435c886060015183856118499190614715565b6142709082614674565b506000946001945092505050565b60006143a3826101000151670de0b6b3a76400006143929190614715565b606084015160e08501519190612278565b6143d1836101400151670de0b6b3a76400006143bf9190614715565b606085015161012086015191906113d9565b6106f29190614768565b60006143e785856127c8565b6131e86143f886611da8868b6106da565b8590856113d9565b60008061441088888787876131c3565b905085871015614424576144246000611ea5565b61443285611da8888a614715565b965086811015614446576144466000611ea5565b600061445784866135da8b86614715565b9050670de0b6b3a764000081106144845761447d612779670de0b6b3a76400008861180d565b905061449c565b614499612779670de0b6b3a764000088611822565b90505b6144a6818561180d565b9050888110156144ba576144ba6000611ea5565b6127bb8982614715565b6000806144d487878787876143db565b905060006144f8670de0b6b3a76400006144ee878761180d565b6131429190614674565b9050670de0b6b3a764000081106145255761451e612779670de0b6b3a764000088611822565b905061453d565b61453a612779670de0b6b3a76400008861180d565b90505b6145478185611822565b90506136e38882614715565b6040518061012001604052806145676145a5565b815260200160008152602001600081526020016000815260200160008152602001600081526020016000815260200160008152602001600081525090565b60405180610160016040528060008152602001600081526020016000815260200160008152602001600081526020016000815260200160008152602001600081526020016000815260200160008152602001600081525090565b6000806000806080858703121561461557600080fd5b843593506020850135925060408501359150606085013567ffffffffffffffff81111561464157600080fd5b85016060818803121561465357600080fd5b939692955090935050565b634e487b7160e01b600052601160045260246000fd5b808201808211156106f2576106f261465e565b60006020828403121561469957600080fd5b81356001600160a01b03811681146106ef57600080fd5b6000602082840312156146c257600080fd5b813580151581146106ef57600080fd5b6000602082840312156146e457600080fd5b5051919050565b634e487b7160e01b600052601260045260246000fd5b600082614710576147106146eb565b500690565b818103818111156106f2576106f261465e565b6001600160701b038181168382160190808211156126f5576126f561465e565b6001600160801b038181168382160190808211156126f5576126f561465e565b81810360008312801583831316838312821617156126f5576126f561465e565b80820281158282048414176106f2576106f261465e565b6001600160801b038281168282160390808211156126f5576126f561465e565b8082018281126000831280158216821582161715612b4957612b4961465e565b600f81810b9083900b0160016001607f1b03811360016001607f1b0319821217156106f2576106f261465e565b600081600f0b60016001607f1b031981036148295761482961465e565b60000392915050565b6000600160ff1b82016148475761484761465e565b5060000390565b602081016004831061487057634e487b7160e01b600052602160045260246000fd5b91905290565b600082614885576148856146eb565b600160ff1b82146000198414161561489f5761489f61465e565b50059056fea2646970667358221220d361b0aefacdf8dbc98f9997f2478161d0d7846aca223ba6c68ffa027dfed26e64736f6c63430008130033a26469706673582212202802783ba6b80eb6fe5c20e81a882defb9c3cae8915cdde169e79605d4a292aa64736f6c63430008130033","linkReferences":{}},"methodIdentifiers":{"deploy((address,address,bytes32,uint256,uint256,uint256,uint256,uint256,uint256,address,address,(uint256,uint256,uint256,uint256)),bytes)":"5fd69b05"},"id":5}