{
  "abi": [
    {
      "inputs": [
        {
          "components": [
            {
              "internalType": "contract IERC20",
              "name": "baseToken",
              "type": "address"
            },
            {
              "internalType": "uint256",
              "name": "initialSharePrice",
              "type": "uint256"
            },
            {
              "internalType": "uint256",
              "name": "minimumShareReserves",
              "type": "uint256"
            },
            {
              "internalType": "uint256",
              "name": "minimumTransactionAmount",
              "type": "uint256"
            },
            {
              "internalType": "uint256",
              "name": "positionDuration",
              "type": "uint256"
            },
            {
              "internalType": "uint256",
              "name": "checkpointDuration",
              "type": "uint256"
            },
            {
              "internalType": "uint256",
              "name": "timeStretch",
              "type": "uint256"
            },
            {
              "internalType": "address",
              "name": "governance",
              "type": "address"
            },
            {
              "internalType": "address",
              "name": "feeCollector",
              "type": "address"
            },
            {
              "components": [
                {
                  "internalType": "uint256",
                  "name": "curve",
                  "type": "uint256"
                },
                {
                  "internalType": "uint256",
                  "name": "flat",
                  "type": "uint256"
                },
                {
                  "internalType": "uint256",
                  "name": "governance",
                  "type": "uint256"
                }
              ],
              "internalType": "struct IHyperdrive.Fees",
              "name": "fees",
              "type": "tuple"
            },
            {
              "internalType": "uint256",
              "name": "oracleSize",
              "type": "uint256"
            },
            {
              "internalType": "uint256",
              "name": "updateGap",
              "type": "uint256"
            }
          ],
          "internalType": "struct IHyperdrive.PoolConfig",
          "name": "_config",
          "type": "tuple"
        },
        {
          "internalType": "bytes32",
          "name": "_linkerCodeHash_",
          "type": "bytes32"
        },
        {
          "internalType": "address",
          "name": "_factory_",
          "type": "address"
        },
        {
          "internalType": "contract IERC4626",
          "name": "_pool_",
          "type": "address"
        }
      ],
      "stateMutability": "nonpayable",
      "type": "constructor"
    },
    {
      "inputs": [],
      "name": "FixedPointMath_InvalidExponent",
      "type": "error"
    },
    {
      "inputs": [],
      "name": "FixedPointMath_InvalidInput",
      "type": "error"
    },
    {
      "inputs": [],
      "name": "InvalidCheckpointDuration",
      "type": "error"
    },
    {
      "inputs": [],
      "name": "InvalidFeeAmounts",
      "type": "error"
    },
    {
      "inputs": [],
      "name": "InvalidMinimumShareReserves",
      "type": "error"
    },
    {
      "inputs": [],
      "name": "InvalidPositionDuration",
      "type": "error"
    },
    {
      "inputs": [],
      "name": "InvalidTradeSize",
      "type": "error"
    },
    {
      "inputs": [],
      "name": "NegativePresentValue",
      "type": "error"
    },
    {
      "inputs": [],
      "name": "QueryOutOfRange",
      "type": "error"
    },
    {
      "inputs": [
        {
          "internalType": "bytes",
          "name": "data",
          "type": "bytes"
        }
      ],
      "name": "ReturnData",
      "type": "error"
    },
    {
      "inputs": [
        {
          "internalType": "uint256",
          "name": "tokenId",
          "type": "uint256"
        },
        {
          "internalType": "address",
          "name": "account",
          "type": "address"
        }
      ],
      "name": "balanceOf",
      "outputs": [
        {
          "internalType": "uint256",
          "name": "",
          "type": "uint256"
        }
      ],
      "stateMutability": "view",
      "type": "function"
    },
    {
      "inputs": [],
      "name": "baseToken",
      "outputs": [
        {
          "internalType": "address",
          "name": "",
          "type": "address"
        }
      ],
      "stateMutability": "view",
      "type": "function"
    },
    {
      "inputs": [],
      "name": "factory",
      "outputs": [
        {
          "internalType": "address",
          "name": "",
          "type": "address"
        }
      ],
      "stateMutability": "view",
      "type": "function"
    },
    {
      "inputs": [
        {
          "internalType": "uint256",
          "name": "_checkpointId",
          "type": "uint256"
        }
      ],
      "name": "getCheckpoint",
      "outputs": [
        {
          "components": [
            {
              "internalType": "uint128",
              "name": "sharePrice",
              "type": "uint128"
            },
            {
              "internalType": "int128",
              "name": "longExposure",
              "type": "int128"
            }
          ],
          "internalType": "struct IHyperdrive.Checkpoint",
          "name": "",
          "type": "tuple"
        }
      ],
      "stateMutability": "view",
      "type": "function"
    },
    {
      "inputs": [],
      "name": "getMarketState",
      "outputs": [
        {
          "components": [
            {
              "internalType": "uint128",
              "name": "shareReserves",
              "type": "uint128"
            },
            {
              "internalType": "uint128",
              "name": "bondReserves",
              "type": "uint128"
            },
            {
              "internalType": "int128",
              "name": "shareAdjustment",
              "type": "int128"
            },
            {
              "internalType": "uint128",
              "name": "longExposure",
              "type": "uint128"
            },
            {
              "internalType": "uint128",
              "name": "longsOutstanding",
              "type": "uint128"
            },
            {
              "internalType": "uint128",
              "name": "shortsOutstanding",
              "type": "uint128"
            },
            {
              "internalType": "uint128",
              "name": "longAverageMaturityTime",
              "type": "uint128"
            },
            {
              "internalType": "uint128",
              "name": "shortAverageMaturityTime",
              "type": "uint128"
            },
            {
              "internalType": "bool",
              "name": "isInitialized",
              "type": "bool"
            },
            {
              "internalType": "bool",
              "name": "isPaused",
              "type": "bool"
            }
          ],
          "internalType": "struct IHyperdrive.MarketState",
          "name": "",
          "type": "tuple"
        }
      ],
      "stateMutability": "view",
      "type": "function"
    },
    {
      "inputs": [],
      "name": "getPoolConfig",
      "outputs": [
        {
          "components": [
            {
              "internalType": "contract IERC20",
              "name": "baseToken",
              "type": "address"
            },
            {
              "internalType": "uint256",
              "name": "initialSharePrice",
              "type": "uint256"
            },
            {
              "internalType": "uint256",
              "name": "minimumShareReserves",
              "type": "uint256"
            },
            {
              "internalType": "uint256",
              "name": "minimumTransactionAmount",
              "type": "uint256"
            },
            {
              "internalType": "uint256",
              "name": "positionDuration",
              "type": "uint256"
            },
            {
              "internalType": "uint256",
              "name": "checkpointDuration",
              "type": "uint256"
            },
            {
              "internalType": "uint256",
              "name": "timeStretch",
              "type": "uint256"
            },
            {
              "internalType": "address",
              "name": "governance",
              "type": "address"
            },
            {
              "internalType": "address",
              "name": "feeCollector",
              "type": "address"
            },
            {
              "components": [
                {
                  "internalType": "uint256",
                  "name": "curve",
                  "type": "uint256"
                },
                {
                  "internalType": "uint256",
                  "name": "flat",
                  "type": "uint256"
                },
                {
                  "internalType": "uint256",
                  "name": "governance",
                  "type": "uint256"
                }
              ],
              "internalType": "struct IHyperdrive.Fees",
              "name": "fees",
              "type": "tuple"
            },
            {
              "internalType": "uint256",
              "name": "oracleSize",
              "type": "uint256"
            },
            {
              "internalType": "uint256",
              "name": "updateGap",
              "type": "uint256"
            }
          ],
          "internalType": "struct IHyperdrive.PoolConfig",
          "name": "",
          "type": "tuple"
        }
      ],
      "stateMutability": "view",
      "type": "function"
    },
    {
      "inputs": [],
      "name": "getPoolInfo",
      "outputs": [
        {
          "components": [
            {
              "internalType": "uint256",
              "name": "shareReserves",
              "type": "uint256"
            },
            {
              "internalType": "int256",
              "name": "shareAdjustment",
              "type": "int256"
            },
            {
              "internalType": "uint256",
              "name": "bondReserves",
              "type": "uint256"
            },
            {
              "internalType": "uint256",
              "name": "lpTotalSupply",
              "type": "uint256"
            },
            {
              "internalType": "uint256",
              "name": "sharePrice",
              "type": "uint256"
            },
            {
              "internalType": "uint256",
              "name": "longsOutstanding",
              "type": "uint256"
            },
            {
              "internalType": "uint256",
              "name": "longAverageMaturityTime",
              "type": "uint256"
            },
            {
              "internalType": "uint256",
              "name": "shortsOutstanding",
              "type": "uint256"
            },
            {
              "internalType": "uint256",
              "name": "shortAverageMaturityTime",
              "type": "uint256"
            },
            {
              "internalType": "uint256",
              "name": "withdrawalSharesReadyToWithdraw",
              "type": "uint256"
            },
            {
              "internalType": "uint256",
              "name": "withdrawalSharesProceeds",
              "type": "uint256"
            },
            {
              "internalType": "uint256",
              "name": "lpSharePrice",
              "type": "uint256"
            },
            {
              "internalType": "uint256",
              "name": "longExposure",
              "type": "uint256"
            }
          ],
          "internalType": "struct IHyperdrive.PoolInfo",
          "name": "",
          "type": "tuple"
        }
      ],
      "stateMutability": "view",
      "type": "function"
    },
    {
      "inputs": [],
      "name": "getUncollectedGovernanceFees",
      "outputs": [
        {
          "internalType": "uint256",
          "name": "",
          "type": "uint256"
        }
      ],
      "stateMutability": "view",
      "type": "function"
    },
    {
      "inputs": [],
      "name": "getWithdrawPool",
      "outputs": [
        {
          "components": [
            {
              "internalType": "uint128",
              "name": "readyToWithdraw",
              "type": "uint128"
            },
            {
              "internalType": "uint128",
              "name": "proceeds",
              "type": "uint128"
            }
          ],
          "internalType": "struct IHyperdrive.WithdrawPool",
          "name": "",
          "type": "tuple"
        }
      ],
      "stateMutability": "view",
      "type": "function"
    },
    {
      "inputs": [
        {
          "internalType": "address",
          "name": "account",
          "type": "address"
        },
        {
          "internalType": "address",
          "name": "operator",
          "type": "address"
        }
      ],
      "name": "isApprovedForAll",
      "outputs": [
        {
          "internalType": "bool",
          "name": "",
          "type": "bool"
        }
      ],
      "stateMutability": "view",
      "type": "function"
    },
    {
      "inputs": [
        {
          "internalType": "address",
          "name": "_target",
          "type": "address"
        }
      ],
      "name": "isSweepable",
      "outputs": [
        {
          "internalType": "bool",
          "name": "",
          "type": "bool"
        }
      ],
      "stateMutability": "view",
      "type": "function"
    },
    {
      "inputs": [],
      "name": "linkerCodeHash",
      "outputs": [
        {
          "internalType": "bytes32",
          "name": "",
          "type": "bytes32"
        }
      ],
      "stateMutability": "view",
      "type": "function"
    },
    {
      "inputs": [
        {
          "internalType": "uint256[]",
          "name": "_slots",
          "type": "uint256[]"
        }
      ],
      "name": "load",
      "outputs": [
        {
          "internalType": "bytes32[]",
          "name": "",
          "type": "bytes32[]"
        }
      ],
      "stateMutability": "view",
      "type": "function"
    },
    {
      "inputs": [
        {
          "internalType": "uint256",
          "name": "tokenId",
          "type": "uint256"
        }
      ],
      "name": "name",
      "outputs": [
        {
          "internalType": "string",
          "name": "",
          "type": "string"
        }
      ],
      "stateMutability": "view",
      "type": "function"
    },
    {
      "inputs": [
        {
          "internalType": "address",
          "name": "account",
          "type": "address"
        }
      ],
      "name": "nonces",
      "outputs": [
        {
          "internalType": "uint256",
          "name": "",
          "type": "uint256"
        }
      ],
      "stateMutability": "view",
      "type": "function"
    },
    {
      "inputs": [
        {
          "internalType": "uint256",
          "name": "tokenId",
          "type": "uint256"
        },
        {
          "internalType": "address",
          "name": "account",
          "type": "address"
        },
        {
          "internalType": "address",
          "name": "spender",
          "type": "address"
        }
      ],
      "name": "perTokenApprovals",
      "outputs": [
        {
          "internalType": "uint256",
          "name": "",
          "type": "uint256"
        }
      ],
      "stateMutability": "view",
      "type": "function"
    },
    {
      "inputs": [],
      "name": "pool",
      "outputs": [
        {
          "internalType": "contract IERC4626",
          "name": "",
          "type": "address"
        }
      ],
      "stateMutability": "view",
      "type": "function"
    },
    {
      "inputs": [
        {
          "internalType": "uint256",
          "name": "period",
          "type": "uint256"
        }
      ],
      "name": "query",
      "outputs": [
        {
          "internalType": "uint256",
          "name": "",
          "type": "uint256"
        }
      ],
      "stateMutability": "view",
      "type": "function"
    },
    {
      "inputs": [
        {
          "internalType": "uint256",
          "name": "tokenId",
          "type": "uint256"
        }
      ],
      "name": "symbol",
      "outputs": [
        {
          "internalType": "string",
          "name": "",
          "type": "string"
        }
      ],
      "stateMutability": "view",
      "type": "function"
    },
    {
      "inputs": [
        {
          "internalType": "uint256",
          "name": "tokenId",
          "type": "uint256"
        }
      ],
      "name": "totalSupply",
      "outputs": [
        {
          "internalType": "uint256",
          "name": "",
          "type": "uint256"
        }
      ],
      "stateMutability": "view",
      "type": "function"
    }
  ],
  "bytecode": {
    "object": "0x61026060405260016000553480156200001757600080fd5b506040516200268a3803806200268a8339810160408190526200003a91620002bc565b6001600160a01b0380831660805260a084905284511660c052604084015184908490849083906103e8111562000083576040516349db44f560e01b815260040160405180910390fd5b60408101516101605260608101516101805260a0810151600003620000bb57604051635428734d60e01b815260040160405180910390fd5b60a08101805160e0525160808201511080620000eb57508060a001518160800151620000e89190620003c2565b15155b156200010a5760405163253fffcf60e11b815260040160405180910390fd5b608081015161010090815260c082015161012090815260208301516101405260e0830151601180546001600160a01b0319166001600160a01b03928316179055918301519091166102005281015151670de0b6b3a764000010806200017f5750670de0b6b3a764000081610120015160200151115b806200019b5750670de0b6b3a764000081610120015160400151115b15620001ba576040516322f72cc360e11b815260040160405180910390fd5b61012081018051516101a0528051602001516101c05251604001516101e0526101600151610220525050506001600160a01b03166102405250620003e5915050565b60405161018081016001600160401b03811182821017156200022e57634e487b7160e01b600052604160045260246000fd5b60405290565b80516001600160a01b03811681146200024c57600080fd5b919050565b6000606082840312156200026457600080fd5b604051606081016001600160401b03811182821017156200029557634e487b7160e01b600052604160045260246000fd5b80604052508091508251815260208301516020820152604083015160408201525092915050565b600080600080848603610220811215620002d557600080fd5b6101c080821215620002e657600080fd5b620002f0620001fc565b9150620002fd8762000234565b82526020870151602083015260408701516040830152606087015160608301526080870151608083015260a087015160a083015260c087015160c08301526200034960e0880162000234565b60e08301526101006200035e81890162000234565b90830152610120620003738989830162000251565b908301526101808701516101408301526101a08701516101608301528601519094509250620003a66101e0860162000234565b9150620003b7610200860162000234565b905092959194509250565b600082620003e057634e487b7160e01b600052601260045260246000fd5b500690565b60805160a05160c05160e05161010051610120516101405161016051610180516101a0516101c0516101e0516102005161022051610240516121c1620004c9600039600081816103660152610def01526000610a87015260006109d701526000610a5001526000610a2b01526000610a080152600061093101526000818161090c0152610f2a0152600081816108e20152610f040152600081816109a70152610f5001526000818161095b01526112b401526000818161098101526115090152600081816108bd0152610be801526000610c3b01526000610ba801526121c16000f3fe608060405234801561001057600080fd5b506004361061012b5760003560e01c8063bd85b039116100ad578063c905a4b511610071578063c905a4b514610295578063cc962f8e1461029d578063d8165743146102c0578063e985e9c5146102d5578063fba56008146102e857600080fd5b8063bd85b0391461024a578063becee9c31461025d578063c45a01551461027d578063c55dae6314610285578063c69e16ad1461028d57600080fd5b80634e41a1fb116100f45780634e41a1fb146101e757806360246c88146101fa5780637ecebe001461020f578063afdac68d14610222578063b0d965801461023557600080fd5b8062ad800c1461013057806316f0115b1461015957806320fc48811461017957806321ff32a9146101b35780633656eec2146101d4575b600080fd5b61014361013e366004611ad5565b610317565b6040516101509190611b34565b60405180910390f35b610161610358565b6040516001600160a01b039091168152602001610150565b61018c610187366004611ad5565b61039b565b6040805182516001600160801b03168152602092830151600f0b9281019290925201610150565b6101c66101c1366004611b5e565b6103ed565b604051908152602001610150565b6101c66101e2366004611b9a565b610433565b6101436101f5366004611ad5565b61046c565b610202610494565b6040516101509190611bc6565b6101c661021d366004611c51565b61068e565b6101c6610230366004611ad5565b6106ba565b61023d6108a0565b6040516101509190611c6c565b6101c6610258366004611ad5565b610abd565b61027061026b366004611d2e565b610adf565b6040516101509190611da3565b610161610b9a565b610161610bda565b6101c6610c1a565b6101c6610c34565b6102b06102ab366004611c51565b610c6c565b6040519015158152602001610150565b6102c8610ca2565b6040516101509190611de7565b6102b06102e3366004611ed4565b610d08565b6102f0610d4c565b6040805182516001600160801b039081168252602093840151169281019290925201610150565b60606103536005600084815260200190815260200160002060405160200161033f9190611efe565b604051602081830303815290604052610dab565b919050565b604080516001600160a01b037f0000000000000000000000000000000000000000000000000000000000000000166020820152600091610398910161033f565b90565b6040805180820190915260008082526020820152610353600e600084815260200190815260200160002060405160200161033f91546001600160801b038116825260801d600f0b602082015260400190565b60008381526004602090815260408083206001600160a01b038681168552908352818420908516845282528083205481519283015261042c910161033f565b9392505050565b60008281526001602090815260408083206001600160a01b0385168452825280832054815192830152610466910161033f565b92915050565b60606103536006600084815260200190815260200160002060405160200161033f9190611efe565b6104ff604051806101a00160405280600081526020016000815260200160008152602001600081526020016000815260200160008152602001600081526020016000815260200160008152602001600081526020016000815260200160008152602001600081525090565b6000610509610dcf565b600d5460026020527f3ccfbaf375b4885450e3887dab0704e32e03acfeaf0442976372f6750e322c1f5460008080527fac33ff75c19e70fe83507db0d683fd3465c996598dc972688b7ace676c89077b54939450926001600160801b03909216916105749190611fc0565b61057e9190611fd3565b905060008083116105905760006105ab565b6105ab836105a56105a086610e67565b610fcd565b9061123f565b604080516101a0810182526008546001600160801b038082168352600954600f0b6020840152600160801b918290048116938301939093526060820186905260808201879052600a5480841660a0840152600b5480851660c085015290829004841660e08401528190048316610100830152600d5480841661012084015204909116610140820152909150600090610160810184156106535761064e8486611254565b610656565b60005b8152600954600160801b90046001600160801b03166020918201526040519192506106879161033f91849101611bc6565b5050505090565b6001600160a01b038116600090815260076020908152604080832054815192830152610353910161033f565b601354601280546000926001600160801b03600160801b8204811693911691849190839081106106ec576106ec611fe6565b600091825260208083206040805180820190915292015463ffffffff8116835264010000000090046001600160e01b031690820152915061072d8685611fd3565b90506000831561074757610742600185611fd3565b610756565b60125461075690600190611fd3565b60408051808201909152600080825260208201529091505b8482146108055760006012838154811061078a5761078a611fe6565b6000918252602090912001805490915063ffffffff1684106107d85760408051808201909152905463ffffffff8116825264010000000090046001600160e01b031660208201529050610805565b82156107ee576107e9600184611fd3565b6107fd565b6012546107fd90600190611fd3565b92505061076e565b805163ffffffff1660000361082d57604051630a89817b60e41b815260040160405180910390fd5b600081602001516001600160e01b031685602001516001600160e01b03166108559190611fd3565b825186519192506000916108729163ffffffff9081169116611fd3565b90506108936108818284612012565b60405160200161033f91815260200190565b5050505050505050919050565b6108a8611a37565b60408051610180810182526001600160a01b037f0000000000000000000000000000000000000000000000000000000000000000811682527f00000000000000000000000000000000000000000000000000000000000000006020808401919091527f0000000000000000000000000000000000000000000000000000000000000000838501527f00000000000000000000000000000000000000000000000000000000000000006060808501919091527f000000000000000000000000000000000000000000000000000000000000000060808501527f000000000000000000000000000000000000000000000000000000000000000060a08501527f000000000000000000000000000000000000000000000000000000000000000060c0850152601154831660e08501527f0000000000000000000000000000000000000000000000000000000000000000909216610100840152835191820184527f000000000000000000000000000000000000000000000000000000000000000082527f0000000000000000000000000000000000000000000000000000000000000000828201527f0000000000000000000000000000000000000000000000000000000000000000828501526101208301919091526012546101408301527f000000000000000000000000000000000000000000000000000000000000000061016083015291516103989261033f929101611c6c565b600081815260026020908152604080832054815192830152610353910161033f565b606060008267ffffffffffffffff811115610afc57610afc612026565b604051908082528060200260200182016040528015610b25578160200160208202803683370190505b50905060005b83811015610b7e576000858583818110610b4757610b47611fe6565b90506020020135905060008154905080848481518110610b6957610b69611fe6565b60209081029190910101525050600101610b2b565b50610b938160405160200161033f9190611da3565b5092915050565b604080516001600160a01b037f0000000000000000000000000000000000000000000000000000000000000000166020820152600091610398910161033f565b604080516001600160a01b037f0000000000000000000000000000000000000000000000000000000000000000166020820152600091610398910161033f565b600061039860105460405160200161033f91815260200190565b60006103987f000000000000000000000000000000000000000000000000000000000000000060405160200161033f91815260200190565b6001600160a01b03811660009081526014602090815260408083205490516103539261033f9260ff169101901515815260200190565b6040805161014081018252600080825260208201819052918101829052606081018290526080810182905260a0810182905260c0810182905260e081018290526101008101829052610120810191909152610398600860405160200161033f919061203c565b6001600160a01b038281166000908152600360209081526040808320938516835292815282822054835160ff9091161515918101919091529091610466910161033f565b6040805180820190915260008082526020820152604080518082018252600d546001600160801b03808216808452600160801b90920481166020938401908152845193840192909252905116918101919091526103989060600161033f565b80604051636e64089360e11b8152600401610dc69190611b34565b60405180910390fd5b6040516303d1689d60e11b8152670de0b6b3a764000060048201526000907f00000000000000000000000000000000000000000000000000000000000000006001600160a01b0316906307a2d13a90602401602060405180830381865afa158015610e3e573d6000803e3d6000fd5b505050506040513d601f19601f82011682018060405250810190610e6291906120bd565b905090565b610ec460405180610160016040528060008152602001600081526020016000815260200160008152602001600081526020016000815260200160008152602001600081526020016000815260200160008152602001600081525090565b60408051610160810182526008546001600160801b038082168352600954600f0b6020840152600160801b909104811692820192909252606081018490527f000000000000000000000000000000000000000000000000000000000000000060808201527f000000000000000000000000000000000000000000000000000000000000000060a08201527f000000000000000000000000000000000000000000000000000000000000000060c0820152600a54821660e0820152600b549091610100830191610f939116611269565b8152600a546001600160801b03600160801b9182900481166020840152600b54604090930192610fc592900416611269565b905292915050565b600080610fed83610140015184610120015161123f90919063ffffffff16565b61010084015160e08501516110019161123f565b61100b91906120d6565b90506000611021846000015185602001516112df565b905060008213156110c35760006110638286604001518760a001518860c00151670de0b6b3a76400006110549190611fd3565b89606001518a608001516112fc565b915061107190508184611385565b905080156110bd576110aa828660400151838860c00151670de0b6b3a764000061109b9190611fd3565b89606001518a6080015161139a565b855186906110b9908390611fd3565b9052505b50611181565b6000821215611181576110d5826120f6565b915060006111098286604001518760c00151670de0b6b3a76400006110fa9190611fd3565b886060015189608001516113d9565b915061111790508184611385565b9050801561116357611150828660400151838860c00151670de0b6b3a76400006111419190611fd3565b89606001518a60800151611463565b8551869061115f908390611fc0565b9052505b61116d8184611fd3565b8551869061117c908390611fc0565b905250505b60006111b0856101000151670de0b6b3a764000061119f9190611fd3565b606087015160e088015191906114e4565b6111de866101400151670de0b6b3a76400006111cc9190611fd3565b606088015161012089015191906114e4565b6111e891906120d6565b905060008186600001516111fc9190612112565b90508560a001518112156112235760405163aeeb825d60e01b815260040160405180910390fd5b80865260a08601516112359082611fd3565b9695505050505050565b600061042c8383670de0b6b3a76400006114e4565b600061042c83670de0b6b3a7640000846114e4565b600080670de0b6b3a764000061127d611502565b6112879190612132565b90508083116112975760006112a1565b6112a18184611fd3565b915061042c6112d8670de0b6b3a76400007f0000000000000000000000000000000000000000000000000000000000000000612132565b8390611254565b6000806112ec83856120d6565b9050600081121561042c57600080fd5b6000808061130a8585611254565b9050600061131b82868c8a8d611538565b9050600061135c611334670de0b6b3a76400008a611254565b61135261134b8b6113458b8f61123f565b90611566565b869061123f565b6113459085611fd3565b9050611368898c611fd3565b6113728b83611fd3565b945094505050505b965096945050505050565b6000818311611394578261042c565b50919050565b6000806113ab8888888888886115bd565b9092509050806113ce57604051637ac17d2560e01b815260040160405180910390fd5b509695505050505050565b600080806113e78585611254565b905060006113f882868b8a8c611538565b9050600061142d611411670de0b6b3a76400008a611254565b611345611426670de0b6b3a764000087611fc0565b8590611254565b9050600061143b8288611254565b90506114478b82611fd3565b611451838c611fd3565b95509550505050509550959350505050565b6000806114708484611254565b9050600061148182858b898c611538565b905061149186611345898b611fd3565b975060006114be6114aa670de0b6b3a76400008961165e565b611345856114b88d87611fd3565b90611254565b90506114ca8186611254565b90506114d68a82611fd3565b9a9950505050505050505050565b60008260001904841183021582026114fb57600080fd5b5091020490565b600061152e7f000000000000000000000000000000000000000000000000000000000000000042612149565b610e629042611fd3565b60006115448284611566565b61155c61155585611345898961123f565b889061123f565b6112359190611fc0565b60008160000361157f5750670de0b6b3a7640000610466565b8260000361158f57506000610466565b81600061159b85611673565b90508181026115b2670de0b6b3a76400008261215d565b905061123581611886565b600080806115cb8585611254565b905060006115dc82868c8a8d611538565b90506115ec876113458a8c611fc0565b9850888110156116045760008093509350505061137a565b600061162961161b670de0b6b3a76400008a61165e565b611345856114b88e87611fd3565b90506116358187611254565b9050808b111561164c57611649818c611fd3565b94505b60019350505050965096945050505050565b600061042c83670de0b6b3a764000084611a11565b600080821361169557604051636838feed60e11b815260040160405180910390fd5b5060606001600160801b03821160071b82811c67ffffffffffffffff1060061b1782811c63ffffffff1060051b1782811c61ffff1060041b1782811c60ff10600390811b90911783811c600f1060021b1783811c909110600190811b90911783811c90911017609f81810383019390931b90921c6c465772b2bbbb5f824b15207a3081018102821d6d0388eaa27412d5aca026815d636e018102821d6d0df99ac502031bf953eff472fdcc018102821d6d13cdffb29d51d99322bdff5f2211018102821d6d0a0f742023def783a307a986912e018102821d6d01920d8043ca89b5239253284e42018102821d6c0b7a86d7375468fac667a0a527016c29508e458543d8aa4df2abee7882018202831d6d0139601a2efabe717e604cbb4894018202831d6d02247f7a7b6594320649aa03aba1018202831d6c8c3f38e95a6b1ff2ab1c3b343619018202831d6d02384773bdf1ac5676facced60901901820290921d6cb9a025d814b29c212b8b1a07cd190102780a09507084cc699bb0e71ea869ffffffffffffffffffffffff190105711340daa0d5f769dba1915cef59f0815a550602605f19919091017d0267a36c0c95b3975ab3ee5b203a7614a3f75373f047d803ae7b6687f2b302017d57115e47018c7177eebf7cd370a3356a1b7863008a5ae8028c72b88642840160ae1d90565b6000680248ce36a70cb26b3e1982136118a157506000919050565b680755bf798b4a1bf1e582126118ca5760405163df92cc9d60e01b815260040160405180910390fd5b6503782dace9d9604e83901b059150600060606bb17217f7d1cf79abc9e3b39884821b056001605f1b01901d6bb17217f7d1cf79abc9e3b39881029093036c240c330e9fb2d9cbaf0fd5aafb1981018102606090811d6d0277594991cfc85f6e2461837cd9018202811d6d1a521255e34f6a5061b25ef1c9c319018202811d6db1bbb201f443cf962f1a1d3db4a5018202811d6e02c72388d9f74f51a9331fed693f1419018202811d6e05180bb14799ab47a8a8cb2a527d57016d02d16720577bd19bf614176fe9ea6c10fe68e7fd37d0007b713f765084018402831d9081019084016d01d3967ed30fc4f89c02bab5708119010290911d6e0587f503bb6ea29d25fcb740196450019091026d360d7aeea093263ecc6e0ecb291760621b010574029d9dc38563c32e5c2f6dc192ee70ef65f9978af30260c3939093039290921c92915050565b6000826000190484118302158202611a2857600080fd5b50910281810615159190040190565b60405180610180016040528060006001600160a01b0316815260200160008152602001600081526020016000815260200160008152602001600081526020016000815260200160006001600160a01b0316815260200160006001600160a01b03168152602001611ac160405180606001604052806000815260200160008152602001600081525090565b815260200160008152602001600081525090565b600060208284031215611ae757600080fd5b5035919050565b6000815180845260005b81811015611b1457602081850181015186830182015201611af8565b506000602082860101526020601f19601f83011685010191505092915050565b60208152600061042c6020830184611aee565b80356001600160a01b038116811461035357600080fd5b600080600060608486031215611b7357600080fd5b83359250611b8360208501611b47565b9150611b9160408501611b47565b90509250925092565b60008060408385031215611bad57600080fd5b82359150611bbd60208401611b47565b90509250929050565b815181526020808301519082015260408083015190820152606080830151908201526080808301519082015260a0808301519082015260c0808301519082015260e08083015190820152610100808301519082015261012080830151908201526101408083015190820152610160808301519082015261018091820151918101919091526101a00190565b600060208284031215611c6357600080fd5b61042c82611b47565b81516001600160a01b031681526101c081016020830151602083015260408301516040830152606083015160608301526080830151608083015260a083015160a083015260c083015160c083015260e0830151611cd460e08401826001600160a01b03169052565b50610100838101516001600160a01b03811684830152505061012083810151805184830152602081015161014085015260408101516101608501525050610140830151610180830152610160909201516101a09091015290565b60008060208385031215611d4157600080fd5b823567ffffffffffffffff80821115611d5957600080fd5b818501915085601f830112611d6d57600080fd5b813581811115611d7c57600080fd5b8660208260051b8501011115611d9157600080fd5b60209290920196919550909350505050565b6020808252825182820181905260009190848201906040850190845b81811015611ddb57835183529284019291840191600101611dbf565b50909695505050505050565b81516001600160801b0316815261014081016020830151611e1360208401826001600160801b03169052565b506040830151611e286040840182600f0b9052565b506060830151611e4360608401826001600160801b03169052565b506080830151611e5e60808401826001600160801b03169052565b5060a0830151611e7960a08401826001600160801b03169052565b5060c0830151611e9460c08401826001600160801b03169052565b5060e0830151611eaf60e08401826001600160801b03169052565b506101008381015115159083015261012080840151801515828501525b505092915050565b60008060408385031215611ee757600080fd5b611ef083611b47565b9150611bbd60208401611b47565b600060208083526000845481600182811c915080831680611f2057607f831692505b8583108103611f3d57634e487b7160e01b85526022600452602485fd5b878601838152602001818015611f5a5760018114611f7057611f9b565b60ff198616825284151560051b82019650611f9b565b60008b81526020902060005b86811015611f9557815484820152908501908901611f7c565b83019750505b50949998505050505050505050565b634e487b7160e01b600052601160045260246000fd5b8082018082111561046657610466611faa565b8181038181111561046657610466611faa565b634e487b7160e01b600052603260045260246000fd5b634e487b7160e01b600052601260045260246000fd5b60008261202157612021611ffc565b500490565b634e487b7160e01b600052604160045260246000fd5b81546001600160801b038082168352608091821c60208401526001840154600f81900b6040850152821c6060840152600284015480821683850152821c60a0840152600384015490811660c0840152901c60e0820152600482015460ff8082161515610100840152600882901c161515610120830152610140820190610b93565b6000602082840312156120cf57600080fd5b5051919050565b8181036000831280158383131683831282161715610b9357610b93611faa565b6000600160ff1b820161210b5761210b611faa565b5060000390565b8082018281126000831280158216821582161715611ecc57611ecc611faa565b808202811582820484141761046657610466611faa565b60008261215857612158611ffc565b500690565b60008261216c5761216c611ffc565b600160ff1b82146000198414161561218657612186611faa565b50059056fea26469706673582212203dd3a41b6e8e98243ae13770c29f488bc3b96cd1e3d87bf93f08b21cf697e3ce64736f6c63430008130033",
    "linkReferences": {}
  },
  "methodIdentifiers": {
    "balanceOf(uint256,address)": "3656eec2",
    "baseToken()": "c55dae63",
    "factory()": "c45a0155",
    "getCheckpoint(uint256)": "20fc4881",
    "getMarketState()": "d8165743",
    "getPoolConfig()": "b0d96580",
    "getPoolInfo()": "60246c88",
    "getUncollectedGovernanceFees()": "c69e16ad",
    "getWithdrawPool()": "fba56008",
    "isApprovedForAll(address,address)": "e985e9c5",
    "isSweepable(address)": "cc962f8e",
    "linkerCodeHash()": "c905a4b5",
    "load(uint256[])": "becee9c3",
    "name(uint256)": "00ad800c",
    "nonces(address)": "7ecebe00",
    "perTokenApprovals(uint256,address,address)": "21ff32a9",
    "pool()": "16f0115b",
    "query(uint256)": "afdac68d",
    "symbol(uint256)": "4e41a1fb",
    "totalSupply(uint256)": "bd85b039"
  },
  "id": 12
}