{
  "abi": [
    {
      "inputs": [
        {
          "components": [
            {
              "internalType": "contract IERC20",
              "name": "baseToken",
              "type": "address"
            },
            {
              "internalType": "uint256",
              "name": "initialSharePrice",
              "type": "uint256"
            },
            {
              "internalType": "uint256",
              "name": "minimumShareReserves",
              "type": "uint256"
            },
            {
              "internalType": "uint256",
              "name": "minimumTransactionAmount",
              "type": "uint256"
            },
            {
              "internalType": "uint256",
              "name": "positionDuration",
              "type": "uint256"
            },
            {
              "internalType": "uint256",
              "name": "checkpointDuration",
              "type": "uint256"
            },
            {
              "internalType": "uint256",
              "name": "timeStretch",
              "type": "uint256"
            },
            {
              "internalType": "address",
              "name": "governance",
              "type": "address"
            },
            {
              "internalType": "address",
              "name": "feeCollector",
              "type": "address"
            },
            {
              "components": [
                {
                  "internalType": "uint256",
                  "name": "curve",
                  "type": "uint256"
                },
                {
                  "internalType": "uint256",
                  "name": "flat",
                  "type": "uint256"
                },
                {
                  "internalType": "uint256",
                  "name": "governance",
                  "type": "uint256"
                }
              ],
              "internalType": "struct IHyperdrive.Fees",
              "name": "fees",
              "type": "tuple"
            },
            {
              "internalType": "uint256",
              "name": "oracleSize",
              "type": "uint256"
            },
            {
              "internalType": "uint256",
              "name": "updateGap",
              "type": "uint256"
            }
          ],
          "internalType": "struct IHyperdrive.PoolConfig",
          "name": "_config",
          "type": "tuple"
        },
        {
          "internalType": "bytes32",
          "name": "_linkerCodeHash_",
          "type": "bytes32"
        },
        {
          "internalType": "address",
          "name": "_factory_",
          "type": "address"
        },
        {
          "internalType": "contract IERC4626",
          "name": "_pool_",
          "type": "address"
        }
      ],
      "stateMutability": "nonpayable",
      "type": "constructor"
    },
    {
      "inputs": [],
      "name": "FixedPointMath_InvalidExponent",
      "type": "error"
    },
    {
      "inputs": [],
      "name": "FixedPointMath_InvalidInput",
      "type": "error"
    },
    {
      "inputs": [],
      "name": "InvalidCheckpointDuration",
      "type": "error"
    },
    {
      "inputs": [],
      "name": "InvalidFeeAmounts",
      "type": "error"
    },
    {
      "inputs": [],
      "name": "InvalidMinimumShareReserves",
      "type": "error"
    },
    {
      "inputs": [],
      "name": "InvalidPositionDuration",
      "type": "error"
    },
    {
      "inputs": [],
      "name": "InvalidTradeSize",
      "type": "error"
    },
    {
      "inputs": [],
      "name": "NegativePresentValue",
      "type": "error"
    },
    {
      "inputs": [],
      "name": "QueryOutOfRange",
      "type": "error"
    },
    {
      "inputs": [
        {
          "internalType": "bytes",
          "name": "data",
          "type": "bytes"
        }
      ],
      "name": "ReturnData",
      "type": "error"
    },
    {
      "inputs": [
        {
          "internalType": "uint256",
          "name": "tokenId",
          "type": "uint256"
        },
        {
          "internalType": "address",
          "name": "account",
          "type": "address"
        }
      ],
      "name": "balanceOf",
      "outputs": [
        {
          "internalType": "uint256",
          "name": "",
          "type": "uint256"
        }
      ],
      "stateMutability": "view",
      "type": "function"
    },
    {
      "inputs": [],
      "name": "baseToken",
      "outputs": [
        {
          "internalType": "address",
          "name": "",
          "type": "address"
        }
      ],
      "stateMutability": "view",
      "type": "function"
    },
    {
      "inputs": [],
      "name": "factory",
      "outputs": [
        {
          "internalType": "address",
          "name": "",
          "type": "address"
        }
      ],
      "stateMutability": "view",
      "type": "function"
    },
    {
      "inputs": [
        {
          "internalType": "uint256",
          "name": "_checkpointId",
          "type": "uint256"
        }
      ],
      "name": "getCheckpoint",
      "outputs": [
        {
          "components": [
            {
              "internalType": "uint128",
              "name": "sharePrice",
              "type": "uint128"
            },
            {
              "internalType": "int128",
              "name": "longExposure",
              "type": "int128"
            }
          ],
          "internalType": "struct IHyperdrive.Checkpoint",
          "name": "",
          "type": "tuple"
        }
      ],
      "stateMutability": "view",
      "type": "function"
    },
    {
      "inputs": [],
      "name": "getMarketState",
      "outputs": [
        {
          "components": [
            {
              "internalType": "uint128",
              "name": "shareReserves",
              "type": "uint128"
            },
            {
              "internalType": "uint128",
              "name": "bondReserves",
              "type": "uint128"
            },
            {
              "internalType": "int128",
              "name": "shareAdjustment",
              "type": "int128"
            },
            {
              "internalType": "uint128",
              "name": "longExposure",
              "type": "uint128"
            },
            {
              "internalType": "uint128",
              "name": "longsOutstanding",
              "type": "uint128"
            },
            {
              "internalType": "uint128",
              "name": "shortsOutstanding",
              "type": "uint128"
            },
            {
              "internalType": "uint128",
              "name": "longAverageMaturityTime",
              "type": "uint128"
            },
            {
              "internalType": "uint128",
              "name": "shortAverageMaturityTime",
              "type": "uint128"
            },
            {
              "internalType": "bool",
              "name": "isInitialized",
              "type": "bool"
            },
            {
              "internalType": "bool",
              "name": "isPaused",
              "type": "bool"
            }
          ],
          "internalType": "struct IHyperdrive.MarketState",
          "name": "",
          "type": "tuple"
        }
      ],
      "stateMutability": "view",
      "type": "function"
    },
    {
      "inputs": [],
      "name": "getPoolConfig",
      "outputs": [
        {
          "components": [
            {
              "internalType": "contract IERC20",
              "name": "baseToken",
              "type": "address"
            },
            {
              "internalType": "uint256",
              "name": "initialSharePrice",
              "type": "uint256"
            },
            {
              "internalType": "uint256",
              "name": "minimumShareReserves",
              "type": "uint256"
            },
            {
              "internalType": "uint256",
              "name": "minimumTransactionAmount",
              "type": "uint256"
            },
            {
              "internalType": "uint256",
              "name": "positionDuration",
              "type": "uint256"
            },
            {
              "internalType": "uint256",
              "name": "checkpointDuration",
              "type": "uint256"
            },
            {
              "internalType": "uint256",
              "name": "timeStretch",
              "type": "uint256"
            },
            {
              "internalType": "address",
              "name": "governance",
              "type": "address"
            },
            {
              "internalType": "address",
              "name": "feeCollector",
              "type": "address"
            },
            {
              "components": [
                {
                  "internalType": "uint256",
                  "name": "curve",
                  "type": "uint256"
                },
                {
                  "internalType": "uint256",
                  "name": "flat",
                  "type": "uint256"
                },
                {
                  "internalType": "uint256",
                  "name": "governance",
                  "type": "uint256"
                }
              ],
              "internalType": "struct IHyperdrive.Fees",
              "name": "fees",
              "type": "tuple"
            },
            {
              "internalType": "uint256",
              "name": "oracleSize",
              "type": "uint256"
            },
            {
              "internalType": "uint256",
              "name": "updateGap",
              "type": "uint256"
            }
          ],
          "internalType": "struct IHyperdrive.PoolConfig",
          "name": "",
          "type": "tuple"
        }
      ],
      "stateMutability": "view",
      "type": "function"
    },
    {
      "inputs": [],
      "name": "getPoolInfo",
      "outputs": [
        {
          "components": [
            {
              "internalType": "uint256",
              "name": "shareReserves",
              "type": "uint256"
            },
            {
              "internalType": "int256",
              "name": "shareAdjustment",
              "type": "int256"
            },
            {
              "internalType": "uint256",
              "name": "bondReserves",
              "type": "uint256"
            },
            {
              "internalType": "uint256",
              "name": "lpTotalSupply",
              "type": "uint256"
            },
            {
              "internalType": "uint256",
              "name": "sharePrice",
              "type": "uint256"
            },
            {
              "internalType": "uint256",
              "name": "longsOutstanding",
              "type": "uint256"
            },
            {
              "internalType": "uint256",
              "name": "longAverageMaturityTime",
              "type": "uint256"
            },
            {
              "internalType": "uint256",
              "name": "shortsOutstanding",
              "type": "uint256"
            },
            {
              "internalType": "uint256",
              "name": "shortAverageMaturityTime",
              "type": "uint256"
            },
            {
              "internalType": "uint256",
              "name": "withdrawalSharesReadyToWithdraw",
              "type": "uint256"
            },
            {
              "internalType": "uint256",
              "name": "withdrawalSharesProceeds",
              "type": "uint256"
            },
            {
              "internalType": "uint256",
              "name": "lpSharePrice",
              "type": "uint256"
            },
            {
              "internalType": "uint256",
              "name": "longExposure",
              "type": "uint256"
            }
          ],
          "internalType": "struct IHyperdrive.PoolInfo",
          "name": "",
          "type": "tuple"
        }
      ],
      "stateMutability": "view",
      "type": "function"
    },
    {
      "inputs": [],
      "name": "getUncollectedGovernanceFees",
      "outputs": [
        {
          "internalType": "uint256",
          "name": "",
          "type": "uint256"
        }
      ],
      "stateMutability": "view",
      "type": "function"
    },
    {
      "inputs": [],
      "name": "getWithdrawPool",
      "outputs": [
        {
          "components": [
            {
              "internalType": "uint128",
              "name": "readyToWithdraw",
              "type": "uint128"
            },
            {
              "internalType": "uint128",
              "name": "proceeds",
              "type": "uint128"
            }
          ],
          "internalType": "struct IHyperdrive.WithdrawPool",
          "name": "",
          "type": "tuple"
        }
      ],
      "stateMutability": "view",
      "type": "function"
    },
    {
      "inputs": [
        {
          "internalType": "address",
          "name": "account",
          "type": "address"
        },
        {
          "internalType": "address",
          "name": "operator",
          "type": "address"
        }
      ],
      "name": "isApprovedForAll",
      "outputs": [
        {
          "internalType": "bool",
          "name": "",
          "type": "bool"
        }
      ],
      "stateMutability": "view",
      "type": "function"
    },
    {
      "inputs": [
        {
          "internalType": "address",
          "name": "_target",
          "type": "address"
        }
      ],
      "name": "isSweepable",
      "outputs": [
        {
          "internalType": "bool",
          "name": "",
          "type": "bool"
        }
      ],
      "stateMutability": "view",
      "type": "function"
    },
    {
      "inputs": [],
      "name": "linkerCodeHash",
      "outputs": [
        {
          "internalType": "bytes32",
          "name": "",
          "type": "bytes32"
        }
      ],
      "stateMutability": "view",
      "type": "function"
    },
    {
      "inputs": [
        {
          "internalType": "uint256[]",
          "name": "_slots",
          "type": "uint256[]"
        }
      ],
      "name": "load",
      "outputs": [
        {
          "internalType": "bytes32[]",
          "name": "",
          "type": "bytes32[]"
        }
      ],
      "stateMutability": "view",
      "type": "function"
    },
    {
      "inputs": [
        {
          "internalType": "uint256",
          "name": "tokenId",
          "type": "uint256"
        }
      ],
      "name": "name",
      "outputs": [
        {
          "internalType": "string",
          "name": "",
          "type": "string"
        }
      ],
      "stateMutability": "pure",
      "type": "function"
    },
    {
      "inputs": [
        {
          "internalType": "address",
          "name": "account",
          "type": "address"
        }
      ],
      "name": "nonces",
      "outputs": [
        {
          "internalType": "uint256",
          "name": "",
          "type": "uint256"
        }
      ],
      "stateMutability": "view",
      "type": "function"
    },
    {
      "inputs": [
        {
          "internalType": "uint256",
          "name": "tokenId",
          "type": "uint256"
        },
        {
          "internalType": "address",
          "name": "account",
          "type": "address"
        },
        {
          "internalType": "address",
          "name": "spender",
          "type": "address"
        }
      ],
      "name": "perTokenApprovals",
      "outputs": [
        {
          "internalType": "uint256",
          "name": "",
          "type": "uint256"
        }
      ],
      "stateMutability": "view",
      "type": "function"
    },
    {
      "inputs": [],
      "name": "pool",
      "outputs": [
        {
          "internalType": "contract IERC4626",
          "name": "",
          "type": "address"
        }
      ],
      "stateMutability": "view",
      "type": "function"
    },
    {
      "inputs": [
        {
          "internalType": "uint256",
          "name": "period",
          "type": "uint256"
        }
      ],
      "name": "query",
      "outputs": [
        {
          "internalType": "uint256",
          "name": "",
          "type": "uint256"
        }
      ],
      "stateMutability": "view",
      "type": "function"
    },
    {
      "inputs": [
        {
          "internalType": "uint256",
          "name": "tokenId",
          "type": "uint256"
        }
      ],
      "name": "symbol",
      "outputs": [
        {
          "internalType": "string",
          "name": "",
          "type": "string"
        }
      ],
      "stateMutability": "pure",
      "type": "function"
    },
    {
      "inputs": [
        {
          "internalType": "uint256",
          "name": "tokenId",
          "type": "uint256"
        }
      ],
      "name": "totalSupply",
      "outputs": [
        {
          "internalType": "uint256",
          "name": "",
          "type": "uint256"
        }
      ],
      "stateMutability": "view",
      "type": "function"
    }
  ],
  "bytecode": {
    "object": "0x61026060405260016000553480156200001757600080fd5b5060405162002a8638038062002a868339810160408190526200003a91620002bc565b6001600160a01b0380831660805260a084905284511660c052604084015184908490849083906103e8111562000083576040516349db44f560e01b815260040160405180910390fd5b60408101516101605260608101516101805260a0810151600003620000bb57604051635428734d60e01b815260040160405180910390fd5b60a08101805160e0525160808201511080620000eb57508060a001518160800151620000e89190620003c2565b15155b156200010a5760405163253fffcf60e11b815260040160405180910390fd5b608081015161010090815260c082015161012090815260208301516101405260e0830151601180546001600160a01b0319166001600160a01b03928316179055918301519091166102005281015151670de0b6b3a764000010806200017f5750670de0b6b3a764000081610120015160200151115b806200019b5750670de0b6b3a764000081610120015160400151115b15620001ba576040516322f72cc360e11b815260040160405180910390fd5b61012081018051516101a0528051602001516101c05251604001516101e0526101600151610220525050506001600160a01b03166102405250620003e5915050565b60405161018081016001600160401b03811182821017156200022e57634e487b7160e01b600052604160045260246000fd5b60405290565b80516001600160a01b03811681146200024c57600080fd5b919050565b6000606082840312156200026457600080fd5b604051606081016001600160401b03811182821017156200029557634e487b7160e01b600052604160045260246000fd5b80604052508091508251815260208301516020820152604083015160408201525092915050565b600080600080848603610220811215620002d557600080fd5b6101c080821215620002e657600080fd5b620002f0620001fc565b9150620002fd8762000234565b82526020870151602083015260408701516040830152606087015160608301526080870151608083015260a087015160a083015260c087015160c08301526200034960e0880162000234565b60e08301526101006200035e81890162000234565b90830152610120620003738989830162000251565b908301526101808701516101408301526101a08701516101608301528601519094509250620003a66101e0860162000234565b9150620003b7610200860162000234565b905092959194509250565b600082620003e057634e487b7160e01b600052601260045260246000fd5b500690565b60805160a05160c05160e05161010051610120516101405161016051610180516101a0516101c0516101e0516102005161022051610240516125bd620004c96000396000818161035c0152610feb01526000610a63015260006109b301526000610a2c01526000610a07015260006109e40152600061090d0152600081816108e801526111260152600081816108be0152611100015260008181610983015261114c01526000818161093701526115b901526000818161095d01526118450152600081816108990152610bc401526000610c1701526000610b8401526125bd6000f3fe608060405234801561001057600080fd5b506004361061012b5760003560e01c8063bd85b039116100ad578063c905a4b511610071578063c905a4b514610295578063cc962f8e1461029d578063d8165743146102c0578063e985e9c5146102d5578063fba56008146102e857600080fd5b8063bd85b0391461024a578063becee9c31461025d578063c45a01551461027d578063c55dae6314610285578063c69e16ad1461028d57600080fd5b80634e41a1fb116100f45780634e41a1fb146101e757806360246c88146101fa5780637ecebe001461020f578063afdac68d14610222578063b0d965801461023557600080fd5b8062ad800c1461013057806316f0115b1461015957806320fc48811461017957806321ff32a9146101b35780633656eec2146101d4575b600080fd5b61014361013e366004611e6d565b610317565b6040516101509190611ed6565b60405180910390f35b61016161034e565b6040516001600160a01b039091168152602001610150565b61018c610187366004611e6d565b610391565b6040805182516001600160801b03168152602092830151600f0b9281019290925201610150565b6101c66101c1366004611f00565b6103e3565b604051908152602001610150565b6101c66101e2366004611f3c565b610429565b6101436101f5366004611e6d565b610462565b610202610470565b6040516101509190611f68565b6101c661021d366004611ff3565b61066a565b6101c6610230366004611e6d565b610696565b61023d61087c565b604051610150919061200e565b6101c6610258366004611e6d565b610a99565b61027061026b3660046120d0565b610abb565b6040516101509190612145565b610161610b76565b610161610bb6565b6101c6610bf6565b6101c6610c10565b6102b06102ab366004611ff3565b610c48565b6040519015158152602001610150565b6102c8610c7e565b6040516101509190612189565b6102b06102e3366004612276565b610ce4565b6102f0610d28565b6040805182516001600160801b039081168252602093840151169281019290925201610150565b606061034961032583610d87565b6040516020016103359190611ed6565b604051602081830303815290604052610eb5565b919050565b604080516001600160a01b037f000000000000000000000000000000000000000000000000000000000000000016602082015260009161038e9101610335565b90565b6040805180820190915260008082526020820152610349600e600084815260200190815260200160002060405160200161033591546001600160801b038116825260801d600f0b602082015260400190565b60008381526004602090815260408083206001600160a01b03868116855290835281842090851684528252808320548151928301526104229101610335565b9392505050565b60008281526001602090815260408083206001600160a01b038516845282528083205481519283015261045c9101610335565b92915050565b606061034961032583610ed9565b6104db604051806101a00160405280600081526020016000815260200160008152602001600081526020016000815260200160008152602001600081526020016000815260200160008152602001600081526020016000815260200160008152602001600081525090565b60006104e5610fcb565b600d5460026020527f3ccfbaf375b4885450e3887dab0704e32e03acfeaf0442976372f6750e322c1f5460008080527fac33ff75c19e70fe83507db0d683fd3465c996598dc972688b7ace676c89077b54939450926001600160801b039092169161055091906122cc565b61055a91906122df565b9050600080831161056c576000610587565b6105878361058161057c86611063565b6111c9565b90611437565b604080516101a0810182526008546001600160801b038082168352600954600f0b6020840152600160801b918290048116938301939093526060820186905260808201879052600a5480841660a0840152600b5480851660c085015290829004841660e08401528190048316610100830152600d54808416610120840152049091166101408201529091506000906101608101841561062f5761062a848661144c565b610632565b60005b8152600954600160801b90046001600160801b03166020918201526040519192506106639161033591849101611f68565b5050505090565b6001600160a01b0381166000908152600760209081526040808320548151928301526103499101610335565b601354601280546000926001600160801b03600160801b8204811693911691849190839081106106c8576106c86122f2565b600091825260208083206040805180820190915292015463ffffffff8116835264010000000090046001600160e01b031690820152915061070986856122df565b9050600083156107235761071e6001856122df565b610732565b601254610732906001906122df565b60408051808201909152600080825260208201529091505b8482146107e157600060128381548110610766576107666122f2565b6000918252602090912001805490915063ffffffff1684106107b45760408051808201909152905463ffffffff8116825264010000000090046001600160e01b0316602082015290506107e1565b82156107ca576107c56001846122df565b6107d9565b6012546107d9906001906122df565b92505061074a565b805163ffffffff1660000361080957604051630a89817b60e41b815260040160405180910390fd5b600081602001516001600160e01b031685602001516001600160e01b031661083191906122df565b8251865191925060009161084e9163ffffffff90811691166122df565b905061086f61085d828461231e565b60405160200161033591815260200190565b5050505050505050919050565b610884611dcf565b60408051610180810182526001600160a01b037f0000000000000000000000000000000000000000000000000000000000000000811682527f00000000000000000000000000000000000000000000000000000000000000006020808401919091527f0000000000000000000000000000000000000000000000000000000000000000838501527f00000000000000000000000000000000000000000000000000000000000000006060808501919091527f000000000000000000000000000000000000000000000000000000000000000060808501527f000000000000000000000000000000000000000000000000000000000000000060a08501527f000000000000000000000000000000000000000000000000000000000000000060c0850152601154831660e08501527f0000000000000000000000000000000000000000000000000000000000000000909216610100840152835191820184527f000000000000000000000000000000000000000000000000000000000000000082527f0000000000000000000000000000000000000000000000000000000000000000828201527f0000000000000000000000000000000000000000000000000000000000000000828501526101208301919091526012546101408301527f0000000000000000000000000000000000000000000000000000000000000000610160830152915161038e9261033592910161200e565b6000818152600260209081526040808320548151928301526103499101610335565b606060008267ffffffffffffffff811115610ad857610ad8612332565b604051908082528060200260200182016040528015610b01578160200160208202803683370190505b50905060005b83811015610b5a576000858583818110610b2357610b236122f2565b90506020020135905060008154905080848481518110610b4557610b456122f2565b60209081029190910101525050600101610b07565b50610b6f816040516020016103359190612145565b5092915050565b604080516001600160a01b037f000000000000000000000000000000000000000000000000000000000000000016602082015260009161038e9101610335565b604080516001600160a01b037f000000000000000000000000000000000000000000000000000000000000000016602082015260009161038e9101610335565b600061038e60105460405160200161033591815260200190565b600061038e7f000000000000000000000000000000000000000000000000000000000000000060405160200161033591815260200190565b6001600160a01b0381166000908152601460209081526040808320549051610349926103359260ff169101901515815260200190565b6040805161014081018252600080825260208201819052918101829052606081018290526080810182905260a0810182905260c0810182905260e08101829052610100810182905261012081019190915261038e60086040516020016103359190612348565b6001600160a01b038281166000908152600360209081526040808320938516835292815282822054835160ff909116151591810191909152909161045c9101610335565b6040805180820190915260008082526020820152604080518082018252600d546001600160801b03808216808452600160801b909204811660209384019081528451938401929092529051169181019190915261038e90606001610335565b606060f882901c6001600160f81b0383166000610da382611461565b90506000836003811115610db957610db96122a0565b03610deb576040518060400160405280600d81526020016c048797065726472697665204c5609c1b8152509350610ead565b6001836003811115610dff57610dff6122a0565b03610e2b5780604051602001610e1591906123c9565b6040516020818303038152906040529350610ead565b6002836003811115610e3f57610e3f6122a0565b03610e555780604051602001610e159190612402565b6003836003811115610e6957610e696122a0565b03610ead576040517f48797065726472697665205769746864726177616c20536861726500000000006020820152603b015b60405160208183030381529060405293505b505050919050565b80604051636e64089360e11b8152600401610ed09190611ed6565b60405180910390fd5b606060f882901c6001600160f81b0383166000610ef582611461565b90506000836003811115610f0b57610f0b6122a0565b03610f3d576040518060400160405280600d81526020016c0485950455244524956452d4c5609c1b8152509350610ead565b6001836003811115610f5157610f516122a0565b03610f675780604051602001610e15919061243c565b6002836003811115610f7b57610f7b6122a0565b03610f915780604051602001610e159190612474565b6003836003811115610fa557610fa56122a0565b03610ead576040516c485950455244524956452d575360981b6020820152602d01610e9b565b6040516303d1689d60e11b8152670de0b6b3a764000060048201526000907f00000000000000000000000000000000000000000000000000000000000000006001600160a01b0316906307a2d13a90602401602060405180830381865afa15801561103a573d6000803e3d6000fd5b505050506040513d601f19601f8201168201806040525081019061105e91906124a0565b905090565b6110c060405180610160016040528060008152602001600081526020016000815260200160008152602001600081526020016000815260200160008152602001600081526020016000815260200160008152602001600081525090565b60408051610160810182526008546001600160801b038082168352600954600f0b6020840152600160801b909104811692820192909252606081018490527f000000000000000000000000000000000000000000000000000000000000000060808201527f000000000000000000000000000000000000000000000000000000000000000060a08201527f000000000000000000000000000000000000000000000000000000000000000060c0820152600a54821660e0820152600b54909161010083019161118f911661156e565b8152600a546001600160801b03600160801b9182900481166020840152600b546040909301926111c19290041661156e565b905292915050565b6000806111e983610140015184610120015161143790919063ffffffff16565b61010084015160e08501516111fd91611437565b61120791906124b9565b9050600061121d846000015185602001516115e4565b905060008213156112bd57600061125f8286604001518760a001518860c00151670de0b6b3a764000061125091906122df565b89606001518a60800151611601565b905061126b81846116a1565b905080156112b7576112a4828660400151838860c00151670de0b6b3a764000061129591906122df565b89606001518a608001516116b6565b855186906112b39083906122df565b9052505b50611379565b6000821215611379576112cf826124d9565b915060006113038286604001518760c00151670de0b6b3a76400006112f491906122df565b886060015189608001516116f5565b905061130f81846116a1565b9050801561135b57611348828660400151838860c00151670de0b6b3a764000061133991906122df565b89606001518a6080015161178b565b855186906113579083906122cc565b9052505b61136581846122df565b855186906113749083906122cc565b905250505b60006113a8856101000151670de0b6b3a764000061139791906122df565b606087015160e08801519190611820565b6113d6866101400151670de0b6b3a76400006113c491906122df565b60608801516101208901519190611820565b6113e091906124b9565b905060008186600001516113f491906124f5565b90508560a0015181121561141b5760405163aeeb825d60e01b815260040160405180910390fd5b80865260a086015161142d90826122df565b9695505050505050565b60006104228383670de0b6b3a7640000611820565b600061042283670de0b6b3a764000084611820565b60408051604d808252608082019092526060919060009082602082018180368337019050509050611493600a85612515565b61149e9060306122cc565b60f81b816114ad6001856122df565b815181106114bd576114bd6122f2565b60200101906001600160f81b031916908160001a9053506114df600a8561231e565b935060015b8415611560576114f5600a86612515565b6115009060306122cc565b60f81b82600161151084876122df565b61151a91906122df565b8151811061152a5761152a6122f2565b60200101906001600160f81b031916908160001a90535061154c600a8661231e565b94508061155881612529565b9150506114e4565b918290030190815292915050565b600080670de0b6b3a764000061158261183e565b61158c9190612542565b905080831161159c5760006115a6565b6115a681846122df565b91506104226115dd670de0b6b3a76400007f0000000000000000000000000000000000000000000000000000000000000000612542565b839061144c565b6000806115f183856124b9565b9050600081121561042257600080fd5b6000806116118888878787611874565b9050600061163461162c87611626878b6118a3565b906118b8565b86908661190f565b61163e90836122df565b9050670de0b6b3a764000081106116725761166b611664670de0b6b3a76400008861144c565b82906118b8565b905061168a565b611687611664670de0b6b3a764000088611935565b90505b61169488826122df565b9998505050505050505050565b60008183116116b05782610422565b50919050565b6000806116c788888888888861194a565b9092509050806116ea57604051637ac17d2560e01b815260040160405180910390fd5b509695505050505050565b6000806117058787878787611a0c565b90506000611730670de0b6b3a764000061171f878761144c565b61172991906122cc565b8390611935565b9050670de0b6b3a7640000811061175d57611756611664670de0b6b3a764000088611935565b9050611775565b611772611664670de0b6b3a76400008861144c565b90505b61177f81886122df565b98975050505050505050565b60008061179b8888878787611a0c565b90506117ab85611626888a6122df565b965060006117c584866117be8b866122df565b919061190f565b9050670de0b6b3a764000081106117f2576117eb611664670de0b6b3a764000088611935565b905061180a565b611807611664670de0b6b3a76400008861144c565b90505b6118148185611935565b905061169489826122df565b600082600019048411830215820261183757600080fd5b5091020490565b600061186a7f000000000000000000000000000000000000000000000000000000000000000042612515565b61105e90426122df565b600061188085856118b8565b61189961189186611626868b611437565b859085611820565b61142d91906122cc565b60006104228383670de0b6b3a764000061190f565b6000816000036118d15750670de0b6b3a764000061045c565b826000036118e15750600061045c565b8160006118ed85611a31565b9050818102611904670de0b6b3a764000082612559565b905061142d81611c44565b600082600019048411830215820261192657600080fd5b50910281810615159190040190565b600061042283670de0b6b3a76400008461190f565b600080600061195c8989888888611a0c565b905061196c86611626898b6122cc565b975087811015611983576000809250925050611a01565b600061199485876117be8c866122df565b9050670de0b6b3a764000081106119c1576119ba611664670de0b6b3a764000089611935565b90506119d9565b6119d6611664670de0b6b3a76400008961144c565b90505b6119e38186611935565b9050808a11156119fa576119f7818b6122df565b93505b6001925050505b965096945050505050565b6000611a1885856118b8565b611899611a2986611626868b6118a3565b85908561190f565b6000808213611a5357604051636838feed60e11b815260040160405180910390fd5b5060606001600160801b03821160071b82811c67ffffffffffffffff1060061b1782811c63ffffffff1060051b1782811c61ffff1060041b1782811c60ff10600390811b90911783811c600f1060021b1783811c909110600190811b90911783811c90911017609f81810383019390931b90921c6c465772b2bbbb5f824b15207a3081018102821d6d0388eaa27412d5aca026815d636e018102821d6d0df99ac502031bf953eff472fdcc018102821d6d13cdffb29d51d99322bdff5f2211018102821d6d0a0f742023def783a307a986912e018102821d6d01920d8043ca89b5239253284e42018102821d6c0b7a86d7375468fac667a0a527016c29508e458543d8aa4df2abee7882018202831d6d0139601a2efabe717e604cbb4894018202831d6d02247f7a7b6594320649aa03aba1018202831d6c8c3f38e95a6b1ff2ab1c3b343619018202831d6d02384773bdf1ac5676facced60901901820290921d6cb9a025d814b29c212b8b1a07cd190102780a09507084cc699bb0e71ea869ffffffffffffffffffffffff190105711340daa0d5f769dba1915cef59f0815a550602605f19919091017d0267a36c0c95b3975ab3ee5b203a7614a3f75373f047d803ae7b6687f2b302017d57115e47018c7177eebf7cd370a3356a1b7863008a5ae8028c72b88642840160ae1d90565b6000680248ce36a70cb26b3e198213611c5f57506000919050565b680755bf798b4a1bf1e58212611c885760405163df92cc9d60e01b815260040160405180910390fd5b6503782dace9d9604e83901b059150600060606bb17217f7d1cf79abc9e3b39884821b056001605f1b01901d6bb17217f7d1cf79abc9e3b39881029093036c240c330e9fb2d9cbaf0fd5aafb1981018102606090811d6d0277594991cfc85f6e2461837cd9018202811d6d1a521255e34f6a5061b25ef1c9c319018202811d6db1bbb201f443cf962f1a1d3db4a5018202811d6e02c72388d9f74f51a9331fed693f1419018202811d6e05180bb14799ab47a8a8cb2a527d57016d02d16720577bd19bf614176fe9ea6c10fe68e7fd37d0007b713f765084018402831d9081019084016d01d3967ed30fc4f89c02bab5708119010290911d6e0587f503bb6ea29d25fcb740196450019091026d360d7aeea093263ecc6e0ecb291760621b010574029d9dc38563c32e5c2f6dc192ee70ef65f9978af30260c3939093039290921c92915050565b60405180610180016040528060006001600160a01b0316815260200160008152602001600081526020016000815260200160008152602001600081526020016000815260200160006001600160a01b0316815260200160006001600160a01b03168152602001611e5960405180606001604052806000815260200160008152602001600081525090565b815260200160008152602001600081525090565b600060208284031215611e7f57600080fd5b5035919050565b60005b83811015611ea1578181015183820152602001611e89565b50506000910152565b60008151808452611ec2816020860160208601611e86565b601f01601f19169290920160200192915050565b6020815260006104226020830184611eaa565b80356001600160a01b038116811461034957600080fd5b600080600060608486031215611f1557600080fd5b83359250611f2560208501611ee9565b9150611f3360408501611ee9565b90509250925092565b60008060408385031215611f4f57600080fd5b82359150611f5f60208401611ee9565b90509250929050565b815181526020808301519082015260408083015190820152606080830151908201526080808301519082015260a0808301519082015260c0808301519082015260e08083015190820152610100808301519082015261012080830151908201526101408083015190820152610160808301519082015261018091820151918101919091526101a00190565b60006020828403121561200557600080fd5b61042282611ee9565b81516001600160a01b031681526101c081016020830151602083015260408301516040830152606083015160608301526080830151608083015260a083015160a083015260c083015160c083015260e083015161207660e08401826001600160a01b03169052565b50610100838101516001600160a01b03811684830152505061012083810151805184830152602081015161014085015260408101516101608501525050610140830151610180830152610160909201516101a09091015290565b600080602083850312156120e357600080fd5b823567ffffffffffffffff808211156120fb57600080fd5b818501915085601f83011261210f57600080fd5b81358181111561211e57600080fd5b8660208260051b850101111561213357600080fd5b60209290920196919550909350505050565b6020808252825182820181905260009190848201906040850190845b8181101561217d57835183529284019291840191600101612161565b50909695505050505050565b81516001600160801b03168152610140810160208301516121b560208401826001600160801b03169052565b5060408301516121ca6040840182600f0b9052565b5060608301516121e560608401826001600160801b03169052565b50608083015161220060808401826001600160801b03169052565b5060a083015161221b60a08401826001600160801b03169052565b5060c083015161223660c08401826001600160801b03169052565b5060e083015161225160e08401826001600160801b03169052565b506101008381015115159083015261012080840151801515828501525b505092915050565b6000806040838503121561228957600080fd5b61229283611ee9565b9150611f5f60208401611ee9565b634e487b7160e01b600052602160045260246000fd5b634e487b7160e01b600052601160045260246000fd5b8082018082111561045c5761045c6122b6565b8181038181111561045c5761045c6122b6565b634e487b7160e01b600052603260045260246000fd5b634e487b7160e01b600052601260045260246000fd5b60008261232d5761232d612308565b500490565b634e487b7160e01b600052604160045260246000fd5b81546001600160801b038082168352608091821c60208401526001840154600f81900b6040850152821c6060840152600284015480821683850152821c60a0840152600384015490811660c0840152901c60e0820152600482015460ff8082161515610100840152600882901c161515610120830152610140820190610b6f565b700243cb832b9323934bb32902637b7339d1607d1b8152600082516123f5816011850160208701611e86565b9190910160110192915050565b710243cb832b9323934bb329029b437b93a1d160751b81526000825161242f816012850160208701611e86565b9190910160120192915050565b6f242ca822a9222924ab2296a627a7239d60811b815260008251612467816010850160208701611e86565b9190910160100192915050565b70242ca822a9222924ab2296a9a427a92a1d60791b8152600082516123f5816011850160208701611e86565b6000602082840312156124b257600080fd5b5051919050565b8181036000831280158383131683831282161715610b6f57610b6f6122b6565b6000600160ff1b82016124ee576124ee6122b6565b5060000390565b808201828112600083128015821682158216171561226e5761226e6122b6565b60008261252457612524612308565b500690565b60006001820161253b5761253b6122b6565b5060010190565b808202811582820484141761045c5761045c6122b6565b60008261256857612568612308565b600160ff1b821460001984141615612582576125826122b6565b50059056fea26469706673582212202d03121fd1fa8d3412498643db31ee184a08e88abd268e3207bf7994bd5be89d64736f6c63430008130033",
    "linkReferences": {}
  },
  "methodIdentifiers": {
    "balanceOf(uint256,address)": "3656eec2",
    "baseToken()": "c55dae63",
    "factory()": "c45a0155",
    "getCheckpoint(uint256)": "20fc4881",
    "getMarketState()": "d8165743",
    "getPoolConfig()": "b0d96580",
    "getPoolInfo()": "60246c88",
    "getUncollectedGovernanceFees()": "c69e16ad",
    "getWithdrawPool()": "fba56008",
    "isApprovedForAll(address,address)": "e985e9c5",
    "isSweepable(address)": "cc962f8e",
    "linkerCodeHash()": "c905a4b5",
    "load(uint256[])": "becee9c3",
    "name(uint256)": "00ad800c",
    "nonces(address)": "7ecebe00",
    "perTokenApprovals(uint256,address,address)": "21ff32a9",
    "pool()": "16f0115b",
    "query(uint256)": "afdac68d",
    "symbol(uint256)": "4e41a1fb",
    "totalSupply(uint256)": "bd85b039"
  },
  "id": 12
}